:020000040800F2
:100000008C0300201B4E00002F4800002F480000EA
:100010002F4800002F4800002F480000000000007B
:100020000000000000000000000000005F48000029
:100030005F480000000000005F4800000548000025
:100040005F4800005F4800005F48000087480000EC
:100050005F4800005F480000B1480000DB48000036
:10006000054900002F490000594900005F48000081
:100070005F4800005F4800005F4800005F480000E4
:100080005F4800005F480000814900005F480000B1
:100090005F4800005F4800005F480000AB49000077
:1000A000D7490000034A00002F4A00005B4A0000C5
:1000B000854A0000AF4A0000D94A0000054B000005
:1000C000314B00005D4B0000894B0000B14B00003C
:1000D000D94B0000034C00002D4C0000574C000091
:1000E000814C0000AD4C0000D74C00000000000027
:1000F0000000000000000000000000000000000000
:100100000000000000000000FF4C0000274D000030
:100110004F4D0000774D00009F4D0000C74D00007F
:100120005F4800005F4800005F4800005F48000033
:100130005F4800005F4800005F4800005F48000023
:100140005F4800005F4800005F480000EF4D00007E
:100150008C050000FFFF222D2D2D204D6563726957
:1001600073702D5374656C6C6172697320524120F9
:10017000322E352E33202D2D2D0007B59048002B23
:1001800009D000F03DF800F043F800F028F8426094
:1001900028210160F3E707BD00B589480023016805
:1001A000282905D1426800F004F800F04EF8F6E77F
:1001B00000BD03B547F8046D160047F8046D1E0036
:1001C00008B400F09FFF08BC013347F8046D7D4E72
:1001D00047F8046D40F2612604F05AF903BD03B5F7
:1001E000013B47F8046D1E0008B400F075FF08BC21
:1001F000320047F8046D4FF4005604F049F903BD8E
:1002000003B5714801681E2901D000F034F803BD20
:1002100081690162016981618168016101688160B0
:10022000C16941624169C161C16841614168C160A0
:100230001E21016070470FB5614801681E2903D077
:10024000FFF7DEFFFFF7E4FF0FBD02B58168016035
:10025000C168416000E002B5016981604169C16027
:1002600081690161C1694161016A8161416AC1615C
:100270001E21016202BD08B501681E220260082924
:1002800001D20B0004E0282909D1436800F05BF893
:1002900047F8046D4D4E56EA033602F0AFFF08BD35
:1002A00000B500F009F800F00CF800F00FF800F0CD
:1002B00012F800F015F800BD0FB54348FFF7DBFF5B
:1002C0000FBD0FB54248FFF7D6FF0FBD0FB5414830
:1002D000FFF7D1FF0FBD0FB53F48FFF7CCFF0FBDB4
:1002E0000FB537480168062202601E2906D147F87B
:1002F000046D4CF6407602F050FF15E0282909D134
:10030000436847F8046D1E0047F8046D062602F0A6
:1003100007FC09E0062907D047F8046D44F2066699
:10032000C9000E4302F039FF00F001F80FBD244868
:100330001E210162816101618160C162062101604B
:1003400000218162704707B547F8046D1E0000F078
:1003500045F847F8046D1E0002F0E2FB07BD07B543
:10036000C16A282904D1016B994201D1002307BD3C
:100370000168002918D08168002915D00169002979
:1003800012D0816900290FD0016A00290CD00363C3
:1003900047F8046D1E0047F8046D002602F0C0FB0C
:1003A0002821C162002307BD47F8046D1E0000F03C
:1003B00015F847F8046D1E0002F0B2FB07BD0000FF
:1003C000280000208C0E000048000020040D47F893
:1003D00040000020380000203000002037B53648AB
:1003E0000168826803698469056A062000F00EF8D6
:1003F000032000F00BF8022000F008F8012000F0C4
:1004000005F800232C481E21C16237BD814209D066
:10041000824207D0834205D0844203D0854201D076
:10042000030037BD704747F8046D4CF6007600B501
:1004300081581E2905D1FFF7D1FF83500121994032
:100440000E4300BD00B501681E2904D10022FFF74C
:10045000EAFF02F0A2FE00BD00B581681E2907D1A7
:100460000822FFF7E0FF0022FFF7E1FF02F095FE10
:1004700000BD00B501691E290AD11022FFF7D3FF84
:100480000822FFF7D4FF0022FFF7D1FF02F085FE1C
:1004900000BD00B581691E290DD11822FFF7C3FFE9
:1004A0001022FFF7C4FF0822FFF7C1FF0022FFF769
:1004B000BEFF02F072FE00BD2800002000B50168FA
:1004C000282904D14368FFF73EFF0360190000BDEF
:1004D00000B58168282904D1C368FFF734FF836021
:1004E000190000BD00B50169282904D14369FFF74F
:1004F0002AFF0361190000BD3EB582680369846963
:10050000056A9A4203D0A24201D0AA420AD1072A20
:1005100008D847F8046DD600FFF760FF1E438360DC
:1005200002F03BFE3EBD3EB5016882680369846906
:10053000056A914206D0994204D0A14202D0A94254
:1005400000D03EBD47F8046DCE00FFF747FF1E43C5
:10055000036002F022FE3EBD00B5FFF776FEFFF716
:100560006AFEFFF73BFF036000BD01B50648036864
:10057000013308D00023DB43036047F8046D4BF2DE
:10058000005602F00AFE01BDD84F0020B005000061
:100590004202043264757000386847F8046D043F05
:1005A0003860704700B500F0C3FC00F0C1FC00BD2E
:1005B000CE0500006202053264726F70043740CFCE
:1005C000704700B500F064FC00F062FC00BD14064A
:1005D0000000440205327377617007CF043F386032
:1005E00047F8046D043F3A600E00704700B5FFF70E
:1005F00050FF026803690360026142684369436017
:1006000042618268836983608261C268C369C36032
:10061000C26100BD3C060000620204326E697000D7
:1006200007CF043F3860704700B5FFF732FFFFF790
:10063000DDFFFFF70AFEFFF708FE00BD56060000CB
:10064000440005326F766572B86847F8046D043F60
:100650003860FE6870477A06000044000532747501
:10066000636B07CF043F386047F8046D043F3A607E
:10067000043F3960043F386070479C060000460024
:100680000432726F74003868B9683A69B8603961C9
:100690003A6079687E60FE68F9607047BE060000C7
:1006A000460005322D726F743868B9683A6938614E
:1006B0003960BA60F968FE607E6879607047E60666
:1006C0000000200203323E7201CF01B440B440CF9B
:1006D000704700B5FFF749FF00F0FDFB00F09DFCFF
:1006E00000F09BFC00BD1207000020020332723EA6
:1006F00047F8046D40BC01BC043F3860704700B54A
:10070000FFF733FF00F0A5FC00F0A3FC00F0E3FBD3
:1007100000BD4207000020020332724047F8046D1A
:10072000019E47F8046D009E704700B5FFF71DFF5E
:1007300047F8046D49F6010603F061FA03F05BFA2D
:1007400000BD68070000200206327264726F7000FC
:1007500002B0704700B5FFF708FF47F8046D4BF291
:10076000020602F01AFD00BD80070000420003648B
:10077000322F3868F1077610400808433860704718
:100780009607000062020364322A38680018764136
:100790003860704717E0B0070000420004647368D7
:1007A00072003868F10776084008084338607047DF
:1007B000FC0700006202046473686C00386800186B
:1007C00076413860704700B5FFF746FEFFF776FECA
:1007D000FFF7A9FE00F07FFBFFF770FEFFF7A3FE17
:1007E00047F8046D402601F055FC00F074FB47F813
:1007F000046D44F2401601F04DFC00BD0E080000EF
:100800004200046461627300002E07D470472C0814
:100810000000420007646E656761746538680021F6
:10082000C043F64301304E41386070477C080000F9
:10083000640202642D0007CF121AB1410E00043F7A
:100840003A60704700B5FFF724FE00F099FBFFF710
:1008500035FEFFF768FE00F03EFBFFF72FFEFFF7C7
:1008600062FEFFF7C3FE01F07FFB00F0A5FB47F837
:10087000046D44F2801600F031FD00BDCA0800008E
:10088000640202642B0007CF12184E41043F3A6005
:10089000704700B5FFF7FDFD00F072FBFFF70EFE9D
:1008A000FFF741FE00F017FBFFF708FEFFF73BFEE6
:1008B000FFF79CFE01F03DFB00F07EFB47F8046D66
:1008C00044F2401600F00EFD00BDF4080000610285
:1008D00003733E6447F8046DF617704700B500F0E7
:1008E000C5FAFFF720FE47F8046D41F2C07601F02B
:1008F000D1FB00BD52090000620203756D2A386801
:10090000A0FB06063860704747F8046DDFF8006505
:1009100000B5FFF7A1FDFFF7D1FDFFF7D9FD016895
:100920000E43816856EA0146FFF78FFCFFF78DFC06
:10093000FFF781FCFFF752FD036056EA0336FFF72D
:100940007AFCFFF74BFD036056EA032602F056FCE3
:1009500000BD700900006202026D2A00386880FB49
:1009600006063860704747F8046DDFF8A864CFE7E3
:10097000AE09000044000375642A07CF5643414383
:100980007618010C130C59437618010C80B292B200
:100990005143434350430022C91852411204B61830
:1009A0000A04090C80184E41043F38607047400A21
:1009B000000044000475646D2A0010B5002447F857
:1009C000046D7E6847F8046D3E69FFF798FF3100BB
:1009D00040CF300040CF47F8046D3E6847F8046DC3
:1009E000FE6803B4FFF78BFF03BC330040CF320037
:1009F00040CF47F8046D3E6847F8046D3E690FB478
:100A0000FFF77DFF0FBC9219634140CF8919624106
:100A1000634140CF47F8046D7E6847F8046DFE6877
:100A20000FB4FFF76CFF0FBC9219634140CF8919D7
:100A30006241634140CF1E003A607960B86010BDEA
:100A4000620A00004300022A2F0000B540B440CFE4
:100A5000FFF784FF47F8046D40BC00F04CF8043702
:100A600000BD840A00004300052A2F6D6F6400B5A5
:100A700040B440CFFFF772FF47F8046D40BC00F070
:100A80003AF800BDA60A0000430003752A2F00B5FE
:100A900040B440CFFFF733FF47F8046D40BC00F08F
:100AA0001BF8043700BDCA0A0000430006752A2F50
:100AB0006D6F640000B540B440CFFFF720FF47F8EA
:100AC000046D40BC00F008F800BDEA0A00004300D5
:100AD00006756D2F6D6F640000B547F8046D002634
:100AE00000F019F840CF043700BD080B00004300A8
:100AF000056D2F6D6F6400B547F8046DF61700F0B3
:100B000032F840CF043700BD5A0B00004400067590
:100B1000642F6D6F640030B4002300227968B868D8
:100B200035003C6840264000494152415B41AB42A0
:100B300002D804D3A24202D3121BAB410130013EC2
:100B4000F1D10E0038607B60BA6030BC704730B4C1
:100B500000237A68B9680020E2E7D00B0000440067
:100B600005642F6D6F6400B5F01719D0FFF756FEBE
:100B7000FFF733FDF0170CD0FFF750FEFFF72DFD08
:100B8000FFF7C9FFFFF729FDFFF748FEFFF725FD37
:100B900000BDFFF722FDFFF7BEFFFFF73FFE00BDE0
:100BA000FFF71BFDF0170ED0FFF738FEFFF715FD1E
:100BB000FFF7B1FFFFF732FEFFF70FFDFFF72EFE45
:100BC000FFF70BFD00BDFFF708FDFFF7A4FF00BD19
:100BD000E60B0000440002642F0000B5FFF7C3FFDE
:100BE000FFF71EFD00BD2E0C0000440002662A0027
:100BF00000B5F0170DD0FFF711FEFFF7EEFCF01770
:100C00000DD0FFF70BFEFFF7D8FE40CF01CF3860C5
:100C100000BDFFF7E2FCF017F5D0FFF7FFFDFFF78F
:100C2000CCFE40CF01CF3860FFF7F8FD00BD7A0C55
:100C30000000440002662F0000B5F0170ED0FFF749
:100C4000EDFDFFF7CAFCF0170ED0FFF7E7FDFFF749
:100C5000C4FCFFF77CFFFFF7E3FC00BDFFF7BDFC22
:100C6000F017F4D0FFF7DAFDFFF7B7FCFFF76FFFDF
:100C7000FFF7D4FDFFF7D4FC00BDC20C000020023A
:100C80000232210006CF3160726040CF704700B55C
:100C9000FFF7EFFB0168426806B400F0EEFDFFF7D6
:100CA000CAFA06BC0160282906D047F8046D46F24E
:100CB000400600F0E6FD00BD0432426000F0DDFDBC
:100CC00000BD0C0D0000200202324000043F70689D
:100CD00038603668704700B500F0C8F80168282908
:100CE0000AD047F8046D46F6400600F0A7FD00F074
:100CF000F2F800F09FFD00BD41680431416000F052
:100D000099FD00F0E8F800F095FD00BD200D000011
:100D100044000364753C07CF121AB141B6417047D5
:100D2000340D000044000364753E07CF801A8E41E5
:100D3000B64170474A0D0000440002643C0007CFF2
:100D4000121AB1410CDB00267047660D000044000A
:100D500002643E0007CF801A8E4101DB00267047F7
:100D60000026F6437047820D000062020364303CA7
:100D70000437F617704700B500F0C0F800F03CFBF0
:100D800000BDAA0D000062020364303D01CF06439E
:100D9000013EB641704700B547F8046D44F2003695
:100DA00000F0A0FA00F002FB00BDD00D00004402EC
:100DB00003643C3E07CF50404E400643013EB641DF
:100DC000F643704700B500F015F800F003FB00BDD6
:100DD000180E0000440202643D0007CF50404E4010
:100DE0000643013EB641704700B500F003F800F03D
:100DF000DDFA00BD00B5FFF74CFB00F0C1F800F0D4
:100E0000C3F900F0D9F800F0BFF900F0B0F900BD67
:100E10000000A0FB000080FB2A0E000020000373EE
:100E2000704047F8046D3E0070473A0E0000200005
:100E300003737021370040CF70474C0E0000200034
:100E40000372704047F8046D6E4670475C0E0000F8
:100E5000200003727021B54640CF7047800E00001D
:100E600061020364757047F8046D704706B5FFF7BB
:100E7000E9FA01684268FFF7DEF90160426006BDE9
:100E8000AC0E000061020464726F700040CF7047C6
:100E900000B501681E2906D147F8046D43F20476B7
:100EA00002F07BF900BDFFF7D0F900BDC20E0000D3
:100EB0006100043F64757000002E01D047F8046D96
:100EC0007047EE0E000062020473776170003968AB
:100ED0003E600E0070470CB5FFF7BEFA02688368EB
:100EE000036082604268C3684360C2600CBD1C0F2F
:100EF00000006202036E69700437704700B5FFF7A7
:100F0000A1FA81681E2902D0FFF7A5F900BD47F8B4
:100F1000046D43F2047602F040F900BD440F000076
:100F20006202046F7665720047F8046D7E68704750
:100F300000B5FFF791FA8168C268FFF77CF901609C
:100F4000426000BD6A0F00006202047475636B00AA
:100F500001CF083F7E603860704700B5FFF77CFA2C
:100F6000FFF784FF00F028F800BDA00F0000630227
:100F700003726F7403CF083F78603E600E007047C5
:100F80000EB5FFF776FA0168826803698160026135
:100F900003604168C2684369C160426143600EBD3D
:100FA000C40F00006302042D726F740003CF083F6A
:100FB0007E6039600600704700B5FFF7E1FFFFF77C
:100FC000DFFF00BDD60F00002000047069636B00D6
:100FD00057F826607047EE0F00000000056465704A
:100FE00074684F49C91B47F8046D8E1070470A108A
:100FF00000000000067264657074680047F8046DB4
:101000006E464849891B8E10704740100000200230
:10101000023E720040B440CF704700B5FFF7A5FA1A
:10102000FFF710FAFFF74AFA47F8046D4BF2004653
:1010300001228A40164302F0B0F8FFF706F900BD1E
:1010400076100000200202723E0047F8046D40BC9A
:10105000704700B5FFF789FAFFF7EDF8FFF7BEF923
:10106000036047F8046D4BF6004601229A40164390
:1010700002F093F800BD94100000200202724000BC
:1010800047F8046D009E704700B5FFF76EFA02F056
:10109000B2FD00BDB81000002002057264726F70CE
:1010A00001B0704700B5FFF760FA47F8046D4BF2E6
:1010B000010602F072F800BDCC100000200005729D
:1010C0007069636BB6006E4436687047F8100000B4
:1010D000000004726F6C6C00002E01D140CF70478D
:1010E000B0003958C019031F1A6802600438013E65
:1010F000F9D104370E007047281100000000052DBB
:10110000726F6C6C002E01D140CF70473868394641
:101110004A680A600431013EFAD1086040CF704746
:101120008C0200208C030020421100006202036147
:101130006E6401CF0640704747F8046D44F2000624
:10114000D0E05E11000062020362696301CFB04328
:101150000600704747F8046D44F28036BEE078110F
:1011600000006202026F720001CF0643704747F829
:10117000046D44F20036B5E092110000620203787B
:101180006F7201CF4640704747F8046D44F2400645
:10119000A8E0AA1100006202012A01CF464370476D
:1011A00047F8046D44F240369CE0DE110000610215
:1011B00003636C7AB6FA86F6704700B5FFF742F91A
:1011C00047F8046D704EFFF779F90E4356EA014671
:1011D000FFF7C2F956EA032602F010F800BDEE113F
:1011E0000000610003726F725FEA760670470012BA
:1011F0000000610003726F6CB61956F1000670476B
:10120000381200006202076172736869667401CF68
:1012100030410600704700B547F8046D44F20016EF
:1012200047F8046D41F20006FFF716F941681F29DF
:101230002AD91F21416027E0621200006202067273
:1012400073686966740001CFF0400600704700B50E
:1012500047F8046D44F2C00647F8046D40F60006F6
:1012600012E09C1300006202066C736869667400E9
:1012700001CFB0400600704700B547F8046D44F256
:10128000800647F8046D0026FFF7E6F80168282974
:1012900003D040CF00F022F800BD04374168FEF7CC
:1012A000D4FF002901D140CF00BD1F290AD88901F0
:1012B0000E430268D2001643FFF74EF91E4301F0B9
:1012C0006CFF00BD40CFFFF747F947F8046D42F2CD
:1012D00000061B021E4301F060FF00BD0FB5FFF7C3
:1012E000BBF80CE00FB5FFF7B7F80168062901D18C
:1012F000FFF7F1FD8268282A01D1FFF7ECFDFFF727
:10130000E7F8016828291ED147F8046D466801F006
:1013100053FB02CF002E40CF15D0B6F5804F01D140
:101320001A4E1EE044F24002964201D1184E18E0D7
:10133000B6F5864F01D1174E13E04FF4874296421F
:1013400001D1154E0DE0FFF7D7F8FFF7B7F8C90048
:1013500082680E43164301F020FFFEF776FF0FBDB3
:101360000FB50E43816856EA0146FEF76EFFFEF7A1
:101370006CFFFEF760FFFFF731F8036056EA0326C3
:1013800001F03CFF0FBD000080F0B0FA000010F04B
:10139000000090F0000050F0000030F0C213000098
:1013A000610202303D00013EB641704700B500F0D9
:1013B000FAF800F02CFEFEF748FF4FF4524181622C
:1013C00000BDEA130000610203303C3E013EB6411D
:1013D000F643704700B500F0E6F800F018FEFEF79F
:1013E00034FF4FF45341816200BD121400006102CA
:1013F00002303C00F617704700B500F0D4F847F80B
:10140000046D41F2C07600F045FE4FF45541816213
:1014100000BD28140000600004747275650047F870
:10142000046D0026F64370473C140000600005661A
:10143000616C736547F8046D002670476214000004
:101440004202023E3D0001CFB042EADA0026704778
:1014500047F8046D4DF6003647F8046D4DF600264A
:10146000ADE0881400004202023C3D0001CFB042D2
:10147000D7DD0026704747F8046D4DF6004647F863
:10148000046D4DF600569AE0AC1400004202013C97
:1014900001CFB042C5DB0026704747F8046D4DF61A
:1014A000002647F8046D4DF6003688E0D0140000A1
:1014B0004202013E01CFB042B3DC0026704747F83C
:1014C000046D4DF6005647F8046D4DF6004676E083
:1014D000F6140000620203753E3D01CF861BB64143
:1014E000F643704747F8046D4DF2003647F8046D37
:1014F0004DF2002663E01C150000620203753C3DBE
:1015000001CF361AB641F643704747F8046D4DF6E1
:10151000000647F8046D4DF6001650E04015000037
:10152000620202753C0001CF861BB641704747F846
:10153000046D4DF2002647F8046D4DF200363EE092
:1015400064150000620202753E0001CF361AB641F2
:10155000704747F8046D4DF6001647F8046D4DF6D8
:1015600000062CE0861500006202023C3E0001CF1E
:10157000811B361A0E43704747F8046D4DF2000682
:1015800047F8046D1BE0E81600006202013D01CF40
:10159000361A013EB641704747F8046D4DF2001609
:1015A00047F8046D0BE000B5FEF74CFFFEF784FE34
:1015B000FEF787FEFEF78AFEFEF78AFF00BD00B544
:1015C000FEF74AFFFEF778FEFEF77BFEFEF78AFF86
:1015D0008268282A05D1FFF77EFC39683E600E46F6
:1015E000826840CF016828291DD14168FF2907D8AA
:1015F00047F8046D42F600060E43816809021AE0BE
:1016000047F8046D466801F0D7F902CF002E40CFAD
:1016100009D047F8046D6A4E0E43816856EA0146C8
:1016200001F0ECFD0AE0FEF749FF47F8046D44F2D3
:101630008026C90016430E4301F0AFFDFEF705FEFC
:10164000FEF703FE866240CF00BD0FB55D48816A9C
:10165000002935D047F8046D866A00218162310A7D
:10166000D52901D140CF0FBDFEF7E5FDFEF7B6FE4F
:101670000360D22904D14FF4834600F00BFD0FBD67
:10168000D32906D14FF4834600F004FD00F015FD88
:101690000FBD023601F081FD47F8046D42F20006ED
:1016A00000F00FF800F009FD47F8046D4EF2000657
:1016B00001F073FD47F8046D42F2000600F001F8F6
:1016C0000FBD00B5FEF7BEFEFEF72DFF0168090253
:1016D0000E4301F062FD00BD00B5816A090AD529FB
:1016E00001D1FEF7B2FD00BD061700006202036DD6
:1016F000696E01CFB04200DC0600704747F8046D08
:101700004DF600362DE0241700006202036D61786B
:1017100001CFB04200DB0600704747F8046D4DF67C
:1017200000461EE044170000620204756D617800F7
:1017300001CFB04200D30600704747F8046D4DF664
:1017400000060EE0C8170000620204756D696E00A5
:1017500001CFB04200D80600704747F8046D4DF243
:10176000003600B5FEF778FE01688268914203D129
:1017700040CFFEF770FD00BD062A01D1FFF7ABFB9D
:101780000168282901D1FFF7A6FBFEF7CCFEFEF782
:101790009FFEC900026847F8046D44F280260E439C
:1017A000164301F0FAFC01F0F8FC47F8046D44F22E
:1017B00000660E43164301F0F0FCFEF74CFD00BD41
:1017C000000FB0F128000020061800000000046D92
:1017D0006F76650007B5310040CF320040CF002959
:1017E0000FD0B2420DD006D3013E013A705C505486
:1017F0000139FBD105E03078107001360132013932
:10180000F9D140CF07BD2818000000000466696CBC
:101810006C00300040CF310040CF002902D00139A8
:101820007054FCD140CF70476A180000200201407C
:101830003668704747F8046D46F6000600B5FEF7B7
:1018400001FE0368282B08D143687C211940090157
:101850000E437C218B43FEF782FDDB001E43FEF727
:101860007BFE1E4301F099FC00BDC218000020025F
:10187000012103CF30600E00704747F8046D46F237
:10188000000600B5FEF7E8FD0368282B09D1436880
:101890007C21194009010E437C218B43FEF75FFD3B
:1018A0000360DB001E438368282B02D1C368FEF768
:1018B0004AFD1E4301F071FCFEF7C7FCFEF7C5FCB4
:1018C00000BDF81800002002022B210003CF32686F
:1018D000121832600E00704700B5FEF7BDFDFFF72D
:1018E000C5FAFFF7A7FFFFF74BFB00F022FBFFF75E
:1018F000F2FAFFF7C2FF00BD3C19000020020268A7
:1019000040003688704700B5FEF79CFD47F8046D2F
:1019100048F600060368282B08D143683E21194089
:1019200049010E433E218B43FEF719FDDB001E43A8
:10193000FEF712FE1E4301F030FC00BD96190000B8
:1019400020020268210003CF30800E00704700B5EE
:10195000FEF782FD47F8046D48F200060368282B65
:1019600009D143683E21194049010E433E218B4372
:10197000FEF7F5FC0360DB001E438368282B02D1D1
:10198000C368FEF7E0FC1E4301F007FCFEF75DFCB8
:10199000FEF75BFC00BDCC190000200203682B2180
:1019A00003CF3288121832800E00704700B5FEF760
:1019B00053FDFFF75BFAFFF7A6FFFFF7E1FA00F030
:1019C000B8FAFFF788FAFFF7C2FF00BD101A00004F
:1019D0002002026340003678704700B5FEF732FD02
:1019E00047F8046D47F600060368282B08D14368C2
:1019F0001F21194089010E431F218B43FEF7AFFCC5
:101A0000DB001E43FEF7A8FD1E4301F0C6FB00BD30
:101A10006A1A000020020263210003CF30700E001A
:101A2000704700B5FEF718FD47F8046D47F2000651
:101A30000368282B09D143681F21194089010E43EF
:101A40001F218B43FEF78BFC0360DB001E43836882
:101A5000282B02D1C368FEF776FC1E4301F09DFBE4
:101A6000FEF7F3FBFEF7F1FB00BDA01A0000200219
:101A700003632B2103CF3278121832700E007047A7
:101A800000B5FEF7E9FCFFF7F1F9FFF7A6FFFFF756
:101A900077FA00F04EFAFFF71EFAFFF7C2FF00BD1B
:101AA000E01A0000200204626973210003CF32684B
:101AB000024332600E00704700B5FEF7CDFCFFF721
:101AC000D5F9FFF7B7FEFFF75BFA47F8046D44F26C
:101AD0000036FFF707FCFFF7FEF9FFF7CEFE00BD6B
:101AE000201B0000200204626963210003CF3268DA
:101AF000824332600E00704700B5FEF7ADFCFFF781
:101B0000B5F9FFF797FEFFF73BFA47F8046D44F28B
:101B10008036FFF7E3FBFFF7DEF9FFF7AEFE00BD0F
:101B2000601B0000200204786F72210003CF32682E
:101B3000424032600E00704700B5FEF78DFCFFF7A3
:101B400095F9FFF777FEFFF71BFA47F8046D44F2AB
:101B50004006FFF7C7FBFFF7BEF9FFF78EFE00BD9B
:101B6000961B0000200204626974400001CF3668B1
:101B7000064018BF4FF0FF36704700B5FEF76CFC0B
:101B8000FFF758FE47F8046D44F20006FFF7AAFB82
:101B9000FFF720FC00BDD61B00002002056862692B
:101BA000732103CF3288024332800E00704700B5A4
:101BB000FEF752FCFFF75AF9FFF7A5FEFFF7E0F931
:101BC00047F8046D44F20036FFF78CFBFFF783F90A
:101BD000FFF7BDFE00BD161C00002002056862690B
:101BE000632103CF3288824332800E00704700B5F4
:101BF000FEF732FCFFF73AF9FFF785FEFFF7C0F971
:101C000047F8046D44F28036FFF768FBFFF763F98D
:101C1000FFF79DFE00BD561C000020020568786F8E
:101C2000722103CF3288424032800E00704700B5E7
:101C3000FEF712FCFFF71AF9FFF765FEFFF7A0F9B0
:101C400047F8046D44F24006FFF74CFBFFF743F9F9
:101C5000FFF77DFE00BD8C1C000020020568626954
:101C6000744001CF3688064018BF4FF0FF367047EA
:101C700000B5FEF7F1FBFFF746FE47F8046D44F2AE
:101C80000006FFF72FFBFFF7A5FB00BDCC1C0000F3
:101C9000200205636269732103CF327802433270F8
:101CA0000E00704700B5FEF7D7FBFFF7DFF8FFF730
:101CB00094FEFFF765F947F8046D44F20036FFF72C
:101CC00011FBFFF708F9FFF7ACFE00BD0C1D00008B
:101CD000200205636269632103CF32788243327048
:101CE0000E00704700B5FEF7B7FBFFF7BFF8FFF730
:101CF00074FEFFF745F947F8046D44F28036FFF7AC
:101D0000EDFAFFF7E8F8FFF78CFE00BD4C1D000070
:101D100020020563786F722103CF3278424032701F
:101D20000E00704700B5FEF797FBFFF79FF8FFF72F
:101D300054FEFFF725F947F8046D44F24006FFF71B
:101D4000D1FAFFF7C8F8FFF76CFE00BD821D000056
:101D5000200205636269744001CF3678064018BFDF
:101D60004FF0FF36704700B5FEF776FBFFF735FE04
:101D700047F8046D44F20006FFF7B4FAFFF72AFBB8
:101D800000BD1C1E000000000768666C61736821BE
:101D9000300040CF310040CF4FF4A043984223D3CE
:101DA0004FF4003398421FD24FF6FF731940994207
:101DB00019D010F00102002A16D102889A4213D1DC
:101DC00010F10060514A524B1360524B1360524A5B
:101DD000012313600180514A136813F00103FBD102
:101DE0004D4A80231360704700F084FC2A57726FBD
:101DF0006E672061646472657373206F7220646122
:101E0000746120666F722077726974696E672066EC
:101E10006C61736820210A0002F050BC6C1E000047
:101E200000000E666C61736870616765657261734E
:101E300065000FB5300040CF4FF4A043984214D353
:101E4000324A334B1360334B1360334A022313601F
:101E5000334A1060304A42231360304A136813F04B
:101E60000103FBD12C4A802313600FBDEE1E00003E
:101E700000000A6572617365666C617368004FF4F7
:101E8000A04072B64FF400314FF6FF7203889342C0
:101E90001CD047F8046D060047F8046D00F02AFCDA
:101EA00010457261736520626C6F636B20617420F2
:101EB000200000F087FC00F01DFC0C2066726F6DA6
:101EC00020466C6173680A00FFF7B3FF0230884256
:101ED000DCD100F00FFC1246696E69736865642EF0
:101EE00020526573657420210A0002F076BC241F1D
:101EF000000000000E6572617365666C6173686650
:101F0000726F6D00300040CFBBE70000042002403C
:101F100023016745AB89EFCD102002400C20024021
:101F2000142002405A1F00006202012B01CF361814
:101F3000704700B5FEF790FA47F8046D43F20006CB
:101F400047F8046DC94E47F8046D41F600068168F4
:101F5000282917D1FEF7BFFF14E00020000062021D
:101F6000012D01CF861B704700B5FEF775FA47F8C3
:101F7000046D43F6000647F8046DBD4E47F8046D46
:101F800041F60026FEF7A4FA0168282927D1416806
:101F9000FF290CD840CF40CFFEF7AEFA0E43816840
:101FA00009020E4301F0F9F8FEF74FF900BD47F8BA
:101FB000046D0E0000F000FD02CF002E40CF0ED0C9
:101FC00040CF04370E43816856EA0146FEF73DF9DB
:101FD000FEF7C2FA56EA032601F010F900BD0437F5
:101FE0000437FEF76BFA89018268D2000E4316436C
:101FF000FEF72BF9FEF7B0FA1E4301F0CEF800BD54
:1020000018200000610202312D00013E704747F8A0
:10201000046D41F640663DE030200000610202316F
:102020002B000136704747F8046D41F6404631E019
:1020300048200000610202322D00023E704747F83E
:10204000046D41F6806625E06020000061020232E6
:102050002B000236704747F8046D41F6804619E0C0
:102060007A20000061020563656C6C2B04367047B2
:1020700047F8046D41F600560CE0AC200000610208
:10208000066E6567617465007642704747F8046DB7
:1020900044F2402600B5FEF7D5F90168C9000E43A9
:1020A000FEF75AFA1E4301F078F800BDC420000084
:1020B0006102036E6F74F643704747F8046D44F293
:1020C000C036E7E7DC20000061020373687276081F
:1020D000704747F8046D40F64006DBE7EC2000004F
:1020E00061020373686C7600704706E0022100000D
:1020F000610202322A007600704747F8046D4026DC
:10210000C8E71A21000061020563656C6C73B600B4
:10211000704747F8046D8026BCE732210000610259
:1021200002322F007610704747F8046D41F24006E6
:10213000B0E772210000610203616273F017361884
:102140004640704700B5FEF77DF947F8046D00265C
:102150000168C9000E43FEF7FFF91E4301F01DF8A8
:1021600047F8046D4DF2005601F017F8FFF78EFFA7
:1021700000BD90210000420005752F6D6F6401CFF6
:102180003100B0FBF6F67143401A043F38607047E7
:10219000AE2100004200042F6D6F640001CF3100BA
:1021A00090FBF6F67143401A043F38607047C22135
:1021B00000004200036D6F6400B5FFF7EFFF40CFF2
:1021C00000BD022200006202012F01CF90FBF6F653
:1021D000704700B5FEF740F9FEF770F9FEF778F9A1
:1021E00047F8046D234E01680E43816856EA0146A4
:1021F000FEF72BF8FEF7B0F956EA032600F0FEFFD3
:1022000000BD162200006100046576656E000120A5
:102210003040361870472E2200008100046261733E
:10222000650047F8046D144E70470A000000442210
:10223000000000000662696E617279000E4802219A
:10224000016070475A220000000007646563696DF1
:10225000616C09480A21016070477C22000000007F
:10226000036865780448102101607047000010F190
:102270000000B0F1F0F090FBFC4F0020982200002D
:10228000810009686F6F6B2D656D697447F8046D87
:102290006E4E704782230000B4220000810008685F
:1022A0006F6F6B2D6B65790047F8046D684E704752
:1022B000A8230000D222000081000A686F6F6B2DF6
:1022C000656D69743F0047F8046D624E7047D22314
:1022D0000000EE220000810009686F6F6B2D6B65B6
:1022E000793F47F8046D5C4E7047FE2300000C23D5
:1022F000000081000A686F6F6B2D70617573650057
:1023000047F8046D554E70478A47000022230000AD
:10231000000004656D6974000FB54C4800F026F8A4
:102320000FBD362300000000036B65790FB54848E8
:1023300000F01CF80FBD48230000000005656D6922
:10234000743F4448006887465A2300000000046B2D
:1023500065793F0040480068874670230000000010
:102360000570617573653D4800688746006887465B
:102370009623000000000B73657269616C2D656D1A
:10238000697400B500F025F8002E40CFFAD0344A29
:10239000167040CF00BDBE23000000000A736572B6
:1023A00069616C2D6B65790000B500F028F8002E8E
:1023B00040CFFAD047F8046D294A167800BDEC23C7
:1023C000000000000C73657269616C2D656D6974A5
:1023D0003F0000B5FFF7C7FF47F8046D002621480E
:1023E00001688020014000D0F64300BD7C2400003D
:1023F00000000B73657269616C2D6B65793F00B5E8
:10240000FFF7B1FF47F8046D002616480168202049
:10241000014000D0F64300BD13494FF03D00086075
:102420004FF40030486011494FF00800086010492F
:10243000086830F47F4050F40A4008600D49462097
:1024400008600D4942F20C0008607047F84F002008
:10245000F44F0020F04F0020EC4F0020E84F002008
:10246000044400400044004018100240100801409D
:1024700000080140084400400C440040A024000033
:102480000000076365787065637400B5386801B44F
:102490000130386000F00BF801BC067040CF00BD81
:1024A000162500000000066163636570740000B5C6
:1024B00002CF01390022FFF739FF300040CF7F28DB
:1024C00009D0202819D2092816D00A281FD00D2893
:1024D0001DD00828EFD1002AEDD000F00BF9030839
:1024E0002008002AE7D0885C013A80230340E2D02C
:1024F00040230340F5D0DEE72020B242DBD247F88C
:10250000046D0600FFF708FF01328854D3E7160078
:1025100000F09FF800BD28250000400003746962A8
:1025200047F8046D294E70473E2500008100033EA8
:10253000696E47F8046D264E704700000000642560
:10254000000082000E63757272656E742D736F7574
:102550007263650047F8046D1E4E7047000000006E
:10256000C400002080250000000009736574736FAB
:1025700075726365174802CF0660416040CF7047AF
:102580009E250000000006736F757263650047F8B2
:10259000046D104E043F7068386036687047D82567
:1025A000000000000571756572790FB508480021BB
:1025B0000160FFF7B5FF47F8046D47F8046DC826C2
:1025C000FFF775FFFFF7D6FF0FBD0000C400002026
:1025D000E44F0020DC4F00202026000000000763AD
:1025E0006F6D706172650FB5310040CF01CF8842C9
:1025F00002CF10D1002810D001380A5C335C412A88
:1026000002D35B2A38BF2032412B02D35B2B38BF69
:1026100020339A42EED000260FBD0026F6430FBDB0
:102620003426000000000263720000B500F062F87A
:10263000010A00BD46260000000002626C0047F857
:10264000046D202670475A26000000000573706153
:10265000636547F8046D20265EE67A2600000000D8
:10266000067370616365730000B5002E03DDFFF72C
:10267000F0FF013EFBD140CF00BD8A260000500094
:10268000065B636861725D0005E0A2260000000041
:1026900004636861720000B501F096FC40CF3678A3
:1026A00000BDB22600005004012847F8046D292619
:1026B00006E0CC2600005004015C47F8046D0026BB
:1026C00000B501F08BFC043740CF00BD102700009F
:1026D0003000022E2200AA4800B547F8046D06001B
:1026E00000F07BFA47F8046D222601F077FC00F039
:1026F00095FD00BD0AB447F8046D7646013E337877
:102700000121013319405B181EEB030E0ABC39E0AE
:10271000362700003000026322009A48DCE747F8C1
:10272000046D7646013E33780121013319405B1870
:102730001EEB030E7047602700003000027322007A
:102740009148C9E747F8046D764647F8046D013EA5
:1027500036780121731C19405B181EEB030E70477D
:1027600078270000000005636F756E74013647F826
:10277000046D013E36787047902700000000056325
:102780007479706500B5FFF7F1FF00F007F800BD40
:10279000B8270000000004747970650001B501CF0E
:1027A000002E07D047F8046D0678FFF7B5FD01301D
:1027B000013EF7D140CF01BDF227000000000468C0
:1027C00065782E0007B5310040CF20200F22043855
:1027D00047F8046D0E00C6401640092E01D9373661
:1027E00000E03036FFF798FD0028F0D1FFF731FF09
:1027F00007BD02280000000003682E731FB5634C5C
:102800000EE012280000000003752E731FB5604C07
:1028100006E0B62800000000022E73001FB55D4CD4
:102820005D49C91B8908220A2020292F200A202857
:10283000273E200A202F43432020203335204343C6
:10284000430A385C29295F200A0A544A106803B4F5
:102850000A201060FFF74EFF08537461636B3A2043
:102860005B0047F8046D0E0001F085FDFFF742FFA5
:10287000025D200003BC2736484A106000290AD0B8
:10288000474A106806B447F8046D0600A04706BC26
:10289000043A0139F5D1FFF72DFF0620544F533A82
:1028A000200047F8046D3600A047FFF723FF0420FF
:1028B0002A3E0A001FBD56290000000005776F72EE
:1028C000647300B5FFF716FF010A00F00AFFFFF777
:1028D00011FF09416464726573733A2047F8046D0F
:1028E000FFF770FFFFF706FF064C696E6B3A20009A
:1028F00047F8046D3668FFF765FFFFF7FBFE0746F4
:102900006C6167733A2047F8046DB688FFF75AFF89
:10291000FFF7F0FE06436F64653A2000B01D00F03B
:102920001CFF47F8046D0600FFF74CFFFFF7E2FEBF
:10293000064E616D653A200047F8046D0636FFF7D4
:1029400021FFFFF7D7FE010A00F0E4FE300040CF80
:10295000BDD040CF00BDA4290000000006756E75F3
:102960007365640000B500F0C8FF4FF000500168C7
:102970004FF00052914201D24FF40036761A00BD5A
:10298000F42600001E27000044270000C527000091
:1029900067430000774300008C020020FC4F0020BA
:1029A00088020020082B000000000D31326269749B
:1029B000656E636F64696E670FB5FF2E04D847F8C4
:1029C000046D5FF0FF360FBD16F0FF10B0420ED160
:1029D0004FF6FF710840310C814208D116F0FF0616
:1029E00056F4805647F8046D5FF0FF360FBD16F0C1
:1029F000FF20B0420FD14FF6FF710840310C8142E9
:102A000009D1360A16F0FF0656F4005647F8046D51
:102A10005FF0FF360FBDFF2231001140300A104039
:102A2000884210D1300C104088420CD1300E10403A
:102A3000884208D116F0FF0656F4405647F8046D58
:102A40005FF0FF360FBD300000210131001850F15A
:102A500000007FF07F020240802A05D01F29F4D3B6
:102A600047F8046D00260FBD0829F9D3060036F09B
:102A7000800611F00100C001064311F00E00C002F3
:102A8000064311F010008005064347F8046D5FF01F
:102A9000FF360FBD47F8046DDFF870665FF47041D4
:102AA00010EA0102120116435FF4006110EA01020C
:102AB000D20316435FF4E06110EA010212011643EB
:102AC000FF2110EA010216431E4397E347F8046D05
:102AD000DFF83C665FF0704110EA0102120B16430A
:102AE0005FF0006110EA0102520816435FF0E061F6
:102AF00010EA0102120B16435FF47F0110EA010293
:102B0000120C16431E4379E36E2B00000000107276
:102B1000656769737465726C69746572616C2C00A9
:102B20000FB5330040CF1B02FF2E05D856F40056D8
:102B30001E4300F032FB0FBDFFF73EFF002E40CFDB
:102B400006D0DFF8D00506431E4300F057FB0FBD4B
:102B5000F643FFF731FF002E40CF06D0DFF8B8056F
:102B600006431E4300F04AFB0FBDF6430BE0CE2B9D
:102B700000000000096D6F76776D6F76742C0FB5CD
:102B8000330040CF1B02300040CFFFF783FF4FF6EA
:102B9000FF7110EA014001D0FFF798FF0FBD0FB59C
:102BA0000136300040CF0023FFF774FFFFF78EFFA0
:102BB00006E00FB5013647F8046D0026FFF7B0FFB9
:102BC00047F8046D44F2807600F0E7FA0FBD342C2C
:102BD000000000000563616C6C2C0FB5330000F041
:102BE0007CFE300040CF1B1A043BDFF83015194043
:102BF000002906D0DFF82825914202D0BDE80F4019
:102C0000D7E740CF5B08DFF81C0540F2FF711940A1
:102C10000843DB0A40F2FF311940090408439B0ACC
:102C200013F001018906084347F8046D060000F01F
:102C3000E5FA0FBD6A2C00000000086C697465722B
:102C4000616C2C0008B547F8046D4FF6470600F09C
:102C5000A4FA47F8046D46F6045600F09EFA47F8C9
:102C6000046D0626FFF75CFF08BD8E2C00000000F7
:102C7000066372656174650000B500F033F842F6D2
:102C8000AB40804747F8046DBEF1010600BDD62C6D
:102C90000000200005646F65733E42F6AB4080473C
:102CA00047F8046DBEF10106704747F8046DBEF1A8
:102CB00001064FF000521368DFF86C140968022017
:102CC000084000D0023102311160FFF768FF136045
:102CD00000F0CAF900BD182D00000000073C627525
:102CE000696C647300B500F083FB00F0F6FD022010
:102CF000064040CF04D047F8046D362600F04DFA68
:102D000047F8046D4BF2005600F047FA47F8046D9F
:102D10000A2600F0B6FA00BD242D00005000035B27
:102D2000275D03E03C2D00000000012700B501F005
:102D30004BF900F06AFD300040CF00BD722D00005D
:102D4000300008706F7374706F6E650000B5FFF728
:102D5000EDFF47F8046D060039683E600E46FFF748
:102D600071FFFFF76FFF47F8046DF04EFFF735FF77
:102D700000BDC82D0000000007696E6C696E652CEF
:102D800000B54BF200514BF6005244F2707330889C
:102D9000884208D0904208D0984206D047F8046D87
:102DA000060000F0FAF90236F1E740CF00BD0EB49C
:102DB0004BF6005244F2707301880230914201D008
:102DC0009942F9D10EBC7047DE2D0000000004725C
:102DD00065742C0047F8046D4BF60056DDE1EC2DD0
:102DE00000003000046578697400F3E7042E0000E9
:102DF0003000077265637572736547F8046DCA4EDB
:102E00003668EAE61C2E0000810005737461746563
:102E100047F8046DC64E7047000000002E2E0000DB
:102E20000000015DC2480021C943016070473E2E89
:102E300000001000015BBE480021016070475E2E5B
:102E400000000000013A00B5BA48076000F0D0FA6F
:102E5000B74801210160B8480021016000BDDC2EA7
:102E600000003008013B00B5B2480168B94214D0F7
:102E7000B2498E4202D1B24EFFF784FCFFF73AFC12
:102E80001520537461636B206E6F742062616C61F6
:102E90006E6365642E0A01F011BCA5480068411CF0
:102EA00010D00B2805D847F8046D40F6200600F036
:102EB00010F947F8046D44F2707600F06EF901F0F5
:102EC000FDFA05E047F8046D4BF6005600F065F991
:102ED00000F0CAF896480021016000BDF02E000005
:102EE00000000765786563757465300040CF8746DC
:102EF000082F0000100009696D6D656469617465D3
:102F000047F8046D1026E4E01E2F0000500006690B
:102F10006E6C696E650047F8046D2026D9E0382F85
:102F2000000010000B636F6D70696C656F6E6C79DB
:102F300047F8046D3026CCE0522F000050000A30D4
:102F40002D666F6C6461626C650047F8046D402605
:102F5000BFE06C2F000050000A312D666F6C646179
:102F6000626C650047F8046D4126B2E0862F0000D0
:102F700050000A322D666F6C6461626C650047F820
:102F8000046D4226A5E0A02F000050000A332D66F4
:102F90006F6C6461626C650047F8046D432698E0CD
:102FA000BA2F000050000A342D666F6C6461626CA9
:102FB000650047F8046D44268BE0D42F00005000D4
:102FC0000A352D666F6C6461626C650047F8046DAC
:102FD00045267EE0EE2F000050000A362D666F6C0D
:102FE0006461626C650047F8046D462671E0083044
:102FF000000050000A372D666F6C6461626C6500DA
:1030000047F8046D472664E038300000000008638C
:103010006F6E7374616E740000B500F0E9F9FFF72C
:1030200011FE47F8046D44F2707600F0B6F8FFF731
:103030008CFF00F019F800BD5A3000000000093282
:10304000636F6E7374616E7400B500F0D1F9396806
:103050003E600E46FFF7F6FDE1E7C23000000000DB
:1030600006736D756467650000B54FF00050016828
:103070004FF0005291421DD202390A884FF6FF7379
:103080009A4205D147F8046D4FF0000600F085F82C
:1030900000F070F82B48006847F8046D06002A49D4
:1030A000096804314FF000521368116000F075F8A0
:1030B000136000BD00F05EF847F8046D4FF00006A5
:1030C00008E04C310000000008736574666C6167AD
:1030D000730000B54FF0005001684FF0005291426C
:1030E00005D2184801683143016040CF00BD32006D
:1030F00040CF15480068043001884FF6FF739942AD
:1031000001D1110000E01143018000BD000040F238
:103110000000C0F200005FF000007FF00100C0FF7F
:103120000000C0FF00F800F014000020B6430000CB
:10313000D84F0020100000205C00002085191204E8
:103140002628000020000020040000206831000034
:10315000410007616C69676E656401203040361874
:1031600002203040361870479031000000000561A1
:103170006C69676E00B54FF0005001680220014095
:1031800005D047F8046D4FF0000600F006F800BDCA
:10319000D8310000000002682C000FB5B6B2894893
:1031A0000168002902D0013100D001604FF00050C9
:1031B00001684FF00052914205D247F8046D0E00AD
:1031C000FEF7E6FD02E0320040CF0A8047F8046DCA
:1031D000022600F056F80FBDF23100000000012C6D
:1031E00000B547F8046DFFF7D8FF360CFFF7D5FFA1
:1031F00000BD0E3200000000033E3C2C00B547F835
:10320000046D360CFFF7C9FFFFF7C7FF00BD76322C
:103210000000000007737472696E672C07B5FF2108
:10322000314040CF300040CF002905D147F8046D30
:103230000026FFF7B2FF07BD47F8046D0678360297
:103240000E43FFF7AAFF0130013902290AD347F8DC
:10325000046D4678360202781643FFF79EFF02306F
:103260000239F2E7002900D107BD47F8046D06785E
:10327000FFF793FF07BDD6320000000005616C6CBC
:103280006F744FF0005001684FF00052914210D21D
:10329000320040CF89184FF40032914219D3FFF722
:1032A00029FA0B466C6173682066756C6C0A01F034
:1032B00005BA320040CF8918434A1268914208D3B8
:1032C000FFF718FA0952616D2066756C6C0A01F0FF
:1032D000F5B901607047FC320000000009666F72AA
:1032E00067657472616D00B500F028F84FF000500A
:1032F0003649016036483749016000BD2833000077
:1033000000000D636F6D70696C65746F72616D3F65
:1033100047F8046D00264FF0005000684FF0005150
:1033200088424DD3F64370474C33000000000C63D5
:103330006F6D70696C65746F72616D004FF0005055
:1033400000684FF00051884213D37047E03300000B
:1033500000000E636F6D70696C65746F666C6173ED
:1033600068004FF0005000684FF00051884200D2D2
:1033700070471748184902680B680A6003604FF0ED
:103380000050164902680B680A6003600E48006826
:10339000834215D300B5FFF7ADF92320566172695A
:1033A00061626C657320636F6C6C6964652077691A
:1033B00074682064696374696F6E6172790A00BD14
:1033C00070470000D84F0020240000208C0300200C
:1033D00004000020500100001C0000201800002004
:1033E000DC34000000000828637265617465290000
:1033F00000B500F0E9FD002E0ED1FFF77BF9152096
:10340000437265617465206E65656473206E616DDD
:103410006520210A01F052B9386847F8046D043F6D
:10342000386000F0A9F940CF002E40CF11D03868A5
:1034300047F8046D043F3860FFF75CF90952656492
:103440006566696E6520FFF7A9F9FFF753F9022E4B
:103450002000FFF78FFE4FF0005000684FF0005142
:10346000884221D292484FF00001016000F035FA05
:1034700047F8046D0626FFF704FFFDF797FDFFF7F9
:10348000CDFE8C4801680A684FF0FF339A4208D19C
:103490004FF000521368116047F8046DFFF7A0FE6B
:1034A0001360066040CF13E000F017FA814847F838
:1034B000046D0668FFF794FE47F8046D4FF6FF763B
:1034C000FFF76BFE7B48310040CF0160FFF7A6FE9F
:1034D0004FF0005001687848016000BDF4340000EE
:1034E0000000087661726961626C650047F8046DDE
:1034F000012613E00C350000000009327661726984
:1035000061626C6547F8046D022607E0EA35000049
:103510000000096E7661726961626C6500B5FFF743
:1035200067FF4FF0005001684FF00052914234D2D3
:103530000F200640B20061480168891A604A914232
:103540000BD2FFF7D7F80F4E6F7420656E6F75675B
:10355000682052414D0A01F0B1B8016047F8046D8E
:103560000E00FFF76FFB47F8046D44F27076FFF72B
:1035700014FE300040CF0200002805D00E60043158
:10358000FFF72EFE0138F9D147F8046D8026164367
:10359000FFF79FFDFFF768FD00BD00F09EF90220D8
:1035A000064040CF04D147F8046D3626FFF7F5FDFD
:1035B00047F8046D434EFFF721FE47F8046D424E75
:1035C000FFF71CFE47F8046D44F27076FFF7E5FD47
:1035D000300040CF002803D0FFF702FE0138FBD1B6
:1035E000FFF7B3FCFFF740FD00BDCC360000000044
:1035F000076275666665723A00B5FFF7F9FE01204D
:10360000304036180220304036184FF00050016824
:103610004FF00052914228D228480168891B284A5D
:1036200091420BD2FFF766F80F4E6F7420656E6FF4
:103630007567682052414D0A01F040B8016047F8B3
:10364000046D0E00FFF7FEFA47F8046D44F2707641
:10365000FFF7A3FDFFF7C4FD47F8046D40F24016E5
:10366000FFF737FDFFF700FD00BD00F036F902203F
:10367000064040CF04D147F8046D3626FFF78DFD94
:1036800047F8046D0F4EFFF7B9FD47F8046D0E4E75
:10369000FFF7B4FD47F8046D44F27076FFF77DFD47
:1036A000FFF7EFFDFFF751FCFFF7DEFC00BD000068
:1036B000200000200400002014000020240000202E
:1036C0008C0300203E60043F02367E46FE3600003A
:1036D00000000F64696374696F6E6172797374615D
:1036E00072744FF0005000684FF0005147F8046DBD
:1036F000884201D24B4E70474B4E366870473A377E
:10370000000000000E64696374696F6E6172796E07
:103710006578740003B531684FF0FF30814207D0FF
:103720008879FF2804D00E0047F8046D002603BDF9
:1037300047F8046D0026F64303BD6C370000000017
:103740000A736B6970737472696E67003178013146
:1037500001220A4089187618704706B401780131B1
:1037600001220A408918401806BC70477E370000C5
:1037700000000466696E64002C48006887469A372A
:103780000000810009686F6F6B2D66696E6447F8F1
:10379000046D274E7047A837000034380000000041
:1037A000062866696E64290030B5002200233500C2
:1037B00040CF340040CFFFF794FF4FF6FF70B18841
:1037C000884218D047F8046D0636FEF7CFFF47F859
:1037D000046D260047F8046D2E00FEF704FF002E4E
:1037E00040CF08D0B01DFFF7B8FF02000B004FF02C
:1037F0000050824204D2FFF78DFF300040CFDCD072
:10380000160047F8046D1E0030BD00B53100386861
:1038100003B4FFF7B1FF03BC3A68002A01D100F0FE
:10382000FBFE00BD5001000004000020D44F00202A
:10383000D44F002094380000000006636A756D7054
:103840002C00320040CF310040CF8B1B043B6FF087
:10385000FE01194000290ED06FF0FF0081420AD00E
:10386000FEF748FF0D4A756D7020746F6F2066611A
:10387000720A00F023BF5B10FF210B40134330009E
:103880001E0000B54FF0005213681060FFF785FC72
:10389000136000BDCE3800000000056A756D702C05
:1038A000310040CF300040CF0B1A043BC4491940CF
:1038B000002902D0C34A9142D2D15B1040F2FF727C
:1038C000134053F4604347F8046D1E00D9E7E6380F
:1038D0000000000004686572650047F8046D4FF051
:1038E0000056366870471C3A000000000D666C6197
:1038F00073687661722D6865726547F8046DB24E23
:103900003668704700B547F8046D42F60066FFF769
:1039100044FC47F8046D4CF64076FFF73EFC00BDD2
:10392000DBE700B500F03AF839683E600E4647F82C
:10393000046D4DF20016FFF784FF00BD00B500F0E6
:103940002DF839683E600E4647F8046D4DF200765A
:10395000FFF777FF00BD00B5FFF7D4FF00F01EF8BA
:1039600039683E600E4647F8046D4DF20006FFF7D9
:1039700068FF00BD00B500F011F839683E600E46E2
:10398000FFF78EFF00BD00B5FFF7BCFFFFF7A5FFF7
:1039900047F8046D0226FFF774FC00BD00B5FFF781
:1039A0009CFF47F8046D0226FFF76BFC00BD00B5D5
:1039B000FFF793FFFFF774FF00BD00B5FFF78DFF22
:1039C00047F8046D4DF20006FFF73BFF00BD00B560
:1039D000FFF783FF47F8046D4DF20016FFF731FF44
:1039E00000BD00B5FCF72EFDFCF766FCFCF769FC9A
:1039F000FCF76CFC8168282901D1FCF769FDFCF714
:103A00005DFD47F8046D42F6000609020E43FFF71C
:103A1000C4FBFCF71AFCFCF743FC00BD483A00006D
:103A20003000047468656E00052E01D140CFBEE7FA
:103A3000F1B200296DD100B5FFF74FFF39683E6044
:103A40000E46FFF7FEFE00BD643A0000300004653C
:103A50006C73650000B500F036F8FCF7BEFDFFF7AB
:103A6000E3FF00BDBA3A000030060269660000B507
:103A7000FFF789FF47F8046D4DF2000600BD00B561
:103A8000FCF773FDFDF728FE816A002907D002B418
:103A9000FCF706FCFFF782FF47F8046D40BDFFF717
:103AA000A0FFFFF71AFF47F8046D0226FFF7E9FBB6
:103AB00047F8046D4DF2000600BDD43A0000300016
:103AC00005616865616400B5FFF768FF47F8046D3C
:103AD000052600BDEE3A0000300006726570656193
:103AE000740000B500F05BF8FFF79EFF00BD323BAD
:103AF00000003006057768696C6500B5FFF7B7FF11
:103B0000FCF76BFD00BD00B5FFF7B9FFFCF765FDE5
:103B100000BDFEF7EFFD175374727563747572651F
:103B20007320646F6E2774206D617463680A00F0FF
:103B3000C5BD923B0000300605756E74696C012EA0
:103B4000E7D140CF07E77047012EE2D140CF00B563
:103B5000FDF7C2FD816A00290DD002B4FCF7A0FB7D
:103B6000FFF71CFF39683E600E4647F8046D40BC05
:103B7000FFF767FE00BDFFF734FFFFF70FFF39685F
:103B80003E600E4647F8046D4DF20006FFF759FE01
:103B900000BDA63B0000300005616761696E012E23
:103BA000B7D140CFE6E6CC3B000030000562656748
:103BB000696E00B5FFF7B4FE47F8046D012600BD3D
:103BC00001F8FFFF00F8FFFF24000020E63B0000A3
:103BD0002002016B47F8046D029E704747F8046DA0
:103BE00049F602060BE0143C00002002016A47F887
:103BF000046D009E704747F8046D49F6000600B555
:103C0000FCF719FBFCF7EAFB03601B021E43FFF7FE
:103C1000C4FA00BD403C00002002016947F8046D71
:103C20002600704700B547F8046D40F22006FCF707
:103C300002FBFCF7D3FB03601E43FFF7AEFA00BDA7
:103C40007E3C00003000056C6561766500B5754806
:103C500001683B00043F1A68043B1A6008338B423A
:103C6000F9D103B4FFF79AFE03BC330040CF043907
:103C70000B60016004390A6801320A6000BD903CA3
:103C80000000200006756E6C6F6F700030BC7047CE
:103C9000C83C00003000052B6C6F6F70032E00D005
:103CA00037E740CF00B547F8046D5F4EFFF768F87F
:103CB000FFF744FE1AE014F10044641BA41940CF3E
:103CC0002C44A4F1004470470A3D00003000046C0D
:103CD0006F6F7000032E00D01BE740CF00B547F890
:103CE000046D524EFFF74CF8FFF71BFE00F052F93F
:103CF0004C48310040CF016047F8046D4C4EFFF74F
:103D00003FF800BD0134AC427047523D0000300224
:103D100002646F0000B547F8046D464EFFF730F8B7
:103D20004048016847F8046D0E0047F8046D00260E
:103D30000760FFF7F5FD47F8046D032600BD00B5E9
:103D400000F02FF8ECE730B4340040CF350040CF1E
:103D50007047383E00003002033F646F00B547F8FB
:103D6000046D344EFFF70CF847F8046D44F2AC26AE
:103D7000FFF713FA2B48016847F8046D0E00FFF7B0
:103D80000DFE013647F8046D012626480760FFF74F
:103D9000C7FD47F8046D032600BD00B500F001F82B
:103DA000E2E700B5FCF7E1FBFCF756FBFCF784FA11
:103DB000FCF787FAFCF78AFA47F8046D4BF23046B5
:103DC000FFF7EBF90168282908D047F8046D40F2A5
:103DD0000406C9000E43FFF7E0F907E047F8046D59
:103DE000466847F8046D0426FEF79AFE8168282984
:103DF00008D047F8046D40F20506C9000E43FFF7EE
:103E0000CCF907E047F8046DC66847F8046D05264D
:103E1000FEF786FEFCF719FAFCF717FAFCF760FAD2
:103E200000BD00000C000020B63C0000043D000076
:103E30008C3C0000463D0000583E0000300004630A
:103E40006173650000B5FCF790FB47F8046D002630
:103E500047F8046D082600BD6E3E00003000033FA9
:103E60006F666F4809E0013EB64140CF7047343F6E
:103E700000003002026F66006A48082E00D048E653
:103E800040CF00B547F8046D0600FEF779FFFFF755
:103E900085FD39683E600E46013647F8046D0926F7
:103EA00047F8046D4CF64076FFF777F900BD082E11
:103EB00000D02EE640CF00B5FCF7CEFAFCF7FCF9B7
:103EC000FCF7FFF9FCF702FA47F8046D44F280268C
:103ED000FCF7FEFA0E430268282A1ED14268FF2A28
:103EE00008D840CF47F8046D42F600061643090291
:103EF0000E4314E047F8046D4668FEF75DFD04CFFD
:103F0000002E40CF06D0484E164356EA0146FFF732
:103F100075F906E0FCF7D2FA0A00D2001643FFF763
:103F20003CF9FCF792F9FCF7DBF9B0E7300040CF41
:103F3000B04270476A3F0000300005656E646F66EE
:103F4000092E00D0E5E540CF00B540B440CFFFF7E3
:103F500025FD39683E600E46FFF739FD47F8046DD0
:103F600040BC47F8046D082600BDBC3F000030008F
:103F700007656E6463617365082E00D0C9E540CFA4
:103F800000B547F8046D4CF64076FFF706F900F0EF
:103F900001F800BD00B5300040CF00280DD003B4BB
:103FA00001213140002903D0013EFFF706FD01E069
:103FB000FFF7FDFC03BC0138EFE700BDD03F000078
:103FC000000005746F6B656E47F8046D202605E0F0
:103FD00034400000000005706172736510B513482D
:103FE00001684068124A12688418202E07D1914255
:103FF0000FD0835CB34202D101328418F7E79142BB
:1040000007D0835C0132B342F9D18618361B013EDA
:1040100001E08618361B043F3C600548026010BD75
:10402000663E00002C3F0000000FB0F1DC4F002086
:10403000E44F002072400000000005646967697465
:10404000CF4B1B68303E0BD30A2E0BD3073E0A2EF4
:1040500006D3242E06D3203E0A2E01D3242E01D3CC
:10406000002670479E42FBD247F8046D0026F643B7
:1040700070477C4100000000066E756D626572003D
:104080003FB5310040CF701E0126012204B4BC4B65
:104090001B680024002500293CD00130013902783A
:1040A0002D2A04D101B00022D24304B4F3E7232A1D
:1040B00001D10A23EFE7242A01D11023EBE7252AB7
:1040C00001D10223E7E72E2A01D10226E3E72C2AB9
:1040D00036D047F8046D1600FFF7B4FF002E40CF2E
:1040E0002BD047F8046D260047F8046D2E0047F8E2
:1040F000046D1E0047F8046D00260FB4FCF73DFC6C
:104100000FBC350040CF340040CF0022A4195541E8
:1041100040CFC0E704BC002A04D50022E443ED43AD
:104120000134554133002600012B02D047F8046DBD
:104130002E0047F8046D1E003FBD01B000263FBDB4
:104140002500002402260029E4D0425C01392E2AF1
:10415000F9D047F8046D1600FFF774FF002E40CF2A
:10416000EBD0043F3C6047F8046D1E000FB4FCF731
:10417000B3FC0FBC340040CF40CFE4E79E410000C9
:104180000000062E6469676974000A2E01D2303679
:104190007047242E01D23736704723267047D4410A
:1041A0000000000004686F6C6400330040CF754865
:1041B00001783F290DD2013101704018012907D043
:1041C0000138027801300270013801390129F7D134
:1041D00003707047F4410000000005686F6C643C98
:1041E000330040CF674801783F2902D20131017086
:1041F000435470470C4200000000047369676E006E
:10420000002E01D440CF70472D26CEE7204200007B
:10421000000002233E005B4806780130386070479A
:104220003842000000000366235310B5202400F03C
:1042300008F8013CFBD110BD5A42000000000266A4
:10424000230000B547F8046D4D4E3668FCF757FB68
:10425000FFF79BFFFFF7C4FF00BD764200000000A0
:104260000223530000B500F00AF8002EFBD1386895
:104270000028F8D100BDA24200000000012300B5D3
:1042800047F8046D3E4E366847F8046D0026FCF78B
:1042900042FCFCF7A2F940CFFFF777FFFFF785FF5D
:1042A00000BDB44200000000023C2300354800215C
:1042B00001707047C6420000000002662E0047F8F9
:1042C000046D202604E014430000000003662E6EF7
:1042D00000B510B4340040CFFCF73AFEFCF794FA76
:1042E00047F8046D0026FFF7E1FFFFF7BBFF40CF63
:1042F0002C26FFF775FF002C03D0FFF7A2FF013C2F
:10430000FBD110BC40CFFFF77BFF47F8046D47F8A7
:10431000046D1CE02A43000000000375642E00B504
:10432000FFF7C4FFFFF79EFF11E05C4300000000B1
:1043300002642E0000B5FCF70BFEFCF765FAFFF7F0
:10434000B5FFFFF78FFFFCF715FEFFF759FFFFF7EB
:1043500062FFFEF723FAFEF77CF900BD6E43000012
:10436000000002752E0047F8046D0026D7E744458B
:1043700000000000012E47F8046DF617DAE7000090
:10438000FC4F00208400002030B5DC4C2568002D57
:1043900001D13D00256030BD30B5D84C3D002560D1
:1043A00030BD30B5D54C0025256030BDD34B1B68E2
:1043B000DB1B9B08704700B5310040CF4FF48050A5
:1043C000084002D000F0A6F800BD4FF4806008401D
:1043D00001D1FDF73AF9320040CFFFF7D5FF4FF496
:1043E0000050084003D047F8046D160000BDFFF7E9
:1043F000DDFF8020084006D14020084009D00F2072
:104400000840834205D347F8046D1600FEF76DFDA2
:1044100000BD4FF40070084014D0FBF7AEFE47F823
:10442000046D160047F8046D0E0000F031F810001E
:10443000FEF7BDFC421CB2489047FFF7ADFFFBF70B
:10444000ABFE00BDFBF799FE47F8046D160047F878
:10445000046D0E0000F01CF8FBF722FFFFF7A1FF30
:104460004FF40060084001D1FCF77FF847F8046D75
:10447000160010220A4002D0FEF737FD00BD2022B0
:104480000A4002D0FEF77CFC00BDFEF7A6FB00BD93
:104490000FB5320040CF330040CF9A48016806295B
:1044A00007D2062041439848401803801B0C4380E4
:1044B000828094480168013101600FBD0FB59148B9
:1044C000016806291FD8904801391DD047F8046DAE
:1044D0000E00FEF762FE47F8046D0688FEF75DFEEB
:1044E00047F8046D4688FEF758FE47F8046D868845
:1044F000FEF753FE06300139EDD147F8046D41F265
:104500000006FEF7E6FD0FBD47F8046D4026FEF7F6
:10451000E0FD0FBD00B5300040CFFEF748FC01883C
:10452000023047F8046D068842881204164347F8A3
:10453000046D868803B4FFF73EFF03BC06300139E3
:10454000EFD100BD8C4500000000086576616C75F8
:104550006174650000B5FEF71AF801CF01B440B4EC
:1045600040CF6A48016802B400210160FEF702F8FA
:1045700000F014F8654802BC016047F8046D40BCC7
:1045800001BC043F3860FDF7F5FF00BD9446000014
:10459000000009696E7465727072657400B55C48DC
:1045A00087420BD9FEF7A6F810537461636B207530
:1045B0006E646572666C6F770A007FE055488742CB
:1045C0000AD2FEF797F80F537461636B206F76651C
:1045D00072666C6F770A71E0FFF7D6FEFFF7F4FCA6
:1045E000002E02D1043740CF00BD386847F8046D73
:1045F000043F3860FFF7C0F8310040CF320040CFB1
:10460000002A1BD138683100FDF71FF8FFF738FD8D
:10461000320040CF002AC2D147F8046D060047F8A7
:10462000046D0E00FEF7BAF8FEF764F80C206E6F0A
:104630007420666F756E642E0A003FE0364B1B686F
:10464000002B1CD1FFF7ADFE30230B40302B0ED1D9
:10465000FEF7A4F8FEF74EF81220697320636F6D21
:1046600070696C652D6F6E6C792E0A0026E0043738
:1046700040CF47F8046D1600FEF737FC8FE704378C
:1046800040CF47F8046D160047F8046D0E00FFF7A1
:1046900092FE84E7B0460000810009686F6F6B2DC1
:1046A0007175697447F8046D1C4E7047E846000048
:1046B000304700000000047175697400DFF860D0B5
:1046C000134F18480A2101601348002101600B486C
:1046D0000160FBF72CFE0D4801601348016013498F
:1046E00041600E4800688746FDF75FFFFFF756FF01
:1046F000FEF700F805206F6B2E0AF5E70800002092
:10470000280000205C00002060000020E44F002012
:104710008C0200208C010020D84F0020D04F0020B8
:104720008C030020FC4F0020DC4F0020C400002040
:104730004A47000000000565696E743F47F8046D44
:10474000EFF31086013EB64170475A470000200043
:104750000465696E740062B670476A470000200005
:104760000464696E740072B67047804700002000D0
:1047700004697073720047F8046DEFF305867047A3
:104780008C4700000000036E6F707047CE4700003A
:10479000000009756E68616E646C656400B5FDF7B4
:1047A000A9FF14556E68616E646C656420496E746F
:1047B000657272757074200047F8046DEFF305861A
:1047C000FEF700F8FDF796FF02210A0000BDE4475E
:1047D00000000000057265736574DFF85C07DFF8A0
:1047E0005C1701601048000081000B6972712D7325
:1047F00079737469636B47F8046DDFF84467704739
:104800009C47000044F6CC70C2F200000068874666
:104810003A4800008100096972712D6661756C74F7
:1048200047F8046DDFF81C6770479C47000044F6AA
:10483000C870C2F20000006887466A480000810024
:104840000E6972712D636F6C6C656374696F6E00B5
:1048500047F8046DDFF8F06670479C47000044F6A7
:10486000C470C2F2000000688746924800008100D0
:10487000076972712D72746347F8046DDFF8CC66B6
:1048800070479C47000044F6C070C2F20000006808
:104890008746BC4800008100096972712D657874F3
:1048A000693047F8046DDFF8A86670479C47000040
:1048B00044F6BC70C2F2000000688746E64800007B
:1048C0008100096972712D657874693147F8046D4A
:1048D000DFF8806670479C47000044F6B870C2F26B
:1048E0000000006887461049000081000969727164
:1048F0002D657874693247F8046DDFF85C6670479F
:104900009C47000044F6B470C2F20000006887467D
:104910003A4900008100096972712D657874693324
:1049200047F8046DDFF8346670479C47000044F692
:10493000B070C2F200000068874664490000810040
:10494000096972712D657874693447F8046DDFF870
:10495000106670479C47000044F6AC70C2F200003D
:10496000006887468C4900008100076972712D61DB
:10497000646347F8046DDFF8EC6570479C470000FE
:1049800044F6A870C2F2000000688746B6490000ED
:104990008100096972712D657874693547F8046D75
:1049A000DFF8C46570479C47000044F6A470C2F26B
:1049B000000000688746E249000081000B697271BF
:1049C0002D74696D3162726B47F8046DDFF89C6578
:1049D00070479C47000044F6A070C2F200000068D7
:1049E00087460E4A000081000A6972712D74696D54
:1049F0003175700047F8046DDFF8746570479C47A7
:104A0000000044F69C70C2F20000006887463A4AF3
:104A1000000081000B6972712D74696D31747267C9
:104A200047F8046DDFF84C6570479C47000044F67A
:104A30009870C2F2000000688746664A0000810054
:104A40000A6972712D74696D3163630047F8046DF2
:104A5000DFF8246570479C47000044F69470C2F26A
:104A6000000000688746904A000081000869727162
:104A70002D74696D320047F8046DDFF800657047EA
:104A80009C47000044F69070C2F200000068874620
:104A9000BA4A00008100086972712D74696D330093
:104AA00047F8046DDFF8D86470479C47000044F66F
:104AB0008C70C2F2000000688746E44A0000810062
:104AC000086972712D74696D340047F8046DDFF860
:104AD000B46470479C47000044F68870C2F200003E
:104AE00000688746104B000081000A6972712D69C9
:104AF00032633165760047F8046DDFF88C647047E7
:104B00009C47000044F68470C2F2000000688746AB
:104B10003C4B000081000A6972712D693263316576
:104B2000720047F8046DDFF8646470479C4700002A
:104B300044F68070C2F2000000688746684B0000AF
:104B400081000A6972712D6932633265760047F817
:104B5000046DDFF83C6470479C47000044F67C70AD
:104B6000C2F2000000688746944B000081000A6989
:104B700072712D6932633265720047F8046DDFF897
:104B8000146470479C47000044F67870C2F200003D
:104B900000688746BC4B00008100086972712D7364
:104BA0007069310047F8046DFB4E70479C47000068
:104BB00044F67470C2F2000000688746E44B0000BF
:104BC0008100086972712D737069320047F8046DB5
:104BD000F24E70479C47000044F67070C2F200002D
:104BE000006887460E4C000081000A6972712D75BD
:104BF00073617274310047F8046DE94E70479C4749
:104C0000000044F66C70C2F2000000688746384C21
:104C1000000081000A6972712D757361727432002F
:104C200047F8046DDF4E70479C47000044F66870FB
:104C3000C2F2000000688746624C000081000A69E9
:104C400072712D7573617274330047F8046DD64E1E
:104C500070479C47000044F66470C2F20000006890
:104C600087468C4C000081000A6972712D6578744A
:104C70006931300047F8046DCC4E70479C47000006
:104C800044F66070C2F2000000688746B84C00002D
:104C900081000C6972712D727463616C61726D00B8
:104CA00047F8046DC24E70479C47000044F65C70A4
:104CB000C2F2000000688746E24C000081000B69E8
:104CC00072712D757362776B757047F8046DB94E0C
:104CD00070479C47000044F65870C2F2000000681C
:104CE00087460A4D00008100086972712D74696D54
:104CF000350047F8046DB04E70479C47000044F6FD
:104D00005470C2F2000000688746324D00008100F6
:104D1000086972712D737069330047F8046DA74EEE
:104D200070479C47000044F65070C2F200000068D3
:104D300087465A4D00008100096972712D756172B4
:104D4000743447F8046D9E4E70479C47000044F64B
:104D50004C70C2F2000000688746824D000081005E
:104D6000096972712D756172743547F8046D954E3D
:104D700070479C47000044F64870C2F2000000688B
:104D80008746AA4D00008100086972712D74696D13
:104D9000360047F8046D8C4E70479C47000044F67F
:104DA0004470C2F2000000688746D24D00008100C6
:104DB000086972712D74696D370047F8046D834E70
:104DC00070479C47000044F64070C2F20000006843
:104DD0008746FA4D00008100096972712D75736272
:104DE000667347F8046D7A4E70479C47000044F69E
:104DF0003C70C2F200000068874600500000FFFFD0
:104E0000182D2D2D20466C617368204469637469E8
:104E10006F6E617279202D2D2D00FDF7FDFA6D4822
:104E200085466D4F2A264FF000506A4901606B4855
:104E30006B49016047F8046D694E6A4DB1884FF6C1
:104E4000FF73994225D04FF480730B400AD0B01DF8
:104E5000FEF783FCFDF7ABFF0388408800040343A3
:104E6000ED1A16E080230B4013D00F231940890060
:104E70006D1AB01DFEF771FCFDF799FF47F8046D40
:104E8000060047F8046D2E0047F8046D0E00FCF78D
:104E9000A1FCFEF73FFC300040CFCFD05248066067
:104EA00040CF524805604FF400304FF4A0414FF618
:104EB000FF72884204D0023803889342F9D002304E
:104EC0004B490860FDF716FC3A4D656372697370D3
:104ED0002D5374656C6C6172697320524120322EBF
:104EE000352E3320666F722053544D3332463130A5
:104EF00033206279204D61747468696173204B6F4F
:104F000063680A003B4800210160FBF710FA47F88C
:104F1000046D394E47F8046D0426FEF72DFC40CF92
:104F2000002E03D0FDF7E1FFFFF7DBBB40CFFFF71B
:104F3000C5BB696E697400000CED00E00400FA0561
:104F4000CC4F0020C84F0020C44F0020C04F00208D
:104F5000BC4F0020B84F0020B44F0020B04F0020BD
:104F6000AC4F0020A84F0020A44F0020A04F0020ED
:104F70009C4F0020984F0020944F0020904F00201D
:104F80008C4F0020884F0020844F0020804F00204D
:104F90007C4F0020784F0020744F0020704F00207D
:104FA0006C4F0020684F0020644F0020604F0020AD
:104FB0005C4F0020584F0020544F0020504F0020DD
:104FC0004C4F0020484F0020444F0020404F00200D
:104FD0003C4F00208C0300208C02002004000020A5
:104FE00050010000005000201C0000202400002080
:0C4FF0001800002008000020324F0000D4
:0400000508000000EF
:00000001FF
