:1000000088034020454C4000B7484000B7484000B6
:10001000B7484000B7484000B74840000000000023
:10002000000000000000000000000000E748400061
:10003000E748400000000000E74840008D484000CD
:10004000E7484000E7484000E7484000E7484000F4
:10005000E7484000E7484000E7484000E7484000E4
:10006000E7484000E7484000114940003B49400054
:10007000654940008F494000B9494000E3494000CC
:100080000B4A4000334A40005B4A4000854A40002A
:10009000AF4A4000D74A4000E7484000E7484000E8
:1000A000E7484000E7484000E7484000E748400094
:1000B000E7484000FF4A4000274B40004F4B4000BC
:1000C000E7484000E7484000E7484000E748400074
:1000D000E7484000E7484000E7484000E748400064
:1000E000774B4000A14B4000C94B4000E74840001F
:1000F000E7484000E7484000E7484000E748400044
:10010000E7484000E7484000E7484000E748400033
:10011000E7484000E7484000E7484000E748400023
:10012000E7484000F14B4000E7484000E748400006
:10013000194C4000E7484000E7484000E7484000CD
:10014000E7484000E7484000E7484000E7484000F3
:10015000E7484000E7484000E74840009805400075
:10016000FFFF222D2D2D204D6563726973702D5375
:1001700074656C6C6172697320524120322E362E88
:1001800034202D2D2D0007B59048002B09D000F00C
:100190003DF800F043F800F028F8426028210160A3
:1001A000F3E707BD00B5894800230168282905D178
:1001B000426800F004F800F04EF8F6E700BD03B521
:1001C00047F8046D160047F8046D1E0008B400F0EF
:1001D0009FFF08BC013347F8046D7D4E47F8046D5E
:1001E00040F2612604F096F903BD03B5013B47F8E0
:1001F000046D1E0008B400F075FF08BC320047F81B
:10020000046D4FF4005604F085F903BD03B5714841
:1002100001681E2901D000F034F803BD8169016234
:10022000016981618168016101688160C169416220
:100230004169C161C16841614168C1601E210160BD
:1002400070470FB5614801681E2903D0FFF7DEFF34
:10025000FFF7E4FF0FBD02B581680160C16841602E
:1002600000E002B5016981604169C1608169016195
:10027000C1694161016A8161416AC1611E210162F6
:1002800002BD08B501681E220260082901D20B00D8
:1002900004E0282909D1436800F05BF847F8046DB1
:1002A0004D4E56EA033602F0EFFF08BD00B500F0F0
:1002B00009F800F00CF800F00FF800F012F800F068
:1002C00015F800BD0FB54348FFF7DBFF0FBD0FB5B5
:1002D0004248FFF7D6FF0FBD0FB54148FFF7D1FFEA
:1002E0000FBD0FB53F48FFF7CCFF0FBD0FB5374827
:1002F0000168062202601E2906D147F8046D4CF6FB
:10030000407602F091FF15E0282909D1436847F8AB
:10031000046D1E0047F8046D062602F047FC09E054
:10032000062907D047F8046D44F20666C9000E435B
:1003300002F07AFF00F001F80FBD24481E2101628F
:10034000816101618160C1620621016000218162D9
:10035000704707B547F8046D1E0000F045F847F8F0
:10036000046D1E0002F022FC07BD07B5C16A2829F2
:1003700004D1016B994201D1002307BD0168002916
:1003800018D08168002915D00169002912D081692F
:1003900000290FD0016A00290CD0036347F8046DCF
:1003A0001E0047F8046D002602F000FC2821C162FF
:1003B000002307BD47F8046D1E0000F015F847F84C
:1003C000046D1E0002F0F2FB07BD0000200040207B
:1003D000980E400040004020040D47F838004020AF
:1003E000300040202800402037B536480168826838
:1003F00003698469056A062000F00EF8032000F006
:100400000BF8022000F008F8012000F005F80023A6
:100410002C481E21C16237BD814209D0824207D0DB
:10042000834205D0844203D0854201D0030037BD0A
:10043000704747F8046D4CF6007600B581581E29C8
:1004400005D1FFF7D1FF8350012199400E4300BD34
:1004500000B501681E2904D10022FFF7EAFF02F06F
:10046000E3FE00BD00B581681E2907D10822FFF711
:10047000E0FF0022FFF7E1FF02F0D6FE00BD00B56D
:1004800001691E290AD11022FFF7D3FF0822FFF7C6
:10049000D4FF0022FFF7D1FF02F0C6FE00BD00B579
:1004A00081691E290DD11822FFF7C3FF1022FFF723
:1004B000C4FF0822FFF7C1FF0022FFF7BEFF02F0D2
:1004C000B3FE00BD2000402000B50168282904D1FA
:1004D0004368FFF73EFF0360190000BD00B5816867
:1004E000282904D1C368FFF734FF8360190000BDD9
:1004F00000B50169282904D14369FFF72AFF036188
:10050000190000BD3EB5826803698469056A9A4294
:1005100003D0A24201D0AA420AD1072A08D847F83C
:10052000046DD600FFF760FF1E43836002F07CFE7F
:100530003EBD3EB50168826803698469056A9142DF
:1005400006D0994204D0A14202D0A94200D03EBDBB
:1005500047F8046DCE00FFF747FF1E43036002F02B
:1005600063FE3EBD00B5FFF776FEFFF76AFEFFF7BC
:100570003BFF036000BD01B506480368013308D0A6
:100580000023DB43036047F8046D4BF2005602F092
:100590004BFE01BDCCFF4520BC05400042020432A9
:1005A00064757000386847F8046D043F3860704720
:1005B00000B500F0C3FC00F0C1FC00BDDA0540004E
:1005C0006202053264726F70043740CF704700B525
:1005D00000F064FC00F062FC00BD20064000440214
:1005E00005327377617007CF043F386047F8046DB8
:1005F000043F3A600E00704700B5FFF750FF0268F5
:100600000369036002614268436943604261826832
:10061000836983608261C268C369C360C26100BDCF
:1006200048064000620204326E69700007CF043F42
:100630003860704700B5FFF732FFFFF7DDFFFFF7C7
:100640000AFEFFF708FE00BD6206400044000532C6
:100650006F766572B86847F8046D043F3860FE68CD
:10066000704786064000440005327475636B07CFFF
:10067000043F386047F8046D043F3A60043F396036
:10068000043F38607047A806400046000432726F8D
:1006900074003868B9683A69B86039613A60796855
:1006A0007E60FE68F9607047CA0640004600053269
:1006B0002D726F743868B9683A6938613960BA6008
:1006C000F968FE607E6879607047F206400020029B
:1006D00003323E7201CF01B440B440CF704700B541
:1006E000FFF749FF00F0FDFB00F09DFC00F09BFCD4
:1006F00000BD1E07400020020332723E47F8046D21
:1007000040BC01BC043F3860704700B5FFF733FFC1
:1007100000F0A5FC00F0A3FC00F0E3FB00BD4E07D9
:10072000400020020332724047F8046D019E47F8F2
:10073000046D009E704700B5FFF71DFF47F8046D7C
:1007400049F6010603F0A1FA03F09BFA00BD740715
:100750004000200206327264726F700002B070476F
:1007600000B5FFF708FF47F8046D4BF2020602F0F0
:100770005BFD00BD8C07400042000364322F3868E7
:10078000F10776104008084338607047A207400020
:1007900062020364322A3868001876413860704774
:1007A00017E0BC07400042000464736872003868B8
:1007B000F107760840080843386070470808400091
:1007C0006202046473686C0038680018764138600F
:1007D000704700B5FFF746FEFFF776FEFFF7A9FE6C
:1007E00000F07FFBFFF770FEFFF7A3FE47F8046DF4
:1007F000402601F0EDFB00F074FB47F8046D44F275
:10080000401601F0E5FB00BD1A08400042000464F8
:1008100061627300002E07D4704738084000420020
:1008200007646E656761746538680021C043F643EC
:1008300001304E413860704788084000640202640D
:100840002D0007CF121AB1410E00043F3A607047E5
:1008500000B5FFF724FE00F099FBFFF735FEFFF728
:1008600068FE00F03EFBFFF72FFEFFF762FEFFF78A
:10087000C3FE01F017FB00F0A5FB47F8046D44F23E
:10088000801600F04EFD00BDD608400064020264F0
:100890002B0007CF12184E41043F3A60704700B555
:1008A000FFF7FDFD00F072FBFFF70EFEFFF741FEC4
:1008B00000F017FBFFF708FEFFF73BFEFFF79CFE7B
:1008C00001F0D5FA00F07EFB47F8046D44F24016C3
:1008D00000F02BFD00BD00094000610203733E647F
:1008E00047F8046DF617704700B500F0C5FAFFF73A
:1008F00020FE47F8046D41F2C07601F069FB00BDAF
:100900005E094000620203756D2A3868A0FB060686
:100910003860704747F8046DDFF8006500B5FFF7F1
:10092000A1FDFFF7D1FDFFF7D9FD01680E438168F6
:1009300056EA0146FFF78FFCFFF78DFCFFF781FCBD
:10094000FFF752FD036056EA0336FFF77AFCFFF724
:100950004BFD036056EA032602F096FC00BD7C09BD
:1009600040006202026D2A00386880FB060638608B
:10097000704747F8046DDFF8A864CFE7BA09400074
:1009800044000375642A07CF564341437618010C8F
:10099000130C59437618010C80B292B25143434371
:1009A00050430022C91852411204B6180A04090C17
:1009B00080184E41043F386070474C0A40004400A4
:1009C0000475646D2A0010B5002447F8046D7E6834
:1009D00047F8046D3E69FFF798FF310040CF3000C3
:1009E00040CF47F8046D3E6847F8046DFE6803B4D5
:1009F000FFF78BFF03BC330040CF320040CF47F8F6
:100A0000046D3E6847F8046D3E690FB4FFF77DFF43
:100A10000FBC9219634140CF89196241634140CFB5
:100A200047F8046D7E6847F8046DFE680FB4FFF761
:100A30006CFF0FBC9219634140CF89196241634139
:100A400040CF1E003A607960B86010BD6E0A400069
:100A50004300022A2F0000B540B440CFFFF784FFC7
:100A600047F8046D40BC00F04CF8043700BD900A14
:100A700040004300052A2F6D6F6400B540B440CF9D
:100A8000FFF772FF47F8046D40BC00F03AF800BD74
:100A9000B20A4000430003752A2F00B540B440CF8E
:100AA000FFF733FF47F8046D40BC00F01BF8043734
:100AB00000BDD60A4000430006752A2F6D6F640002
:100AC00000B540B440CFFFF720FF47F8046D40BCAD
:100AD00000F008F800BDF60A4000430006756D2FCF
:100AE0006D6F640000B547F8046D002600F019F83A
:100AF00040CF043700BD140B40004300056D2F6D3F
:100B00006F6400B547F8046DF61700F032F840CF77
:100B1000043700BD660B400044000675642F6D6FFE
:100B2000640030B4002300227968B86835003C685E
:100B300040264000494152415B41AB4202D804D3B8
:100B4000A24202D3121BAB410130013EF1D10E0093
:100B500038607B60BA6030BC704730B400237A687C
:100B6000B9680020E2E7DC0B4000440005642F6D0B
:100B70006F6400B5F01719D0FFF756FEFFF733FD8D
:100B8000F0170CD0FFF750FEFFF72DFDFFF7C9FF60
:100B9000FFF729FDFFF748FEFFF725FD00BDFFF732
:100BA00022FDFFF7BEFFFFF73FFE00BDFFF71BFD75
:100BB000F0170ED0FFF738FEFFF715FDFFF7B1FF76
:100BC000FFF732FEFFF70FFDFFF72EFEFFF70BFDDD
:100BD00000BDFFF708FDFFF7A4FF00BDF20B4000CA
:100BE000440002642F0000B5FFF7C3FFFFF71EFDAE
:100BF00000BD3A0C4000440002662A0000B5F01720
:100C00000DD0FFF711FEFFF7EEFCF0170DD0FFF748
:100C10000BFEFFF7D8FE40CF01CF386000BDFFF7D5
:100C2000E2FCF017F5D0FFF7FFFDFFF7CCFE40CF59
:100C300001CF3860FFF7F8FD00BD860C400044008E
:100C400002662F0000B5F0170ED0FFF7EDFDFFF79D
:100C5000CAFCF0170ED0FFF7E7FDFFF7C4FCFFF763
:100C60007CFFFFF7E3FC00BDFFF7BDFCF017F4D0FD
:100C7000FFF7DAFDFFF7B7FCFFF76FFFFFF7D4FDD3
:100C8000FFF7D4FC00BDCE0C400020020232210050
:100C900006CF3160726040CF704700B5FFF7EFFBC1
:100CA0000168426806B400F00CFEFFF7CAFA06BC01
:100CB0000160282906D047F8046D46F2400600F08E
:100CC00004FE00BD0432426000F0FBFD00BD180DC3
:100CD0004000200202324000043F706838603668ED
:100CE000704700B500F0C8F8016828290AD047F815
:100CF000046D46F6400600F0C5FD00F0F2F800F085
:100D0000BDFD00BD41680431416000F0B7FD00F059
:100D1000E8F800F0B3FD00BD2C0D40004400036472
:100D2000753C07CF121AB141B6417047400D4000E3
:100D300044000364753E07CF801A8E41B641704768
:100D4000560D4000440002643C0007CF121AB14126
:100D50000CDB00267047720D4000440002643E0028
:100D600007CF801A8E4101DB002670470026F6432C
:100D700070478E0D400062020364303C0437F61762
:100D8000704700B500F0C0F800F058FB00BDB60D8C
:100D9000400062020364303D01CF0643013EB6418C
:100DA000704700B547F8046D44F2003600F0BDFA14
:100DB00000F01EFB00BDDC0D4000440203643C3E1D
:100DC00007CF50404E400643013EB641F6437047C0
:100DD00000B500F015F800F01FFB00BD240E400028
:100DE000440202643D0007CF50404E400643013E9E
:100DF000B641704700B500F003F800F0F9FA00BD05
:100E000000B5FFF74CFB00F0C1F800F0C3F900F0AB
:100E1000D9F800F0BFF900F0B0F900BD0000A0FB68
:100E2000000080FB360E400020000373704047F83E
:100E3000046D3E007047460E400020000373702191
:100E4000370040CF7047580E4000200003727040BA
:100E500047F8046D6E467047680E4000200003722C
:100E60007021B54640CF70478C0E4000610203648C
:100E7000757047F8046D704706B5FFF7E9FA016829
:100E80004268FFF7DEF90160426006BDB80E40001F
:100E900061020464726F700040CF704700B5016852
:100EA0001E2906D147F8046D43F2047602F0BCF91E
:100EB00000BDFFF7D0F900BDCE0E40006100043F39
:100EC00064757000002E01D047F8046D7047FA0E6B
:100ED0004000620204737761700039683E600E0062
:100EE00070470CB5FFF7BEFA026883680360826042
:100EF0004268C3684360C2600CBD280F40006202B4
:100F0000036E69700437704700B5FFF7A1FA816876
:100F10001E2902D0FFF7A5F900BD47F8046D43F282
:100F2000047602F081F900BD500F40006202046FA8
:100F30007665720047F8046D7E68704700B5FFF76C
:100F400091FA8168C268FFF77CF90160426000BDD8
:100F5000760F40006202047475636B0001CF083F96
:100F60007E603860704700B5FFF77CFAFFF784FFBA
:100F700000F028F800BDAC0F4000630203726F74EC
:100F800003CF083F78603E600E0070470EB5FFF754
:100F900076FA0168826803698160026103604168D2
:100FA000C2684369C160426143600EBDD00F40001A
:100FB0006302042D726F740003CF083F7E603960B6
:100FC0000600704700B5FFF7E1FFFFF7DFFF00BD48
:100FD000E20F40002000047069636B0057F8266040
:100FE0007047FA0F400000000564657074684F494F
:100FF000C91B47F8046D8E107047161040000000A2
:10100000067264657074680047F8046D6E4648495E
:10101000891B8E1070474C1040002002023E720067
:1010200040B440CF704700B5FFF7A5FAFFF710FABC
:10103000FFF74AFA47F8046D4BF2004601228A4056
:10104000164302F0F1F8FFF706F900BD82104000E8
:10105000200202723E0047F8046D40BC704700B5A4
:10106000FFF789FAFFF7EDF8FFF7BEF9036047F8DD
:10107000046D4BF6004601229A40164302F0D4F864
:1010800000BDA010400020020272400047F8046D2D
:10109000009E704700B5FFF76EFA02F0F2FD00BD4A
:1010A000C41040002002057264726F7001B0704776
:1010B00000B5FFF760FA47F8046D4BF2010602F045
:1010C000B3F800BDD8104000200005727069636B52
:1010D000B6006E4436687047041140000000047288
:1010E0006F6C6C00002E01D140CF7047B0003958B2
:1010F000C019031F1A6802600438013EF9D1043791
:101100000E007047341140000000052D726F6C6CAA
:10111000002E01D140CF7047386839464A680A60CE
:101120000431013EFAD1086040CF70478802402068
:10113000880340204E114000620203616E6401CFBB
:101140000640704747F8046D44F20006EDE06A116E
:10115000400062020362696301CFB043060070473A
:1011600047F8046D44F28036DBE0841140006202EF
:10117000026F720001CF0643704747F8046D44F2D6
:101180000036D2E09E114000620203786F7201CFF8
:101190004640704747F8046D44F24006C5E0B6117A
:1011A00040006202012A01CF4643704747F8046DB0
:1011B00044F24036B9E0EA114000610203636C7A00
:1011C000B6FA86F6704700B5FFF742F947F8046DA6
:1011D0007E4EFFF779F90E4356EA0146FFF7C2F952
:1011E00056EA032602F050F800BD081240006118CC
:1011F00003726F720120C6417047020001000000B7
:10120000002034124000620226124000611803726E
:101210006F6C1F20C641704702001F0000000020B5
:101220003412400062024612400062020772726F7E
:101230007461746501CFF0410600704747F8046D92
:1012400044F2C0166DE07E124000620207617273C4
:101250006869667401CF30410600704700B547F8F1
:10126000046D44F2001647F8046D41F20006FFF7E2
:10127000F9F841681F292AD91F21416027E0A812E7
:1012800040006202067273686966740001CFF04024
:101290000600704700B547F8046D44F2C00647F8F1
:1012A000046D40F6000612E0E01340006202066C96
:1012B00073686966740001CFB0400600704700B5DE
:1012C00047F8046D44F2800647F8046D0026FFF7E6
:1012D000C9F80168282903D040CF00F022F800BDEA
:1012E00004374168FEF7B7FF002901D140CF00BDA8
:1012F0001F290AD889010E430268D2001643FFF75E
:1013000031F91E4301F090FF00BD40CFFFF72AF9ED
:1013100047F8046D42F200061B021E4301F084FFF1
:1013200000BD0FB5FFF79EF80CE00FB5FFF79AF878
:101330000168062901D1FFF7D4FD8268282A01D16E
:10134000FFF7CFFDFFF7CAF8016828291ED147F83B
:10135000046D466801F076FB02CF002E40CF15D019
:10136000B6F5804F01D11A4E1EE044F2400296427B
:1013700001D1184E18E0B6F5864F01D1164E13E094
:101380004FF48742964201D1144E0DE0FFF7BAF8B0
:10139000FFF79AF8C90082680E43164301F044FF34
:1013A000FEF759FF0FBD0FB50E43816856EA01469F
:1013B000FEF751FFFEF74FFFFEF743FFFFF714F86C
:1013C000036056EA032601F05FFF0FBD80F0B0FA1C
:1013D000000010F0000090F0000050F0000030F02D
:1013E00006144000610202303D00013EB6417047E4
:1013F00000B500F0FBF800F0A8FDFEF72CFF4FF45D
:101400005241816200BD2E144000610203303C3E17
:10141000013EB641F643704700B500F0E7F800F032
:1014200094FDFEF718FF4FF45341816200BD56143E
:101430004000610202303C00F617704700B500F032
:10144000D5F847F8046D41F2C07600F0C1FD4FF4C5
:101450005541816200BD6C144000600004747275D7
:10146000650047F8046D0026F6437047801440007D
:1014700060000566616C736547F8046D002670476F
:10148000A61440004202023E3D0001CFB042EADA1B
:101490000026704747F8046D4DF6003647F8046D96
:1014A0004DF60026AEE0CC1440004202023C3D0066
:1014B00001CFB042D7DD0026704747F8046D4DF6E6
:1014C000004647F8046D4DF600569BE0F0144000CE
:1014D0004202013C01CFB042C5DB0026704747F80D
:1014E000046D4DF6002647F8046D4DF6003689E090
:1014F000141540004202013E01CFB042B3DC002689
:10150000704747F8046D4DF6005647F8046D4DF6E8
:10151000004677E03A154000620203753E3D01CF78
:10152000861BB641F643704747F8046D4DF200360E
:1015300047F8046D4DF2002664E060154000620239
:1015400003753C3D01CF361AB641F643704747F864
:10155000046D4DF6000647F8046D4DF6001651E097
:1015600084154000620202753C0001CF861BB64123
:10157000704747F8046D4DF2002647F8046D4DF2B0
:1015800000363FE0A8154000620202753E0001CF20
:10159000361AB641704747F8046D4DF6001647F805
:1015A000046D4DF600062DE0CC1540006202023CB1
:1015B0003E0001CF361A013EB641F643704747F868
:1015C000046D4DF2000647F8046D1BE02E17400035
:1015D0006202013D01CF361A013EB641704747F81D
:1015E000046D4DF2001647F8046D0BE000B5FEF7F0
:1015F0002FFFFEF767FEFEF76AFEFEF76DFEFEF7B1
:101600006DFF00BD00B5FEF72DFFFEF75BFEFEF798
:101610005EFEFEF76DFF8268282A05D1FFF761FCA8
:1016200039683E600E46826840CF016828291DD186
:101630004168FF2907D847F8046D42F600060E43BB
:10164000816809021AE047F8046D466801F0FAF96A
:1016500002CF002E40CF09D047F8046D6A4E0E43EA
:10166000816856EA014601F00FFE0AE0FEF72CFF02
:1016700047F8046D44F28026C90016430E4301F07A
:10168000D3FDFEF7E8FDFEF7E6FD866240CF00BD24
:101690000FB55E48816A002935D047F8046D866A27
:1016A00000218162310AD52901D140CF0FBDFEF75B
:1016B000C8FDFEF799FE0360D22904D14FF483469A
:1016C00000F086FC0FBDD32906D14FF4834600F00D
:1016D0007FFC00F090FC0FBD023601F0A5FD47F83D
:1016E000046D42F2000600F00FF800F084FC47F8A9
:1016F000046D4EF2000601F097FD47F8046D42F2CA
:10170000000600F001F80FBD00B5FEF7A1FEFEF7E0
:1017100010FF016809020E4301F086FD00BD00B50F
:10172000816A090AD52901D1FEF795FD00BD4C1744
:1017300040006202036D696E01CFB04200DC06001A
:10174000704747F8046D4DF600362DE06A174000EB
:101750006202036D617801CFB04200DB0600704782
:1017600047F8046D4DF600461EE08A1740006202FD
:1017700004756D61780001CFB04200D30600704758
:1017800047F8046D4DF600060EE0101840006202A6
:1017900004756D696E0001CFB04200D80600704735
:1017A00047F8046D4DF2003600B5FEF75BFE0168A8
:1017B0008268914203D140CFFEF753FD00BD062A57
:1017C00001D1FFF78EFB0168282901D1FFF789FBC2
:1017D000FEF7AFFEFEF782FEC900026847F8046D0F
:1017E00044F280260E43164301F01EFD01F01CFD5D
:1017F00047F8046D44F200660E43164301F014FDF1
:10180000FEF72FFD00BD0000000FB0F120004020CA
:101810004E1840000000046D6F76650007B531007A
:1018200040CF320040CF00290FD0B2420DD006D3B6
:10183000013E013A705C50540139FBD105E030782B
:101840001070013601320139F9D140CF07BD70184F
:10185000400000000466696C6C00300040CF31002D
:1018600040CF002902D001397054FCD140CF7047DD
:10187000B2184000200201403668704747F8046DF6
:1018800046F6000600B5FEF7E3FD0368282B08D1F5
:1018900043687C21194009010E437C218B43FEF7EC
:1018A00064FDDB001E43FEF75DFE1E4301F0BCFC41
:1018B00000BD0A1940002002012103CF30600E0054
:1018C000704747F8046D46F2000600B5FEF7CAFD02
:1018D0000368282B09D143687C21194009010E4374
:1018E0007C218B43FEF741FD0360DB001E438368D0
:1018F000282B02D1C368FEF72CFD1E4301F094FC97
:10190000FEF7A9FCFEF7A7FC00BD4019400020022D
:10191000022B210003CF3268121832600E0070478C
:1019200000B5FEF79FFDFFF7A7FAFFF7A7FFFFF748
:101930002DFB00F09CFAFFF7D4FAFFF7C2FF00BDC1
:10194000841940002002026840003688704700B5C4
:10195000FEF77EFD47F8046D48F600060368282B65
:1019600008D143683E21194049010E433E218B4373
:10197000FEF7FBFCDB001E43FEF7F4FD1E4301F007
:1019800053FC00BDDE19400020020268210003CF95
:1019900030800E00704700B5FEF764FD47F8046D17
:1019A00048F200060368282B09D143683E211940FC
:1019B00049010E433E218B43FEF7D7FC0360DB0059
:1019C0001E438368282B02D1C368FEF7C2FC1E4366
:1019D00001F02AFCFEF73FFCFEF73DFC00BD141AA7
:1019E0004000200203682B2103CF32881218328076
:1019F0000E00704700B5FEF735FDFFF73DFAFFF723
:101A0000A6FFFFF7C3FA00F032FAFFF76AFAFFF712
:101A1000C2FF00BD581A4000200202634000367821
:101A2000704700B5FEF714FD47F8046D47F6000651
:101A30000368282B08D143681F21194089010E43F0
:101A40001F218B43FEF791FCDB001E43FEF78AFD4E
:101A50001E4301F0E9FB00BDB21A40002002026300
:101A6000210003CF30700E00704700B5FEF7FAFC7E
:101A700047F8046D47F200060368282B09D1436834
:101A80001F21194089010E431F218B43FEF76DFC76
:101A90000360DB001E438368282B02D1C368FEF776
:101AA00058FC1E4301F0C0FBFEF7D5FBFEF7D3FB4D
:101AB00000BDE81A4000200203632B2103CF3278D7
:101AC000121832700E00704700B5FEF7CBFCFFF71E
:101AD000D3F9FFF7A6FFFFF759FA00F0C8F9FFF7AF
:101AE00000FAFFF7C2FF00BD0C1B40002002046299
:101AF0006973210003CF3268024332600E007047E1
:101B000000B547F8046D44F2003630E04C1B40004D
:101B1000200204626963210003CF3268824332608D
:101B20000E00704700B5FEF79DFCFFF7A5F9FFF723
:101B3000A5FEFFF72BFA47F8046D44F28036FFF755
:101B4000F0FBFFF7CEF9FFF7BCFE00BD8C1B400099
:101B5000200204786F72210003CF32684240326065
:101B60000E00704700B547F8046D44F24006FEF7DA
:101B700079FCFFF781F9FFF781FEFFF707FAFFF71E
:101B8000D4FBFFF7AEF9FFF79CFE00BDC21B40007F
:101B9000200204626974400001CF3668064018BF15
:101BA0004FF0FF36704700B5FEF75CFCFFF766FEAE
:101BB00047F8046D44F20006FFF7B7FBFFF72CFC73
:101BC00000BDE61B4000200205686269732103CF57
:101BD0003288024332800E00704700B547F8046D2A
:101BE00044F2003630E0261C40002002056862699D
:101BF000632103CF3288824332800E00704700B5E4
:101C0000FEF730FCFFF738F9FFF7A1FEFFF7BEF94A
:101C100047F8046D44F28036FFF783FBFFF761F964
:101C2000FFF7B9FE00BD661C400020020568786F12
:101C3000722103CF3288424032800E00704700B5D7
:101C400047F8046D44F24006FEF70CFCFFF714F968
:101C5000FFF77DFEFFF79AF9FFF767FBFFF741F902
:101C6000FFF799FE00BD8C1C4000200205686269E8
:101C7000744001CF3688064018BF4FF0FF367047DA
:101C800000B5FEF7EFFBFFF762FE91E7B01C4000E6
:101C9000200205636269732103CF327802433270F8
:101CA0000E00704700B547F8046D44F2003630E08E
:101CB000F01C4000200205636269632103CF327883
:101CC000824332700E00704700B5FEF7CBFBFFF782
:101CD000D3F8FFF7A6FEFFF759F947F8046D44F271
:101CE0008036FFF71EFBFFF7FCF8FFF7BEFE00BDD6
:101CF000301D400020020563786F722103CF3278D7
:101D0000424032700E00704700B547F8046D44F24F
:101D10004006FEF7A7FBFFF7AFF8FFF782FEFFF7DD
:101D200035F9FFF702FBFFF7DCF8FFF79EFE00BD79
:101D3000561D4000200205636269744001CF367869
:101D4000064018BF4FF0FF36704700B5FEF78AFB1C
:101D5000FFF767FE2CE7781D400081000E686F6F6B
:101D60006B2D696E6974666C6173680047F8046D69
:101D7000384E704712484000981D400081000C68A2
:101D80006F6F6B2D68666C617368210047F8046D96
:101D9000314E7047C8054000BA1D400081000F68F1
:101DA0006F6F6B2D666C757368666C61736847F84E
:101DB000046D2A4E704712484000D01D40000000BC
:101DC00009696E6974666C617368224800688746A9
:101DD0003A1E400000000768666C61736821700855
:101DE00013D300F0CBFC1E68666C61736821206E13
:101DF00065656473206576656E20616464726573E1
:101E00007365732E0A0002F09BBC4FF481039E425F
:101E100002D311480068874600F0B0FC1943616E98
:101E20006E6F7420777269746520696E746F2063B9
:101E30006F726520210A02F083BC601E4000000022
:101E40000A666C757368666C6173680003480068A5
:101E500087460000FCFF4520F8FF4520F4FF4520A1
:101E6000961E40006202012B01CF3618704700B564
:101E7000FEF7F8FA47F8046D43F2000647F8046DE0
:101E8000C94E47F8046D41F600068168282917D12C
:101E9000FFF727F814E03C1F40006202012D01CF3C
:101EA000861B704700B5FEF7DDFA47F8046D43F670
:101EB000000647F8046DBD4E47F8046D41F6002654
:101EC000FEF70CFB0168282927D14168FF290CD8AF
:101ED00040CF40CFFEF716FB0E43816809020E4348
:101EE00001F0A2F9FEF7B7F900BD47F8046D0E0046
:101EF00000F0A8FD02CF002E40CF0ED040CF043717
:101F00000E43816856EA0146FEF7A5F9FEF72AFB63
:101F100056EA032601F0B8F900BD04370437FEF78E
:101F2000D3FA89018268D2000E431643FEF793F973
:101F3000FEF718FB1E4301F077F900BD541F400067
:101F4000610202312D00013E704747F8046D41F6F1
:101F500040663DE06C1F4000610202312B000136FB
:101F6000704747F8046D41F6404631E0841F400059
:101F7000610202322D00023E704747F8046D41F6BF
:101F8000806625E09C1F4000610202322B00023671
:101F9000704747F8046D41F6804619E0B61F4000CF
:101FA00061020563656C6C2B0436704747F8046D5D
:101FB00041F600560CE0E81F40006102066E6567BE
:101FC000617465007642704747F8046D44F240261C
:101FD00000B5FEF73DFA0168C9000E43FEF7C2FAEC
:101FE0001E4301F021F900BD002040006102036E94
:101FF0006F74F643704747F8046D44F2C036E7E764
:10200000182040006102037368727608704747F831
:10201000046D40F64006DBE72820400061020373B0
:10202000686C7600704706E03E2040006102023294
:102030002A007600704747F8046D4026C8E756200E
:10204000400061020563656C6C73B600704747F829
:10205000046D8026BCE76E204000610202322F0032
:102060007610704747F8046D41F24006B0E7AE20A5
:102070004000610203616273F017361846407047F2
:1020800000B5FEF7E5F947F8046D00260168C900C0
:102090000E43FEF767FA1E4301F0C6F847F8046DD9
:1020A0004DF2005601F0C0F8FFF78EFF00BDCC20C6
:1020B0004000420005752F6D6F6401CF3100B0FB09
:1020C000F6F67143401A043F38607047EA2040003A
:1020D0004200042F6D6F640001CF310090FBF6F6D3
:1020E0007143401A043F38607047FE2040004200B0
:1020F000036D6F6400B5FFF7EFFF40CF00BD3E21D9
:1021000040006202012F01CF90FBF6F6704700B548
:10211000FEF7A8F9FEF7D8F9FEF7E0F947F8046DE5
:10212000234E01680E43816856EA0146FEF793F894
:10213000FEF718FA56EA032601F0A6F800BD522170
:1021400040006100046576656E000120304036185D
:1021500070476A214000810004626173650047F89E
:10216000046D144E70470A000000802140000000FA
:102170000662696E617279000E4802210160704743
:1021800096214000000007646563696D616C094831
:102190000A21016070474823400000000368657809
:1021A0000448102101607047000010F10000B0F1F8
:1021B000F0F090FBF0FF4520454846490160464855
:1021C000464901604648016811F0010FFBD04549BE
:1021D000086800F0020007D13F48434901604048C9
:1021E000016811F0010FFBD040484FF44731016006
:1021F0003F48404901604048016811F0010FFBD0A1
:102200003B483E4901603C48016811F0080FFBD093
:102210003B484FF0010101603748016811F0080F99
:10222000FBD03348374901603748384901603648A8
:1022300001603748374901602F48016811F0020FEB
:10224000FBD02F484FF0020101602B48016811F0CC
:10225000080FFBD02A484FF48171016026480168BD
:1022600011F0080FFBD02C484FF4003101602B48CF
:10227000016841F400310160294840F23461016095
:1022800028484FF40071016027484FF003010160B6
:102290002648016841F00301016014484FF40051E1
:1022A000016023484FF40C61016022484FF0510156
:1022B000016021484FF05001016020484FF48071C7
:1022C00001601F4801604FF480711E480160704733
:1022D00054180E40FFAFFF3F040C0E400D01005A92
:1022E000080C0E400C0C0E400B01005A10060E405C
:1022F00020060E4009FF370068060E4009FF37012F
:1023000030060E4001FF3701000C0E40000C0004A7
:1023100028060E40013F1820040E0E40700E0E409D
:1023200044060E4000060E4004100E4074100E408D
:1023300004400240204002400040024000120E4093
:1023400010120E4034120E406423400081000968D0
:102350006F6F6B2D656D697447F8046D614E704742
:102360004E24400080234000810008686F6F6B2D71
:102370006B65790047F8046D5B4E7047742440002C
:102380009E23400081000A686F6F6B2D656D697434
:102390003F0047F8046D554E70479E244000BA2315
:1023A0004000810009686F6F6B2D6B65793F47F8BE
:1023B000046D4F4E7047CA244000D823400081006E
:1023C0000A686F6F6B2D70617573650047F8046D57
:1023D000484E704712484000EE234000000004655C
:1023E0006D6974000FB53F4800F026F80FBD022458
:1023F00040000000036B65790FB53B4800F01CF806
:102400000FBD14244000000005656D69743F374816
:1024100000688746262440000000046B65793F0071
:102420003348006887463C24400000000570617511
:10243000736530480068874600688746622440001C
:1024400000000B73657269616C2D656D697400B570
:1024500000F025F8002E40CFFAD0274A167040CF62
:1024600000BD8A24400000000A73657269616C2D0A
:102470006B65790000B500F028F8002E40CFFAD047
:1024800047F8046D1D4A167800BDB82440000000CE
:102490000C73657269616C2D656D69743F0000B5E0
:1024A000FFF7C7FF47F8046D00261548016811F0D3
:1024B000020F00D0F64300BD0425400000000B735E
:1024C000657269616C2D6B65793F00B5FFF7B1FFEF
:1024D00047F8046D00260A48016811F0010F00D08A
:1024E000F64300BDECFF4520E8FF4520E4FF452012
:1024F000E0FF4520DCFF45201C4002401840024020
:10250000144002402825400000000763657870658C
:10251000637400B5386801B40130386000F00BF81E
:1025200001BC067040CF00BD9E2540000000066142
:1025300063636570740000B502CF01390022FFF7B4
:102540005BFF300040CF7F2809D0202819D209280E
:1025500016D00A281FD00D281DD00828EFD1002A38
:10256000EDD000F00BF903082008002AE7D0885CC2
:10257000013A80230340E2D040230340F5D0DEE758
:102580002020B242DBD247F8046D0600FFF72AFF95
:1025900001328854D3E7160000F09FF800BDB02543
:1025A000400040000374696247F8046D294E70478B
:1025B000C62540008100033E696E47F8046D264E33
:1025C000704700000000EC25400082000E63757229
:1025D00072656E742D736F757263650047F8046DD4
:1025E0001E4E704700000000C0004020082640003A
:1025F000000009736574736F75726365174802CFC5
:102600000660416040CF70472626400000000673F8
:102610006F757263650047F8046D104E043F706873
:1026200038603668704760264000000005717565A7
:1026300072790FB5084800210160FFF7B5FF47F830
:10264000046D47F8046DC826FFF775FFFFF7D6FF46
:102650000FBD0000C0004020D8FF4520D0FF45201E
:10266000A8264000000007636F6D706172650FB5AA
:10267000310040CF01CF884202CF10D1002810D0C6
:1026800001380A5C335C412A02D35B2A38BF20320E
:10269000412B02D35B2B38BF20339A42EED0002669
:1026A0000FBD0026F6430FBDBC26400000000263AC
:1026B000720000B500F062F8010A00BDCE264000AD
:1026C000000002626C0047F8046D20267047E22685
:1026D0004000000005737061636547F8046D2026B3
:1026E00080E6022740000000067370616365730096
:1026F00000B5002E03DDFFF7F0FF013EFBD140CF18
:1027000000BD122740005000065B636861725D00E7
:1027100005E02A274000000004636861720000B5EC
:1027200001F090FC40CF367800BD3A2740005004BD
:10273000012847F8046D292606E05427400050047C
:10274000015C47F8046D002600B501F085FC0437F4
:1027500040CF00BD982740003000022E2200AA483A
:1027600000B547F8046D060000F07DFA47F8046DE7
:10277000222601F071FC00F092FD00BD0AB447F87A
:10278000046D7646013E33780121013319405B1810
:102790001EEB030E0ABC39E0BE2740003000026386
:1027A00022009A48DCE747F8046D7646013E33780C
:1027B0000121013319405B181EEB030E7047E82717
:1027C00040003000027322009148C9E747F8046DC9
:1027D000764647F8046D013E36780121731C194096
:1027E0005B181EEB030E70470028400000000563D5
:1027F0006F756E74013647F8046D013E3678704788
:1028000018284000000005637479706500B5FFF773
:10281000F1FF00F007F800BD4028400000000474FC
:102820007970650001B501CF002E07D047F8046D1F
:102830000678FFF7D7FD0130013EF7D140CF01BD4B
:102840007A2840000000046865782E0007B5310042
:1028500040CF20200F22043847F8046D0E00C640F8
:102860001640092E01D9373600E03036FFF7BAFDA1
:102870000028F0D1FFF731FF07BD8A284000000093
:1028800003682E731FB5634C0EE09A2840000000C9
:1028900003752E731FB5604C06E03E294000000012
:1028A000022E73001FB55D4C5D49C91B8908220AC1
:1028B0002020292F200A2028273E200A202F4343AA
:1028C0002020203335204343430A385C29295F20E8
:1028D0000A0A544A106803B40A201060FFF74EFF3A
:1028E00008537461636B3A205B0047F8046D0E0077
:1028F00001F07FFDFFF742FF025D200003BC273699
:10290000484A106000290AD0474A106806B447F8C0
:10291000046D0600A04706BC043A0139F5D1FFF763
:102920002DFF0620544F533A200047F8046D36001F
:10293000A047FFF723FF04202A3E0A001FBDDE291F
:102940004000000005776F72647300B5FFF716FF53
:10295000010A00F0F7FEFFF711FF09416464726598
:1029600073733A2047F8046DFFF770FFFFF706FF17
:10297000064C696E6B3A200047F8046D3668FFF725
:1029800065FFFFF7FBFE07466C6167733A2047F867
:10299000046DB688FFF75AFFFFF7F0FE06436F6439
:1029A000653A2000B01D00F01BFF47F8046D0600DB
:1029B000FFF74CFFFFF7E2FE064E616D653A20001F
:1029C00047F8046D0636FFF721FFFFF7D7FE010A2F
:1029D00000F0D0FE300040CFBDD040CF00BD302A47
:1029E0004000000006756E757365640000B500F068
:1029F000CCFF0E4801684FF00152914201D24FF4D2
:102A0000A006761A00BD00007C274000A6274000E3
:102A1000CC2740004D284000E3434000F3434000F2
:102A200088024020F0FF452084024020C4FF45205A
:102A3000942B400000000D3132626974656E636F43
:102A400064696E670FB5FF2E04D847F8046D5FF018
:102A5000FF360FBD16F0FF10B0420ED14FF6FF71DA
:102A60000840310C814208D116F0FF0656F480561A
:102A700047F8046D5FF0FF360FBD16F0FF20B0423F
:102A80000FD14FF6FF710840310C814209D1360A4F
:102A900016F0FF0656F4005647F8046D5FF0FF3657
:102AA0000FBDFF2231001140300A1040884210D182
:102AB000300C104088420CD1300E1040884208D1B2
:102AC00016F0FF0656F4405647F8046D5FF0FF36E7
:102AD0000FBD300000210131001850F100007FF0DF
:102AE0007F020240802A05D01F29F4D347F8046DE5
:102AF00000260FBD0829F9D3060036F0800611F034
:102B00000100C001064311F00E00C002064311F09F
:102B100010008005064347F8046D5FF0FF360FBDD7
:102B200047F8046DDFF8BC655FF4704110EA0102FC
:102B3000120116435FF4006110EA0102D20316434A
:102B40005FF4E06110EA010212011643FF2110EA6E
:102B5000010216431E4397E347F8046DDFF88865CA
:102B60005FF0704110EA0102120B16435FF0006142
:102B700010EA0102520816435FF0E06110EA010218
:102B8000120B16435FF47F0110EA0102120C164388
:102B90001E4379E3FA2B40000000107265676973E9
:102BA0007465726C69746572616C2C000FB53300CA
:102BB00040CF1B02FF2E05D856F400561E4300F0EE
:102BC00033FB0FBDFFF73EFF002E40CF06D0DFF8EE
:102BD0001C0506431E4300F057FB0FBDF643FFF7ED
:102BE00031FF002E40CF06D0DFF8040506431E4318
:102BF00000F04AFB0FBDF6430BE05A2C40000000EA
:102C0000096D6F76776D6F76742C0FB5330040CFFA
:102C10001B02300040CFFFF783FF4FF6FF7110EA31
:102C2000014001D0FFF798FF0FBD0FB5013630000E
:102C300040CF0023FFF774FFFFF78EFF06E00FB5CC
:102C4000013647F8046D0026FFF7B0FF47F8046D22
:102C500044F2807600F0E8FA0FBDC02C400000007E
:102C60000563616C6C2C0FB5330000F07FFE300003
:102C700040CF1B1A043BDFF87C141940002906D012
:102C8000DFF87424914202D0BDE80F40D7E740CF6F
:102C90005B08DFF8680440F2FF7119400843DB0A63
:102CA00040F2FF311940090408439B0A13F0010167
:102CB0008906084347F8046D060000F0E5FA0FBDE9
:102CC000F62C40000000086C69746572616C2C0081
:102CD00008B547F8046D4FF6470600F0A5FA47F827
:102CE000046D46F6045600F09FFA47F8046D062678
:102CF000FFF75CFF08BD1E2D4000000006637265F3
:102D00006174650000B500F035F842F63F50C0F23E
:102D10004000804747F8046DBEF1010600BD662DF6
:102D20004000200005646F65733E42F63F50C0F2DC
:102D30004000804747F8046DBEF10106704747F830
:102D4000046DBEF10106EE4A1368EE4909680220DF
:102D5000084000D0023102311160FFF766FF1360B6
:102D600000F0E5F900BDA22D40000000073C6275AF
:102D7000696C647300B500F0B9FB00F0F7FD022048
:102D8000064040CF01D000F041FA47F8046D4BF205
:102D9000005600F049FA47F8046D0A2600F0B2FA2E
:102DA00000BDAE2D40005000035B275D03E0C62D43
:102DB00040000000012700B501F044F900F073FD68
:102DC000300040CF00BDFC2D4000300008706F7314
:102DD00074706F6E650000B5FFF7EDFF47F8046D86
:102DE000060039683E600E46FFF772FFFFF770FF7E
:102DF00047F8046DC44EFFF736FF00BD522E400069
:102E0000000007696E6C696E652C00B54BF20051CD
:102E10004BF6005244F270733088884208D09042DA
:102E200008D0984206D047F8046D060000F0FCF97F
:102E30000236F1E740CF00BD0EB44BF6005244F22B
:102E4000707301880230914201D09942F9D10EBCD1
:102E50007047682E40000000047265742C0047F82B
:102E6000046D4BF60056DFE1762E4000300004651D
:102E700078697400F3E78E2E4000300007726563B6
:102E80007572736547F8046D9E4E3668EBE6A62EA4
:102E90004000810005737461746547F8046D9B4EB2
:102EA000704700000000B82E40000000015D974808
:102EB0000021C94301607047C82E40001000015B2B
:102EC0009248002101607047E82E40000000013A5E
:102ED00000B58F48076000F009FB8C4801210160B4
:102EE0008C480021016000BD642F40003008013B88
:102EF00000B587480168B94214D087498E4202D193
:102F0000864EFFF783FCFFF739FC1520537461638D
:102F10006B206E6F742062616C616E6365642E0A53
:102F200001F00EBC79480068411C10D00B2805D870
:102F300047F8046D40F6200600F02EF947F8046DBE
:102F400044F2707600F070F901F0FAFA05E047F803
:102F5000046D4BF6005600F067F900F0E8F8FFF753
:102F6000AFFF00BD782F40000000076578656375EE
:102F70007465300040CF8746902F400010000969EB
:102F80006D6D65646961746547F8046D102603E131
:102F9000A62F4000500006696E6C696E650047F808
:102FA000046D2026F8E0C02F400010000B636F6D09
:102FB00070696C656F6E6C7947F8046D3026EBE0D4
:102FC000DA2F400050000A302D666F6C6461626C2D
:102FD000650047F8046D4026DEE0F42F4000500005
:102FE0000A312D666F6C6461626C650047F8046D90
:102FF0004126D1E00E30400050000A322D666F6C41
:103000006461626C650047F8046D4226C4E02830B4
:10301000400050000A332D666F6C6461626C65007D
:1030200047F8046D4326B7E04230400050000A34B0
:103030002D666F6C6461626C650047F8046D442610
:10304000AAE05C30400050000A352D666F6C646168
:10305000626C650047F8046D45269DE076304000BF
:1030600050000A362D666F6C6461626C650047F82B
:10307000046D462690E09030400050000A372D66DF
:103080006F6C6461626C650047F8046D472683E0ED
:10309000C0304000000008636F6E7374616E74008E
:1030A00000B500F023FAFFF713FE47F8046D44F271
:1030B000707600F0B9F8FFF78CFF00F038F800BD2B
:1030C0002031400000000932636F6E7374616E74CA
:1030D00000B500F00BFA39683E600E46FFF7F8FDC8
:1030E000E1E70000000040F20000C0F200005FF0E5
:1030F00000007FF00100C0FF0000C0FF00F800F0FA
:10310000C4FF45200C0040203A444000CCFF45203D
:10311000080040205400402085191204AE284000C9
:1031200088314000000006736D756467650000B566
:10313000DE4801684FF0015291421ED202390A88DE
:103140004FF6FF739A4205D147F8046D4FF0000621
:1031500000F06AF800F04DF8D548006847F8046DB3
:103160000600D44909680431D04A1368116000F0A0
:103170005BF81360FEF76AFE00BD00F03AF847F80E
:10318000046D4FF0000608E0D031400000000873E5
:103190006574666C6167730000B5C44801684FF0E0
:1031A0000152914205D2C24801683143016040CFCB
:1031B00000BD320040CFBF480068043001884FF6A0
:1031C000FF73994201D1110000E01143018000BD5D
:1031D000E6314000410007616C69676E6564033643
:1031E0000320864370471E324000000005616C6971
:1031F000676E00B5AD4801680220014005D047F870
:10320000046D4FF0000600F00FF800BD47F8046DA4
:10321000362609E047F8046D4CF6407604E0643247
:103220004000000002682C000FB5B6B2A248016849
:10323000002902D0013100D001609C4801684FF0A4
:103240000152914205D247F8046D0E00FEF7C7FD0A
:1032500002E0320040CF0A8047F8046D022600F0F9
:1032600051F80FBD7E3240000000012C01B547F837
:10327000046DFFF7D9FF360CFFF7D6FF01BD903282
:1032800040000000033E3C2C01B51020C641EEE793
:10329000F8324000000007737472696E672C07B53E
:1032A000FF21314040CF300040CF002905D147F801
:1032B000046D0026FFF7B8FF07BD47F8046D0678D8
:1032C00036020E43FFF7B0FF0130013902290AD35D
:1032D00047F8046D4678360202781643FFF7A4FFDC
:1032E00002300239F2E7002900D107BD47F8046D2A
:1032F0000678FFF799FF07BD5633400000000561CF
:103300006C6C6F74694801684FF00152914210D2A1
:10331000320040CF89184FF4A002914219D3FFF731
:103320002DFA0B466C6173682066756C6C0A01F0AF
:1033300007BA320040CF8918604A1268914208D318
:10334000FFF71CFA0952616D2066756C6C0A01F07A
:10335000F7B90160704772334000810008286C6142
:1033600074657374290047F8046D554E70475C010D
:1033700040008A334000810004286470290047F827
:10338000046D504E704788034020AE33400000006B
:1033900009666F7267657472616D00B500F025F89B
:1033A00048484949016046484849016000BDD63354
:1033B000400000000D636F6D70696C65746F726121
:1033C0006D3F47F8046D3F4800684FF00151884257
:1033D000B641F6437047F833400000000C636F6D50
:1033E00070696C65746F72616D00364800684FF0EB
:1033F0000151884212D370476A34400000000E63C6
:103400006F6D70696C65746F666C617368002D48D0
:1034100000684FF00151884200D2704728482C497B
:1034200002680B680A60036026482A4902680B6834
:103430000A60036021480068834215D300B5FFF796
:103440009DF923205661726961626C657320636F18
:103450006C6C696465207769746820646963746959
:103460006F6E6172790A00BD7047863440000000BB
:103470000C61646472696E666C6173683F00134826
:103480004FF4A0010BE0DC34400000000A616464EA
:1034900072696E72616D3F004FF001500E498642B5
:1034A00002D38E42B641704700267047C4FF4520C4
:1034B00018004020C8FF4520CCFF45201C004020BC
:1034C000C8FF4520C4FF4520880340205C01400020
:1034D000140040201000402000004620D23540005B
:1034E00000000828637265617465290000B500F06A
:1034F000A9FD002E0ED1FFF741F915204372656139
:103500007465206E65656473206E616D6520210AA7
:1035100001F016B9386847F8046D043F386000F0D0
:103520006EF940CF002E40CF11D0386847F8046DB7
:10353000043F3860FFF722F9095265646566696ED9
:103540006520FFF76FF9FFF719F9022E2000FFF74A
:1035500050FE924800684FF00151884220D29048B6
:103560004FF00001016000F001FA47F8046D0626F3
:10357000FFF7C8FEFDF720FDFFF791FE89480168BF
:103580000A684FF0FF339A4207D1844A13681160EA
:1035900047F8046DFFF76AFE1360066040CF13E042
:1035A00000F0E4F97F4847F8046D0668FFF75EFE17
:1035B00047F8046D4FF6FF76FFF736FE7948310085
:1035C00040CF0160FFF76BFE7448016876480160E8
:1035D00000BDEA3540000000087661726961626CE6
:1035E000650047F8046D012613E002364000000034
:1035F00009327661726961626C6547F8046D022672
:1036000007E0743640000000096E766172696162FD
:103610006C6500B5FFF76AFF604801684FF0015222
:10362000914218D20F200640B20000F04CF8300052
:1036300040CF0200002805D00E600431FFF716FECF
:103640000138F9D147F8046D80261643FFF7A4FD31
:10365000FFF76DFD00BD00F050F8300040CF0028AE
:1036600003D0FFF703FE0138FBD1FFF7B2FCFFF7F1
:103670005EFD00BD2E37400000000762756666657E
:10368000723A00B5FFF732FF0120304036180220B1
:1036900030403618414801684FF0015291420DD236
:1036A000320000F010F8FFF7E1FD47F8046D40F23A
:1036B0004016FFF771FDFFF73AFD00BD00F01DF861
:1036C000FFF720FED1E700B538480168891A384A6B
:1036D00091420BD2FFF752F80F4E6F7420656E6F58
:1036E0007567682052414D0A01F02AB8016047F819
:1036F000046D0E00FFF7ECFA12E000B500F036F9A9
:103700000220064040CF01D1FFF780FD47F8046D4D
:10371000284EFFF7B9FD47F8046D274EFFF7B4FDBB
:1037200047F8046D44F27076FFF77EFD00BD5E370A
:10373000400000000F64696374696F6E6172797391
:1037400074617274154800684FF0015147F8046DB8
:10375000884201D2194E7047124E36687047C03702
:10376000400000000E64696374696F6E6172796E67
:103770006578740003B531684FF0FF30814207D09F
:103780008879FF2804D00E0047F8046D002603BD99
:1037900047F8046D0026F64303BD0000C4FF452032
:1037A00018004020C8FF45200C0040201C0040208D
:1037B000880340203E60043F02367E465C014000A4
:1037C000F237400000000A736B6970737472696E9F
:1037D00067003178013101220A4089187618704754
:1037E00006B40178013101220A408918401806BC4C
:1037F00070470438400000000466696E6400304879
:103800000068874620384000810009686F6F6B2D83
:1038100066696E6447F8046D2A4E70472E38400082
:10382000C83840000000062866696E64290030B57B
:103830000020002103B4350040CF340040CFFFF713
:1038400081FF4FF6FF70B18888421ED0B179A9423E
:103850001BD1F01D0139425C635C412A02D35B2A13
:1038600038BF2032412B02D35B2B38BF20339A4222
:103870000BD10029EED102B0B01DFFF7B1FFB18826
:1038800003B44FF00150864207D236684FF0FF3044
:10389000864202D0B079FF28D3D103BC060047F896
:1038A000046D0E0030BD00B53100386803B4FFF779
:1038B000A6FF03BC3A68002A01D100F0EFFE00BD6C
:1038C000C0FF4520C0FF45202639400000000663A8
:1038D0006A756D702C00320040CF310040CF8B1BD9
:1038E000043B6FF0FE01194000290ED06FF0FF007D
:1038F00081420AD0FEF742FF0D4A756D7020746F49
:103900006F206661720A00F01BBF5B10FF210B4045
:10391000134330001E0000B5CB4A13681060FFF758
:1039200083FC136000BD603940000000056A756DBE
:10393000702C310040CF300040CF0B1A043BC349FC
:103940001940002902D0C24A9142D3D15B1040F203
:10395000FF72134053F4604347F8046D1E00DAE72A
:1039600076394000000004686572650047F8046D10
:10397000B54E36687047A43A400000000D666C6191
:1039800073687661722D6865726547F8046DB14E93
:103990003668704700B547F8046D42F60066FFF7D9
:1039A00043FCFFF737FC00BDE0E700B500F03AF854
:1039B00039683E600E4647F8046D4DF20016FFF779
:1039C0008AFF00BD00B500F02DF839683E600E4654
:1039D00047F8046D4DF20076FFF77DFF00BD00B59E
:1039E000FFF7D8FF00F01EF839683E600E4647F832
:1039F000046D4DF20006FFF76EFF00BD00B500F04C
:103A000011F839683E600E46FFF793FF00BD00B520
:103A1000FFF7C0FFFFF7AAFF47F8046D0226FFF784
:103A200071FC00BD00B5FFF7A1FF47F8046D022649
:103A3000FFF768FC00BD00B5FFF798FFFFF779FFBF
:103A400000BD00B5FFF792FF47F8046D4DF2000688
:103A5000FFF741FF00BD00B5FFF788FF47F8046D91
:103A60004DF20016FFF737FF00BD00B5FCF7F0FC84
:103A7000FCF728FCFCF72BFCFCF72EFC81682829BE
:103A800001D1FCF72BFDFCF71FFD47F8046D42F652
:103A9000000609020E43FFF7C7FBFCF7DCFBFCF74F
:103AA00005FC00BDD03A40003000047468656E002B
:103AB000052E01D140CFBEE7F1B200296DD100B58E
:103AC000FFF754FF39683E600E46FFF704FF00BD64
:103AD000EC3A4000300004656C73650000B500F0FE
:103AE00036F8FCF780FDFFF7E3FF00BD423B4000E6
:103AF00030060269660000B5FFF789FF47F8046DDC
:103B00004DF2000600BD00B5FCF735FDFDF707FEE0
:103B1000816A002907D002B4FCF7C8FBFFF782FFD7
:103B200047F8046D40BDFFF7A0FFFFF71FFF47F800
:103B3000046D0226FFF7E6FB47F8046D4DF2000620
:103B400000BD5C3B4000300005616865616400B504
:103B5000FFF768FF47F8046D052600BD763B40007F
:103B60003000067265706561740000B500F05BF8A6
:103B7000FFF79EFF00BDBA3B40003006057768693D
:103B80006C6500B5FFF7B7FFFCF72DFD00BD00B574
:103B9000FFF7B9FFFCF727FD00BDFEF7EFFD175358
:103BA00074727563747572657320646F6E27742008
:103BB0006D617463680A00F0C3BD1A3C40003006B2
:103BC00005756E74696C012EE7D140CF07E7704729
:103BD000012EE2D140CF00B5FDF7A1FD816A002999
:103BE0000DD002B4FCF762FBFFF71CFF39683E60A2
:103BF0000E4647F8046D40BCFFF76DFE00BDFFF7B1
:103C000034FFFFF70FFF39683E600E4647F8046D3A
:103C10004DF20006FFF75FFE00BD2E3C4000300075
:103C200005616761696E012EB7D140CFE6E6583C69
:103C30004000300005626567696E00B5FFF7B4FEAD
:103C400047F8046D012600BDC4FF452001F8FFFFC1
:103C500000F8FFFF1C004020723C40002002016B76
:103C600047F8046D029E704747F8046D49F6020656
:103C70000BE0A03C40002002016A47F8046D009E62
:103C8000704747F8046D49F6000600B5FCF7D9FA0D
:103C9000FCF7AAFB03601B021E43FFF7C5FA00BD39
:103CA000CC3C40002002016947F8046D26007047B3
:103CB00000B547F8046D40F22006FCF7C2FAFCF7A5
:103CC00093FB03601E43FFF7AFFA00BD0A3D4000BF
:103CD0003000056C6561766500B5754801683B008C
:103CE000043F1A68043B1A6008338B42F9D103B4CD
:103CF000FFF798FE03BC330040CF04390B6001602E
:103D000004390A6801320A6000BD1C3D40002000F1
:103D100006756E6C6F6F700030BC7047543D40008C
:103D20003000052B6C6F6F70032E00D035E740CF4D
:103D300000B547F8046D5F4EFFF767F8FFF742FEE6
:103D40001AE014F10044641BA41940CF2C44A4F1E0
:103D500000447047963D40003000046C6F6F700067
:103D6000032E00D019E740CF00B547F8046D524E3E
:103D7000FFF74BF8FFF719FE00F04AF94C48310005
:103D800040CF016047F8046D4C4EFFF73EF800BD90
:103D90000134AC427047DE3D4000300202646F00E7
:103DA00000B547F8046D464EFFF72FF8404801680C
:103DB00047F8046D0E0047F8046D00260760FFF712
:103DC000F3FD47F8046D032600BD00B500F02FF8A1
:103DD000ECE730B4340040CF350040CF7047C43EEC
:103DE00040003002033F646F00B547F8046D344E65
:103DF000FFF70BF847F8046D44F2AC26FFF714FA0E
:103E00002B48016847F8046D0E00FFF70BFE0136E2
:103E100047F8046D012626480760FFF7C5FD47F8FF
:103E2000046D032600BD00B500F001F8E2E700B51F
:103E3000FCF7A1FBFCF716FBFCF744FAFCF747FA8A
:103E4000FCF74AFA47F8046D4BF23046FFF7ECF9FD
:103E50000168282908D047F8046D40F20406C9001B
:103E60000E43FFF7E1F907E047F8046D466847F8AD
:103E7000046D0426FEF79AFE8168282908D047F8C9
:103E8000046D40F20506C9000E43FFF7CDF907E0C7
:103E900047F8046DC66847F8046D0526FEF786FEF0
:103EA000FCF7D9F9FCF7D7F9FCF720FA00BD0000C0
:103EB00004004020423D4000903D4000183D40003D
:103EC000D23D4000E43E4000300004636173650071
:103ED00000B5FCF750FB47F8046D002647F8046D69
:103EE000082600BDFA3E40003000033F6F666B4875
:103EF00009E0013EB64140CF7047B83F4000300274
:103F0000026F66006648082E00D046E640CF00B536
:103F100047F8046D0600FEF778FFFFF783FD396868
:103F20003E600E46013647F8046D0926FFF772F928
:103F300000BD082E00D030E640CF00B5FCF792FA65
:103F4000FCF7C0F9FCF7C3F9FCF7C6F947F8046DB4
:103F500044F28026FCF7C2FA0E430268282A1ED1DA
:103F60004268FF2A08D840CF47F8046D42F60006A1
:103F7000164309020E4314E047F8046D4668FEF745
:103F800061FD04CF002E40CF06D0464E164356EAC0
:103F90000146FFF779F906E0FCF796FA0A00D2002D
:103FA0001643FFF741F9FCF756F9FCF79FF9B4E720
:103FB000300040CFB0427047EE3F40003000056512
:103FC0006E646F66092E00D0E7E540CF00B540B4BF
:103FD00040CFFFF727FD39683E600E46FFF73BFDF7
:103FE00047F8046D40BC47F8046D082600BD384012
:103FF0004000300007656E6463617365082E00D071
:10400000CBE540CF00B5FFF705F900F001F800BDA2
:1040100000B5300040CF00280DD003B4012131405D
:10402000002903D0013EFFF70CFD01E0FFF703FD7F
:1040300003BC0138EFE700BD4C40400000000574B0
:104040006F6B656E47F8046D202605E0B0404000B8
:10405000000005706172736510B51348016840680F
:10406000124A12688418202E07D191420FD0835C27
:10407000B34202D101328418F7E7914207D0835C42
:104080000132B342F9D18618361B013E01E0861891
:10409000361B043F3C600548026010BDF23E400004
:1040A000B03F4000000FB0F1D0FF4520D8FF4520C1
:1040B000EE4040000000056469676974CF4B1B68DF
:1040C000303E0BD30A2E0BD3073E0A2E06D3242EE6
:1040D00006D3203E0A2E01D3242E01D3002670479A
:1040E0009E42FBD247F8046D0026F6437047F84124
:1040F00040000000066E756D626572003FB53100CC
:1041000040CF701E0126012204B4BC4B1B68002462
:10411000002500293CD00130013902782D2A04D134
:1041200001B00022D24304B4F3E7232A01D10A23C9
:10413000EFE7242A01D11023EBE7252A01D102233E
:10414000E7E72E2A01D10226E3E72C2A36D047F8EA
:10415000046D1600FFF7B4FF002E40CF2BD047F8B8
:10416000046D260047F8046D2E0047F8046D1E000C
:1041700047F8046D00260FB4FCF705FC0FBC3500B2
:1041800040CF340040CF0022A419554140CFC0E7B2
:1041900004BC002A04D50022E443ED430134554118
:1041A00033002600012B02D047F8046D2E0047F89B
:1041B000046D1E003FBD01B000263FBD2500002458
:1041C00002260029E4D0425C01392E2AF9D047F8B2
:1041D000046D1600FFF774FF002E40CFEBD0043FB4
:1041E0003C6047F8046D1E000FB4FCF77BFC0FBC6D
:1041F000340040CF40CFE4E71A4240000000062ED2
:104200006469676974000A2E01D230367047242E23
:1042100001D23736704723267047504240000000D5
:1042200004686F6C6400330040CF754801784329FF
:104230000DD2013101704018012907D001380278F0
:1042400001300270013801390129F7D1037070473C
:1042500070424000000005686F6C643C330040CF42
:1042600067480178432902D20131017043547047F5
:10427000884240000000047369676E00002E01D47C
:1042800040CF70472D26CEE79C424000000002231D
:104290003E005B480678013038607047B442400009
:1042A00000000366235310B5202400F008F8013CF9
:1042B000FBD110BDD642400000000266230000B5CD
:1042C00047F8046D4D4E3668FCF71FFBFFF79BFF68
:1042D000FFF7C4FF00BDF24240000000022353007C
:1042E00000B500F00AF8002EFBD138680028F8D19C
:1042F00000BD1E4340000000012300B547F8046DD7
:104300003E4E366847F8046D0026FCF70AFCFCF7C1
:104310006AF940CFFFF777FFFFF785FF00BD304315
:1043200040000000023C2300354800210170704726
:1043300042434000000002662E0047F8046D20262C
:1043400004E090434000000003662E6E00B510B4F8
:10435000340040CFFCF702FEFCF75CFA47F8046D2E
:104360000026FFF7E1FFFFF7BBFF40CF2C26FFF74A
:1043700075FF002C03D0FFF7A2FF013CFBD110BC5E
:1043800040CFFFF77BFF47F8046D47F8046D1CE052
:10439000A643400000000375642E00B5FFF7C4FF7C
:1043A000FFF79EFF11E0D8434000000002642E009A
:1043B00000B5FCF7D3FDFCF72DFAFFF7B5FFFFF7CB
:1043C0008FFFFCF7DDFDFFF759FFFFF762FFFEF7F8
:1043D00029FAFEF782F900BDEA43400000000275A9
:1043E0002E0047F8046D0026D7E7C84540000000BE
:1043F000012E47F8046DF617DAE70000F0FF4520BC
:104400007C00402030B54FF001542568002D01D1CB
:104410003D00256030BD30B54FF001543D002560B2
:1044200030BD30B54FF001540025256030BD4FF050
:1044300001531B68DB1B9B08704700B5310040CF60
:104440004FF48050084002D000F0A6F800BD4FF4B1
:104450008060084001D1FDF71BF9320040CFFFF723
:10446000D1FF4FF40050084003D047F8046D160008
:1044700000BDFFF7DCFF8020084006D14020084047
:1044800009D00F200840834205D347F8046D160079
:10449000FEF76FFD00BD4FF40070084014D0FBF72D
:1044A00072FE47F8046D160047F8046D0E0000F028
:1044B00031F81000FEF7C0FC421CB3489047FFF7EC
:1044C000AAFFFBF76FFE00BDFBF75DFE47F8046D2A
:1044D000160047F8046D0E0000F01CF8FBF7E6FE2E
:1044E000FFF79FFF4FF40060084001D1FCF743F84D
:1044F00047F8046D160010220A4002D0FEF739FD7D
:1045000000BD20220A4002D0FEF77FFC00BDFEF76E
:10451000AAFB00BD0FB5320040CF330040CF9B480F
:104520000168062907D206204143994840180380B4
:104530001B0C4380828095480168013101600FBDEA
:104540000FB59248016806291FD8914801391DD03E
:1045500047F8046D0E00FEF767FE47F8046D068805
:10456000FEF762FE47F8046D4688FEF75DFE47F8E9
:10457000046D8688FEF758FE06300139EDD147F804
:10458000046D41F20006FEF707FE0FBD47F8046D0B
:104590004026FEF701FE0FBD00B5300040CFFEF70C
:1045A0004BFC0188023047F8046D068842881204EB
:1045B000164347F8046D868803B4FFF73EFF03BC3B
:1045C00006300139EFD100BD1046400000000865FB
:1045D00076616C756174650000B5FEF71CF801CF5B
:1045E00001B440B440CF6B48016802B400210160BF
:1045F000FEF704F800F014F8664802BC016047F8C2
:10460000046D40BC01BC043F3860FDF7F7FF00BDFE
:1046100018474000000009696E7465727072657415
:1046200000B55D4887420BD9FEF7A8F810537461B6
:10463000636B20756E646572666C6F770A007FE04D
:10464000564887420AD2FEF799F80F537461636B9C
:10465000206F766572666C6F770A71E0FFF7D2FEA5
:10466000FFF7F0FC002E02D1043740CF00BD3868C0
:1046700047F8046D043F3860FFF7C1F8310040CFC0
:10468000320040CF002A1BD138683100FDF700F816
:10469000FFF734FD320040CF002AC2D147F8046D45
:1046A000060047F8046D0E00FEF7BCF8FEF766F84A
:1046B0000C206E6F7420666F756E642E0A003FE0EA
:1046C000374B1B68002B1CD1FFF7ABFE30230B4090
:1046D000302B0ED1FEF7A6F8FEF750F812206973C2
:1046E00020636F6D70696C652D6F6E6C792E0A009A
:1046F00026E0043740CF47F8046D1600FEF739FC7A
:104700008FE7043740CF47F8046D160047F8046D73
:104710000E00FFF792FE84E73447400081000968ED
:104720006F6F6B2D7175697447F8046D1D4E70477E
:1047300072474000B847400000000471756974007A
:10474000DFF864D0144FFDF740FB18480A210160E0
:104750001348002101604FF001500160FBF7EDFDAF
:104760000C48016012480160124941600D48006820
:104770008746FDF75EFFFFF753FFFDF7FFFF0520BC
:104780006F6B2E0AF5E70000200040205400402007
:1047900058004020D8FF4520880240208801402052
:1047A000CCFF4520BCFF452088034020F0FF45207A
:1047B000D0FF4520C0004020D247400000000565E2
:1047C000696E743F47F8046DEFF31086013EB64101
:1047D0007047E247400020000465696E740062B6CD
:1047E0007047F247400020000464696E740072B69E
:1047F000704708484000200004697073720047F851
:10480000046DEFF305867047144840000000036E06
:104810006F70704756484000000009756E68616E01
:10482000646C656400B5FDF7A9FF14556E68616E90
:10483000646C656420496E746572727570742000D2
:1048400047F8046DEFF30586FEF700F8FDF796FFD5
:1048500002210A0000BD6C4840000000057265732B
:104860006574DFF8FC04DFF8FC1401609848400030
:1048700081000B6972712D7379737469636B47F8EA
:10488000046DDFF8E4647047244840004FF6B870C8
:10489000C2F2450000688746C248400081000969AD
:1048A00072712D6661756C7447F8046DDFF8BC6435
:1048B0007047244840004FF6B470C2F245000068CB
:1048C0008746F248400081000E6972712D636F6C5B
:1048D0006C656374696F6E0047F8046DDFF890646F
:1048E0007047244840004FF6B070C2F2450000689F
:1048F00087461C4940008100086972712D70696FFC
:10490000610047F8046DDFF86C647047244840008C
:104910004FF6AC70C2F24500006887464649400039
:104920008100086972712D70696F620047F8046D2B
:10493000DFF844647047244840004FF6A870C2F284
:10494000450000688746704940008100086972711F
:104950002D70696F630047F8046DDFF820647047BD
:10496000244840004FF6A470C2F245000068874614
:104970009A49400081000A6972712D7573617274E1
:10498000300047F8046DFE4E7047244840004FF653
:10499000A070C2F2450000688746C449400081000B
:1049A0000A6972712D7573617274310047F8046D74
:1049B000F44E7047244840004FF69C70C2F2450008
:1049C00000688746EE49400081000A6972712D75C2
:1049D00073617274320047F8046DEB4E70472448DF
:1049E00040004FF69870C2F2450000688746164AAC
:1049F00040008100086972712D70696F640047F88A
:104A0000046DE24E7047244840004FF69470C2F2A5
:104A10004500006887463E4A40008100086972717F
:104A20002D70696F650047F8046DD94E70472448B2
:104A300040004FF69070C2F2450000688746664A13
:104A400040008100096972712D68736D636947F8D0
:104A5000046DD04E7047244840004FF68C70C2F26F
:104A6000450000688746904A400081000A697271DB
:104A70002D7477696873300047F8046DC64E70472F
:104A8000244840004FF68870C2F24500006887460F
:104A9000BA4A400081000A6972712D74776968739F
:104AA000310047F8046DBD4E7047244840004FF672
:104AB0008470C2F2450000688746E24A40008100E7
:104AC000086972712D737069300047F8046DB44E37
:104AD0007047244840004FF68070C2F245000068DD
:104AE00087460A4B40008100096972712D61666535
:104AF000633047F8046DAB4E7047244840004FF6D2
:104B00007C70C2F2450000688746324B400081004D
:104B1000086972712D646163630047F8046DA24EE9
:104B20007047244840004FF67870C2F24500006894
:104B300087465A4B40008100086972712D70776D6D
:104B4000300047F8046D994E7047244840004FF6F6
:104B50007470C2F2450000688746824B40008100B5
:104B6000096972712D616665633147F8046D904E75
:104B70007047244840004FF67070C2F2450000684C
:104B80008746AC4B400081000A6972712D747769C9
:104B90006873320047F8046D864E70472448400021
:104BA0004FF66C70C2F2450000688746D44B400057
:104BB0008100086972712D737069310047F8046DC6
:104BC0007D4E7047244840004FF66870C2F24500A1
:104BD00000688746FC4B40008100086972712D74A3
:104BE000726E670047F8046D744E704724484000A9
:104BF0004FF66470C2F2450000688746244C4000BE
:104C00008100086972712D70776D310047F8046D6D
:104C10006B4E7047244840004FF66070C2F245006A
:104C20000068874600804000FFFF182D2D2D20468C
:104C30006C6173682044696374696F6E6172792076
:104C40002D2D2D00FDF7B8FA5E4885465E4F2A26C9
:104C500047F8046D5D4E5E4DB1884FF6FF73994283
:104C600025D04FF480730B400AD0B01DFEF7B8FD7D
:104C7000FEF7E2F80388408800040343ED1A16E0CB
:104C800080230B4013D00F23194089006D1AB01DEB
:104C9000FEF7A6FDFEF7D0F847F8046D060047F8CA
:104CA000046D2E0047F8046D0E00FCF7B7FDFEF70B
:104CB00061FD300040CFCFD04648066040CF464827
:104CC00005604FF4A0004FF481014FF6FF72884257
:104CD00004D0023803889342F9D002303F4908607B
:104CE000FDF773F8FDF74AFD464D65637269737011
:104CF0002D5374656C6C6172697320524120322EA1
:104D0000362E3420666F722053414D453730513274
:104D1000312028582D706C61696E65642920627994
:104D2000204D61747468696173204B6F63680A0079
:104D30004FF0015000210160FBF7FFFA47F8046DC6
:104D4000274E47F8046D0426FEF759FD40CF002E8C
:104D500002D0FEF70EF909E540CFF1E4696E6974FF
:104D60000CED00E00400FA05B8FF4520B4FF452033
:104D7000B0FF4520ACFF4520A8FF4520A4FF4520FB
:104D8000A0FF45209CFF452098FF452094FF45202B
:104D900090FF45208CFF452088FF452084FF45205B
:104DA00080FF45207CFF452078FF452074FF45208B
:104DB00070FF45206CFF452068FF452064FF4520BB
:104DC00060FF452088034020880240205C014000AD
:104DD00000004620140040201C004020100040200D
:044DE0005C4D4000E6
:00000001FF
