:020000040800F2
:1000000088030020FB4A00003B4900003B490000F8
:100010003B4900003B4900003B4900000000000054
:10002000000000000000000000000000694900001E
:100030006949000000000000694900001349000000
:1000400069490000694900006949000069490000E8
:10005000694900006949000091490000B949000060
:10006000E1490000094A0000314A000069490000E6
:1000700069490000694900006949000069490000B8
:100080006949000069490000574A000069490000B9
:100090006949000069490000694900006949000098
:1000A0006949000069490000694900006949000088
:1000B0007F4A0000A74A0000CF4A000069490000BB
:1000C0006949000069490000694900006949000068
:1000D0006949000069490000694900006949000058
:1000E0006949000069490000694900006949000048
:1000F0006949000069490000694900006949000038
:100100006949000069490000694900006949000027
:100110006949000069490000694900006949000017
:100120006949000069490000694900006949000007
:1001300069490000694900006949000069490000F7
:1001400069490000694900006949000069490000E7
:1001500069490000694900006949000069490000D7
:1001600069490000694900006949000069490000C7
:1001700069490000694900006949000069490000B7
:100180006949000069490000C4050000FFFF222DF5
:100190002D2D204D6563726973702D5374656C6CE1
:1001A0006172697320524120332E302E30202D2D64
:1001B0002D0007B59048002B09D000F03DF800F065
:1001C00043F800F028F8426028210160F3E707BDFA
:1001D00000B5894800230168282905D1426800F04C
:1001E00004F800F04EF8F6E700BD03B547F8046DDB
:1001F000160047F8046D1E0008B400F0A3FF08BC09
:10020000013347F8046D7D4E47F8046D40F26126D6
:1002100004F0CAF903BD03B5013B47F8046D1E00A5
:1002200008B400F079FF08BC320047F8046D4FF4C1
:10023000005604F0B9F903BD03B5714801681E29E1
:1002400001D000F034F803BD816901620169816168
:100250008168016101688160C16941624169C16170
:10026000C16841614168C1601E21016070470FB5DE
:10027000614801681E2903D0FFF7DEFFFFF7E4FFA6
:100280000FBD02B581680160C168416000E002B540
:10029000016981604169C16081690161C169416130
:1002A000016A8161416AC1611E21016202BD08B516
:1002B00001681E220260082901D20B0004E02829EF
:1002C00009D1436800F05BF847F8046D4D4E56EADB
:1002D000033603F033F808BD00B500F009F800F06C
:1002E0000CF800F00FF800F012F800F015F800BD5F
:1002F0000FB54348FFF7DBFF0FBD0FB54248FFF7CF
:10030000D6FF0FBD0FB54148FFF7D1FF0FBD0FB5A9
:100310003F48FFF7CCFF0FBD0FB5374801680622F5
:1003200002601E2906D147F8046D4CF6407602F0B3
:10033000D5FF15E0282909D1436847F8046D1E0050
:1003400047F8046D062602F07BFC09E0062907D079
:1003500047F8046D44F20666C9000E4302F0BEFF82
:1003600000F001F80FBD24481E2101628161016186
:100370008160C1620621016000218162704707B57A
:1003800047F8046D1E0000F045F847F8046D1E00A4
:1003900002F056FC07BD07B5C16A282904D1016BDC
:1003A000994201D1002307BD0168002918D0816856
:1003B000002915D00169002912D0816900290FD0C8
:1003C000016A00290CD0036347F8046D1E0047F84A
:1003D000046D002602F034FC2821C162002307BD11
:1003E00047F8046D1E0000F015F847F8046D1E0074
:1003F00002F026FC07BD000020000020C40E000013
:1004000040000020040D47F8380000203000002094
:100410002800002037B5364801688268036984697E
:10042000056A062000F00EF8032000F00BF8022009
:1004300000F008F8012000F005F800232C481E21E8
:10044000C16237BD814209D0824207D0834205D0C4
:10045000844203D0854201D0030037BD704747F87E
:10046000046D4CF6007600B581581E2905D1FFF7C2
:10047000D1FF8350012199400E4300BD00B50168B2
:100480001E2904D10022FFF7EAFF02F027FF00BD7A
:1004900000B581681E2907D10822FFF7E0FF00227E
:1004A000FFF7E1FF02F01AFF00BD00B501691E2948
:1004B0000AD11022FFF7D3FF0822FFF7D4FF002252
:1004C000FFF7D1FF02F00AFF00BD00B581691E29C8
:1004D0000DD11822FFF7C3FF1022FFF7C4FF082237
:1004E000FFF7C1FF0022FFF7BEFF02F0F7FE00BDDD
:1004F0002000002000B50168282904D14368FFF7D7
:100500003EFF0360190000BD00B58168282904D1B1
:10051000C368FFF734FF8360190000BD00B50169AF
:10052000282904D14369FFF72AFF0361190000BDA0
:100530003EB5826803698469056A9A4203D0A24283
:1005400001D0AA420AD1072A08D847F8046DD6007C
:10055000FFF760FF1E43836002F0C0FE3EBD3EB564
:100560000168826803698469056A914206D09942EC
:1005700004D0A14202D0A94200D03EBD47F8046D8C
:10058000CE00FFF747FF1E43036002F0A7FE3EBD0B
:1005900000B5FFF776FEFFF76AFEFFF73BFF03604B
:1005A00000BD01B506480368013308D00023DB43D2
:1005B000036047F8046D4BF2005602F08FFE01BD58
:1005C000D8FF0120E8050000420204326475700083
:1005D000386847F8046D043F3860704700B500F094
:1005E000C3FC00F0C1FC00BD06060000620205323B
:1005F00064726F70043740CF704700B500F064FC40
:1006000000F062FC00BD4C06000044020532737726
:10061000617007CF043F386047F8046D043F3A60CB
:100620000E00704700B5FFF750FF026803690360D2
:100630000261426843694360426182688369836002
:100640008261C268C369C360C26100BD74060000F4
:10065000620204326E69700007CF043F3860704751
:1006600000B5FFF732FFFFF7DDFFFFF70AFEFFF7E8
:1006700008FE00BD8E060000440005326F766572EC
:10068000B86847F8046D043F3860FE687047B206EA
:100690000000440005327475636B07CF043F386077
:1006A00047F8046D043F3A60043F3960043F386006
:1006B0007047D406000046000432726F7400386838
:1006C000B9683A69B86039613A6079687E60FE68F5
:1006D000F9607047F6060000460005322D726F740F
:1006E0003868B9683A6938613960BA60F968FE609B
:1006F0007E68796070471E070000200203323E7258
:1007000001CF01B440B440CF704700B5FFF749FFB7
:1007100000F0FDFB00F09DFC00F09BFC00BD4A07D3
:10072000000020020332723E47F8046D40BC01BC59
:10073000043F3860704700B5FFF733FF00F0A5FCB9
:1007400000F0A3FC00F0E3FB00BD7A0700002002EC
:100750000332724047F8046D019E47F8046D009E15
:10076000704700B5FFF71DFF47F8046D49F6010615
:1007700003F0D5FA03F0CFFA00BDA0070000200275
:1007800006327264726F700002B0704700B5FFF7F6
:1007900008FF47F8046D4BF2020602F09FFD00BD12
:1007A000B807000042000364322F3868F107761062
:1007B0004008084338607047CE07000062020364B7
:1007C000322A3868001876413860704717E0E80729
:1007D000000042000464736872003868F10776080C
:1007E000400808433860704734080000620204641F
:1007F00073686C003868001876413860704700B53F
:10080000FFF746FEFFF776FEFFF7A9FE00F07FFB3D
:10081000FFF770FEFFF7A3FE47F8046D402601F0D6
:10082000BDFC00F074FB47F8046D44F2401601F083
:10083000B5FC00BD4608000042000464616273001C
:10084000002E07D4704764080000420007646E65FC
:100850006761746538680021C043F64301304E413A
:1008600038607047B4080000640202642D0007CFAE
:10087000121AB1410E00043F3A60704700B5FFF70D
:1008800024FE00F099FBFFF735FEFFF768FE00F04D
:100890003EFBFFF72FFEFFF762FEFFF7C3FE01F0FE
:1008A000E7FB00F0A5FB47F8046D44F2801600F06A
:1008B0004EFD00BD02090000640202642B0007CF58
:1008C00012184E41043F3A60704700B5FFF7FDFD36
:1008D00000F072FBFFF70EFEFFF741FE00F017FB82
:1008E000FFF708FEFFF73BFEFFF79CFE01F0A5FBBC
:1008F00000F07EFB47F8046D44F2401600F02BFD3B
:1009000000BD2C090000610203733E6447F8046DCA
:10091000F617704700B500F0C5FAFFF720FE47F85C
:10092000046D41F2C07601F039FC00BD8A09000077
:10093000620203756D2A3868A0FB060638607047AE
:1009400047F8046DDFF8006500B5FFF7A1FDFFF77C
:10095000D1FDFFF7D9FD01680E43816856EA0146D3
:10096000FFF78FFCFFF78DFCFFF781FCFFF752FDCF
:10097000036056EA0336FFF77AFCFFF74BFD03608E
:1009800056EA032602F0DAFC00BDA8090000620264
:10099000026D2A00386880FB06063860704747F809
:1009A000046DDFF8A864CFE7E60900004400037592
:1009B000642A07CF564341437618010C130C594360
:1009C0007618010C80B292B2514343435043002247
:1009D000C91852411204B6180A04090C80184E4175
:1009E000043F38607047780A000044000475646D65
:1009F0002A0010B5002447F8046D7E6847F8046D9E
:100A00003E69FFF798FF310040CF300040CF47F8F4
:100A1000046D3E6847F8046DFE6803B4FFF78BFF72
:100A200003BC330040CF320040CF47F8046D3E682E
:100A300047F8046D3E690FB4FFF77DFF0FBC9219B4
:100A4000634140CF89196241634140CF47F8046D4B
:100A50007E6847F8046DFE680FB4FFF76CFF0FBCAB
:100A60009219634140CF89196241634140CF1E0012
:100A70003A607960B86010BD9A0A00004300022A0B
:100A80002F0000B540B440CFFFF784FF47F8046D56
:100A900040BC00F04CF8043700BDBC0A0000430025
:100AA000052A2F6D6F6400B540B440CFFFF772FF89
:100AB00047F8046D40BC00F03AF800BDDE0A0000C3
:100AC000430003752A2F00B540B440CFFFF733FF32
:100AD00047F8046D40BC00F01BF8043700BD020B62
:100AE0000000430006752A2F6D6F640000B540B406
:100AF00040CFFFF720FF47F8046D40BC00F008F836
:100B000000BD220B0000430006756D2F6D6F640061
:100B100000B547F8046D002600F019F840CF0437FF
:100B200000BD400B00004300056D2F6D6F6400B5E4
:100B300047F8046DF61700F032F840CF043700BDD7
:100B4000920B000044000675642F6D6F640030B492
:100B5000002300227968B86835003C6840264000D0
:100B6000494152415B41AB4202D804D3A24202D375
:100B7000121BAB410130013EF1D10E0038607B60A9
:100B8000BA6030BC704730B400237A68B96800207E
:100B9000E2E7080C0000440005642F6D6F6400B5A7
:100BA000F01719D0FFF756FEFFF733FDF0170CD002
:100BB000FFF750FEFFF72DFDFFF7C9FFFFF729FDF7
:100BC000FFF748FEFFF725FD00BDFFF722FDFFF709
:100BD000BEFFFFF73FFE00BDFFF71BFDF0170ED075
:100BE000FFF738FEFFF715FDFFF7B1FFFFF732FE05
:100BF000FFF70FFDFFF72EFEFFF70BFD00BDFFF720
:100C000008FDFFF7A4FF00BD1E0C000044000264B5
:100C10002F0000B5FFF7C3FFFFF71EFD00BD660CF8
:100C20000000440002662A0000B5F0170DD0FFF75F
:100C300011FEFFF7EEFCF0170DD0FFF70BFEFFF7EC
:100C4000D8FE40CF01CF386000BDFFF7E2FCF017BF
:100C5000F5D0FFF7FFFDFFF7CCFE40CF01CF3860A6
:100C6000FFF7F8FD00BDB20C0000440002662F0043
:100C700000B5F0170ED0FFF7EDFDFFF7CAFCF01737
:100C80000ED0FFF7E7FDFFF7C4FCFFF77CFFFFF78F
:100C9000E3FC00BDFFF7BDFCF017F4D0FFF7DAFD71
:100CA000FFF7B7FCFFF76FFFFFF7D4FDFFF7D4FCAA
:100CB00000BDFA0C000020020232210006CF316094
:100CC000726040CF704700B5FFF7EFFB01684268E4
:100CD00006B400F00CFEFFF7CAFA06BC0160282932
:100CE00006D047F8046D46F2400600F004FE00BD51
:100CF0000432426000F0FBFD00BD440D0000200204
:100D000002324000043F706838603668704700B5B2
:100D100000F0C8F8016828290AD047F8046D46F6A3
:100D2000400600F0C5FD00F0F2F800F0BDFD00BD8A
:100D300041680431416000F0B7FD00F0E8F800F0D0
:100D4000B3FD00BD580D000044000364753C07CF9F
:100D5000121AB141B64170476C0D000044000364A3
:100D6000753E07CF801A8E41B6417047820D000054
:100D7000440002643C0007CF121AB1410CDB00268C
:100D800070479E0D0000440002643E0007CF801AA9
:100D90008E4101DB002670470026F6437047BA0DEE
:100DA000000062020364303C0437F617704700B558
:100DB00000F0C0F800F058FB00BDE20D0000620238
:100DC0000364303D01CF0643013EB641704700B594
:100DD00047F8046D44F2003600F0BDFA00F01EFB47
:100DE00000BD080E0000440203643C3E07CF5040A3
:100DF0004E400643013EB641F643704700B500F051
:100E000015F800F01FFB00BD500E00004402026404
:100E10003D0007CF50404E400643013EB64170476B
:100E200000B500F003F800F0F9FA00BD00B5FFF7D7
:100E30004CFB00F0C1F800F0C3F900F0D9F800F065
:100E4000BFF900F0B0F900BD0000A0FB000080FB7E
:100E5000620E000020000373704047F8046D3E00EE
:100E60007047720E0000200003737021370040CFDE
:100E70007047840E000020000372704047F8046D34
:100E80006E467047940E0000200003727021B54634
:100E900040CF7047B80E000061020364757047F8D8
:100EA000046D704706B5FFF7E9FA01684268FFF77D
:100EB000DEF90160426006BDE40E000061020464D8
:100EC000726F700040CF704700B501681E2906D1CF
:100ED00047F8046D43F2047602F000FA00BDFFF714
:100EE000D0F900BDFA0E00006100043F6475700087
:100EF000002E01D047F8046D7047260F00006202F3
:100F000004737761700039683E600E0070470CB55D
:100F1000FFF7BEFA02688368036082604268C368B4
:100F20004360C2600CBD540F00006202036E697022
:100F30000437704700B5FFF7A1FA81681E2902D077
:100F4000FFF7A5F900BD47F8046D43F2047602F0FF
:100F5000C5F900BD7C0F00006202046F7665720067
:100F600047F8046D7E68704700B5FFF791FA816815
:100F7000C268FFF77CF90160426000BDA20F00006B
:100F80006202047475636B0001CF083F7E603860B5
:100F9000704700B5FFF77CFAFFF784FF00F028F8F0
:100FA00000BDD80F0000630203726F7403CF083FC7
:100FB00078603E600E0070470EB5FFF776FA016864
:100FC000826803698160026103604168C2684369A5
:100FD000C160426143600EBDFC0F00006302042D3E
:100FE000726F740003CF083F7E603960060070475F
:100FF00000B5FFF7E1FFFFF7DFFF00BD0E100000B7
:101000002000047069636B0057F826607047261053
:10101000000000000564657074683A49C91B47F810
:10102000046D8E1070474210000000000672646567
:101030007074680047F8046D6E463349891B8E1042
:101040007047781000002002023E720040B440CF8A
:10105000704700B5FFF7A5FAFFF710FAFFF74AFA55
:1010600047F8046D4BF2004601228A40164302F015
:1010700035F9FFF706F900BDAE100000200202723C
:101080003E0047F8046D40BC704700B5FFF789FA91
:10109000FFF7EDF8FFF7BEF9036047F8046D4BF674
:1010A000004601229A40164302F018F900BDCC1008
:1010B000000020020272400047F8046D009E704755
:1010C00000B5FFF76EFA02F026FE00BDF01000003A
:1010D0002002057264726F7001B0704700B5FFF7AF
:1010E00060FA47F8046D4BF2010602F0F7F800BD14
:1010F0000C110000200005727069636BB6006E442D
:1011000036687047880200208803002038110000EC
:10111000000004726F6C6C00002E01D140CF70474C
:10112000B0003958C019031F1A6802600438013E24
:10113000F9D104370E007047601100000000052D42
:10114000726F6C6C002E01D140CF70473868394601
:101150004A680A600431013EFAD1086040CF704706
:101160007A110000620203616E6401CF064070478D
:1011700047F8046D44F20006EDE0961100006202AB
:101180000362696301CFB0430600704747F8046DFE
:1011900044F28036DBE0B01100006202026F7200A0
:1011A00001CF0643704747F8046D44F20036D2E0A1
:1011B000CA110000620203786F7201CF4640704787
:1011C00047F8046D44F24006C5E0E21100006202F7
:1011D000012A01CF4643704747F8046D44F2403678
:1011E000B9E016120000610203636C7AB6FA86F663
:1011F000704700B5FFF742F947F8046D7E4EFFF7E0
:1012000079F90E4356EA0146FFF7C2F956EA03267A
:1012100002F094F800BD34120000611803726F727E
:101220000120C6417047020001000000002060124A
:101230000000620252120000611803726F6C1F20DE
:10124000C641704702001F0000000020601200002D
:1012500062027212000062020772726F746174653A
:1012600001CFF0410600704747F8046D44F2C01604
:101270006DE0AA1200006202076172736869667409
:1012800001CF30410600704700B547F8046D44F2C5
:10129000001647F8046D41F20006FFF7F9F84168BF
:1012A0001F292AD91F21416027E0D41200006202C1
:1012B000067273686966740001CFF04006007047DB
:1012C00000B547F8046D44F2C00647F8046D40F6D7
:1012D000000612E00C1400006202066C7368696676
:1012E000740001CFB0400600704700B547F8046DA8
:1012F00044F2800647F8046D0026FFF7C9F801683C
:10130000282903D040CF00F022F800BD04374168FF
:10131000FEF7B7FF002901D140CF00BD1F290AD831
:1013200089010E430268D2001643FFF731F91E43CC
:1013300001F0D4FF00BD40CFFFF72AF947F8046D54
:1013400042F200061B021E4301F0C8FF00BD0FB5AC
:10135000FFF79EF80CE00FB5FFF79AF80168062931
:1013600001D1FFF7D4FD8268282A01D1FFF7CFFD14
:10137000FFF7CAF8016828291ED147F8046D4668AE
:1013800001F0AAFB02CF002E40CF15D0B6F5804F5A
:1013900001D11A4E1EE044F24002964201D1184E8D
:1013A00018E0B6F5864F01D1164E13E04FF4874290
:1013B000964201D1144E0DE0FFF7BAF8FFF79AF804
:1013C000C90082680E43164301F088FFFEF759FFFB
:1013D0000FBD0FB50E43816856EA0146FEF751FF77
:1013E000FEF74FFFFEF743FFFFF714F8036056EADE
:1013F000032601F0A3FF0FBD80F0B0FA000010F04B
:10140000000090F0000050F0000030F032140000B6
:10141000610202303D00013EB641704700B500F068
:10142000FBF800F078FEFEF72CFF4FF4524181628A
:1014300000BD5A140000610203303C3E013EB6413B
:10144000F643704700B500F0E7F800F064FEFEF7E1
:1014500018FF4FF45341816200BD82140000610205
:1014600002303C00F617704700B500F0D5F847F899
:10147000046D41F2C07600F091FE4FF45541816257
:1014800000BD98140000600004747275650047F890
:10149000046D0026F6437047AC140000600005663A
:1014A000616C736547F8046D00267047D214000024
:1014B0004202023E3D0001CFB042EADA0026704708
:1014C00047F8046D4DF6003647F8046D4DF60026DA
:1014D000AEE0F81400004202023C3D0001CFB042F1
:1014E000D7DD0026704747F8046D4DF6004647F8F3
:1014F000046D4DF600569BE01C1500004202013CB5
:1015000001CFB042C5DB0026704747F8046D4DF6A9
:10151000002647F8046D4DF6003689E040150000BE
:101520004202013E01CFB042B3DC0026704747F8CB
:10153000046D4DF6005647F8046D4DF6004677E011
:1015400066150000620203753E3D01CF861BB64161
:10155000F643704747F8046D4DF2003647F8046DC6
:101560004DF2002664E08C150000620203753C3DDC
:1015700001CF361AB641F643704747F8046D4DF671
:10158000000647F8046D4DF6001651E0B015000056
:10159000620202753C0001CF861BB641704747F8D6
:1015A000046D4DF2002647F8046D4DF200363FE021
:1015B000D4150000620202753E0001CF361AB64112
:1015C000704747F8046D4DF6001647F8046D4DF668
:1015D00000062DE0F81500006202023C3E0001CF3B
:1015E000361A013EB641F643704747F8046D4DF296
:1015F000000647F8046D1BE05A1700006202013D27
:1016000001CF361A013EB641704747F8046D4DF2DE
:10161000001647F8046D0BE000B5FEF72FFFFEF74C
:1016200067FEFEF76AFEFEF76DFEFEF76DFF00BD7A
:1016300000B5FEF72DFFFEF75BFEFEF75EFEFEF740
:101640006DFF8268282A05D1FFF761FC39683E608A
:101650000E46826840CF016828291DD14168FF29C4
:1016600007D847F8046D42F600060E438168090268
:101670001AE047F8046D466801F02EFA02CF002EFA
:1016800040CF09D047F8046D6A4E0E43816856EA90
:10169000014601F053FE0AE0FEF72CFF47F8046D07
:1016A00044F28026C90016430E4301F017FEFEF7F0
:1016B000E8FDFEF7E6FD866240CF00BD0FB55E484F
:1016C000816A002935D047F8046D866A002181625D
:1016D000310AD52901D140CF0FBDFEF7C8FDFEF775
:1016E00099FE0360D22904D14FF4834600F056FDE1
:1016F0000FBDD32906D14FF4834600F04FFD00F013
:1017000060FD0FBD023601F0E9FD47F8046D42F2BD
:10171000000600F00FF800F054FD47F8046D4EF29B
:10172000000601F0DBFD47F8046D42F2000600F010
:1017300001F80FBD00B5FEF7A1FEFEF710FF01682E
:1017400009020E4301F0CAFD00BD00B5816A090A15
:10175000D52901D1FEF795FD00BD78170000620282
:10176000036D696E01CFB04200DC0600704747F898
:10177000046D4DF600362DE0961700006202036DF1
:10178000617801CFB04200DB0600704747F8046D76
:101790004DF600461EE0B6170000620204756D614A
:1017A000780001CFB04200D30600704747F8046DBF
:1017B0004DF600060EE03C180000620204756D69EB
:1017C0006E0001CFB04200D80600704747F8046DA4
:1017D0004DF2003600B5FEF75BFE0168826891426B
:1017E00003D140CFFEF753FD00BD062A01D1FFF71C
:1017F0008EFB0168282901D1FFF789FBFEF7AFFEB8
:10180000FEF782FEC900026847F8046D44F28026A4
:101810000E43164301F062FD01F060FD47F8046DD0
:1018200044F200660E43164301F058FDFEF72FFD0B
:1018300000BD0000000FB0F1200000207A18000069
:101840000000046D6F76650007B5310040CF3200AF
:1018500040CF00290FD0B2420DD006D3013E013A4D
:10186000705C50540139FBD105E0307810700136BE
:1018700001320139F9D140CF07BD9C1800000000AA
:101880000466696C6C00300040CF310040CF002905
:1018900002D001397054FCD140CF7047DE180000EF
:1018A000200201403668704747F8046D46F600068E
:1018B00000B5FEF7E3FD0368282B08D143687C21BF
:1018C000194009010E437C218B43FEF764FDDB00C8
:1018D0001E43FEF75DFE1E4301F000FD00BD3619FC
:1018E00000002002012103CF30600E00704747F84E
:1018F000046D46F2000600B5FEF7CAFD0368282B0A
:1019000009D143687C21194009010E437C218B4396
:10191000FEF741FD0360DB001E438368282B02D1E4
:10192000C368FEF72CFD1E4301F0D8FCFEF7A9FCAE
:10193000FEF7A7FC00BD6C1900002002022B21005D
:1019400003CF3268121832600E00704700B5FEF700
:101950009FFDFFF7A7FAFFF7A7FFFFF72DFB00F0AA
:101960006CFBFFF7D4FAFFF7C2FF00BDB01900000F
:101970002002026840003688704700B5FEF77EFD01
:1019800047F8046D48F600060368282B08D1436821
:101990003E21194049010E433E218B43FEF7FBFCDB
:1019A000DB001E43FEF7F4FD1E4301F097FC00BD73
:1019B0000A1A000020020268210003CF30800E00C6
:1019C000704700B5FEF764FD47F8046D48F2000665
:1019D0000368282B09D143683E21194049010E4371
:1019E0003E218B43FEF7D7FC0360DB001E43836878
:1019F000282B02D1C368FEF7C2FC1E4301F06EFC27
:101A0000FEF73FFCFEF73DFC00BD401A000020023F
:101A100003682B2103CF3288121832800E007047E2
:101A200000B5FEF735FDFFF73DFAFFF7A6FFFFF71C
:101A3000C3FA00F002FBFFF76AFAFFF7C2FF00BD2E
:101A4000841A00002002026340003678704700B517
:101A5000FEF714FD47F8046D47F600060368282BCF
:101A600008D143681F21194089010E431F218B4370
:101A7000FEF791FCDB001E43FEF78AFD1E4301F0DA
:101A80002DFC00BDDE1A000020020263210003CFFE
:101A900030700E00704700B5FEF7FAFC47F8046D91
:101AA00047F200060368282B09D143681F2119401B
:101AB00089010E431F218B43FEF76DFC0360DB00A1
:101AC0001E438368282B02D1C368FEF758FC1E43CF
:101AD00001F004FCFEF7D5FBFEF7D3FB00BD141BA1
:101AE0000000200203632B2103CF327812183270DA
:101AF0000E00704700B5FEF7CBFCFFF7D3F9FFF7F8
:101B0000A6FFFFF759FA00F098FAFFF700FAFFF77F
:101B1000C2FF00BD381B000020020462697321006F
:101B200003CF3268024332600E00704700B547F8B9
:101B3000046D44F2003630E0781B0000200204629D
:101B40006963210003CF3268824332600E00704720
:101B500000B5FEF79DFCFFF7A5F9FFF7A5FEFFF71F
:101B60002BFA47F8046D44F28036FFF7F0FBFFF7DD
:101B7000CEF9FFF7BCFE00BDB81B000020020478C0
:101B80006F72210003CF3268424032600E0070470E
:101B900000B547F8046D44F24006FEF779FCFFF704
:101BA00081F9FFF781FEFFF707FAFFF7D4FBFFF794
:101BB000AEF9FFF79CFE00BDEE1B000020020462A0
:101BC0006974400001CF3668064018BF4FF0FF36F9
:101BD000704700B5FEF75CFCFFF766FE47F8046D42
:101BE00044F20006FFF7B7FBFFF72CFC00BD121C08
:101BF0000000200205686269732103CF3288024326
:101C000032800E00704700B547F8046D44F200368C
:101C100030E0521C0000200205686269632103CF96
:101C20003288824332800E00704700B5FEF730FCE8
:101C3000FFF738F9FFF7A1FEFFF7BEF947F8046D8B
:101C400044F28036FFF783FBFFF761F9FFF7B9FE37
:101C500000BD921C000020020568786F722103CF3E
:101C60003288424032800E00704700B547F8046D5C
:101C700044F24006FEF70CFCFFF714F9FFF77DFE77
:101C8000FFF79AF9FFF767FBFFF741F9FFF799FEB6
:101C900000BDB81C0000200205686269744001CFD5
:101CA0003688064018BF4FF0FF36704700B5FEF784
:101CB000EFFBFFF762FE91E7DC1C000020020563EA
:101CC0006269732103CF3278024332700E0070478D
:101CD00000B547F8046D44F2003630E01C1D0000EA
:101CE000200205636269632103CF32788243327038
:101CF0000E00704700B5FEF7CBFBFFF7D3F8FFF7F8
:101D0000A6FEFFF759F947F8046D44F28036FFF755
:101D10001EFBFFF7FCF8FFF7BEFE00BD5C1D0000D8
:101D200020020563786F722103CF3278424032700F
:101D30000E00704700B547F8046D44F24006FEF708
:101D4000A7FBFFF7AFF8FFF782FEFFF735F9FFF7C4
:101D500002FBFFF7DCF8FFF79EFE00BD821D0000CE
:101D6000200205636269744001CF3678064018BFCF
:101D70004FF0FF36704700B5FEF78AFBFFF767FEAE
:101D80002CE7201E000000000768666C6173682164
:101D9000300040CF310040CF4FF40043984225D36C
:101DA0004FF40023984221D24FF6FF731940994215
:101DB0001BD010F00102002A18D102889A4215D1D6
:101DC00010F10060874A884B1360884B1360884A83
:101DD00040F2011313600180864A136813F48033C4
:101DE000FBD1834A4FF000431360704700F010FDB1
:101DF0002A57726F6E672061646472657373206F17
:101E000072206461746120666F72207772697469F0
:101E10006E6720666C61736820210A0002F0D8BCEE
:101E2000801E000000000763666C6173682130004B
:101E300040CF310040CF4FF400439842D6D34FF407
:101E400000239842D2D211F0FF01FF2917D0027867
:101E5000FF2ACBD110F10060624A634B1360634BE1
:101E60001360634A4FF0010313600170614A136805
:101E700013F48033FBD15E4A4FF000431360704788
:101E8000F81E00000000106572617365666C617376
:101E900068736563746F720000B5022E2AD3082E32
:101EA00028D2504A504B1360504B136000F0B0FCE6
:101EB0000D457261736520736563746F722047F816
:101EC000046D02F0D8FA4A4A4B4BF60033431360D4
:101ED000484A136813F48033FBD1454A4FF000435E
:101EE000136000F095FC0C66726F6D20466C617398
:101EF000682E0A0040CF00BD2C20000000000A65BB
:101F000072617365666C6173680072B600B53B48B8
:101F10003B490268B2F1FF3F05D047F8046D022645
:101F2000FFF7BAFF02E004308842F2D33548364961
:101F30000268B2F1FF3F05D047F8046D0326FFF7B2
:101F4000ABFF02E004308842F2D3304830490268E7
:101F5000B2F1FF3F05D047F8046D0426FFF79CFF60
:101F600002E004308842F2D32A482B490268B2F1D9
:101F7000FF3F05D047F8046D0526FFF78DFF02E00F
:101F800004308842F2D3254825490268B2F1FF3F68
:101F900005D047F8046D0626FFF77EFF02E0043007
:101FA0008842F2D31F4820490268B2F1FF3F05D0B2
:101FB00047F8046D0726FFF76FFF02E00430884200
:101FC000F2D300F025FC1246696E69736865642ED1
:101FD00020526573657420210A005DF804EB02F05D
:101FE00086BC0000043C024023016745AB89EFCD6D
:101FF000103C02400C3C024002000100008000083E
:10200000FFBF000800C00008FFFF00080000010833
:10201000FFFF010800000208FFFF0308000004089A
:10202000FFFF050800000608FFFF07086220000008
:102030006202012B01CF3618704700B5FEF728FA6F
:1020400047F8046D43F2000647F8046DC94E47F89F
:10205000046D41F600068168282917D1FEF757FF65
:1020600014E0082100006202012D01CF861B704799
:1020700000B5FEF70DFA47F8046D43F6000647F881
:10208000046DBD4E47F8046D41F60026FEF73CFA9C
:102090000168282927D14168FF290CD840CF40CFBB
:1020A000FEF746FA0E43816809020E4301F016F965
:1020B000FEF7E7F800BD47F8046D0E0000F00CFDD8
:1020C00002CF002E40CF0ED040CF04370E438168A0
:1020D00056EA0146FEF7D5F8FEF75AFA56EA032605
:1020E00001F02CF900BD04370437FEF703FA89012B
:1020F0008268D2000E431643FEF7C3F8FEF748FA93
:102100001E4301F0EBF800BD202100006102023106
:102110002D00013E704747F8046D41F640663DE0F2
:1021200038210000610202312B000136704747F868
:10213000046D41F6404631E0502100006102023258
:102140002D00023E704747F8046D41F6806625E099
:1021500068210000610202322B000236704747F806
:10216000046D41F6804619E082210000610205639A
:10217000656C6C2B0436704747F8046D41F60056C9
:102180000CE0B42100006102066E656761746500B1
:102190007642704747F8046D44F2402600B5FEF7DA
:1021A0006DF90168C9000E43FEF7F2F91E4301F014
:1021B00095F800BDCC2100006102036E6F74F643F8
:1021C000704747F8046D44F2C036E7E7E4210000A9
:1021D0006102037368727608704747F8046D40F631
:1021E0004006DBE7F421000061020373686C7600AF
:1021F000704706E00A220000610202322A007600DF
:10220000704747F8046D4026C8E7222200006102AB
:102210000563656C6C73B600704747F8046D8026E3
:10222000BCE73A220000610202322F0076107047AC
:1022300047F8046D41F24006B0E77A2200006102DF
:1022400003616273F01736184640704700B5FEF719
:1022500015F947F8046D00260168C9000E43FEF722
:1022600097F91E4301F03AF847F8046D4DF2005615
:1022700001F034F8FFF78EFF00BD98220000420005
:1022800005752F6D6F6401CF3100B0FBF6F6714319
:10229000401A043F38607047B62200004200042F05
:1022A0006D6F640001CF310090FBF6F67143401A68
:1022B000043F38607047CA2200004200036D6F641B
:1022C00000B5FFF7EFFF40CF00BD0A230000620218
:1022D000012F01CF90FBF6F6704700B5FEF7D8F856
:1022E000FEF708F9FEF710F947F8046D234E016870
:1022F0000E43816856EA0146FDF7C3FFFEF748F931
:1023000056EA032601F01AF800BD1E230000610002
:10231000046576656E00012030403618704736231C
:102320000000810004626173650047F8046D144E7B
:1023300070470A0000004C23000000000662696E2E
:10234000617279000E48022101607047622300002B
:10235000000007646563696D616C09480A210160CA
:10236000704784230000000003686578044810214A
:1023700001607047000010F10000B0F1F0F090FB38
:10238000FCFF0120A0230000810009686F6F6B2D06
:10239000656D697447F8046D714E70478A240000BA
:1023A000BC230000810008686F6F6B2D6B6579009E
:1023B00047F8046D6B4E7047B0240000DA2300002C
:1023C00081000A686F6F6B2D656D69743F0047F877
:1023D000046D654E7047DA240000F623000081008A
:1023E00009686F6F6B2D6B65793F47F8046D5F4E21
:1023F0007047062500001424000081000A686F6FF2
:102400006B2D70617573650047F8046D584E704709
:102410009E4800002A240000000004656D697400D5
:102420000FB54F4800F026F80FBD3E240000000015
:10243000036B65790FB54B4800F01CF80FBD5024B5
:102440000000000005656D69743F474800688746D5
:10245000622400000000046B65793F004348006877
:102460008746782400000000057061757365404858
:1024700000688746006887469E24000000000B73B2
:10248000657269616C2D656D697400B500F025F8A1
:10249000002E40CFFAD0374A167040CF00BDC62478
:1024A000000000000A73657269616C2D6B6579002C
:1024B00000B500F028F8002E40CFFAD047F8046DA0
:1024C0002C4A167800BDF424000000000C736572DD
:1024D00069616C2D656D69743F0000B5FFF7C7FF3A
:1024E00047F8046D0026244801688020014000D090
:1024F000F64300BD9825000000000B73657269610A
:102500006C2D6B65793F00B5FFF7B1FF47F8046D9F
:102510000026194801682020014000D0F64300BD84
:1025200016499F2008601649086850F0A00008600E
:102530001449086850F040000860134920F47F40B7
:1025400050F4EE40086011494FF400300860104923
:102550008B2008600F4942F20C00086070470000B1
:10256000F8FF0120F4FF0120F0FF0120ECFF012023
:10257000E8FF01200444004000440040303802409D
:10258000000002400C00024020000240403802409F
:10259000084400400C440040BC25000000000763D4
:1025A00065787065637400B5386801B401303860CF
:1025B00000F00BF801BC067040CF00BD32260000D1
:1025C0000000066163636570740000B502CF0139D5
:1025D0000022FFF72FFF300040CF7F2809D02028AE
:1025E00019D2092816D00A281FD00D281DD0082876
:1025F000EFD1002AEDD000F00BF903082008002AE3
:10260000E7D0885C013A80230340E2D040230340B6
:10261000F5D0DEE72020B242DBD247F8046D060099
:10262000FFF7FEFE01328854D3E7160000F09FF852
:1026300000BD4426000040000374696247F8046D41
:10264000294E70475A2600008100033E696E47F804
:10265000046D264E704700000000802600008200B6
:102660000E63757272656E742D736F75726365009B
:1026700047F8046D1E4E704700000000C0000020A7
:102680009C260000000009736574736F75726365A2
:10269000174802CF0660416040CF7047BA2600005D
:1026A000000006736F757263650047F8046D104E85
:1026B000043F7068386036687047F42600000000F8
:1026C0000571756572790FB5084800210160FFF743
:1026D000B5FF47F8046D47F8046DC826FFF775FF8E
:1026E000FFF7D6FF0FBD0000C0000020E4FF01206F
:1026F000DCFF01203C270000000007636F6D706164
:1027000072650FB5310040CF01CF884202CF10D1A2
:10271000002810D001380A5C335C412A02D35B2ABE
:1027200038BF2032412B02D35B2B38BF20339A4273
:10273000EED000260FBD0026F6430FBD5027000047
:1027400000000263720000B500F062F8010A00BDEB
:1027500062270000000002626C0047F8046D20262A
:10276000704776270000000005737061636547F8C5
:10277000046D202654E69627000000000673706161
:102780006365730000B5002E03DDFFF7F0FF013E27
:10279000FBD140CF00BDA62700005000065B636858
:1027A00061725D0005E0BE270000000004636861FF
:1027B000720000B501F090FC40CF367800BDCE2706
:1027C00000005004012847F8046D292606E0E82798
:1027D00000005004015C47F8046D002600B501F0CC
:1027E00085FC043740CF00BD2C2800003000022EAD
:1027F0002200AA4800B547F8046D060000F07DFAF3
:1028000047F8046D222601F071FC00F0A2FD00BD26
:102810000AB447F8046D7646013E3378012101334E
:1028200019405B181EEB030E0ABC39E05228000069
:102830003000026322009A48DCE747F8046D7646D0
:10284000013E33780121013319405B181EEB030E62
:1028500070477C2800003000027322009148C9E7CD
:1028600047F8046D764647F8046D013E367801213D
:10287000731C19405B181EEB030E70479428000070
:10288000000005636F756E74013647F8046D013EF4
:1028900036787047AC2800000000056374797065D5
:1028A00000B5FFF7F1FF00F007F800BDD4280000E5
:1028B000000004747970650001B501CF002E07D0C7
:1028C00047F8046D0678FFF7ABFD0130013EF7D104
:1028D00040CF01BD0E2900000000046865782E007D
:1028E00007B5310040CF20200F22043847F8046D8F
:1028F0000E00C6401640092E01D9373600E03036AA
:10290000FFF78EFD0028F0D1FFF731FF07BD1E292C
:102910000000000003682E731FB5634C0EE02E29E3
:102920000000000003752E731FB5604C06E0D2292D
:1029300000000000022E73001FB55D4C5D49C91BED
:102940008908220A2020292F200A2028273E200A31
:10295000202F43432020203335204343430A385C53
:1029600029295F200A0A544A106803B40A2010601B
:10297000FFF74EFF08537461636B3A205B0047F822
:10298000046D0E0001F07FFDFFF742FF025D2000A5
:1029900003BC2736484A106000290AD0474A10680D
:1029A00006B447F8046D0600A04706BC043A013996
:1029B000F5D1FFF72DFF0620544F533A200047F87A
:1029C000046D3600A047FFF723FF04202A3E0A00CB
:1029D0001FBD722A0000000005776F72647300B596
:1029E000FFF716FF010A00F0F9FEFFF711FF09419A
:1029F0006464726573733A2047F8046DFFF770FFE3
:102A0000FFF706FF064C696E6B3A200047F8046D2D
:102A10003668FFF765FFFFF7FBFE07466C616773DB
:102A20003A2047F8046DB688FFF75AFFFFF7F0FE2B
:102A300006436F64653A2000B01D00F01CFF47F8A4
:102A4000046D0600FFF74CFFFFF7E2FE064E616DD6
:102A5000653A200047F8046D0636FFF721FFFFF7BF
:102A6000D7FE010A00F0D2FE300040CFBDD040CFEB
:102A700000BDC42A0000000006756E757365640011
:102A800000B500F0CCFF0E4801684FF000529142B3
:102A900001D24FF40026761A00BD00001028000075
:102AA0003A28000060280000E12800007744000078
:102AB0008744000088020020FCFF012084020020DF
:102AC000D0FF0120282C000000000D313262697413
:102AD000656E636F64696E670FB5FF2E04D847F8A3
:102AE000046D5FF0FF360FBD16F0FF10B0420ED13F
:102AF0004FF6FF710840310C814208D116F0FF06F5
:102B000056F4805647F8046D5FF0FF360FBD16F09F
:102B1000FF20B0420FD14FF6FF710840310C8142C7
:102B200009D1360A16F0FF0656F4005647F8046D30
:102B30005FF0FF360FBDFF2231001140300A104018
:102B4000884210D1300C104088420CD1300E104019
:102B5000884208D116F0FF0656F4405647F8046D37
:102B60005FF0FF360FBD300000210131001850F139
:102B700000007FF07F020240802A05D01F29F4D395
:102B800047F8046D00260FBD0829F9D3060036F07A
:102B9000800611F00100C001064311F00E00C002D2
:102BA000064311F010008005064347F8046D5FF0FE
:102BB000FF360FBD47F8046DDFF884655FF47041A0
:102BC00010EA0102120116435FF4006110EA0102EB
:102BD000D20316435FF4E06110EA010212011643CA
:102BE000FF2110EA010216431E43A7E347F8046DD4
:102BF000DFF850655FF0704110EA0102120B1643D6
:102C00005FF0006110EA0102520816435FF0E061D4
:102C100010EA0102120B16435FF47F0110EA010271
:102C2000120C16431E4389E38E2C00000000107224
:102C3000656769737465726C69746572616C2C0088
:102C40000FB5330040CF1B02FF2E05D856F40056B7
:102C50001E4300F043FB0FBDFFF73EFF002E40CFA9
:102C600006D0DFF8E40406431E4300F067FB0FBD07
:102C7000F643FFF731FF002E40CF06D0DFF8CC043B
:102C800006431E4300F05AFB0FBDF6430BE0EE2C4B
:102C900000000000096D6F76776D6F76742C0FB5AC
:102CA000330040CF1B02300040CFFFF783FF4FF6C9
:102CB000FF7110EA014001D0FFF798FF0FBD0FB57B
:102CC0000136300040CF0023FFF774FFFFF78EFF7F
:102CD00006E00FB5013647F8046D0026FFF7B0FF98
:102CE00047F8046D44F2807600F0F8FA0FBD542DD9
:102CF000000000000563616C6C2C0FB5330000F020
:102D00007FFE300040CF1B1A043BDFF8441419400B
:102D1000002906D0DFF83C24914202D0BDE80F40E4
:102D2000D7E740CF5B08DFF8300440F2FF7119406D
:102D30000843DB0A40F2FF311940090408439B0AAB
:102D400013F001018906084347F8046D060000F0FE
:102D5000F5FA0FBD8A2D00000000086C69746572D9
:102D6000616C2C0008B547F8046D4FF6470600F07B
:102D7000B5FA47F8046D46F6045600F0AFFA47F886
:102D8000046D0626FFF75CFF08BDAE2D00000000B5
:102D9000066372656174650000B500F031F842F6B3
:102DA000CB50804747F8046DBEF1010600BDF22DFF
:102DB0000000200005646F65733E42F6CB508047EB
:102DC00047F8046DBEF10106704747F8046DBEF187
:102DD0000106E24A1368E24909680220084000D06F
:102DE000023102311160FFF76AFF136000F0CDF984
:102DF00000BD2E2E00000000073C6275696C6473F4
:102E000000B500F0C7FB00F0FBFD0220064040CFFC
:102E100001D000F055FA47F8046D4BF2005600F06F
:102E20005DFA47F8046D0A2600F0BFFA00BD3A2E9D
:102E300000005000035B275D03E0522E00000000FD
:102E4000012700B501F048F900F077FD300040CFD0
:102E500000BD802E0000300008706F7374706F6EBC
:102E6000650000B5FFF7EDFF043F3860FFF77AFF1C
:102E7000FFF778FF47F8046DBA4EFFF73EFF00BD3D
:102E8000D42E0000000007696E6C696E652C00B5D9
:102E90004BF200514BF6005244F270733088884276
:102EA00008D0904208D0984206D047F8046D06003A
:102EB00000F014FA0236F1E740CF00BD0EB54BF634
:102EC000005244F2707301880230914201D099425D
:102ED000F9D10EBDEA2E00000000047265742C00CA
:102EE00047F8046D4BF60056F8E1F82E000030006C
:102EF000046578697400F3E7102F00003000077252
:102F000065637572736547F8046D954E3668F4E62F
:102F1000282F0000810005737461746547F8046D03
:102F2000914E7047000000003A2F00000000015D44
:102F30008D480021C943016070474A2F00001000EE
:102F4000015B89480021016070476A2F0000000082
:102F5000013A00B58548076000F01CFB824801215A
:102F6000016083480021016000BDE62F00003008A9
:102F7000013B00B57D480168B94214D07D498E42BD
:102F800002D17D4EFFF78CFCFFF742FC15205374F5
:102F900061636B206E6F742062616C616E63656447
:102FA0002E0A01F015BC70480068411C10D00B2897
:102FB00005D847F8046D40F6200600F019F947F8E7
:102FC000046D44F2707600F089F901F003FB05E02E
:102FD00047F8046D4BF6005600F080F900F0D5F884
:102FE000FFF7AFFF00BDFA2F00000000076578650E
:102FF00063757465300040CF87460E3000001000C6
:1030000009696D6D65646961746510206AE020303E
:103010000000500006696E6C696E6500202061E05A
:103020003630000010000B636F6D70696C656F6E59
:103030006C79302056E04C30000050000A302D668C
:103040006F6C6461626C650040204BE06230000090
:1030500050000A312D666F6C6461626C650041201E
:1030600040E07830000050000A322D666F6C6461D9
:10307000626C6500422035E08E30000050000A335B
:103080002D666F6C6461626C650043202AE0A43099
:10309000000050000A342D666F6C6461626C65003C
:1030A00044201FE0BA30000050000A352D666F6CD6
:1030B0006461626C6500452014E0D030000050006F
:1030C0000A362D666F6C6461626C6500462009E00B
:1030D000EC30000050000A372D666F6C6461626C42
:1030E0006500472047F8046D060081E01C310000B0
:1030F000000008636F6E7374616E740000B500F0B9
:1031000049FAFFF72FFE47F8046D44F2707600F09D
:10311000E5F8FFF799FF00F038F800BD7C310000BA
:1031200000000932636F6E7374616E7400B500F055
:1031300031FA39683E600E46FFF714FEE1E7000001
:10314000000040F20000C0F200005FF000007FF0DD
:103150000100C0FF0000C0FF00F800F0D0FF012018
:103160000C000020CE440000D8FF01200800002001
:10317000540000208519120442290000E0310000AB
:10318000000006736D756467650000B5F14801685D
:103190004FF0005291421CD202390A884FF6FF7359
:1031A0009A4205D147F8046D4FF0000600F096F8FA
:1031B00000F05CF8E848006847F8046D0600E7494D
:1031C00009680431E34A1368116000F087F813605E
:1031D00000BD00F04BF847F8046D4FF0000608E022
:1031E00028320000000008736574666C6167730024
:1031F00000B5D84801684FF00052914205D2D64838
:1032000001683143016040CF00BD320040CFD34858
:103210000068043001884FF6FF73994201D1110014
:1032200000E01143018000BD3E3200004100076113
:103230006C69676E656403360320864370476032AD
:10324000000000000668616C69676E00C148016893
:103250000120014003D047F8046D00261AE07047B2
:103260008A320000000005616C69676E00B5FFF7E7
:10327000EDFFB84801680220014005D047F8046D11
:103280004FF0000600F02AF800BDD2320000000026
:1032900002632C0000B5AF4801684FF00052914224
:1032A00005D247F8046D0E00FEF7C1FD02E03200C2
:1032B00040CF0A7047F8046D012600F076F800BD93
:1032C00047F8046D362609E047F8046D4CF6407661
:1032D00004E018330000000002682C000FB5B6B2FD
:1032E0009F480168002902D0013100D0016099484F
:1032F00001684FF00052914205D247F8046D0E006C
:10330000FEF746FD02E0320040CF0A8047F8046D28
:10331000022600F04AF80FBD323300000000012CF5
:1033200001B547F8046DFFF7D9FF360CFFF7D6FF5C
:1033300001BD443300000000033E3C2C01B51020C9
:10334000C641EEE79E330000000007737472696E99
:10335000672C07B5F1B201CF002903D10026FFF792
:10336000BDFF07BD067836020E43FFF7B7FF0130F9
:10337000013902290AD347F8046D467836020278EB
:103380001643FFF7ABFF02300239F2E7002900D104
:1033900007BD47F8046D0678FFF7A0FF07BDFC33B3
:1033A0000000000005616C6C6F746A4801684FF0A2
:1033B0000052914210D2320040CF89184FF40022BF
:1033C000914219D3FFF724FA0B466C6173682066AB
:1033D000756C6C0A01F0FCB9320040CF8918614A63
:1033E0001268914208D3FFF713FA0952616D206603
:1033F000756C6C0A01F0ECB901607047183400007C
:10340000810008286C6174657374290047F8046DA5
:10341000554E7047880100003034000081000428B8
:103420006470290047F8046D504E704788030020EF
:1034300054340000000009666F7267657472616D34
:1034400000B500F025F84948494901604648494916
:10345000016000BD7C34000000000D636F6D706979
:103460006C65746F72616D3F47F8046D3F4800688A
:103470004FF000518842B641F64370479E34000039
:1034800000000C636F6D70696C65746F72616D0024
:10349000364800684FF00051884212D3704710350B
:1034A000000000000E636F6D70696C65746F666C70
:1034B000617368002D4800684FF00051884200D2C7
:1034C000704729482C4902680B680A600360274846
:1034D0002A4902680B680A60036022480068834238
:1034E00015D300B5FFF794F9232056617269616224
:1034F0006C657320636F6C6C6964652077697468B0
:103500002064696374696F6E6172790A00BD7047E7
:103510002C35000000000C61646472696E666C6199
:1035200073683F0013484FF400210BE0843500001E
:1035300000000A61646472696E72616D3F004FF051
:1035400000500F49864202D38E42B6417047002692
:1035500070470000D0FF012018000020D4FF012098
:10356000D8FF01201C000020D4FF0120D0FF012043
:1035700088030020880100001400002010000020B3
:1035800000000220723600000000082863726561A6
:103590007465290000B500F09FFD002E0ED1FFF7E5
:1035A00037F91520437265617465206E6565647333
:1035B000206E616D6520210A01F00AB9386827E99B
:1035C000410000F066F940CF002E40CF0FD03868A0
:1035D00027E94100FFF71CF9095265646566696EC9
:1035E0006520FFF769F9FFF713F9022E2000FFF7B6
:1035F0003DFE904800684FF00051884220D28E482E
:103600004FF00001016000F0FBF947F8046D062659
:10361000FFF7CBFEFDF7E6FCFFF79BFE874801684E
:103620000A684FF0FF339A4207D1824A136811604B
:1036300047F8046DFFF774FE1360066040CF13E097
:1036400000F0DEF97D4847F8046D0668FFF768FE74
:1036500047F8046D4FF6FF76FFF740FE77483100DC
:1036600040CF0160FFF775FE724801687448016041
:1036700000BD8A3600000000087661726961626CE4
:10368000650047F8046D012613E0A2360000000033
:1036900009327661726961626C6547F8046D0226D1
:1036A00007E0123700000000096E766172696162FE
:1036B0006C6500B5FFF76EFF5E4801684FF0005281
:1036C000914218D20F200640B20000F048F83000B6
:1036D00040CF020006D005D00E600431FFF720FE77
:1036E0000138F9D147F8046D80261643FFF780FDB5
:1036F000FFF74BFD00BD00F04CF8300040CF03D089
:10370000FFF70EFE0138FBD1FFF79EFCFFF73DFDF2
:1037100000BDC63700000000076275666665723A34
:1037200000B5FFF737FF032036188643414801688C
:103730004FF0005291420DD2320000F010F8FFF726
:10374000EFFD47F8046D40F24016FFF751FDFFF71B
:103750001CFD00BD00F01DF8FFF727FED4E700B503
:1037600038480168891A384A91420BD2FFF750F85D
:103770000F4E6F7420656E6F7567682052414D0A59
:1037800001F026B8016047F8046D0E00FFF7EAFA71
:1037900012E000B500F034F90220064040CF01D11C
:1037A000FFF78EFD47F8046D284EFFF7C7FD47F879
:1037B000046D274EFFF7C2FD47F8046D44F27076A2
:1037C000FFF78CFD00BDF637000000000F64696351
:1037D00074696F6E617279737461727415480068F0
:1037E0004FF0005147F8046D884201D2194E7047DE
:1037F000124E366870475838000000000E64696346
:1038000074696F6E6172796E6578740003B53168A2
:103810004FF0FF30814207D08879FF2804D00E0096
:1038200047F8046D002603BD47F8046D0026F643F3
:1038300003BD0000D0FF012018000020D4FF0120AC
:103840000C0000201C000020880300203E60043F84
:1038500002367E46880100008638000000000A73A8
:103860006B6970737472696E67003178023101227E
:1038700091437618704706B40178023101229143D2
:10388000401806BC70479838000000000466696E56
:103890006400304800688746B43800008100096839
:1038A0006F6F6B2D66696E6447F8046D2A4E704722
:1038B000C23800005C3900000000062866696E64AA
:1038C000290030B50020002103B4350040CF34007A
:1038D00040CFFFF783FF4FF6FF70B18888421ED0BC
:1038E000B179A9421BD1F01D0139425C635C412AC8
:1038F00002D35B2A38BF2032412B02D35B2B38BF67
:1039000020339A420BD10029EED102B0B01DFFF74F
:10391000B2FFB18803B44FF00050864207D2366838
:103920004FF0FF30864202D0B079FF28D3D103BCDC
:10393000060047F8046D0E0030BD00B53100386850
:1039400003B4FFF7A6FF03BC3A68002A01D100F0D8
:10395000EDFE00BDCCFF0120CCFF0120BA390000F4
:10396000000006636A756D702C00320040CF310094
:1039700040CF8B1B043B6FF0FE01194000290ED095
:103980006FF0FF0081420AD0FEF742FF0D4A756DCD
:103990007020746F6F206661720A00F019BF5B10AF
:1039A000FF210B40134330001E0000B5CB4A1368C3
:1039B0001060FFF793FC136000BDF43900000000B5
:1039C000056A756D702C310040CF300040CF0B1A66
:1039D000043BC3491940002902D0C24A9142D3D1C5
:1039E0005B1040F2FF72134053F4604347F8046DDC
:1039F0001E00DAE70A3A00000000046865726500FC
:103A000047F8046DB54E36687047383B000000003B
:103A10000D666C6173687661722D6865726547F832
:103A2000046DB14E3668704700B547F8046D42F634
:103A30000066FFF753FCFFF747FC00BDE0E700B569
:103A400000F03AF839683E600E4647F8046D4DF2D2
:103A50000016FFF78AFF00BD00B500F02DF83968A9
:103A60003E600E4647F8046D4DF20076FFF77DFF8D
:103A700000BD00B5FFF7D8FF00F01EF839683E60C2
:103A80000E4647F8046D4DF20006FFF76EFF00BDCD
:103A900000B500F011F839683E600E46FFF793FF5D
:103AA00000BD00B5FFF7C0FFFFF7AAFF47F8046DA0
:103AB0000226FFF77AFC00BD00B5FFF7A1FF47F82B
:103AC000046D0226FFF771FC00BD00B5FFF798FFFB
:103AD000FFF779FF00BD00B5FFF792FF47F8046DCF
:103AE0004DF20006FFF741FF00BD00B5FFF788FF6C
:103AF00047F8046D4DF20016FFF737FF00BD00B523
:103B0000FCF7BCFCFCF7F4FBFCF7F7FBFCF7FAFB5B
:103B10008168282901D1FCF7F7FCFCF7EBFC47F89A
:103B2000046D42F6000609020E43FFF7D7FBFCF7CF
:103B3000A8FBFCF7D1FB00BD643B0000300004741F
:103B400068656E00052E01D140CFBEE7F1B20029B5
:103B50006DD100B5FFF754FF39683E600E46FFF7A0
:103B600004FF00BD803B0000300004656C736500FD
:103B700000B500F036F8FCF74CFDFFF7E3FF00BDA1
:103B8000D63B000030060269660000B5FFF789FFEA
:103B900047F8046D4DF2000600BD00B5FCF701FDCD
:103BA000FDF7D3FD816A002907D002B4FCF794FB2E
:103BB000FFF782FF47F8046D40BDFFF7A0FFFFF756
:103BC0001FFF47F8046D0226FFF7EFFB47F8046D6F
:103BD0004DF2000600BDF03B000030000561686555
:103BE000616400B5FFF768FF47F8046D052600BD66
:103BF0000A3C00003000067265706561740000B513
:103C000000F05BF8FFF79EFF00BD4E3C0000300661
:103C1000057768696C6500B5FFF7B7FFFCF7F9FC3D
:103C200000BD00B5FFF7B9FFFCF7F3FC00BDFEF7E0
:103C3000EFFD175374727563747572657320646F4A
:103C40006E2774206D617463680A00F0C1BDAE3CDC
:103C50000000300605756E74696C012EE7D140CF07
:103C600007E77047012EE2D140CF00B5FDF76DFDAB
:103C7000816A00290DD002B4FCF72EFBFFF71CFF70
:103C800039683E600E4647F8046D40BCFFF76DFE94
:103C900000BDFFF734FFFFF70FFF39683E600E46A7
:103CA00047F8046D4DF20006FFF75FFE00BDC23C11
:103CB0000000300005616761696E012EB7D140CF09
:103CC000E6E6EC3C0000300005626567696E00B511
:103CD000FFF7B4FE47F8046D012600BDD0FF0120B8
:103CE00001F8FFFF00F8FFFF1C000020063D000068
:103CF0002002016B47F8046D029E704747F8046D7F
:103D000049F602060BE0343D00002002016A47F844
:103D1000046D009E704747F8046D49F6000600B533
:103D2000FCF7A5FAFCF776FB03601B021E43FFF7C6
:103D3000D5FA00BD603D00002002016947F8046D1E
:103D40002600704700B547F8046D40F22006FCF7E6
:103D50008EFAFCF75FFB03601E43FFF7BFFA00BD5E
:103D60009E3D00003000056C6561766500B57548C4
:103D700001683B00043F1A68043B1A6008338B4219
:103D8000F9D103B4FFF798FE03BC330040CF0439E8
:103D90000B60016004390A6801320A6000BDB03D61
:103DA0000000200006756E6C6F6F700030BC7047AD
:103DB000E83D00003000052B6C6F6F70032E00D0C3
:103DC00035E740CF00B547F8046D5F4EFFF75FF869
:103DD000FFF742FE1AE014F10044641BA41940CF1F
:103DE0002C44A4F1004470472A3E00003000046CCB
:103DF0006F6F7000032E00D019E740CF00B547F871
:103E0000046D524EFFF743F8FFF719FE00F04AF930
:103E10004C48310040CF016047F8046D4C4EFFF72D
:103E200036F800BD0134AC427047723E00003002EB
:103E300002646F0000B547F8046D464EFFF727F89F
:103E40004048016847F8046D0E0047F8046D0026ED
:103E50000760FFF7F3FD47F8046D032600BD00B5CA
:103E600000F02FF8ECE730B4340040CF350040CFFD
:103E70007047583F00003002033F646F00B547F8B9
:103E8000046D344EFFF703F847F8046D44F2AC2696
:103E9000FFF724FA2B48016847F8046D0E00FFF77E
:103EA0000BFE013647F8046D012626480760FFF730
:103EB000C5FD47F8046D032600BD00B500F001F80C
:103EC000E2E700B5FCF76DFBFCF7E2FAFCF710FA4D
:103ED000FCF713FAFCF716FA47F8046D4BF230467C
:103EE000FFF7FCF90168282908D047F8046D40F273
:103EF0000406C9000E43FFF7F1F907E047F8046D27
:103F0000466847F8046D0426FEF79AFE8168282962
:103F100008D047F8046D40F20506C9000E43FFF7CC
:103F2000DDF907E047F8046DC66847F8046D05261B
:103F3000FEF786FEFCF7A5F9FCF7A3F9FCF7ECF910
:103F400000BD000004000020D63D0000243E00001B
:103F5000AC3D0000663E0000783F00003000046386
:103F60006173650000B5FCF71CFB47F8046D002683
:103F700047F8046D082600BD8E3F00003000033F67
:103F80006F666B4809E0013EB64140CF70474C4038
:103F900000003002026F66006648082E00D046E638
:103FA00040CF00B547F8046D0600FEF770FFFFF73D
:103FB00083FD39683E600E46013647F8046D0926D8
:103FC000FFF782F900BD082E00D030E640CF00B5E3
:103FD000FCF75EFAFCF78CF9FCF78FF9FCF792F925
:103FE00047F8046D44F28026FCF78EFA0E4302680F
:103FF000282A1ED14268FF2A08D840CF47F8046D0E
:1040000042F60006164309020E4314E047F8046D19
:104010004668FEF761FD04CF002E40CF06D0464E25
:10402000164356EA0146FFF789F906E0FCF762FA03
:104030000A00D2001643FFF751F9FCF722F9FCF70A
:104040006BF9B4E7300040CFB042704782400000C7
:10405000300005656E646F66092E00D0E7E540CF3D
:1040600000B540B440CFFFF727FD39683E600E46EB
:10407000FFF73BFD47F8046D40BC47F8046D082688
:1040800000BDCC400000300007656E64636173655D
:10409000082E00D0CBE540CF00B5FFF715F900F0B2
:1040A00001F800BD00B5300040CF00280DD003B4AA
:1040B00001213140002903D0013EFFF70CFD01E052
:1040C000FFF703FD03BC0138EFE700BDE04000004F
:1040D000000005746F6B656E47F8046D202605E0DF
:1040E00044410000000005706172736510B513480B
:1040F00001684068124A12688418202E07D1914244
:104100000FD0835CB34202D101328418F7E79142A9
:1041100007D0835C0132B342F9D18618361B013EC9
:1041200001E08618361B043F3C600548026010BD64
:10413000863F000044400000000FB0F1DCFF01208A
:10414000E4FF012082410000000005646967697492
:10415000CF4B1B68303E0BD30A2E0BD3073E0A2EE3
:1041600006D3242E06D3203E0A2E01D3242E01D3BB
:10417000002670479E42FBD247F8046D0026F643A6
:1041800070478C4200000000066E756D626572001B
:104190003FB5310040CF701E0126012204B4BC4B54
:1041A0001B680024002500293CD001300139027829
:1041B0002D2A04D101B00022D24304B4F3E7232A0C
:1041C00001D10A23EFE7242A01D11023EBE7252AA6
:1041D00001D10223E7E72E2A01D10226E3E72C2AA8
:1041E00036D047F8046D1600FFF7B4FF002E40CF1D
:1041F0002BD047F8046D260047F8046D2E0047F8D1
:10420000046D1E0047F8046D00260FB4FCF7D1FBC7
:104210000FBC350040CF340040CF0022A4195541D7
:1042200040CFC0E704BC002A04D50022E443ED439C
:104230000134554133002600012B02D047F8046DAC
:104240002E0047F8046D1E003FBD01B000263FBDA3
:104250002500002402260029E4D0425C01392E2AE0
:10426000F9D047F8046D1600FFF774FF002E40CF19
:10427000EBD0043F3C6047F8046D1E000FB4FCF720
:1042800047FC0FBC340040CF40CFE4E7AE42000013
:104290000000062E6469676974000A2E01D2303668
:1042A0007047242E01D23736704723267047E442E8
:1042B0000000000004686F6C6400330040CF754854
:1042C000017843290DD2013101704018012907D02E
:1042D0000138027801300270013801390129F7D123
:1042E0000370704704430000000005686F6C643C75
:1042F000330040CF67480178432902D20131017071
:10430000435470471C4300000000047369676E004B
:10431000002E01D440CF70472D26CEE73043000059
:10432000000002233E005B48067801303860704789
:104330004843000000000366235310B5202400F01A
:1043400008F8013CFBD110BD6A4300000000026682
:10435000230000B547F8046D4D4E3668FCF7EBFAC4
:10436000FFF79BFFFFF7C4FF00BD8643000000007E
:104370000223530000B500F00AF8002EFBD1386884
:104380000028F8D100BDB24300000000012300B5B1
:1043900047F8046D3E4E366847F8046D0026FCF77A
:1043A000D6FBFCF736F940CFFFF777FFFFF785FF25
:1043B00000BDC44300000000023C2300354800213A
:1043C00001707047D6430000000002662E0047F8D7
:1043D000046D202604E024440000000003662E6ED5
:1043E00000B510B4340040CFFCF7CEFDFCF728FA3E
:1043F00047F8046D0026FFF7E1FFFFF7BBFF40CF52
:104400002C26FFF775FF002C03D0FFF7A2FF013C1D
:10441000FBD110BC40CFFFF77BFF47F8046D47F896
:10442000046D1CE03A44000000000375642E00B5E2
:10443000FFF7C4FFFFF79EFF11E06C44000000008F
:1044400002642E0000B5FCF79FFDFCF7F9F9FFF7B9
:10445000B5FFFFF78FFFFCF7A9FDFFF759FFFFF747
:1044600062FFFEF729FAFEF782F900BD7E440000E4
:10447000000002752E0047F8046D0026D7E75C4661
:1044800000000000012E47F8046DF617DAE700007F
:10449000FCFF01207C00002030B54FF0005425685F
:1044A000002D01D13D00256030BD30B54FF00054E6
:1044B0003D00256030BD30B54FF00054002525602B
:1044C00030BD4FF000531B68DB1B9B08704700B5E5
:1044D000310040CF4FF48050084002D000F0A6F8E1
:1044E00000BD4FF48060084001D1FDF7E7F83200CD
:1044F00040CFFFF7D1FF4FF40050084003D047F8FA
:10450000046D160000BDFFF7DCFF8020084006D1D7
:104510004020084009D00F200840834205D347F8C7
:10452000046D1600FEF766FD00BD4FF400700840F4
:1045300014D0FBF73EFE47F8046D160047F8046DF3
:104540000E0000F031F81000FEF7B8FC421CB14834
:104550009047FFF7AAFFFBF73BFE00BDFBF729FEE4
:1045600047F8046D160047F8046D0E0000F01CF8C3
:10457000FBF7B2FEFFF79FFF4FF40060084001D148
:10458000FCF70FF847F8046D160010220A4002D01D
:10459000FEF730FD00BD20220A4002D0FEF777FC76
:1045A00000BDFEF7AAFB00BD0FB5320040CF3300BF
:1045B00040CF99480168062907D206204143974811
:1045C000401803801B0C43808280934801680131AE
:1045D00001600FBD0FB59048016806291FD88F48AC
:1045E00001391DD047F8046D0E00FEF777FE47F83D
:1045F000046D0688FEF772FE47F8046D4688FEF7E4
:104600006DFE47F8046D8688FEF768FE06300139B6
:10461000EDD147F8046D41F20006FEF7E9FD0FBD4C
:1046200047F8046D4026FEF7E3FD0FBD00B53000EE
:1046300040CFFEF743FC0188023047F8046D06883E
:1046400042881204164347F8046D868803B4FFF7C6
:104650003EFF03BC06300139EFD100BDA446000087
:104660000000086576616C756174650000B5FEF741
:104670001CF801CF01B440B440CF6948016802B4CE
:1046800000210160FEF704F800F014F8644802BC51
:10469000016047F8046D40BC01BC043F3860FDF781
:1046A000F7FF00BDA8470000000009696E7465723D
:1046B0007072657400B55B4887420BD9FEF7A8F8A5
:1046C00010537461636B20756E646572666C6F77EE
:1046D0000A007DE0544887420AD2FEF799F80F534A
:1046E0007461636B206F766572666C6F770A6FE03A
:1046F000FFF7D2FEFFF7F0FC002E02D1043740CFC7
:1047000000BD386827E94100FFF7C3F8310040CF0A
:10471000320040CF002A1BD138683100FCF7CEFFB1
:10472000FFF736FD320040CF002AC4D147F8046DB0
:10473000060047F8046D0E00FEF7BEF8FEF768F8B5
:104740000C206E6F7420666F756E642E0A003FE059
:10475000364B1B68002B1CD1FFF7ADFE30230B40FE
:10476000302B0ED1FEF7A8F8FEF752F8122069732D
:1047700020636F6D70696C652D6F6E6C792E0A0009
:1047800026E0043740CF47F8046D1600FEF732FCF0
:1047900091E7043740CF47F8046D160047F8046DE1
:1047A0000E00FFF794FE86E7C44700008100096809
:1047B0006F6F6B2D7175697447F8046D1C4E7047EF
:1047C000FE47000044480000000004717569740051
:1047D000DFF860D0134F18480A2101601348002108
:1047E00001604FF000500160FBF7BDFD0C48016017
:1047F00012480160124941600D4800688746FDF784
:1048000062FFFFF757FFFEF703F805206F6B2E0AD4
:10481000F5E7000020000020540000205800002090
:10482000E4FF01208802002088010020D8FF012039
:10483000C8FF012088030020FCFF0120DCFF0120CD
:10484000C00000205E48000000000565696E743FEE
:1048500047F8046DEFF31086013EB64170476E488D
:10486000000020000465696E740062B670477E48DF
:10487000000020000464696E740072B670479448AA
:104880000000200004697073720047F8046DEFF3B4
:1048900005867047A04800000000036E6F707047E7
:1048A000E2480000000009756E68616E646C656422
:1048B00000B5FDF7ADFF14556E68616E646C6564FC
:1048C00020496E74657272757074200047F8046D2B
:1048D000EFF30586FEF704F8FDF79AFF02210A00C0
:1048E00000BDF44800000000057265736574C3489C
:1048F000C34901601E49000081000B6972712D736C
:1049000079737469636B47F8046DBE4E7047B048A5
:1049100000004FF6C470C2F20100006887464649A5
:1049200000008100096972712D6661756C7447F829
:10493000046DB54E7047B04800004FF6C070C2F22B
:104940000100006887467449000081000E69727199
:104950002D636F6C6C656374696F6E0047F8046D4E
:10496000AA4E7047B04800004FF6BC70C2F201007A
:10497000006887469C4900008100096972712D65B5
:104980007874693047F8046DA14E7047B048000054
:104990004FF6B870C2F2010000688746C4490000B3
:1049A0008100096972712D657874693147F8046D69
:1049B000984E7047B04800004FF6B470C2F2010044
:1049C00000688746EC4900008100096972712D6515
:1049D0007874693247F8046D8F4E7047B048000014
:1049E0004FF6B070C2F2010000688746144A00001A
:1049F0008100096972712D657874693347F8046D17
:104A0000864E7047B04800004FF6AC70C2F201000D
:104A1000006887463C4A00008100096972712D6573
:104A20007874693447F8046D7D4E7047B0480000D3
:104A30004FF6A870C2F2010000688746624A000083
:104A40008100076972712D61646347F8046D754ECA
:104A50007047B04800004FF6A470C2F20100006831
:104A600087468A4A00008100086972712D74696D59
:104A7000320047F8046D6C4E7047B04800004FF6A6
:104A8000A070C2F2010000688746B24A00008100AF
:104A9000086972712D74696D330047F8046D634EB7
:104AA0007047B04800004FF69C70C2F201000068E9
:104AB0008746DA4A00008100086972712D74696DB9
:104AC000340047F8046D5A4E7047B04800004FF666
:104AD0009870C2F201000068874600800000FFFF66
:104AE000182D2D2D20466C6173682044696374690C
:104AF0006F6E617279202D2D2D00FDF711FD4D484F
:104B000085464D4F2A2647F8046D4C4E4C4DB188D2
:104B10004FF6FF73994220D04FF480730B400AD0B8
:104B2000B01DFEF7A8FEFEF7C9F90388408800040F
:104B30000343ED1A11E080230B400ED00907890EC4
:104B40006D1AB01DFEF797FEFEF7B8F90C3FBE6078
:104B500078603D600E00FCF777FEFEF757FE3000F0
:104B600040CFD4D03748066040CF374805604FF477
:104B700000204FF400414FF6FF72884204D0023803
:104B800003889342F9D0023030490860FDF740FEB7
:104B90003A4D6563726973702D5374656C6C617204
:104BA000697320524120332E302E3020666F7220E0
:104BB00053544D333246343131206279204D617483
:104BC0007468696173204B6F63680A004FF000508E
:104BD00000210160FBF7C7FB083F7E601C4E3E6072
:104BE0000426FEF756FE40CF002E02D0FEF702FA52
:104BF00002E640CFECE5696E697400000CED00E060
:104C00000400FA05C4FF0120C0FF0120BCFF012001
:104C1000B8FF0120B4FF0120B0FF0120ACFF01204C
:104C2000A8FF0120A4FF0120A0FF01209CFF01207C
:104C300098FF0120880300208802002088010000DE
:104C400000000220140000201C00002010000020A2
:044C5000F64B00001F
:0400000508000000EF
:00000001FF
