:020000040800F2
:10000000840300204B4B00008B4900008B4900000B
:100010008B4900008B4900008B4900000000000064
:10002000000000000000000000000000B9490000CE
:10003000B949000000000000B94900006349000010
:10004000B9490000B9490000B9490000B9490000A8
:10005000B9490000B9490000E1490000094A00001F
:10006000314A0000594A0000814A0000B9490000A5
:10007000B9490000B9490000B9490000B949000078
:10008000B9490000B9490000A74A0000B949000079
:10009000B9490000B9490000B9490000B949000058
:1000A000B9490000B9490000B9490000B949000048
:1000B000CF4A0000F74A00001F4B0000B94900007A
:1000C000B9490000B9490000B9490000B949000028
:1000D000B9490000B9490000B9490000B949000018
:1000E000B9490000B9490000B9490000B949000008
:1000F000B9490000B9490000B9490000B9490000F8
:10010000B9490000B9490000B9490000B9490000E7
:10011000B9490000B9490000B9490000B9490000D7
:10012000B9490000B9490000B9490000B9490000C7
:10013000B9490000B9490000B9490000B9490000B7
:10014000B9490000B9490000B9490000B9490000A7
:10015000B9490000B9490000B9490000B949000097
:10016000B9490000B9490000B9490000B949000087
:10017000B9490000B9490000B9490000B949000077
:10018000B9490000B9490000C4050000FFFF222D55
:100190002D2D204D6563726973702D5374656C6CE1
:1001A0006172697320524120322E362E31202D2D5E
:1001B0002D0007B59048002B09D000F03DF800F065
:1001C00043F800F028F8426028210160F3E707BDFA
:1001D00000B5894800230168282905D1426800F04C
:1001E00004F800F04EF8F6E700BD03B547F8046DDB
:1001F000160047F8046D1E0008B400F09FFF08BC0D
:10020000013347F8046D7D4E47F8046D40F26126D6
:1002100004F0F0F903BD03B5013B47F8046D1E007F
:1002200008B400F075FF08BC320047F8046D4FF4C5
:10023000005604F0DFF903BD03B5714801681E29BB
:1002400001D000F034F803BD816901620169816168
:100250008168016101688160C16941624169C16170
:10026000C16841614168C1601E21016070470FB5DE
:10027000614801681E2903D0FFF7DEFFFFF7E4FFA6
:100280000FBD02B581680160C168416000E002B540
:10029000016981604169C16081690161C169416130
:1002A000016A8161416AC1611E21016202BD08B516
:1002B00001681E220260082901D20B0004E02829EF
:1002C00009D1436800F05BF847F8046D4D4E56EADB
:1002D000033603F049F808BD00B500F009F800F056
:1002E0000CF800F00FF800F012F800F015F800BD5F
:1002F0000FB54348FFF7DBFF0FBD0FB54248FFF7CF
:10030000D6FF0FBD0FB54148FFF7D1FF0FBD0FB5A9
:100310003F48FFF7CCFF0FBD0FB5374801680622F5
:1003200002601E2906D147F8046D4CF6407602F0B3
:10033000EBFF15E0282909D1436847F8046D1E003A
:1003400047F8046D062602F079FC09E0062907D07B
:1003500047F8046D44F20666C9000E4302F0D4FF6C
:1003600000F001F80FBD24481E2101628161016186
:100370008160C1620621016000218162704707B57A
:1003800047F8046D1E0000F045F847F8046D1E00A4
:1003900002F054FC07BD07B5C16A282904D1016BDE
:1003A000994201D1002307BD0168002918D0816856
:1003B000002915D00169002912D0816900290FD0C8
:1003C000016A00290CD0036347F8046D1E0047F84A
:1003D000046D002602F032FC2821C162002307BD13
:1003E00047F8046D1E0000F015F847F8046D1E0074
:1003F00002F024FC07BD000020000020C40E000015
:1004000040000020040D47F8380000203000002094
:100410002800002037B5364801688268036984697E
:10042000056A062000F00EF8032000F00BF8022009
:1004300000F008F8012000F005F800232C481E21E8
:10044000C16237BD814209D0824207D0834205D0C4
:10045000844203D0854201D0030037BD704747F87E
:10046000046D4CF6007600B581581E2905D1FFF7C2
:10047000D1FF8350012199400E4300BD00B50168B2
:100480001E2904D10022FFF7EAFF02F03DFF00BD64
:1004900000B581681E2907D10822FFF7E0FF00227E
:1004A000FFF7E1FF02F030FF00BD00B501691E2932
:1004B0000AD11022FFF7D3FF0822FFF7D4FF002252
:1004C000FFF7D1FF02F020FF00BD00B581691E29B2
:1004D0000DD11822FFF7C3FF1022FFF7C4FF082237
:1004E000FFF7C1FF0022FFF7BEFF02F00DFF00BDC6
:1004F0002000002000B50168282904D14368FFF7D7
:100500003EFF0360190000BD00B58168282904D1B1
:10051000C368FFF734FF8360190000BD00B50169AF
:10052000282904D14369FFF72AFF0361190000BDA0
:100530003EB5826803698469056A9A4203D0A24283
:1005400001D0AA420AD1072A08D847F8046DD6007C
:10055000FFF760FF1E43836002F0D6FE3EBD3EB54E
:100560000168826803698469056A914206D09942EC
:1005700004D0A14202D0A94200D03EBD47F8046D8C
:10058000CE00FFF747FF1E43036002F0BDFE3EBDF5
:1005900000B5FFF776FEFFF76AFEFFF73BFF03604B
:1005A00000BD01B506480368013308D00023DB43D2
:1005B000036047F8046D4BF2005602F0A5FE01BD42
:1005C000D8FF0120E8050000420204326475700083
:1005D000386847F8046D043F3860704700B500F094
:1005E000C3FC00F0C1FC00BD06060000620205323B
:1005F00064726F70043740CF704700B500F064FC40
:1006000000F062FC00BD4C06000044020532737726
:10061000617007CF043F386047F8046D043F3A60CB
:100620000E00704700B5FFF750FF026803690360D2
:100630000261426843694360426182688369836002
:100640008261C268C369C360C26100BD74060000F4
:10065000620204326E69700007CF043F3860704751
:1006600000B5FFF732FFFFF7DDFFFFF70AFEFFF7E8
:1006700008FE00BD8E060000440005326F766572EC
:10068000B86847F8046D043F3860FE687047B206EA
:100690000000440005327475636B07CF043F386077
:1006A00047F8046D043F3A60043F3960043F386006
:1006B0007047D406000046000432726F7400386838
:1006C000B9683A69B86039613A6079687E60FE68F5
:1006D000F9607047F6060000460005322D726F740F
:1006E0003868B9683A6938613960BA60F968FE609B
:1006F0007E68796070471E070000200203323E7258
:1007000001CF01B440B440CF704700B5FFF749FFB7
:1007100000F0FDFB00F09DFC00F09BFC00BD4A07D3
:10072000000020020332723E47F8046D40BC01BC59
:10073000043F3860704700B5FFF733FF00F0A5FCB9
:1007400000F0A3FC00F0E3FB00BD7A0700002002EC
:100750000332724047F8046D019E47F8046D009E15
:10076000704700B5FFF71DFF47F8046D49F6010615
:1007700003F0FBFA03F0F5FA00BDA0070000200229
:1007800006327264726F700002B0704700B5FFF7F6
:1007900008FF47F8046D4BF2020602F0B5FD00BDFC
:1007A000B807000042000364322F3868F107761062
:1007B0004008084338607047CE07000062020364B7
:1007C000322A3868001876413860704717E0E80729
:1007D000000042000464736872003868F10776080C
:1007E000400808433860704734080000620204641F
:1007F00073686C003868001876413860704700B53F
:10080000FFF746FEFFF776FEFFF7A9FE00F07FFB3D
:10081000FFF770FEFFF7A3FE47F8046D402601F0D6
:10082000BBFC00F074FB47F8046D44F2401601F085
:10083000B3FC00BD4608000042000464616273001E
:10084000002E07D4704764080000420007646E65FC
:100850006761746538680021C043F64301304E413A
:1008600038607047B4080000640202642D0007CFAE
:10087000121AB1410E00043F3A60704700B5FFF70D
:1008800024FE00F099FBFFF735FEFFF768FE00F04D
:100890003EFBFFF72FFEFFF762FEFFF7C3FE01F0FE
:1008A000E5FB00F0A5FB47F8046D44F2801600F06C
:1008B0004EFD00BD02090000640202642B0007CF58
:1008C00012184E41043F3A60704700B5FFF7FDFD36
:1008D00000F072FBFFF70EFEFFF741FE00F017FB82
:1008E000FFF708FEFFF73BFEFFF79CFE01F0A3FBBE
:1008F00000F07EFB47F8046D44F2401600F02BFD3B
:1009000000BD2C090000610203733E6447F8046DCA
:10091000F617704700B500F0C5FAFFF720FE47F85C
:10092000046D41F2C07601F037FC00BD8A09000079
:10093000620203756D2A3868A0FB060638607047AE
:1009400047F8046DDFF8006500B5FFF7A1FDFFF77C
:10095000D1FDFFF7D9FD01680E43816856EA0146D3
:10096000FFF78FFCFFF78DFCFFF781FCFFF752FDCF
:10097000036056EA0336FFF77AFCFFF74BFD03608E
:1009800056EA032602F0F0FC00BDA809000062024E
:10099000026D2A00386880FB06063860704747F809
:1009A000046DDFF8A864CFE7E60900004400037592
:1009B000642A07CF564341437618010C130C594360
:1009C0007618010C80B292B2514343435043002247
:1009D000C91852411204B6180A04090C80184E4175
:1009E000043F38607047780A000044000475646D65
:1009F0002A0010B5002447F8046D7E6847F8046D9E
:100A00003E69FFF798FF310040CF300040CF47F8F4
:100A1000046D3E6847F8046DFE6803B4FFF78BFF72
:100A200003BC330040CF320040CF47F8046D3E682E
:100A300047F8046D3E690FB4FFF77DFF0FBC9219B4
:100A4000634140CF89196241634140CF47F8046D4B
:100A50007E6847F8046DFE680FB4FFF76CFF0FBCAB
:100A60009219634140CF89196241634140CF1E0012
:100A70003A607960B86010BD9A0A00004300022A0B
:100A80002F0000B540B440CFFFF784FF47F8046D56
:100A900040BC00F04CF8043700BDBC0A0000430025
:100AA000052A2F6D6F6400B540B440CFFFF772FF89
:100AB00047F8046D40BC00F03AF800BDDE0A0000C3
:100AC000430003752A2F00B540B440CFFFF733FF32
:100AD00047F8046D40BC00F01BF8043700BD020B62
:100AE0000000430006752A2F6D6F640000B540B406
:100AF00040CFFFF720FF47F8046D40BC00F008F836
:100B000000BD220B0000430006756D2F6D6F640061
:100B100000B547F8046D002600F019F840CF0437FF
:100B200000BD400B00004300056D2F6D6F6400B5E4
:100B300047F8046DF61700F032F840CF043700BDD7
:100B4000920B000044000675642F6D6F640030B492
:100B5000002300227968B86835003C6840264000D0
:100B6000494152415B41AB4202D804D3A24202D375
:100B7000121BAB410130013EF1D10E0038607B60A9
:100B8000BA6030BC704730B400237A68B96800207E
:100B9000E2E7080C0000440005642F6D6F6400B5A7
:100BA000F01719D0FFF756FEFFF733FDF0170CD002
:100BB000FFF750FEFFF72DFDFFF7C9FFFFF729FDF7
:100BC000FFF748FEFFF725FD00BDFFF722FDFFF709
:100BD000BEFFFFF73FFE00BDFFF71BFDF0170ED075
:100BE000FFF738FEFFF715FDFFF7B1FFFFF732FE05
:100BF000FFF70FFDFFF72EFEFFF70BFD00BDFFF720
:100C000008FDFFF7A4FF00BD1E0C000044000264B5
:100C10002F0000B5FFF7C3FFFFF71EFD00BD660CF8
:100C20000000440002662A0000B5F0170DD0FFF75F
:100C300011FEFFF7EEFCF0170DD0FFF70BFEFFF7EC
:100C4000D8FE40CF01CF386000BDFFF7E2FCF017BF
:100C5000F5D0FFF7FFFDFFF7CCFE40CF01CF3860A6
:100C6000FFF7F8FD00BDB20C0000440002662F0043
:100C700000B5F0170ED0FFF7EDFDFFF7CAFCF01737
:100C80000ED0FFF7E7FDFFF7C4FCFFF77CFFFFF78F
:100C9000E3FC00BDFFF7BDFCF017F4D0FFF7DAFD71
:100CA000FFF7B7FCFFF76FFFFFF7D4FDFFF7D4FCAA
:100CB00000BDFA0C000020020232210006CF316094
:100CC000726040CF704700B5FFF7EFFB01684268E4
:100CD00006B400F00AFEFFF7CAFA06BC0160282934
:100CE00006D047F8046D46F2400600F002FE00BD53
:100CF0000432426000F0F9FD00BD440D0000200206
:100D000002324000043F706838603668704700B5B2
:100D100000F0C8F8016828290AD047F8046D46F6A3
:100D2000400600F0C3FD00F0F2F800F0BBFD00BD8E
:100D300041680431416000F0B5FD00F0E8F800F0D2
:100D4000B1FD00BD580D000044000364753C07CFA1
:100D5000121AB141B64170476C0D000044000364A3
:100D6000753E07CF801A8E41B6417047820D000054
:100D7000440002643C0007CF121AB1410CDB00268C
:100D800070479E0D0000440002643E0007CF801AA9
:100D90008E4101DB002670470026F6437047BA0DEE
:100DA000000062020364303C0437F617704700B558
:100DB00000F0C0F800F058FB00BDE20D0000620238
:100DC0000364303D01CF0643013EB641704700B594
:100DD00047F8046D44F2003600F0BDFA00F01EFB47
:100DE00000BD080E0000440203643C3E07CF5040A3
:100DF0004E400643013EB641F643704700B500F051
:100E000015F800F01FFB00BD500E00004402026404
:100E10003D0007CF50404E400643013EB64170476B
:100E200000B500F003F800F0F9FA00BD00B5FFF7D7
:100E30004CFB00F0C1F800F0C3F900F0D9F800F065
:100E4000BFF900F0B0F900BD0000A0FB000080FB7E
:100E5000620E000020000373704047F8046D3E00EE
:100E60007047720E0000200003737021370040CFDE
:100E70007047840E000020000372704047F8046D34
:100E80006E467047940E0000200003727021B54634
:100E900040CF7047B80E000061020364757047F8D8
:100EA000046D704706B5FFF7E9FA01684268FFF77D
:100EB000DEF90160426006BDE40E000061020464D8
:100EC000726F700040CF704700B501681E2906D1CF
:100ED00047F8046D43F2047602F016FA00BDFFF7FE
:100EE000D0F900BDFA0E00006100043F6475700087
:100EF000002E01D047F8046D7047260F00006202F3
:100F000004737761700039683E600E0070470CB55D
:100F1000FFF7BEFA02688368036082604268C368B4
:100F20004360C2600CBD540F00006202036E697022
:100F30000437704700B5FFF7A1FA81681E2902D077
:100F4000FFF7A5F900BD47F8046D43F2047602F0FF
:100F5000DBF900BD7C0F00006202046F7665720051
:100F600047F8046D7E68704700B5FFF791FA816815
:100F7000C268FFF77CF90160426000BDA20F00006B
:100F80006202047475636B0001CF083F7E603860B5
:100F9000704700B5FFF77CFAFFF784FF00F028F8F0
:100FA00000BDD80F0000630203726F7403CF083FC7
:100FB00078603E600E0070470EB5FFF776FA016864
:100FC000826803698160026103604168C2684369A5
:100FD000C160426143600EBDFC0F00006302042D3E
:100FE000726F740003CF083F7E603960060070475F
:100FF00000B5FFF7E1FFFFF7DFFF00BD0E100000B7
:101000002000047069636B0057F826607047261053
:10101000000000000564657074684F49C91B47F8FB
:10102000046D8E1070474210000000000672646567
:101030007074680047F8046D6E464849891B8E102D
:101040007047781000002002023E720040B440CF8A
:10105000704700B5FFF7A5FAFFF710FAFFF74AFA55
:1010600047F8046D4BF2004601228A40164302F015
:101070004BF9FFF706F900BDAE1000002002027226
:101080003E0047F8046D40BC704700B5FFF789FA91
:10109000FFF7EDF8FFF7BEF9036047F8046D4BF674
:1010A000004601229A40164302F02EF900BDCC10F2
:1010B000000020020272400047F8046D009E704755
:1010C00000B5FFF76EFA02F04CFE00BDF010000014
:1010D0002002057264726F7001B0704700B5FFF7AF
:1010E00060FA47F8046D4BF2010602F00DF900BDFD
:1010F00004110000200005727069636BB6006E4435
:101100003668704730110000000004726F6C6C008C
:10111000002E01D140CF7047B0003958C019031FCD
:101120001A6802600438013EF9D104370E00704796
:10113000601100000000052D726F6C6C002E01D153
:1011400040CF7047386839464A680A600431013E2A
:10115000FAD1086040CF7047840200208403002049
:101160007A110000620203616E6401CF064070478D
:1011700047F8046D44F20006EDE0961100006202AB
:101180000362696301CFB0430600704747F8046DFE
:1011900044F28036DBE0B01100006202026F7200A0
:1011A00001CF0643704747F8046D44F20036D2E0A1
:1011B000CA110000620203786F7201CF4640704787
:1011C00047F8046D44F24006C5E0E21100006202F7
:1011D000012A01CF4643704747F8046D44F2403678
:1011E000B9E016120000610203636C7AB6FA86F663
:1011F000704700B5FFF742F947F8046D7E4EFFF7E0
:1012000079F90E4356EA0146FFF7C2F956EA03267A
:1012100002F0AAF800BD34120000611803726F7268
:101220000120C6417047020001000000002060124A
:101230000000620252120000611803726F6C1F20DE
:10124000C641704702001F0000000020601200002D
:1012500062027212000062020772726F746174653A
:1012600001CFF0410600704747F8046D44F2C01604
:101270006DE0AA1200006202076172736869667409
:1012800001CF30410600704700B547F8046D44F2C5
:10129000001647F8046D41F20006FFF7F9F84168BF
:1012A0001F292AD91F21416027E0D41200006202C1
:1012B000067273686966740001CFF04006007047DB
:1012C00000B547F8046D44F2C00647F8046D40F6D7
:1012D000000612E00C1400006202066C7368696676
:1012E000740001CFB0400600704700B547F8046DA8
:1012F00044F2800647F8046D0026FFF7C9F801683C
:10130000282903D040CF00F022F800BD04374168FF
:10131000FEF7B7FF002901D140CF00BD1F290AD831
:1013200089010E430268D2001643FFF731F91E43CC
:1013300001F0EAFF00BD40CFFFF72AF947F8046D3E
:1013400042F200061B021E4301F0DEFF00BD0FB596
:10135000FFF79EF80CE00FB5FFF79AF80168062931
:1013600001D1FFF7D4FD8268282A01D1FFF7CFFD14
:10137000FFF7CAF8016828291ED147F8046D4668AE
:1013800001F0A8FB02CF002E40CF15D0B6F5804F5C
:1013900001D11A4E1EE044F24002964201D1184E8D
:1013A00018E0B6F5864F01D1164E13E04FF4874290
:1013B000964201D1144E0DE0FFF7BAF8FFF79AF804
:1013C000C90082680E43164301F09EFFFEF759FFE5
:1013D0000FBD0FB50E43816856EA0146FEF751FF77
:1013E000FEF74FFFFEF743FFFFF714F8036056EADE
:1013F000032601F0B9FF0FBD80F0B0FA000010F035
:10140000000090F0000050F0000030F032140000B6
:10141000610202303D00013EB641704700B500F068
:10142000FAF800F076FEFEF72CFF4FF4524181628D
:1014300000BD5A140000610203303C3E013EB6413B
:10144000F643704700B500F0E6F800F062FEFEF7E4
:1014500018FF4FF45341816200BD82140000610205
:1014600002303C00F617704700B500F0D4F847F89A
:10147000046D41F2C07600F08FFE4FF45541816259
:1014800000BD98140000600004747275650047F890
:10149000046D0026F6437047AC140000600005663A
:1014A000616C736547F8046D00267047D214000024
:1014B0004202023E3D0001CFB042EADA0026704708
:1014C00047F8046D4DF6003647F8046D4DF60026DA
:1014D000ADE0F81400004202023C3D0001CFB042F2
:1014E000D7DD0026704747F8046D4DF6004647F8F3
:1014F000046D4DF600569AE01C1500004202013CB6
:1015000001CFB042C5DB0026704747F8046D4DF6A9
:10151000002647F8046D4DF6003688E040150000BF
:101520004202013E01CFB042B3DC0026704747F8CB
:10153000046D4DF6005647F8046D4DF6004676E012
:1015400066150000620203753E3D01CF861BB64161
:10155000F643704747F8046D4DF2003647F8046DC6
:101560004DF2002663E08C150000620203753C3DDD
:1015700001CF361AB641F643704747F8046D4DF671
:10158000000647F8046D4DF6001650E0B015000057
:10159000620202753C0001CF861BB641704747F8D6
:1015A000046D4DF2002647F8046D4DF200363EE022
:1015B000D4150000620202753E0001CF361AB64112
:1015C000704747F8046D4DF6001647F8046D4DF668
:1015D00000062CE0F61500006202023C3E0001CF3E
:1015E000811B361A0E43704747F8046D4DF2000612
:1015F00047F8046D1BE0581700006202013D01CF5F
:10160000361A013EB641704747F8046D4DF2001698
:1016100047F8046D0BE000B5FEF730FFFEF768FEFB
:10162000FEF76BFEFEF76EFEFEF76EFF00BD00B527
:10163000FEF72EFFFEF75CFEFEF75FFEFEF76EFF85
:101640008268282A05D1FFF762FC39683E600E46A1
:10165000826840CF016828291DD14168FF2907D839
:1016600047F8046D42F600060E43816809021AE04D
:1016700047F8046D466801F02DFA02CF002E40CFE6
:1016800009D047F8046D6A4E0E43816856EA014658
:1016900001F06AFE0AE0FEF72DFF47F8046D44F200
:1016A0008026C90016430E4301F02EFEFEF7E9FD29
:1016B000FEF7E7FD866240CF00BD0FB55D48816A49
:1016C000002935D047F8046D866A00218162310A0D
:1016D000D52901D140CF0FBDFEF7C9FDFEF79AFE17
:1016E0000360D22904D14FF4834600F055FD0FBDAD
:1016F000D32906D14FF4834600F04EFD00F05FFD84
:101700000FBD023601F000FE47F8046D42F20006FC
:1017100000F00FF800F053FD47F8046D4EF200069C
:1017200001F0F2FD47F8046D42F2000600F001F806
:101730000FBD00B5FEF7A2FEFEF711FF016809021A
:101740000E4301F0E1FD00BD00B5816A090AD5290B
:1017500001D1FEF796FD00BD761700006202036D11
:10176000696E01CFB04200DC0600704747F8046D97
:101770004DF600362DE0941700006202036D61788B
:1017800001CFB04200DB0600704747F8046D4DF60C
:1017900000461EE0B4170000620204756D61780017
:1017A00001CFB04200D30600704747F8046D4DF6F4
:1017B00000060EE038180000620204756D696E00C4
:1017C00001CFB04200D80600704747F8046D4DF2D3
:1017D000003600B5FEF75CFE01688268914203D1D5
:1017E00040CFFEF754FD00BD062A01D1FFF78FFB65
:1017F0000168282901D1FFF78AFBFEF7B0FEFEF74A
:1018000083FEC900026847F8046D44F280260E4347
:10181000164301F079FD01F077FD47F8046D44F2BD
:1018200000660E43164301F06FFDFEF730FD00BD6C
:10183000000FB0F120000020761800000000046DB9
:101840006F76650007B5310040CF320040CF0029E8
:101850000FD0B2420DD006D3013E013A705C505415
:101860000139FBD105E030781070013601320139C1
:10187000F9D140CF07BD9818000000000466696CDC
:101880006C00300040CF310040CF002902D0013938
:101890007054FCD140CF7047DA180000200201409C
:1018A0003668704747F8046D46F6000600B5FEF747
:1018B000E5FD0368282B08D143687C211940090104
:1018C0000E437C218B43FEF766FDDB001E43FEF7D3
:1018D0005FFE1E4301F018FD00BD3219000020021A
:1018E000012103CF30600E00704747F8046D46F2C7
:1018F000000600B5FEF7CCFD0368282B09D143682C
:101900007C21194009010E437C218B43FEF743FDE6
:101910000360DB001E438368282B02D1C368FEF7F7
:101920002EFD1E4301F0F0FCFEF7ABFCFEF7A9FC18
:1019300000BD681900002002022B210003CF32688D
:10194000121832600E00704700B5FEF7A1FDFFF7D8
:10195000A9FAFFF7A7FFFFF72FFB00F06CFBFFF7DB
:10196000D6FAFFF7C2FF00BDAC19000020020268E2
:1019700040003688704700B5FEF780FD47F8046DDB
:1019800048F600060368282B08D143683E21194019
:1019900049010E433E218B43FEF7FDFCDB001E4355
:1019A000FEF7F6FD1E4301F0AFFC00BD061A000075
:1019B00020020268210003CF30800E00704700B57E
:1019C000FEF766FD47F8046D48F200060368282B11
:1019D00009D143683E21194049010E433E218B4302
:1019E000FEF7D9FC0360DB001E438368282B02D17D
:1019F000C368FEF7C4FC1E4301F086FCFEF741FC01
:101A0000FEF73FFC00BD3C1A0000200203682B21BA
:101A100003CF3288121832800E00704700B5FEF7EF
:101A200037FDFFF73FFAFFF7A6FFFFF7C5FA00F013
:101A300002FBFFF76CFAFFF7C2FF00BD801A00003F
:101A40002002026340003678704700B5FEF716FDAD
:101A500047F8046D47F600060368282B08D1436851
:101A60001F21194089010E431F218B43FEF793FC70
:101A7000DB001E43FEF78CFD1E4301F045FC00BD5C
:101A8000DA1A000020020263210003CF30700E003A
:101A9000704700B5FEF7FCFC47F8046D47F20006FE
:101AA0000368282B09D143681F21194089010E437F
:101AB0001F218B43FEF76FFC0360DB001E4383682E
:101AC000282B02D1C368FEF75AFC1E4301F01CFC10
:101AD000FEF7D7FBFEF7D5FB00BD101B0000200270
:101AE00003632B2103CF3278121832700E00704737
:101AF00000B5FEF7CDFCFFF7D5F9FFF7A6FFFFF71E
:101B00005BFA00F098FAFFF702FAFFF7C2FF00BD98
:101B1000341B0000200204626973210003CF326885
:101B2000024332600E00704700B547F8046D44F27E
:101B3000003630E0741B000020020462696321005B
:101B400003CF3268824332600E00704700B5FEF763
:101B50009FFCFFF7A7F9FFF7A5FEFFF72DFA47F85F
:101B6000046D44F28036FFF7F2FBFFF7D0F9FFF780
:101B7000BCFE00BDB41B0000200204786F7221007F
:101B800003CF3268424032600E00704700B547F81C
:101B9000046D44F24006FEF77BFCFFF783F9FFF784
:101BA00081FEFFF709FAFFF7D6FBFFF7B0F9FFF761
:101BB0009CFE00BDEA1B0000200204626974400024
:101BC00001CF3668064018BF4FF0FF36704700B5AA
:101BD000FEF75EFCFFF766FE47F8046D44F2000670
:101BE000FFF7B9FBFFF72EFC00BD0E1C0000200222
:101BF00005686269732103CF3288024332800E0088
:101C0000704700B547F8046D44F2003630E04E1CD2
:101C10000000200205686269632103CF3288824395
:101C200032800E00704700B5FEF732FCFFF73AF93C
:101C3000FFF7A1FEFFF7C0F947F8046D44F28036C4
:101C4000FFF785FBFFF763F9FFF7B9FE00BD8E1CB8
:101C5000000020020568786F722103CF328842406D
:101C600032800E00704700B547F8046D44F240061C
:101C7000FEF70EFCFFF716F9FFF77DFEFFF79CF964
:101C8000FFF769FBFFF743F9FFF799FE00BDB41CAE
:101C90000000200205686269744001CF3688064062
:101CA00018BF4FF0FF36704700B5FEF7F1FBFFF7A6
:101CB00062FE91E7D81C000020020563626973216F
:101CC00003CF3278024332700E00704700B547F8F8
:101CD000046D44F2003630E0181D00002002056358
:101CE0006269632103CF3278824332700E007047FD
:101CF00000B5FEF7CDFBFFF7D5F8FFF7A6FEFFF71F
:101D00005BF947F8046D44F28036FFF720FBFFF7DC
:101D1000FEF8FFF7BEFE00BD581D0000200205635F
:101D2000786F722103CF3278424032700E007047D4
:101D300000B547F8046D44F24006FEF7A9FBFFF733
:101D4000B1F8FFF782FEFFF737F9FFF704FBFFF763
:101D5000DEF8FFF79EFE00BD7E1D00002002056339
:101D60006269744001CF3678064018BF4FF0FF36E5
:101D7000704700B5FEF78CFBFFF767FE2CE71C1ED3
:101D8000000000000768666C61736821300040CF76
:101D9000310040CF4FF40043984225D34FF4002345
:101DA000984221D24FF6FF73194099421BD010F090
:101DB0000102002A18D102889A4215D110F1006060
:101DC000874A884B1360884B1360884A40F201139E
:101DD00013600180864A136813F48033FBD1834A71
:101DE0004FF000431360704700F010FD2A57726FE8
:101DF0006E672061646472657373206F7220646122
:101E0000746120666F722077726974696E672066EC
:101E10006C61736820210A0002F002BD7C1E000084
:101E200000000763666C61736821300040CF3100A9
:101E300040CF4FF400439842D6D34FF4002398424A
:101E4000D2D211F0FF01FF2917D00278FF2ACBD19F
:101E500010F10060624A634B1360634B1360634A86
:101E60004FF0010313600170614A136813F480336B
:101E7000FBD15E4A4FF0004313607047F41E000030
:101E80000000106572617365666C617368736563E9
:101E9000746F720000B5022E2AD3082E28D2504A41
:101EA000504B1360504B136000F0B0FC0D45726155
:101EB000736520736563746F722047F8046D02F0D8
:101EC00000FB4A4A4B4BF60033431360484A136801
:101ED00013F48033FBD1454A4FF00043136000F008
:101EE00095FC0C66726F6D20466C6173682E0A005B
:101EF00040CF00BD2820000000000A6572617365B4
:101F0000666C6173680072B600B53B483B49026875
:101F1000B2F1FF3F05D047F8046D0226FFF7BAFF84
:101F200002E004308842F2D3354836490268B2F103
:101F3000FF3F05D047F8046D0326FFF7ABFF02E033
:101F400004308842F2D3304830490268B2F1FF3F92
:101F500005D047F8046D0426FFF79CFF02E004302B
:101F60008842F2D32A482B490268B2F1FF3F05D0DC
:101F700047F8046D0526FFF78DFF02E00430884224
:101F8000F2D3254825490268B2F1FF3F05D047F852
:101F9000046D0626FFF77EFF02E004308842F2D38C
:101FA0001F4820490268B2F1FF3F05D047F8046D91
:101FB0000726FFF76FFF02E004308842F2D300F0FB
:101FC00025FC1246696E69736865642E205265733C
:101FD000657420210A005DF804EB02F0B0BC00003B
:101FE000043C024023016745AB89EFCD103C024021
:101FF0000C3C02400200010000800008FFBF000806
:1020000000C00008FFFF000800000108FFFF0108F2
:1020100000000208FFFF030800000408FFFF050896
:1020200000000608FFFF07085E2000006202012B87
:1020300001CF3618704700B5FEF72AFA47F8046D4D
:1020400043F2000647F8046DC94E47F8046D41F6A7
:1020500000068168282917D1FEF759FF14E00421F2
:1020600000006202012D01CF861B704700B5FEF70C
:102070000FFA47F8046D43F6000647F8046DBD4EAD
:1020800047F8046D41F60026FEF73EFA016828295C
:1020900027D14168FF290CD840CF40CFFEF748FA3E
:1020A0000E43816809020E4301F02EF9FEF7E9F8AC
:1020B00000BD47F8046D0E0000F00CFD02CF002EAD
:1020C00040CF0ED040CF04370E43816856EA014618
:1020D000FEF7D7F8FEF75CFA56EA032601F044F95A
:1020E00000BD04370437FEF705FA89018268D20083
:1020F0000E431643FEF7C5F8FEF74AFA1E4301F0F9
:1021000003F900BD1C210000610202312D00013ED7
:10211000704747F8046D41F640663DE03421000009
:10212000610202312B000136704747F8046D41F619
:10213000404631E04C210000610202322D00023E97
:10214000704747F8046D41F6806625E06421000081
:10215000610202322B000236704747F8046D41F6E7
:10216000804619E07E21000061020563656C6C2BDE
:102170000436704747F8046D41F600560CE0B02174
:1021800000006102066E6567617465007642704703
:1021900047F8046D44F2402600B5FEF76FF9016878
:1021A000C9000E43FEF7F4F91E4301F0ADF800BD7F
:1021B000C82100006102036E6F74F643704747F850
:1021C000046D44F2C036E7E7E021000061020373CA
:1021D00068727608704747F8046D40F64006DBE702
:1021E000F021000061020373686C7600704706E01E
:1021F00006220000610202322A007600704747F88A
:10220000046D4026C8E71E22000061020563656C6C
:102210006C73B600704747F8046D8026BCE7362221
:102220000000610202322F007610704747F8046DFB
:1022300041F24006B0E7762200006102036162735A
:10224000F01736184640704700B5FEF717F947F803
:10225000046D00260168C9000E43FEF799F91E437C
:1022600001F052F847F8046D4DF2005601F04CF8B9
:10227000FFF78EFF00BD94220000420005752F6D10
:102280006F6401CF3100B0FBF6F67143401A043F92
:1022900038607047B22200004200042F6D6F640066
:1022A00001CF310090FBF6F67143401A043F3860CD
:1022B0007047C62200004200036D6F6400B5FFF74F
:1022C000EFFF40CF00BD062300006202012F01CFC7
:1022D00090FBF6F6704700B5FEF7DAF8FEF70AF95C
:1022E000FEF712F947F8046D234E01680E4381682A
:1022F00056EA0146FDF7C5FFFEF74AF956EA0326FE
:1023000001F032F800BD1A23000061000465766513
:102310006E000120304036187047322300008100E3
:1023200004626173650047F8046D144E70470A003B
:1023300000004823000000000662696E61727900A7
:102340000E480221016070475E2300000000076410
:102350006563696D616C09480A21016070478023DB
:102360000000000003686578044810210160704790
:10237000000010F10000B0F1F0F090FBFCFF012034
:102380009C230000810009686F6F6B2D656D697477
:1023900047F8046D714E704786240000B823000092
:1023A000810008686F6F6B2D6B65790047F8046DCD
:1023B0006B4E7047AC240000D623000081000A68F1
:1023C0006F6F6B2D656D69743F0047F8046D654E46
:1023D0007047D6240000F2230000810009686F6F67
:1023E0006B2D6B65793F47F8046D5F4E7047022592
:1023F00000001024000081000A686F6F6B2D70616F
:102400007573650047F8046D584E7047EE4800003C
:1024100026240000000004656D6974000FB54F4864
:1024200000F026F80FBD3A2400000000036B657928
:102430000FB54B4800F01CF80FBD4C240000000005
:1024400005656D69743F4748006887465E24000053
:102450000000046B65793F00434800688746742498
:10246000000000000570617573654048006887468C
:10247000006887469A24000000000B73657269614A
:102480006C2D656D697400B500F025F8002E40CF05
:10249000FAD0374A167040CF00BDC22400000000B9
:1024A0000A73657269616C2D6B65790000B500F087
:1024B00028F8002E40CFFAD047F8046D2C4A167841
:1024C00000BDF024000000000C73657269616C2D82
:1024D000656D69743F0000B5FFF7C7FF47F8046DED
:1024E0000026244801688020014000D0F64300BD4A
:1024F0009425000000000B73657269616C2D6B659B
:10250000793F00B5FFF7B1FF47F8046D0026194881
:1025100001682020014000D0F64300BD16499F20ED
:1025200008601649086850F0A0000860144908685F
:1025300050F040000860134920F47F4050F4EE4012
:10254000086011494FF40030086010498B20086082
:102550000F4942F20C00086070470000F8FF0120AC
:10256000F4FF0120F0FF0120ECFF0120E8FF012033
:102570000444004000440040303802400000024063
:102580000C00024020000240403802400844004055
:102590000C440040B82500000000076365787065B2
:1025A000637400B5386801B40130386000F00BF88E
:1025B00001BC067040CF00BD2E2600000000066161
:1025C00063636570740000B502CF01390022FFF724
:1025D0002FFF300040CF7F2809D0202819D20928AA
:1025E00016D00A281FD00D281DD00828EFD1002AA8
:1025F000EDD000F00BF903082008002AE7D0885C32
:10260000013A80230340E2D040230340F5D0DEE7C7
:102610002020B242DBD247F8046D0600FFF7FEFE31
:1026200001328854D3E7160000F09FF800BD402621
:10263000000040000374696247F8046D294E70473A
:10264000562600008100033E696E47F8046D264E51
:102650007047000000007C26000082000E63757247
:1026600072656E742D736F757263650047F8046D43
:102670001E4E704700000000BC000020982600009D
:10268000000009736574736F75726365174802CF34
:102690000660416040CF7047B62600000000067318
:1026A0006F757263650047F8046D104E043F7068E3
:1026B000386036687047F0260000000005717565C7
:1026C00072790FB5084800210160FFF7B5FF47F8A0
:1026D000046D47F8046DC826FFF775FFFFF7D6FFB6
:1026E0000FBD0000BC000020E4FF0120DCFF012042
:1026F00038270000000007636F6D706172650FB5C9
:10270000310040CF01CF884202CF10D1002810D035
:1027100001380A5C335C412A02D35B2A38BF20327D
:10272000412B02D35B2B38BF20339A42EED00026D8
:102730000FBD0026F6430FBD4C27000000000263CA
:10274000720000B500F062F8010A00BD5E270000CB
:10275000000002626C0047F8046D20267047722763
:102760000000000005737061636547F8046D202662
:1027700054E69227000000000673706163657300E1
:1027800000B5002E03DDFFF7F0FF013EFBD140CF87
:1027900000BDA22700005000065B636861725D0007
:1027A00005E0BA270000000004636861720000B50C
:1027B00001F0B8FC40CF367800BDCA2700005004B5
:1027C000012847F8046D292606E0E427000050049C
:1027D000015C47F8046D002600B501F0ADFC04373C
:1027E00040CF00BD282800003000022E2200AA4859
:1027F00000B547F8046D060000F07DFA47F8046D57
:10280000222601F099FC00F0BAFD00BD0AB447F899
:10281000046D7646013E33780121013319405B187F
:102820001EEB030E0ABC39E04E28000030000263A4
:1028300022009A48DCE747F8046D7646013E33787B
:102840000121013319405B181EEB030E70477828F5
:1028500000003000027322009148C9E747F8046D78
:10286000764647F8046D013E36780121731C194005
:102870005B181EEB030E70479028000000000563F4
:102880006F756E74013647F8046D013E36787047F7
:10289000A8280000000005637479706500B5FFF793
:1028A000F1FF00F007F800BDD0280000000004741C
:1028B0007970650001B501CF002E07D047F8046D8F
:1028C0000678FFF7ABFD0130013EF7D140CF01BDE7
:1028D0000A2900000000046865782E0007B5310061
:1028E00040CF20200F22043847F8046D0E00C64068
:1028F0001640092E01D9373600E03036FFF78EFD3D
:102900000028F0D1FFF731FF07BD1A2900000000B1
:1029100003682E731FB5634C0EE02A2900000000E7
:1029200003752E731FB5604C06E0CE290000000031
:10293000022E73001FB55D4C5D49C91B8908220A30
:102940002020292F200A2028273E200A202F434319
:102950002020203335204343430A385C29295F2057
:102960000A0A544A106803B40A201060FFF74EFFA9
:1029700008537461636B3A205B0047F8046D0E00E6
:1029800001F0A7FDFFF742FF025D200003BC2736E0
:10299000484A106000290AD0474A106806B447F830
:1029A000046D0600A04706BC043A0139F5D1FFF7D3
:1029B0002DFF0620544F533A200047F8046D36008F
:1029C000A047FFF723FF04202A3E0A001FBD6E2AFE
:1029D0000000000005776F72647300B5FFF716FF03
:1029E000010A00F01FFFFFF711FF094164647265DF
:1029F00073733A2047F8046DFFF770FFFFF706FF87
:102A0000064C696E6B3A200047F8046D3668FFF794
:102A100065FFFFF7FBFE07466C6167733A2047F8D6
:102A2000046DB688FFF75AFFFFF7F0FE06436F64A8
:102A3000653A2000B01D00F043FF47F8046D060022
:102A4000FFF74CFFFFF7E2FE064E616D653A20008E
:102A500047F8046D0636FFF721FFFFF7D7FE010A9E
:102A600000F0F8FE300040CFBDD040CF00BDC02AFE
:102A70000000000006756E757365640000B500F017
:102A8000F4FF0E4801684FF00052914201D24FF41A
:102A90000026761A00BD00000C2800003628000031
:102AA0005C280000DD280000C3440000D34400007F
:102AB00084020020FCFF012080020020D0FF0120C2
:102AC000242C000000000D3132626974656E636F62
:102AD00064696E670FB5FF2E04D847F8046D5FF088
:102AE000FF360FBD16F0FF10B0420ED14FF6FF714A
:102AF0000840310C814208D116F0FF0656F480568A
:102B000047F8046D5FF0FF360FBD16F0FF20B042AE
:102B10000FD14FF6FF710840310C814209D1360ABE
:102B200016F0FF0656F4005647F8046D5FF0FF36C6
:102B30000FBDFF2231001140300A1040884210D1F1
:102B4000300C104088420CD1300E1040884208D121
:102B500016F0FF0656F4405647F8046D5FF0FF3656
:102B60000FBD300000210131001850F100007FF04E
:102B70007F020240802A05D01F29F4D347F8046D54
:102B800000260FBD0829F9D3060036F0800611F0A3
:102B90000100C001064311F00E00C002064311F00F
:102BA00010008005064347F8046D5FF0FF360FBD47
:102BB00047F8046DDFF8B4655FF4704110EA010274
:102BC000120116435FF4006110EA0102D2031643BA
:102BD0005FF4E06110EA010212011643FF2110EADE
:102BE000010216431E43BFE347F8046DDFF880651A
:102BF0005FF0704110EA0102120B16435FF00061B2
:102C000010EA0102520816435FF0E06110EA010287
:102C1000120B16435FF47F0110EA0102120C1643F7
:102C20001E43A1E38A2C00000000107265676973DF
:102C30007465726C69746572616C2C000FB5330039
:102C400040CF1B02FF2E05D856F400561E4300F05D
:102C50005BFB0FBDFFF73EFF002E40CF06D0DFF835
:102C6000140506431E4300F07FFB0FBDF643FFF73C
:102C700031FF002E40CF06D0DFF8FC0406431E4390
:102C800000F072FB0FBDF6430BE0EA2C00000000E1
:102C9000096D6F76776D6F76742C0FB5330040CF6A
:102CA0001B02300040CFFFF783FF4FF6FF7110EAA1
:102CB000014001D0FFF798FF0FBD0FB5013630007E
:102CC00040CF0023FFF774FFFFF78EFF06E00FB53C
:102CD000013647F8046D0026FFF7B0FF47F8046D92
:102CE00044F2807600F010FB0FBD502D0000000074
:102CF0000563616C6C2C0FB5330000F0A7FE30004B
:102D000040CF1B1A043BDFF874141940002906D089
:102D1000DFF86C24914202D0BDE80F40D7E740CFE6
:102D20005B08DFF8600440F2FF7119400843DB0ADA
:102D300040F2FF311940090408439B0A13F00101D6
:102D40008906084347F8046D060000F00DFB0FBD2F
:102D5000862D00000000086C69746572616C2C009F
:102D600008B547F8046D4FF6470600F0CDFA47F86E
:102D7000046D46F6045600F0C7FA47F8046D0626BF
:102D8000FFF75CFF08BDAA2D000000000663726516
:102D90006174650000B500F031F842F6C750804715
:102DA00047F8046DBEF1010600BDEE2D00002000C5
:102DB00005646F65733E42F6C750804747F8046D5F
:102DC000BEF10106704747F8046DBEF10106EE4AF8
:102DD0001368EE4909680220084000D00231023130
:102DE0001160FFF76AFF136000F0E5F900BD2A2EBD
:102DF00000000000073C6275696C647300B500F068
:102E0000E5FB00F023FE0220064040CF01D000F099
:102E10006DFA47F8046D4BF2005600F075FA47F86A
:102E2000046D0A2600F0DEFA00BD362E00005000C8
:102E3000035B275D03E04E2E00000000012700B574
:102E400001F070F900F09FFD300040CF00BD842EEE
:102E50000000300008706F7374706F6E650000B50D
:102E6000FFF7EDFF47F8046D060039683E600E4637
:102E7000FFF776FFFFF774FF47F8046DC44EFFF7C6
:102E80003AFF00BDDA2E0000000007696E6C696E23
:102E9000652C00B54BF200514BF6005244F27073B2
:102EA0003088884208D0904208D0984206D047F82F
:102EB000046D060000F028FA0236F1E740CF00BDAD
:102EC0000EB44BF6005244F2707301880230914206
:102ED00001D09942F9D10EBC7047F02E00000000DD
:102EE000047265742C0047F8046D4BF600560BE233
:102EF000FE2E00003000046578697400F3E7162F99
:102F000000003000077265637572736547F8046DE1
:102F10009E4E3668EFE62E2F000081000573746127
:102F2000746547F8046D9B4E704700000000402F09
:102F300000000000015D97480021C943016070470F
:102F4000502F00001000015B924800210160704783
:102F5000702F00000000013A00B58F48076000F0B4
:102F600035FB8C48012101608C480021016000BDC7
:102F7000EC2F00003008013B00B587480168B942DA
:102F800014D087498E4202D1864EFFF787FCFFF7A7
:102F90003DFC1520537461636B206E6F7420626179
:102FA0006C616E6365642E0A01F03ABC7948006872
:102FB000411C10D00B2805D847F8046D40F62006B8
:102FC00000F02CF947F8046D44F2707600F09CF99B
:102FD00001F026FB05E047F8046D4BF6005600F0C3
:102FE00093F900F0E8F8FFF7AFFF00BD00300000F4
:102FF00000000765786563757465300040CF8746CB
:1030000018300000100009696D6D656469617465B0
:1030100047F8046D102601E12E30000050000669CB
:103020006E6C696E650047F8046D2026F6E0483046
:10303000000010000B636F6D70696C656F6E6C79CA
:1030400047F8046D3026E9E06230000050000A3095
:103050002D666F6C6461626C650047F8046D4026F4
:10306000DCE07C30000050000A312D666F6C64613A
:10307000626C650047F8046D4126CFE09630000091
:1030800050000A322D666F6C6461626C650047F80F
:10309000046D4226C2E0B030000050000A332D66B5
:1030A0006F6C6461626C650047F8046D4326B5E09F
:1030B000CA30000050000A342D666F6C6461626C87
:1030C000650047F8046D4426A8E0E4300000500095
:1030D0000A352D666F6C6461626C650047F8046D9B
:1030E00045269BE0FE30000050000A362D666F6CCE
:1030F0006461626C650047F8046D46268EE0183105
:10310000000050000A372D666F6C6461626C6500C8
:1031100047F8046D472681E048310000000008634D
:103120006F6E7374616E740000B500F04FFAFFF7B4
:1031300017FE47F8046D44F2707600F0E5F8FFF7EB
:103140008CFF00F038F800BDA83100000000093203
:10315000636F6E7374616E7400B500F037FA39688E
:103160003E600E46FFF7FCFDE1E70000000040F284
:103170000000C0F200005FF000007FF00100C0FF1F
:103180000000C0FF00F800F0D0FF01200C0000207C
:103190001A450000D8FF012008000020540000203C
:1031A000851912043E2900000C320000000006734D
:1031B0006D756467650000B5F44801684FF0005212
:1031C00091421CD202390A884FF6FF739A4205D108
:1031D00047F8046D4FF0000600F096F800F05CF838
:1031E000EB48006847F8046D0600EA4909680431B5
:1031F000E64A1368116000F087F8136000BD00F024
:103200004BF847F8046D4FF0000608E05432000018
:10321000000008736574666C6167730000B5DB4875
:1032200001684FF00052914205D2D94801683143FC
:10323000016040CF00BD320040CFD6480068043066
:1032400001884FF6FF73994201D1110000E011434C
:10325000018000BD6A320000410007616C69676E41
:10326000656403360320864370478C3200000000FB
:103270000668616C69676E00C448016801200140FE
:1032800003D047F8046D00261AE07047B6320000FC
:10329000000005616C69676E00B5FFF7EDFFBB4884
:1032A00001680220014005D047F8046D4FF0000688
:1032B00000F02AF800BDFE320000000002632C007E
:1032C00000B5B24801684FF00052914205D247F86C
:1032D000046D0E00FEF7A9FD02E0320040CF0A7037
:1032E00047F8046D012600F07DF800BD47F8046D35
:1032F000362609E047F8046D4CF6407604E0443386
:103300000000000002682C000FB5B6B2A2480168A8
:10331000002902D0013100D001609C4801684FF0C3
:103320000052914205D247F8046D0E00FEF72EFDC3
:1033300002E0320040CF0A8047F8046D022600F018
:1033400051F80FBD5E3300000000012C01B547F8B5
:10335000046DFFF7D9FF360CFFF7D6FF01BD7033C0
:1033600000000000033E3C2C01B51020C641EEE7F2
:10337000D8330000000007737472696E672C07B5BC
:10338000FF21314040CF300040CF002905D147F820
:10339000046D0026FFF7B8FF07BD47F8046D0678F7
:1033A00036020E43FFF7B0FF0130013902290AD37C
:1033B00047F8046D4678360202781643FFF7A4FFFB
:1033C00002300239F2E7002900D107BD47F8046D49
:1033D0000678FFF799FF07BD36340000000005614D
:1033E0006C6C6F74694801684FF00052914210D2C2
:1033F000320040CF89184FF40022914219D3FFF7D1
:1034000005FA0B466C6173682066756C6C0A01F0F6
:1034100007BA320040CF8918604A1268914208D337
:10342000FFF7F4F90952616D2066756C6C0A01F0C2
:10343000F7B90160704752340000810008286C61C0
:1034400074657374290047F8046D554E7047880100
:1034500000006A340000810004286470290047F8E5
:10346000046D504E7047840300208E34000000002D
:1034700009666F7267657472616D00B500F025F8BA
:1034800048484949016046484849016000BDB63492
:10349000000000000D636F6D70696C65746F726180
:1034A0006D3F47F8046D3F4800684FF00051884277
:1034B000B641F6437047D834000000000C636F6DCE
:1034C00070696C65746F72616D00364800684FF00A
:1034D0000051884212D370474A35000000000E6345
:1034E0006F6D70696C65746F666C617368002D48F0
:1034F00000684FF00051884200D2704728482C499C
:1035000002680B680A60036026482A4902680B6853
:103510000A60036021480068834215D300B5FFF7B5
:1035200075F923205661726961626C657320636F5F
:103530006C6C696465207769746820646963746978
:103540006F6E6172790A00BD704766350000000039
:103550000C61646472696E666C6173683F00134845
:103560004FF400210BE0BC35000000000A616464E8
:1035700072696E72616D3F004FF000500E498642D5
:1035800002D38E42B641704700267047D0FF01201B
:1035900018000020D4FF0120D8FF01201C000020CB
:1035A000D4FF0120D0FF0120840300208801000007
:1035B000140000201000002000000220B23600009D
:1035C00000000828637265617465290000B500F089
:1035D000A9FD002E0ED1FFF719F915204372656180
:1035E0007465206E65656473206E616D6520210AC7
:1035F00001F016B9386847F8046D043F386000F0F0
:103600006EF940CF002E40CF11D0386847F8046DD6
:10361000043F3860FFF7FAF8095265646566696E21
:103620006520FFF747F9FFF7F1F8022E2000FFF7BA
:1036300033FE924800684FF00051884220D29048F3
:103640004FF00001016000F001FA47F8046D062612
:10365000FFF7C8FEFDF7C6FCFFF791FE8948016839
:103660000A684FF0FF339A4207D1844A1368116009
:1036700047F8046DFFF76AFE1360066040CF13E061
:1036800000F0E4F97F4847F8046D0668FFF75EFE36
:1036900047F8046D4FF6FF76FFF736FE79483100A4
:1036A00040CF0160FFF76BFE744801687648016007
:1036B00000BDCA3600000000087661726961626C64
:1036C000650047F8046D012613E0E23600000000B3
:1036D00009327661726961626C6547F8046D022691
:1036E00007E0543700000000096E7661726961627C
:1036F0006C6500B5FFF76AFF604801684FF0005243
:10370000914218D20F200640B20000F04CF8300071
:1037100040CF0200002805D00E600431FFF716FEEE
:103720000138F9D147F8046D80261643FFF776FD7E
:10373000FFF741FD00BD00F050F8300040CF0028F9
:1037400003D0FFF703FE0138FBD1FFF786FCFFF73C
:1037500032FD00BD0E380000000007627566666528
:10376000723A00B5FFF732FF0120304036180220D0
:1037700030403618414801684FF0005291420DD256
:10378000320000F010F8FFF7E1FD47F8046D40F259
:103790004016FFF743FDFFF70EFD00BD00F01DF8DA
:1037A000FFF720FED1E700B538480168891A384A8A
:1037B00091420BD2FFF72AF80F4E6F7420656E6F9F
:1037C0007567682052414D0A01F02AB8016047F838
:1037D000046D0E00FFF7C4FA12E000B500F036F9F0
:1037E0000220064040CF01D1FFF780FD47F8046D6D
:1037F000284EFFF7B9FD47F8046D274EFFF7B4FDDB
:1038000047F8046D44F27076FFF77EFD00BD3E3848
:10381000000000000F64696374696F6E61727973F0
:1038200074617274154800684FF0005147F8046DD8
:10383000884201D2194E7047124E36687047A03840
:10384000000000000E64696374696F6E6172796EC6
:103850006578740003B531684FF0FF30814207D0BE
:103860008879FF2804D00E0047F8046D002603BDB8
:1038700047F8046D0026F64303BD0000D0FF012089
:1038800018000020D4FF01200C0000201C000020A4
:10389000840300203E60043F02367E46880100001B
:1038A000D238000000000A736B6970737472696E1D
:1038B00067003178013101220A4089187618704773
:1038C00006B40178013101220A408918401806BC6B
:1038D0007047E438000000000466696E64003048F8
:1038E0000068874600390000810009686F6F6B2D02
:1038F00066696E6447F8046D2A4E70470E39000001
:10390000A83900000000062866696E64290030B5F9
:103910000020002103B4350040CF340040CFFFF732
:1039200081FF4FF6FF70B18888421ED0B179A9425D
:103930001BD1F01D0139425C635C412A02D35B2A32
:1039400038BF2032412B02D35B2B38BF20339A4241
:103950000BD10029EED102B0B01DFFF7B1FFB18845
:1039600003B44FF00050864207D236684FF0FF3064
:10397000864202D0B079FF28D3D103BC060047F8B5
:10398000046D0E0030BD00B53100386803B4FFF798
:10399000A6FF03BC3A68002A01D100F0EFFE00BD8B
:1039A000CCFF0120CCFF0120063A00000000066396
:1039B0006A756D702C00320040CF310040CF8B1BF8
:1039C000043B6FF0FE01194000290ED06FF0FF009C
:1039D00081420AD0FEF71AFF0D4A756D7020746F90
:1039E0006F206661720A00F01BBF5B10FF210B4065
:1039F000134330001E0000B5CB4A13681060FFF778
:103A000083FC136000BD403A00000000056A756D3C
:103A1000702C310040CF300040CF0B1A043BC3491B
:103A20001940002902D0C24A9142D3D15B1040F222
:103A3000FF72134053F4604347F8046D1E00DAE749
:103A4000563A0000000004686572650047F8046D8E
:103A5000B54E36687047843B000000000D666C610F
:103A600073687661722D6865726547F8046DB14EB2
:103A70003668704700B547F8046D42F60066FFF7F8
:103A800043FCFFF737FC00BDE0E700B500F03AF873
:103A900039683E600E4647F8046D4DF20016FFF798
:103AA0008AFF00BD00B500F02DF839683E600E4673
:103AB00047F8046D4DF20076FFF77DFF00BD00B5BD
:103AC000FFF7D8FF00F01EF839683E600E4647F851
:103AD000046D4DF20006FFF76EFF00BD00B500F06B
:103AE00011F839683E600E46FFF793FF00BD00B540
:103AF000FFF7C0FFFFF7AAFF47F8046D0226FFF7A4
:103B000071FC00BD00B5FFF7A1FF47F8046D022668
:103B1000FFF768FC00BD00B5FFF798FFFFF779FFDE
:103B200000BD00B5FFF792FF47F8046D4DF20006A7
:103B3000FFF741FF00BD00B5FFF788FF47F8046DB0
:103B40004DF20016FFF737FF00BD00B5FCF796FCFD
:103B5000FCF7CEFBFCF7D1FBFCF7D4FB81682829EE
:103B600001D1FCF7D1FCFCF7C5FC47F8046D42F627
:103B7000000609020E43FFF7C7FBFCF782FBFCF7C8
:103B8000ABFB00BDB03B00003000047468656E0004
:103B9000052E01D140CFBEE7F1B200296DD100B5AD
:103BA000FFF754FF39683E600E46FFF704FF00BD83
:103BB000CC3B0000300004656C73650000B500F07C
:103BC00036F8FCF726FDFFF7E3FF00BD223C0000BE
:103BD00030060269660000B5FFF789FF47F8046DFB
:103BE0004DF2000600BD00B5FCF7DBFCFDF7ACFDB7
:103BF000816A002907D002B4FCF76EFBFFF782FF51
:103C000047F8046D40BDFFF7A0FFFFF71FFF47F81F
:103C1000046D0226FFF7E6FB47F8046D4DF200063F
:103C200000BD3C3C0000300005616865616400B582
:103C3000FFF768FF47F8046D052600BD563C0000FD
:103C40003000067265706561740000B500F05BF8C5
:103C5000FFF79EFF00BD9A3C0000300605776869BB
:103C60006C6500B5FFF7B7FFFCF7D3FC00BD00B5EE
:103C7000FFF7B9FFFCF7CDFC00BDFEF7C7FD1753FA
:103C800074727563747572657320646F6E27742027
:103C90006D617463680A00F0C3BDFA3C0000300631
:103CA00005756E74696C012EE7D140CF07E7704748
:103CB000012EE2D140CF00B5FDF746FD816A002913
:103CC0000DD002B4FCF708FBFFF71CFF39683E601B
:103CD0000E4647F8046D40BCFFF76DFE00BDFFF7D0
:103CE00034FFFFF70FFF39683E600E4647F8046D5A
:103CF0004DF20006FFF75FFE00BD0E3D00003000F4
:103D000005616761696E012EB7D140CFE6E6383DA7
:103D10000000300005626567696E00B5FFF7B4FE0C
:103D200047F8046D012600BDD0FF012001F8FFFF18
:103D300000F8FFFF1C000020523D00002002016B34
:103D400047F8046D029E704747F8046D49F6020675
:103D50000BE0803D00002002016A47F8046D009EE0
:103D6000704747F8046D49F6000600B5FCF77FFA86
:103D7000FCF750FB03601B021E43FFF7C5FA00BDB2
:103D8000AC3D00002002016947F8046D2600704731
:103D900000B547F8046D40F22006FCF768FAFCF71E
:103DA00039FB03601E43FFF7AFFA00BDEA3D000098
:103DB0003000056C6561766500B5754801683B00AB
:103DC000043F1A68043B1A6008338B42F9D103B4EC
:103DD000FFF798FE03BC330040CF04390B6001604D
:103DE00004390A6801320A6000BDFC3D0000200071
:103DF00006756E6C6F6F700030BC7047343E00000B
:103E00003000052B6C6F6F70032E00D035E740CF6C
:103E100000B547F8046D5F4EFFF73BF8FFF742FE31
:103E20001AE014F10044641BA41940CF2C44A4F1FF
:103E300000447047763E00003000046C6F6F7000E5
:103E4000032E00D019E740CF00B547F8046D524E5D
:103E5000FFF71FF8FFF719FE00F04AF94C48310050
:103E600040CF016047F8046D4C4EFFF712F800BDDB
:103E70000134AC427047BE3E0000300202646F0065
:103E800000B547F8046D464EFFF703F84048016857
:103E900047F8046D0E0047F8046D00260760FFF731
:103EA000F3FD47F8046D032600BD00B500F02FF8C0
:103EB000ECE730B4340040CF350040CF7047A43F2A
:103EC00000003002033F646F00B547F8046D344EC4
:103ED000FEF7DFFF47F8046D44F2AC26FFF714FA53
:103EE0002B48016847F8046D0E00FFF70BFE013602
:103EF00047F8046D012626480760FFF7C5FD47F81F
:103F0000046D032600BD00B500F001F8E2E700B53E
:103F1000FCF747FBFCF7BCFAFCF7EAF9FCF7EDF914
:103F2000FCF7F0F947F8046D4BF23046FFF7ECF977
:103F30000168282908D047F8046D40F20406C9003A
:103F40000E43FFF7E1F907E047F8046D466847F8CC
:103F5000046D0426FEF772FE8168282908D047F810
:103F6000046D40F20506C9000E43FFF7CDF907E0E6
:103F700047F8046DC66847F8046D0526FEF75EFE37
:103F8000FCF77FF9FCF77DF9FCF7C6F900BD0000EE
:103F900004000020223E0000703E0000F83D0000BA
:103FA000B23E0000C43F000030000463617365004E
:103FB00000B5FCF7F6FA47F8046D002647F8046DE3
:103FC000082600BDDA3F00003000033F6F666B48F3
:103FD00009E0013EB64140CF7047984000003002F2
:103FE000026F66006648082E00D046E640CF00B556
:103FF00047F8046D0600FEF74CFFFFF783FD3968B4
:104000003E600E46013647F8046D0926FFF772F947
:1040100000BD082E00D030E640CF00B5FCF738FADE
:10402000FCF766F9FCF769F9FCF76CF947F8046DE1
:1040300044F28026FCF768FA0E430268282A1ED153
:104040004268FF2A08D840CF47F8046D42F60006C0
:10405000164309020E4314E047F8046D4668FEF764
:1040600039FD04CF002E40CF06D0464E164356EA07
:104070000146FFF779F906E0FCF73CFA0A00D200A6
:104080001643FFF741F9FCF7FCF8FCF745F9B4E7F4
:10409000300040CFB0427047CE4000003000056590
:1040A0006E646F66092E00D0E7E540CF00B540B4DE
:1040B00040CFFFF727FD39683E600E46FFF73BFD16
:1040C00047F8046D40BC47F8046D082600BD184150
:1040D0000000300007656E6463617365082E00D0D0
:1040E000CBE540CF00B5FFF705F900F001F800BDC2
:1040F00000B5300040CF00280DD003B4012131407D
:10410000002903D0013EFFF70CFD01E0FFF703FD9E
:1041100003BC0138EFE700BD2C410000000005742E
:104120006F6B656E47F8046D202605E09041000036
:10413000000005706172736510B51348016840682E
:10414000124A12688418202E07D191420FD0835C46
:10415000B34202D101328418F7E7914207D0835C61
:104160000132B342F9D18618361B013E01E08618B0
:10417000361B043F3C600548026010BDD23F000082
:1041800090400000000FB0F1DCFF0120E4FF0120AF
:10419000CE4100000000056469676974CF4B1B685D
:1041A000303E0BD30A2E0BD3073E0A2E06D3242E05
:1041B00006D3203E0A2E01D3242E01D300267047B9
:1041C0009E42FBD247F8046D0026F6437047D84262
:1041D00000000000066E756D626572003FB531002B
:1041E00040CF701E0126012204B4BC4B1B68002482
:1041F000002500293CD00130013902782D2A04D154
:1042000001B00022D24304B4F3E7232A01D10A23E8
:10421000EFE7242A01D11023EBE7252A01D102235D
:10422000E7E72E2A01D10226E3E72C2A36D047F809
:10423000046D1600FFF7B4FF002E40CF2BD047F8D7
:10424000046D260047F8046D2E0047F8046D1E002B
:1042500047F8046D00260FB4FCF7ABFB0FBC35002C
:1042600040CF340040CF0022A419554140CFC0E7D1
:1042700004BC002A04D50022E443ED430134554137
:1042800033002600012B02D047F8046D2E0047F8BA
:10429000046D1E003FBD01B000263FBD2500002477
:1042A00002260029E4D0425C01392E2AF9D047F8D1
:1042B000046D1600FFF774FF002E40CFEBD0043FD3
:1042C0003C6047F8046D1E000FB4FCF721FC0FBCE6
:1042D000340040CF40CFE4E7FA4200000000062E51
:1042E0006469676974000A2E01D230367047242E43
:1042F00001D2373670472326704730430000000054
:1043000004686F6C6400330040CF754801783F2922
:104310000DD2013101704018012907D0013802780F
:1043200001300270013801390129F7D1037070475B
:1043300050430000000005686F6C643C330040CFC0
:10434000674801783F2902D2013101704354704718
:10435000684300000000047369676E00002E01D4FA
:1043600040CF70472D26CEE77C430000000002239B
:104370003E005B4806780130386070479443000087
:1043800000000366235310B5202400F008F8013C18
:10439000FBD110BDB643000000000266230000B54B
:1043A00047F8046D4D4E3668FCF7C5FAFFF79BFFE2
:1043B000FFF7C4FF00BDD2430000000002235300FA
:1043C00000B500F00AF8002EFBD138680028F8D1BB
:1043D00000BDFE4300000000012300B547F8046D56
:1043E0003E4E366847F8046D0026FCF7B0FBFCF73C
:1043F00010F940CFFFF777FFFFF785FF00BD1044AE
:1044000000000000023C2300354800210170704785
:1044100022440000000002662E0047F8046D2026AA
:1044200004E070440000000003662E6E00B510B476
:10443000340040CFFCF7A8FDFCF702FA47F8046D02
:104440000026FFF7E1FFFFF7BBFF40CF2C26FFF769
:1044500075FF002C03D0FFF7A2FF013CFBD110BC7D
:1044600040CFFFF77BFF47F8046D47F8046D1CE071
:104470008644000000000375642E00B5FFF7C4FFFA
:10448000FFF79EFF11E0B8440000000002642E0018
:1044900000B5FCF779FDFCF7D3F9FFF7B5FFFFF79F
:1044A0008FFFFCF783FDFFF759FFFFF762FFFEF771
:1044B00001FAFEF75AF900BDCA4400000000027577
:1044C0002E0047F8046D0026D7E7A846000000003C
:1044D000012E47F8046DF617DAE70000FCFF012013
:1044E0007C00002030B54FF000542568002D01D12C
:1044F0003D00256030BD30B54FF000543D002560D3
:1045000030BD30B54FF000540025256030BD4FF070
:1045100000531B68DB1B9B08704700B5310040CF80
:104520004FF48050084002D000F0A6F800BD4FF4D0
:104530008060084001D1FDF7C0F8320040CFFFF79E
:10454000D1FF4FF40050084003D047F8046D160027
:1045500000BDFFF7DCFF8020084006D14020084066
:1045600009D00F200840834205D347F8046D160098
:10457000FEF743FD00BD4FF40070084014D0FBF778
:1045800018FE47F8046D160047F8046D0E0000F0A1
:1045900031F81000FEF794FC421CB2489047FFF738
:1045A000AAFFFBF715FE00BDFBF703FE47F8046DFD
:1045B000160047F8046D0E0000F01CF8FBF78CFEA7
:1045C000FFF79FFF4FF40060084001D1FBF7E9FFC0
:1045D00047F8046D160010220A4002D0FEF70DFDC8
:1045E00000BD20220A4002D0FEF753FC00BDFEF7BA
:1045F00082FB00BD0FB5320040CF330040CF9A4858
:104600000168062907D206204143984840180380D4
:104610001B0C4380828094480168013101600FBD0A
:104620000FB59148016806291FD8904801391DD05F
:1046300047F8046D0E00FEF767FE47F8046D068824
:10464000FEF762FE47F8046D4688FEF75DFE47F808
:10465000046D8688FEF758FE06300139EDD147F823
:10466000046D41F20006FEF7D9FD0FBD47F8046D59
:104670004026FEF7D3FD0FBD00B5300040CFFEF75A
:104680001FFC0188023047F8046D06884288120436
:10469000164347F8046D868803B4FFF73EFF03BC5A
:1046A00006300139EFD100BDF0460000000008657A
:1046B00076616C756174650000B5FDF7F4FF01CF9C
:1046C00001B440B440CF6A48016802B400210160DF
:1046D000FDF7DCFF00F014F8654802BC016047F804
:1046E000046D40BC01BC043F3860FDF7CFFF00BD46
:1046F000F8470000000009696E7465727072657495
:1047000000B55C4887420BD9FEF780F810537461FE
:10471000636B20756E646572666C6F770A007FE06C
:10472000554887420AD2FEF771F80F537461636BE4
:10473000206F766572666C6F770A71E0FFF7D2FEC4
:10474000FFF7F0FC002E02D1043740CF00BD3868DF
:1047500047F8046D043F3860FFF7C1F8310040CFDF
:10476000320040CF002A1BD138683100FCF7A5FF8A
:10477000FFF734FD320040CF002AC2D147F8046D64
:10478000060047F8046D0E00FEF794F8FEF73EF8B9
:104790000C206E6F7420666F756E642E0A003FE009
:1047A000364B1B68002B1CD1FFF7ABFE30230B40B0
:1047B000302B0ED1FEF77EF8FEF728F81220697331
:1047C00020636F6D70696C652D6F6E6C792E0A00B9
:1047D00026E0043740CF47F8046D1600FEF70DFCC5
:1047E0008FE7043740CF47F8046D160047F8046D93
:1047F0000E00FFF792FE84E714480000810009686C
:104800006F6F6B2D7175697447F8046D1C4E70479E
:104810004E4800009448000000000471756974005F
:10482000DFF860D0134F18480A21016013480021B7
:1048300001604FF000500160FBF795FD0C480160EE
:1048400012480160124941600D4800688746FDF733
:1048500038FFFFF755FFFDF7D9FF05206F6B2E0AD4
:10486000F5E7000020000020540000205800002040
:10487000E4FF01208402002084010020D8FF0120F1
:10488000C8FF012084030020FCFF0120DCFF012081
:10489000BC000020AE48000000000565696E743F52
:1048A00047F8046DEFF31086013EB6417047BE48ED
:1048B000000020000465696E740062B67047CE483F
:1048C000000020000464696E740072B67047E4480A
:1048D0000000200004697073720047F8046DEFF364
:1048E00005867047F04800000000036E6F70704747
:1048F00032490000000009756E68616E646C656481
:1049000000B5FDF783FF14556E68616E646C6564D5
:1049100020496E74657272757074200047F8046DDA
:10492000EFF30586FDF7DAFFFDF770FF02210A00BD
:1049300000BD444900000000057265736574C648F7
:10494000C64901606E49000081000B6972712D73C8
:1049500079737469636B47F8046DC14E7047004901
:1049600000004FF6C470C2F2010000688746964905
:1049700000008100096972712D6661756C7447F8D9
:10498000046DB84E7047004900004FF6C070C2F287
:10499000010000688746C449000081000E697271F9
:1049A0002D636F6C6C656374696F6E0047F8046DFE
:1049B000AD4E7047004900004FF6BC70C2F20100D6
:1049C00000688746EC4900008100096972712D6515
:1049D0007874693047F8046DA44E704700490000B0
:1049E0004FF6B870C2F2010000688746144A000012
:1049F0008100096972712D657874693147F8046D19
:104A00009B4E7047004900004FF6B470C2F201009F
:104A1000006887463C4A00008100096972712D6573
:104A20007874693247F8046D924E7047004900006F
:104A30004FF6B070C2F2010000688746644A000079
:104A40008100096972712D657874693347F8046DC6
:104A5000894E7047004900004FF6AC70C2F2010069
:104A6000006887468C4A00008100096972712D65D3
:104A70007874693447F8046D804E7047004900002F
:104A80004FF6A870C2F2010000688746B24A0000E3
:104A90008100076972712D61646347F8046D784E77
:104AA0007047004900004FF6A470C2F20100006890
:104AB0008746DA4A00008100086972712D74696DB9
:104AC000320047F8046D6F4E7047004900004FF602
:104AD000A070C2F2010000688746024B000081000E
:104AE000086972712D74696D330047F8046D664E64
:104AF0007047004900004FF69C70C2F20100006848
:104B000087462A4B00008100086972712D74696D17
:104B1000340047F8046D5D4E7047004900004FF6C1
:104B20009870C2F201000068874600800000FFFF15
:104B3000182D2D2D20466C617368204469637469BB
:104B40006F6E617279202D2D2D00FDF7E7FC504826
:104B50008546504F2A2647F8046D4F4E4F4DB18879
:104B60004FF6FF73994225D04FF480730B400AD063
:104B7000B01DFEF7A5FEFEF7A3F9038840880004E8
:104B80000343ED1A16E080230B4013D00F23194086
:104B900089006D1AB01DFEF793FEFEF791F947F8F4
:104BA000046D060047F8046D2E0047F8046D0E00F2
:104BB000FCF748FEFEF74EFE300040CFCFD038481D
:104BC000066040CF374805604FF400204FF40041A5
:104BD0004FF6FF72884204D0023803889342F9D01E
:104BE000023031490860FDF711FE3A4D6563726984
:104BF00073702D5374656C6C61726973205241201F
:104C0000322E362E3120666F722053544D33324689
:104C1000343131206279204D617474686961732088
:104C20004B6F63680A004FF0005000210160FBF7F2
:104C30009AFB47F8046D1D4E47F8046D0426FEF7F5
:104C40004EFE40CF002E02D0FEF7D7F9FCE540CF54
:104C5000E6E5696E697400000CED00E00400FA05F9
:104C6000C4FF0120C0FF0120BCFF0120B8FF0120CC
:104C7000B4FF0120B0FF0120ACFF0120A8FF0120FC
:104C8000A4FF0120A0FF01209CFF012098FF01202C
:104C9000840300208402002088010000000002201C
:104CA000140000201C00002010000020524C0000C6
:0400000508000000EF
:00000001FF
