:020000040800F2
:100000008C030020874B0000C7490000C74900004F
:10001000C7490000C7490000C749000000000000B0
:10002000000000000000000000000000F549000092
:10003000F549000000000000F54900009F4900005C
:10004000F5490000F5490000F5490000F5490000B8
:10005000F5490000F54900001D4A0000454A00002E
:100060006D4A0000954A0000BD4A0000F5490000B5
:10007000F5490000F5490000F5490000F549000088
:10008000F5490000F5490000E34A0000F549000089
:10009000F5490000F5490000F5490000F549000068
:1000A000F5490000F5490000F5490000F549000058
:1000B0000B4B0000334B00005B4B0000F549000088
:1000C000F5490000F5490000F5490000F549000038
:1000D000F5490000F5490000F5490000F549000028
:1000E000F5490000F5490000F5490000F549000018
:1000F000F5490000F5490000F5490000F549000008
:10010000F5490000F5490000F5490000F5490000F7
:10011000F5490000F5490000F5490000F5490000E7
:10012000F5490000F5490000F5490000F5490000D7
:10013000F5490000F5490000F5490000F5490000C7
:10014000F5490000F5490000F5490000F5490000B7
:10015000F5490000F5490000F5490000F5490000A7
:10016000F5490000F5490000F5490000F549000097
:10017000F5490000F5490000F5490000F549000087
:10018000F5490000F5490000F5490000F549000077
:10019000F5490000D0050000FFFF222D2D2D204D38
:1001A0006563726973702D5374656C6C61726973E9
:1001B00020524120322E352E32202D2D2D0007B514
:1001C0009048002B09D000F03DF800F043F800F013
:1001D00028F8426028210160F3E707BD00B589488F
:1001E00000230168282905D1426800F004F800F0D6
:1001F0004EF8F6E700BD03B547F8046D160047F862
:10020000046D1E0008B400F09FFF08BC013347F8DE
:10021000046D7D4E47F8046D40F2612604F008FA43
:1002200003BD03B5013B47F8046D1E0008B400F0A0
:1002300075FF08BC320047F8046D4FF4005604F017
:10024000F7F903BD03B5714801681E2901D000F01C
:1002500034F803BD816901620169816181680161CE
:1002600001688160C16941624169C161C1684161E0
:100270004168C1601E21016070470FB56148016887
:100280001E2903D0FFF7DEFFFFF7E4FF0FBD02B525
:1002900081680160C168416000E002B50169816068
:1002A0004169C16081690161C1694161016A81611E
:1002B000416AC1611E21016202BD08B501681E22AA
:1002C0000260082901D20B0004E0282909D1436803
:1002D00000F05BF847F8046D4D4E56EA033603F024
:1002E00060F808BD00B500F009F800F00CF800F067
:1002F0000FF800F012F800F015F800BD0FB54348F4
:10030000FFF7DBFF0FBD0FB54248FFF7D6FF0FBD6C
:100310000FB54148FFF7D1FF0FBD0FB53F48FFF7BD
:10032000CCFF0FBD0FB537480168062202601E29B9
:1003300006D147F8046D4CF6407603F001F815E05D
:10034000282909D1436847F8046D1E0047F8046D59
:10035000062602F08BFC09E0062907D047F8046D59
:1003600044F20666C9000E4302F0EAFF00F001F80D
:100370000FBD24481E210162816101618160C1625B
:100380000621016000218162704707B547F8046DBE
:100390001E0000F045F847F8046D1E0002F066FCF0
:1003A00007BD07B5C16A282904D1016B994201D163
:1003B000002307BD0168002918D08168002915D0E5
:1003C0000169002912D0816900290FD0016A002932
:1003D0000CD0036347F8046D1E0047F8046D002637
:1003E00002F044FC2821C162002307BD47F8046DD8
:1003F0001E0000F015F847F8046D1E0002F036FCF0
:1004000007BD000028000020D00E0000480000209A
:10041000040D47F840000020380000203000002084
:1004200037B536480168826803698469056A062021
:1004300000F00EF8032000F00BF8022000F008F89E
:10044000012000F005F800232C481E21C16237BDB1
:10045000814209D0824207D0834205D0844203D032
:10046000854201D0030037BD704747F8046D4CF654
:10047000007600B581581E2905D1FFF7D1FF8350C2
:10048000012199400E4300BD00B501681E2904D129
:100490000022FFF7EAFF02F053FF00BD00B58168BC
:1004A0001E2907D10822FFF7E0FF0022FFF7E1FF36
:1004B00002F046FF00BD00B501691E290AD11022D5
:1004C000FFF7D3FF0822FFF7D4FF0022FFF7D1FF89
:1004D00002F036FF00BD00B581691E290DD118223A
:1004E000FFF7C3FF1022FFF7C4FF0822FFF7C1FF89
:1004F0000022FFF7BEFF02F023FF00BD280000200E
:1005000000B50168282904D14368FFF73EFF036066
:10051000190000BD00B58168282904D1C368FFF720
:1005200034FF8360190000BD00B50169282904D19A
:100530004369FFF72AFF0361190000BD3EB58268D9
:1005400003698469056A9A4203D0A24201D0AA4293
:100550000AD1072A08D847F8046DD600FFF760FFD4
:100560001E43836002F0ECFE3EBD3EB5016882682A
:1005700003698469056A914206D0994204D0A14278
:1005800002D0A94200D03EBD47F8046DCE00FFF76F
:1005900047FF1E43036002F0D3FE3EBD00B5FFF7E8
:1005A00076FEFFF76AFEFFF73BFF036000BD01B573
:1005B00006480368013308D00023DB43036047F893
:1005C000046D4BF2005602F0BBFE01BDD87F012046
:1005D000F40500004202043264757000386847F880
:1005E000046D043F3860704700B500F0C3FC00F0B4
:1005F000C1FC00BD120600006202053264726F7019
:10060000043740CF704700B500F064FC00F062FC96
:1006100000BD58060000440205327377617007CFB1
:10062000043F386047F8046D043F3A600E0070479D
:1006300000B5FFF750FF026803690360026142687A
:100640004369436042618268836983608261C268F2
:10065000C369C360C26100BD80060000620204324B
:100660006E69700007CF043F3860704700B5FFF730
:1006700032FFFFF7DDFFFFF70AFEFFF708FE00BDC0
:100680009A060000440005326F766572B86847F834
:10069000046D043F3860FE687047BE0600004400E9
:1006A00005327475636B07CF043F386047F8046DFB
:1006B000043F3A60043F3960043F38607047E00609
:1006C000000046000432726F74003868B9683A69F5
:1006D000B86039613A6079687E60FE68F960704799
:1006E00002070000460005322D726F743868B96841
:1006F0003A6938613960BA60F968FE607E6879608D
:1007000070472A070000200203323E7201CF01B475
:1007100040B440CF704700B5FFF749FF00F0FDFB44
:1007200000F09DFC00F09BFC00BD5607000020027D
:100730000332723E47F8046D40BC01BC043F386090
:10074000704700B5FFF733FF00F0A5FC00F0A3FCF5
:1007500000F0E3FB00BD8607000020020332724078
:1007600047F8046D019E47F8046D009E704700B580
:10077000FFF71DFF47F8046D49F6010603F00FFB74
:1007800003F009FB00BDAC070000200206327264D2
:10079000726F700002B0704700B5FFF708FF47F8AE
:1007A000046D4BF2020602F0CBFD00BDC407000051
:1007B00042000364322F3868F1077610400808437E
:1007C00038607047DA07000062020364322A386832
:1007D000001876413860704717E0F40700004200C7
:1007E0000464736872003868F107760840080843AB
:1007F00038607047400800006202046473686C004F
:100800003868001876413860704700B5FFF746FE3B
:10081000FFF776FEFFF7A9FE00F07FFBFFF770FE03
:10082000FFF7A3FE47F8046D402601F0D9FC00F065
:1008300074FB47F8046D44F2401601F0D1FC00BD92
:10084000520800004200046461627300002E07D465
:10085000704770080000420007646E656761746548
:1008600038680021C043F64301304E41386070477C
:10087000C0080000640202642D0007CF121AB141C3
:100880000E00043F3A60704700B5FFF724FE00F009
:1008900099FBFFF735FEFFF768FE00F03EFBFFF720
:1008A0002FFEFFF762FEFFF7C3FE01F003FC00F02E
:1008B000A5FB47F8046D44F2801600F031FD00BD41
:1008C0000E090000640202642B0007CF12184E418B
:1008D000043F3A60704700B5FFF7FDFD00F072FB82
:1008E000FFF70EFEFFF741FE00F017FBFFF708FED3
:1008F000FFF73BFEFFF79CFE01F0C1FB00F07EFB23
:1009000047F8046D44F2401600F00EFD00BD3809B2
:100910000000610203733E6447F8046DF6177047E8
:1009200000B500F0C5FAFFF720FE47F8046D41F26C
:10093000C07601F055FC00BD960900006202037507
:100940006D2A3868A0FB06063860704747F8046DCA
:10095000DFF8006500B5FFF7A1FDFFF7D1FDFFF758
:10096000D9FD01680E43816856EA0146FFF78FFC06
:10097000FFF78DFCFFF781FCFFF752FD036056EA9D
:100980000336FFF77AFCFFF74BFD036056EA0326B8
:1009900002F007FD00BDB40900006202026D2A00EA
:1009A000386880FB06063860704747F8046DDFF84A
:1009B000A864CFE7F209000044000375642A07CF5A
:1009C000564341437618010C130C59437618010C19
:1009D00080B292B25143434350430022C91852415E
:1009E0001204B6180A04090C80184E41043F3860FE
:1009F0007047840A000044000475646D2A0010B535
:100A0000002447F8046D7E6847F8046D3E69FFF7DF
:100A100098FF310040CF300040CF47F8046D3E686A
:100A200047F8046DFE6803B4FFF78BFF03BC330087
:100A300040CF320040CF47F8046D3E6847F8046D60
:100A40003E690FB4FFF77DFF0FBC9219634140CFA1
:100A500089196241634140CF47F8046D7E6847F8C9
:100A6000046DFE680FB4FFF76CFF0FBC9219634171
:100A700040CF89196241634140CF1E003A607960DE
:100A8000B86010BDA60A00004300022A2F0000B57E
:100A900040B440CFFFF784FF47F8046D40BC00F03E
:100AA0004CF8043700BDC80A00004300052A2F6D2A
:100AB0006F6400B540B440CFFFF772FF47F8046D94
:100AC00040BC00F03AF800BDEA0A0000430003759C
:100AD0002A2F00B540B440CFFFF733FF47F8046D2D
:100AE00040BC00F01BF8043700BD0E0B00004300B3
:100AF00006752A2F6D6F640000B540B440CFFFF734
:100B000020FF47F8046D40BC00F008F800BD2E0B34
:100B10000000430006756D2F6D6F640000B547F847
:100B2000046D002600F019F840CF043700BD4C0BCF
:100B300000004300056D2F6D6F6400B547F8046D2C
:100B4000F61700F032F840CF043700BD9E0B0000CE
:100B500044000675642F6D6F640030B400230022DA
:100B60007968B86835003C684026400049415241E8
:100B70005B41AB4202D804D3A24202D3121BAB4169
:100B80000130013EF1D10E0038607B60BA6030BCAC
:100B9000704730B400237A68B9680020E2E7140C8B
:100BA0000000440005642F6D6F6400B5F01719D084
:100BB000FFF756FEFFF733FDF0170CD0FFF750FE9E
:100BC000FFF72DFDFFF7C9FFFFF729FDFFF748FEEF
:100BD000FFF725FD00BDFFF722FDFFF7BEFFFFF782
:100BE0003FFE00BDFFF71BFDF0170ED0FFF738FEEC
:100BF000FFF715FDFFF7B1FFFFF732FEFFF70FFD1F
:100C0000FFF72EFEFFF70BFD00BDFFF708FDFFF716
:100C1000A4FF00BD2A0C0000440002642F0000B5B0
:100C2000FFF7C3FFFFF71EFD00BD720C000044007C
:100C300002662A0000B5F0170DD0FFF711FEFFF78E
:100C4000EEFCF0170DD0FFF70BFEFFF7D8FE40CFFC
:100C500001CF386000BDFFF7E2FCF017F5D0FFF7D9
:100C6000FFFDFFF7CCFE40CF01CF3860FFF7F8FD66
:100C700000BDBE0C0000440002662F0000B5F01756
:100C80000ED0FFF7EDFDFFF7CAFCF0170ED0FFF70F
:100C9000E7FDFFF7C4FCFFF77CFFFFF7E3FC00BDB7
:100CA000FFF7BDFCF017F4D0FFF7DAFDFFF7B7FC54
:100CB000FFF76FFFFFF7D4FDFFF7D4FC00BD060D73
:100CC000000020020232210006CF3160726040CF66
:100CD000704700B5FFF7EFFB0168426806B400F00B
:100CE000EEFDFFF7CAFA06BC0160282906D047F8D6
:100CF000046D46F2400600F0E6FD00BD043242609D
:100D000000F0DDFD00BD500D000020020232400069
:100D1000043F706838603668704700B500F0C8F866
:100D2000016828290AD047F8046D46F6400600F00D
:100D3000A7FD00F0F2F800F09FFD00BD416804310E
:100D4000416000F099FD00F0E8F800F095FD00BD6D
:100D5000640D000044000364753C07CF121AB141D2
:100D6000B6417047780D000044000364753E07CF1C
:100D7000801A8E41B64170478E0D00004400026417
:100D80003C0007CF121AB1410CDB00267047AA0DB8
:100D90000000440002643E0007CF801A8E4101DB50
:100DA000002670470026F6437047C60D0000620219
:100DB0000364303C0437F617704700B500F0C0F804
:100DC00000F03CFB00BDEE0D000062020364303D0C
:100DD00001CF0643013EB641704700B547F8046DA8
:100DE00044F2003600F0A0FA00F002FB00BD140E41
:100DF0000000440203643C3E07CF50404E4006438F
:100E0000013EB641F643704700B500F015F800F01A
:100E100003FB00BD5C0E0000440202643D0007CFEE
:100E200050404E400643013EB641704700B500F0C9
:100E300003F800F0DDFA00BD00B5FFF74CFB00F051
:100E4000C1F800F0C3F900F0D9F800F0BFF900F0E4
:100E5000B0F900BD0000A0FB000080FB6E0E00009A
:100E600020000373704047F8046D3E0070477E0E0B
:100E70000000200003737021370040CF7047900EB0
:100E8000000020000372704047F8046D6E46704702
:100E9000A00E0000200003727021B54640CF7047BD
:100EA000C40E000061020364757047F8046D70475A
:100EB00006B5FFF7E9FA01684268FFF7DEF901605D
:100EC000426006BDF00E000061020464726F7000A3
:100ED00040CF704700B501681E2906D147F8046D60
:100EE00043F2047602F02CFA00BDFFF7D0F900BD02
:100EF000060F00006100043F64757000002E01D0F1
:100F000047F8046D7047320F000062020473776186
:100F1000700039683E600E0070470CB5FFF7BEFAEE
:100F200002688368036082604268C3684360C2608D
:100F30000CBD600F00006202036E697004377047D9
:100F400000B5FFF7A1FA81681E2902D0FFF7A5F9C5
:100F500000BD47F8046D43F2047602F0F1F900BDDC
:100F6000880F00006202046F7665720047F8046D16
:100F70007E68704700B5FFF791FA8168C268FFF795
:100F80007CF90160426000BDAE0F00006202047493
:100F900075636B0001CF083F7E603860704700B515
:100FA000FFF77CFAFFF784FF00F028F800BDE40F9C
:100FB0000000630203726F7403CF083F78603E60E5
:100FC0000E0070470EB5FFF776FA01688268036974
:100FD0008160026103604168C2684369C160426127
:100FE00043600EBD081000006302042D726F740090
:100FF00003CF083F7E6039600600704700B5FFF7F9
:10100000E1FFFFF7DFFF00BD1A10000020000470B1
:1010100069636B0057F826607047321000000000CB
:101020000564657074684F49C91B47F8046D8E10DC
:1010300070474E100000000006726465707468000E
:1010400047F8046D6E464849891B8E10704784101E
:1010500000002002023E720040B440CF704700B54D
:10106000FFF7A5FAFFF710FAFFF74AFA47F8046D01
:101070004BF2004601228A40164302F061F9FFF765
:1010800006F900BDBA100000200202723E0047F8C7
:10109000046D40BC704700B5FFF789FAFFF7EDF823
:1010A000FFF7BEF9036047F8046D4BF600460122D6
:1010B0009A40164302F044F900BDD8100000200207
:1010C0000272400047F8046D009E704700B5FFF7BC
:1010D0006EFA02F060FE00BDFC10000020020572F6
:1010E00064726F7001B0704700B5FFF760FA47F89F
:1010F000046D4BF2010602F023F900BD101100004F
:10110000200005727069636BB6006E4436687047E4
:101110003C110000000004726F6C6C00002E01D1C5
:1011200040CF7047B0003958C019031F1A680260D9
:101130000438013EF9D104370E0070476C110000ED
:101140000000052D726F6C6C002E01D140CF7047EE
:10115000386839464A680A600431013EFAD10860AD
:1011600040CF70478C0200208C03002086110000C5
:10117000620203616E6401CF0640704747F8046D58
:1011800044F20006D0E0A21100006202036269632B
:1011900001CFB0430600704747F8046D44F2803633
:1011A000BEE0BC1100006202026F720001CF064374
:1011B000704747F8046D44F20036B5E0D6110000E0
:1011C000620203786F7201CF4640704747F8046DA2
:1011D00044F24006A8E0EE1100006202012A01CFAD
:1011E0004643704747F8046D44F240369CE02212B3
:1011F0000000610203636C7AB6FA86F6704700B5A8
:10120000FFF742F947F8046D704EFFF779F90E4386
:1012100056EA0146FFF7C2F956EA032602F0C1F882
:1012200000BD32120000610003726F725FEA760641
:10123000704744120000610003726F6CB61956F1DA
:10124000000670477C1200006202076172736869D1
:10125000667401CF30410600704700B547F8046D51
:1012600044F2001647F8046D41F20006FFF716F944
:1012700041681F292AD91F21416027E0A6120000DA
:101280006202067273686966740001CFF04006005E
:10129000704700B547F8046D44F2C00647F8046D86
:1012A00040F6000612E0E01300006202066C73686C
:1012B0006966740001CFB0400600704700B547F87A
:1012C000046D44F2800647F8046D0026FFF7E6F847
:1012D0000168282903D040CF00F022F800BD043770
:1012E0004168FEF7D4FF002901D140CF00BD1F297E
:1012F0000AD889010E430268D2001643FFF74EF95F
:101300001E4302F01DF800BD40CFFFF747F947F834
:10131000046D42F200061B021E4302F011F800BDEC
:101320000FB5FFF7BBF80CE00FB5FFF7B7F8016892
:10133000062901D1FFF7F1FD8268282A01D1FFF7C4
:10134000ECFDFFF7E7F8016828291ED147F8046D86
:10135000466801F0D7FB02CF002E40CF15D0B6F57E
:10136000804F01D11A4E1EE044F24002964201D154
:10137000184E18E0B6F5864F01D1174E13E04FF422
:101380008742964201D1154E0DE0FFF7D7F8FFF7DF
:10139000B7F8C90082680E43164301F0D1FFFEF78B
:1013A00076FF0FBD0FB50E43816856EA0146FEF782
:1013B0006EFFFEF76CFFFEF760FFFFF731F803608A
:1013C00056EA032601F0EDFF0FBD000080F0B0FAF1
:1013D000000010F0000090F0000050F0000030F02D
:1013E00006140000610202303D00013EB641704724
:1013F00000B500F0FAF800F0B0FEFEF748FF4FF439
:101400005241816200BD2E140000610203303C3E57
:10141000013EB641F643704700B500F0E6F800F033
:101420009CFEFEF734FF4FF45341816200BD561419
:101430000000610202303C00F617704700B500F072
:10144000D4F847F8046D41F2C07600F0C9FE4FF4BD
:101450005541816200BD6C14000060000474727517
:10146000650047F8046D0026F643704780140000BD
:1014700060000566616C736547F8046D002670476F
:10148000A61400004202023E3D0001CFB042EADA5B
:101490000026704747F8046D4DF6003647F8046D96
:1014A0004DF60026ADE0CC1400004202023C3D00A7
:1014B00001CFB042D7DD0026704747F8046D4DF6E6
:1014C000004647F8046D4DF600569AE0F01400000F
:1014D0004202013C01CFB042C5DB0026704747F80D
:1014E000046D4DF6002647F8046D4DF6003688E091
:1014F000141500004202013E01CFB042B3DC0026C9
:10150000704747F8046D4DF6005647F8046D4DF6E8
:10151000004676E03A150000620203753E3D01CFB9
:10152000861BB641F643704747F8046D4DF200360E
:1015300047F8046D4DF2002663E06015000062027A
:1015400003753C3D01CF361AB641F643704747F864
:10155000046D4DF6000647F8046D4DF6001650E098
:1015600084150000620202753C0001CF861BB64163
:10157000704747F8046D4DF2002647F8046D4DF2B0
:1015800000363EE0A8150000620202753E0001CF61
:10159000361AB641704747F8046D4DF6001647F805
:1015A000046D4DF600062CE0CA1500006202023CF4
:1015B0003E0001CF811B361A0E43704747F8046D79
:1015C0004DF2000647F8046D1BE02A170000620286
:1015D000013D01CF361A013EB641704747F8046D10
:1015E0004DF2001647F8046D0BE000B5FEF74CFF16
:1015F000FEF784FEFEF787FEFEF78AFEFEF78AFFFF
:1016000000BD00B5FEF74AFFFEF778FEFEF77BFE51
:10161000FEF78AFF8268282A04D1FFF77EFC39682A
:101620003E600E4640CF016828291DD14168FF2940
:1016300007D847F8046D42F600060E438168090298
:101640001AE047F8046D466801F05CFA02CF002EFC
:1016500040CF09D047F8046D6A4E0E43816856EAC0
:10166000014601F09EFE0AE0FEF74AFF47F8046DCE
:1016700044F28026C90016430E4301F061FEFEF7D6
:1016800006FEFEF704FE866240CF00BD0FB55E4841
:10169000816A002935D047F8046D866A002181628D
:1016A000310AD52901D140CF0FBDFEF7E6FDFEF787
:1016B000B7FE0360D22904D14FF4834600F090FDB9
:1016C0000FBDD32906D14FF4834600F089FD00F009
:1016D0009AFD0FBD023601F033FE47F8046D42F269
:1016E000000600F00FF800F08EFD47F8046D4EF292
:1016F000000601F025FE47F8046D42F2000600F0F6
:1017000001F80FBD00B5FEF7BFFEFEF72EFF016822
:1017100009020E4301F014FE00BD00B5816A090AFA
:10172000D52901D1FEF7B3FD00BD481700006202C4
:10173000036D696E01CFB04200DC0600704747F8C8
:10174000046D4DF600362DE0661700006202036D51
:10175000617801CFB04200DB0600704747F8046DA6
:101760004DF600461EE086170000620204756D61AA
:10177000780001CFB04200D30600704747F8046DEF
:101780004DF600060EE00C180000620204756D694B
:101790006E0001CFB04200D80600704747F8046DD4
:1017A0004DF2003600B5FEF779FE0168826891427D
:1017B00003D140CFFEF771FD00BD062A01D1FFF72E
:1017C000ACFB0168282901D1FFF7A7FBFEF7CDFE8E
:1017D000FEF7A0FEC900026847F8046D44F28026B7
:1017E0000E43164301F0ACFD01F0AAFD47F8046D6D
:1017F00044F200660E43164301F0A2FDFEF74DFDD4
:1018000000BD0000000FB0F1280000204A180000C1
:101810000000046D6F76650007B5310040CF3200DF
:1018200040CF00290FD0B2420DD006D3013E013A7D
:10183000705C50540139FBD105E0307810700136EE
:1018400001320139F9D140CF07BD6C18000000000A
:101850000466696C6C00300040CF310040CF002935
:1018600002D001397054FCD140CF7047AE1800004F
:10187000200201403668704747F8046D46F60006BE
:1018800000B5FEF701FE0368282B08D143687C21D0
:10189000194009010E437C218B43FEF782FDDB00DA
:1018A0001E43FEF77BFE1E4301F04AFD00BD0619F4
:1018B00000002002012103CF30600E00704747F87E
:1018C000046D46F2000600B5FEF7E8FD0368282B1C
:1018D00009D143687C21194009010E437C218B43C7
:1018E000FEF75FFD0360DB001E438368282B02D1F7
:1018F000C368FEF74AFD1E4301F022FDFEF7C7FC58
:10190000FEF7C5FC00BD3C1900002002022B21009F
:1019100003CF3268121832600E00704700B5FEF730
:10192000BDFDFFF7C5FAFFF7A7FFFFF74BFB00F080
:10193000A6FBFFF7F2FAFFF7C2FF00BD8019000017
:101940002002026840003688704700B5FEF79CFD13
:1019500047F8046D48F600060368282B08D1436851
:101960003E21194049010E433E218B43FEF719FDEC
:10197000DB001E43FEF712FE1E4301F0E1FC00BD3A
:10198000DA19000020020268210003CF30800E0027
:10199000704700B5FEF782FD47F8046D48F2000677
:1019A0000368282B09D143683E21194049010E43A1
:1019B0003E218B43FEF7F5FC0360DB001E4383688A
:1019C000282B02D1C368FEF7E0FC1E4301F0B8FCEF
:1019D000FEF75DFCFEF75BFC00BD101A0000200264
:1019E00003682B2103CF3288121832800E00704713
:1019F00000B5FEF753FDFFF75BFAFFF7A6FFFFF711
:101A0000E1FA00F03CFBFFF788FAFFF7C2FF00BDE8
:101A1000541A00002002026340003678704700B577
:101A2000FEF732FD47F8046D47F600060368282BE1
:101A300008D143681F21194089010E431F218B43A0
:101A4000FEF7AFFCDB001E43FEF7A8FD1E4301F0CE
:101A500077FC00BDAE1A000020020263210003CF14
:101A600030700E00704700B5FEF718FD47F8046DA2
:101A700047F200060368282B09D143681F2119404B
:101A800089010E431F218B43FEF78BFC0360DB00B3
:101A90001E438368282B02D1C368FEF776FC1E43E1
:101AA00001F04EFCFEF7F3FBFEF7F1FB00BDE41A7C
:101AB0000000200203632B2103CF3278121832700A
:101AC0000E00704700B5FEF7E9FCFFF7F1F9FFF7EC
:101AD000A6FFFFF777FA00F0D2FAFFF71EFAFFF73A
:101AE000C2FF00BD241B00002002046269732100B4
:101AF00003CF3268024332600E00704700B5FEF734
:101B0000CDFCFFF7D5F9FFF7B7FEFFF75BFA47F813
:101B1000046D44F20036FFF707FCFFF7FEF9FFF70C
:101B2000CEFE00BD641B0000200204626963210038
:101B300003CF3268824332600E00704700B5FEF773
:101B4000ADFCFFF7B5F9FFF797FEFFF73BFA47F853
:101B5000046D44F28036FFF7E3FBFFF7DEF9FFF791
:101B6000AEFE00BDA41B0000200204786F722100AD
:101B700003CF3268424032600E00704700B5FEF776
:101B80008DFCFFF795F9FFF777FEFFF71BFA47F893
:101B9000046D44F24006FFF7C7FBFFF7BEF9FFF7FD
:101BA0008EFE00BDDA1B0000200204626974400052
:101BB00001CF3668064018BF4FF0FF36704700B5BA
:101BC000FEF76CFCFFF758FE47F8046D44F2000680
:101BD000FFF7AAFBFFF720FC00BD1A1C0000200243
:101BE00005686269732103CF3288024332800E0098
:101BF000704700B5FEF752FCFFF75AF9FFF7A5FE54
:101C0000FFF7E0F947F8046D44F20036FFF78CFB6C
:101C1000FFF783F9FFF7BDFE00BD5A1C000020024C
:101C200005686269632103CF3288824332800E00E7
:101C3000704700B5FEF732FCFFF73AF9FFF785FE73
:101C4000FFF7C0F947F8046D44F28036FFF768FBF0
:101C5000FFF763F9FFF79DFE00BD9A1C000020020C
:101C60000568786F722103CF3288424032800E00BF
:101C7000704700B5FEF712FCFFF71AF9FFF765FE93
:101C8000FFF7A0F947F8046D44F24006FFF74CFB5C
:101C9000FFF743F9FFF77DFE00BDD01C00002002D6
:101CA00005686269744001CF3688064018BF4FF05E
:101CB000FF36704700B5FEF7F1FBFFF746FE47F829
:101CC000046D44F20006FFF72FFBFFF7A5FB00BDF4
:101CD000101D0000200205636269732103CF327872
:101CE000024332700E00704700B5FEF7D7FBFFF7D6
:101CF000DFF8FFF794FEFFF765F947F8046D44F24B
:101D00000036FFF711FBFFF708F9FFF7ACFE00BD47
:101D1000501D0000200205636269632103CF327801
:101D2000824332700E00704700B5FEF7B7FBFFF735
:101D3000BFF8FFF774FEFFF745F947F8046D44F26A
:101D40008036FFF7EDFAFFF7E8F8FFF78CFE00BDED
:101D5000901D000020020563786F722103CF327856
:101D6000424032700E00704700B5FEF797FBFFF758
:101D70009FF8FFF754FEFFF725F947F8046D44F28A
:101D80004006FFF7D1FAFFF7C8F8FFF76CFE00BD79
:101D9000C61D0000200205636269744001CF3678D9
:101DA000064018BF4FF0FF36704700B5FEF776FBD0
:101DB000FFF735FE47F8046D44F20006FFF7B4FA6A
:101DC000FFF72AFB00BD641E000000000768666C78
:101DD00061736821300040CF310040CF4FF40043A1
:101DE000984225D34FF4C023984221D24FF6FF7377
:101DF000194099421BD010F00102002A18D1028824
:101E00009A4215D110F10060874A884B1360884BC5
:101E10001360884A40F2011313600180864A1368F8
:101E200013F48033FBD1834A4FF0004313607047B3
:101E300000F006FD2A57726F6E6720616464726558
:101E40007373206F72206461746120666F722077F3
:101E5000726974696E6720666C61736820210A007C
:101E600002F0FCBCC21E000000000763666C6173D8
:101E70006821300040CF310040CF4FF400439842FA
:101E8000D6D34FF4C0239842D2D211F0FF01FF29DC
:101E900016D00278FF2ACBD110F10060624A634B62
:101EA0001360634B1360634A012313600170624A3D
:101EB000136813F48033FBD15E4A4FF00043136084
:101EC00070473A1F00000000106572617365666C10
:101ED000617368736563746F720000B5022E2AD354
:101EE000082E28D2504A514B1360514B136000F01A
:101EF000A7FC0D457261736520736563746F722072
:101F000047F8046D02F0FFFA4A4A4C4BF60033439F
:101F10001360494A136813F48033FBD1454A4FF0EC
:101F20000043136000F08CFC0C66726F6D20466CF1
:101F30006173682E0A0040CF00BD702000000000D1
:101F40000A6572617365666C6173680072B600B58C
:101F50003B483C490268B2F1FF3F05D047F8046DA9
:101F60000226FFF7BAFF02E004308842F2D3364877
:101F700036490268B2F1FF3F05D047F8046D0326E9
:101F8000FFF7ABFF02E004308842F2D3304831491A
:101F90000268B2F1FF3F05D047F8046D0426FFF751
:101FA0009CFF02E004308842F2D32B482B490268A0
:101FB000B2F1FF3F05D047F8046D0526FFF78DFF0E
:101FC00002E004308842F2D3254826490268B2F183
:101FD000FF3F05D047F8046D0626FFF77EFF02E0BD
:101FE00004308842F2D3204820490268B2F1FF3F12
:101FF00005D047F8046D0726FFF76FFF02E00430B5
:102000008842F2D300F01CFC1246696E6973686561
:10201000642E20526573657420210A005DF804EB7C
:1020200062B602F0AABC0000043C024023016745EE
:10203000AB89EFCD103C02400C3C02400200010095
:1020400000800008FFBF000800C00008FFFF000874
:1020500000000108FFFF010800000208FFFF03085D
:1020600000000408FFFF050800000608FFFF07083E
:10207000A62000006202012B01CF3618704700B580
:10208000FEF70CFA47F8046D43F2000647F8046DBA
:10209000C94E47F8046D41F600068168282917D11A
:1020A000FEF73BFF14E04C2100006202012D01CF3E
:1020B000861B704700B5FEF7F1F947F8046D43F64B
:1020C000000647F8046DBD4E47F8046D41F6002642
:1020D000FEF720FA0168282927D14168FF290CD88A
:1020E00040CF40CFFEF72AFA0E43816809020E4323
:1020F00001F026F9FEF7CBF800BD47F8046D0E009D
:1021000000F000FD02CF002E40CF0ED040CF0437AC
:102110000E43816856EA0146FEF7B9F8FEF73EFA2B
:1021200056EA032601F03DF900BD04370437FEF7F7
:10213000E7F989018268D2000E431643FEF7A7F83B
:10214000FEF72CFA1E4301F0FBF800BD64210000ED
:10215000610202312D00013E704747F8046D41F6DF
:1021600040663DE07C210000610202312B00013617
:10217000704747F8046D41F6404631E09421000075
:10218000610202322D00023E704747F8046D41F6AD
:10219000806625E0AC210000610202322B0002368D
:1021A000704747F8046D41F6804619E0C6210000EB
:1021B00061020563656C6C2B0436704747F8046D4B
:1021C00041F600560CE0F82100006102066E6567DA
:1021D000617465007642704747F8046D44F240260A
:1021E00000B5FEF751F90168C9000E43FEF7D6F9B4
:1021F0001E4301F0A5F800BD102200006102036E2D
:102200006F74F643704747F8046D44F2C036E7E751
:10221000282200006102037368727608704747F84D
:10222000046D40F64006DBE73822000061020373CC
:10223000686C7600704706E04E22000061020232B0
:102240002A007600704747F8046D4026C8E76622EA
:10225000000061020563656C6C73B600704747F857
:10226000046D8026BCE77E220000610202322F004E
:102270007610704747F8046D41F24006B0E7BE2281
:102280000000610203616273F01736184640704720
:1022900000B5FEF7F9F847F8046D00260168C9009B
:1022A0000E43FEF77BF91E4301F04AF847F8046D30
:1022B0004DF2005601F044F8FFF78EFF00BDDC221E
:1022C0000000420005752F6D6F6401CF3100B0FB37
:1022D000F6F67143401A043F38607047FA22000056
:1022E0004200042F6D6F640001CF310090FBF6F6C1
:1022F0007143401A043F386070470E2300004200CB
:10230000036D6F6400B5FFF7EFFF40CF00BD4E23B4
:1023100000006202012F01CF90FBF6F6704700B576
:10232000FEF7BCF8FEF7ECF8FEF7F4F847F8046D9A
:10233000234E01680E43816856EA0146FDF7A7FF68
:10234000FEF72CF956EA032601F02BF800BD6223B4
:1023500000006100046576656E000120304036188B
:1023600070477A230000810004626173650047F8BA
:10237000046D144E70470A00000090230000000016
:102380000662696E617279000E4802210160704731
:10239000A6230000000007646563696D616C09484D
:1023A0000A2101607047C8230000000003686578B7
:1023B0000448102101607047000010F10000B0F1E6
:1023C000F0F090FBFC7F0120E4230000810009680D
:1023D0006F6F6B2D656D697447F8046D6D4E7047B6
:1023E000CE24000000240000810008686F6F6B2D70
:1023F0006B65790047F8046D674E7047F424000060
:102400001E24000081000A686F6F6B2D656D697472
:102410003F0047F8046D614E70471E2500003A24C6
:102420000000810009686F6F6B2D6B65793F47F87D
:10243000046D5B4E70474A2500005824000081005F
:102440000A686F6F6B2D70617573650047F8046DD6
:10245000544E70472A4900006E24000000000465B5
:102460006D6974000FB54B4800F026F80FBD82244B
:1024700000000000036B65790FB5474800F01CF8B9
:102480000FBD94240000000005656D69743F43484A
:1024900000688746A62400000000046B65793F00B1
:1024A0003F4800688746BC24000000000570617545
:1024B00073653C480068874600688746E224000050
:1024C00000000B73657269616C2D656D697400B5F0
:1024D00000F025F8002E40CFFAD0334A167040CFD6
:1024E00000BD0A25000000000A73657269616C2D49
:1024F0006B65790000B500F028F8002E40CFFAD0C7
:1025000047F8046D284A167800BD38250000000001
:102510000C73657269616C2D656D69743F0000B55F
:10252000FFF7C7FF47F8046D0026204801688020A8
:10253000014000D0F64300BDC825000000000B7329
:10254000657269616C2D6B65793F00B5FFF7B1FF6E
:1025500047F8046D0026154801682020014000D08E
:10256000F64300BD12499F2008601249086850F0E8
:10257000A000086010494FF4EE4008600F494FF486
:10258000003008600E498B2008600E4942F20C00B2
:1025900008607047F87F0120F47F0120F07F012060
:1025A000EC7F0120E87F012004440040004400400B
:1025B0003038024000000240200002404038024013
:1025C000084400400C440040EC2500000000076374
:1025D00065787065637400B5386801B4013038609F
:1025E00000F00BF801BC067040CF00BD6226000071
:1025F0000000066163636570740000B502CF0139A5
:102600000022FFF739FF300040CF7F2809D0202873
:1026100019D2092816D00A281FD00D281DD0082845
:10262000EFD1002AEDD000F00BF903082008002AB2
:10263000E7D0885C013A80230340E2D04023034086
:10264000F5D0DEE72020B242DBD247F8046D060069
:10265000FFF708FF01328854D3E7160000F09FF817
:1026600000BD7426000040000374696247F8046DE1
:10267000294E70478A2600008100033E696E47F8A4
:10268000046D264E704700000000B0260000820056
:102690000E63757272656E742D736F75726365006B
:1026A00047F8046D1E4E704700000000C400002073
:1026B000CC260000000009736574736F7572636542
:1026C000174802CF0660416040CF7047EA260000FD
:1026D000000006736F757263650047F8046D104E55
:1026E000043F706838603668704724270000000097
:1026F0000571756572790FB5084800210160FFF713
:10270000B5FF47F8046D47F8046DC826FFF775FF5D
:10271000FFF7D6FF0FBD0000C4000020E47F0120BA
:10272000DC7F01206C270000000007636F6D706183
:1027300072650FB5310040CF01CF884202CF10D172
:10274000002810D001380A5C335C412A02D35B2A8E
:1027500038BF2032412B02D35B2B38BF20339A4243
:10276000EED000260FBD0026F6430FBD80270000E7
:1027700000000263720000B500F062F8010A00BDBB
:1027800092270000000002626C0047F8046D2026CA
:102790007047A6270000000005737061636547F865
:1027A000046D20265EE6C6270000000006737061F7
:1027B0006365730000B5002E03DDFFF7F0FF013EF7
:1027C000FBD140CF00BDD62700005000065B6368F8
:1027D00061725D0005E0EE2700000000046368619F
:1027E000720000B501F0C0FC40CF367800BDFE2776
:1027F00000005004012847F8046D292606E0182837
:1028000000005004015C47F8046D002600B501F09B
:10281000B5FC043740CF00BD5C2800003000022E1C
:102820002200AA4800B547F8046D060000F07BFAC4
:1028300047F8046D222601F0A1FC00F0C2FD00BDA6
:102840000AB447F8046D7646013E3378012101331E
:1028500019405B181EEB030E0ABC39E08228000009
:102860003000026322009A48DCE747F8046D7646A0
:10287000013E33780121013319405B181EEB030E32
:102880007047AC2800003000027322009148C9E76D
:1028900047F8046D764647F8046D013E367801210D
:1028A000731C19405B181EEB030E7047C428000010
:1028B000000005636F756E74013647F8046D013EC4
:1028C00036787047DC280000000005637479706575
:1028D00000B5FFF7F1FF00F007F800BD0429000084
:1028E000000004747970650001B501CF002E07D097
:1028F00047F8046D0678FFF7B5FD0130013EF7D1CA
:1029000040CF01BD3E2900000000046865782E001C
:1029100007B5310040CF20200F22043847F8046D5E
:102920000E00C6401640092E01D9373600E0303679
:10293000FFF798FD0028F0D1FFF731FF07BD4E29C2
:102940000000000003682E731FB5634C0EE05E2983
:102950000000000003752E731FB5604C06E0022ACC
:1029600000000000022E73001FB55D4C5D49C91BBD
:102970008908220A2020292F200A2028273E200A01
:10298000202F43432020203335204343430A385C23
:1029900029295F200A0A544A106803B40A201060EB
:1029A000FFF74EFF08537461636B3A205B0047F8F2
:1029B000046D0E0001F0AFFDFFF742FF025D200045
:1029C00003BC2736484A106000290AD0474A1068DD
:1029D00006B447F8046D0600A04706BC043A013966
:1029E000F5D1FFF72DFF0620544F533A200047F84A
:1029F000046D3600A047FFF723FF04202A3E0A009B
:102A00001FBDA22A0000000005776F72647300B535
:102A1000FFF716FF010A00F034FFFFF711FF09412D
:102A20006464726573733A2047F8046DFFF770FFB2
:102A3000FFF706FF064C696E6B3A200047F8046DFD
:102A40003668FFF765FFFFF7FBFE07466C616773AB
:102A50003A2047F8046DB688FFF75AFFFFF7F0FEFB
:102A600006436F64653A2000B01D00F046FF47F84A
:102A7000046D0600FFF74CFFFFF7E2FE064E616DA6
:102A8000653A200047F8046D0636FFF721FFFFF78F
:102A9000D7FE010A00F00EFF300040CFBDD040CF7E
:102AA00000BDF02A0000000006756E7573656400B5
:102AB00000B500F0F2FF4FF0005001684FF00052F7
:102AC000914201D24FF4C026761A00BD4028000082
:102AD0006A28000090280000112900000745000026
:102AE000174500008C020020FC7F01208802002096
:102AF000542C000000000D3132626974656E636F02
:102B000064696E670FB5FF2E04D847F8046D5FF057
:102B1000FF360FBD16F0FF10B0420ED14FF6FF7119
:102B20000840310C814208D116F0FF0656F4805659
:102B300047F8046D5FF0FF360FBD16F0FF20B0427E
:102B40000FD14FF6FF710840310C814209D1360A8E
:102B500016F0FF0656F4005647F8046D5FF0FF3696
:102B60000FBDFF2231001140300A1040884210D1C1
:102B7000300C104088420CD1300E1040884208D1F1
:102B800016F0FF0656F4405647F8046D5FF0FF3626
:102B90000FBD300000210131001850F100007FF01E
:102BA0007F020240802A05D01F29F4D347F8046D24
:102BB00000260FBD0829F9D3060036F0800611F073
:102BC0000100C001064311F00E00C002064311F0DF
:102BD00010008005064347F8046D5FF0FF360FBD17
:102BE00047F8046DDFF86C665FF4704110EA01028B
:102BF000120116435FF4006110EA0102D20316438A
:102C00005FF4E06110EA010212011643FF2110EAAD
:102C1000010216431E43C4E347F8046DDFF838662B
:102C20005FF0704110EA0102120B16435FF0006181
:102C300010EA0102520816435FF0E06110EA010257
:102C4000120B16435FF47F0110EA0102120C1643C7
:102C50001E43A6E3BA2C000000001072656769737A
:102C60007465726C69746572616C2C000FB5330009
:102C700040CF1B02FF2E05D856F400561E4300F02D
:102C80005FFB0FBDFFF73EFF002E40CF06D0DFF801
:102C9000CC0506431E4300F084FB0FBDF643FFF74F
:102CA00031FF002E40CF06D0DFF8B40506431E43A7
:102CB00000F077FB0FBDF6430BE01A2D000000007B
:102CC000096D6F76776D6F76742C0FB5330040CF3A
:102CD0001B02300040CFFFF783FF4FF6FF7110EA71
:102CE000014001D0FFF798FF0FBD0FB5013630004E
:102CF00040CF0023FFF774FFFFF78EFF06E00FB50C
:102D0000013647F8046D0026FFF7B0FF47F8046D61
:102D100044F2807600F014FB0FBD802D000000000F
:102D20000563616C6C2C0FB5330000F0A6FE30001B
:102D300040CF1B1A043BDFF82C151940002906D0A0
:102D4000DFF82425914202D0BDE80F40D7E740CFFD
:102D50005B08DFF8180540F2FF7119400843DB0AF1
:102D600040F2FF311940090408439B0A13F00101A6
:102D70008906084347F8046D060000F012FB0FBDFA
:102D8000B62D00000000086C69746572616C2C003F
:102D900008B547F8046D4FF6470600F0D1FA47F83A
:102DA000046D46F6045600F0CBFA47F8046D06268B
:102DB000FFF75CFF08BDDA2D0000000006637265B6
:102DC0006174650000B500F033F842F6F7508047B3
:102DD00047F8046DBEF1010600BD222E0000200060
:102DE00005646F65733E42F6F750804747F8046DFF
:102DF000BEF10106704747F8046DBEF101064FF0C1
:102E000000521368DFF8681409680220084000D0F7
:102E1000023102311160FFF768FF136000F0CAF958
:102E200000BD642E00000000073C6275696C64738D
:102E300000B500F0AFFB00F020FE0220064040CFBE
:102E400004D047F8046D362600F07AFA47F8046D8E
:102E50004BF2005600F074FA47F8046D0A2600F0B1
:102E6000E3FA00BD702E00005000035B275D03E015
:102E7000882E00000000012700B501F075F900F070
:102E800094FD300040CF00BDBE2E00003000087021
:102E90006F7374706F6E650000B5FFF7EDFF47F854
:102EA000046D060039683E600E46FFF771FFFFF7BC
:102EB0006FFF47F8046DEF4EFFF735FF00BD142F8D
:102EC0000000000007696E6C696E652C00B54BF25E
:102ED00000514BF6005244F270733088884208D09B
:102EE000904208D0984206D047F8046D060000F0E2
:102EF00027FA0236F1E740CF00BD0EB44BF6005280
:102F000044F2707301880230914201D09942F9D1A4
:102F10000EBC70472A2F00000000047265742C005C
:102F200047F8046D4BF600560AE2382F00003000D7
:102F3000046578697400F3E7502F000030000772D1
:102F400065637572736547F8046DC94E3668EAE6C5
:102F5000682F0000810005737461746547F8046D83
:102F6000C54E7047000000007A2F00000000015D90
:102F7000C1480021C943016070478A2F000010003A
:102F8000015BBD48002101607047AA2F00000000CE
:102F9000013A00B5B948076000F0FCFAB6480121D3
:102FA0000160B7480021016000BD283000003008F2
:102FB000013B00B5B1480168B94214D0B1498E4215
:102FC00002D1B14EFFF784FCFFF73AFC1520537491
:102FD00061636B206E6F742062616C616E63656407
:102FE0002E0A01F03BBCA4480068411C10D00B28FD
:102FF00005D847F8046D40F6200600F00EF947F8B2
:10300000046D44F2707600F09BF901F027FB05E0B7
:1030100047F8046D4BF6005600F092F900F0CAF83C
:1030200095480021016000BD3C30000000000765AC
:10303000786563757465300040CF87465430000072
:10304000100009696D6D65646961746547F8046D08
:103050001026E2E06A300000500006696E6C696E6E
:10306000650047F8046D2026D7E08430000010008A
:103070000B636F6D70696C656F6E6C7947F8046DEA
:103080003026CAE09E30000050000A302D666F6C7A
:103090006461626C650047F8046D4026BDE0B8309D
:1030A000000050000A312D666F6C6461626C65002F
:1030B00047F8046D4126B0E0D230000050000A32DB
:1030C0002D666F6C6461626C650047F8046D422682
:1030D000A3E0EC30000050000A332D666F6C646191
:1030E000626C650047F8046D432696E006310000E7
:1030F00050000A342D666F6C6461626C650047F89D
:10310000046D442689E02031000050000A352D6608
:103110006F6C6461626C650047F8046D45267CE065
:103120003A31000050000A362D666F6C6461626CA3
:10313000650047F8046D46266FE0543100005000EA
:103140000A372D666F6C6461626C650047F8046D28
:10315000472662E084310000000008636F6E7374DC
:10316000616E740000B500F015FAFFF711FE47F824
:10317000046D44F2707600F0E3F8FFF78CFF00F086
:1031800019F800BDA631000000000932636F6E73AC
:1031900074616E7400B500F0FDF939683E600E464A
:1031A000FFF7F6FDE1E70A320000000006736D75D7
:1031B0006467650000B54FF0005001684FF00052A1
:1031C00091421CD202390A884FF6FF739A4204D109
:1031D00047F8046D002600F0B3F800F081F82B48A2
:1031E000006847F8046D06002949096804314FF06A
:1031F00000521368116000F0A3F8136000BD00F0E6
:103200006FF847F8046D002608E0943200000000D3
:1032100008736574666C6167730000B54FF0005009
:1032200001684FF00052914205D2184801683143BD
:10323000016040CF00BD320040CF15480068043027
:1032400001884FF6FF73994201D1110000E011434C
:10325000018000BD000040F20000C0F200005FF0FD
:1032600000007FF00100C0FF0000C0FF00F800F088
:103270001400002056450000D87F012010000020D7
:103280005C00002085191204722900002000002033
:1032900004000020B0320000410007616C69676ED5
:1032A00065640120304036180220304036187047DF
:1032B000D432000000000668616C69676E004FF050
:1032C000005001680120014003D047F8046D00263A
:1032D0001AE07047FE320000000005616C69676EFD
:1032E00000B5FFF7ECFF4FF00050016802200140ED
:1032F00004D047F8046D002600F022F800BD3633F4
:103300000000000002632C0000B54FF0005001687F
:103310004FF00052914205D247F8046D0E00FEF7BF
:10332000A8FD02E0320040CF0A7047F8046D012684
:1033300000F07AF800BD7E330000000002682C0027
:103340000FB5B6B288480168002902D0013100D01B
:1033500001604FF0005001684FF00052914205D2D9
:1033600047F8046D0E00FEF735FD02E0320040CF55
:103370000A8047F8046D022600F056F80FBD983316
:1033800000000000012C00B547F8046DFFF7D8FFDE
:10339000360CFFF7D5FF00BDB43300000000033E3C
:1033A0003C2C00B547F8046D360CFFF7C9FFFFF75A
:1033B000C7FF00BD1C340000000007737472696E03
:1033C000672C07B5FF21314040CF300040CF0029A6
:1033D00005D147F8046D0026FFF7B2FF07BD47F897
:1033E000046D067836020E43FFF7AAFF013001395B
:1033F00002290AD347F8046D46783602027816434C
:10340000FFF79EFF02300239F2E7002900D107BD25
:1034100047F8046D0678FFF793FF07BD7C34000082
:10342000000005616C6C6F744FF0005001684FF044
:103430000052914210D2320040CF89184FF4C0227E
:10344000914219D3FFF7FCF90B466C617368206653
:10345000756C6C0A01F002BA320040CF8918434AF9
:103460001268914208D3FFF7EBF90952616D2066AB
:10347000756C6C0A01F0F2B901607047A23400006B
:10348000000009666F7267657472616D00B500F0C7
:1034900028F84FF00050364901603648364901603F
:1034A00000BDCE34000000000D636F6D70696C6567
:1034B000746F72616D3F47F8046D00264FF0005045
:1034C00000684FF0005188424DD3F6437047F23404
:1034D000000000000C636F6D70696C65746F726141
:1034E0006D004FF0005000684FF00051884213D338
:1034F00070478435000000000E636F6D70696C6565
:10350000746F666C617368004FF0005000684FF094
:103510000051884200D270471648184902680B686B
:103520000A6003604FF00050154902680B680A609A
:1035300003600E480068834215D300B5FFF780F999
:1035400023205661726961626C657320636F6C6CD5
:1035500069646520776974682064696374696F6E53
:103560006172790A00BD7047D87F012024000020D5
:103570008C03002004000020940100001C000020A7
:10358000180000207E360000000008286372656184
:103590007465290000B500F0E7FD002E0ED1FFF79D
:1035A0004FF91520437265617465206E656564731B
:1035B000206E616D6520210A01F050B9386847F826
:1035C000046D043F386000F0A7F940CF002E40CFD3
:1035D00011D0386847F8046D043F3860FFF730F9C0
:1035E000095265646566696E6520FFF77DF9FFF72E
:1035F00027F9022E2000FFF773FE4FF000500068FD
:103600004FF00051884220D291480021016000F023
:1036100034FA47F8046D0626FFF706FFFDF7E8FCCD
:10362000FFF7CFFE8B4801680A684FF0FF339A42DC
:1036300008D14FF000521368116047F8046DFFF78E
:10364000A2FE1360066040CF13E000F016FA814836
:1036500047F8046D0668FFF796FE47F8046D4FF6CD
:10366000FF76FFF76DFE7B48310040CF0160FFF72A
:10367000A8FE4FF0005001687748016000BD963603
:1036800000000000087661726961626C650047F8AD
:10369000046D012613E0AE360000000009327661A9
:1036A000726961626C6547F8046D022607E08C3729
:1036B00000000000096E7661726961626C6500B598
:1036C000FFF768FF4FF0005001684FF00052914241
:1036D00034D20F200640B20060480168891A604A5F
:1036E00091420BD2FFF7ACF80F4E6F7420656E6FEE
:1036F0007567682052414D0A01F0B0B8016047F883
:10370000046D0E00FFF744FB47F8046D44F2707639
:10371000FFF716FE300040CF0200002805D00E60F3
:103720000431FFF730FE0138F9D147F8046D8026E7
:103730001643FFF772FDFFF73DFD00BD00F09DF958
:103740000220064040CF04D147F8046D3626FFF72B
:10375000F7FD47F8046D434EFFF723FE47F8046D6D
:10376000414EFFF71EFE47F8046D44F27076FFF7F6
:10377000E7FD300040CF002803D0FFF704FE0138FA
:10378000FBD1FFF788FCFFF715FD00BD6C3800008A
:103790000000076275666665723A00B5FFF7FAFECB
:1037A0000120304036180220304036184FF00050CB
:1037B00001684FF00052914228D228480168891BC5
:1037C000274A91420BD2FFF73BF80F4E6F742065EA
:1037D0006E6F7567682052414D0A01F03FB8016075
:1037E00047F8046D0E00FFF7D3FA47F8046D44F272
:1037F0007076FFF7A5FDFFF7C6FD47F8046D40F2B0
:103800004016FFF70AFDFFF7D5FC00BD00F035F9C3
:103810000220064040CF04D147F8046D3626FFF75A
:103820008FFD47F8046D0F4EFFF7BBFD47F8046DA1
:103830000D4EFFF7B6FD47F8046D44F27076FFF7C2
:103840007FFDFFF7F1FDFFF726FCFFF7B3FC00BD9E
:10385000200000200400002014000020240000208C
:103860008C0300203E60043F02367E469E380000F6
:1038700000000F64696374696F6E617279737461BB
:1038800072744FF0005000684FF0005147F8046D1B
:10389000884201D24B4E70474B4E36687047DA383B
:1038A000000000000E64696374696F6E6172796E66
:1038B0006578740003B531684FF0FF30814207D05E
:1038C0008879FF2804D00E0047F8046D002603BD58
:1038D00047F8046D0026F64303BD0C3900000000D4
:1038E0000A736B6970737472696E670031780131A5
:1038F00001220A4089187618704706B40178013110
:1039000001220A408918401806BC70471E39000081
:1039100000000466696E64002C48006887463A39E6
:103920000000810009686F6F6B2D66696E6447F84F
:10393000046D274E704748390000D439000000005C
:10394000062866696E64290030B500220023350020
:1039500040CF340040CFFFF794FF4FF6FF70B1889F
:10396000884218D047F8046D0636FEF7A5FF47F8E1
:10397000046D260047F8046D2E00FEF7DAFE002ED7
:1039800040CF08D0B01DFFF7B8FF02000B004FF08A
:103990000050824204D2FFF78DFF300040CFDCD0D0
:1039A000160047F8046D1E0030BD00B531003868C0
:1039B00003B4FFF7B1FF03BC3A68002A01D100F05D
:1039C000FBFE00BD9401000004000020D47F012014
:1039D000D47F0120343A0000000006636A756D70E0
:1039E0002C00320040CF310040CF8B1B043B6FF0E6
:1039F000FE01194000290ED06FF0FF0081420AD06D
:103A0000FEF71EFF0D4A756D7020746F6F206661A2
:103A1000720A00F023BF5B10FF210B4013433000FC
:103A20001E0000B54FF0005213681060FFF788FCCD
:103A3000136000BD6E3A00000000056A756D702CC1
:103A4000310040CF300040CF0B1A043BC44919402D
:103A5000002902D0C34A9142D2D15B1040F2FF72DA
:103A6000134053F4604347F8046D1E00D9E7863ACB
:103A70000000000004686572650047F8046D4FF0AF
:103A8000005636687047BC3B000000000D666C6154
:103A900073687661722D6865726547F8046DB24E81
:103AA0003668704700B547F8046D42F60066FFF7C8
:103AB00047FC47F8046D4CF64076FFF741FC00BD2B
:103AC000DBE700B500F03AF839683E600E4647F88B
:103AD000046D4DF20016FFF784FF00BD00B500F045
:103AE0002DF839683E600E4647F8046D4DF20076B9
:103AF000FFF777FF00BD00B5FFF7D4FF00F01EF819
:103B000039683E600E4647F8046D4DF20006FFF737
:103B100068FF00BD00B500F011F839683E600E4640
:103B2000FFF78EFF00BD00B5FFF7BCFFFFF7A5FF55
:103B300047F8046D0226FFF777FC00BD00B5FFF7DC
:103B40009CFF47F8046D0226FFF76EFC00BD00B530
:103B5000FFF793FFFFF774FF00BD00B5FFF78DFF80
:103B600047F8046D4DF20006FFF73BFF00BD00B5BE
:103B7000FFF783FF47F8046D4DF20016FFF731FFA2
:103B800000BD00B5FCF780FCFCF7B8FBFCF7BBFB05
:103B9000FCF7BEFB8168282901D1FCF7BBFCFCF7D0
:103BA000AFFC47F8046D42F6000609020E43FFF72A
:103BB000C7FBFCF76CFBFCF795FB00BDE83B000086
:103BC0003000047468656E00052E01D140CFBEE759
:103BD000F1B200296DD100B5FFF74FFF39683E60A3
:103BE0000E46FFF7FEFE00BD043C000030000465F9
:103BF0006C73650000B500F036F8FCF710FDFFF7B8
:103C0000E3FF00BD5A3C000030060269660000B5C3
:103C1000FFF789FF47F8046D4DF2000600BD00B5BF
:103C2000FCF7C5FCFDF779FD816A002907D002B4D5
:103C3000FCF758FBFFF782FF47F8046D40BDFFF724
:103C4000A0FFFFF71AFF47F8046D0226FFF7ECFB11
:103C500047F8046D4DF2000600BD743C00003000D2
:103C600005616865616400B5FFF768FF47F8046D9A
:103C7000052600BD8E3C000030000672657065614F
:103C8000740000B500F05BF8FFF79EFF00BDD23C6A
:103C900000003006057768696C6500B5FFF7B7FF6F
:103CA000FCF7BDFC00BD00B5FFF7B9FFFCF7B7FCA2
:103CB00000BDFEF7C5FD17537472756374757265A8
:103CC0007320646F6E2774206D617463680A00F05E
:103CD000C5BD323D0000300605756E74696C012E5D
:103CE000E7D140CF07E77047012EE2D140CF00B5C2
:103CF000FDF713FD816A00290DD002B4FCF7F2FA3A
:103D0000FFF71CFF39683E600E4647F8046D40BC63
:103D1000FFF767FE00BDFFF734FFFFF70FFF3968BD
:103D20003E600E4647F8046D4DF20006FFF759FE5F
:103D300000BD463D0000300005616761696E012EDF
:103D4000B7D140CFE6E66C3D000030000562656704
:103D5000696E00B5FFF7B4FE47F8046D012600BD9B
:103D600001F8FFFF00F8FFFF24000020863D00005F
:103D70002002016B47F8046D029E704747F8046DFE
:103D800049F602060BE0B43D00002002016A47F844
:103D9000046D009E704747F8046D49F6000600B5B3
:103DA000FCF76BFAFCF73CFB03601B021E43FFF7BA
:103DB000C7FA00BDE03D00002002016947F8046D2C
:103DC0002600704700B547F8046D40F22006FCF766
:103DD00054FAFCF725FB03601E43FFF7B1FA00BD60
:103DE0001E3E00003000056C6561766500B57548C3
:103DF00001683B00043F1A68043B1A6008338B4299
:103E0000F9D103B4FFF79AFE03BC330040CF043965
:103E10000B60016004390A6801320A6000BD303E5F
:103E20000000200006756E6C6F6F700030BC70472C
:103E3000683E00003000052B6C6F6F70032E00D0C1
:103E400037E740CF00B547F8046D5F4EFFF73EF807
:103E5000FFF744FE1AE014F10044641BA41940CF9C
:103E60002C44A4F100447047AA3E00003000046CCA
:103E70006F6F7000032E00D01BE740CF00B547F8EE
:103E8000046D524EFFF722F8FFF71BFE00F052F9C7
:103E90004C48310040CF016047F8046D4C4EFFF7AD
:103EA00015F800BD0134AC427047F23E000030020C
:103EB00002646F0000B547F8046D464EFFF706F840
:103EC0004048016847F8046D0E0047F8046D00266D
:103ED0000760FFF7F5FD47F8046D032600BD00B548
:103EE00000F02FF8ECE730B4340040CF350040CF7D
:103EF0007047D83F00003002033F646F00B547F8B9
:103F0000046D344EFEF7E2FF47F8046D44F2AC2630
:103F1000FFF716FA2B48016847F8046D0E00FFF70B
:103F20000DFE013647F8046D012626480760FFF7AD
:103F3000C7FD47F8046D032600BD00B500F001F889
:103F4000E2E700B5FCF733FBFCF7A8FAFCF7D6F97B
:103F5000FCF7D9F9FCF7DCF947F8046D4BF2304671
:103F6000FFF7EEF90168282908D047F8046D40F200
:103F70000406C9000E43FFF7E3F907E047F8046DB4
:103F8000466847F8046D0426FEF770FE816828290C
:103F900008D047F8046D40F20506C9000E43FFF74C
:103FA000CFF907E047F8046DC66847F8046D0526A9
:103FB000FEF75CFEFCF76BF9FCF769F9FCF7B2F968
:103FC00000BD00000C000020563E0000A43E000092
:103FD0002C3E0000E63E0000F83F00003000046385
:103FE0006173650000B5FCF7E2FA47F8046D00263E
:103FF00047F8046D082600BD0E4000003000033F66
:104000006F666F4809E0013EB64140CF7047D4402B
:1040100000003002026F66006A48082E00D048E6B1
:1040200040CF00B547F8046D0600FEF74FFFFFF7DD
:1040300085FD39683E600E46013647F8046D092655
:1040400047F8046D4CF64076FFF77AF900BD082E6C
:1040500000D02EE640CF00B5FCF720FAFCF74EF971
:10406000FCF751F9FCF754F947F8046D44F2802647
:10407000FCF750FA0E430268282A1ED14268FF2A34
:1040800008D840CF47F8046D42F6000616430902EF
:104090000E4314E047F8046D4668FEF733FD04CF85
:1040A000002E40CF06D0484E164356EA0146FFF791
:1040B00078F906E0FCF724FA0A00D2001643FFF76D
:1040C0003FF9FCF7E4F8FCF72DF9B0E7300040CFFA
:1040D000B04270470A410000300005656E646F66AB
:1040E000092E00D0E5E540CF00B540B440CFFFF742
:1040F00025FD39683E600E46FFF739FD47F8046D2F
:1041000040BC47F8046D082600BD5C41000030004B
:1041100007656E6463617365082E00D0C9E540CF02
:1041200000B547F8046D4CF64076FFF709F900F04A
:1041300001F800BD00B5300040CF00280DD003B419
:1041400001213140002903D0013EFFF706FD01E0C7
:10415000FFF7FDFC03BC0138EFE700BD7041000034
:10416000000005746F6B656E47F8046D202605E04E
:10417000D4410000000005706172736510B51348EA
:1041800001684068124A12688418202E07D19142B3
:104190000FD0835CB34202D101328418F7E7914219
:1041A00007D0835C0132B342F9D18618361B013E39
:1041B00001E08618361B043F3C600548026010BDD4
:1041C00006400000CC400000000FB0F1DC7F012071
:1041D000E47F0120124200000000056469676974F1
:1041E000CF4B1B68303E0BD30A2E0BD3073E0A2E53
:1041F00006D3242E06D3203E0A2E01D3242E01D32B
:10420000002670479E42FBD247F8046D0026F64315
:1042100070471C4300000000066E756D62657200F9
:104220003FB5310040CF701E0126012204B4BC4BC3
:104230001B680024002500293CD001300139027898
:104240002D2A04D101B00022D24304B4F3E7232A7B
:1042500001D10A23EFE7242A01D11023EBE7252A15
:1042600001D10223E7E72E2A01D10226E3E72C2A17
:1042700036D047F8046D1600FFF7B4FF002E40CF8C
:104280002BD047F8046D260047F8046D2E0047F840
:10429000046D1E0047F8046D00260FB4FCF78FFB79
:1042A0000FBC350040CF340040CF0022A419554147
:1042B00040CFC0E704BC002A04D50022E443ED430C
:1042C0000134554133002600012B02D047F8046D1C
:1042D0002E0047F8046D1E003FBD01B000263FBD13
:1042E0002500002402260029E4D0425C01392E2A50
:1042F000F9D047F8046D1600FFF774FF002E40CF89
:10430000EBD0043F3C6047F8046D1E000FB4FCF78F
:1043100005FC0FBC340040CF40CFE4E73E43000033
:104320000000062E6469676974000A2E01D23036D7
:104330007047242E01D237367047232670477443C6
:104340000000000004686F6C6400330040CF7548C3
:1043500001783F290DD2013101704018012907D0A1
:104360000138027801300270013801390129F7D192
:104370000370704794430000000005686F6C643C54
:10438000330040CF674801783F2902D201310170E4
:1043900043547047AC4300000000047369676E002B
:1043A000002E01D440CF70472D26CEE7C043000039
:1043B000000002233E005B480678013038607047F9
:1043C000D843000000000366235310B5202400F0FA
:1043D00008F8013CFBD110BDFA4300000000026662
:1043E000230000B547F8046D4D4E3668FCF7A9FA76
:1043F000FFF79BFFFFF7C4FF00BD1644000000005D
:104400000223530000B500F00AF8002EFBD13868F3
:104410000028F8D100BD424400000000012300B58F
:1044200047F8046D3E4E366847F8046D0026FCF7E9
:1044300094FBFCF7F4F840CFFFF777FFFFF785FF19
:1044400000BD544400000000023C23003548002118
:104450000170704766440000000002662E0047F8B5
:10446000046D202604E0B4440000000003662E6EB4
:1044700000B510B4340040CFFCF78CFDFCF7E6F932
:1044800047F8046D0026FFF7E1FFFFF7BBFF40CFC1
:104490002C26FFF775FF002C03D0FFF7A2FF013C8D
:1044A000FBD110BC40CFFFF77BFF47F8046D47F806
:1044B000046D1CE0CA44000000000375642E00B5C2
:1044C000FFF7C4FFFFF79EFF11E0FC44000000006F
:1044D00002642E0000B5FCF75DFDFCF7B7F9FFF7AD
:1044E000B5FFFFF78FFFFCF767FDFFF759FFFFF7F9
:1044F00062FFFEF7F9F9FEF752F900BD0E45000024
:10450000000002752E0047F8046D0026D7E7E44648
:1045100000000000012E47F8046DF617DAE70000EE
:10452000FC7F01208400002030B5DC4C2568002D84
:1045300001D13D00256030BD30B5D84C3D0025602F
:1045400030BD30B5D54C0025256030BDD34B1B6840
:10455000DB1B9B08704700B5310040CF4FF4805003
:10456000084002D000F0A6F800BD4FF4806008407B
:1045700001D1FDF78BF8320040CFFFF7D5FF4FF4A4
:104580000050084003D047F8046D160000BDFFF747
:10459000DDFF8020084006D14020084009D00F20D0
:1045A0000840834205D347F8046D1600FEF743FD2B
:1045B00000BD4FF40070084014D0FBF700FE47F830
:1045C000046D160047F8046D0E0000F031F810007D
:1045D000FEF793FC421CB2489047FFF7ADFFFBF794
:1045E000FDFD00BDFBF7EBFD47F8046D160047F835
:1045F000046D0E0000F01CF8FBF774FEFFF7A1FF3E
:104600004FF40060084001D1FBF7D1FF47F8046D7B
:10461000160010220A4002D0FEF70DFD00BD202238
:104620000A4002D0FEF752FC00BDFEF77CFB00BD45
:104630000FB5320040CF330040CF9A4801680629B9
:1046400007D2062041439848401803801B0C438042
:10465000828094480168013101600FBD0FB5914817
:10466000016806291FD8904801391DD047F8046D0C
:104670000E00FEF765FE47F8046D0688FEF760FE43
:1046800047F8046D4688FEF75BFE47F8046D8688A0
:10469000FEF756FE06300139EDD147F8046D41F2C0
:1046A0000006FEF7BAFD0FBD47F8046D4026FEF781
:1046B000B4FD0FBD00B5300040CFFEF71EFC0188F1
:1046C000023047F8046D068842881204164347F802
:1046D000046D868803B4FFF73EFF03BC0630013942
:1046E000EFD100BD2C4700000000086576616C75B5
:1046F0006174650000B5FDF7F0FF01CF01B440B46F
:1047000040CF6A48016802B400210160FDF7D8FF7C
:1047100000F014F8654802BC016047F8046D40BC25
:1047200001BC043F3860FDF7CBFF00BD34480000FA
:10473000000009696E7465727072657400B55C483A
:1047400087420BD9FEF77CF810537461636B2075B8
:104750006E646572666C6F770A007FE05548874229
:104760000AD2FEF76DF80F537461636B206F7665A4
:1047700072666C6F770A71E0FFF7D6FEFFF7F4FC04
:10478000002E02D1043740CF00BD386847F8046DD1
:10479000043F3860FFF7C0F8310040CF320040CF0F
:1047A000002A1BD138683100FCF770FFFFF738FD95
:1047B000320040CF002AC2D147F8046D060047F806
:1047C000046D0E00FEF790F8FEF73AF80C206E6FBD
:1047D0007420666F756E642E0A003FE0364B1B68CE
:1047E000002B1CD1FFF7ADFE30230B40302B0ED138
:1047F000FEF77AF8FEF724F81220697320636F6DD4
:1048000070696C652D6F6E6C792E0A0026E0043796
:1048100040CF47F8046D1600FEF70DFC8FE7043714
:1048200040CF47F8046D160047F8046D0E00FFF7FF
:1048300092FE84E750480000810009686F6F6B2D7D
:104840007175697447F8046D1C4E70478848000004
:10485000D04800000000047175697400DFF860D072
:10486000134F18480A2101601348002101600B48CA
:104870000160FBF77EFD0D4801601348016013499C
:1048800041600E4800688746FDF735FFFFF756FF89
:10489000FDF7D6FF05206F6B2E0AF5E70800002014
:1048A000280000205C00002060000020E47F012040
:1048B0008C0200208C010020D87F0120D07F0120B5
:1048C0008C030020FC7F0120DC7F0120C40000203D
:1048D000EA48000000000565696E743F47F8046D02
:1048E000EFF31086013EB6417047FA480000200001
:1048F0000465696E740062B670470A4900002000C2
:104900000464696E740072B670472049000020008C
:1049100004697073720047F8046DEFF30586704701
:104920002C4900000000036E6F7070476E49000054
:10493000000009756E68616E646C656400B5FDF712
:104940007FFF14556E68616E646C656420496E74F7
:10495000657272757074200047F8046DEFF3058678
:10496000FDF7D6FFFDF76CFF02210A0000BD80496C
:1049700000000000057265736574C948C94901608B
:10498000AA49000081000B6972712D7379737469F3
:10499000636B47F8046DC44E70473C49000047F60E
:1049A000CC70C2F2010000688746D2490000810045
:1049B000096972712D6661756C7447F8046DBB4EA0
:1049C00070473C49000047F6C870C2F20100006819
:1049D0008746004A000081000E6972712D636F6C7A
:1049E0006C656374696F6E0047F8046DB04E704774
:1049F0003C49000047F6C470C2F2010000688746D7
:104A0000284A00008100096972712D657874693047
:104A100047F8046DA74E70473C49000047F6C07048
:104A2000C2F2010000688746504A0000810009690F
:104A300072712D657874693147F8046D9E4E704728
:104A40003C49000047F6BC70C2F20100006887468E
:104A5000784A00008100096972712D6578746932A5
:104A600047F8046D954E70473C49000047F6B87012
:104A7000C2F2010000688746A04A0000810009696F
:104A800072712D657874693347F8046D8C4E7047E8
:104A90003C49000047F6B470C2F201000068874646
:104AA000C84A00008100096972712D657874693403
:104AB00047F8046D834E70473C49000047F6B070DC
:104AC000C2F2010000688746EE4A000081000769D3
:104AD00072712D61646347F8046D7B4E70473C49E9
:104AE000000047F6AC70C2F2010000688746164B22
:104AF00000008100086972712D74696D320047F8F9
:104B0000046D724E70473C49000047F6A870C2F22F
:104B10000100006887463E4B000081000869727101
:104B20002D74696D330047F8046D694E70473C4938
:104B3000000047F6A470C2F2010000688746664B89
:104B400000008100086972712D74696D340047F8A6
:104B5000046D604E70473C49000047F6A070C2F2F9
:104B600001000068874600800000FFFF182D2D2DF2
:104B700020466C6173682044696374696F6E61726A
:104B800079202D2D2D00FDF7EDFC53488546534F20
:104B90002A264FF0005050490160514851490160A8
:104BA00047F8046D4F4E504DB1884FF6FF73994250
:104BB00025D04FF480730B400AD0B01DFEF79DFE48
:104BC000FEF79BF90388408800040343ED1A16E0C2
:104BD00080230B4013D00F23194089006D1AB01D9C
:104BE000FEF78BFEFEF789F947F8046D060047F8DB
:104BF000046D2E0047F8046D0E00FCF70DFEFEF765
:104C000059FE300040CFCFD03848066040CF3848FA
:104C100005604FF4C0204FF400414FF6FF72884208
:104C200004D0023803889342F9D002303149086039
:104C3000FDF706FE3C4D6563726973702D53746514
:104C40006C6C6172697320524120322E352E3220F5
:104C5000666F722053544D33324634303143442012
:104C60006279204D61747468696173204B6F636869
:104C70000A00214800210160FBF77BFB47F8046D27
:104C80001E4E47F8046D0426FEF746FE40CF002E68
:104C900002D0FEF7D0F9F4E540CFDFE5696E697424
:104CA0000CED00E00400FA05CC7F0120C87F012054
:104CB000C47F0120C07F0120BC7F0120B87F01207C
:104CC000B47F0120B07F0120AC7F0120A87F0120AC
:104CD000A47F0120A07F01208C0300208C020020F3
:104CE0000400002094010000008001201C0000202E
:104CF0002400002018000020080000209C4C000028
:0400000508000000EF
:00000001FF
