:020000040800F2
:1000000030030020FB3B00003B3A00003B3A00007D
:100010003B3A00003B3A00003B3A00000000000081
:10002000000000000000000000000000693A00002D
:10003000693A000000000000693A0000133A00002D
:10004000693A0000693A0000693A0000693A000024
:10005000693A0000693A0000913A0000B93A00009C
:10006000E13A0000093B0000313B0000693A000022
:10007000693A0000693A0000693A0000693A0000F4
:10008000693A0000693A0000573B0000693A0000F5
:10009000693A0000693A0000693A0000693A0000D4
:1000A000693A0000693A0000693A0000693A0000C4
:1000B0007F3B0000A73B0000CF3B0000693A0000F7
:1000C000693A0000693A0000693A0000693A0000A4
:1000D000693A0000693A0000693A0000693A000094
:1000E000693A0000693A0000693A0000693A000084
:1000F000693A0000693A0000693A0000693A000074
:10010000693A0000693A0000693A0000693A000063
:10011000693A0000693A0000693A0000693A000053
:10012000693A0000693A0000693A0000693A000043
:10013000693A0000693A0000693A0000693A000033
:10014000693A0000693A0000693A0000693A000023
:10015000693A0000693A0000693A0000693A000013
:10016000693A0000693A0000693A0000693A000003
:10017000693A0000693A0000693A0000693A0000F3
:10018000693A0000693A0000693A0000693A0000E3
:10019000693A0000693A0000693A0000693A0000D3
:1001A000693A0000693A0000693A0000D201000093
:1001B000FFFF1E2D2D2D204D6563726973702D5329
:1001C00074656C6C6172697320436F7265202D2DAC
:1001D0002D00EA01000042000432647570003868A6
:1001E00047F8046D043F38607047FC01000062006E
:1001F000053264726F70043740CF70471A020000F6
:10020000440005327377617007CF043F386047F8C8
:10021000046D043F3A600E0070472E020000620039
:1002200004326E69700007CF043F3860704748029F
:100230000000440005326F766572B86847F8046DB7
:10024000043F3860FE6870476C02000044000532CD
:100250007475636B07CF043F386047F8046D043F43
:100260003A60043F3960043F386070478E020000F6
:1002700046000432726F74003868B9683A69B86031
:1002800039613A6079687E60FE68F9607047B00253
:100290000000460005322D726F743868B9683A69FB
:1002A00038613960BA60F968FE607E6879607047CD
:1002B000C4020000200003323E7201CF01B440B4FA
:1002C00040CF7047DC02000020000332723E47F846
:1002D000046D40BC01BC043F38607047F40200006C
:1002E00020000332724047F8046D019E47F8046D08
:1002F000009E704706030000200006327264726F91
:10030000700002B070471E03000042000364322FE9
:100310003868F107761040080843386070473203A8
:10032000000062000364322A3868001876413860A1
:1003300070474C0300004200046473687200386820
:10034000F1077608400808433860704762030000F0
:100350006200046473686C00386800187641386085
:100360007047740300004200046461627300002E51
:1003700007D4704792030000420007646E6567610E
:10038000746538680021C043F64301304E4138603F
:100390007047AA030000640002642D0007CF121A00
:1003A000B1410E00043F3A607047C0030000640092
:1003B00002642B0007CF12184E41043F3A60704789
:1003C000D2030000610003733E6447F8046DF61722
:1003D0007047E6030000620003756D2A3868A0FBD1
:1003E000060638607047FA0300006200026D2A00BA
:1003F000386880FB06063860704738040000440007
:100400000375642A07CF564341437618010C130C39
:1004100059437618010C80B292B251434343504382
:100420000022C91852411204B6180A04090C801897
:100430004E41043F38607047CA0400004400047510
:10044000646D2A0010B5002447F8046D7E6847F8F3
:10045000046D3E69FFF7C2FF310040CF300040CF4E
:1004600047F8046D3E6847F8046DFE6803B4FFF773
:10047000B5FF03BC330040CF320040CF47F8046DD6
:100480003E6847F8046D3E690FB4FFF7A7FF0FBC45
:100490009219634140CF89196241634140CF47F8C7
:1004A000046D7E6847F8046DFE680FB4FFF796FF91
:1004B0000FBC9219634140CF89196241634140CF1B
:1004C0001E003A607960B86010BDEC040000430083
:1004D000022A2F0000B540B440CFFFF789FF47F84C
:1004E000046D40BC00F04CF8043700BD0E05000060
:1004F0004300052A2F6D6F6400B540B440CFFFF76D
:1005000077FF47F8046D40BC00F03AF800BD3005B5
:100510000000430003752A2F00B540B440CFFFF719
:100520005DFF47F8046D40BC00F01BF8043700BDC8
:1005300054050000430006752A2F6D6F640000B556
:1005400040B440CFFFF74AFF47F8046D40BC00F0CD
:1005500008F800BD74050000430006756D2F6D6F2F
:10056000640000B547F8046D002600F019F840CF8C
:10057000043700BD920500004300056D2F6D6F64C8
:1005800000B547F8046DF61700F032F840CF043795
:1005900000BDE405000044000675642F6D6F640023
:1005A00030B4002300227968B86835003C684026E2
:1005B0004000494152415B41AB4202D804D3A242C0
:1005C00002D3121BAB410130013EF1D10E00386065
:1005D0007B60BA6030BC704730B400237A68B96879
:1005E0000020E2E75A060000440005642F6D6F64A6
:1005F00000B5F01719D0FFF7C4FEFFF705FEF0179E
:100600000CD0FFF7BEFEFFF7FFFDFFF7C9FFFFF7B6
:10061000FBFDFFF7B6FEFFF7F7FD00BDFFF7F4FDAA
:10062000FFF7BEFFFFF7ADFE00BDFFF7EDFDF017D2
:100630000ED0FFF7A6FEFFF7E7FDFFF7B1FFFFF7CC
:10064000A0FEFFF7E1FDFFF79CFEFFF7DDFD00BD1B
:10065000FFF7DAFDFFF7A4FF00BD700600004400BD
:1006600002642F0000B5FFF7C3FFFFF7DCFD00BDFC
:10067000B8060000440002662A0000B5F0170DD04D
:10068000FFF77FFEFFF7C0FDF0170DD0FFF779FEF3
:10069000FFF7D8FE40CF01CF386000BDFFF7B4FDB3
:1006A000F017F5D0FFF76DFEFFF7CCFE40CF01CF7E
:1006B0003860FFF766FE00BD0407000044000266D4
:1006C0002F0000B5F0170ED0FFF75BFEFFF79CFD83
:1006D000F0170ED0FFF755FEFFF796FDFFF77CFFF2
:1006E000FFF7A1FD00BDFFF78FFDF017F4D0FFF776
:1006F00048FEFFF789FDFFF76FFFFFF742FEFFF7A8
:1007000092FD00BD1807000020000232210006CF34
:100710003160726040CF70472C0700002000023229
:100720004000043F70683860366870474C0700002E
:1007300044000364753C07CF8E4204D801D1904237
:1007400001D8002670470026F64370476C0700006A
:1007500044000364753E07CFB14204D801D1824200
:1007600001D8002670470026F64370478C0700002A
:10077000440002643C0007CF8E4204DC01D1904269
:1007800001DC002670470026F6437047AC070000E6
:10079000440002643E0007CFB14204DC01D1824232
:1007A00001DC002670470026F6437047BC070000B6
:1007B00062000364303C0437F6177047D00700002E
:1007C00062000364303D01CF0643013EB6417047ED
:1007D000EA070000440003643C3E07CF50404E400F
:1007E0000643013EB641F64370470208000044004C
:1007F00002643D0007CF50404E400643013EB641E3
:1008000070471408000020000373704047F8046D1F
:100810003E00704724080000200003737021370059
:1008200040CF70473608000020000372704047F840
:10083000046D6E4670474608000020000372702168
:10084000B54640CF704756080000610003647570DC
:1008500047F8046D70476608000061000464726F19
:10086000700040CF70477C0800006100043F647551
:100870007000002E01D047F8046D7047900800000A
:10088000620004737761700039683E600E00704743
:100890009E0800006200036E697004377047B2085A
:1008A00000006200046F7665720047F8046D7E6890
:1008B0007047C80800006200047475636B0001CFC4
:1008C000083F7E6038607047DE08000063000372F6
:1008D0006F7403CF083F78603E600E007047F608E3
:1008E00000006300042D726F740003CF083F7E6028
:1008F0003960060070470809000020000470696331
:100900006B0057F82660704720090000000005645E
:1009100065707468BC49C91B47F8046D8E08704740
:100920003C0900000000067264657074680047F8B6
:10093000046D6E46B549891B8E0870474C0900004E
:100940002000023E720040B440CF70475E090000B4
:10095000200002723E0047F8046D40BC70477009E9
:10096000000020000272400047F8046D009E7047AE
:10097000800900002000057264726F7001B070473A
:1009800094090000200005727069636BB6006E4424
:1009900036687047AA0900006E0003616E6401CFDB
:1009A000064070470640000616F0C20900006E00BF
:1009B0000362696301CFB0430600704786430006B7
:1009C00036F0D80900006E00026F720001CF0643B6
:1009D00070470643000656F0EE0900006E000378EB
:1009E0006F7201CF464070474640000696F0FC0902
:1009F00000006100036E6F74F64370470C0A00003C
:100A0000610003636C7AB6FA86F670471A0A000032
:100A100061000373687276087047280A000061005D
:100A20000373686C76007047380A00006100037237
:100A30006F725FEA760670474A0A0000610003722F
:100A40006F6CB61956F100067047640A00006C001E
:100A5000067273686966740001CFF0400600704743
:100A6000360800267E0A00006C0007617273686910
:100A7000667401CF3041060070473610F617980AA9
:100A800000006C00066C73686966740001CFB040AA
:100A90000600704736000026A80A000061000230F8
:100AA0003D00013EB6417047BA0A000061000330C4
:100AB0003C3E013EB641F6437047C80A0000610063
:100AC00002303C00F6177047DE0A00006000047434
:100AD0007275650047F8046D0026F6437047F20A08
:100AE000000060000566616C736547F8046D0026C0
:100AF0007047060B00004200023E3D0001CFB042AD
:100B0000EADA002670471A0B00004200023C3D0062
:100B100001CFB042E0DD002670472C0B0000420000
:100B2000013C01CFB042D7DB002670473E0B0000EE
:100B30004200013E01CFB042CEDC00267047520B8E
:100B40000000620003753E3D01CF861BB641F643AF
:100B50007047660B0000620003753C3D01CF361AFA
:100B6000B641F6437047780B0000620002753C0006
:100B700001CF861BB64170478A0B000062000275E8
:100B80003E0001CF361AB6417047A00B00006B0043
:100B9000023C3E0001CF361A013EB641F643704793
:100BA000B20B00006B00013D01CF361A013EB64189
:100BB0007047C60B00006200036D696E01CFB04242
:100BC00000DC06007047DA0B00006200036D6178FC
:100BD00001CFB04200DB06007047F00B000062005E
:100BE00004756D61780001CFB04200D306007047F4
:100BF000100C0000620004756D696E0001CFB042F8
:100C000000D80600704700003002002030030020AA
:100C10004E0C00000000046D6F76650007B53100D2
:100C200040CF320040CF00290FD0B2420DD006D3C2
:100C3000013E013A705C50540139FBD105E0307837
:100C40001070013601320139F9D140CF07BD700C67
:100C5000000000000466696C6C00300040CF310079
:100C600040CF002902D001397054FCD140CF7047E9
:100C70007C0C00002000014036687047940C000096
:100C80006D00012103CF30600E0070470660704791
:100C900001607047BA0C00006D00022B210003CFE9
:100CA0003268121832600E007047026892190260B2
:100CB00070470268521802607047C80C000020009C
:100CC0000268400036887047E20C00006D00026840
:100CD000210003CF30800E007047068070470180EE
:100CE0007047080D00006D0003682B2103CF328888
:100CF000121832800E0070470288921902807047E5
:100D00000288521802807047160D0000200002630E
:100D1000400036787047300D00006D0002632100FE
:100D200003CF30700E007047067070470170704737
:100D3000560D00006D0003632B2103CF327812188B
:100D400032700E0070470278921902707047027874
:100D50005218027070477E0D00006D0004626973C6
:100D6000210003CF3268024332600E0070470268F0
:100D700032430260704702680A4302607047A60D62
:100D800000006D0004626963210003CF3268824372
:100D900032600E0070470268B2430260704702681A
:100DA0008A4302607047CE0D00006D0004786F72B8
:100DB000210003CF3268424032600E007047026863
:100DC00072400260704702684A40026070473A0E03
:100DD0000000680004626974400001CF3668064074
:100DE00018BF4FF0FF367047DFF8102600B5012B13
:100DF0000AD147F8046D002601F096F847F8046D13
:100E0000160001F0DFFB11E002CF013B02F03DFDD7
:100E100047F8046D3626164301F0D4FB47F8046DFD
:100E20000E0047F8046D002601F07EF847F8046DC7
:100E3000DFF8CC6501F0ACF900BD620E00006D007A
:100E400005686269732103CF3288024332800E0045
:100E50007047028832430280704702880A4302804A
:100E600070478A0E00006D0005686269632103CF38
:100E70003288824332800E0070470288B24302807B
:100E8000704702888A4302807047B20E00006D00EE
:100E90000568786F722103CF3288424032800E009D
:100EA0007047028872400280704702884A40028080
:100EB0007047D20E0000680005686269744001CF77
:100EC0003688064018BF4FF0FF367047DFF83425EC
:100ED0008CE7FA0E00006D0005636269732103CF91
:100EE0003278024332700E0070470278324302704B
:100EF000704702780A4302707047220F00006D00AD
:100F000005636269632103CF3278824332700E0039
:100F100070470278B2430270704702788A430270C9
:100F200070474A0F00006D000563786F722103CF90
:100F30003278424032700E00704702787240027080
:100F4000704702784A40027070476A0F00006800DC
:100F500005636269744001CF3678064018BF4FF0D0
:100F6000FF367047DFF8A02440E77A0F00006100E9
:100F70000563656C6C2B043670478A0F00006100B6
:100F80000563656C6C73B600704734100000000098
:100F90000768666C61736821300040CF310040CF34
:100FA000DFF8683498422BD3DFF86434984227D2B4
:100FB000DFF860341940994221D010F00102002A74
:100FC0001ED102889A421BD110F10060DFF848243C
:100FD000DFF848341360DFF848341360DFF8442446
:100FE000DFF8443413600180DFF84024136813F401
:100FF0008033FBD1DFF82C24DFF8343413607047E2
:1010000000F099FD2A57726F6E6720616464726503
:101010007373206F72206461746120666F72207731
:10102000726974696E6720666C61736820210A00BA
:1010300002F052BC8C10000000000763666C617304
:101040006821300040CF310040CFF04B9842D7D3D9
:10105000EF4B9842D4D211F0FF01FF2915D002784E
:10106000FF2ACDD110F10060EB4AEC4B1360EC4B42
:101070001360EC4AEF4B13600170EC4A136813F4F1
:101080008033FBD1E74AEA4B13607047121100002E
:101090000000106572617365666C617368736563E7
:1010A000746F720000B5012E31D31C2E2FD20C2E7E
:1010B0002DD00D2E2BD00E2E29D00F2E27D0D64A74
:1010C000D64B1360D64B136000F035FD0D457261B1
:1010D000736520736563746F722047F8046D02F0C6
:1010E00050FAD04AD44BF60033431360CF4A13680A
:1010F00013F48033FBD1CB4ACD4B136000F01BFDC2
:101100000C66726F6D20466C6173682E0A0040CFCA
:1011100000BDF414000000000A6572617365666C1E
:101120006173680072B600B5C448C5490268B2F17F
:10113000FF3F05D047F8046D0126FFF7B3FF02E03B
:1011400004308842F2D3BF48BF490268B2F1FF3F82
:1011500005D047F8046D0226FFF7A4FF02E0043033
:101160008842F2D3B948BA490268B2F1FF3F05D0CC
:1011700047F8046D0326FFF795FF02E0043088422C
:10118000F2D3B448B4490268B2F1FF3F05D047F842
:10119000046D0426FFF786FF02E004308842F2D394
:1011A000AE48AF490268B2F1FF3F05D047F8046D81
:1011B0000526FFF777FF02E004308842F2D3A94802
:1011C000A9490268B2F1FF3F05D047F8046D062631
:1011D000FFF768FF02E004308842F2D3A348A44935
:1011E0000268B2F1FF3F05D047F8046D0726FFF70C
:1011F00059FF02E004308842F2D39E489E490268BB
:10120000B2F1FF3F05D047F8046D0826FFF74AFF0B
:1012100002E004308842F2D3984899490268B2F15A
:10122000FF3F05D047F8046D0926FFF73BFF02E0BA
:1012300004308842F2D3934893490268B2F1FF3FE9
:1012400005D047F8046D0A26FFF72CFF02E00430B2
:101250008842F2D38D488E490268B2F1FF3F05D033
:1012600047F8046D0B26FFF71DFF02E004308842AB
:10127000F2D3884888490268B2F1FF3F05D047F8A9
:10128000046D1026FFF70EFF02E004308842F2D30F
:10129000824883490268B2F1FF3F05D047F8046DE8
:1012A0001126FFF7FFFE02E004308842F2D37D48AA
:1012B0007D490268B2F1FF3F05D047F8046D122660
:1012C000FFF7F0FE02E004308842F2D37748784915
:1012D0000268B2F1FF3F05D047F8046D1326FFF70F
:1012E000E1FE02E004308842F2D37248724902689B
:1012F000B2F1FF3F05D047F8046D1426FFF7D2FE88
:1013000002E004308842F2D36C486D490268B2F1C1
:10131000FF3F05D047F8046D1526FFF7C3FE02E036
:1013200004308842F2D3674867490268B2F1FF3F50
:1013300005D047F8046D1626FFF7B4FE02E004302E
:101340008842F2D3614862490268B2F1FF3F05D09A
:1013500047F8046D1726FFF7A5FE02E00430884227
:10136000F2D35C485C490268B2F1FF3F05D047F810
:10137000046D1826FFF796FE02E004308842F2D38F
:10138000564857490268B2F1FF3F05D047F8046D4F
:101390001926FFF787FE02E004308842F2D3514855
:1013A00051490268B2F1FF3F05D047F8046D1A2693
:1013B000FFF778FE02E004308842F2D34B484C49F4
:1013C0000268B2F1FF3F05D047F8046D1B26FFF716
:1013D00069FE02E004308842F2D300F0ACFB124612
:1013E000696E69736865642E205265736574202187
:1013F0000A005DF804EB62B602F0F9BA006800007A
:10140000DE0D0000008800000078000000400000B1
:1014100000002000FFFF0000043C0240230167455C
:10142000AB89EFCD103C0240010100000C3C0240B2
:1014300000000080010000000200010000400008E0
:10144000FF7F000800800008FFBF000800C0000800
:10145000FFFF000800000108FFFF0108000002086C
:10146000FFFF030800000408FFFF0508000006084E
:10147000FFFF070800000808FFFF090800000A082E
:10148000FFFF0B0800000C08FFFF0D0800000E080E
:10149000FFFF0F0800001008FF3F10080040100871
:1014A000FF7F100800801008FFBF100800C0100860
:1014B000FFFF100800001108FFFF110800001208CC
:1014C000FFFF130800001408FFFF150800001608AE
:1014D000FFFF170800001808FFFF190800001A088E
:1014E000FFFF1B0800001C08FFFF1D0800001E086E
:1014F000FFFF1F080A1500006900012B01CF3618F5
:10150000704736180036000616F1201500006900F5
:10151000012D01CF861B7047361A003E0006B6F13A
:101520002E150000610002312D00013E70473C1570
:101530000000610002312B00013670474A1500009F
:10154000610002322D00023E704758150000610014
:1015500002322B00023670476A1500006100066EE9
:10156000656761746500764270477C150000610014
:1015700003616273F0173618464070479A150000F1
:10158000420005752F6D6F6401CF3100B0FBF6F698
:101590007143401A043F38607047B815000042009C
:1015A000042F6D6F640001CF310090FBF6F671439C
:1015B000401A043F38607047CC1500004200036DAC
:1015C0006F6400B5FFF7EFFF40CF00BDDC150000F2
:1015D0006200012F01CF90FBF6F67047EC1500007A
:1015E0006A00012A01CF464370474643FA150000BE
:1015F000610002322A007600704708160000610080
:1016000002322F00761070471C160000610004653E
:1016100076656E00012030403618704734160000A1
:10162000810004626173650047F8046D8E4E704757
:101630000A0000004A16000000000662696E61722E
:10164000790089480221016070476016000000009F
:1016500007646563696D616C83480A2101607047A6
:10166000721600000000036865787F481021016051
:1016700070478E160000810009686F6F6B2D656DD5
:10168000697447F8046D794E704778170000AA1600
:101690000000810008686F6F6B2D6B65790047F85B
:1016A000046D734E70479E170000C816000081003D
:1016B0000A686F6F6B2D656D69743F0047F8046DA4
:1016C0006C4E7047C8170000E416000081000968DE
:1016D0006F6F6B2D6B65793F47F8046D664E7047F1
:1016E000F41700000217000081000A686F6F6B2D6D
:1016F00070617573650047F8046D604E70479E39E0
:10170000000018170000000004656D6974000FB533
:10171000564800F026F80FBD2C1700000000036BA0
:1017200065790FB5524800F01CF80FBD3E17000058
:10173000000005656D69743F4E4800688746501784
:1017400000000000046B65793F004B480068874645
:1017500066170000000005706175736547480068F2
:101760008746006887468C17000000000B7365727F
:1017700069616C2D656D697400B500F025F8002E67
:1017800040CFFAD03E4A167040CF00BDB4170000DB
:1017900000000A73657269616C2D6B65790000B594
:1017A00000F028F8002E40CFFAD047F8046D344AF4
:1017B000167800BDE217000000000C7365726961C5
:1017C0006C2D656D69743F0000B5FFF7C7FF47F8E2
:1017D000046D00262B4801688020014000D0F643AC
:1017E00000BDB818000000000B73657269616C2DB4
:1017F0006B65793F00B5FFF7B1FF47F8046D002630
:10180000204801682020014000D0F64300BD1E4959
:101810004FF480300860086810F40030FBD01B499A
:101820004FF0010008601849086820F001000860C6
:1018300070471749174808601749086840F4201096
:101840000860164916480860164917480860174985
:1018500046200860164917480860704700B5FFF732
:10186000D6FFFFF7E6FF00BDFCFF0220F8FF0220D5
:10187000F4FF0220F0FF0220ECFF0220E8FF02202C
:1018800004100140001001400038024008380240B6
:1018900030380240FF0710000000024024000240E0
:1018A000700700004438024010000000081001409A
:1018B0000C1001400C200000DC1800000000076341
:1018C00065787065637400B5386801B401303860BC
:1018D00000F00BF801BC067040CF00BD52190000AB
:1018E0000000066163636570740000B502CF0139C2
:1018F0000022FFF716FF300040CF7F2809D02028B4
:1019000019D2092816D00A281FD00D281DD0082862
:10191000EFD1002AEDD000F00EF903082008002ACC
:10192000E7D0885C013A80230340E2D040230340A3
:10193000F5D0DEE72020B242DBD247F8046D060086
:10194000FFF7E5FE01328854D3E7160000F0A2F855
:1019500000BD6419000040000374696247F8046D1B
:10196000294E70477A1900008100033E696E47F8DE
:10197000046D264E704700000000A0190000820090
:101980000E63757272656E742D736F757263650088
:1019900047F8046D1E4E70470000000068000020EC
:1019A000BC190000000009736574736F757263657C
:1019B000174802CF0660416040CF7047DA19000037
:1019C000000006736F757263650047F8046D104E72
:1019D000043F7068386036687047141A00000000D1
:1019E0000571756572790FB5084800210160FFF730
:1019F000B5FF47F8046D47F8046DC826FFF775FF7B
:101A0000FFF7D6FF0FBD000068000020E4FF0220B2
:101A1000DCFF0220621A0000000007636F6D706136
:101A200072650FB5310040CF01CF884202D040CF60
:101A300000260FBD02CF002810D001380A5C335CAD
:101A4000412A02D35B2A38BF2032412B02D35B2BC1
:101A500038BF20339A42EED000260FBD0026F64351
:101A60000FBD761A000000000263720000B500F09E
:101A700062F8010A00BD881A0000000002626C00D2
:101A800047F8046D202670479C1A0000000005737B
:101A90007061636547F8046D202638E6BC1A0000C3
:101AA0000000067370616365730000B5002E03DDEE
:101AB000FFF7F0FF013EFBD140CF00BDCC1A000084
:101AC0005000065B636861725D0005E0E41A000087
:101AD000000004636861720000B501F075FB40CF3F
:101AE000367800BDF41A00005000012847F8046D54
:101AF000292606E00E1B00005000015C47F8046D2B
:101B0000002600B501F06AFB043740CF00BD521B30
:101B100000001000022E22009B4800B547F8046D1B
:101B2000060000F05EFA47F8046D222601F056FB2D
:101B300000F080FD00BD0AB447F8046D7646013E12
:101B400033780121013319405B181EEB030E0ABCE8
:101B500039E0781B00001000026322008B48DCE7AC
:101B600047F8046D7646013E337801210133194070
:101B70005B181EEB030E7047A21B000010000273DF
:101B800022008348C9E747F8046D764647F8046D9C
:101B9000013E36780121731C19405B181EEB030EC1
:101BA0007047BA1B0000000005636F756E74013644
:101BB00047F8046D013E36787047E21B00000000D4
:101BC00005637479706501B53078002807D0013657
:101BD00047F8046D3678FFF79AFD0138F7D140CF0A
:101BE00001BD101C00000000047479706500310014
:101BF00040CF300040CF00B5002908D0002247F880
:101C0000046D865CFFF783FD01329142F7D100BD80
:101C10004A1C00000000046865782E0007B53100FA
:101C200040CF20200F22043847F8046D0E00C64034
:101C30001640092E01D9373600E03036FFF767FD30
:101C40000028F0D1FFF726FF07BD5A1C0000000056
:101C500003682E731FB54F4C0EE06A1C0000000095
:101C600003752E731FB54C4C06E0E81C0000000005
:101C7000022E73001FB5494C4949C91B8908494ABE
:101C8000106803B40A201060FFF755FF0853746111
:101C9000636B3A205B0047F8046D0E0001F079FC9D
:101CA000FFF749FF025D200003BC3E4A1060002997
:101CB0000AD03D4A106806B447F8046D0600A047F4
:101CC00006BC043A0139F5D1FFF735FF0620544F21
:101CD000533A200047F8046D3600A047FFF72BFF6A
:101CE00004202A3E0A001FBDAC1D0000000005773D
:101CF0006F72647300B5FFF71EFF010A00F0D7FE94
:101D0000FFF719FF09416464726573733A2047F85D
:101D1000046DFFF783FFFFF70EFF064C696E6B3A09
:101D2000200047F8046D3668FFF778FFFFF703FFE0
:101D300007466C6167733A2047F8046DB688FFF771
:101D40006DFFFFF7F8FE06436F64653A2000B01D93
:101D500000F0E6FE47F8046D0600FFF75FFFFFF7AF
:101D6000EAFE064E616D653A200047F8046D0636BE
:101D7000FFF729FFFFF7DFFE010A00F0AFFE30009A
:101D800040CFBDD040CF00BD361B0000601B00001F
:101D9000861B00001D1C00008335000093350000E9
:101DA00030020020FCFF02202C020020101F000047
:101DB00000000D3132626974656E636F64696E672D
:101DC0000FB5FF2E04D847F8046D5FF0FF360FBD46
:101DD00016F0FF10B0420ED14FF6FF710840310CE3
:101DE000814208D116F0FF0656F4805647F8046D7C
:101DF0005FF0FF360FBD16F0FF20B0420FD14FF657
:101E0000FF710840310C814209D1360A16F0FF06F5
:101E100056F4005647F8046D5FF0FF360FBDFF2201
:101E200031001140300A1040884210D1300C10406F
:101E300088420CD1300E1040884208D116F0FF06BF
:101E400056F4405647F8046D5FF0FF360FBD300082
:101E500000210131001850F100007FF07F020240A4
:101E6000802A05D01F29F4D347F8046D00260FBD42
:101E70000829F9D3060036F0800611F00100C001F0
:101E8000064311F00E00C002064311F01000800559
:101E9000064347F8046D5FF0FF360FBD47F8046D49
:101EA000DFF838665FF4704110EA01021201164350
:101EB0005FF4006110EA0102D20316435FF4E061AF
:101EC00010EA010212011643FF2110EA0102164333
:101ED0001E439FE347F8046DDFF804665FF070412E
:101EE00010EA0102120B16435FF0006110EA0102D2
:101EF000520816435FF0E06110EA0102120B16432C
:101F00005FF47F0110EA0102120C16431E4381E3C5
:101F1000761F000000001072656769737465726C4B
:101F200069746572616C2C000FB5330040CF1B02E1
:101F3000FF2E05D856F400561E4300F043FB0FBD9C
:101F4000FFF73EFF002E40CF06D0DFF8980506438E
:101F50001E4300F05FFB0FBDF643FFF731FF002E7D
:101F600040CF06D0DFF8800506431E4300F052FB49
:101F70000FBDF6430BE0D61F00000000096D6F7621
:101F8000776D6F76742C0FB5330040CF1B02300095
:101F900040CFFFF783FF4FF6FF7110EA014001D0F9
:101FA000FFF798FF0FBD0FB50136300040CF00237B
:101FB000FFF774FFFFF78EFF06E00FB5013647F815
:101FC000046D0026FFF7B0FF47F8046D44F28076F9
:101FD00000F0F8FA0FBD3C20000000000563616CC2
:101FE0006C2C0FB5330000F033FE300040CF1B1ACD
:101FF000043BDFF8F8141940002906D0DFF8F0247C
:10200000914202D0BDE80F40D7E740CF5B08DFF830
:10201000E40440F2FF7119400843DB0A40F2FF314B
:102020001940090408439B0A13F00101890608437B
:1020300047F8046D060000F0EDFA0FBD72200000B5
:102040000000086C69746572616C2C0008B547F873
:10205000046D4FF6470600F0B5FA47F8046D46F6F2
:10206000045600F0AFFA47F8046D0626FFF75CFF50
:1020700008BD96200000000006637265617465006B
:1020800000B500F033F842F2B300804747F8046D22
:10209000BEF1010600BDDE200000200005646F6572
:1020A000733E42F2B300804747F8046DBEF101066B
:1020B000704747F8046DBEF10106DFF83C24136851
:1020C000DFF8381409680220084000D002310231DC
:1020D0001160FFF768FF136000F0B7F900BD202121
:1020E00000000000073C6275696C647300B500F085
:1020F0006BFB00F0ADFD0220064040CF04D047F856
:10210000046D362600F05EFA47F8046D4BF2005677
:1021100000F058FA47F8046D0A2600F0BEFA00BD38
:102120002C2100005000035B275D03E044210000E8
:102130000000012700B501F047F800F02FFD300046
:1021400040CF00BD82210000300008706F737470B2
:102150006F6E650000B5FFF7EDFF102101400DD156
:102160002021014005D0FFF771FF47F8046DE44ED0
:1021700004E0FFF76BFF47F8046DE24EFFF731FF15
:1021800000BDD8210000000007696E6C696E652CE7
:1021900000B54BF200514BF6005244F27073308898
:1021A000884208D0904208D0984206D047F8046D83
:1021B000060000F007FA0236F1E740CF00BD0EB48A
:1021C0004BF6005244F2707301880230914201D004
:1021D0009942F9D10EBC7047EE2100000000047254
:1021E00065742C0047F8046D4BF60056EAE1FC21BB
:1021F00000003000046578697400F3E714220000E1
:102200003000077265637572736547F8046DBB4EE5
:102210003668E6E62C22000081000573746174655F
:1022200047F8046DB84E7047000000003E220000E1
:102230000000015DB4480021C943016070474E228F
:1022400000001000015BB048002101607047762259
:1022500000000000013A00B5AC48076000F0B4FA95
:1022600047F8046D4BF2005600F0ACF9A648002187
:10227000C943016000BDBE2200003000013B00B533
:10228000A2480168B9420ED0FFF755FC15205374DF
:1022900061636B206E6F742062616C616E63656454
:1022A0002E0A01F019BB47F8046D4BF6005600F0FA
:1022B00089F900F0CAF894480021016000BDD222DB
:1022C000000000000765786563757465300040CFD5
:1022D0008746EA220000100009696D6D6564696136
:1022E000746547F8046D1026DEE0002300005000FE
:1022F00006696E6C696E650047F8046D2026D3E0B0
:102300001A23000010000B636F6D70696C656F6EAF
:102310006C7947F8046D3026C6E034230000500085
:102320000A302D666F6C6461626C650047F8046D5D
:102330004026B9E04E23000050000A312D666F6C34
:102340006461626C650047F8046D4126ACE0682367
:10235000000050000A322D666F6C6461626C65008B
:1023600047F8046D42269FE08223000050000A33A4
:102370002D666F6C6461626C650047F8046D4326DE
:1023800092E09C23000050000A342D666F6C64615B
:10239000626C650047F8046D442685E0B6230000B2
:1023A00050000A352D666F6C6461626C650047F8F9
:1023B000046D452678E0D023000050000A362D66D3
:1023C0006F6C6461626C650047F8046D46266BE0D3
:1023D000EA23000050000A372D666F6C6461626C5E
:1023E000650047F8046D47265EE01A2400000000EF
:1023F00008636F6E7374616E740000B500F0E4F9E9
:10240000FFF724FE47F8046D44F2707600F0DAF826
:10241000FFF78CFF00F019F800BD3C24000000001D
:102420000932636F6E7374616E7400B500F0CCF99D
:1024300039683E600E46FFF709FEE1E79824000088
:10244000000006736D756467650000B52A48016871
:10245000294A91421AD202390A882D4B9A4204D154
:1024600047F8046D2B4E00F0ADF800F07EF82A48D6
:10247000006847F8046D06002849096804311E4ABF
:102480001368116000F09EF8136000BD00F06DF855
:1024900047F8046D002608E02025000000000873BE
:1024A0006574666C6167730000B513480168124A71
:1024B000914205D2184801683143016040CF00BD08
:1024C000320040CF1548006804300188104B994213
:1024D00001D1110000E01143018000BD000040F275
:1024E0000000C0F200005FF000007FF00100C0FFBC
:1024F0000000C0FF00F800F00000002014000020E1
:1025000090210000E21F0000D8FF022010000020F0
:10251000FFFF000000000000200000200400002059
:102520003C250000410007616C69676E656401200D
:102530003040361802203040361870475E250000C3
:1025400000000668616C69676E00954801680120AB
:10255000014003D047F8046D002619E07047862536
:102560000000000005616C69676E00B5FFF7EDFFC4
:102570008B4801680220014004D047F8046D002612
:1025800000F020F800BDBA250000000002632C0016
:1025900000B583480168824A914205D247F8046D2C
:1025A0000E00FEF74EFD02E0320040CF0A7047F801
:1025B000046D012600F071F800BDF0250000000058
:1025C00002682C000FB5B6B275480168744A914292
:1025D00005D247F8046D0E00FEF7DEFC02E0320083
:1025E00040CF0A8047F8046D022600F056F80FBD70
:1025F0000A2600000000012C00B547F8046DFFF723
:10260000E1FF360CFFF7DEFF00BD262600000000CC
:10261000033E3C2C00B547F8046D360CFFF7D2FFA3
:10262000FFF7D0FF00BD8E26000000000773747214
:10263000696E672C07B5FF21314040CF300040CF95
:10264000002905D147F8046D0026FFF7BBFF07BD41
:1026500047F8046D067836020E43FFF7B3FF0130EA
:10266000013902290AD347F8046D46783602027808
:102670001643FFF7A7FF02300239F2E7002900D125
:1026800007BD47F8046D0678FFF79CFF07BDE826F5
:102690000000000005616C6C6F7441480168404A9D
:1026A00091420FD2320040CF89183E4A914219D34D
:1026B000FFF741FA0B466C6173682066756C6C0A13
:1026C00001F00AB9320040CF8918374A12689142A6
:1026D00008D3FFF730FA0952616D2066756C6C0AF9
:1026E00001F0FAB8016070471027000000000D6388
:1026F0006F6D70696C65746F72616D3F47F8046D42
:102700000026274800682649884248D3F643704788
:102710003027000000000C636F6D70696C65746F8A
:1027200072616D001E4800681D49884211D37047D0
:10273000B827000000000E636F6D70696C65746FE0
:10274000666C61736800164800681549884200D2BB
:1027500070471648164902680B680A600360104803
:10276000144902680B680A6003600F4800688342DE
:1027700015D300B5FFF7DFF9232056617269616256
:102780006C657320636F6C6C69646520776974682D
:102790002064696374696F6E6172790A00BD704765
:1027A0000000002000002000240000200400002081
:1027B0001C00002018000020A628000000000828A7
:1027C000637265617465290000B500F0FDFC002EA0
:1027D0000ED1FFF7B0F91520437265617465206E64
:1027E00065656473206E616D6520210A01F074B81F
:1027F000386847F8046D043F386000F0A0F940CF16
:10280000002E40CF11D0386847F8046D043F38607F
:10281000FFF791F9095265646566696E6520FFF7F7
:10282000E6F9FFF788F9022E0A00FFF78EFEFFF7A0
:102830009CFE00F00DFA8E4800688D4988421CD23B
:102840008C480021016047F8046D0626FFF725FF3C
:10285000FEF74BF8FFF7EEFE874801680A68874BE2
:102860009A4207D1824A1368116047F8046DFFF756
:10287000C3FE1360066040CF10E07F4847F8046D48
:102880000668FFF7B9FE47F8046D7D4EFFF79AFE24
:102890007948310040CF0160FFF7CCFE74480168F1
:1028A0007848016000BDBE28000000000876617213
:1028B0006961626C650047F8046D012613E0D62853
:1028C0000000000009327661726961626C6547F848
:1028D000046D022607E0B02900000000096E766151
:1028E000726961626C6500B5FFF76EFF6048016850
:1028F0005F4A914234D20F200640B200624801681C
:10290000891A624A91420BD2FFF715F90F4E6F7484
:1029100020656E6F7567682052414D0A00F0DCBF7C
:10292000016047F8046D0E00FFF790FB47F8046D57
:1029300044F27076FFF746FE300040CF02000028D8
:1029400005D00E600431FFF757FE0138F9D147F882
:10295000046D80261643FFF7A7FDFFF776FD00BD47
:1029600000F076F90220064040CF04D147F8046D0C
:102970003626FFF727FE47F8046D454EFFF74AFE5F
:1029800047F8046D434EFFF745FE47F8046D44F2E7
:102990007076FFF717FE300040CF002803D0FFF716
:1029A0002BFE0138FBD1FFF7C1FCFFF74EFD00BD48
:1029B000982A00000000076275666665723A00B5E5
:1029C000FFF702FF01203040361802203040361851
:1029D00027480168264A914228D22B480168891B62
:1029E0002A4A91420BD2FFF7A6F80F4E6F7420656A
:1029F0006E6F7567682052414D0A00F06DBF01602F
:102A000047F8046D0E00FFF721FB47F8046D44F210
:102A10007076FFF7D7FDFFF7EFFD47F8046D40F242
:102A20004016FFF741FDFFF710FD00BD00F010F963
:102A30000220064040CF04D147F8046D3626FFF748
:102A4000C1FD47F8046D124EFFF7E4FD47F8046D31
:102A5000104EFFF7DFFD47F8046D44F27076FFF784
:102A6000B1FDFFF71AFEFFF761FCFFF7EEFC00BDBA
:102A7000000000202000002004000020FFFFFFFFD6
:102A8000FFFF00001400002024000020300300207D
:102A90003E60043F02367E46C62A000000000F64F6
:102AA000696374696F6E6172797374617274EA48F4
:102AB0000068E94947F8046D884201D2E74E704743
:102AC000E74E36687047002B000000000E64696313
:102AD00074696F6E6172796E6578740003B53168E0
:102AE000E048814207D08879FF2804D00E0047F8DB
:102AF000046D002603BD47F8046D0026F64303BDB0
:102B0000322B000000000A736B6970737472696E77
:102B100067003178013101220A4089187618704720
:102B200006B40178013101220A408918401806BC18
:102B30007047B22B000000000466696E64003FB568
:102B400000220023350040CF340040CFFFF7AFFF15
:102B5000C548B188884217D047F8046D0636FFF79C
:102B600026F847F8046D260047F8046D2E00FEF79E
:102B700058FF002E40CF07D0B01DFFF7D1FF020055
:102B80000B00B548824204D2FFF7A8FF300040CFC7
:102B9000DED0160047F8046D1E003FBD00B53100C1
:102BA0003868FFF7CCFF3A68002A01D100F066FDD3
:102BB00000BD0C2C0000000006636A756D702C00CF
:102BC000320040CF310040CF8B1B043BA749194056
:102BD00000290DD0A64881420AD0FEF7ACFF0D4A6D
:102BE000756D7020746F6F206661720A00F074BE9C
:102BF0005B10FF210B40134330001E0000B5964AC6
:102C000013681060FFF7DEFC136000BD442C000069
:102C10000000056A756D702C310040CF300040CF48
:102C20000B1A043B93491940002902D0924A914261
:102C3000D3D15B10914A134053F4604347F8046DBD
:102C40001E00DBE75A2C0000000004686572650076
:102C500047F8046D804E36687047562D000000001E
:102C60000D666C6173687661722D6865726547F8F0
:102C7000046D834E3668704700B547F8046D42F620
:102C80000066FFF79FFC47F8046D4CF64076FFF7AF
:102C900099FC00BDDCE700B500F03AF839683E6009
:102CA0000E4647F8046D4DF20016FFF789FF00BD90
:102CB00000B500F02DF839683E600E4647F8046D07
:102CC0004DF20076FFF77CFF00BD00B5FFF7D4FFA3
:102CD00000F01EF839683E600E4647F8046D4DF26C
:102CE0000006FFF76DFF00BD00B500F011F8396870
:102CF0003E600E46FFF790FF00BD00B5FFF7BCFF3A
:102D0000FFF7A6FF47F8046D0226FFF7C6FC00BDDB
:102D100000B5FFF79DFF47F8046D0226FFF7BDFCE5
:102D200000BD00B5FFF794FFFFF776FF00BD00B5CB
:102D3000FFF78EFF47F8046D4DF20006FFF740FFE6
:102D400000BD00B5FFF784FF47F8046D4DF2001693
:102D5000FFF736FF00BD922D000030000474686557
:102D60006E00052E01D140CFDBE7022E01D140CF0E
:102D7000DDE7FEF7E0FE17537472756374757265D4
:102D80007320646F6E2774206D617463680A00F0AD
:102D9000A3BDBC2D0000300004656C73650000B558
:102DA000022EE6D140CFFFF7B3FF39683E600E46F2
:102DB000FFF7BDFF47F8046D052600BDD42D0000C8
:102DC00030000269660000B5FFF797FF47F8046D11
:102DD000022600BDFA2D00003000067265706561A4
:102DE0007400042EC5D140CF39683E600E4600B550
:102DF000FFF77AFFFFF79BFF00BD162E00003000A3
:102E0000057768696C65012EB3D140CF00B5FFF737
:102E1000DAFF023600BD2A2E0000300005756E7400
:102E2000696C012EA5D140CF4FE73E2E0000300047
:102E300005616761696E012E9BD140CF54E7842EF6
:102E40000000300005626567696E00B5FFF722FF7C
:102E500047F8046D012600BD00000020AC01000011
:102E600004000020FFFFFFFFFFFF000001FFFFFF46
:102E700000FFFFFF01F8FFFF00F8FFFFFF07000062
:102E800024000020942E00002000016B47F8046D00
:102E9000029E7047A42E00002000016A47F8046DCE
:102EA000009E7047B42E00002000016947F8046DB1
:102EB00026007047F22E00003000056C65617665D3
:102EC00000B5D94801683B00043F1A68043B1A600A
:102ED00008338B42F9D103B4FFF71AFF03BC330068
:102EE00040CF04390B60016004390A6801320A607E
:102EF00000BD042F0000200006756E6C6F6F70001F
:102F000030BC70473C2F00003000052B6C6F6F7099
:102F1000032E00D02DE740CF00B547F8046DC34E17
:102F2000FFF736F9FFF7C4FE1AE014F10044641B02
:102F3000A41940CF2C44A4F1004470477E2F000018
:102F40003000046C6F6F7000032E00D011E740CF8B
:102F500000B547F8046DB64EFFF71AF9FFF79BFE70
:102F600000F018F9B048310040CF016047F8046D17
:102F7000B04EFFF70DF900BD0134AC427047C62FCB
:102F80000000780002646F0000B547F8046DAA4E97
:102F9000FFF7FEF8A448016847F8046D0E0047F8F3
:102FA000046D00260760FFF775FE47F8046D0326E1
:102FB00000BD00B500F02FF8ECE730B4340040CF8E
:102FC000350040CF7047603000007800033F646FE9
:102FD00000B547F8046D984EFFF7DAF847F8046D2E
:102FE00044F2AC26FFF7EEFA8F48016847F8046D0B
:102FF0000E00FFF78DFE013647F8046D01268A4862
:103000000760FFF747FE47F8046D032600BD00B5D3
:1030100000F001F8E2E700B547F8046D4BF23046E6
:10302000FFF7D0FA47F8046D0426FEF77DFF013B59
:1030300008D047F8046D0526FEF776FF013B00F047
:1030400024FC00BD47F8046D3526FFF7BBFA47F8AE
:10305000046D4CF64076FFF7B5FA00F016FC00BDA3
:103060007A300000300004636173650047F8046D36
:10307000002647F8046D08267047903000003000A5
:10308000033F6F666D4809E0013EB64140CF70478F
:10309000343100007800026F66006948082E00D0C5
:1030A00067E640CF00B547F8046D0600FFF770F8FB
:1030B000FFF72EFE39683E600E46013647F8046D74
:1030C000092647F8046D4CF64076FFF77BFA00BD01
:1030D00000B5300040CF013B01B400F0D6FB01BC8D
:1030E000082E00D045E640CF47F8046D0600FF21CA
:1030F0003140B14204D153490E43FFF763FAD7E799
:10310000FEF75EFE002E40CF04D04F480643FFF787
:1031100081FACDE747F8046D0026FEF705FF47F872
:10312000046D44F2B026FFF74DFAC1E7300040CFFE
:10313000B04270476A310000300005656E646F660A
:10314000092E00D015E640CF00B540B440CFFFF7C0
:10315000DFFD39683E600E46FFF7F3FD47F8046D6A
:1031600040BC47F8046D082600BDBC3100003000AB
:1031700007656E6463617365082E00D0F9E540CF82
:1031800000B547F8046D4CF64076FFF71BFA00F0E7
:1031900001F800BD00B5300040CF00280DD003B4C9
:1031A00001213140002903D0013EFFF7C0FD01E0BD
:1031B000FFF7B7FD03BC0138EFE700BDD0310000D9
:1031C000000005746F6B656E47F8046D202605E0FE
:1031D00050320000000005706172736510B5FEF793
:1031E000F4FB310040CF300040CF184A12688418F9
:1031F000202E07D191420FD0835CB34202D101321D
:103200008418F7E7914207D0835C0132B342F9D1C9
:103210008618361B013E01E08618361B043F3C60D1
:103220000A48026010BD00000C0000202A2F000098
:10323000782F0000002F0000BA2F00008830000017
:103240002C310000002E0000000FB6F1E4FF022038
:103250008E3200000000056469676974CF4B1B68FB
:10326000303E0BD30A2E0BD3073E0A2E06D3242E54
:1032700006D3203E0A2E01D3242E01D30026704708
:103280009E42FBD247F8046D0026F6437047983300
:1032900000000000066E756D626572003FB531007A
:1032A00040CF701E0126012204B4BC4B1B680024D1
:1032B000002500293CD00130013902782D2A04D1A3
:1032C00001B00022D24304B4F3E7232A01D10A2338
:1032D000EFE7242A01D11023EBE7252A01D10223AD
:1032E000E7E72E2A01D10226E3E72C2A36D047F859
:1032F000046D1600FFF7B4FF002E40CF2BD047F827
:10330000046D260047F8046D2E0047F8046D1E007A
:1033100047F8046D00260FB4FDF774F80FBC3500B4
:1033200040CF340040CF0022A419554140CFC0E720
:1033300004BC002A04D50022E443ED430134554186
:1033400033002600012B02D047F8046D2E0047F809
:10335000046D1E003FBD01B000263FBD25000024C6
:1033600002260029E4D0425C01392E2AF9D047F820
:10337000046D1600FFF774FF002E40CFEBD0043F22
:103380003C6047F8046D1E000FB4FDF7EAF80FBC6F
:10339000340040CF40CFE4E7BA3300000000062EEF
:1033A0006469676974000A2E01D230367047242E92
:1033B00001D23736704723267047F03300000000F3
:1033C00004686F6C6400330040CF754801783F2972
:1033D0000DD2013101704018012907D0013802785F
:1033E00001300270013801390129F7D103707047AB
:1033F00010340000000005686F6C643C330040CF5F
:10340000674801783F2902D2013101704354704767
:10341000283400000000047369676E00002E01D498
:1034200040CF70472D26CEE73C3400000000022339
:103430003E005B4806780130386070475434000025
:1034400000000366235310B5202400F008F8013C67
:10345000FBD110BD7634000000000266230000B5E9
:1034600047F8046D4D4E3668FCF7B8FFFFF79BFF39
:10347000FFF7C4FF00BD9234000000000223530098
:1034800000B500F00AF8002EFBD138680028F8D10A
:1034900000BDBE3400000000012300B547F8046DF4
:1034A0003E4E366847F8046D0026FDF779F8FCF7C4
:1034B000ABFE40CFFFF777FFFFF785FF00BDD034AD
:1034C00000000000023C23003548002101707047D5
:1034D000E2340000000002662E0047F8046D20264A
:1034E00004E030350000000003662E6E00B510B415
:1034F000340040CFFDF7E3F9FCF739FF47F8046DDE
:103500000026FFF7E1FFFFF7BBFF40CF2C26FFF7B8
:1035100075FF002C03D0FFF7A2FF013CFBD110BCCC
:1035200040CFFFF77BFF47F8046D47F8046D1CE0C0
:103530004635000000000375642E00B5FFF7C4FF98
:10354000FFF79EFF11E078350000000002642E00B6
:1035500000B5FDF7B4F9FCF70AFFFFF7B5FFFFF779
:103560008FFFFDF7B6F9FFF759FFFFF762FFFEF790
:103570003EFBFEF78FFA00BD8A35000000000275A1
:103580002E0047F8046D0026D7E7A43500000000A0
:10359000012E47F8046DF617DAE70000FCFF022061
:1035A00028000020EC3500000000086576616C758D
:1035B0006174650000B5FEF708FA01CF01B440B4AC
:1035C00040CFD448016802B400210160FEF7F0F951
:1035D00000F014F8CF4802BC016047F8046D40BC0D
:1035E00001BC043F3860FEF7E3F900BDB0380000CD
:1035F000000009696E7465727072657430B5C648F2
:1036000087420BD9FEF797FA10537461636B2075EC
:103610006E646572666C6F770A005DE1BF48874231
:103620000AD2FEF788FA0F537461636B206F7665D8
:1036300072666C6F770A4FE1B94C2568002D01D195
:103640003D002560FFF7C0FD002E02D1043740CFBA
:1036500030BD386847F8046D043F3860FFF76FFAF3
:10366000310040CF320040CF002A13D138683100FA
:10367000FFF714FE320040CF002AC0D1FEF7BBFA9C
:10368000FEF759FA0C206E6F7420666F756E642E0B
:103690000A0021E1A34B1B68002B1DD100252560EA
:1036A00030230B40302B0ED1FEF7A1FAFEF743FA80
:1036B0001220697320636F6D70696C652D6F6E6C7D
:1036C000792E0A0008E1043740CF47F8046D160050
:1036D000FEF7FCFDFFF793FF043740CF8020084042
:1036E0000ED1EB1B9B08402008400FD0082008405B
:1036F00002D0002B00D01DE00F200840834205D3EC
:1037000047F8046D1600FEF7E1FD78E700F0BDF81C
:1037100047F8046D160010220A4002D0FEF7D6FDCD
:103720006DE720220A4002D0FEF732FD67E7FEF780
:1037300058FC64E7072001401000FEF740FD012916
:103740001FD1012BDCD1FF213140B14204D140888F
:103750000643FEF737FF52E7FEF732FB002E40CF5D
:1037600004D040680643FEF755FF48E747F8046D6C
:103770000026FEF7D9FB47F8046D0688FEF722FF06
:103780003DE7022902D1012BBAD1EFE7032926D167
:10379000012BB5D1FF213140B1420AD162490E431C
:1037A000FEF710FF043247F8046D1600FEF7F0FC38
:1037B00025E7FEF705FB002E40CF04D05B490E4302
:1037C000FEF728FFEEE747F8046D0026FEF7ACFB96
:1037D000023247F8046D1600FEF7DAFC0FE7042901
:1037E00018D1012B8CD1330040CF002B00D106E73C
:1037F0001F221A409A4205D047F8046D4688FEF70A
:10380000E1FEFCE647F8046D06889B011E43FEF7C7
:10381000D9FEF4E6052924D1012B10D147F8046D17
:103820000026FEF781FB47F8046D0600FEF7B0FCAA
:1038300047F8046D4CF64076FEF7C4FEDFE647F825
:10384000046D0026FEF770FB47F8046D0126FEF7B5
:103850006BFBFEF7B4FC47F8046D0600FEF798FC1E
:10386000CDE606290ED1012B7FF44AAFFEF7A8FA68
:10387000002E40CF3FF47AAFD0F802000643FEF7A7
:10388000C9FEBCE601308047B9E600B5002B0CD07C
:10389000013B47F8046D1E0057F82660FEF7D6FB83
:1038A000002BF5D1043D2F0040CF0025256000BD41
:1038B000CC380000810009686F6F6B2D71756974D9
:1038C00047F8046D1A4E7047003900004439000073
:1038D0000000047175697400DFF858D00E4F164867
:1038E0000A2101600F48002101600D48016009486C
:1038F000016012480160124941600D480068874626
:10390000FEF771F8FFF77AFEFEF715F905206F6BE9
:103910002E0AF5E7E4FF02203002002030010020EB
:1039200008000020D8FF0220003E00000006B6F18B
:10393000D4FF022030030020FCFF0220DCFF022025
:10394000680000205E39000000000565696E743F64
:1039500047F8046DEFF31086013EB64170476E39AB
:10396000000020000465696E740062B670477E39FD
:10397000000020000464696E740072B670479439C8
:103980000000200004697073720047F8046DEFF3C3
:1039900005867047A03900000000036E6F70704705
:1039A000E2390000000009756E68616E646C656440
:1039B00000B5FEF7C0F814556E68616E646C6564FE
:1039C00020496E74657272757074200047F8046D3A
:1039D000EFF30586FEF722F9FEF7ADF802210A00A3
:1039E00000BDF43900000000057265736574C448B9
:1039F000C44901601E3A000081000B6972712D7389
:103A000079737469636B47F8046DBF4E7047B039C2
:103A100000004FF6D070C2F2020000688746463AB6
:103A200000008100096972712D6661756C7447F838
:103A3000046DB64E7047B03900004FF6CC70C2F23C
:103A4000020000688746743A000081000E697271B6
:103A50002D636F6C6C656374696F6E0047F8046D5D
:103A6000AB4E7047B03900004FF6C870C2F202008A
:103A7000006887469C3A00008100096972712D65D3
:103A80007874693047F8046DA24E7047B039000071
:103A90004FF6C470C2F2020000688746C43A0000C4
:103AA0008100096972712D657874693147F8046D78
:103AB000994E7047B03900004FF6C070C2F2020054
:103AC00000688746EC3A00008100096972712D6533
:103AD0007874693247F8046D904E7047B039000031
:103AE0004FF6BC70C2F2020000688746143B00002B
:103AF0008100096972712D657874693347F8046D26
:103B0000874E7047B03900004FF6B870C2F202001D
:103B1000006887463C3B00008100096972712D6591
:103B20007874693447F8046D7E4E7047B0390000F0
:103B30004FF6B470C2F2020000688746623B000094
:103B40008100076972712D61646347F8046D764ED8
:103B50007047B03900004FF6B070C2F20200006842
:103B600087468A3B00008100086972712D74696D77
:103B7000320047F8046D6D4E7047B03900004FF6C3
:103B8000AC70C2F2020000688746B23B00008100C0
:103B9000086972712D74696D330047F8046D644EC5
:103BA0007047B03900004FF6A870C2F202000068FA
:103BB0008746DA3B00008100086972712D74696DD7
:103BC000340047F8046D5B4E7047B03900004FF683
:103BD000A470C2F202000068874600400000FFFFA8
:103BE000182D2D2D20466C6173682044696374691B
:103BF0006F6E617279202D2D2D00FDF72FFE4E483E
:103C000085464E4F2A264E484B4901604D484E4945
:103C1000016047F8046D4C4E4C4DB1884C4B9942B5
:103C200024D04C4B0B400AD0B01DFEF779FFFEF7B5
:103C3000C6FA0388408800040343ED1A16E0802387
:103C40000B4013D00F23194089006D1AB01DFEF7E9
:103C500067FFFEF7B4FA47F8046D060047F8046DF5
:103C60002E0047F8046D0E00FCF7D8FFFEF736FF74
:103C7000300040CFD1D03848066040CF374805608B
:103C800037483849324A884204D002380388934280
:103C9000F9D0023034490860FDF74DFF374D6563B8
:103CA000726973702D5374656C6C61726973203224
:103CB0002E322E3020666F722053544D33324634EC
:103CC0003239206279204D61747468696173204BC8
:103CD0006F63680A25480021016047F8046D244E8F
:103CE00047F8046D0426FEF72AFF40CF002E02D0CD
:103CF000FEF7ECFA01E640CFEEE5696E697400006C
:103D00000CED00E00400FA05D0FF0220CCFF0220F9
:103D1000C8FF0220C4FF0220C0FF0220BCFF022017
:103D2000B8FF0220B4FF0220B0FF0220ACFF022047
:103D3000A8FF0220A4FF0220300300203002002050
:103D40000000002004000020AC010000000003205F
:103D5000FFFF0000000100001C00002024000020E4
:103D60000000200000400000180000200800002093
:043D7000FA3C000019
:0400000508000000EF
:00000001FF
