:020000041000EA
:1010000080050020A95C0010FFFFFFFFFFFFFFFF2E
:10101000FFFFFFFF080000006C140010FFFF1E2DF3
:101020002D2D204D6563726973702D5374656C6C42
:101030006172697320436F7265202D2D2D0007B5F5
:101040009048002B09D000F03BF800F041F800F088
:1010500027F8426028210160F3E707BD00B5894801
:1010600000230168282905D1426800F004F800F047
:101070004CF8F6E700BD03B5043F3E601600043FA0
:101080003E601E0008B400F0CFFF08BC0133043FEF
:101090003E607D4E043F3E607C4E04F044FA03BD4A
:1010A00003B5013B043F3E601E0008B400F0A6FFFC
:1010B00008BC3200043F3E60754E04F034FA03BDB4
:1010C00003B5744801681E2901D000F034F803BD4F
:1010D00081690162016981618168016101688160E2
:1010E000C16941624169C161C16841614168C160D2
:1010F0001E21016070470FB5624801681E2903D0A8
:10110000FFF7DEFFFFF7E4FF0FBD02B58168016066
:10111000C168416000E002B5016981604169C16058
:1011200081690161C1694161016A8161416AC1618D
:101130001E21016202BD08B501681E220260082955
:1011400001D20B0004E028290DD1436800F05DF8BE
:10115000043F3E60504E03F076F8043F3E604F4E31
:101160001E4303F070F808BD00B500F009F800F068
:101170000CF800F00FF800F012F800F015F800BDC0
:101180000FB54448FFF7D7FF0FBD0FB54448FFF731
:10119000D2FF0FBD0FB54348FFF7CDFF0FBD0FB511
:1011A0004148FFF7C8FF0FBD0FB53648016806225A
:1011B00002601E2905D1043F3E603C4E03F043F817
:1011C00014E0282909D14368043F3E601E00043F13
:1011D0003E60062602F056FC08E0062906D0043FD1
:1011E0003E60334EC9000E4303F02DF800F001F8C5
:1011F0000FBD24481E210162816101618160C162CD
:101200000621016000218162704707B5043F3E60FE
:101210001E0000F04FF8043F3E601E0002F032FC5A
:1012200007BD07B5C16A282904D1016B994201D1D4
:10123000002307BD0168002918D08168002915D056
:101240000169002912D0816900290FD0016A0029A3
:101250000CD00363043F3E601E00043F3E60002646
:1012600002F010FC2821C162002307BD043F3E604C
:101270001E0000F01FF8043F3E601E0002F002FC5A
:1012800007BD00001C010020AC1D00106102000021
:10129000002000003C010020043F000038600000F6
:1012A000340100202C0100202401002040CF000048
:1012B0000646000037B536480168826803698469CC
:1012C000056A062000F00EF8032000F00BF802205B
:1012D00000F008F8012000F005F800232C481E213A
:1012E000C16237BD814209D0824207D0834205D016
:1012F000844203D0854201D0030037BD7047043FCC
:101300003E60244E00B581581E2905D1FFF7D2FF5B
:101310008350012199400E4300BD00B501681E298C
:1013200004D10022FFF7EBFF02F08DFF00BD00B5F6
:1013300081681E2907D10822FFF7E1FF0022FFF78D
:10134000E1FF02F080FF00BD00B501691E290AD14E
:101350001022FFF7D4FF0822FFF7D4FF0022FFF787
:10136000D1FF02F070FF00BD00B581691E290DD1CB
:101370001822FFF7C4FF1022FFF7C4FF0822FFF76F
:10138000C1FF0022FFF7BEFF02F05DFF00BD0000BD
:101390001C01002000CF000000B50168282904D1FD
:1013A0004368FFF732FF0360190000BD00B5816894
:1013B000282904D1C368FFF728FF8360190000BD06
:1013C00000B50169282904D14369FFF71EFF0361B5
:1013D000190000BD3EB5826803698469056A9A42B6
:1013E00003D0A24201D0AA420AD1072A08D8043F5A
:1013F0003E60D600FFF75EFF1E43836002F023FFCE
:101400003EBD3EB50168826803698469056A914200
:1014100006D0994204D0A14202D0A94200D03EBDDC
:10142000043F3E60CE00FFF745FF1E43036002F01D
:101430000AFF3EBD00B5FFF768FEFFF75CFEFFF751
:1014400039FF036000BD01B506480368013307D0CA
:101450000023DB430360043F3E60034E02F0F3FED3
:1014600001BD0000D83F002000B50000901400101E
:1014700042020432647570003868043F3E60043FE5
:101480003860704700B500F0E3FC00F0E1FC00BDFF
:10149000B01400106202053264726F70043740CFDE
:1014A000704700B500F084FC00F082FC00BDC0462F
:1014B000F8140010440205327377617007CF043FBF
:1014C0003860043F3E60043F3A600E00704700B54C
:1014D000FFF74AFF026803690360026142684369DB
:1014E000436042618268836983608261C268C369C4
:1014F000C360C26100BDC046201500106202043204
:101500006E69700007CF043F3860704700B5FFF781
:101510002BFFFFF7DCFFFFF7F8FDFFF7F6FD00BD3F
:101520003C150010440005326F766572B868043FC0
:101530003E60043F3860FE687047C046601500108A
:10154000440005327475636B07CF043F3860043F75
:101550003E60043F3A60043F3960043F38607047A2
:101560008415001046000432726F74003868B96840
:101570003A69B86039613A6079687E60FE68F960FE
:101580007047C046A8150010460005322D726F74D2
:101590003868B9683A6938613960BA60F968FE60DC
:1015A0007E6879607047C046D01500102002033273
:1015B0003E7201CF01B440B440CF704700B5FFF791
:1015C00042FF00F019FC00F0BBFC00F0B9FC00BDCC
:1015D000FC15001020020332723E043F3E6040BC06
:1015E00001BC043F3860704700B5FFF72CFF00F0E6
:1015F000C2FC00F0C0FC00F0FFFB00BD2C16001088
:10160000200203327240043F3E60019E043F3E6070
:10161000009E704700B5FFF716FF043F3E600C4E7A
:1016200003F039FB03F034FB00BDC0465816001030
:10163000200206327264726F700002B0704700B50B
:10164000FFF701FF043F3E60024E02F0FCFD00BDCB
:101650000198000002B00000701600104200036400
:10166000322F3868F1077610400808433860704719
:101670008816001062020364322A38680018764126
:101680003860704719E0C046A41600104200046498
:10169000736872003868F1077608400808433860BC
:1016A0007047C046F01600106202046473686C0054
:1016B0003868001876413860704700B5FFF737FE8C
:1016C000FFF76AFEFFF79DFE00F096FBFFF764FE52
:1016D000FFF797FE043F3E60402601F0CFFC00F08C
:1016E0008BFB043F3E60404E01F0C8FC00BDC0468D
:1016F000041700104200046461627300002E08D4D5
:101700007047C04624170010420007646E65676189
:10171000746538680021C043F64301304E4138609B
:101720007047C04674170010640202642D0007CF92
:10173000121AB1410E00043F3A60704700B5FFF73E
:1017400013FE00F0AEFBFFF727FEFFF75AFE00F096
:1017500053FBFFF721FEFFF754FEFFF7B8FE01F041
:1017600018FC00F0BBFB043F3E60204E00F03FFD44
:1017700000BDC046C0170010640202642B0007CFF2
:1017800012184E41043F3A60704700B5FFF7ECFD78
:1017900000F087FBFFF700FEFFF733FE00F02CFBA5
:1017A000FFF7FAFDFFF72DFEFFF791FE01F0DBFBDF
:1017B00000F094FB043F3E600B4E00F01CFD00BDAA
:1017C000F4170010610203733E64043F3E60F61795
:1017D000704700B500F0DAFAFFF713FE043F3E60F1
:1017E000034E01F04BFC00BD404100008041000071
:1017F000C017000020180010420003756D2A3868D9
:10180000030073433B60010C320C0B005343B6B230
:1018100080B24E4350433618360CF6187047C04617
:10182000501800104200026D2A003868C11705D018
:1018300040423860F01704D07642E0E7F017DED07F
:10184000764200B5FFF7DBFFFFF763FF00BDC04640
:101850009018001044000375642A07CF5643414393
:101860007618010C130C59437618010C80B292B211
:101870005143434350430022C91852411204B61841
:101880000A04090C80184E41043F38607047C04676
:101890002419001044000475646D2A0010B500245A
:1018A000043F3E607E68043F3E603E69FFF7A7FF4D
:1018B000310040CF300040CF043F3E603E68043FDF
:1018C0003E60FE6803B4FFF79AFF03BC330040CFCD
:1018D000320040CF043F3E603E68043F3E603E69B8
:1018E0000FB4FFF78CFF0FBC9219634140CF8919E9
:1018F0006241634140CF043F3E607E68043F3E60EA
:10190000FE680FB4FFF77BFF0FBC9219634140CF15
:1019100089196241634140CF1E003A607960B86026
:1019200010BDC046481900104300022A2F0000B520
:1019300040B440CFFFF779FF043F3E6040BC00F069
:101940004FF8043700BDC0466C1900104300052A4B
:101950002F6D6F6400B540B440CFFFF766FF043FC2
:101960003E6040BC00F03CF800BDC046901900103D
:10197000430003752A2F00B540B440CFFFF73FFF67
:10198000043F3E6040BC00F01CF8043700BDC04678
:10199000B4190010430006752A2F6D6F640000B55E
:1019A00040B440CFFFF72BFF043F3E6040BC00F047
:1019B00008F800BDD4190010430006756D2F6D6F37
:1019C000640000B5043F3E60002600F01AF840CFE6
:1019D000043700BDF41900104300056D2F6D6F64CE
:1019E00000B5043F3E60F61700F034F840CF0437EE
:1019F00000BDC046481A001044000675642F6D6F84
:101A0000640030B4002300227968B86835003C686F
:101A100040264000494152415B41AB4202D804D3C9
:101A2000A24202D3121BAB410130013EF1D10E00A4
:101A300038607B60BA6030BC704730B400237A688D
:101A4000B9680020E2E7C046C01A001044000564EF
:101A50002F6D6F6400B5F01719D0FFF75AFEFFF72E
:101A60002DFDF0170CD0FFF754FEFFF727FDFFF711
:101A7000C8FFFFF723FDFFF74CFEFFF71FFD00BD7A
:101A8000FFF71CFDFFF7BDFFFFF743FE00BDFFF7AB
:101A900015FDF0170ED0FFF73CFEFFF70FFDFFF727
:101AA000B0FFFFF736FEFFF709FDFFF732FEFFF745
:101AB00005FD00BDFFF702FDFFF7A3FF00BDC04617
:101AC000D81A0010440002642F0000B5FFF7C2FFCF
:101AD000FFF718FD00BDC046201B00104400026641
:101AE0002A0000B5F0170DD0FFF713FEFFF7E6FC54
:101AF000F0170DD0FFF70DFEFFF7D0FE40CF01CF5E
:101B0000386000BDFFF7DAFCF017F5D0FFF701FEF3
:101B1000FFF7C4FE40CF01CF3860FFF7FAFD00BDEC
:101B20006C1B0010440002662F0000B5F0170ED0A9
:101B3000FFF7EFFDFFF7C2FCF0170ED0FFF7E9FD4E
:101B4000FFF7BCFCFFF779FFFFF7DCFC00BDFFF7F8
:101B5000B5FCF017F4D0FFF7DCFDFFF7AFFCFFF7A3
:101B60006CFFFFF7D6FDFFF7CDFC00BDB41B0010E6
:101B700020020232210006CF3160726040CF7047F0
:101B800000B5FFF7E1FB0168426806B400F0D2FD42
:101B9000FFF7B1FA06BC0160282905D0043F3E607A
:101BA000614E00F0CAFD00BD0432426000F0C2FD8B
:101BB00000BDC046FC1B0010200202324000043F62
:101BC000706838603668704700B500F0DFF801686B
:101BD000282909D0043F3E60544E00F08CFD00F0EF
:101BE0000BF900F085FD00BD41680431416000F053
:101BF0007FFD00F001F900F07BFD00BD1C1C001012
:101C000044000364753C07CF8E4204D801D1904252
:101C100001D8002670470026F64370473C1C001090
:101C200044000364753E07CFB14204D801D182421B
:101C300001D8002670470026F64370475C1C001050
:101C4000440002643C0007CF8E4204DC01D1904284
:101C500001DC002670470026F64370477C1C00100C
:101C6000440002643E0007CFB14204DC01D182424D
:101C700001DC002670470026F6437047981C0010D0
:101C800062020364303C0437F617704700B500F079
:101C9000C6F800F010FB00BDC01C00106202036417
:101CA000303D01CF0643013EB641704700B5043FC9
:101CB0003E601F4E00F09FFA00F0D8FA00BDC0460B
:101CC000E81C0010440203643C3E07CF50404E40E5
:101CD0000643013EB641F643704700B500F016F8E2
:101CE00000F0D7FA00BDC046341D00104402026463
:101CF0003D0007CF50404E400643013EB64170477D
:101D000000B500F003F800F0B1FA00BD00B5FFF730
:101D10002BFB00F0C6F800F0CFF900F0DFF800F080
:101D2000CBF900F0BDF900BD406000004068000044
:101D300000430000481D0010200003737040043F62
:101D40003E603E007047C046581D001020000373DF
:101D50007021370040CF70476C1D001020000372C7
:101D60007040043F3E606E467047C0467C1D0010C8
:101D7000200003727021B54640CF7047A01D0010AF
:101D8000610203647570043F3E60704706B5FFF75B
:101D9000C4FA01684268FFF7AEF90160426006BD0F
:101DA000CC1D001061020464726F700040CF704758
:101DB00000B501681E2905D1043F3E60A14E02F026
:101DC00042FA00BDFFF7A1F900BDC046E41D0010B6
:101DD0006100043F64757000002E01D0043F3E6036
:101DE0007047C046101E00106202047377617000D5
:101DF00039683E600E0070470CB5FFF798FA02682C
:101E00008368036082604268C3684360C2600CBD3F
:101E10003C1E00106202036E69700437704700B503
:101E2000FFF77BFA81681E2902D0FFF774F900BD25
:101E3000043F3E60834E02F006FA00BD641E0010AF
:101E40006202046F76657200043F3E607E687047F0
:101E500000B5FFF76CFA8168C268FFF74CF90160C2
:101E6000426000BD8C1E00106202047475636B003A
:101E700001CF083F7E603860704700B5FFF757FA22
:101E8000FFF784FF00F02AF800BDC046C41E001012
:101E9000630203726F7403CF083F78603E600E00E8
:101EA00070470EB5FFF750FA0168826803698160D8
:101EB000026103604168C2684369C1604261436076
:101EC0000EBDC046E81E00106302042D726F740040
:101ED00003CF083F7E6039600600704700B5FFF70A
:101EE000E0FFFFF7DEFF00BDFC1E001020000470C5
:101EF00069636B00B0003E587047C046141F001065
:101F000000000564657074684F49C91B043F3E605A
:101F10008E087047301F00100000067264657074F0
:101F20006800043F3E606E464849891B8E08704732
:101F3000641F00102002023E720040B440CF704780
:101F400000B5FFF780FAFFF7E8F9FFF725FA043F3D
:101F50003E603F4E01228A40164302F074F9FFF7BB
:101F6000D4F800BD981F0010200202723E00043F0A
:101F70003E6040BC704700B5FFF765FAFFF7BBF85D
:101F8000FFF798F90360043F3E60324E01229A4009
:101F9000164302F058F900BDB81F0010200202726B
:101FA0004000043F3E60009E704700B5FFF74BFACB
:101FB00002F06EFE00BDC046DC1F0010200205725C
:101FC00064726F7001B0704700B5FFF73CFA043FD0
:101FD0003E60214E02F037F900BDC046F01F0010F0
:101FE000200005727069636BB6006E4436687047F6
:101FF0001C200010000004726F6C6C00002E01D1D8
:1020000040CF7047B0003958C019031F1A680260EA
:102010000438013EF9D104370E0070475C200010EF
:102020000000052D726F6C6C002E01D140CF7047FF
:10203000386839464A680A600431013EFAD10860BE
:1020400040CF704704370000800400208005002046
:1020500000B4000000BC000001B0000074200010BB
:10206000620203616E6401CF06407047043F3E6028
:102070006F4EC0E09020001062020362696301CFDE
:10208000B04306007047043F3E606A4EAFE0C04672
:10209000A82000106202026F720001CF0643704751
:1020A000043F3E60644EA6E0C02000106202037848
:1020B0006F7201CF46407047043F3E605F4E9AE02A
:1020C000D82000106202012A01CF46437047043F26
:1020D0003E605B4E8FE0C046F82000104100036375
:1020E0006C7A300006D00026400002D001D20136C2
:1020F000FAE770472026704708210010610003723C
:102100006F720120C64170471C21001061000372EC
:102110006F6C0020B61946417047C0465021001030
:102120006202076172736869667401CF304106000C
:10213000704700B5043F3E60424E043F3E60424E51
:10214000FFF7F5F841681F2928D91F21416025E0D4
:10215000782100106202067273686966740001CF0C
:10216000F0400600704700B5043F3E60374E043F24
:102170003E60374E12E0C0465C2200106202066CE0
:1021800073686966740001CFB0400600704700B5FF
:10219000043F3E602F4E043F3E600026FFF7C7F825
:1021A0000168282903D040CF00F021F800BD043792
:1021B0004168FEF7AAFF002901D140CF00BD1F29C9
:1021C0000AD889010E430268D2001643FFF732F99C
:1021D0001E4302F038F800BD40CFFFF72BF9043F53
:1021E0003E601D4E1B021E4302F02DF800BD0FB5D0
:1021F000FFF79DF80CE00FB5FFF799F80168062985
:1022000001D1FFF7F9FD8268282A01D1FFF7F4FD1B
:10221000FFF7CCF8FFF7DEF8FFF7BEF8C9008268D9
:102220000E43164302F00FF8FEF76FFF0FBD0000DC
:1022300000400000804300000043000040400000D8
:10224000404300000041000000100000C0400000BA
:1022500000080000804000000020000080220010E4
:10226000610202303D00013EB641704700B500F00A
:1022700003F900F0C2FEFEF748FF7349816200BD1A
:10228000A8220010610203303C3E013EB641F643F5
:10229000704700B500F0F0F800F0AFFEFEF735FF34
:1022A0006A49816200BDC046CC2200106102023042
:1022B0003C00F617704700B500F0DEF8043F3E60C2
:1022C000634E00F0DBFE6349816200BDE422001032
:1022D0006000047472756500043F3E600026F6439A
:1022E0007047C046F822001060000566616C736597
:1022F000043F3E60002670471C2300104202023E4D
:102300003D0001CFB042E9DA00267047043F3E604D
:10231000514E043F3E60514EBAE0C046402300108B
:102320004202023C3D0001CFB042D7DD002670479B
:10233000043F3E604A4E043F3E604A4EA8E0C0461D
:10234000602300104202013C01CFB042C6DB0026F0
:102350007047043F3E60414E043F3E603E4E97E072
:10236000802300104202013E01CFB042B6DC0026BD
:102370007047043F3E603B4E043F3E60384E87E06E
:10238000A4230010620203753E3D01CF861BB641B7
:10239000F6437047043F3E602C4E043F3E602A4E99
:1023A00076E0C046C8230010620203753C3D01CFB1
:1023B000361AB641F6437047043F3E602A4E043F4A
:1023C0003E602A4E64E0C046E823001062020275B7
:1023D0003C0001CF861BB6417047043F3E601A4E59
:1023E000043F3E60194E53E008240010620202755B
:1023F0003E0001CF361AB6417047043F3E601B4E87
:10240000043F3E60184E43E0282400106202023C64
:102410003E0001CF811B361A0E437047043F3E60D9
:10242000134E043F3E6033E0842500106202013DFC
:1024300001CF361A013EB6417047043F3E600D4E53
:10244000043F3E6024E0000000D2000000D3000002
:10245000C017000000D5000000DB000000DA00001B
:1024600000DC000000DD000000D8000000D9000002
:1024700000D0000000D1000000B5FEF74EFFFEF7CF
:102480007FFEFEF782FEFEF785FEFEF78FFF00BDA2
:1024900000B5FEF74CFFFEF773FEFEF776FEFEF783
:1024A0008FFF8268282A04D1FFF7A6FC39683E60B6
:1024B0000E4640CF0168282909D14168FF2906D876
:1024C000043F3E60634E0E438168090206E0FEF75A
:1024D00063FF043F3E60604EC90016430E4301F0A7
:1024E000B2FEFEF712FEFEF710FE866240CF00BD80
:1024F0000FB55A48816A002930D0043F3E60866A91
:1025000000218162310AD52901D140CF0FBDFEF7EC
:10251000F2FDFEF7CFFE0360D22903D1504E00F04A
:10252000ADFD0FBDD32905D14D4E00F0A7FD00F044
:10253000B8FD0FBD023601F086FE043F3E60494EF5
:1025400000F00DF800F0ADFD043F3E60464E01F096
:102550007AFE043F3E60434E00F001F80FBD00B527
:10256000FEF7DBFEFEF74DFF016809020E4301F0A6
:102570006AFE00BD00B5816A090AD52901D1FEF7BE
:10258000C4FD00BDA02500106202036D696E01CF7D
:10259000B04200DC06007047043F3E60334E2BE043
:1025A000BC2500106202036D617801CFB04200DBF0
:1025B00006007047043F3E602D4E1DE0DC250010F4
:1025C000620204756D61780001CFB04200D306004D
:1025D0007047043F3E60274E0EE0C0468026001044
:1025E000620204756D696E0001CFB04200D806002A
:1025F0007047043F3E60204E00B5FEF798FE01682C
:102600008268914203D140CFFEF785FD00BD062AC6
:1026100001D1FFF7F1FB0168282901D1FFF7ECFB9D
:10262000FEF7EFFEFEF7C2FEC9000268043F3E60FF
:10263000094E0E43164301F006FE01F004FE043F6E
:102640003E600E4E0E43164301F0FDFDFEF763FDA6
:1026500000BD000000280000804200001C01002096
:10266000804100000020000000E0000000DB0000CE
:1026700000DC000000D8000000D30000004600008D
:10268000C02600100000046D6F76650007B53100AC
:1026900040CF320040CF00290FD0B2420DD006D338
:1026A000013E013A705C50540139FBD105E03078AD
:1026B0001070013601320139F9D140CF07BDC04653
:1026C000E426001000000466696C6C00300040CF06
:1026D000310040CF002902D001397054FCD140CFE5
:1026E0007047C0462427001020020140366870471A
:1026F000043F3E60994E00B5FEF70FFE0368282B9D
:1027000008D143687C21194009010E437C218B4389
:10271000FEF787FDDB001E43FEF78CFE1E4301F033
:1027200092FD00BD7C2700102002012103CF306004
:102730000E007047043F3E60894E00B5FEF7F7FD7E
:102740000368282B09D143687C21194009010E43F5
:102750007C218B43FEF765FD0360DB001E4383682D
:10276000282B02D1C368FEF750FD1E4301F06BFD1C
:10277000FEF7CBFCFEF7C9FC00BDC046B427001035
:102780002002022B210003CF3268121832600E00A3
:10279000704700B5FEF7CBFDFFF7F8FAFFF7A8FF8B
:1027A000FFF77FFB00F0DFFBFFF726FBFFF7C2FF21
:1027B00000BDC046F827001020020268400036889D
:1027C000704700B5FEF7A9FD043F3E60654E036803
:1027D000282B08D143683E21194049010E433E2170
:1027E0008B43FEF71EFDDB001E43FEF723FE1E4358
:1027F00001F029FD00BDC0465028001020020268EB
:10280000210003CF30800E00704700B5FEF78FFD2A
:10281000043F3E60544E0368282B09D143683E2193
:10282000194049010E433E218B43FEF7FAFC036039
:10283000DB001E438368282B02D1C368FEF7E5FC4A
:102840001E4301F000FDFEF760FCFEF75EFC00BDDC
:1028500088280010200203682B2103CF3288121829
:1028600032800E00704700B5FEF761FDFFF78EFA6B
:10287000FFF7A7FFFFF715FB00F075FBFFF7BCFAAA
:10288000FFF7C3FF00BDC046CC2800102002026342
:1028900040003678704700B5FEF73FFD043F3E60CC
:1028A000324E0368282B08D143681F211940890143
:1028B0000E431F218B43FEF7B4FCDB001E43FEF7E3
:1028C000B9FD1E4301F0BFFC00BDC0462429001025
:1028D00020020263210003CF30700E00704700B564
:1028E000FEF725FD043F3E60214E0368282B09D1E9
:1028F00043681F21194089010E431F218B43FEF7B6
:1029000090FC0360DB001E438368282B02D1C36860
:10291000FEF77BFC1E4301F096FCFEF7F6FBFEF78C
:10292000F4FB00BD74290010200203632B2103CFA8
:102930003278121832700E00704700B5FEF7F7FCBF
:10294000FFF724FAFFF7A7FFFFF7ABFA00F00BFB46
:10295000FFF752FAFFF7C3FF00BD00000068000058
:102960000060000000880000008000000078000087
:1029700000700000B4290010200204626973210075
:1029800003CF3268024332600E00704700B5FEF795
:10299000CEFCFFF7FBF9FFF7ABFEFFF782FA043F2F
:1029A0003E60AB4EFFF727FCFFF726FAFFF7C2FEAB
:1029B00000BDC046F42900102002046269632100B2
:1029C00003CF3268824332600E00704700B5FEF7D5
:1029D000AEFCFFF7DBF9FFF78BFEFFF762FA043F6F
:1029E0003E609C4EFFF703FCFFF706FAFFF7A2FEDE
:1029F00000BDC046342A0010200204786F72210006
:102A000003CF3268424032600E00704700B5FEF7D7
:102A10008EFCFFF7BBF9FFF76BFEFFF742FA043FAE
:102A20003E608D4EFFF7E7FBFFF7E6F9FFF782FE0A
:102A300000BDC046682A001020020462697440008C
:102A400001CF36680640013EB641F643704700B5F7
:102A5000FEF76DFCFFF74CFE043F3E607F4EFFF734
:102A6000CAFBFFF716FC00BDA82A0010200205686B
:102A70006269732103CF3288024332800E007047AF
:102A800000B5FEF754FCFFF781F9FFF79AFEFFF758
:102A900008FA043F3E606E4EFFF7ADFBFFF7ACF95E
:102AA000FFF7B3FE00BDC046E82A0010200205680B
:102AB0006269632103CF3288824332800E007047FF
:102AC00000B5FEF734FCFFF761F9FFF77AFEFFF778
:102AD000E8F9043F3E605F4EFFF789FBFFF78CF992
:102AE000FFF793FE00BDC046282B001020020568AA
:102AF000786F722103CF3288424032800E007047D7
:102B000000B5FEF714FCFFF741F9FFF75AFEFFF797
:102B1000C8F9043F3E60504EFFF76DFBFFF76CF9BC
:102B2000FFF773FE00BDC0465C2B00102002056855
:102B30006269744001CF36880640013EB641F643D3
:102B4000704700B5FEF7F3FBFFF73BFE043F3E6026
:102B5000424EFFF750FBFFF79CFB00BD9C2B001083
:102B6000200205636269732103CF32780243327019
:102B70000E00704700B5FEF7DAFBFFF707F9FFF725
:102B80008AFEFFF78EF9043F3E60314EFFF733FBBC
:102B9000FFF732F9FFF7A3FE00BDC046DC2B0010A3
:102BA000200205636269632103CF32788243327069
:102BB0000E00704700B5FEF7BAFBFFF7E7F8FFF726
:102BC0006AFEFFF76EF9043F3E60224EFFF70FFBEF
:102BD000FFF712F9FFF783FE00BDC0461C2C001062
:102BE00020020563786F722103CF32784240327041
:102BF0000E00704700B5FEF79AFBFFF7C7F8FFF726
:102C00004AFEFFF74EF9043F3E60134EFFF7F3FA1A
:102C1000FFF7F2F8FFF763FE00BDC046882C0010F6
:102C2000200205636269744001CF36780640013E98
:102C3000B641F643704700B5FEF779FBFFF72BFE70
:102C4000043F3E60054EFFF7D6FAFFF722FB00BDBA
:102C500000430000804300004040000000400000AE
:102C600000F0C2FD1E466C6173682063616E6E6F7A
:102C700074206265207772697474656E2074776958
:102C800063650A0002F05EFD082D001000000831A7
:102C900036666C61736821000FB50F20304015D087
:102CA00000F0A2FD223136666C61736821206E65EA
:102CB0006564732031362D616C69676E65642061CF
:102CC0006464726573730A0002F03CFD3068013081
:102CD000C6D170680130C3D1B0680130C0D1F0688E
:102CE0000130BDD13C489121016008CF04CF02CF13
:102CF00001CF30607160B260F360384A1368012020
:102D00001840FBD140CF0FBD402D001000000E66D3
:102D10006C617368706167656572617365000FB59A
:102D2000300040CF2E4B984208D32B4B9221196094
:102D300000602A4A136801201840FBD10FBDC0462D
:102D4000BC2D001000000A6572617365666C6173CA
:102D50006800234872B62349234A038893421CD053
:102D6000043F3E600600043F3E6000F03DFD10451C
:102D70007261736520626C6F636B20617420200048
:102D800000F0AAFD00F030FD0C2066726F6D204649
:102D90006C6173680A00FFF7C2FF02308842DCD121
:102DA00000F022FD1246696E69736865642E205238
:102DB0006573657420210A0002F062FDEC2D00109D
:102DC00000000E6572617365666C61736866726F90
:102DD0006D00300040CFBDE7040005400000054015
:102DE0000060001000100110FFFF00000C2E00100A
:102DF000000009696E6974666C61736853485449D0
:102E00000022027001300139FBD17047F42E00100E
:102E100000000768666C6173682130B5320040CFEE
:102E2000500813D300F0E0FC1E68666C61736821E3
:102E3000206E65656473206576656E2061646472DA
:102E400065737365732E0A0002F07CFC414B9A4255
:102E500010D200F0C9FC1943616E6E6F7420777256
:102E600069746520696E746F20636F726520210A32
:102E700002F068FC130935482021046824099C42AB
:102E800026D014300139F8D1304820210468002CB4
:102E900017D014300139F9D100F0A6FC21546F6F1E
:102EA000206D616E7920736361747465726564204E
:102EB000466C617368207772697465732E0A02F03C
:102EC00041FC1B010360013941608160C160016107
:102ED0000F2111400431465240CF01680131016099
:102EE0000F221140082903D100F01BF8FFF7D4FE90
:102EF00030BDC046582F001000000A666C7573681C
:102F0000666C6173680000B5104820210268002AD1
:102F100003D000F006F8FFF7BFFE14300139F5D1F9
:102F200000BD043F3E604668043F3E608668043F43
:102F30003E60C668043F3E600669043F3E600F265F
:102F4000F6430268164000220260704780050020A8
:102F50008002000000600010842F00106202012B2C
:102F600001CF3618704700B5FEF7E1F9043F3E6027
:102F7000CC4E043F3E60CC4E8168282912D1FEF72A
:102F80003BFF0FE0EC2F00106202012D01CF861BEA
:102F9000704700B5FEF7CBF9043F3E60C34E043FD7
:102FA0003E60C34EFEF702FA016828290ED141683F
:102FB000FF290BD840CFFEF70DFA0E4381680902B6
:102FC0000E4301F040F9FEF7A0F800BD0437FEF70C
:102FD000E3F989018268D2000E431643FEF795F8A3
:102FE000FEF728FA1E4301F02EF900BD0430001050
:102FF000610202312D00013E7047043F3E60AD4E3C
:103000003CE0C0461C300010610202312B0001364A
:103010007047043F3E60A84E30E0C0463430001098
:10302000610202322D00023E7047043F3E60A34E13
:1030300024E0C0464C300010610202322B00023600
:103040007047043F3E609E4E18E0C046643000105A
:1030500061020563656C6C2B04367047043F3E606B
:10306000984E0BE0943000106102066E6567617443
:10307000650076427047043F3E60934E00B5FEF710
:103080004CF90168C9000E43FEF7D4F91E4301F064
:10309000DAF800BDAC3000106102036E6F74F643C5
:1030A0007047043F3E60894EE8E7C046C4300010D8
:1030B00061020373687276087047043F3E60844E75
:1030C000DCE7C046D430001061020373686C760000
:1030D000704706E0EC300010610202322A007600F0
:1030E0007047043F3E604026C8E7C04604310010E8
:1030F00061020563656C6C73B6007047043F3E6007
:103100008026BBE71C310010610202322F007610CE
:103110007047043F3E606F4EB0E7C0465431001028
:10312000610203616273F01736184640704700B5BC
:10313000FEF7F3F8043F3E60674E016809020E4354
:1031400001F081F8043F3E60644E01F07CF8FFF727
:1031500092FF00BD9C310010420005752F6D6F6419
:10316000310040CF002903D1043F3E600026704764
:10317000012200238E4206D9003104D452004900B6
:1031800001D48E42FAD88E4201D3761A13434908ED
:103190005208F8D1043F3E601E0070470C32001008
:1031A0004200042F6D6F640000B5300040CF002E48
:1031B0001CDA764200280CDA4042043F3E600600EA
:1031C000FFF7CEFF300040CF7642043F3E6006005E
:1031D00000BD043F3E600600FFF7C2FF300040CF55
:1031E00040427642043F3E60060000BD002807DAF8
:1031F0004042043F3E600600FFF7B2FF764200BD4A
:10320000043F3E600600FFF7ABFF00BD2032001018
:103210004200036D6F6400B5FFF7C6FF40CF00BDED
:10322000343200104200012F00B5FFF7BDFF043714
:1032300000BDC046483200106100046576656E002E
:10324000012030403618704760320010810004625F
:1032500061736500043F3E60214E70470A00000024
:103260007832001000000662696E617279001C48B5
:10327000022101607047C0469032001000000764D0
:103280006563696D616C16480A2101607047C0462C
:103290003433001000000368657811481021016084
:1032A00070470000003000000018000000380000E7
:1032B000001A0000401E0000401C0000801E00009C
:1032C000801C0000001D000040420000C0430000C0
:1032D00040080000401000000028000000D5000059
:1032E000FC3F00207E48002101607E4803210160F0
:1032F0007D487E4901607E487E4901607E487F4965
:1033000001607F487F4901607F48804901608048B3
:10331000002101607F48062101607F487F490160EC
:103320007F488049016080488049016080480221CF
:103330000160704750330010810009686F6F6B2D7A
:10334000656D6974043F3E607A4E704746340010E4
:103350006C330010810008686F6F6B2D6B6579000E
:10336000043F3E60744E70476E3400108C33001082
:1033700081000A686F6F6B2D656D69743F00043FB3
:103380003E606E4E704798340010C046A83300105F
:10339000810009686F6F6B2D6B65793F043F3E605C
:1033A000674E7047C6340010C833001081000A68A9
:1033B0006F6F6B2D706175736500043F3E60614EE9
:1033C00070472E580010C046E0330010000004651E
:1033D0006D6974000FB5574800F029F80FBDC0465D
:1033E000F43300100000036B65790FB5524800F00C
:1033F0001EF80FBD08340010000005656D69743FAC
:103400004E4800688746C0461C3400100000046B1C
:1034100065793F004A4800688746C046343400104A
:10342000000005706175736546480068874600684E
:103430008746C0465C34001000000B7365726961FA
:103440006C2D656D697400B500F026F8002E40CF34
:10345000FAD03D48067040CF00BDC046843400100D
:1034600000000A73657269616C2D6B65790000B5A7
:1034700000F029F8002E40CFFAD0043F3E60334ED2
:10348000367800BDB434001000000C7365726961B9
:103490006C2D656D69743F0000B5FFF7C5FF043FF3
:1034A0003E6000262A482B4A0168114000D1F643AD
:1034B00000BDC0465C35001000000B736572696189
:1034C0006C2D6B65793F00B5FFF7AEFF043F3E60A2
:1034D0000026214808220168114000D1F64300BDB2
:1034E000600204400C000048100000483F820000C9
:1034F00014000048002403003400004802010707BC
:1035000038000048000500003C00004801090200A6
:10351000280000481C0000480C010048200000055D
:1035200008010048000000051002044000B000003F
:1035300040000048F83F0020F43F0020F03F00200A
:10354000EC3F0020E83F0020800100481C010048BB
:1035500048000048000200001401004880350010B7
:103560000000076365787065637400B5386801B45E
:103570000130386000F00BF801BC067040CF00BD90
:10358000F83500100000066163636570740000B5D3
:1035900002CF01390022FFF728FF300040CF7F28FB
:1035A00009D0202819D2092816D00A281FD00D28A2
:1035B0001DD00828EFD1002AEDD000F015F903083E
:1035C0002008002AE7D0885C013A80230340E2D03B
:1035D00040230340F5D0DEE72020B242DBD2043F97
:1035E0003E600600FFF7F6FE01328854D3E716006E
:1035F00000F0A8F800BDC0460C360010400003746F
:103600006962043F3E602B4E7047C046243600106E
:103610008100033E696E043F3E60274E7047000004
:103620000000C0464C36001082000E637572726551
:103630006E742D736F7572636500043F3E601F4E9C
:10364000704700000000B8010020C0466836001036
:10365000000009736574736F75726365174802CF54
:103660000660416040CF7047883600100000067346
:103670006F7572636500043F3E60104E043F7068D2
:10368000386036687047C046C036001000000571CB
:10369000756572790FB5084800210160FFF7B1FF29
:1036A000043F3E60043F3E60C826FFF770FFFFF70F
:1036B000D5FF0FBDB8010020E43F0020DC3F002013
:1036C00010370010000007636F6D706172650FB5F1
:1036D000310040CF01CF884202D040CF00260FBD3D
:1036E00002CF002810D001380A5C335C412A02D393
:1036F0005B2A00D22032412B02D35B2B00D2203335
:103700009A42EED000260FBD0026F6430FBDC046FC
:103710002437001000000263720000B500F064F866
:10372000010A00BD38370010000002626C00043F3F
:103730003E6020267047C0464C37001000000573DD
:1037400070616365043F3E60202643E66C370010DD
:103750000000067370616365730000B5002E03DD21
:10376000FFF7F0FF013EFBD140CF00BD7C370010DA
:103770005000065B636861725D0005E094370010DD
:10378000000004636861720000B501F05DFC40CF89
:10379000367800BDA437001050040128043F3E6075
:1037A000292606E0C03700105004015C043F3E604B
:1037B000002600B501F052FC043740CF00BDC046E2
:1037C000083800101000022E22009F4800B5043F68
:1037D0003E60060000F0F8F9043F3E60222601F04A
:1037E0003DFC00F070FD00BD0AB4043F3E6076462B
:1037F000013E33780121013319405B187146C91825
:103800008E460ABC3CE0C04630380010100002630F
:1038100022008E48DAE7043F3E607646013E337868
:103820000121013319405B187146C9188E46704753
:103830005C3800101000027322008548C6E7043F80
:103840003E607646043F3E60013E36780121731C9F
:1038500019405B187146C9188E46704774380010BD
:10386000000005636F756E740136043F3E60013ED3
:10387000367870479C3800100000056374797065D5
:1038800001B53078002807D00136043F3E60367815
:10389000FFF7A0FD0138F7D140CF01BDCC380010B3
:1038A0000000047479706500310040CF300040CFD3
:1038B00000B5002908D00022043F3E60865CFFF777
:1038C00089FD01329142F7D100BDC0460839001090
:1038D0000000046865782E0007B5310040CF202035
:1038E0000F220438043F3E600E00C6401640092EE9
:1038F00001D9373600E03036FFF76CFD0028F0D1F3
:10390000FFF720FF07BDC04618390010000003680C
:103910002E731FB54F4C0EE02839001000000375C0
:103920002E731FB54C4C06E0A83900100000022E83
:1039300073001FB5494C4A49C91B8908494A106898
:1039400003B40A201060FFF74FFF08537461636BE4
:103950003A205B00043F3E600E0001F05DFDFFF782
:1039600043FF025D200003BC3E4A106000290AD0DC
:103970003D4A106806B4043F3E600600A04706BCFE
:10398000043A0139F5D1FFF72FFF0620544F533A7F
:103990002000043F3E603600A047FFF725FF0420CB
:1039A0002A3E0A001FBDC0466C3A00100000057791
:1039B0006F72647300B5FFF717FF010A00F0CFFEC6
:1039C000FFF712FF09416464726573733A20043F84
:1039D0003E60FFF781FFFFF707FF064C696E6B3A09
:1039E0002000043F3E603668FFF776FFFFF7FCFEDD
:1039F00007466C6167733A20043F3E60B688FFF764
:103A00006BFFFFF7F1FE06436F64653A2000B01DBF
:103A100000F0E0FE043F3E600600FFF75DFFFFF7A9
:103A2000E3FE064E616D653A2000043F3E600636B7
:103A3000FFF726FFFFF7D8FE010A00F0A8FE3000CE
:103A400040CFBDD040CF00BDE83700101638001081
:103A50003E380010D93800100754001019540010D7
:103A600080040020FC3F00207C040020BC3B0010B0
:103A700000001072656769737465726C69746572B1
:103A8000616C2C003FB5B84B3868184098420FD194
:103A90003868C043386040B400F00DF8043F3E6021
:103AA000B24E01BC0643C000064300F0CCFB3FBD54
:103AB00000F001F83FBD00B5350040CF2900C90036
:103AC00029432D02AA480543FF2300223000D0409D
:103AD000984301D00132F9E73000D0401840284324
:103AE000043F3E60060000F0AEFBA248054318000C
:103AF0009040864310D000243000E040984301D02D
:103B00000134F9E7101B043F3E600E0080010643BC
:103B100000F099FB2200DFE7002A06D0043F3E6058
:103B20000E009201164300F08EFB40CF00BD1FB582
:103B3000310040CF904C0C43C9000C434901300088
:103B400040CF020EFF231A40894B0B431343043F1F
:103B50003E601E0000F077FB043F3E60260000F050
:103B600072FB020CFF231A40844B0B431343043FA8
:103B70003E601E0000F067FB043F3E60260000F040
:103B800062FB020AFF231A407C4B0B431343043FA2
:103B90003E601E0000F057FB043F3E60260000F030
:103BA00052FB0200FF231A40744B0B431343043FA4
:103BB0003E601E0000F047FB1FBDC0462C3C0010BD
:103BC00000000563616C6C2C0FB5330000F0A8FE9B
:103BD000300040CF1B1A043B6949194000290ED020
:103BE000684A91420BD00136043F3E600026FFF741
:103BF00049FF043F3E60644E00F025FB0FBD40CFFF
:103C00005B086248624919400843DB0A6149194070
:103C1000090408439B0A0121194089060843043F0F
:103C20003E60060000F03FFB0FBDC046603C001048
:103C30000000086C69746572616C2C0000B5043F6B
:103C40003E60554E00F0FFFA043F3E60534E00F0D8
:103C5000FAFA043F3E600626FFF714FF00BDC04697
:103C6000903C00100000066372656174650000B549
:103C700000F04FF810200002003000023C3000023B
:103C8000B7308047043F3E607646013E00BDC046E7
:103C9000043D0010200005646F65733E1020000293
:103CA000003000023C300002B7308047043F3E60E5
:103CB0007646013E7047043F3E607646013E384AF4
:103CC0001368384909683848834205D20F200840F4
:103CD0000E2805D00231F9E70220084000D1023158
:103CE000023111600136043F3E600026FFF71FFFDE
:103CF000043F3E60244E00F0A6FA136000F0FFF986
:103D000000BDC046B03D00100000073C6275696C04
:103D1000647300B500F0A6FB21480168224A914275
:103D20000CD200F0FDFD0F2006400E2E40CF10D02B
:103D3000043F3E60362600F086FAF2E700F0F0FD20
:103D40000220064040CF04D1043F3E60362600F0FA
:103D50007AFA043F3E60154E00F075FA043F3E606B
:103D6000102600F0E3FA00BD0000FFFFC043000092
:103D700000200000001000000002000000300000E1
:103D80000100C0FF0000C0FF8047000000F800F005
:103D9000FF070000FF030000043F00003E6000003A
:103DA000F400002008010020F400002000B500000D
:103DB000BC3D00105000035B275D03E0D43D0010C4
:103DC0000000012700B501F03FF900F042FD30008E
:103DD00040CF00BD0C3E0010300008706F7374704F
:103DE0006F6E650000B5FFF7EDFF043F3E60060013
:103DF00039683E600E46FFF721FFFFF71FFF043FC3
:103E00003E60E54EFFF7E0FE00BDC046583E0010A4
:103E1000000007696E6C696E652C00B5DF49E04AE9
:103E2000E04B3088884208D0904208D0984206D0B3
:103E3000043F3E60060000F006FA0236F1E740CF8C
:103E400000BD0EB4D64AD74B01880230914201D052
:103E50009942F9D10EBC70476C3E0010000004720C
:103E600065742C00043F3E60CD4EECE17C3E0010BA
:103E70003000046578697400F4E7C046943E001091
:103E800030000772656375727365043F3E60C64E0D
:103E9000366899E6AC3E0010810005737461746564
:103EA000043F3E60C14E704700000000C03E00105D
:103EB0000000015DBD480021C94301607047C04654
:103EC000D03E00101000015BB8480021016070472F
:103ED000F03E00100000013A00B5B548076000F060
:103EE000C1FAB24801210160B2480021016000BD61
:103EF0005C3F00103008013B00B5AD480168B94295
:103F00000ED0FFF771FC1520537461636B206E6F48
:103F1000742062616C616E6365642E0A01F012FCAC
:103F2000A2480068411C0ED00B2804D8043F3E6014
:103F3000A14E00F017F9043F3E609A4E00F083F95D
:103F400001F007FB04E0043F3E60954E00F07BF972
:103F500000F0D5F895480021016000BD703F0010C9
:103F600000000765786563757465300040CF87464B
:103F7000883F0010100009696D6D656469617465A2
:103F8000043F3E601026EDE0A03F0010500006699F
:103F90006E6C696E6500043F3E602026E2E0C0461C
:103FA000BC3F001010000B636F6D70696C656F6E25
:103FB0006C79043F3E603026D4E0C046D83F001004
:103FC00050000A302D666F6C6461626C6500043FBE
:103FD0003E604026C6E0C046F43F001050000A3163
:103FE0002D666F6C6461626C6500043F3E60412623
:103FF000B8E0C0461040001050000A322D666F6CC9
:104000006461626C6500043F3E604226AAE0C046DF
:104010002C40001050000A332D666F6C6461626C96
:104020006500043F3E6043269CE0C04648400010C7
:1040300050000A342D666F6C6461626C6500043F49
:104040003E6044268EE0C0466440001050000A35B1
:104050002D666F6C6461626C6500043F3E604526AE
:1040600080E0C0468040001050000A362D666F6C1C
:104070006461626C6500043F3E60462672E0C046A3
:104080009C40001050000A372D666F6C6461626CB2
:104090006500043F3E60472664E0C046CC40001007
:1040A000000008636F6E7374616E740000B500F0F9
:1040B000D9F9FFF7C3FD043F3E603A4E00F0C3F864
:1040C000FFF785FF00F01BF800BDC046F040001070
:1040D00000000932636F6E7374616E7400B500F096
:1040E000C1F939683E600E46FFF7A8FDE1E7C0461A
:1040F00054410010000006736D756467650000B5DB
:104100002E4801682E4A91421ED202390A882D4B50
:104110009A4204D1043F3E60002600F094F800F07B
:104120006BF800F07DF828480068043F3E60060008
:10413000264909680431214A1368116000F083F8A8
:104140001360FEF7E0FE00BD00F056F8043F3E604D
:10415000002608E0D0410010000008736574666C0A
:104160006167730000B515480168154A914205D290
:10417000154801683143016040CF00BD320040CF97
:1041800012480068043001880E4B994201D1110099
:1041900000E01143018000BD5654001000B500003E
:1041A00000BD00007047000008010020D83F00203B
:1041B000040100205001002020080000F40000202D
:1041C000F4000020FFFF000014010020F800002090
:1041D000EC410010410007616C69676E6564012065
:1041E0003040361802203040361870471042001018
:1041F000000005616C69676E00B58E480168022099
:10420000014004D0043F3E60002600F01CF800BDD1
:104210003C420010000008616C69676E31362C006A
:1042200000B5844801680F20014005D0043F3E607E
:10423000002600F008F8F4E700BDC04680420010F8
:10424000000002682C000FB5B6B27B480168002957
:1042500002D0013100D0016076480168774A91426E
:1042600005D2043F3E600E00FEF7D7FD02E03200AB
:1042700040CF0A80043F3E60022600F057F80FBD91
:104280009C4200100000012C00B5043F3E60FFF787
:10429000DAFF360CFFF7D7FF00BDC046B84200106A
:1042A0000000033E3C2C00B5043F3E60360CFFF797
:1042B000CAFFFFF7C8FF00BD2043001000000773CE
:1042C0007472696E672C07B5FF21314040CF300012
:1042D00040CF002905D1043F3E600026FFF7B3FF21
:1042E00007BD043F3E60067836020E43FFF7ABFF82
:1042F0000130013902290AD3043F3E604678360274
:1043000002781643FFF79FFF02300239F2E70029D7
:1043100000D107BD043F3E600678FFF794FF07BD5C
:104320007C430010000005616C6C6F7441480168AB
:10433000424A91420FD2320040CF8918404A9142FE
:1043400019D3FFF751FA0B466C6173682066756CE0
:104350006C0A01F0F7F9320040CF8918394A126827
:10436000914208D3FFF740FA0952616D2066756CDF
:104370006C0A01F0E7F901607047C046A4430010E1
:1043800000000D636F6D70696C65746F72616D3FD5
:10439000043F3E600026274800682849884248D3E9
:1043A000F6437047C443001000000C636F6D7069E2
:1043B0006C65746F72616D001E4800681F49884209
:1043C00011D370475444001000000E636F6D706984
:1043D0006C65746F666C61736800164800681749F5
:1043E000884200D270471848184902680B680A6072
:1043F00003601048164902680B680A6003601148A0
:104400000068834215D300B5FFF7EEF9232056610B
:10441000726961626C657320636F6C6C696465209E
:10442000776974682064696374696F6E6172790A70
:1044300000BD7047F4000020D83F0020F4000020A9
:104440000010011018010020F800002010010020C9
:104450000C010020504500100000082863726561BF
:104460007465290000B500F0EFFD002E0ED1FFF7B6
:10447000BBF91520437265617465206E65656473D0
:10448000206E616D6520210A01F05CF93868043FF7
:104490003E60043F386000F0ADF940CF002E40CFC1
:1044A00011D03868043F3E60043F3860FFF79CF944
:1044B000095265646566696E6520FFF7F5F9FFF7D7
:1044C00093F9022E0A00FFF797FE9248006892497E
:1044D000884225D2914800210160FFF7A1FE043FE8
:1044E0003E600C26FFF722FF00F01AFA043F3E6000
:1044F0000626FFF71BFFFDF7EBFCFFF7E4FE8848FD
:1045000001680A68874B9A4207D1824A1368116092
:10451000043F3E60FFF7B8FE1360066040CF12E034
:1045200000F0FEF97E48043F3E600668FFF7ACFEEF
:10453000043F3E607C4EFFF786FE7948310040CF55
:104540000160FFF7C0FE734801687848016000BD54
:10455000684500100000087661726961626C650050
:10456000043F3E60012613E0804500100000093240
:104570007661726961626C65043F3E60022607E005
:10458000584600100000096E7661726961626C65C0
:1045900000B5FFF767FF5F4801685F4A914233D279
:1045A0000F200640B20062480168891A614A9142B0
:1045B0000BD2FFF719F90F4E6F7420656E6F756798
:1045C000682052414D0A01F0BDF80160043F3E6091
:1045D0000E00FFF733FB043F3E60574EFFF733FEFC
:1045E000300040CF0200002805D00E600431FFF7F4
:1045F0004BFE0138F9D1043F3E6080261643FFF799
:10460000B1FDFFF77CFD00BD00F08AF902200640F5
:1046100040CF04D1043F3E603626FFF714FE043F2E
:104620003E60464EFFF73FFE043F3E60444EFFF7BC
:104630003AFE043F3E60404EFFF705FE300040CF9B
:10464000002803D0FFF720FE0138FBD1FFF7BFFCA5
:10465000FFF755FD00BDC046484700100000076247
:1046600075666665723A00B5FFF7FCFE01203040C2
:10467000361802203040361826480168264A9142F2
:1046800026D22B480168891B2A4A91420BD2FFF798
:10469000ABF80F4E6F7420656E6F756768205241DE
:1046A0004D0A01F04FF80160043F3E600E00FFF735
:1046B000C5FA043F3E60204EFFF7C5FDFFF7E4FD5D
:1046C000043F3E601F4EFFF74DFDFFF718FD00BD94
:1046D00000F026F90220064040CF04D1043F3E609E
:1046E0003626FFF7B0FD043F3E60144EFFF7DBFDBA
:1046F000043F3E60124EFFF7D6FD043F3E600E4E73
:10470000FFF7A1FDFFF712FEFFF761FCFFF7F7FCD3
:1047100000BD0000F4000020F4000020140100207F
:10472000F8000020FFFFFFFFFFFF0000080100204E
:104730001801002024080020704700003E60043F5C
:1047400002367E46400100007847001000000F64EA
:10475000696374696F6E61727973746172744248CF
:1047600000684249043F3E60884201D2404E704793
:10477000404E36687047C046B447001000000E64D3
:10478000696374696F6E6172796E6578740003B5E0
:1047900031683948814207D08879FF2804D00E005B
:1047A000043F3E60002603BD043F3E600026F64302
:1047B00003BDC046E847001000000A736B697073C0
:1047C0007472696E67003178013101220A408918DC
:1047D0007618704706B40178013101220A40891821
:1047E000401806BC7047C0468048001000000466B0
:1047F000696E64003FB500220023350040CF3400CD
:1048000040CFFFF7ACFF1D48B188884217D0043F66
:104810003E600636FFF728F8043F3E602600043F5E
:104820003E602E00FEF753FF002E40CF07D0B01D94
:10483000FFF7D0FF02000B000C48824204D2FFF7C2
:10484000A6FF300040CFDED01600043F3E601E00C1
:104850003FBD00B531003868FFF7CCFF3A68002A49
:1048600001D100F023FF00BDF4000020F40000207F
:1048700018100010F8000020FFFFFFFFFFFF0000EE
:10488000DC480010000006636A756D702C00320071
:1048900040CF310040CF8B1B043BE5491940002934
:1048A0000DD0E44881420AD0FEF79EFF0D4A756D97
:1048B0007020746F6F206661720A00F043FF5B1016
:1048C000FF210B40134330001E0000B5DA4A136885
:1048D0001060FFF7B8FC136000BDC046144900101B
:1048E0000000056A756D702C310040CF300040CF5C
:1048F0000B1A043BD1491940002902D0D04A9142F9
:10490000D2D15B10CF4A1340CF4A1343043F3E60DD
:104910001E00DAE72C49001000000468657265008B
:10492000043F3E60C44E36687047C046544A00108B
:1049300000000D666C6173687661722D6865726542
:10494000043F3E60C14E3668704700B5043F3E608C
:10495000BF4EFFF778FC043F3E60BE4EFFF773FC8E
:1049600000BDDDE700B500F037F839683E600E465F
:10497000043F3E60B84EFFF78AFF00BD00B500F06F
:104980002BF839683E600E46043F3E60B34EFFF799
:104990007EFF00BD00B5FFF7D8FF00F01DF83968B5
:1049A0003E600E46043F3E60AD4EFFF770FF00BD17
:1049B00000B500F011F839683E600E46FFF794FF2D
:1049C00000BD00B5FFF7C1FFFFF7AAFF043F3E603F
:1049D0000226FFF7ABFC00BD00B5FFF7A1FF043FC7
:1049E0003E600226FFF7A2FC00BD00B5FFF798FF6E
:1049F000FFF77AFF00BD00B5FFF792FF043F3E606E
:104A0000974EFFF744FF00BD00B5FFF789FF043F55
:104A10003E60914EFFF73BFF00BD00B5FCF77DFC0B
:104A2000FCF7AEFBFCF7B1FBFCF7B4FB816828296F
:104A300001D1FCF7BBFCFCF7AFFC043F3E60894EA4
:104A400009020E43FFF7FFFBFCF75FFBFCF78CFB53
:104A500000BDC046C44A001030060269660000B5B9
:104A6000FFF7AFFF043F3E607D4E043F3E600226ED
:104A700000BD00B5FCF7E7FCFDF77CFD816A00296D
:104A800010D002B4FCF770FBFFF74AFF043F3E6012
:104A90000226FFF74BFC043F3E6040BC043F3E60F3
:104AA000022600BDFFF7B9FFFFF73AFF043F3E6063
:104AB0000226FFF73BFC043F3E60694E043F3E6028
:104AC000022600BDF84A0010300004656C736500D2
:104AD00000B5022E26D140CFFFF77EFFFDF7F8F993
:104AE000FFF71EFF39683E600E46FFF7D0FE043F19
:104AF0003E60052600BDC046444B001030000474E3
:104B000068656E00052E01D140CF6EE7022E09D1F7
:104B100040CF00B5FFF704FF39683E600E46FFF74F
:104B2000B6FE00BDFEF760FE1753747275637475B0
:104B300072657320646F6E2774206D617463680AF8
:104B400000F000FE744B0010300006726570656165
:104B50007400042EE6D140CF00B5FDF79CF9FFF7B5
:104B600027FFFFF7DDFE39683E600E46FFF78FFE38
:104B700000BDC046A04B00103006057768696C6523
:104B8000012ECFD140CF00B5FFF769FF023600BD3F
:104B9000012EC7D140CF00B5FFF76BFF023600BD35
:104BA000004C0010300605756E74696C012EB9D189
:104BB00040CFEFE67047012EB4D140CF00B5FDF7EE
:104BC000D9FC816A00290DD002B4FCF7CDFAFFF7B9
:104BD00003FF39683E600E46043F3E6040BCFFF76D
:104BE00056FE00BDFFF719FFFFF7F6FE39683E607D
:104BF0000E46043F3E601A4EFFF749FE00BDC04618
:104C0000144C0010300005616761696E012E89D176
:104C100040CFCDE6684C0010300005626567696ED4
:104C200000B5FFF79EFE043F3E60012600BD000078
:104C300001FFFFFF00FFFFFFF400002001F8FFFF6E
:104C400000F8FFFFFF07000000E00000180100204F
:104C5000002E000040CF000000D1000000D700006F
:104C600000D0000000280000804C00102002016BE2
:104C7000043F3E60029E7047043F3E608E4E0AE055
:104C8000AC4C00102002016A043F3E60009E704759
:104C9000043F3E60894E00B5FCF72DFAFCF70AFB95
:104CA00003601B021E43FFF7CEFA00BDD84C001074
:104CB00020020169043F3E602600704700B5043FB2
:104CC0003E602026FCF717FAFCF7F4FA03601E4357
:104CD000FFF7B9FA00BDC046184D00103000056C52
:104CE0006561766500B5764801683B00043F1A6847
:104CF000043B1A6008338B42F9D103B4FFF76CFE12
:104D000003BC330040CF04390B60016004390A68EA
:104D100001320A6000BDC0462C4D0010200006750F
:104D20006E6C6F6F700030BC7047C046644D0010F1
:104D30003000052B6C6F6F70032E00D0F2E640CF71
:104D400000B5043F3E605F4EFFF767F8FFF716FEC1
:104D50001AE0802000060019A419401B801940CFDA
:104D60007047C046A84D00103000046C6F6F700093
:104D7000032E00D0D6E640CF00B5043F3E60524E31
:104D8000FFF74BF8FFF7EEFD00F044F94C48310017
:104D900040CF0160043F3E604C4EFFF73EF800BD3F
:104DA0000134AC427047C046F04D0010300202643E
:104DB0006F0000B5043F3E60454EFFF72EF84048B7
:104DC0000168043F3E600E00043F3E60002607601D
:104DD000FFF7C7FD043F3E60032600BD00B500F0AD
:104DE0002EF8ECE730B4340040CF350040CF7047A8
:104DF000DC4E00103002033F646F00B5043F3E609C
:104E0000334EFFF70AF8043F3E60324EFFF71BFABD
:104E10002B480168043F3E600E00FFF7DDFD0136C0
:104E2000043F3E60012626480760FFF79AFD043FD5
:104E30003E60032600BD00B500F001F8E3E700B5D1
:104E4000FCF701FBFCF773FAFCF79AF9FCF79DF904
:104E5000FCF7A0F9043F3E601F4EFFF7F4F901682C
:104E6000282907D0043F3E600426C9000E43FFF7FF
:104E7000EAF907E0043F3E604668043F3E600426CE
:104E8000FEF700FE8168282907D0043F3E60052612
:104E9000C9000E43FFF7D7F907E0043F3E60C6683C
:104EA000043F3E600526FEF7EDFDFCF72EF9FCF70A
:104EB0002CF9FCF779F900BD029800000098000079
:104EC00000010020524D0010A04D0010264D001092
:104ED000E44D0010AC42000030B40000FC4E001065
:104EE000300004636173650000B5FCF7ACFA043F61
:104EF0003E600026043F3E60082600BD144F0010AF
:104F00003000033F6F6668480AE0013EB64140CF7B
:104F10007047C046B44F00103002026F660063480D
:104F2000082E00D0FEE540CF00B5043F3E600600ED
:104F3000FEF773FFFFF750FD39683E600E460136FD
:104F4000043F3E600926043F3E60594EFFF77BF95F
:104F500000BD082E00D0E5E540CF00B5FCF7E7F92D
:104F6000FCF70EF9FCF711F9FCF714F9043F3E6069
:104F7000504EFCF71BFA0E430268282A0DD14268F6
:104F8000FF2A07D840CF043F3E604B4E164309022C
:104F90000E4304E0FCF700FA0A00D2001643FFF7C4
:104FA00052F9FCF7B2F8FCF7FFF8C3E7300040CF46
:104FB000B0427047EC4F0010300005656E646F66BC
:104FC000092E00D0AEE540CF00B540B440CFFFF78A
:104FD00003FD39683E600E46FFF716FD043F3E6054
:104FE00040BC043F3E60082600BDC0463C50001057
:104FF000300007656E6463617365082E00D091E52B
:1050000040CF00B5043F3E60294EFFF71CF900F089
:1050100001F800BD00B5300040CF00280DD003B42A
:1050200001213140002903D0013EFFF7E4FC01E0FB
:10503000FFF7DBFC03BC0138EFE700BD5050001068
:10504000000005746F6B656E043F3E60202605E02E
:10505000C0500010000005706172736510B5FEF756
:105060000AFB310040CF300040CF144A1268841848
:10507000202E07D191420FD0835CB34202D101327E
:105080008418F7E7914207D0835C0132B342F9D12B
:105090008618361B013E01E08618361B043F3C6033
:1050A0000648026010BD00000A4F0010AC4F00100F
:1050B00040CF00008042000000280000E43F0020B4
:1050C000005100100000056469676974D44B1B68C7
:1050D000303E0BD30A2E0BD3073E0A2E06D3242EC6
:1050E00006D3203E0A2E01D3242E01D3002670477A
:1050F0009E42FBD2043F3E600026F6437047C04606
:105100000C5200100000066E756D626572003FB5AE
:10511000310040CF701E0126012204B4C04B1B6831
:105120000024002500293CD00130013902782D2AC5
:1051300004D101B00022D24304B4F3E7232A01D101
:105140000A23EFE7242A01D11023EBE7252A01D116
:105150000223E7E72E2A01D10226E3E72C2A36D0E4
:10516000043F3E601600FFF7B3FF002E40CF2BD068
:10517000043F3E602600043F3E602E00043F3E6038
:105180001E00043F3E6000260FB4FCF766FB0FBC18
:10519000350040CF340040CF0022A419554140CF04
:1051A000C0E704BC002A04D50022E443ED430134E7
:1051B000554133002600012B02D0043F3E602E00F3
:1051C000043F3E601E003FBD01B000263FBD2500EC
:1051D000002402260029E4D0425C01392E2AF9D0AD
:1051E000043F3E601600FFF773FF002E40CFEBD068
:1051F000043F3C60043F3E601E000FB4FCF7E1FB3F
:105200000FBC340040CF40CFE4E7C046305200101E
:105210000000062E6469676974000A2E01D23036D8
:105220007047242E01D23736704723267047C04678
:1052300068520010000004686F6C6400330040CFB7
:10524000784801783F290DD20131017040180129B9
:1052500007D0013802780130027001380139012984
:10526000F7D103707047C0468852001000000568EF
:105270006F6C643C330040CF6A4801783F2902D20A
:105280000131017043547047A052001000000473B4
:1052900069676E00002E01D440CF70472D26CDE700
:1052A000B4520010000002233E005E480678013030
:1052B00038607047CC52001000000366235310B5CD
:1052C000202400F008F8013CFBD110BDF052001082
:1052D00000000266230000B5043F3E60504E366871
:1052E000FCF78DFAFFF799FFFFF7C4FF00BDC0463A
:1052F0000C53001000000223530000B500F00AF820
:10530000002EFBD138680028F8D100BD38530010BA
:105310000000012300B5043F3E60414E3668043F63
:105320003E600026FCF76DFBFCF7C8F840CFFFF7A6
:1053300074FFFFF783FF00BD4C5300100000023CD8
:1053400023003848002101707047C04660530010A8
:10535000000002662E00043F3E60202605E0C046A5
:10536000B0530010000003662E6E00B510B4340078
:1053700040CFFCF77DFDFCF7C1F9043F3E600026FD
:10538000FFF7DFFFFFF7B9FF40CF2C26FFF772FFD3
:10539000002C03D0FFF79FFF013CFBD110BC40CF96
:1053A000FFF778FF043F3E60043F3E601EE0C046CA
:1053B000C853001000000375642E00B5FFF7C1FF4D
:1053C000FFF79BFF12E0C046FC5300100000026490
:1053D0002E0000B5FCF74CFDFCF790F9FFF7B1FF8C
:1053E000FFF78BFFFCF757FDFFF754FFFFF75DFF5B
:1053F000FEF75AFAFEF7A6F900BDC0461054001099
:10540000000002752E00043F3E600026D5E7C0462E
:10541000D85500100000012E043F3E60F617D8E773
:10542000FC3F00207801002030B5D74C2568002DC6
:1054300001D13D00256030BD30B5D34C3D00256025
:1054400030BD30B5D04C0025256030BDCE4B1B683B
:10545000DB1B9B08704700B5310040CFCB480840AC
:1054600002D000F0A1F800BDC948084001D1FDF705
:105470003FF8320040CFFFF7D7FFC648084003D0BF
:10548000043F3E60160000BDFFF7E0FF80200840AB
:1054900006D14020084009D00F200840834205D3A0
:1054A000043F3E601600FEF760FD00BDBA480840AC
:1054B00014D0FBF7C4FD043F3E601600043F3E607D
:1054C0000E0000F030F81000FEF7BBFC421CB348A1
:1054D0009047FFF7B1FFFBF7C1FD00BDFBF7AFFD44
:1054E000043F3E601600043F3E600E0000F01BF8D3
:1054F000FBF73AFEFFF7A5FFA948084001D1FBF7EB
:10550000A2FF043F3E60160010220A4002D0FEF7C0
:105510002CFD00BD20220A4002D0FEF77EFC00BD1B
:10552000FEF752FB00BD0FB5320040CF330040CF35
:105530009C480168062907D2062041439A48401832
:1055400003801B0C43808280964801680131016012
:105550000FBD0FB59348016806291ED8924801393E
:105560001CD0043F3E600E00FEF76DFE043F3E601F
:105570000688FEF768FE043F3E604688FEF763FE3D
:10558000043F3E608688FEF75EFE06300139EDD1AD
:10559000043F3E607D4EFEF7E5FD0FBD043F3E60DB
:1055A0004026FEF7DFFD0FBD00B5300040CFFEF70F
:1055B00048FC01880230043F3E600688428812049D
:1055C0001643043F3E60868803B4FFF744FF03BCE4
:1055D00006300139EFD100BD2056001000000865EB
:1055E00076616C756174650000B5FEF744F801CF13
:1055F00001B440B440CF6D48016802B4002101609D
:10560000FEF72CF800F014F8684802BC0160043F73
:105610003E6040BC01BC043F3860FEF71FF800BD8F
:105620001C570010000009696E7465727072657411
:1056300000B55F4887420BD9FEF7D6F81053746166
:10564000636B20756E646572666C6F770A0079E033
:10565000584887420AD2FEF7C7F80F537461636B4C
:10566000206F766572666C6F770A6BE0FFF7DCFE81
:10567000FFF7EAFC002E02D1043740CF00BD3868A6
:10568000043F3E60043F3860FFF7B4F8310040CF7C
:10569000320040CF002A15D138683100FCF728FFCE
:1056A000FFF735FD320040CF002AC2D1FEF700F9E6
:1056B000FEF79AF80C206E6F7420666F756E642E7C
:1056C0000A003FE03C4B1B68002B1CD1FFF7B9FEE2
:1056D00030230B40302B0ED1FEF7E6F8FEF784F8AE
:1056E0001220697320636F6D70696C652D6F6E6C2D
:1056F000792E0A0026E0043740CF043F3E601600B2
:10570000FEF733FC95E7043740CF043F3E601600B8
:10571000043F3E600E00FFF79EFE8AE738570010F8
:10572000810009686F6F6B2D71756974043F3E606D
:10573000224E704774570010D057001000000471BB
:10574000756974001E488546194FFDF757FB1D48C3
:105750000A2101601848002101600B480160FBF735
:1057600048FD12480160184801601849416013481B
:1057700000688746FDF78EFFFFF75AFFFEF734F803
:1057800005206F6B2E0AF5E7FC00002000100000DA
:105790000004000000200000000200001C010020A6
:1057A000000800005001002054010020E43F0020C8
:1057B0008004002080020020D83F0020D43F002039
:1057C00080050020FC3F0020DC3F0020B8010020C5
:1057D000EC57001000000565696E743F043F3E60A1
:1057E000EFF31086013EB6417047C046FC570010EB
:1057F00020000465696E740062B670470C58001092
:1058000020000464696E740072B67047245800105A
:105810002000046970737200043F3E60EFF3058658
:105820007047C046305800100000036E6F7070471C
:1058300074580010000009756E68616E646C6564D0
:1058400000B5FDF7D1FF14556E68616E646C656438
:1058500020496E746572727570742000043F3E605A
:10586000EFF30586FEF738F8FDF7BEFF02210A00C8
:1058700000BDC0468858001000000572657365744D
:105880001D481E490160C046AC58001081000B69DC
:1058900072712D7379737469636B043F3E60184EA7
:1058A000704740580010164800688746D0580010CE
:1058B0008100096972712D6661756C74043F3E60E8
:1058C000104E7047405800100E4800688746C0468A
:1058D000005A001081000E6972712D636F6C6C6547
:1058E0006374696F6E00043F3E60074E7047405816
:1058F00000100548006887460CED00E00400FA053A
:10590000D03F0020CC3F0020C83F002000688746E1
:10591000C046C046C046C0460048F7E7CC3F00201E
:10592000C046C046C046C046C046C046C046C04647
:10593000C046C046C046C0461D48E7E7C046C04610
:10594000C046C0461A48E1E71A48DFE71A48DDE7D3
:105950001A48DBE7C046C0461948D7E71948D5E7DB
:105960001948D3E71948D1E7C046C046C046C046EB
:105970001748CBE71748C9E71748C7E71748C5E7EF
:105980001748C3E71748C1E71748BFE71748BDE7FF
:10599000C046C046C046C046C046C046C046C046D7
:1059A0001348B3E71348B1E71348AFE71348ADE72F
:1059B000C83F0020D03F0020C43F0020C03F00204F
:1059C000BC3F0020B83F0020B43F0020B03F002083
:1059D000AC3F0020A83F0020A43F0020A03F0020B3
:1059E0009C3F0020983F0020943F0020903F0020E3
:1059F0008C3F0020883F0020843F0020803F002013
:105A0000245A00108100086972712D73637530008B
:105A1000043F3E60F04E704740580010EE4800686A
:105A20008746C046485A00108100086972712D737C
:105A300063753100043F3E60E84E704740580010E7
:105A4000E64800688746C0466C5A00108100086925
:105A500072712D6572753000043F3E60E04E7047F4
:105A600040580010DE4800688746C046905A001033
:105A70008100086972712D6572753100043F3E60C6
:105A8000D84E704740580010D64800688746C04638
:105A9000B45A00108100086972712D657275320068
:105AA000043F3E60D04E704740580010CE4800681A
:105AB0008746C046D85A00108100086972712D656A
:105AC00072753300043F3E60C84E70474058001066
:105AD000C64800688746C046FC5A00108100086925
:105AE00072712D7573693000043F3E60C04E70477F
:105AF00040580010BE4800688746C046205B001032
:105B00008100086972712D7573693100043F3E6030
:105B1000B84E704740580010B64800688746C046E7
:105B2000445B00108100086972712D757369320041
:105B3000043F3E60B04E704740580010AE480068C9
:105B40008746C046685B00108100086972712D7538
:105B500073693300043F3E60A84E70474058001000
:105B6000A64800688746C0468C5B00108100086923
:105B700072712D7573693400043F3E60A04E70470A
:105B8000405800109E4800688746C046B05B001031
:105B90008100086972712D7573693500043F3E609C
:105BA000984E704740580010964800688746C04697
:105BB000D45B00108100086972712D61646330004C
:105BC000043F3E60904E7047405800108E48006879
:105BD0008746C046F85B00108100086972712D612C
:105BE00064633100043F3E60884E704740580010A7
:105BF000864800688746C0461C5C00108100086922
:105C000072712D6363753000043F3E60804E7047B3
:105C1000405800107E4800688746C046405C00102F
:105C20008100086972712D6363753100043F3E6025
:105C3000784E704740580010764800688746C04646
:105C4000645C00108100086972712D636375320015
:105C5000043F3E60704E7047405800106E48006828
:105C60008746C046885C00108100086972712D6308
:105C700063753300043F3E60684E70474058001023
:105C8000664800688746C0460C600010FFFF182D6C
:105C90002D2D20466C6173682044696374696F6EB2
:105CA000617279202D2D2D00FDF71CFB5C4F043F08
:105CB0003E605C4E043F3E605B4E043F3E60F42617
:105CC000FCF7E4FC59488546554F2A26584859495F
:105CD0000160594859490160043F3E60574E584D94
:105CE000B188584B994224D0574B0B400AD0B01D75
:105CF000FEF770FDFEF7A5F8038840880004034313
:105D0000ED1A16E080230B4013D00F2319408900B1
:105D10006D1AB01DFEF75EFDFEF793F8043F3E607E
:105D20000600043F3E602E00043F3E600E00FCF77C
:105D3000ADFCFEF72CFD300040CFD1D043480660CB
:105D400040CF43480560434843493E4A884204D017
:105D5000023803889342F9D0023040490860FDF7C9
:105D60004DF8FDF741FD454D6563726973702D5324
:105D700074656C6C6172697320524120322E322E30
:105D8000322077697468204D3020636F7265206619
:105D90006F7220584D4331313030206279204D618F
:105DA000747468696173204B6F63680A2C48002122
:105DB0000160043F3E602B4E043F3E600426FEF728
:105DC00019FD40CF002E02D0FEF7CFF8CFE440CF30
:105DD000B8E4696E69740000C43F0020C03F002031
:105DE000BC3F0020B83F0020B43F0020B03F00205F
:105DF000AC3F0020A83F0020A43F0020A03F00208F
:105E00009C3F0020983F0020943F0020903F0020BE
:105E10008C3F0020883F0020843F0020803F0020EE
:105E2000800400200C590010000000208005002094
:105E3000F400002024080020F800002018100010B2
:105E400000400020FFFF00000001000010010020C2
:105E50001801002000100110006000100C0100204B
:085E6000FC000020D25D0010DF
:0400000510001000D7
:00000001FF
