:020000040800F2
:10000000300300204F3900008F3700008F37000089
:100010008F3700008F3700008F370000000000008E
:10002000000000000000000000000000BD370000DC
:10003000BD37000000000000BD370000673700003A
:10004000BD370000BD370000BD370000BD370000E0
:10005000BD370000BD370000E53700000D38000057
:10006000353800005D38000085380000BD370000DD
:10007000BD370000BD370000BD370000BD370000B0
:10008000BD370000BD370000AB380000BD370000B1
:10009000BD370000BD370000BD370000BD37000090
:1000A000BD370000BD370000BD370000BD37000080
:1000B000D3380000FB38000023390000BD370000B2
:1000C000BD370000BD370000BD370000BD37000060
:1000D000BD370000BD370000BD370000BD37000050
:1000E000BD370000BD370000BD370000BD37000040
:1000F000BD370000BD370000BD370000BD37000030
:10010000BD370000BD370000BD370000BD3700001F
:10011000BD370000BD370000BD370000BD3700000F
:10012000BD370000BD370000BD370000BD370000FF
:10013000BD370000BD370000BD370000BD370000EF
:10014000BD370000BD370000BD370000BD370000DF
:10015000BD370000BD370000BD370000BD370000CF
:10016000BD370000BD370000BD370000BD370000BF
:10017000BD370000BD370000BD370000BD370000AF
:10018000BD370000BD370000AE010000FFFF1E2D8F
:100190002D2D204D6563726973702D5374656C6CE1
:1001A0006172697320436F7265202D2D2D00C60189
:1001B00000004200043264757000386847F8046D2E
:1001C000043F38607047D801000062000532647255
:1001D0006F70043740CF7047F601000044000532CD
:1001E0007377617007CF043F386047F8046D043FB0
:1001F0003A600E0070470A020000620004326E6925
:10020000700007CF043F38607047240200004400AC
:1002100005326F766572B86847F8046D043F386040
:10022000FE68704748020000440005327475636B35
:1002300007CF043F386047F8046D043F3A60043F3D
:100240003960043F386070476A020000460004329B
:10025000726F74003868B9683A69B86039613A6099
:1002600079687E60FE68F96070478C020000460085
:1002700005322D726F743868B9683A69386139602F
:10028000BA60F968FE607E6879607047A00200007D
:10029000200003323E7201CF01B440B440CF70471A
:1002A000B802000020000332723E47F8046D40BCE3
:1002B00001BC043F38607047D002000020000332C8
:1002C000724047F8046D019E47F8046D009E704728
:1002D000E2020000200006327264726F700002B009
:1002E0007047FA02000042000364322F3868F107B9
:1002F000761040080843386070470E030000620023
:100300000364322A38680018764138607047280341
:10031000000042000464736872003868F1077608D0
:1003200040080843386070473E03000062000464E0
:1003300073686C0038680018764138607047500365
:1003400000004200046461627300002E07D470470D
:100350006E030000420007646E656761746538686B
:100360000021C043F64301304E4138607047860398
:100370000000640002642D0007CF121AB1410E0084
:10038000043F3A6070479C030000640002642B0045
:1003900007CF12184E41043F3A607047AE03000089
:1003A000610003733E6447F8046DF6177047C2039B
:1003B0000000620003756D2A3868A0FB06063860ED
:1003C0007047D60300006200026D2A00386880FB87
:1003D0000606386070471404000044000375642A60
:1003E00007CF564341437618010C130C5943761836
:1003F000010C80B292B25143434350430022C918CA
:1004000052411204B6180A04090C80184E41043FE8
:1004100038607047A604000044000475646D2A002B
:1004200010B5002447F8046D7E6847F8046D3E69F6
:10043000FFF7C2FF310040CF300040CF47F8046DD6
:100440003E6847F8046DFE6803B4FFF7B5FF03BCD0
:10045000330040CF320040CF47F8046D3E6847F884
:10046000046D3E690FB4FFF7A7FF0FBC92196341FB
:1004700040CF89196241634140CF47F8046D7E68DF
:1004800047F8046DFE680FB4FFF796FF0FBC921992
:10049000634140CF89196241634140CF1E003A60F9
:1004A0007960B86010BDC80400004300022A2F0024
:1004B00000B540B440CFFFF789FF47F8046D40BC5A
:1004C00000F04CF8043700BDEA0400004300052AA0
:1004D0002F6D6F6400B540B440CFFFF777FF47F84A
:1004E000046D40BC00F03AF800BD0C05000043006C
:1004F00003752A2F00B540B440CFFFF75DFF47F8E2
:10050000046D40BC00F01BF8043700BD300500004E
:10051000430006752A2F6D6F640000B540B440CFCC
:10052000FFF74AFF47F8046D40BC00F008F800BD33
:1005300050050000430006756D2F6D6F640000B517
:1005400047F8046D002600F019F840CF043700BDCD
:100550006E0500004300056D2F6D6F6400B547F810
:10056000046DF61700F032F840CF043700BDC00527
:10057000000044000675642F6D6F640030B40023E2
:1005800000227968B86835003C684026400049413F
:1005900052415B41AB4202D804D3A24202D3121BA8
:1005A000AB410130013EF1D10E0038607B60BA6092
:1005B00030BC704730B400237A68B9680020E2E7A5
:1005C00036060000440005642F6D6F6400B5F01717
:1005D00019D0FFF7C4FEFFF705FEF0170CD0FFF7A8
:1005E000BEFEFFF7FFFDFFF7C9FFFFF7FBFDFFF7BB
:1005F000B6FEFFF7F7FD00BDFFF7F4FDFFF7BEFF06
:10060000FFF7ADFE00BDFFF7EDFDF0170ED0FFF7D1
:10061000A6FEFFF7E7FDFFF7B1FFFFF7A0FEFFF72C
:10062000E1FDFFF79CFEFFF7DDFD00BDFFF7DAFD02
:10063000FFF7A4FF00BD4C060000440002642F0039
:1006400000B5FFF7C3FFFFF7DCFD00BD9406000017
:10065000440002662A0000B5F0170DD0FFF77FFEB8
:10066000FFF7C0FDF0170DD0FFF779FEFFF7D8FEBA
:1006700040CF01CF386000BDFFF7B4FDF017F5D0D3
:10068000FFF76DFEFFF7CCFE40CF01CF3860FFF7DC
:1006900066FE00BDE0060000440002662F0000B5C3
:1006A000F0170ED0FFF75BFEFFF79CFDF0170ED0A2
:1006B000FFF755FEFFF796FDFFF77CFFFFF7A1FD63
:1006C00000BDFFF78FFDF017F4D0FFF748FEFFF7EE
:1006D00089FDFFF76FFFFFF742FEFFF792FD00BDB8
:1006E000F406000020000232210006CF3160726063
:1006F00040CF704708070000200002324000043F4E
:10070000706838603668704728070000440003644A
:10071000753C07CF8E4204D801D1904201D8002603
:1007200070470026F6437047480700004400036402
:10073000753E07CFB14204D801D1824201D80026CC
:1007400070470026F64370476807000044000264C3
:100750003C0007CF8E4204DC01D1904201DC002630
:1007600070470026F6437047880700004400026483
:100770003E0007CFB14204DC01D1824201DC0026F9
:1007800070470026F6437047980700006200036434
:10079000303C0437F6177047B2070000420003648C
:1007A000303D01CF002801D000267047013EB64100
:1007B0007047CC070000440003643C3E07CF9042E2
:1007C00001D1761A01D00026F6437047E8070000F1
:1007D000440002643D0007CF904201D000267047DC
:1007E000761A013EB6417047FA07000020000373F5
:1007F000704047F8046D3E0070470A080000200072
:1008000003737021370040CF70471C0800002000A0
:100810000372704047F8046D6E4670472C08000064
:10082000200003727021B54640CF70473C0800009D
:1008300061000364757047F8046D70474C08000050
:1008400061000464726F700040CF7047620800005E
:100850006100043F64757000002E01D047F8046DFC
:100860007047760800006200047377617000396891
:100870003E600E007047840800006200036E6970DD
:1008800004377047980800006200046F76657200B4
:1008900047F8046D7E687047AE080000620004747B
:1008A00075636B0001CF083F7E6038607047C408F5
:1008B0000000630003726F7403CF083F78603E60EE
:1008C0000E007047DC0800006300042D726F740096
:1008D00003CF083F7E60396006007047EE080000D5
:1008E0002000047069636B0057F8266070470609A2
:1008F00000000000056465707468C049C91B47F8B2
:10090000046D8E08704722090000000006726465BD
:100910007074680047F8046D6E46B949891B8E08EB
:100920007047320900002000023E720040B440CF00
:10093000704744090000200002723E0047F8046D31
:1009400040BC70475609000020000272400047F882
:10095000046D009E704766090000200005726472F5
:100960006F7001B070477A0900002000057270694D
:10097000636BB6006E4436687047900900006000F3
:1009800004747275650047F8046D0026F6437047DD
:10099000A409000060000566616C736547F8046D8A
:1009A00000267047BA0900006E0003616E6401CF33
:1009B000064070470640000616F0D20900006E009F
:1009C0000362696301CFB0430600704786430006A7
:1009D00036F0E80900006E00026F720001CF064396
:1009E00070470643000656F0FE0900006E000378CB
:1009F0006F7201CF464070474640000696F00C0AE1
:100A000000006100036E6F74F64370471C0A00001B
:100A1000610003636C7AB6FA86F670472A0A000012
:100A200061000373687276087047380A000061003D
:100A30000373686C76007047480A00006100037217
:100A40006F725FEA760670475A0A0000610003720F
:100A50006F6CB61956F100067047740A00006C00FE
:100A6000067273686966740001CFF0400600704733
:100A7000360800268E0A00006C00076172736869F0
:100A8000667401CF3041060070473610F617A80A89
:100A900000006C00066C73686966740001CFB0409A
:100AA0000600704736000026B80A000061000230D8
:100AB0003D00013EB6417047CA0A000061000330A4
:100AC0003C3E013EB641F6437047D80A0000610043
:100AD00002303C00F6177047F00A00004200023E68
:100AE0003D0001CFB042B4BF00264FF0FF36704743
:100AF000080B00004200023C3D0001CFB042CCBFD9
:100B000000264FF0FF3670471E0B00004200013CEC
:100B100001CFB042B4BF4FF0FF3600267047340B10
:100B200000004200013E01CFB042CCBF4FF0FF3683
:100B300000267047480B0000620003753E3D01CF60
:100B4000861BB641F64370475C0B000062000375DC
:100B50003C3D01CF361AB641F64370476E0B00009C
:100B6000620002753C0001CF861BB6417047800BC6
:100B70000000620002753E0001CF361AB641704790
:100B8000960B00006B00023C3E0001CF361A18BFE6
:100B90004FF0FF367047A80B00006B00013D01CFFE
:100BA000361A013EB6417047BC0B00006200036D6F
:100BB000696E01CFB042B8BF06467047D00B000047
:100BC0006200036D617801CFB042C8BF064670472E
:100BD000E60B0000620004756D61780001CFB04241
:100BE00088BF06467047040C0000620004756D69FA
:100BF0006E0001CFB04238BF064670473002002079
:100C000030030020420C00000000046D6F76650088
:100C100007B5310040CF320040CF00290FD0B2429B
:100C20000DD006D3013E013A705C50540139FBD11E
:100C300005E030781070013601320139F9D140CF2A
:100C400007BD640C000000000466696C6C00300095
:100C500040CF310040CF002902D001397054FCD17F
:100C600040CF7047700C000020000140366870478C
:100C7000880C00006D00012103CF30600E0070472A
:100C80000660704701607047AE0C00006D00022BDB
:100C9000210003CF3268121832600E0070470268DC
:100CA0009219026070470268521802607047BC0CCB
:100CB000000020000268400036887047D60C000013
:100CC0006D000268210003CF30800E00704706805F
:100CD000704701807047FC0C00006D0003682B21F9
:100CE00003CF3288121832800E00704702889219A2
:100CF0000280704702885218028070470A0D000077
:100D000020000263400036787047240D00006D001B
:100D10000263210003CF30700E00704706707047E9
:100D2000017070474A0D00006D0003632B2103CF53
:100D30003278121832700E007047027892190270E1
:100D400070470278521802707047720D00006D00F3
:100D500004626973210003CF3268024332600E00DF
:100D60007047026832430260704702680A430260BB
:100D700070479A0D00006D0004626963210003CF83
:100D80003268824332600E0070470268B2430260EC
:100D9000704702688A4302607047C20D00006D0010
:100DA00004786F72210003CF3268424032600E0037
:100DB0007047026872400260704702684A400260F1
:100DC00070472C0E0000680004626974400001CF77
:100DD0003668064018BF4FF0FF367047DFF804242E
:100DE00000B5012B0AD147F8046D002600F036FF4C
:100DF00047F8046D160001F089FA11E002CF013BBB
:100E000002F0EDFB47F8046D3626164301F07EFA3A
:100E100047F8046D0E0047F8046D002600F01EFF31
:100E200047F8046DF04E01F04DF800BD540E00007F
:100E30006D0005686269732103CF328802433280F6
:100E40000E007047028832430280704702880A43CE
:100E5000028070477C0E00006D00056862696321A6
:100E600003CF3288824332800E0070470288B2433B
:100E70000280704702888A4302807047A40E0000F7
:100E80006D000568786F722103CF3288424032804E
:100E90000E007047028872400280704702884A4004
:100EA00002807047C20E00006800056862697440E5
:100EB00001CF3688064018BF4FF0FF367047CB4A47
:100EC0008EE7EA0E00006D0005636269732103CFAF
:100ED0003278024332700E0070470278324302705B
:100EE000704702780A4302707047120F00006D00CD
:100EF00005636269632103CF3278824332700E004A
:100F000070470278B2430270704702788A430270D9
:100F100070473A0F00006D000563786F722103CFB0
:100F20003278424032700E00704702787240027090
:100F3000704702784A4002707047580F00006800FE
:100F400005636269744001CF3678064018BF4FF0E0
:100F5000FF367047A64A43E7680F0000610005634B
:100F6000656C6C2B04367047780F000061000563D8
:100F7000656C6C73B60070470C10000000000768C9
:100F8000666C61736821300040CF310040CF994BCF
:100F9000984221D3984B98421ED2984B19409942BF
:100FA00019D010F00102002A16D102889A4213D1FA
:100FB00010F10060924A934B1360934B1360934A75
:100FC000934B13600180934A136813F48033FBD171
:100FD0008E4A914B1360704700F045FC2A57726FA0
:100FE0006E672061646472657373206F7220646140
:100FF000746120666F722077726974696E6720660B
:101000006C61736820210A0002F010BB64100000BC
:1010100000000763666C61736821300040CF3100C7
:1010200040CF744B9842D7D3734B9842D4D211F02F
:10103000FF01FF2915D00278FF2ACDD110F1006001
:101040006F4A704B1360704B1360704A734B1360A0
:101050000170704A136813F48033FBD16B4A6E4BF6
:1010600013607047DA10000000001065726173654C
:10107000666C617368736563746F720000B5012EEE
:1010800029D3082E27D25E4A5E4B13605E4B136055
:1010900000F0E9FB0D457261736520736563746F41
:1010A000722047F8046D02F017F9584A5C4BF600BD
:1010B00033431360574A136813F48033FBD1534A08
:1010C000554B136000F0CFFB0C66726F6D20466CC1
:1010D0006173682E0A0040CF00BD5C120000000062
:1010E0000A6572617365666C6173680072B600B5FB
:1010F0004C484D490268B2F1FF3F05D047F8046DF6
:101100000126FFF7BBFF02E004308842F2D34748D4
:1011100047490268B2F1FF3F05D047F8046D022647
:10112000FFF7ACFF02E004308842F2D34148424965
:101130000268B2F1FF3F05D047F8046D0326FFF7C0
:101140009DFF02E004308842F2D33C483C490268EB
:10115000B2F1FF3F05D047F8046D0426FFF78EFF7C
:1011600002E004308842F2D3364837490268B2F1CF
:10117000FF3F05D047F8046D0526FFF77FFF02E02B
:1011800004308842F2D3314831490268B2F1FF3F5E
:1011900005D047F8046D0626FFF770FF02E0043023
:1011A0008842F2D32B482C490268B2F1FF3F05D0A8
:1011B00047F8046D0726FFF761FF02E0043088421C
:1011C000F2D300F050FB1246696E69736865642EB5
:1011D00020526573657420210A005DF804EB62B645
:1011E00002F0AFBA00680000D20D000000880000D5
:1011F000007800000040000000000800FFFF000031
:10120000043C024023016745AB89EFCD103C02400E
:10121000010100000C3C02400000008001000000C1
:101220000200010000400008FF7F00080080000865
:10123000FFBF000800C00008FFFF00080000010811
:10124000FFFF010800000208FFFF03080000040878
:10125000FFFF050800000608FFFF070872120000E4
:101260006900012B01CF361870473618003600068A
:1012700016F1881200006900012D01CF861B70470E
:10128000361A003E0006B6F19612000061000231E7
:101290002D00013E7047A4120000610002312B00B6
:1012A00001367047B2120000610002322D00023E8A
:1012B0007047C0120000610002322B0002367047F6
:1012C000D21200006100066E6567617465007642A7
:1012D0007047E6120000610003616273002E48BF90
:1012E000D6F10006704704130000420005752F6D0B
:1012F0006F6401CF3100B0FBF6F67143401A043F32
:1013000038607047221300004200042F6D6F6400A4
:1013100001CF310090FBF6F67143401A043F38606C
:101320007047361300004200036D6F6400B5FFF78D
:10133000EFFF40CF00BD461300006200012F01CF38
:1013400090FBF6F67047561300006A00012A01CFA1
:1013500046437047464364130000610002322A008E
:101360007600704772130000610002322F00761081
:101370007047861300006100046576656E000120E9
:101380003040361870479E1300008100046261737C
:10139000650047F8046D844E70470A000000B413DE
:1013A000000000000662696E617279007E480221C9
:1013B00001607047CA130000000007646563696D2F
:1013C000616C79480A2101607047DC13000000005D
:1013D000036865787448102101607047F8130000B5
:1013E000810009686F6F6B2D656D697447F8046D36
:1013F0006E4E7047E214000014140000810008686B
:101400006F6F6B2D6B65790047F8046D684E704700
:10141000081500003214000081000A686F6F6B2D00
:10142000656D69743F0047F8046D624E7047321570
:1014300000004E140000810009686F6F6B2D6B6512
:10144000793F47F8046D5C4E70475E1500006C14E0
:10145000000081000A686F6F6B2D70617573650005
:1014600047F8046D554E7047F236000082140000B4
:10147000000004656D6974000FB54C4800F026F853
:101480000FBD961400000000036B65790FB5484846
:1014900000F01CF80FBDA8140000000005656D6980
:1014A000743F444800688746BA1400000000046B8B
:1014B00065793F00404800688746D014000000006E
:1014C0000570617573653D4800688746006887460A
:1014D000F614000000000B73657269616C2D656D78
:1014E000697400B500F025F8002E40CFFAD0344AD8
:1014F000167040CF00BD1E15000000000A73657213
:1015000069616C2D6B65790000B500F028F8002E3C
:1015100040CFFAD047F8046D294A167800BD4C1523
:10152000000000000C73657269616C2D656D697453
:101530003F0000B5FFF7C7FF47F8046D00262148BC
:1015400001688020014000D0F64300BDE81500008E
:1015500000000B73657269616C2D6B65793F00B596
:10156000FFF7B1FF47F8046D0026164801682020F8
:10157000014000D0F64300BD13499F200860134985
:10158000086850F0A0000860114920F47F4050F432
:10159000EE4008600F491048086010498B20086031
:1015A0000F49104808607047FCFF0120F8FF012038
:1015B000F4FF0120F0FF0120ECFF0120E8FF0120F3
:1015C0000444004000440040303802400000024023
:1015D0002000024040380240000002000844004061
:1015E0000C4400400C2000000C16000000000763B3
:1015F00065787065637400B5386801B4013038608F
:1016000000F00BF801BC067040CF00BD8216000050
:101610000000066163636570740000B502CF013994
:101620000022FFF733FF300040CF7F2809D0202869
:1016300019D2092816D00A281FD00D281DD0082835
:10164000EFD1002AEDD000F00EF903082008002A9F
:10165000E7D0885C013A80230340E2D04023034076
:10166000F5D0DEE72020B242DBD247F8046D060059
:10167000FFF702FF01328854D3E7160000F0A2F80A
:1016800000BD9416000040000374696247F8046DC1
:10169000294E7047AA1600008100033E696E47F884
:1016A000046D264E704700000000D0160000820036
:1016B0000E63757272656E742D736F75726365005B
:1016C00047F8046D1E4E70470000000068000020BF
:1016D000EC160000000009736574736F7572636522
:1016E000174802CF0660416040CF70470A170000DC
:1016F000000006736F757263650047F8046D104E45
:10170000043F706838603668704744170000000076
:101710000571756572790FB5084800210160FFF702
:10172000B5FF47F8046D47F8046DC826FFF775FF4D
:10173000FFF7D6FF0FBD000068000020E4FF012086
:10174000DCFF012092170000000007636F6D7061DD
:1017500072650FB5310040CF01CF884202D040CF33
:1017600000260FBD02CF002810D001380A5C335C80
:10177000412A02D35B2A38BF2032412B02D35B2B94
:1017800038BF20339A42EED000260FBD0026F64324
:101790000FBDA617000000000263720000B500F044
:1017A00062F8010A00BDB8170000000002626C0078
:1017B00047F8046D20267047CC1700000000057321
:1017C0007061636547F8046D202655E6EC1700004C
:1017D0000000067370616365730000B5002E03DDC1
:1017E000FFF7F0FF013EFBD140CF00BDFC1700002A
:1017F0005000065B636861725D0005E0141800002C
:10180000000004636861720000B501F089FB40CFFD
:10181000367800BD241800005000012847F8046DF8
:10182000292606E03E1800005000015C47F8046DD0
:10183000002600B501F07EFB043740CF00BD8218C2
:1018400000001000022E22009C4800B547F8046DED
:10185000060000F060FA47F8046D222601F06AFBEA
:1018600000F08DFD00BD0AB447F8046D7646013ED8
:1018700033780121013319405B181EEB030E0ABCBB
:1018800039E0A81800001000026322008C48DCE751
:1018900047F8046D7646013E337801210133194043
:1018A0005B181EEB030E7047D21800001000027385
:1018B00022008448C9E747F8046D764647F8046D6E
:1018C000013E36780121731C19405B181EEB030E94
:1018D0007047EA180000000005636F756E740136EA
:1018E00047F8046D013E3678704712190000000079
:1018F00005637479706501B53078002807D001362A
:1019000047F8046D3678FFF7B7FD0138F7D140CFBF
:1019100001BD4019000000000474797065003100B9
:1019200040CF300040CF00B5002908D0002247F852
:10193000046D865CFFF7A0FD01329142F7D100BD36
:10194000781900000000046865782E0003B53100A6
:1019500040CF2020043847F8046D31FA00F616F025
:101960000F06092E8CBF37363036FFF785FD00286D
:10197000F0D1FFF727FF03BD8819000000000368BE
:101980002E731FB5504C0EE098190000000003752F
:101990002E731FB54D4C06E0161A00000000022EF3
:1019A00073001FB54A4C4B49C91B89084A4A106845
:1019B00003B40A201060FFF756FF08537461636B8D
:1019C0003A205B0047F8046D0E0001F08DFCFFF734
:1019D0004AFF025D200003BC3F4A106000290AD084
:1019E0003E4A106806B447F8046D0600A04706BCDE
:1019F000043A0139F5D1FFF736FF0620544F533A28
:101A0000200047F8046D3600A047FFF72CFF0420A4
:101A10002A3E0A001FBDE01A0000000005776F7221
:101A2000647300B5FFF71FFF06776F7264730A00D7
:101A300000F0E7FEFFF717FF0941646472657373F6
:101A40003A2047F8046DFFF781FFFFF70CFF064CC3
:101A5000696E6B3A200047F8046D3668FFF776FF31
:101A6000FFF701FF07466C6167733A2047F8046D82
:101A7000B688FFF76BFFFFF7F6FE06436F64653A23
:101A80002000B01D00F0F6FE47F8046D0600FFF7D9
:101A90005DFFFFF7E8FE064E616D653A200047F8EE
:101AA000046D0636FFF727FFFFF7DDFE010A00F0A1
:101AB000BFFE300040CFBDD040CF00BD6618000053
:101AC00090180000B61800004D190000D93200002F
:101AD000E932000030020020FCFF01202C0200202F
:101AE000441C000000000D3132626974656E636F42
:101AF00064696E670FB5FF2E04D847F8046D5FF078
:101B0000FF360FBD16F0FF10B0420ED14FF6FF7139
:101B10000840310C814208D116F0FF0656F4805679
:101B200047F8046D5FF0FF360FBD16F0FF20B0429E
:101B30000FD14FF6FF710840310C814209D1360AAE
:101B400016F0FF0656F4005647F8046D5FF0FF36B6
:101B50000FBDFF2231001140300A1040884210D1E1
:101B6000300C104088420CD1300E1040884208D111
:101B700016F0FF0656F4405647F8046D5FF0FF3646
:101B80000FBD300000210131001850F100007FF03E
:101B90007F020240802A05D01F29F4D347F8046D44
:101BA00000260FBD0829F9D3060036F0800611F093
:101BB0000100C001064311F00E00C002064311F0FF
:101BC00010008005064347F8046D5FF0FF360FBD37
:101BD00047F8046DDFF83C665FF4704110EA0102DB
:101BE000120116435FF4006110EA0102D2031643AA
:101BF0005FF4E06110EA010212011643FF2110EACE
:101C0000010216431E43AAE347F8046DDFF8086695
:101C10005FF0704110EA0102120B16435FF00061A1
:101C200010EA0102520816435FF0E06110EA010277
:101C3000120B16435FF47F0110EA0102120C1643E7
:101C40001E438CE3AA1C00000000107265676973D4
:101C50007465726C69746572616C2C000FB5330029
:101C600040CF1B02FF2E05D856F400561E4300F04D
:101C70004DFB0FBDFFF73EFF002E40CF06D0DFF833
:101C80009C0506431E4300F06AFB0FBDF643FFF7B9
:101C900031FF002E40CF06D0DFF8840506431E43F7
:101CA00000F05DFB0FBDF6430BE00A1D00000000D5
:101CB000096D6F76776D6F76742C0FB5330040CF5A
:101CC0001B02300040CFFFF783FF4FF6FF7110EA91
:101CD000014001D0FFF798FF0FBD0FB5013630006E
:101CE00040CF0023FFF774FFFFF78EFF06E00FB52C
:101CF000013647F8046D0026FFF7B0FF47F8046D82
:101D000044F2807600F002FB0FBD701D0000000061
:101D10000563616C6C2C0FB5330000F043FE30009E
:101D200040CF1B1A043BDFF8FC141940002906D0F1
:101D3000DFF8F424914202D0BDE80F40D7E740CF4E
:101D40005B08DFF8E80440F2FF7119400843DB0A42
:101D500040F2FF311940090408439B0A13F00101C6
:101D60008906084347F8046D060000F0F8FA0FBD35
:101D7000A61D00000000086C69746572616C2C007F
:101D800008B547F8046D4FF6470600F0BFFA47F86C
:101D9000046D46F6045600F0B9FA47F8046D0626BD
:101DA000FFF75CFF08BDCA1D0000000006637265F6
:101DB0006174650000B500F033F841F6E7508047E4
:101DC00047F8046DBEF1010600BD121E00002000A0
:101DD00005646F65733E41F6E750804747F8046D30
:101DE000BEF10106704747F8046DBEF10106DFF849
:101DF00040241368DFF83C1409680220084000D032
:101E0000023102311160FFF768FF136000F0B7F98B
:101E100000BD541E00000000073C6275696C6473CD
:101E200000B500F077FB00F0BDFD0220064040CF7A
:101E300004D047F8046D362600F068FA47F8046DC0
:101E40004BF2005600F062FA47F8046D0A2600F0E3
:101E5000C9FA00BD601E00005000035B275D03E06F
:101E6000781E00000000012700B501F059F800F0CD
:101E70003FFD300040CF00BDB61E000010000870CE
:101E80006F7374706F6E650000B5FFF7EDFF102182
:101E900001400DD12021014005D0FFF771FF47F827
:101EA000046DE54E04E0FFF76BFF47F8046DE34E69
:101EB000FFF731FF00BD0C1F0000000007696E6CCA
:101EC000696E652C00B54BF200514BF6005244F29E
:101ED00070733088884208D0904208D0984206D06B
:101EE00047F8046D060000F011FA0236F1E740CF22
:101EF00000BD0EB44BF6005244F2707301880230FC
:101F0000914201D09942F9D10EBC7047221F0000C6
:101F10000000047265742C0047F8046D4BF60056FF
:101F2000F4E1301F00003000046578697400F3E7C5
:101F3000481F00003000077265637572736547F8CB
:101F4000046DBC4E3668E6E6601F00008100057334
:101F50007461746547F8046DB94E70470000000065
:101F6000721F00000000015DB5480021C9430160F7
:101F70007047821F00001000015BB1480021016022
:101F80007047AA1F00000000013A00B5AD48076085
:101F900000F0C0FA47F8046D4BF2005600F0B6F9B5
:101FA000A7480021C943016000BDF21F00003000B6
:101FB000013B00B5A3480168B9420ED0FFF753FCBE
:101FC0001520537461636B206E6F742062616C61C5
:101FD0006E6365642E0A01F029BB47F8046D4BF669
:101FE000005600F093F900F0CAF89548002101600E
:101FF00000BD062000000000076578656375746504
:10200000300040CF87461E200000100009696D6D2A
:1020100065646961746547F8046D1026DFE034205B
:102020000000100006696E6C696E650047F8046D6B
:102030002026D4E04E20000010000B636F6D706905
:102040006C656F6E6C7947F8046D3026C7E06820C8
:10205000000010000A302D666F6C6461626C6500D0
:1020600047F8046D4026BAE08220000010000A31D3
:102070002D666F6C6461626C650047F8046D4126E3
:10208000ADE09C20000010000A322D666F6C646188
:10209000626C650047F8046D4226A0E0B62000009F
:1020A00010000A332D666F6C6461626C650047F83E
:1020B000046D432693E0D020000010000A342D6602
:1020C0006F6C6461626C650047F8046D442686E0BD
:1020D000EA20000010000A352D666F6C6461626CA6
:1020E000650047F8046D452679E0042100001000E2
:1020F0000A362D666F6C6461626C650047F8046D8A
:1021000046266CE01E21000010000A372D666F6C19
:102110006461626C650047F8046D47265FE04E21FC
:102120000000000008636F6E7374616E740000B588
:1021300000F0F0F9FFF724FE47F8046D44F27076E2
:1021400000F0E4F8FFF78CFF00F019F800BD7021F3
:10215000000000000932636F6E7374616E7400B525
:1021600000F0D8F939683E600E46FFF709FEE1E756
:10217000CE210000000006736D756467650000B530
:102180002B4801682A4A914280F01B8002390A8854
:102190002D4B9A4204D147F8046D2C4E00F0B6F84E
:1021A00000F087F82A48006847F8046D06002949BE
:1021B000096804311E4A1368116000F0A7F8136023
:1021C00000BD00F076F847F8046D002608E05822BC
:1021D0000000000008736574666C6167730000B5E9
:1021E00013480168124A914280F00680184801683D
:1021F0003143016040CF00BD320040CF1548006838
:1022000004300188104B99420CBF114611430180E4
:1022100000BD0000000040F20000C0F200005FF0CE
:1022200000007FF00100C0FF0000C0FF00F800F0D8
:102230000000002014000020C41E0000161D000035
:10224000D8FF012010000020FFFF00000000000068
:10225000200000200400002066220000000005612C
:102260006C69676E25E082220000410007616C699D
:10227000676E656401203040361802203040361801
:102280007047A4220000000006616C69676E2C0094
:10229000964801680120014003D047F8046D0026EC
:1022A0001AE07047CE220000000007616C69676E7B
:1022B000342C00B5FFF7ECFF8C4801680220014088
:1022C00004D047F8046D002600F020F800BD02237A
:1022D0000000000002632C0000B584480168834AB6
:1022E000914205D247F8046D0E00FEF796FE02E01B
:1022F000320040CF0A7047F8046D012600F072F8F2
:1023000000BD3A230000000002682C000FB5B6B2F1
:1023100076480168754A914280F0068047F8046D5E
:102320000E00FEF730FE02E0320040CF0A8047F890
:10233000046D022600F056F80FBD54230000000083
:10234000012C00B547F8046DFFF7E0FF360CFFF7EE
:10235000DDFF00BD702300000000033E3C2C00B5F3
:1023600047F8046D360CFFF7D1FFFFF7CFFF00BD34
:10237000D8230000000007737472696E672C07B5DC
:10238000FF21314040CF300040CF002905D147F830
:10239000046D0026FFF7BAFF07BD47F8046D067805
:1023A00036020E43FFF7B2FF0130013902290AD38A
:1023B00047F8046D4678360202781643FFF7A6FF09
:1023C00002300239F2E7002900D107BD47F8046D59
:1023D0000678FFF79BFF07BD32240000000005616F
:1023E0006C6C6F7441480168404A91420FD23200D0
:1023F00040CF89183E4A914219D3FFF734FA0B4671
:102400006C6173682066756C6C0A01F00FB932005C
:1024100040CF8918374A1268914208D3FFF723FA50
:102420000952616D2066756C6C0A01F0FFB801609D
:1024300070475A24000000000D636F6D70696C6571
:10244000746F72616D3F47F8046D0026274800687D
:102450002649884248D3F64370477A24000000009A
:102460000C636F6D70696C65746F72616D001F48ED
:1024700000681E49884211D37047042500000000FF
:102480000E636F6D70696C65746F666C6173680064
:10249000164800681549884200D270471648174907
:1024A00002680B680A6003601048154902680B68EF
:1024B0000A6003600F480068834215D300B5FFF738
:1024C000D2F923205661726961626C657320636F73
:1024D0006C6C6964652077697468206469637469E9
:1024E0006F6E6172790A00BD704700000000002025
:1024F0000000080024000020040000201C00002030
:1025000018000020F42500000000082863726561AF
:102510007465290000B500F003FD002E0ED1FFF711
:10252000A2F91520437265617465206E6565647358
:10253000206E616D6520210A01F078B8386847F88F
:10254000046D043F386000F0A4F940CF002E40CF66
:1025500011D0386847F8046D043F3860FFF783F9FD
:10256000095265646566696E6520FFF7D8F9FFF763
:102570007AF9022E0A00FFF78BFEFFF79AFE00F0B1
:1025800011FA904800688F49884280F01D808E487B
:102590000021016047F8046D0626FFF723FFFEF7D0
:1025A00097F9FFF7ECFE894801680A68884B9A4260
:1025B00007D1844A1368116047F8046DFFF7C1FE24
:1025C0001360066040CF10E0804847F8046D06684D
:1025D000FFF7B7FE47F8046D7E4EFFF797FE7B4886
:1025E000310040CF0160FFF7CAFE764801687A48A3
:1025F000016000BD0C260000000008766172696170
:10260000626C650047F8046D012613E02426000083
:10261000000009327661726961626C6547F8046D89
:10262000022607E0002700000000096E766172694B
:1026300061626C6500B5FFF76DFF62480168614A31
:10264000914280F035800F200640B2006348016857
:10265000891A634A91420BD2FFF705F90F4E6F7446
:1026600020656E6F7567682052414D0A00F0DEBF2D
:10267000016047F8046D0E00FFF782FB47F8046D18
:1026800044F27076FFF742FE300040CF020000288F
:1026900005D00E600431FFF754FE0138F9D147F838
:1026A000046D80261643FFF79AFDFFF768FD00BD15
:1026B00000F078F90220064040CF04D147F8046DBD
:1026C0003626FFF723FE47F8046D464EFFF747FE18
:1026D00047F8046D444EFFF742FE47F8046D44F29C
:1026E0007076FFF713FE300040CF002803D0FFF7CD
:1026F00028FE0138FBD1FFF7B3FCFFF740FD00BD1A
:10270000EC2700000000076275666665723A00B546
:10271000FFF700FF01203040361802203040361805
:1027200028480168274A914280F029802B48016897
:10273000891B2B4A91420BD2FFF795F80F4E6F740D
:1027400020656E6F7567682052414D0A00F06EBFBC
:10275000016047F8046D0E00FFF712FB47F8046DA7
:1027600044F27076FFF7D2FDFFF7EBFD47F8046DFA
:1027700040F24016FFF733FDFFF701FD00BD00F00A
:1027800011F90220064040CF04D147F8046D3626E7
:10279000FFF7BCFD47F8046D124EFFF7E0FD47F868
:1027A000046D114EFFF7DBFD47F8046D44F27076BF
:1027B000FFF7ACFDFFF716FEFFF752FCFFF7DFFC5B
:1027C00000BD0000000000202000002004000020C8
:1027D000FFFFFFFFFFFF0000140000202400002087
:1027E000300300203E60043F02367E461A28000077
:1027F00000000F64696374696F6E6172797374614C
:102800007274EB480068EA4947F8046D884201D2C7
:10281000E84E7047E84E36687047542800000000C4
:102820000E64696374696F6E6172796E65787400A5
:1028300003B53168E148814207D08879FF2804D088
:102840000E0047F8046D002603BD47F8046D00260E
:10285000F64303BD8628000000000A736B6970739D
:102860007472696E67003178013101220A4089185B
:102870007618704706B40178013101220A408918A0
:10288000401806BC70470629000000000466696E07
:1028900064003FB500220023350040CF340040CF14
:1028A000FFF7AFFFC648B188884217D047F8046DDC
:1028B0000636FFF714F847F8046D260047F8046D54
:1028C0002E00FEF746FF002E40CF07D0B01DFFF7C9
:1028D000D1FF02000B00B648824204D2FFF7A8FFE6
:1028E000300040CFDED0160047F8046D1E003FBD1B
:1028F00000B531003868FFF7CCFF3A68002A01D1F3
:1029000000F066FD00BD60290000000006636A75E6
:102910006D702C00320040CF310040CF8B1B043B48
:10292000A849194000290DD0A74881420AD0FEF7D6
:102930009AFF0D4A756D7020746F6F206661720A80
:1029400000F074BE5B10FF210B40134330001E00EB
:1029500000B5974A13681060FFF7D8FC136000BDFC
:10296000982900000000056A756D702C310040CF79
:10297000300040CF0B1A043B94491940002902D083
:10298000934A9142D3D15B10924A134053F460436F
:1029900047F8046D1E00DBE7AE2900000000046864
:1029A0006572650047F8046D814E36687047AA2A43
:1029B000000000000D666C6173687661722D6865B9
:1029C000726547F8046D844E3668704700B547F865
:1029D000046D42F60066FFF799FC47F8046D4CF66B
:1029E0004076FFF793FC00BDDCE700B500F03AF855
:1029F00039683E600E4647F8046D4DF20016FFF749
:102A000089FF00BD00B500F02DF839683E600E4624
:102A100047F8046D4DF20076FFF77CFF00BD00B56E
:102A2000FFF7D4FF00F01EF839683E600E4647F805
:102A3000046D4DF20006FFF76DFF00BD00B500F01C
:102A400011F839683E600E46FFF790FF00BD00B5F3
:102A5000FFF7BCFFFFF7A6FF47F8046D0226FFF75C
:102A6000C1FC00BD00B5FFF79DFF47F8046D0226CD
:102A7000FFF7B8FC00BD00B5FFF794FFFFF776FF46
:102A800000BD00B5FFF78EFF47F8046D4DF200065C
:102A9000FFF740FF00BD00B5FFF784FF47F8046D66
:102AA0004DF20016FFF736FF00BDE62A00003000A9
:102AB000047468656E00052E01D140CFDBE7022E5D
:102AC00001D140CFDDE7FEF7CEFE17537472756378
:102AD000747572657320646F6E2774206D61746302
:102AE000680A00F0A3BD122B0000300004656C736F
:102AF000650000B5022E7FF4E6AF40CFFFF7B2FFCE
:102B000039683E600E46FFF7BCFF47F8046D0526A6
:102B100000BD2A2B000030000269660000B5FFF7F7
:102B200096FF47F8046D022600BD502B00003000D0
:102B30000672657065617400042EC4D140CF396897
:102B40003E600E4600B5FFF779FFFFF79AFF00BD24
:102B50006C2B00003000057768696C65012EB2D1DE
:102B600040CF00B5FFF7DAFF023600BD802B000032
:102B7000300005756E74696C012EA4D140CF4EE70C
:102B8000942B0000300005616761696E012E9AD1B7
:102B900040CF53E7DC2B0000300005626567696EAB
:102BA00000B5FFF721FF47F8046D012600BD0000C6
:102BB000000000208801000004000020FFFFFFFF4C
:102BC000FFFF000001FFFFFF00FFFFFF01F8FFFF15
:102BD00000F8FFFFFF07000024000020EC2B00009E
:102BE0002000016B47F8046D029E7047FC2B00002B
:102BF0002000016A47F8046D009E70470C2C00000D
:102C00002000016947F8046D260070474A2C000037
:102C10003000056C6561766500B5D94801683B00F8
:102C2000043F1A68043B1A6008338B42F9D103B49D
:102C3000FFF718FF03BC330040CF04390B6001607D
:102C400004390A6801320A6000BD5C2C00002000D3
:102C500006756E6C6F6F700030BC7047942C00006E
:102C60003000052B6C6F6F70032E00D02BE740CF28
:102C700000B547F8046DC34EFFF724F9FFF7C2FE15
:102C80001AE014F10044641BA41940CF2C44A4F1B1
:102C900000447047D62C00003000046C6F6F700049
:102CA000032E00D00FE740CF00B547F8046DB64EB5
:102CB000FFF708F9FFF799FE00F018F9B048310066
:102CC00040CF016047F8046DB04EFFF7FBF800BD40
:102CD0000134AC4270471E2D0000780002646F0082
:102CE00000B547F8046DAA4EFFF7ECF8A448016858
:102CF00047F8046D0E0047F8046D00260760FFF7E3
:102D000073FE47F8046D032600BD00B500F02FF8F0
:102D1000ECE730B4340040CF350040CF7047B82DD9
:102D200000007800033F646F00B547F8046D984ECB
:102D3000FFF7C8F847F8046D44F2AC26FFF7E6FA4F
:102D40008F48016847F8046D0E00FFF78BFE0136CF
:102D500047F8046D01268A480760FFF745FE47F8EB
:102D6000046D032600BD00B500F001F8E2E700B5F0
:102D700047F8046D4BF23046FFF7C8FA47F8046D88
:102D80000426FEF76BFF013B08D047F8046D0526CB
:102D9000FEF764FF013B00F022FC00BD47F8046D24
:102DA0003526FFF7B3FA47F8046D4CF64076FFF787
:102DB000ADFA00F014FC00BDD22D00003000046319
:102DC0006173650047F8046D002647F8046D082616
:102DD0007047E82D00003000033F6F666D4809E042
:102DE000013EB64140CF70478C2E00007800026F44
:102DF00066006948082E00D065E640CF00B547F868
:102E0000046D0600FFF75EF8FFF72CFE39683E60A0
:102E10000E46013647F8046D092647F8046D4CF656
:102E20004076FFF773FA00BD00B5300040CF013B9C
:102E300001B400F0D4FB01BC082E00D043E640CF23
:102E400047F8046D0600FF213140B14204D15349D7
:102E50000E43FFF75BFAD7E7FEF74CFE002E40CF9C
:102E600004D04F480643FFF77AFACDE747F8046DE0
:102E70000026FEF7F3FE47F8046D44F2B026FFF794
:102E800045FAC1E7300040CFB0427047C22E000083
:102E9000300005656E646F66092E00D013E640CFE2
:102EA00000B540B440CFFFF7DDFD39683E600E4607
:102EB000FFF7F1FD47F8046D40BC47F8046D0826A4
:102EC00000BD142F0000300007656E6463617365F8
:102ED000082E00D0F7E540CF00B547F8046D4CF65A
:102EE0004076FFF713FA00F001F800BD00B530009E
:102EF00040CF00280DD003B401213140002903D078
:102F0000013EFFF7BEFD01E0FFF7B5FD03BC013850
:102F1000EFE700BD282F0000000005746F6B656EA1
:102F200047F8046D202605E0A82F0000000005707A
:102F30006172736510B5FEF7E0FB310040CF3000E1
:102F400040CF184A12688418202E07D191420FD022
:102F5000835CB34202D101328418F7E7914207D073
:102F6000835C0132B342F9D18618361B013E01E081
:102F70008618361B043F3C600A48026010BD000002
:102F80000C000020822C0000D02C0000582C0000E7
:102F9000122D0000E02D0000842E0000002E000005
:102FA000000FB6F1E4FF0120E62F000000000564E9
:102FB00069676974CE4B1B68303E0BD30A2E0BD366
:102FC000073E0A2E06D3242E06D3203E0A2E01D316
:102FD000242E01D3002670479E42FBD247F8046D91
:102FE0000026F6437047F03000000000066E756D55
:102FF000626572003FB5310040CF701E012601228C
:1030000004B4BB4B1B680024002500293CD00130D0
:10301000013902782D2A04D101B00022D24304B430
:10302000F3E7232A01D10A23EFE7242A01D1102351
:10303000EBE7252A01D10223E7E72E2A01D1022658
:10304000E3E72C2A36D047F8046D1600FFF7B4FFEB
:10305000002E40CF2BD047F8046D260047F8046DB2
:103060002E0047F8046D1E0047F8046D00260FB4CB
:10307000FDF7B6F90FBC350040CF340040CF002239
:10308000A419554140CFC0E704BC002A04D5002252
:10309000E443ED430134554133002600012B02D0B7
:1030A00047F8046D2E0047F8046D1E003FBD01B0C7
:1030B00000263FBD2500002402260029E4D0425C02
:1030C00001392E2AF9D047F8046D1600FFF774FF76
:1030D000002E40CFEBD0043F3C6047F8046D1E004B
:1030E0000FB4FDF72CFA0FBC340040CF40CFE4E71B
:1030F000103100000000062E6469676974000A2E12
:103100003CBF303603E0242E34BF373623267047C9
:1031100046310000000004686F6C6400330040CF4B
:10312000744801783F290DD20131017040180129FE
:1031300007D00138027801300270013801390129C5
:10314000F7D10370704766310000000005686F6CAE
:10315000643C330040CF674801783F2902D20131F7
:103160000170435470477E310000000004736967AA
:103170006E00002E01D440CF70472D26CEE792314D
:103180000000000002233E005A48067801303860F3
:103190007047AA31000000000366235310B52024B5
:1031A00000F008F8013CFBD110BDCC31000000005C
:1031B0000266230000B547F8046D4D4E3668FDF7F2
:1031C000FBF8FFF79CFFFFF7C4FF00BDE8310000EC
:1031D00000000223530000B500F00AF8002EFBD1D6
:1031E00038680028F8D100BD143200000000012327
:1031F00000B547F8046D3E4E366847F8046D00266A
:10320000FDF7BCF9FCF7EEFF40CFFFF778FFFFF7C3
:1032100085FF00BD263200000000023C2300354837
:1032200000210170704738320000000002662E0055
:1032300047F8046D202604E0863200000000036693
:103240002E6E00B510B4340040CFFDF72BFBFDF718
:103250007CF847F8046D0026FFF7E1FFFFF7BBFF9E
:1032600040CF2C26FFF775FF002C03D0FFF7A2FFFD
:10327000013CFBD110BC40CFFFF77BFF47F8046D4A
:1032800047F8046D1CE09C32000000000375642EBA
:1032900000B5FFF7C4FFFFF79EFF11E0CE3200003C
:1032A000000002642E0000B5FDF7FCFAFDF74DF8B2
:1032B000FFF7B5FFFFF78FFFFDF7FEFAFFF759FFA6
:1032C000FFF762FFFEF72BFBFEF77CFA00BDE03252
:1032D0000000000002752E0047F8046D0026D7E7B5
:1032E000F83200000000012E47F8046DF617DAE707
:1032F000FCFF01202800002040330000000008658A
:1033000076616C756174650000B5FEF7F6F901CF62
:1033100001B440B440CFD448016802B40021016038
:10332000FEF7DEF900F014F8CF4802BC016047F860
:10333000046D40BC01BC043F3860FEF7D1F900BD0C
:1033400004360000000009696E746572707265745D
:1033500030B5C64887420BD9FEF785FA1053746121
:10336000636B20756E646572666C6F770A005DE151
:10337000BF4887420AD2FEF776FA0F537461636B37
:10338000206F766572666C6F770A4FE1B94C2568DD
:10339000002D01D13D002560FFF7C2FD002E02D1B6
:1033A000043740CF30BD386847F8046D043F3860BB
:1033B000FFF76FFA310040CF320040CF002A13D11F
:1033C00038683100FFF716FE320040CF002AC0D126
:1033D000FEF7A9FAFEF747FA0C206E6F7420666FAD
:1033E000756E642E0A0021E1A34B1B68002B1DD1D2
:1033F0000025256030230B40302B0ED1FEF78FFACD
:10340000FEF731FA1220697320636F6D70696C6585
:103410002D6F6E6C792E0A0008E1043740CF47F813
:10342000046D1600FEF7ECFDFFF793FF043740CF65
:10343000802008400ED1EB1B9B08402008400FD095
:103440000820084002D0002B00D01DE00F200840CB
:10345000834205D347F8046D1600FEF7D1FD78E7E7
:1034600000F0BDF847F8046D160010220A4002D0A3
:10347000FEF7C6FD6DE720220A4002D0FEF722FDCE
:1034800067E7FEF748FC64E7072001401000FEF7FD
:1034900030FD01291FD1012BDCD1FF213140B14288
:1034A00004D140880643FEF731FF52E7FEF722FBC6
:1034B000002E40CF04D040680643FEF750FF48E797
:1034C00047F8046D0026FEF7C9FB47F8046D06882F
:1034D000FEF71CFF3DE7022902D1012BBAD1EFE72D
:1034E000032926D1012BB5D1FF213140B1420AD1A8
:1034F00062490E43FEF70AFF043247F8046D1600D6
:10350000FEF7E0FC25E7FEF7F5FA002E40CF04D0E9
:103510005B490E43FEF723FFEEE747F8046D0026F4
:10352000FEF79CFB023247F8046D1600FEF7CAFC5A
:103530000FE7042918D1012B8CD1330040CF002B89
:1035400000D106E71F221A409A4205D047F8046DC1
:103550004688FEF7DBFEFCE647F8046D06889B0113
:103560001E43FEF7D3FEF4E6052924D1012B10D12A
:1035700047F8046D0026FEF771FB47F8046D06005E
:10358000FEF7A0FC47F8046D4CF64076FEF7BEFE51
:10359000DFE647F8046D0026FEF760FB47F8046D90
:1035A0000126FEF75BFBFEF7A4FC47F8046D06005E
:1035B000FEF788FCCDE606290ED1012B7FF44AAF39
:1035C000FEF798FA002E40CF3FF47AAFD0F8020011
:1035D0000643FEF7C4FEBCE601308047B9E600B5FD
:1035E000002B0CD0013B47F8046D1E0057F82660F5
:1035F000FEF7C6FB002BF5D1043D2F0040CF002580
:10360000256000BD20360000810009686F6F6B2DBA
:103610007175697447F8046D1A4E7047543600008E
:10362000983600000000047175697400DFF858D006
:103630000E4F16480A2101600F48002101600D4815
:1036400001600948016012480160124941600D485B
:1036500000688746FEF75FF8FFF77AFEFEF703F98A
:1036600005206F6B2E0AF5E7E4FF012030020020F1
:103670003001002008000020D8FF0120003E00009B
:103680000006B6F1D4FF012030030020FCFF01202A
:10369000DCFF012068000020B23600000000056554
:1036A000696E743F47F8046DEFF31086013EB64132
:1036B0007047C236000020000465696E740062B66F
:1036C0007047D236000020000464696E740072B640
:1036D0007047E8360000200004697073720047F8F4
:1036E000046DEFF305867047F43600000000036EAA
:1036F0006F70704736370000000009756E68616EA4
:10370000646C656400B5FEF7AEF814556E68616EC2
:10371000646C656420496E74657272757074200003
:1037200047F8046DEFF30586FEF710F9FEF79BF8F6
:1037300002210A0000BD48370000000005726573D1
:103740006574C448C44901607237000081000B6988
:1037500072712D7379737469636B47F8046DBF4E92
:103760007047043700004FF6D070C2F201000068C5
:1037700087469A3700008100096972712D6661756C
:103780006C7447F8046DB64E7047043700004FF66E
:10379000CC70C2F2010000688746C8370000810083
:1037A0000E6972712D636F6C6C656374696F6E0066
:1037B00047F8046DAB4E7047043700004FF6C870F1
:1037C000C2F2010000688746F037000081000969F5
:1037D00072712D657874693047F8046DA24E704798
:1037E000043700004FF6C470C2F20100006887463B
:1037F000183800008100096972712D65787469318B
:1038000047F8046D994E7047043700004FF6C070BA
:10381000C2F2010000688746403800008100096953
:1038200072712D657874693247F8046D904E704757
:10383000043700004FF6BC70C2F2010000688746F2
:10384000683800008100096972712D6578746933E8
:1038500047F8046D874E7047043700004FF6B87084
:10386000C2F20100006887469038000081000969B3
:1038700072712D657874693447F8046D7E4E704717
:10388000043700004FF6B470C2F2010000688746AA
:10389000B63800008100076972712D61646347F8D2
:1038A000046D764E7047043700004FF6B070C2F2D8
:1038B000010000688746DE380000810008697271E7
:1038C0002D74696D320047F8046D6D4E70470437F2
:1038D00000004FF6AC70C2F201000068874606395E
:1038E00000008100086972712D74696D330047F81A
:1038F000046D644E7047043700004FF6A870C2F2A2
:103900000100006887462E39000081000869727145
:103910002D74696D340047F8046D5B4E70470437B1
:1039200000004FF6A470C2F2010000688746004014
:103930000000FFFF182D2D2D20466C617368204478
:10394000696374696F6E617279202D2D2D00FDF70A
:1039500013FE4E4885464E4F2A264E484B4901607D
:103960004D484E49016047F8046D4C4E4C4DB188AE
:103970004C4B994224D04C4B0B400AD0B01DFEF763
:1039800079FFFEF7B6FA0388408800040343ED1A76
:1039900016E080230B4013D00F23194089006D1AC5
:1039A000B01DFEF767FFFEF7A4FA47F8046D0600A6
:1039B00047F8046D2E0047F8046D0E00FDF728F956
:1039C000FEF736FF300040CFD1D03848066040CFF8
:1039D0003748056037483849324A884204D00238AF
:1039E00003889342F9D0023034490860FDF73BFF69
:1039F000374D6563726973702D5374656C6C6172B9
:103A0000697320322E312E3320666F722053544D4D
:103A1000333246343131206279204D6174746869E3
:103A20006173204B6F63680A25480021016047F8E5
:103A3000046D244E47F8046D0426FEF72AFF40CF9C
:103A4000002E02D0FEF7DCFA01E640CFEEE5696E0B
:103A5000697400000CED00E00400FA05D0FF0120BD
:103A6000CCFF0120C8FF0120C4FF0120C0FF0120BE
:103A7000BCFF0120B8FF0120B4FF0120B0FF0120EE
:103A8000ACFF0120A8FF0120A4FF0120300300208B
:103A90003002002000000020040000208801000007
:103AA00000000220FFFF0000000100001C000020B9
:103AB0002400002000000800004000001800002042
:083AC000080000204E3A00004E
:0400000508000000EF
:00000001FF
