:1000000030040010953A0000E1390000E1390000A9
:1000100000000000000000000000000000000000E0
:100020000000000000000000000000000B3A00008B
:1000300000000000000000000B3A0000BF39000083
:100040000B3A00000B3A00000B3A00000B3A00009C
:100050000B3A00000B3A00000B3A00000B3A00008C
:100060000B3A00000B3A00000B3A00000B3A00007C
:100070000B3A00000B3A00000B3A00004B3A00002C
:100080000B3A00000B3A00000B3A00000B3A00005C
:100090000B3A00006D3A00000B3A00000B3A0000EA
:1000A0002B3A00000B3A00000B3A00000B3A00001C
:1000B0000B3A00000B3A00000B3A00000B3A00002C
:1000C000FFFFFFFFFFFFFFFFFFFFFFFFFFFFFFFF40
:1000D000FFFFFFFFFFFFFFFFFFFFFFFFFFFFFFFF30
:1000E000FFFFFFFFFFFFFFFFFFFFFFFFFFFFFFFF20
:1003000028030000FFFF1E2D2D2D204D656372690F
:1003100073702D5374656C6C6172697320436F72D6
:1003200065202D2D2D00C046400300004200043200
:10033000647570003868043F3E60043F3860704761
:10034000540300006200053264726F70043740CFBE
:100350007047C04674030000440005327377617033
:1003600007CF043F3860043F3E60043F3A600E0010
:100370007047C04688030000620004326E69700056
:1003800007CF043F38607047A403000044000532E3
:100390006F766572B868043F3E60043F3860FE685F
:1003A0007047C046C8030000440005327475636B93
:1003B00007CF043F3860043F3E60043F3A60043F8B
:1003C0003960043F38607047EC0300004600043297
:1003D000726F74003868B9683A69B86039613A6018
:1003E00079687E60FE68F9607047C04610040000BE
:1003F000460005322D726F743868B9683A69386101
:100400003960BA60F968FE607E6879607047C046FE
:1004100024040000200003323E7201CF01B440B436
:1004200040CF70473C04000020000332723E043F7E
:100430003E6040BC01BC043F38607047540400007B
:10044000200003327240043F3E60019E043F3E6044
:10045000009E704768040000200006327264726FCC
:10046000700002B07047C046800400004200036480
:10047000322F3868F107761040080843386070471B
:100480009404000062000364322A38680018764140
:1004900038607047B0040000420004647368720062
:1004A0003868F10776084008084338607047C0464E
:1004B000C80400006200046473686C0038680018A7
:1004C000764138607047C046DC0400004200046496
:1004D00061627300002E08D47047C046FC0400001F
:1004E000420007646E656761746538680021C04327
:1004F000F64301304E4138607047C0461405000095
:10050000640002642D0007CF121AB1410E00043FAF
:100510003A6070472C050000640002642B0007CF8E
:1005200012184E41043F3A607047C0464005000033
:10053000610003733E64043F3E60F6177047C04697
:100540006C050000420003756D2A38680300734390
:100550003B60010C320C0B005343B6B280B24E43E9
:1005600050433618360CF6187047C0469C050000FC
:100570004200026D2A003868C11705D04042386039
:10058000F01704D07642E0E7F017DED0764200B5EF
:10059000FFF7DBFFFFF7A9FF00BDC046DC05000049
:1005A00044000375642A07CF564341437618010C73
:1005B000130C59437618010C80B292B25143434355
:1005C00050430022C91852411204B6180A04090CFB
:1005D00080184E41043F38607047C04670060000E6
:1005E00044000475646D2A0010B50024043F3E6089
:1005F0007E68043F3E603E69FFF7A7FF310040CFB1
:10060000300040CF043F3E603E68043F3E60FE68DD
:1006100003B4FFF79AFF03BC330040CF320040CF52
:10062000043F3E603E68043F3E603E690FB4FFF702
:100630008CFF0FBC9219634140CF8919624163411D
:1006400040CF043F3E607E68043F3E60FE680FB4CA
:10065000FFF77BFF0FBC9219634140CF89196241BC
:10066000634140CF1E003A607960B86010BDC0465B
:10067000940600004300022A2F0000B540B440CF8A
:10068000FFF779FF043F3E6040BC00F04FF80437AD
:1006900000BDC046B80600004300052A2F6D6F64F8
:1006A00000B540B440CFFFF766FF043F3E6040BC5A
:1006B00000F03CF800BDC046DC06000043000375B6
:1006C0002A2F00B540B440CFFFF73FFF043F3E6004
:1006D00040BC00F01CF8043700BDC0460007000015
:1006E000430006752A2F6D6F640000B540B440CFFB
:1006F000FFF72BFF043F3E6040BC00F008F800BD50
:1007000020070000430006756D2F6D6F640000B573
:10071000043F3E60002600F01AF840CF043700BDC9
:10072000400700004300056D2F6D6F6400B5043F66
:100730003E60F61700F034F840CF043700BDC046E5
:100740009407000044000675642F6D6F640030B498
:10075000002300227968B86835003C6840264000D4
:10076000494152415B41AB4202D804D3A24202D379
:10077000121BAB410130013EF1D10E0038607B60AD
:10078000BA6030BC704730B400237A68B968002082
:10079000E2E7C0460C080000440005642F6D6F645A
:1007A00000B5F01719D0FFF7A0FEFFF7D9FDF0173D
:1007B0000CD0FFF79AFEFFF7D3FDFFF7C8FFFFF756
:1007C000CFFDFFF792FEFFF7CBFD00BDFFF7C8FDA1
:1007D000FFF7BDFFFFF789FE00BDFFF7C1FDF01772
:1007E0000ED0FFF782FEFFF7BBFDFFF7B0FFFFF76C
:1007F0007CFEFFF7B5FDFFF778FEFFF7B1FD00BD0A
:10080000FFF7AEFDFFF7A3FF00BDC04624080000C0
:10081000440002642F0000B5FFF7C2FFFFF7B0FDF0
:1008200000BDC0466C080000440002662A0000B506
:10083000F0170DD0FFF759FEFFF792FDF0170DD01E
:10084000FFF753FEFFF7D0FE40CF01CF386000BD69
:10085000FFF786FDF017F5D0FFF747FEFFF7C4FE60
:1008600040CF01CF3860FFF740FE00BDB808000060
:10087000440002662F0000B5F0170ED0FFF735FEDA
:10088000FFF76EFDF0170ED0FFF72FFEFFF768FDA4
:10089000FFF779FFFFF774FD00BDFFF761FDF0176B
:1008A000F4D0FFF722FEFFF75BFDFFF76CFFFFF7C9
:1008B0001CFEFFF765FD00BDCC08000020000232E1
:1008C000210006CF3160726040CF7047E008000021
:1008D000200002324000043F70683860366870477C
:1008E0000009000044000364753C07CF8E4204D821
:1008F00001D1904201D8002670470026F643704788
:100900002009000044000364753E07CFB14204D8BB
:1009100001D1824201D8002670470026F643704775
:1009200040090000440002643C0007CF8E4204DC12
:1009300001D1904201DC002670470026F643704743
:1009400060090000440002643E0007CFB14204DCAD
:1009500001D1824201DC002670470026F643704731
:100960007009000062000364303C0437F6177047DA
:100970008409000062000364303D01CF0643013E5C
:10098000B6417047A0090000440003643C3E07CF15
:1009900050404E400643013EB641F6437047C046C4
:1009A000B8090000440002643D0007CF50404E40AB
:1009B0000643013EB6417047CC0900002000037396
:1009C0007040043F3E603E007047C046DC090000B6
:1009D000200003737021370040CF7047F0090000FA
:1009E000200003727040043F3E606E467047C04670
:1009F000000A0000200003727021B54640CF704706
:100A0000100A0000610003647570043F3E60704787
:100A1000200A000061000464726F700040CF7047CC
:100A2000380A00006100043F64757000002E01D098
:100A3000043F3E607047C0464C0A000062000473E9
:100A40007761700039683E600E0070475C0A0000F4
:100A50006200036E697004377047C046700A000078
:100A60006200046F76657200043F3E607E687047E6
:100A7000880A00006200047475636B0001CF083FB0
:100A80007E6038607047C046A00A000063000372B1
:100A90006F7403CF083F78603E600E007047C04619
:100AA000B80A00006300042D726F740003CF083F82
:100AB0007E60396006007047CC0A00002000047098
:100AC00069636B00B0003E587047C046E40A0000FE
:100AD0000000056465707468C749C91B043F3E6027
:100AE0008E087047000B0000000006726465707489
:100AF0006800043F3E606E46C049891B8E087047FF
:100B0000100B00002000023E720040B440CF70473E
:100B1000240B0000200002723E00043F3E6040BCF7
:100B20007047C046380B0000200002724000043FAE
:100B30003E60009E7047C046480B000020000572D2
:100B400064726F7001B070475C0B0000200005728A
:100B50007069636BB6006E4436687047700B0000B6
:100B60006A0003616E6401CF064070470640C046CC
:100B7000840B00006A000362696301CFB043060082
:100B800070478643980B00006A00026F720001CF25
:100B9000064370470643C046AC0B00006A0003786A
:100BA0006F7201CF464070474640C046BC0B000004
:100BB0006100036E6F74F6437047C046DC0B0000A3
:100BC000410003636C7A300006D00026400002D05A
:100BD00001D20136FAE7704720267047EC0B00007F
:100BE00061000373687276087047C046FC0B000012
:100BF00061000373686C76007047C0460C0C0000FF
:100C0000610003726F720120C6417047200C000022
:100C1000610003726F6C0020B61946417047C046F0
:100C20003C0C00006C00067273686966740001CFAA
:100C3000F0400600704736080026C046580C0000F9
:100C40006C00076172736869667401CF30410600F9
:100C500070473610F617C046740C00006C00066C26
:100C600073686966740001CFB040060070473600B3
:100C70000026C046840C0000610002303D00013EA9
:100C8000B6417047980C0000610003303C3E013EC5
:100C9000B641F6437047C046A80C00006100023020
:100CA0003C00F6177047C046C00C0000600004749A
:100CB00072756500043F3E600026F6437047C046EB
:100CC000D40C000060000566616C7365043F3E60F3
:100CD00000267047E80C00004200023E3D0001CFB4
:100CE000B042E9DA00267047FC0C00004200023CEA
:100CF0003D0001CFB042DFDD00267047100D00003F
:100D00004200013C01CFB042D6DB00267047C0460E
:100D1000240D00004200013E01CFB042CCDC002691
:100D20007047C046380D0000620003753E3D01CF9C
:100D3000861BB641F64370474C0D000062000375F8
:100D40003C3D01CF361AB641F6437047600D0000B6
:100D5000620002753C0001CF861BB6417047C04659
:100D6000740D0000620002753E0001CF361AB641D4
:100D70007047C0468C0D00006B00023C3E0001CF66
:100D8000361A013EB641F6437047C046A00D00003A
:100D90006B00013D01CF361A013EB6417047C04697
:100DA000B40D00006200036D696E01CFB04200DC3B
:100DB00006007047C80D00006200036D617801CF26
:100DC000B04200DB06007047E00D000062000475D1
:100DD0006D61780001CFB04200D306007047C04675
:100DE000000E0000620004756D696E0001CFB04214
:100DF00000D80600704700003003001030040010D7
:100E0000400E00000000046D6F76650007B53100EC
:100E100040CF320040CF00290FD0B2420DD006D3D0
:100E2000013E013A705C50540139FBD105E0307845
:100E30001070013601320139F9D140CF07BDC046EB
:100E4000640E000000000466696C6C00300040CF46
:100E5000310040CF002902D001397054FCD140CF7D
:100E60007047C046700E0000200001403668704791
:100E7000880E00006D00012103CF30600E00704726
:100E80000660704701607047B00E00006D00022BD5
:100E9000210003CF3268121832600E0070470268DA
:100EA0009219026070470268521802607047C0468B
:100EB000C00E000020000268400036887047C0461F
:100EC000DC0E00006D000268210003CF30800E00B0
:100ED00070470680704701807047C046040F0000CD
:100EE0006D0003682B2103CF3288121832800E0068
:100EF0007047028892190280704702885218028057
:100F00007047C046140F000020000263400036788E
:100F10007047C046300F00006D000263210003CF10
:100F200030700E0070470670704701707047C04601
:100F3000580F00006D0003632B2103CF3278121885
:100F400032700E0070470278921902707047027872
:100F5000521802707047C046800F00006D00046296
:100F60006973210003CF3268024332600E0070477C
:100F7000026832430260704702680A4302607047A9
:100F8000A80F00006D0004626963210003CF32687E
:100F9000824332600E0070470268B24302607047BD
:100FA00002688A4302607047D00F00006D00047829
:100FB0006F72210003CF3268424032600E007047EA
:100FC000026872400260704702684A4002607047DF
:100FD00038100000680004626974400001CF366870
:100FE0000640013EB641F6437047BC4A00B5012BAE
:100FF0000AD1043F3E60002600F0F4FE043F3E604C
:10100000160001F0B8FA11E002CF013B02F00DFC2E
:10101000043F3E603626164301F0ADFA043F3E60C1
:101020000E00043F3E60002600F0DCFE043F3E6000
:10103000AB4E01F09CF800BD601000006D0005682B
:101040006269732103CF3288024332800E007047F9
:10105000028832430280704702880A430280704748
:10106000881000006D0005686269632103CF328833
:10107000824332800E0070470288B243028070477C
:1010800002888A4302807047B01000006D00056836
:10109000786F722103CF3288424032800E00704751
:1010A000028872400280704702884A40028070477E
:1010B000D0100000680005686269744001CF36886E
:1010C0000640013EB641F6437047864A8EE7C04669
:1010D000F81000006D0005636269732103CF327858
:1010E000024332700E00704702783243027070473C
:1010F00002780A4302707047201100006D000563FA
:101100006269632103CF3278824332700E007047E8
:101110000278B2430270704702788A4302707047C7
:10112000481100006D000563786F722103CF32789B
:10113000424032700E007047027872400270704771
:1011400002784A4002707047681100006800056329
:101150006269744001CF36780640013EB641F643DD
:101160007047614A42E7C04678110000610005639C
:10117000656C6C2B043670478811000061000563B4
:10118000656C6C73B6007047CC1100008100096675
:101190006C6173682D6B687A043F3E60534E7047F4
:1011A000E02E000000F0D0FC1E466C6173682063E6
:1011B000616E6E6F74206265207772697474656EFB
:1011C0002074776963650A0002F056FB781200000C
:1011D0000000083136666C61736821003FB50F204E
:1011E000304015D000F0B0FC223136666C61736877
:1011F00021206E656564732031362D616C69676EE0
:10120000656420616464726573730A0002F034FBE4
:1012100030680130C6D170680130C3D1B068013088
:10122000C0D1F0680130BDD100F046F808CF04CF3E
:1012300002CF01CF803F803F01B4380040242C4DC5
:1012400020C0013CFCD101BCFF243440E4190FC490
:10125000FF25AE4327483321016046608760802127
:101260008031C1602149096801612349234A9047BF
:101270008037803740CF3FBD0013000000000A6573
:1012800072617365666C6173680072B600F014F881
:1012900000F015F800F058FC1A46696E697368652D
:1012A000642065726173696E672E20526573657480
:1012B00020210A0002F070FB00B5322101E000B5E8
:1012C00034210C48016004214160072181600749F5
:1012D0000968C1600849094A904700BD00680000DC
:1012E000E00F00000088000000780000DC0F001014
:1012F000FFFFFFFFB0060010C4060010F11FFF1F24
:1013000020130000000009696E6974666C617368DF
:10131000534854490022027001300139FBD1704713
:101320000814000000000768666C6173682130B51E
:10133000320040CF500813D300F006FC1E68666CE4
:1013400061736821206E65656473206576656E2023
:101350006164647265737365732E0A0002F08CFA1F
:10136000414B9A4210D200F0EFFB1943616E6E6F51
:101370007420777269746520696E746F20636F7270
:101380006520210A02F078FA130935482021046803
:1013900024099C4226D014300139F8D1304820214C
:1013A0000468002C17D014300139F9D100F0CCFBBF
:1013B00021546F6F206D616E792073636174746561
:1013C00072656420466C6173682077726974657316
:1013D0002E0A02F051FA1B0103600139416081605D
:1013E000C16001610F2111400431465240CF0168B4
:1013F000013101600F221140082903D100F01BF8D0
:10140000FFF7ECFE30BDC0466C14000000000A6619
:101410006C757368666C6173680000B510482021B4
:101420000268002A03D000F006F8FFF7D7FE143058
:101430000139F5D100BD043F3E604668043F3E607F
:101440008668043F3E60C668043F3E600669043F0C
:101450003E600F26F6430268164000220260704785
:1014600030040010800200000040000080140000E2
:101470006900012B01CF3618704736180036C04678
:10148000941400006900012D01CF861B7047361AA5
:10149000003EC046A4140000610002312D00013E50
:1014A0007047C046B4140000610002312B000136C1
:1014B0007047C046C4140000610002322D00023E95
:1014C0007047C046D4140000610002322B0002367F
:1014D0007047C046E81400006100066E65676174DD
:1014E000650076427047C046FC140000610003614D
:1014F0006273F017361846407047C0464415000026
:10150000420005752F6D6F64310040CF002903D173
:10151000043F3E6000267047012200238E4206D918
:10152000003104D45200490001D48E42FAD88E42D0
:1015300001D3761A134349085208F8D1043F3E609C
:101540001E007047B41500004200042F6D6F640048
:1015500000B5300040CF002E1CDA764200280CDAAD
:101560004042043F3E600600FFF7CEFF300040CF10
:101570007642043F3E60060000BD043F3E60060028
:10158000FFF7C2FF300040CF40427642043F3E604A
:10159000060000BD002807DA4042043F3E60060016
:1015A000FFF7B2FF764200BD043F3E600600FFF742
:1015B000ABFF00BDC81500004200036D6F6400B5AD
:1015C000FFF7C6FF40CF00BDDC1500004200012F31
:1015D00000B5FFF7BDFF043700BDC046EC150000A5
:1015E0006A00012A01CF464370474643FC150000BC
:1015F000610002322A0076007047C0460C160000D7
:10160000610002322F0076107047C046201600009D
:101610006100046576656E00012030403618704721
:10162000381600008100046261736500043F3E606B
:10163000904E70470A00000050160000000006623D
:10164000696E617279008B48022101607047C04663
:1016500068160000000007646563696D616C854869
:101660000A2101607047C046C416000000000368EC
:10167000657880481021016070477F487F4A016883
:10168000114301607E48C12101607E4801607A48B3
:101690007D4A0168114301607C48012101607C485A
:1016A000802101607B48852101607B480421016025
:1016B0007A480021016076480321016078480721BB
:1016C00001607047E0160000810009686F6F6B2DA4
:1016D000656D6974043F3E60724E7047D617000016
:1016E000FC160000810008686F6F6B2D6B65790038
:1016F000043F3E606C4E7047FE1700001C17000050
:1017000081000A686F6F6B2D656D69743F00043F3F
:101710003E60664E70472C180000C0463817000027
:10172000810009686F6F6B2D6B65793F043F3E60E8
:101730005F4E70475A1800005817000081000A6871
:101740006F6F6B2D706175736500043F3E60594E7D
:10175000704746390000C04670170000000004655D
:101760006D6974000FB54F4800F029F80FBDC046F1
:10177000841700000000036B65790FB54A4800F03C
:101780001EF80FBD98170000000005656D69743FD5
:10179000464800688746C046AC1700000000046B4E
:1017A00065793F00424800688746C046C41700007C
:1017B00000000570617573653E48006887460068E3
:1017C0008746C046EC17000000000B736572696124
:1017D0006C2D656D697400B500F028F8002E40CFBF
:1017E000FAD0F6B22C48066040CF00BD18180000B1
:1017F00000000A73657269616C2D6B65790000B534
:1018000000F02BF8002E40CFFAD0043F3E60224E6D
:101810003668F6B200BDC0464818000000000C73E0
:10182000657269616C2D656D69743F0000B5FFF7E5
:10183000C3FF043F3E6000261F482022016811407C
:1018400000D0F64300BDC046BC18000000000B737A
:10185000657269616C2D6B65793F00B5FFF7ACFF70
:10186000043F3E600026144801220168114000D068
:10187000F64300BDD80F00108080044040000100F6
:10188000A4400440A8400440001000009880044098
:101890000C80004028800040008000400480004010
:1018A00008800040D40F0010D00F0010CC0F0010A3
:1018B000C80F0010C40F001014800040E018000092
:1018C0000000076365787065637400B5386801B41B
:1018D0000130386000F00BF801BC067040CF00BD4D
:1018E000581900000000066163636570740000B55C
:1018F00002CF01390022FFF740FF300040CF7F28A0
:1019000009D0202819D2092816D00A281FD00D285E
:101910001DD00828EFD1002AEDD000F015F90308FA
:101920002008002AE7D0885C013A80230340E2D0F7
:1019300040230340F5D0DEE72020B242DBD2043F53
:101940003E600600FFF70EFF01328854D3E7160011
:1019500000F0A8F800BDC0466C19000040000374F8
:101960006962043F3E602B4E7047C04684190000F8
:101970008100033E696E043F3E60274E70470000C1
:101980000000C046AC19000082000E6375727265DB
:101990006E742D736F7572636500043F3E601F4E59
:1019A00070470000000068000010C046C819000021
:1019B000000009736574736F75726365174802CF11
:1019C0000660416040CF7047E819000000000673D0
:1019D0006F7572636500043F3E60104E043F70688F
:1019E000386036687047C046201A00000000057154
:1019F000756572790FB5084800210160FFF7B1FFE6
:101A0000043F3E60043F3E60C826FFF770FFFFF7CB
:101A1000D5FF0FBD68000010C00F0010B80F0010F8
:101A2000701A0000000007636F6D706172650FB57A
:101A3000310040CF01CF884202D040CF00260FBDF9
:101A400002CF002810D001380A5C335C412A02D34F
:101A50005B2A00D22032412B02D35B2B00D22033F1
:101A60009A42EED000260FBD0026F6430FBDC046B9
:101A7000841A000000000263720000B500F064F8F0
:101A8000010A00BD981A0000000002626C00043FC9
:101A90003E6020267047C046AC1A00000000057367
:101AA00070616365043F3E6020265BE6CC1A00004F
:101AB0000000067370616365730000B5002E03DDDE
:101AC000FFF7F0FF013EFBD140CF00BDDC1A000064
:101AD0005000065B636861725D0005E0F41A000067
:101AE000000004636861720000B501F053FB40CF51
:101AF000367800BD041B000050000128043F3E6002
:101B0000292606E0201B00005000015C043F3E60D7
:101B1000002600B501F048FB043740CF00BDC046A9
:101B2000681B00001000022E22009F4800B5043FF1
:101B30003E60060000F0F8F9043F3E60222601F006
:101B400033FB00F052FD00BD0AB4043F3E60764610
:101B5000013E33780121013319405B187146C918E1
:101B60008E460ABC3CE0C046901B00001000026399
:101B700022008E48DAE7043F3E607646013E337825
:101B80000121013319405B187146C9188E46704710
:101B9000BC1B00001000027322008548C6E7043F0A
:101BA0003E607646043F3E60013E36780121731C5C
:101BB00019405B187146C9188E467047D41B000047
:101BC000000005636F756E740136043F3E60013E90
:101BD00036787047FC1B000000000563747970655F
:101BE00001B53078002807D00136043F3E603678D2
:101BF000FFF7B8FD0138F7D140CF01BD2C1C000024
:101C00000000047479706500310040CF300040CF8F
:101C100000B5002908D00022043F3E60865CFFF733
:101C2000A1FD01329142F7D100BDC046681C000001
:101C30000000046865782E0007B5310040CF2020F1
:101C40000F220438043F3E600E00C6401640092EA5
:101C500001D9373600E03036FFF784FD0028F0D197
:101C6000FFF720FF07BDC046781C00000000036896
:101C70002E731FB54F4C0EE0881C0000000003754A
:101C80002E731FB54C4C06E0081D00000000022E0C
:101C900073001FB5494C4A49C91B8908494A106855
:101CA00003B40A201060FFF74FFF08537461636BA1
:101CB0003A205B00043F3E600E0001F061FCFFF73C
:101CC00043FF025D200003BC3E4A106000290AD099
:101CD0003D4A106806B4043F3E600600A04706BCBB
:101CE000043A0139F5D1FFF72FFF0620544F533A3C
:101CF0002000043F3E603600A047FFF725FF042088
:101D00002A3E0A001FBDC046CC1D0000000005771A
:101D10006F72647300B5FFF717FF010A00F0ABFEA6
:101D2000FFF712FF09416464726573733A20043F40
:101D30003E60FFF781FFFFF707FF064C696E6B3AC5
:101D40002000043F3E603668FFF776FFFFF7FCFE99
:101D500007466C6167733A20043F3E60B688FFF720
:101D60006BFFFFF7F1FE06436F64653A2000B01D7C
:101D700000F0BCFE043F3E600600FFF75DFFFFF78A
:101D8000E3FE064E616D653A2000043F3E60063674
:101D9000FFF726FFFFF7D8FE010A00F084FE3000AF
:101DA00040CFBDD040CF00BD481B0000761B0000D7
:101DB0009E1B0000391C00006F35000081350000BB
:101DC00030030010D80F00102C0300101C1F00005F
:101DD00000001072656769737465726C697465726E
:101DE000616C2C003FB5B44B3868184098420FD155
:101DF0003868C043386040B400F00DF8043F3E60DE
:101E0000AE4E01BC0643C000064300F0B4FB3FBD2C
:101E100000F001F83FBD00B5350040CF2900C900F2
:101E200029432D02A6480543FF2300223000D0405D
:101E3000984301D00132F9E73000D04018402843E0
:101E4000043F3E60060000F096FB9E4805431800E4
:101E50009040864310D000243000E040984301D0E9
:101E60000134F9E7101B043F3E600E008001064379
:101E700000F081FB2200DFE7002A06D0043F3E602D
:101E80000E009201164300F076FB40CF00BD1FB557
:101E9000310040CF8C4C0C43C9000C434901300049
:101EA00040CF020EFF231A40854B0B431343043FE0
:101EB0003E601E0000F05FFB043F3E60260000F025
:101EC0005AFB020CFF231A40804B0B431343043F81
:101ED0003E601E0000F04FFB043F3E60260000F015
:101EE0004AFB020AFF231A40784B0B431343043F7B
:101EF0003E601E0000F03FFB043F3E60260000F005
:101F00003AFB0200FF231A40704B0B431343043F7C
:101F10003E601E0000F02FFB1FBDC0468C1F00005E
:101F200000000563616C6C2C0FB5330000F078FE87
:101F3000300040CF1B1A043B6549194000290ED0E0
:101F4000644A91420BD00136043F3E600026FFF701
:101F500049FF043F3E60604E00F00DFB0FBD40CFD7
:101F60005B085E485E4919400843DB0A5D49194039
:101F7000090408439B0A0121194089060843043FCC
:101F80003E60060000F021FB0FBDC046C01F0000F0
:101F90000000086C69746572616C2C0000B5043F28
:101FA0003E60514E00F0E7FA043F3E604F4E00F0B5
:101FB000E2FA043F3E600626FFF714FF00BDC0466C
:101FC000E81F00000000066372656174650000B5DB
:101FD00000F047F82020000207308047043F3E60B1
:101FE0007646013E00BDC046542000002000056436
:101FF0006F65733E2020000207308047043F3E603B
:102000007646013E7047043F3E607646013E384AC0
:102010001368384909683648834205D20F200840C2
:102020000E2805D00231F9E70220084000D1023124
:10203000023111600136043F3E600026FFF727FFA2
:10204000043F3E60244E00F096FA136000F0F3F96E
:1020500000BDC046FC2000000000073C6275696CB2
:10206000647300B500F08CFB21480168204A91425E
:102070000CD200F0D5FD0F2006400E2E40CF10D020
:10208000043F3E60362600F076FAF2E700F0C8FD25
:102090000220064040CF04D1043F3E60362600F0C7
:1020A0006AFA043F3E60144E00F065FA043F3E6059
:1020B000102600F0CDFA00BD0000FFFFC043000075
:1020C00000200000001000000002000000300000AE
:1020D0000100C0FF0000C0FF8047000000F800F0D2
:1020E000FF070000FF030000043F00003E60000007
:1020F000000000101400001000B5000008210000CE
:102100005000035B275D03E0202100000000012751
:1021100000B501F03FF800F028FD300040CF00BDD1
:1021200060210000300008706F7374706F6E65007E
:1021300000B5FFF7EDFF102101400DD12021014036
:1021400005D0FFF72BFF043F3E60E14E04E0FFF7B0
:1021500025FF043F3E60DF4EFFF7E6FE00BDC046B0
:10216000AC210000000007696E6C696E652C00B53B
:10217000D949DA4ADA4B3088884208D0904208D0F0
:10218000984206D0043F3E60060000F0F4F90236A3
:10219000F1E740CF00BD0EB4D04AD14B01880230E8
:1021A000914201D09942F9D10EBC7047C021000084
:1021B0000000047265742C00043F3E60C74EDAE1F3
:1021C000D02100003000046578697400F4E7C0464F
:1021D000E821000030000772656375727365043F83
:1021E0003E60C04E36689FE6002200008100057305
:1021F00074617465043F3E60BB4E70470000000090
:10220000142200000000015DB7480021C9430160AD
:102210007047C046242200001000015BB248002134
:10222000016070474C2200000000013A00B5AF4841
:10223000076000F0A5FA043F3E60A74E00F09BF94E
:10224000A9480021C943016000BDC0469422000096
:102250003000013B00B5A5480168B9420ED0FFF738
:1022600073FC1520537461636B206E6F7420626180
:102270006C616E6365642E0A01F0FEFA043F3E60F5
:10228000964E00F078F900F0D6F8974800210160EA
:1022900000BDC046A8220000000007657865637590
:1022A0007465300040CF8746C022000010000969E5
:1022B0006D6D656469617465043F3E601026EDE0F4
:1022C000D8220000500006696E6C696E6500043FFC
:1022D0003E602026E2E0C046F422000010000B63BE
:1022E0006F6D70696C656F6E6C79043F3E6030266F
:1022F000D4E0C0461023000050000A302D666F6CF9
:102300006461626C6500043F3E604026C6E0C046E2
:102310002C23000050000A312D666F6C6461626CE2
:102320006500043F3E604126B8E0C04648230000F7
:1023300050000A322D666F6C6461626C6500043F68
:102340003E604226AAE0C0466423000050000A33E3
:102350002D666F6C6461626C6500043F3E604326CD
:102360009CE0C0468023000050000A342D666F6C4C
:102370006461626C6500043F3E6044268EE0C046A6
:102380009C23000050000A352D666F6C6461626CFE
:102390006500043F3E60452680E0C046B82300004B
:1023A00050000A362D666F6C6461626C6500043FF4
:1023B0003E60462672E0C046D423000050000A3733
:1023C0002D666F6C6461626C6500043F3E60472659
:1023D00064E0C04604240000000008636F6E73745C
:1023E000616E740000B500F0CBF9FFF7D7FD043F34
:1023F0003E603B4E00F0BFF8FFF785FF00F01BF892
:1024000000BDC0462824000000000932636F6E73CF
:1024100074616E7400B500F0B3F939683E600E4621
:10242000FFF7BCFDE1E7C0468C2400000000067306
:102430006D756467650000B52D4801682C4A9142AE
:102440001ED202390A882B4B9A4204D1043F3E60C7
:10245000002600F090F800F067F800F079F82648C0
:102460000068043F3E600600244909680431204AA0
:102470001368116000F07FF81360FEF7CEFF00BD17
:1024800000F052F8043F3E60002608E000250000FE
:10249000000008736574666C6167730000B51448CA
:1024A0000168134A914205D2134801683143016023
:1024B00040CF00BD320040CF104800680430018892
:1024C0000C4B994201D1110000E01143018000BD85
:1024D0006E210000281F000000B5000000BD0000B4
:1024E0007047000014000010B40F0010100000101E
:1024F00000000010FFFF000020000010040000108A
:102500001C250000410007616C69676E656401204D
:102510003040361802203040361870474025000001
:10252000000005616C69676E00B58B480168022088
:10253000014004D0043F3E60002600F01CF800BDBE
:102540006C250000000008616C69676E31362C0054
:1025500000B5814801680F20014005D0043F3E606E
:10256000002600F008F8F4E700BDC046A4250000EE
:10257000000002682C000FB5B6B277480168764AB1
:10258000914205D2043F3E600E00FEF7D0FE02E00D
:10259000320040CF0A80043F3E60022600F058F827
:1025A0000FBDC046C02500000000012C00B5043F4F
:1025B0003E60FFF7E0FF360CFFF7DDFF00BDC046D1
:1025C000DC2500000000033E3C2C00B5043F3E60CB
:1025D000360CFFF7D0FFFFF7CEFF00BD442600000A
:1025E000000007737472696E672C07B5FF213140D4
:1025F00040CF300040CF002905D1043F3E60002687
:10260000FFF7B9FF07BD043F3E60067836020E4370
:10261000FFF7B1FF0130013902290AD3043F3E60C0
:102620004678360202781643FFF7A5FF02300239DA
:10263000F2E7002900D107BD043F3E600678FFF7AE
:102640009AFF07BDA0260000000005616C6C6F7446
:1026500041480168404A91420FD2320040CF891868
:102660003E4A914219D3FFF76FFA0B466C617368CB
:102670002066756C6C0A01F0FFF8320040CF8918B3
:10268000374A1268914208D3FFF75EFA0952616D2A
:102690002066756C6C0A01F0EFF801607047C04667
:1026A000C826000000000D636F6D70696C65746F63
:1026B00072616D3F043F3E6000262748006826494E
:1026C000884248D3F6437047E826000000000C63B8
:1026D0006F6D70696C65746F72616D001E48006883
:1026E0001D49884211D370477027000000000E6317
:1026F0006F6D70696C65746F666C61736800164805
:1027000000681549884200D2704716481649026889
:102710000B680A6003601048144902680B680A607D
:1027200003600F480068834215D300B5FFF70CFA29
:1027300023205661726961626C657320636F6C6CF3
:1027400069646520776974682064696374696F6E71
:102750006172790A00BD704700000010008000001F
:1027600024000010040000101C00001018000010CD
:102770006C280000000008286372656174652900F8
:1027800000B500F007FD002E0ED1FFF7DDF9152092
:10279000437265617465206E65656473206E616D5A
:1027A0006520210A01F068F83868043F3E60043F64
:1027B000386000F0ABF940CF002E40CF11D0386820
:1027C000043F3E60043F3860FFF7BEF9095265647C
:1027D0006566696E6520FFF717FAFFF7B5F9022EF7
:1027E0002000FFF7A1FE924800689149884225D257
:1027F000904800210160FFF7ABFE043F3E600C26CD
:10280000FFF726FF00F00CFA043F3E600626FFF7B4
:102810001FFFFEF74BF9FFF7E8FE874801680A68DB
:10282000864B9A4207D1824A13681160043F3E608A
:10283000FFF7BCFE1360066040CF12E000F0F0F935
:102840007D48043F3E600668FFF7B0FE043F3E60EF
:102850007B4EFFF790FE7848310040CF0160FFF7D4
:10286000C4FE734801687748016000BD84280000F9
:102870000000087661726961626C6500043F3E6029
:10288000012613E09C28000000000932766172697D
:1028900061626C65043F3E60022607E07429000017
:1028A0000000096E7661726961626C6500B5FFF7C0
:1028B00067FF5F4801685E4A914233D20F200640AD
:1028C000B20061480168891A604A91420BD2FFF751
:1028D0003BF90F4E6F7420656E6F7567682052412B
:1028E0004D0A00F0C9FF0160043F3E600E00FFF793
:1028F00055FB043F3E60564EFFF73DFE300040CF93
:102900000200002805D00E600431FFF74FFE0138A9
:10291000F9D1043F3E6080261643FFF7BFFDFFF765
:102920008AFD00BD00F07CF90220064040CF04D1B2
:10293000043F3E603626FFF71EFE043F3E60454ED4
:10294000FFF743FE043F3E60434EFFF73EFE043F69
:102950003E603F4EFFF70FFE300040CF002803D00F
:10296000FFF724FE0138FBD1FFF7CDFCFFF763FD35
:1029700000BDC046602A00000000076275666665FB
:10298000723A00B5FFF7FCFE0120304036180220F5
:102990003040361826480168254A914226D22A48F6
:1029A0000168891B294A91420BD2FFF7CDF80F4EDF
:1029B0006F7420656E6F7567682052414D0A00F094
:1029C0005BFF0160043F3E600E00FFF7E7FA043F43
:1029D0003E601F4EFFF7CFFDFFF7E8FD043F3E606E
:1029E0001E4EFFF75BFDFFF726FD00BD00F018F956
:1029F0000220064040CF04D1043F3E603626FFF758
:102A0000BAFD043F3E60134EFFF7DFFD043F3E601A
:102A1000114EFFF7DAFD043F3E600D4EFFF7ABFDB0
:102A2000FFF716FEFFF76FFCFFF705FD00BD000086
:102A3000000000102000001004000010FFFFFFFF46
:102A4000FFFF00001400001024000010D406001046
:102A5000704700003E60043F02367E4640010000A1
:102A6000902A000000000F64696374696F6E6172E0
:102A7000797374617274EA480068E949043F3E6002
:102A8000884201D2E74E7047E74E36687047C0462D
:102A9000CC2A000000000E64696374696F6E617275
:102AA000796E6578740003B53168E048814207D0DB
:102AB0008879FF2804D00E00043F3E60002603BD45
:102AC000043F3E600026F64303BDC046002B0000D5
:102AD00000000A736B6970737472696E67003178F5
:102AE000013101220A4089187618704706B401782E
:102AF000013101220A408918401806BC7047C046BF
:102B0000802B000000000466696E64003FB500225F
:102B10000023350040CF340040CFFFF7ACFFC4485E
:102B2000B188884217D0043F3E600636FFF74CF864
:102B3000043F3E602600043F3E602E00FEF777FF14
:102B4000002E40CF07D0B01DFFF7D0FF02000B00D2
:102B5000B348824204D2FFF7A6FF300040CFDED058
:102B60001600043F3E601E003FBD00B531003868CE
:102B7000FFF7CCFF3A68002A01D100F075FD00BDD7
:102B8000DC2B0000000006636A756D702C003200BB
:102B900040CF310040CF8B1B043BA6491940002990
:102BA0000DD0A54881420AD0FEF7CEFF0D4A756DC3
:102BB0007020746F6F206661720A00F05DFE5B101A
:102BC000FF210B40134330001E0000B5944A1368E8
:102BD0001060FFF7D0FC136000BDC046142C00004D
:102BE0000000056A756D702C310040CF300040CF79
:102BF0000B1A043B91491940002902D0904A914296
:102C0000D2D15B108F4A13408F4A1343043F3E607A
:102C10001E00DAE72C2C00000000046865726500D5
:102C2000043F3E607E4E36687047C0461C2D000053
:102C300000000D666C6173687661722D686572655F
:102C4000043F3E60814E3668704700B5043F3E60E9
:102C50007F4EFFF790FC043F3E607E4EFFF78BFCFB
:102C600000BDDDE700B500F037F839683E600E467C
:102C7000043F3E60784EFFF78AFF00BD00B500F0CC
:102C80002BF839683E600E46043F3E60734EFFF7F6
:102C90007EFF00BD00B5FFF7D8FF00F01DF83968D2
:102CA0003E600E46043F3E606D4EFFF770FF00BD74
:102CB00000B500F011F839683E600E46FFF794FF4A
:102CC00000BD00B5FFF7C1FFFFF7AAFF043F3E605C
:102CD0000226FFF7BDFC00BD00B5FFF7A1FF043FD2
:102CE0003E600226FFF7B4FC00BD00B5FFF798FF79
:102CF000FFF77AFF00BD00B5FFF792FF043F3E608B
:102D0000574EFFF744FF00BD00B5FFF789FF043FB2
:102D10003E60514EFFF73BFF00BDC046582D0000FE
:102D20003000047468656E00052E01D140CFDCE7E9
:102D3000022E01D140CFDEE7FEF706FF1753747273
:102D40007563747572657320646F6E2774206D618E
:102D50007463680A00F090FD742D00003000046573
:102D60006C73650000B500F017F8FDF7F9FAFFF78E
:102D7000DBFF00BD8C2D000030000269660000B54D
:102D8000FFF79FFF043F3E60022600BDA82D000014
:102D9000300005616865616400B5FFF79DFF043F81
:102DA0003E60052600BDC046C42D000030000672FE
:102DB00065706561740000B500F020F8FFF7B4FF9E
:102DC00000BDC046DC2D00003000057768696C65E9
:102DD00000B5FFF7D4FFFDF7C3FA00BDF02D0000EA
:102DE000300005756E74696C012EA5D140CF51E796
:102DF000042E0000300005616761696E012E9BD1D1
:102E000040CF55E7642E0000300005626567696EAB
:102E100000B5FFF726FF043F3E60012600BD00001D
:102E2000000000100003000004000010FFFFFFFF7F
:102E3000FFFF000001FFFFFF00FFFFFF01F8FFFFA2
:102E400000F8FFFFFF07000000E000002400001072
:102E5000002E000040CF000000D1000000D700008D
:102E600000D00000742E00002000016B043F3E6083
:102E7000029E7047842E00002000016A043F3E60DD
:102E8000009E7047942E000020000169043F3E60C0
:102E900026007047D42E00003000056C6561766511
:102EA00000B5D44801683B00043F1A68043B1A602F
:102EB00008338B42F9D103B4FFF70EFF03BC330094
:102EC00040CF04390B60016004390A6801320A609E
:102ED00000BDC046E82E0000200006756E6C6F6FC6
:102EE000700030BC7047C046202F00003000052B1A
:102EF0006C6F6F70032E00D01EE740CF00B5043F0B
:102F00003E60BD4EFFF733F9FFF7B8FE1AE08020B0
:102F100000060019A419401B801940CF7047C04615
:102F2000642F00003000046C6F6F7000032E00D01F
:102F300002E740CF00B5043F3E60B04EFFF717F9FF
:102F4000FFF790FE00F00CF9AA48310040CF016075
:102F5000043F3E60AA4EFFF70AF900BD0134AC42BF
:102F60007047C046AC2F0000780002646F0000B5C7
:102F7000043F3E60A34EFFF7FAF89E480168043F05
:102F80003E600E00043F3E6000260760FFF769FECA
:102F9000043F3E60032600BD00B500F02EF8ECE7CC
:102FA00030B4340040CF350040CF7047403000008F
:102FB0007800033F646F00B5043F3E60914EFFF719
:102FC000D6F8043F3E60904EFFF7D5FA8948016875
:102FD000043F3E600E00FFF77FFE0136043F3E6077
:102FE000012684480760FFF73CFE043F3E6003264D
:102FF00000BD00B500F001F8E3E700B5043F3E6016
:10300000824EFFF7B8FA043F3E600426FEF7EAFE60
:10301000013B08D0043F3E600526FEF7E3FE013B7E
:1030200000F003FC00BD043F3E603526FFF7A3FA25
:10303000043F3E60764EFFF79EFA00F0F6FB00BDBF
:103040005C3000003000046361736500043F3E6043
:103050000026043F3E6008267047C04674300000DA
:103060003000033F6F666B480AE0013EB64140CF37
:103070007047C046003100007800026F6600664865
:10308000082E00D058E640CF00B5043F3E60060051
:10309000FFF76DF8FFF720FE39683E600E460136F7
:1030A000043F3E600926043F3E60594EFFF763FA35
:1030B00000BD00B5300040CF013B01B400F0B5FBCE
:1030C00001BC082E00D037E640CF043F3E6006002A
:1030D000FF213140B14204D150490E43FFF74BFA72
:1030E000D8E7043F3E600026FEF77CFE043F3E60CA
:1030F0004B4EFFF740FACDE7300040CFB04270476B
:1031000038310000300005656E646F66092E00D00E
:1031100012E640CF00B540B440CFFFF7DDFD39687F
:103120003E600E46FFF7F0FD043F3E6040BC043FAA
:103130003E60082600BDC0468831000030000765AB
:103140006E6463617365082E00D0F5E540CF00B56D
:10315000043F3E602E4EFFF70EFA00F001F800BD6E
:1031600000B5300040CF00280DD003B4012131401C
:10317000002903D0013EFFF7BEFD01E0FFF7B5FDDA
:1031800003BC0138EFE700BD9C310000000005746E
:103190006F6B656E043F3E60202605E0283200001C
:1031A000000005706172736510B5FEF714FC310004
:1031B00040CF300040CF1B4A12688418202E07D120
:1031C00091420FD0835CB34202D101328418F7E7F9
:1031D000914207D0835C0132B342F9D18618361B85
:1031E000013E01E08618361B043F3C600D4802603A
:1031F00010BD00000C0000100E2F00005C2F00001E
:10320000E22E0000A02F0000AC42000030B400000D
:1032100040CF00006A300000F8300000002E0000AF
:10322000B0420000C00F00106832000000000564CA
:1032300069676974D44B1B68303E0BD30A2E0BD3DD
:10324000073E0A2E06D3242E06D3203E0A2E01D393
:10325000242E01D3002670479E42FBD2043F3E60DD
:103260000026F6437047C046743300000000066E27
:10327000756D626572003FB5310040CF701E01264A
:10328000012204B4C04B1B680024002500293CD057
:103290000130013902782D2A04D101B00022D24335
:1032A00004B4F3E7232A01D10A23EFE7242A01D14A
:1032B0001023EBE7252A01D10223E7E72E2A01D1CB
:1032C0000226E3E72C2A36D0043F3E601600FFF7C3
:1032D000B3FF002E40CF2BD0043F3E602600043FBA
:1032E0003E602E00043F3E601E00043F3E6000260C
:1032F0000FB4FDF758F90FBC350040CF340040CF74
:103300000022A419554140CFC0E704BC002A04D5CF
:103310000022E443ED430134554133002600012BE4
:1033200002D0043F3E602E00043F3E601E003FBDC1
:1033300001B000263FBD2500002402260029E4D06C
:10334000425C01392E2AF9D0043F3E601600FFF797
:1033500073FF002E40CFEBD0043F3C60043F3E6043
:103360001E000FB4FDF7D3F90FBC340040CF40CF9F
:10337000E4E7C046983300000000062E64696769E0
:1033800074000A2E01D230367047242E01D237360F
:10339000704723267047C046D03300000000046801
:1033A0006F6C6400330040CF784801783F290DD21C
:1033B000013101704018012907D00138027801302D
:1033C0000270013801390129F7D103707047C046F6
:1033D000F0330000000005686F6C643C330040CFA0
:1033E0006A4801783F2902D2013101704354704785
:1033F000083400000000047369676E00002E01D4D9
:1034000040CF70472D26CDE71C340000000002237A
:103410003E005E4806780130386070473434000062
:1034200000000366235310B5202400F008F8013C87
:10343000FBD110BD5834000000000266230000B527
:10344000043F3E60504E3668FDF77FF8FFF799FF66
:10345000FFF7C4FF00BDC046743400000000022323
:10346000530000B500F00AF8002EFBD138680028A0
:10347000F8D100BDA03400000000012300B5043FD6
:103480003E60414E3668043F3E600026FDF75FF91E
:10349000FCF766FF40CFFFF774FFFFF783FF00BD27
:1034A000B43400000000023C2300384800210170C1
:1034B0007047C046C8340000000002662E00043F7A
:1034C0003E60202605E0C046183500000000036677
:1034D0002E6E00B510B4340040CFFDF7CFFAFCF7E4
:1034E000F9FF043F3E600026FFF7DFFFFFF7B9FF5B
:1034F00040CF2C26FFF772FF002C03D0FFF79FFF71
:10350000013CFBD110BC40CFFFF778FF043F3E6089
:10351000043F3E601EE0C0463035000000000375E9
:10352000642E00B5FFF7C1FFFFF79BFF12E0C04616
:1035300064350000000002642E0000B5FDF79EFA1D
:10354000FCF7C8FFFFF7B1FFFFF78BFFFDF7A1FA0C
:10355000FFF754FFFFF75DFFFEF756FBFEF7A2FAF9
:1035600000BDC04678350000000002752E00043F03
:103570003E600026D5E7C046903500000000012ED1
:10358000043F3E60F617D8E7D80F0010280000105F
:10359000D83500000000086576616C7561746500BF
:1035A00000B5FEF718FA01CF01B440B440CFC248CD
:1035B000016802B400210160FEF700FA00F014F87F
:1035C000BD4802BC0160043F3E6040BC01BC043FFA
:1035D0003860FEF7F3F900BD5038000000000969BB
:1035E0006E7465727072657430B5B44887420BD9D9
:1035F000FEF7AAFA10537461636B20756E646572EE
:10360000666C6F770A0037E1AD4887420AD2FEF751
:103610009BFA0F537461636B206F766572666C6FF3
:10362000770A29E1A74C2568002D01D13D002560CE
:10363000FFF7B0FD002E02D1043740CF30BD38680F
:10364000043F3E60043F3860FFF760FA310040CF2E
:10365000320040CF002A13D138683100FFF70BFE4B
:10366000320040CF002AC0D1FEF7D2FAFEF76CFA42
:103670000C206E6F7420666F756E642E0A00FBE07E
:10368000914B1B68002B1DD10025256030230B407A
:10369000302B0ED1FEF7B8FAFEF756FA12206973F6
:1036A00020636F6D70696C652D6F6E6C792E0A00EA
:1036B000E2E0043740CF043F3E601600FEF7F1FD24
:1036C000FFF793FF043740CF802008400ED1EB1B5B
:1036D0009B08402008400FD00820084002D0002B53
:1036E00000D01DE00F200840834205D3043F3E6018
:1036F0001600FEF7D6FD78E700F097F8043F3E602D
:10370000160010220A4002D0FEF7CBFD6DE7202202
:103710000A4002D0FEF72BFD67E7FEF705FC64E7E1
:10372000072001401000FEF736FD012915D1012BBD
:10373000DCD1FF213140B14204D140880643FEF77D
:103740001AFF52E7043F3E600026FEF74BFB043FA2
:103750003E600688FEF70FFF47E7022902D1012BE2
:10376000C4D1EFE703291CD1012BBFD1FF21314088
:10377000B1420AD155490E43FEF7FDFE0432043F23
:103780003E601600FEF7F3FC2FE7043F3E60002684
:10379000FEF728FB0232043F3E601600FEF7E7FC0E
:1037A00023E7042918D1012BA0D1330040CF002BEF
:1037B00000D11AE71F221A409A4205D0043F3E600A
:1037C0004688FEF7D8FE10E7043F3E6006889B015E
:1037D0001E43FEF7D0FE08E7052923D1012B0FD1A8
:1037E000043F3E600026FEF7FDFA043F3E600600FF
:1037F000FEF7BDFC043F3E60354EFEF7BCFEF4E62E
:10380000043F3E600026FEF7EDFA043F3E600126CD
:10381000FEF7E8FAFEF7BFFC043F3E600600FEF745
:10382000A6FCE2E601308047DFE600B5002B0BD0B6
:10383000013B043F3E609E00BE59FEF7AFFB002BEC
:10384000F6D1043D2F0040CF0025256000BDC046C5
:103850006C380000810009686F6F6B2D7175697499
:10386000043F3E601B4E7047A4380000E83800005B
:103870000000047175697400174885460F4FFDF705
:1038800047FD16480A2101600F48002101600D48DC
:1038900001600948016012480160124941600D4809
:1038A00000688746FEF7A6F8FFF79EFEFEF74CF984
:1038B00005206F6B2E0AF5E7C00F001030030010D3
:1038C0003001001008000010B40F0010003E00008E
:1038D00040CF0000B00F001030040010D80F0010CF
:1038E000B80F0010680000100439000000000565E2
:1038F000696E743F043F3E60EFF31086013EB641AF
:103900007047C0461439000020000465696E7400D9
:1039100062B670472439000020000464696E7400A8
:1039200072B670473C390000200004697073720061
:10393000043F3E60EFF305867047C04648390000FB
:103940000000036E6F7070478C390000000009752D
:103950006E68616E646C656400B5FEF7F5F8145529
:103960006E68616E646C656420496E746572727510
:1039700070742000043F3E60EFF30586FEF75CF9AB
:10398000FEF7E2F802210A0000BDC046A03900009F
:103990000000057265736574844885490160C046FE
:1039A000C439000081000B6972712D7379737469D9
:1039B000636B043F3E607F4E7047583900007D487E
:1039C00000688746E83900008100096972712D6638
:1039D00061756C74043F3E60774E70475839000043
:1039E000754800688746C046103A000081000E699D
:1039F00072712D636F6C6C656374696F6E00043F48
:103A00003E606E4E7047583900006C48006887462B
:103A1000303A00008100076972712D616463043FD0
:103A20003E60674E70475839000065480068874619
:103A3000503A00008100076972712D693263043FBA
:103A40003E60604E7047583900005E480068874607
:103A5000743A00008100086972712D7561727400FA
:103A6000043F3E60584E7047583900005648006881
:103A70008746C0460C400000FFFF182D2D2D204624
:103A80006C6173682044696374696F6E6172792038
:103A90002D2D2D00FDF7F1FD4C4885464C4F2A2673
:103AA0004C484D4901604D484D490160043F3E601E
:103AB0004B4E4C4DB1884C4B994224D04B4B0B4054
:103AC0000AD0B01DFFF712F8FEF765FB03884088A7
:103AD00000040343ED1A16E080230B4013D00F239C
:103AE000194089006D1AB01DFFF700F8FEF753FB6F
:103AF000043F3E600600043F3E602E00043F3E60EF
:103B00000E00FDF783F9FEF7CEFF300040CFD1D095
:103B10003748066040CF3748056037483749324A52
:103B2000884204D0023803889342F9D002303449E5
:103B30000860FDF7EDFBFEF707F8464D6563726917
:103B400073702D5374656C6C6172697320322E33FF
:103B50002E322077697468204D3020636F726520A3
:103B6000666F72204C504331313134464E3238202A
:103B70006279204D61747468696173204B6F63686A
:103B80000A00204800210160043F3E601E4E043FB1
:103B90003E600426FEF7BAFF40CF002E02D0FEF7AB
:103BA00080FB7CE640CF67E6696E69740CED00E04F
:103BB0000400FA05AC0F0010A80F0010A40F0010AD
:103BC000A00F00109C0F0010980F00103004001080
:103BD0003003001000000010D40600100400001094
:103BE00000030000E00F0010FFFF000000010000D4
:103BF0001C000010240000100080000000400000A5
:0C3C00001800001008000010A83B000095
:00000001FF
