:020000040800F2
:100000008C040020294D0000E34A0000E34A000070
:10001000E34A0000E34A0000E34A00000000000059
:10002000000000000000000000000000114B000074
:10003000114B000000000000114B0000BB4A000003
:10004000114B0000114B0000114B0000114B000040
:10005000114B0000114B0000394B0000614B0000B8
:10006000894B0000B14B0000D94B0000114B000040
:10007000114B0000114B0000114B0000114B000010
:10008000114B0000114B0000FF4B0000114B000012
:10009000114B0000114B0000114B0000114B0000F0
:1000A000114B0000114B0000114B0000114B0000E0
:1000B000274C00004F4C0000774C0000114B000013
:1000C000114B0000114B0000114B0000114B0000C0
:1000D000114B0000114B0000114B0000114B0000B0
:1000E000114B0000114B0000114B0000114B0000A0
:1000F000114B0000114B0000114B0000114B000090
:10010000114B0000114B0000114B0000114B00007F
:10011000114B0000114B0000114B0000114B00006F
:10012000114B0000114B0000114B0000114B00005F
:10013000114B0000114B0000114B0000114B00004F
:10014000114B0000114B0000114B0000114B00003F
:10015000114B0000114B0000114B0000114B00002F
:10016000114B0000114B0000114B0000114B00001F
:10017000114B0000114B0000114B0000114B00000F
:10018000114B0000114B0000C4050000FFFF222DA1
:100190002D2D204D6563726973702D5374656C6CE1
:1001A0006172697320524120322E342E38202D2D59
:1001B0002D0007B59048002B09D000F03DF800F065
:1001C00043F800F028F8426028210160F3E707BDFA
:1001D00000B5894800230168282905D1426800F04C
:1001E00004F800F04EF8F6E700BD03B547F8046DDB
:1001F000160047F8046D1E0008B400F09FFF08BC0D
:10020000013347F8046D7D4E47F8046D40F26126D6
:1002100004F09AFA03BD03B5013B47F8046D1E00D4
:1002200008B400F075FF08BC320047F8046D4FF4C5
:10023000005604F089FA03BD03B5714801681E2910
:1002400001D000F034F803BD816901620169816168
:100250008168016101688160C16941624169C16170
:10026000C16841614168C1601E21016070470FB5DE
:10027000614801681E2903D0FFF7DEFFFFF7E4FFA6
:100280000FBD02B581680160C168416000E002B540
:10029000016981604169C16081690161C169416130
:1002A000016A8161416AC1611E21016202BD08B516
:1002B00001681E220260082901D20B0004E02829EF
:1002C00009D1436800F05BF847F8046D4D4E56EADB
:1002D000033603F0EAF808BD00B500F009F800F0B5
:1002E0000CF800F00FF800F012F800F015F800BD5F
:1002F0000FB54348FFF7DBFF0FBD0FB54248FFF7CF
:10030000D6FF0FBD0FB54148FFF7D1FF0FBD0FB5A9
:100310003F48FFF7CCFF0FBD0FB5374801680622F5
:1003200002601E2906D147F8046D4CF6407603F0B2
:100330008BF815E0282909D1436847F8046D1E00A1
:1003400047F8046D062602F00DFD09E0062907D0E6
:1003500047F8046D44F20666C9000E4303F074F8D2
:1003600000F001F80FBD24481E2101628161016186
:100370008160C1620621016000218162704707B57A
:1003800047F8046D1E0000F045F847F8046D1E00A4
:1003900002F0E8FC07BD07B5C16A282904D1016B4A
:1003A000994201D1002307BD0168002918D0816856
:1003B000002915D00169002912D0816900290FD0C8
:1003C000016A00290CD0036347F8046D1E0047F84A
:1003D000046D002602F0C6FC2821C162002307BD7F
:1003E00047F8046D1E0000F015F847F8046D1E0074
:1003F00002F0B8FC07BD000028000020C40E000079
:1004000048000020040D47F840000020380000207C
:100410003000002037B53648016882680369846976
:10042000056A062000F00EF8032000F00BF8022009
:1004300000F008F8012000F005F800232C481E21E8
:10044000C16237BD814209D0824207D0834205D0C4
:10045000844203D0854201D0030037BD704747F87E
:10046000046D4CF6007600B581581E2905D1FFF7C2
:10047000D1FF8350012199400E4300BD00B50168B2
:100480001E2904D10022FFF7EAFF02F0DDFF00BDC4
:1004900000B581681E2907D10822FFF7E0FF00227E
:1004A000FFF7E1FF02F0D0FF00BD00B501691E2992
:1004B0000AD11022FFF7D3FF0822FFF7D4FF002252
:1004C000FFF7D1FF02F0C0FF00BD00B581691E2912
:1004D0000DD11822FFF7C3FF1022FFF7C4FF082237
:1004E000FFF7C1FF0022FFF7BEFF02F0ADFF00BD26
:1004F0002800002000B50168282904D14368FFF7CF
:100500003EFF0360190000BD00B58168282904D1B1
:10051000C368FFF734FF8360190000BD00B50169AF
:10052000282904D14369FFF72AFF0361190000BDA0
:100530003EB5826803698469056A9A4203D0A24283
:1005400001D0AA420AD1072A08D847F8046DD6007C
:10055000FFF760FF1E43836002F076FF3EBD3EB5AD
:100560000168826803698469056A914206D09942EC
:1005700004D0A14202D0A94200D03EBD47F8046D8C
:10058000CE00FFF747FF1E43036002F05DFF3EBD54
:1005900000B5FFF776FEFFF76AFEFFF73BFF03604B
:1005A00000BD01B506480368013308D00023DB43D2
:1005B000036047F8046D4BF2005602F045FF01BDA1
:1005C000D8BF0020E80500004202043264757000C4
:1005D000386847F8046D043F3860704700B500F094
:1005E000C3FC00F0C1FC00BD06060000620205323B
:1005F00064726F70043740CF704700B500F064FC40
:1006000000F062FC00BD4C06000044020532737726
:10061000617007CF043F386047F8046D043F3A60CB
:100620000E00704700B5FFF750FF026803690360D2
:100630000261426843694360426182688369836002
:100640008261C268C369C360C26100BD74060000F4
:10065000620204326E69700007CF043F3860704751
:1006600000B5FFF732FFFFF7DDFFFFF70AFEFFF7E8
:1006700008FE00BD8E060000440005326F766572EC
:10068000B86847F8046D043F3860FE687047B206EA
:100690000000440005327475636B07CF043F386077
:1006A00047F8046D043F3A60043F3960043F386006
:1006B0007047D406000046000432726F7400386838
:1006C000B9683A69B86039613A6079687E60FE68F5
:1006D000F9607047F6060000460005322D726F740F
:1006E0003868B9683A6938613960BA60F968FE609B
:1006F0007E68796070471E070000200203323E7258
:1007000001CF01B440B440CF704700B5FFF749FFB7
:1007100000F0FDFB00F09DFC00F09BFC00BD4A07D3
:10072000000020020332723E47F8046D40BC01BC59
:10073000043F3860704700B5FFF733FF00F0A5FCB9
:1007400000F0A3FC00F0E3FB00BD7A0700002002EC
:100750000332724047F8046D019E47F8046D009E15
:10076000704700B5FFF71DFF47F8046D49F6010615
:1007700003F0A1FB03F09BFB00BDA00700002002DB
:1007800006327264726F700002B0704700B5FFF7F6
:1007900008FF47F8046D4BF2020602F055FE00BD5B
:1007A000B807000042000364322F3868F107761062
:1007B0004008084338607047CE07000062020364B7
:1007C000322A3868001876413860704717E0E80729
:1007D000000042000464736872003868F10776080C
:1007E000400808433860704734080000620204641F
:1007F00073686C003868001876413860704700B53F
:10080000FFF746FEFFF776FEFFF7A9FE00F07FFB3D
:10081000FFF770FEFFF7A3FE47F8046D402601F0D6
:1008200049FD00F074FB47F8046D44F2401601F0F6
:1008300041FD00BD4608000042000464616273008F
:10084000002E07D4704764080000420007646E65FC
:100850006761746538680021C043F64301304E413A
:1008600038607047B4080000640202642D0007CFAE
:10087000121AB1410E00043F3A60704700B5FFF70D
:1008800024FE00F099FBFFF735FEFFF768FE00F04D
:100890003EFBFFF72FFEFFF762FEFFF7C3FE01F0FE
:1008A00073FC00F0A5FB47F8046D44F2801600F0DD
:1008B00031FD00BD02090000640202642B0007CF75
:1008C00012184E41043F3A60704700B5FFF7FDFD36
:1008D00000F072FBFFF70EFEFFF741FE00F017FB82
:1008E000FFF708FEFFF73BFEFFF79CFE01F031FC2F
:1008F00000F07EFB47F8046D44F2401600F00EFD58
:1009000000BD2C090000610203733E6447F8046DCA
:10091000F617704700B500F0C5FAFFF720FE47F85C
:10092000046D41F2C07601F0C5FC00BD8A090000EB
:10093000620203756D2A3868A0FB060638607047AE
:1009400047F8046DDFF8006500B5FFF7A1FDFFF77C
:10095000D1FDFFF7D9FD01680E43816856EA0146D3
:10096000FFF78FFCFFF78DFCFFF781FCFFF752FDCF
:10097000036056EA0336FFF77AFCFFF74BFD03608E
:1009800056EA032602F091FD00BDA80900006202AC
:10099000026D2A00386880FB06063860704747F809
:1009A000046DDFF8A864CFE7E60900004400037592
:1009B000642A07CF564341437618010C130C594360
:1009C0007618010C80B292B2514343435043002247
:1009D000C91852411204B6180A04090C80184E4175
:1009E000043F38607047780A000044000475646D65
:1009F0002A0010B5002447F8046D7E6847F8046D9E
:100A00003E69FFF798FF310040CF300040CF47F8F4
:100A1000046D3E6847F8046DFE6803B4FFF78BFF72
:100A200003BC330040CF320040CF47F8046D3E682E
:100A300047F8046D3E690FB4FFF77DFF0FBC9219B4
:100A4000634140CF89196241634140CF47F8046D4B
:100A50007E6847F8046DFE680FB4FFF76CFF0FBCAB
:100A60009219634140CF89196241634140CF1E0012
:100A70003A607960B86010BD9A0A00004300022A0B
:100A80002F0000B540B440CFFFF784FF47F8046D56
:100A900040BC00F04CF8043700BDBC0A0000430025
:100AA000052A2F6D6F6400B540B440CFFFF772FF89
:100AB00047F8046D40BC00F03AF800BDDE0A0000C3
:100AC000430003752A2F00B540B440CFFFF733FF32
:100AD00047F8046D40BC00F01BF8043700BD020B62
:100AE0000000430006752A2F6D6F640000B540B406
:100AF00040CFFFF720FF47F8046D40BC00F008F836
:100B000000BD220B0000430006756D2F6D6F640061
:100B100000B547F8046D002600F019F840CF0437FF
:100B200000BD400B00004300056D2F6D6F6400B5E4
:100B300047F8046DF61700F032F840CF043700BDD7
:100B4000920B000044000675642F6D6F640030B492
:100B5000002300227968B86835003C6840264000D0
:100B6000494152415B41AB4202D804D3A24202D375
:100B7000121BAB410130013EF1D10E0038607B60A9
:100B8000BA6030BC704730B400237A68B96800207E
:100B9000E2E7080C0000440005642F6D6F6400B5A7
:100BA000F01719D0FFF756FEFFF733FDF0170CD002
:100BB000FFF750FEFFF72DFDFFF7C9FFFFF729FDF7
:100BC000FFF748FEFFF725FD00BDFFF722FDFFF709
:100BD000BEFFFFF73FFE00BDFFF71BFDF0170ED075
:100BE000FFF738FEFFF715FDFFF7B1FFFFF732FE05
:100BF000FFF70FFDFFF72EFEFFF70BFD00BDFFF720
:100C000008FDFFF7A4FF00BD1E0C000044000264B5
:100C10002F0000B5FFF7C3FFFFF71EFD00BD660CF8
:100C20000000440002662A0000B5F0170DD0FFF75F
:100C300011FEFFF7EEFCF0170DD0FFF70BFEFFF7EC
:100C4000D8FE40CF01CF386000BDFFF7E2FCF017BF
:100C5000F5D0FFF7FFFDFFF7CCFE40CF01CF3860A6
:100C6000FFF7F8FD00BDB20C0000440002662F0043
:100C700000B5F0170ED0FFF7EDFDFFF7CAFCF01737
:100C80000ED0FFF7E7FDFFF7C4FCFFF77CFFFFF78F
:100C9000E3FC00BDFFF7BDFCF017F4D0FFF7DAFD71
:100CA000FFF7B7FCFFF76FFFFFF7D4FDFFF7D4FCAA
:100CB00000BDFA0C000020020232210006CF316094
:100CC000726040CF704700B5FFF7EFFB01684268E4
:100CD00006B400F0EEFDFFF7CAFA06BC0160282951
:100CE00006D047F8046D46F2400600F0E6FD00BD70
:100CF0000432426000F0DDFD00BD440D0000200222
:100D000002324000043F706838603668704700B5B2
:100D100000F0C8F8016828290AD047F8046D46F6A3
:100D2000400600F0A7FD00F0F2F800F09FFD00BDC6
:100D300041680431416000F099FD00F0E8F800F0EE
:100D400095FD00BD580D000044000364753C07CFBD
:100D5000121AB141B64170476C0D000044000364A3
:100D6000753E07CF801A8E41B6417047820D000054
:100D7000440002643C0007CF121AB1410CDB00268C
:100D800070479E0D0000440002643E0007CF801AA9
:100D90008E4101DB002670470026F6437047BA0DEE
:100DA000000062020364303C0437F617704700B558
:100DB00000F0C0F800F03CFB00BDE20D0000620254
:100DC0000364303D01CF0643013EB641704700B594
:100DD00047F8046D44F2003600F0A0FA00F002FB80
:100DE00000BD080E0000440203643C3E07CF5040A3
:100DF0004E400643013EB641F643704700B500F051
:100E000015F800F003FB00BD500E00004402026420
:100E10003D0007CF50404E400643013EB64170476B
:100E200000B500F003F800F0DDFA00BD00B5FFF7F3
:100E30004CFB00F0C1F800F0C3F900F0D9F800F065
:100E4000BFF900F0B0F900BD0000A0FB000080FB7E
:100E5000620E000020000373704047F8046D3E00EE
:100E60007047720E0000200003737021370040CFDE
:100E70007047840E000020000372704047F8046D34
:100E80006E467047940E0000200003727021B54634
:100E900040CF7047B80E000061020364757047F8D8
:100EA000046D704706B5FFF7E9FA01684268FFF77D
:100EB000DEF90160426006BDE40E000061020464D8
:100EC000726F700040CF704700B501681E2906D1CF
:100ED00047F8046D43F2047602F0B6FA00BDFFF75E
:100EE000D0F900BDFA0E00006100043F6475700087
:100EF000002E01D047F8046D7047260F00006202F3
:100F000004737761700039683E600E0070470CB55D
:100F1000FFF7BEFA02688368036082604268C368B4
:100F20004360C2600CBD540F00006202036E697022
:100F30000437704700B5FFF7A1FA81681E2902D077
:100F4000FFF7A5F900BD47F8046D43F2047602F0FF
:100F50007BFA00BD7C0F00006202046F76657200B0
:100F600047F8046D7E68704700B5FFF791FA816815
:100F7000C268FFF77CF90160426000BDA20F00006B
:100F80006202047475636B0001CF083F7E603860B5
:100F9000704700B5FFF77CFAFFF784FF00F028F8F0
:100FA00000BDD80F0000630203726F7403CF083FC7
:100FB00078603E600E0070470EB5FFF776FA016864
:100FC000826803698160026103604168C2684369A5
:100FD000C160426143600EBDFC0F00006302042D3E
:100FE000726F740003CF083F7E603960060070475F
:100FF00000B5FFF7E1FFFFF7DFFF00BD0E100000B7
:101000002000047069636B0057F826607047261053
:10101000000000000564657074684F49C91B47F8FB
:10102000046D8E087047421000000000067264656F
:101030007074680047F8046D6E464849891B8E0835
:101040007047781000002002023E720040B440CF8A
:10105000704700B5FFF7A5FAFFF710FAFFF74AFA55
:1010600047F8046D4BF2004601228A40164302F015
:10107000EBF9FFF706F900BDAE1000002002027286
:101080003E0047F8046D40BC704700B5FFF789FA91
:10109000FFF7EDF8FFF7BEF9036047F8046D4BF674
:1010A000004601229A40164302F0CEF900BDCC1052
:1010B000000020020272400047F8046D009E704755
:1010C00000B5FFF76EFA02F0F2FE00BDF01000006E
:1010D0002002057264726F7001B0704700B5FFF7AF
:1010E00060FA47F8046D4BF2010602F0ADF900BD5D
:1010F00004110000200005727069636BB6006E4435
:101100003668704730110000000004726F6C6C008C
:10111000002E01D140CF7047B0003958C019031FCD
:101120001A6802600438013EF9D104370E00704796
:10113000601100000000052D726F6C6C002E01D153
:1011400040CF7047386839464A680A600431013E2A
:10115000FAD1086040CF70478C0300208C04002037
:101160007A110000620203616E6401CF064070478D
:1011700047F8046D44F20006D0E0961100006202C8
:101180000362696301CFB0430600704747F8046DFE
:1011900044F28036BEE0B01100006202026F7200BD
:1011A00001CF0643704747F8046D44F20036B5E0BE
:1011B000CA110000620203786F7201CF4640704787
:1011C00047F8046D44F24006A8E0E2110000620214
:1011D000012A01CF4643704747F8046D44F2403678
:1011E0009CE016120000610203636C7AB6FA86F680
:1011F000704700B5FFF742F947F8046D704EFFF7EE
:1012000079F90E4356EA0146FFF7C2F956EA03267A
:1012100002F04BF900BD26120000610003726F72EC
:101220005FEA7606704738120000610003726F6C47
:10123000B61956F10006704770120000620207618D
:1012400072736869667401CF30410600704700B55B
:1012500047F8046D44F2001647F8046D41F20006A9
:10126000FFF716F941681F292AD91F21416027E09D
:101270009A1200006202067273686966740001CFF8
:10128000F0400600704700B547F8046D44F2C00610
:1012900047F8046D40F6000612E0D4130000620225
:1012A000066C73686966740001CFB0400600704731
:1012B00000B547F8046D44F2800647F8046D002637
:1012C000FFF7E6F80168282903D040CF00F022F8A4
:1012D00000BD04374168FEF7D4FF002901D140CF9B
:1012E00000BD1F290AD889010E430268D2001643A7
:1012F000FFF74EF91E4302F0A7F800BD40CFFFF7FD
:1013000047F947F8046D42F200061B021E4302F043
:101310009BF800BD0FB5FFF7BBF80CE00FB5FFF76A
:10132000B7F80168062901D1FFF7F1FD8268282A84
:1013300001D1FFF7ECFDFFF7E7F8016828291ED17E
:1013400047F8046D466801F059FC02CF002E40CFEB
:1013500015D0B6F5804F01D11A4E1EE044F240027E
:10136000964201D1184E18E0B6F5864F01D1174EBE
:1013700013E04FF48742964201D1154E0DE0FFF77E
:10138000D7F8FFF7B7F8C90082680E43164302F09A
:101390005BF8FEF776FF0FBD0FB50E43816856EA86
:1013A0000146FEF76EFFFEF76CFFFEF760FFFFF7EA
:1013B00031F8036056EA032602F077F80FBD00000B
:1013C00080F0B0FA000010F0000090F0000050F043
:1013D000000030F0FA130000610202303D00013ECF
:1013E000B641704700B500F0FAF800F020FFFEF7B4
:1013F00048FF4FF45241816200BD22140000610297
:1014000003303C3E013EB641F643704700B500F064
:10141000E6F800F00CFFFEF734FF4FF45341816211
:1014200000BD4A140000610202303C00F61770470C
:1014300000B500F0D4F847F8046D41F2C07600F032
:1014400039FF4FF45541816200BD60140000600017
:1014500004747275650047F8046D0026F643704702
:101460007414000060000566616C736547F8046DD4
:10147000002670479A1400004202023E3D0001CF50
:10148000B042EADA0026704747F8046D4DF60036A0
:1014900047F8046D4DF60026ADE0C014000042028E
:1014A000023C3D0001CFB042D7DD0026704747F82F
:1014B000046D4DF6004647F8046D4DF600569AE06F
:1014C000E41400004202013C01CFB042C5DB00261B
:1014D000704747F8046D4DF6002647F8046D4DF649
:1014E000003688E0081500004202013E01CFB042FC
:1014F000B3DC0026704747F8046D4DF6005647F8F8
:10150000046D4DF6004676E02E150000620203756C
:101510003E3D01CF861BB641F643704747F8046D48
:101520004DF2003647F8046D4DF2002663E0541585
:101530000000620203753C3D01CF361AB641F64306
:10154000704747F8046D4DF6000647F8046D4DF6F8
:10155000001650E078150000620202753C0001CFD1
:10156000861BB641704747F8046D4DF2002647F8D8
:10157000046D4DF200363EE09C15000062020275DB
:101580003E0001CF361AB641704747F8046D4DF65C
:10159000001647F8046D4DF600062CE0BE1500005D
:1015A0006202023C3E0001CF811B361A0E43704797
:1015B00047F8046D4DF2000647F8046D1BE01E1756
:1015C00000006202013D01CF361A013EB64170476C
:1015D00047F8046D4DF2001647F8046D0BE000B5B6
:1015E000FEF74CFFFEF784FEFEF787FEFEF78AFE4D
:1015F000FEF78AFF00BD00B5FEF74AFFFEF778FE52
:10160000FEF77BFEFEF78AFF8268282A04D1FFF7E7
:101610007EFC39683E600E4640CF016828291DD106
:101620004168FF2907D847F8046D42F600060E43CB
:10163000816809021AE047F8046D466801F0DEFA95
:1016400002CF002E40CF09D047F8046D6A4E0E43FA
:10165000816856EA014601F028FF0AE0FEF74AFFDA
:1016600047F8046D44F28026C90016430E4301F08A
:10167000EBFEFEF706FEFEF704FE866240CF00BDDD
:101680000FB55E48816A002935D047F8046D866A37
:1016900000218162310AD52901D140CF0FBDFEF76B
:1016A000E6FDFEF7B7FE0360D22904D14FF483466E
:1016B00000F000FE0FBDD32906D14FF4834600F0A1
:1016C000F9FD00F00AFE0FBD023601F0BDFE47F83D
:1016D000046D42F2000600F00FF800F0FEFD47F83E
:1016E000046D4EF2000601F0AFFE47F8046D42F2C1
:1016F000000600F001F80FBD00B5FEF7BFFEFEF7D3
:101700002EFF016809020E4301F09EFE00BD00B5E8
:10171000816A090AD52901D1FEF7B3FD00BD3C1746
:1017200000006202036D696E01CFB04200DC06006A
:10173000704747F8046D4DF600362DE05A1700004B
:101740006202036D617801CFB04200DB0600704792
:1017500047F8046D4DF600461EE07A17000062025D
:1017600004756D61780001CFB04200D30600704768
:1017700047F8046D4DF600060EE000180000620206
:1017800004756D696E0001CFB04200D80600704745
:1017900047F8046D4DF2003600B5FEF779FE01689A
:1017A0008268914203D140CFFEF771FD00BD062A49
:1017B00001D1FFF7ACFB0168282901D1FFF7A7FB96
:1017C000FEF7CDFEFEF7A0FEC900026847F8046DE3
:1017D00044F280260E43164301F036FE01F034FE3B
:1017E00047F8046D44F200660E43164301F02CFEE8
:1017F000FEF74DFD00BD0000000FB0F128000020F5
:101800003E1800000000046D6F76650007B53100DA
:1018100040CF320040CF00290FD0B2420DD006D3C6
:10182000013E013A705C50540139FBD105E030783B
:101830001070013601320139F9D140CF07BD60186F
:10184000000000000466696C6C00300040CF31007D
:1018500040CF002902D001397054FCD140CF7047ED
:10186000A2180000200201403668704747F8046D56
:1018700046F6000600B5FEF701FE0368282B08D1E6
:1018800043687C21194009010E437C218B43FEF7FC
:1018900082FDDB001E43FEF77BFE1E4301F0D4FDFC
:1018A00000BDFA1800002002012103CF30600E00B5
:1018B000704747F8046D46F2000600B5FEF7E8FDF4
:1018C0000368282B09D143687C21194009010E4384
:1018D0007C218B43FEF75FFD0360DB001E438368C2
:1018E000282B02D1C368FEF74AFD1E4301F0ACFD70
:1018F000FEF7C7FCFEF7C5FC00BD30190000200252
:10190000022B210003CF3268121832600E0070479C
:1019100000B5FEF7BDFDFFF7C5FAFFF7A7FFFFF71C
:101920004BFB00F016FCFFF7F2FAFFF7C2FF00BD19
:10193000741900002002026840003688704700B524
:10194000FEF79CFD47F8046D48F600060368282B57
:1019500008D143683E21194049010E433E218B4383
:10196000FEF719FDDB001E43FEF712FE1E4301F0D9
:101970006BFD00BDCE19000020020268210003CFDC
:1019800030800E00704700B5FEF782FD47F8046D09
:1019900048F200060368282B09D143683E2119400C
:1019A00049010E433E218B43FEF7F5FC0360DB004B
:1019B0001E438368282B02D1C368FEF7E0FC1E4358
:1019C00001F042FDFEF75DFCFEF75BFC00BD041A72
:1019D0000000200203682B2103CF328812183280C6
:1019E0000E00704700B5FEF753FDFFF75BFAFFF7F7
:1019F000A6FFFFF7E1FA00F0ACFBFFF788FAFFF76C
:101A0000C2FF00BD481A0000200202634000367881
:101A1000704700B5FEF732FD47F8046D47F6000643
:101A20000368282B08D143681F21194089010E4300
:101A30001F218B43FEF7AFFCDB001E43FEF7A8FD22
:101A40001E4301F001FD00BDA21A00002002026346
:101A5000210003CF30700E00704700B5FEF718FD6F
:101A600047F8046D47F200060368282B09D1436844
:101A70001F21194089010E431F218B43FEF78BFC68
:101A80000360DB001E438368282B02D1C368FEF786
:101A900076FC1E4301F0D8FCFEF7F3FBFEF7F1FBEA
:101AA00000BDD81A0000200203632B2103CF327837
:101AB000121832700E00704700B5FEF7E9FCFFF710
:101AC000F1F9FFF7A6FFFFF777FA00F042FBFFF707
:101AD0001EFAFFF7C2FF00BD181B000020020462BF
:101AE0006973210003CF3268024332600E007047F1
:101AF00000B5FEF7CDFCFFF7D5F9FFF7B7FEFFF70E
:101B00005BFA47F8046D44F20036FFF707FCFFF775
:101B1000FEF9FFF7CEFE00BD581B00002002046254
:101B20006963210003CF3268824332600E00704740
:101B300000B5FEF7ADFCFFF7B5F9FFF797FEFFF72D
:101B40003BFA47F8046D44F28036FFF7E3FBFFF7FA
:101B5000DEF9FFF7AEFE00BD981B000020020478FE
:101B60006F72210003CF3268424032600E0070472E
:101B700000B5FEF78DFCFFF795F9FFF777FEFFF74D
:101B80001BFA47F8046D44F24006FFF7C7FBFFF766
:101B9000BEF9FFF78EFE00BDCE1B000020020462DE
:101BA0006974400001CF3668064018BF4FF0FF3619
:101BB000704700B5FEF76CFCFFF758FE47F8046D60
:101BC00044F20006FFF7AAFBFFF720FC00BD0E1C45
:101BD0000000200205686269732103CF3288024346
:101BE00032800E00704700B5FEF752FCFFF75AF93D
:101BF000FFF7A5FEFFF7E0F947F8046D44F2003661
:101C0000FFF78CFBFFF783F9FFF7BDFE00BD4E1C0D
:101C10000000200205686269632103CF3288824395
:101C200032800E00704700B5FEF732FCFFF73AF93C
:101C3000FFF785FEFFF7C0F947F8046D44F28036E0
:101C4000FFF768FBFFF763F9FFF79DFE00BD8E1CF1
:101C5000000020020568786F722103CF328842406D
:101C600032800E00704700B5FEF712FCFFF71AF93C
:101C7000FFF765FEFFF7A0F947F8046D44F2400650
:101C8000FFF74CFBFFF743F9FFF77DFE00BDC41CD7
:101C90000000200205686269744001CF3688064062
:101CA00018BF4FF0FF36704700B5FEF7F1FBFFF7A6
:101CB00046FE47F8046D44F20006FFF72FFBFFF7DE
:101CC000A5FB00BD041D00002002056362697321AD
:101CD00003CF3278024332700E00704700B5FEF732
:101CE000D7FBFFF7DFF8FFF794FEFFF765F947F83A
:101CF000046D44F20036FFF711FBFFF708F9FFF718
:101D0000ACFE00BD441D0000200205636269632132
:101D100003CF3278824332700E00704700B5FEF771
:101D2000B7FBFFF7BFF8FFF774FEFFF745F947F879
:101D3000046D44F28036FFF7EDFAFFF7E8F8FFF79D
:101D40008CFE00BD841D000020020563786F7221A7
:101D500003CF3278424032700E00704700B5FEF774
:101D600097FBFFF79FF8FFF754FEFFF725F947F8B9
:101D7000046D44F24006FFF7D1FAFFF7C8F8FFF709
:101D80006CFE00BDE21D0000200205636269744024
:101D900001CF3678064018BF4FF0FF36704700B5C8
:101DA000FEF776FBFFF735FE47F8046D44F20006B8
:101DB000FFF7B4FAFFF72AFB00BD00F0BDFD1E4699
:101DC0006C6173682063616E6E6F7420626520774A
:101DD00072697474656E2074776963650A0002F035
:101DE000C9BDA81E00000000083136666C6173682A
:101DF00021003FB50F20304015D000F09DFD22316D
:101E000036666C61736821206E65656473203136B7
:101E10002D616C69676E65642061646472657373BB
:101E20000A0002F0A7BD30680130C6D170680130E9
:101E3000C3D1B0680130C0D1F0680130BDD14FF0DE
:101E40000062B618104A114B1360114B1360114A0F
:101E50000123136008CF04CF02CF01CF01C602C611
:101E600000F01AF804C608C600F016F8094A1088EF
:101E7000012188431080074A10684FF00041084351
:101E8000106040CF3FBD000008200240230167459D
:101E9000AB89EFCD1420024003B421490888012109
:101EA0000840FAD103BC7047401F000000000E66D6
:101EB0006C617368706167656572617365000FB509
:101EC000300040CF4FF4A043984228D3154A164B18
:101ED0001360164B1360164A022313600821C84092
:101EE00040F6F872104002210843114A1080012088
:101EF000104A10800A4A138801201840FBD10E4A6C
:101F0000802313700D4A116802B44FF4C0608143FE
:101F100011604FF4C0500143116002BC11600FBD4D
:101F2000122002400820024023016745AB89EFCD13
:101F300014200240162002401720024000200240D8
:101F4000C21F000000000A6572617365666C6173F0
:101F500068004FF4A04072B64FF480214FF6FF7234
:101F6000038893421CD047F8046D060047F8046DBF
:101F700000F0E2FC10457261736520626C6F636B68
:101F800020617420200000F03FFD00F0D5FC0C2003
:101F900066726F6D20466C6173680A00FFF78FFFF1
:101FA00002308842DCD100F0C7FC1246696E6973CA
:101FB0006865642E20526573657420210A0002F062
:101FC0006AFDDE1F000000000E6572617365666CBD
:101FD00061736866726F6D00300040CFBBE7002010
:101FE0000000000009696E6974666C61736854488A
:101FF0004FF420710022027001300139FBD170478B
:10200000E820000000000768666C6173682130B545
:10201000320040CF500813D300F08EFC1E68666C6F
:1020200061736821206E65656473206576656E2036
:102030006164647265737365732E0A0002F09ABC62
:102040004FF4A0439A4210D200F076FC1943616E1F
:102050006E6F7420777269746520696E746F206387
:102060006F726520210A02F085BC130934482021D3
:10207000046824099C4226D014300139F8D1304834
:1020800020210468002C17D014300139F9D100F058
:1020900053FC21546F6F206D616E792073636174FE
:1020A000746572656420466C617368207772697428
:1020B00065732E0A02F05EBC1B01036001394160AA
:1020C0008160C16001610F2111400431465240CF4F
:1020D0000168013101600F221140082903D100F08D
:1020E0001AF8FFF786FE30BD4421000000000A66A2
:1020F0006C757368666C6173680000B510482021C8
:102100000268002A03D000F006F8FFF772FE1430D0
:102110000139F5D100BD47F8046D466847F8046DF4
:10212000866847F8046DC66847F8046D066947F885
:10213000046D0F26F64302681640002202607047C5
:102140008C0400207A2100006202012B01CF361896
:10215000704700B5FEF79CF947F8046D43F200069E
:1021600047F8046DC94E47F8046D41F600068168D2
:10217000282917D1FEF7CBFE14E0202200006202CE
:10218000012D01CF861B704700B5FEF781F947F896
:10219000046D43F6000647F8046DBD4E47F8046D24
:1021A00041F60026FEF7B0F90168282927D14168D9
:1021B000FF290CD840CF40CFFEF7BAF90E43816813
:1021C00009020E4301F040F9FEF75BF800BD47F845
:1021D000046D0E0000F012FD02CF002E40CF0ED095
:1021E00040CF04370E43816856EA0146FEF749F8AE
:1021F000FEF7CEF956EA032601F057F900BD043781
:102200000437FEF777F989018268D2000E4316433E
:10221000FEF737F8FEF7BCF91E4301F015F900BDD3
:1022200038220000610202312D00013E704747F85C
:10223000046D41F640663DE050220000610202312B
:102240002B000136704747F8046D41F6404631E0F7
:1022500068220000610202322D00023E704747F8FA
:10226000046D41F6806625E08022000061020232A2
:102270002B000236704747F8046D41F6804619E09E
:102280009A22000061020563656C6C2B043670476E
:1022900047F8046D41F600560CE0CC2200006102C4
:1022A000066E6567617465007642704747F8046D95
:1022B00044F2402600B5FEF7E1F80168C9000E437C
:1022C000FEF766F91E4301F0BFF800BDE4220000EE
:1022D0006102036E6F74F643704747F8046D44F271
:1022E000C036E7E7FC2200006102037368727608DB
:1022F000704747F8046D40F64006DBE70C2300000A
:1023000061020373686C7600704706E022230000C8
:10231000610202322A007600704747F8046D4026B9
:10232000C8E73A23000061020563656C6C73B60070
:10233000704747F8046D8026BCE752230000610215
:1023400002322F007610704747F8046D41F24006C4
:10235000B0E792230000610203616273F017361840
:102360004640704700B5FEF789F847F8046D00262F
:102370000168C9000E43FEF70BF91E4301F064F833
:1023800047F8046D4DF2005601F05EF8FFF78EFF3E
:1023900000BDB0230000420005752F6D6F6401CFB2
:1023A0003100B0FBF6F67143401A043F38607047C5
:1023B000CE2300004200042F6D6F640001CF310076
:1023C00090FBF6F67143401A043F38607047E223F1
:1023D00000004200036D6F6400B5FFF7EFFF40CFD0
:1023E00000BD222400006202012F01CF90FBF6F60F
:1023F000704700B5FEF74CF8FEF77CF8FEF784F85E
:1024000047F8046D234E01680E43816856EA014681
:10241000FDF737FFFEF7BCF856EA032601F045F852
:1024200000BD362400006100046576656E00012061
:102430003040361870474E240000810004626173FA
:10244000650047F8046D144E70470A0000006424CC
:10245000000000000662696E617279000E48022178
:10246000016070477A240000000007646563696DAD
:10247000616C09480A2101607047E22400000000F5
:10248000036865780448102101607047000010F16E
:102490000000B0F1F0F090FBFCBF00207849FF2075
:1024A000086078494FF4003008604FF0904176485A
:1024B000086076494FF04050086075494FF4E0607D
:1024C000086074492320086073494FF48050086005
:1024D00072490D20086070476E4840F2A1110160FA
:1024E0007047FE240000810009686F6F6B2D656DD9
:1024F000697447F8046D6A4E7047E82500001A2594
:102500000000810008686F6F6B2D6B65790047F8DC
:10251000046D644E70470E260000382500008100CF
:102520000A686F6F6B2D656D69743F0047F8046D25
:102530005D4E704738260000542500008100096870
:102540006F6F6B2D6B65793F47F8046D574E704781
:10255000642600007225000081000A686F6F6B2DF1
:1025600070617573650047F8046D514E7047464AB7
:10257000000088250000000004656D6974000FB537
:10258000474800F026F80FBD9C2500000000036BB3
:1025900065790FB5434800F01CF80FBDAE2500006B
:1025A000000005656D69743F3F4800688746C02597
:1025B00000000000046B65793F003C4800688746D6
:1025C000D625000000000570617573653848006805
:1025D000874600688746FC25000000000B73657283
:1025E00069616C2D656D697400B500F025F8002EE9
:1025F00040CFFAD02F4A167040CF00BD24260000ED
:1026000000000A73657269616C2D6B65790000B515
:1026100000F028F8002E40CFFAD047F8046D264A83
:10262000167800BD5226000000000C7365726961C7
:102630006C2D656D69743F0000B5FFF7C7FF47F863
:10264000046D00261D4801688020014000D0F6433B
:1026500000BDC026000000000B73657269616C2D1F
:102660006B65793F00B5FFF7B1FF47F8046D0026B1
:10267000124801682020014000D0F64300BD000050
:102680004C10024058100240EFFFFFAB24000048FE
:10269000200000480C440040084400400044004032
:1026A000F8BF0020F4BF0020F0BF0020ECBF0020E6
:1026B000E8BF002028440040244400401C4400405F
:1026C000E42600000000076365787065637400B558
:1026D000386801B40130386000F00BF801BC0670B6
:1026E00040CF00BD5A27000000000661636365709B
:1026F000740000B502CF01390022FFF74AFF300015
:1027000040CF7F2809D0202819D2092816D00A28BE
:102710001FD00D281DD00828EFD1002AEDD000F0E1
:102720000BF903082008002AE7D0885C013A8023CF
:102730000340E2D040230340F5D0DEE72020B24240
:10274000DBD247F8046D0600FFF719FF0132885409
:10275000D3E7160000F09FF800BD6C270000400092
:102760000374696247F8046D294E704782270000A0
:102770008100033E696E47F8046D264E70470000E5
:102780000000A827000082000E63757272656E74E7
:102790002D736F757263650047F8046D1E4E7047A8
:1027A00000000000C4000020C427000000000973DE
:1027B0006574736F75726365174802CF0660416078
:1027C00040CF7047E2270000000006736F75726308
:1027D000650047F8046D104E043F70683860366835
:1027E00070471C28000000000571756572790FB5EF
:1027F000084800210160FFF7B5FF47F8046D47F86E
:10280000046DC826FFF775FFFFF7D6FF0FBD000068
:10281000C4000020E4BF0020DCBF002064280000CA
:10282000000007636F6D706172650FB5310040CFB6
:1028300001CF884202CF10D1002810D001380A5CA5
:10284000335C412A02D35B2A38BF2032412B02D3AA
:102850005B2B38BF20339A42EED000260FBD0026F6
:10286000F6430FBD7828000000000263720000B537
:1028700000F062F8010A00BD8A2800000000026230
:102880006C0047F8046D202670479E280000000069
:1028900005737061636547F8046D20266FE6BE28F6
:1028A00000000000067370616365730000B5002EC0
:1028B00003DDFFF7F0FF013EFBD140CF00BDCE2886
:1028C00000005000065B636861725D0005E0E62869
:1028D0000000000004636861720000B501F0D0FCE4
:1028E00040CF367800BDF62800005004012847F894
:1028F000046D292606E0102900005004015C47F809
:10290000046D002600B501F0C5FC043740CF00BDC2
:10291000542900003000022E2200AA4800B547F8D2
:10292000046D060000F07BFA47F8046D222601F0E2
:10293000B1FC00F0CAFD00BD0AB447F8046D76464C
:10294000013E33780121013319405B181EEB030E61
:102950000ABC39E07A2900003000026322009A485C
:10296000DCE747F8046D7646013E337801210133F8
:1029700019405B181EEB030E7047A42900003000BD
:10298000027322009148C9E747F8046D764647F87C
:10299000046D013E36780121731C19405B181EEB53
:1029A000030E7047BC290000000005636F756E744C
:1029B000013647F8046D013E36787047D42900008F
:1029C000000005637479706500B5FFF7F1FF00F052
:1029D00007F800BDFC290000000004747970650050
:1029E00001B501CF002E07D047F8046D0678FFF738
:1029F000C6FD0130013EF7D140CF01BD362A0000AF
:102A00000000046865782E0007B5310040CF202013
:102A10000F22043847F8046D0E00C6401640092EF8
:102A200001D9373600E03036FFF7A9FD0028F0D194
:102A3000FFF731FF07BD462A0000000003682E7330
:102A40001FB5634C0EE0562A0000000003752E737C
:102A50001FB5604C06E0FA2A00000000022E730049
:102A60001FB55D4C5D49C91B8908220A2020292F0A
:102A7000200A2028273E200A202F434320202033ED
:102A800035204343430A385C29295F200A0A544A07
:102A9000106803B40A201060FFF74EFF08537461FA
:102AA000636B3A205B0047F8046D0E0001F0BFFD38
:102AB000FFF742FF025D200003BC2736484A106042
:102AC00000290AD0474A106806B447F8046D06008A
:102AD000A04706BC043A0139F5D1FFF72DFF0620C7
:102AE000544F533A200047F8046D3600A047FFF7D3
:102AF00023FF04202A3E0A001FBD9A2B000000007D
:102B000005776F72647300B5FFF716FF010A00F0D6
:102B100044FFFFF711FF09416464726573733A2043
:102B200047F8046DFFF770FFFFF706FF064C696E6C
:102B30006B3A200047F8046D3668FFF765FFFFF732
:102B4000FBFE07466C6167733A2047F8046DB68850
:102B5000FFF75AFFFFF7F0FE06436F64653A200067
:102B6000B01D00F056FF47F8046D0600FFF74CFF5C
:102B7000FFF7E2FE064E616D653A200047F8046DEE
:102B80000636FFF721FFFFF7D7FE010A00F01EFF10
:102B9000300040CFBDD040CF00BDE82B000000008A
:102BA00006756E757365640000B501F002F84FF0AC
:102BB000005001684FF00052914201D24FF480263C
:102BC000761A00BD3829000062290000882900001B
:102BD000092A00001F4600002F4600008C03002039
:102BE000FCBF0020880300204C2D000000000D31A8
:102BF00032626974656E636F64696E670FB5FF2E2C
:102C000004D847F8046D5FF0FF360FBD16F0FF10D3
:102C1000B0420ED14FF6FF710840310C814208D10D
:102C200016F0FF0656F4805647F8046D5FF0FF3645
:102C30000FBD16F0FF20B0420FD14FF6FF710840D4
:102C4000310C814209D1360A16F0FF0656F40056BF
:102C500047F8046D5FF0FF360FBDFF2231001140D1
:102C6000300A1040884210D1300C104088420CD1FC
:102C7000300E1040884208D116F0FF0656F4405638
:102C800047F8046D5FF0FF360FBD300000210131C1
:102C9000001850F100007FF07F020240802A05D02A
:102CA0001F29F4D347F8046D00260FBD0829F9D376
:102CB000060036F0800611F00100C001064311F055
:102CC0000E00C002064311F010008005064347F8CD
:102CD000046D5FF0FF360FBD47F8046DDFF8B06696
:102CE0005FF4704110EA0102120116435FF40061C3
:102CF00010EA0102D20316435FF4E06110EA010218
:102D000012011643FF2110EA010216431E43CCE3D1
:102D100047F8046DDFF87C665FF0704110EA01024D
:102D2000120B16435FF0006110EA010252081643CD
:102D30005FF0E06110EA0102120B16435FF47F01BD
:102D400010EA0102120C16431E43AEE3B22D00003E
:102D500000001072656769737465726C69746572DE
:102D6000616C2C000FB5330040CF1B02FF2E05D83D
:102D700056F400561E4300F067FB0FBDFFF73EFF01
:102D8000002E40CF06D0DFF8100606431E4300F0A9
:102D90008CFB0FBDF643FFF731FF002E40CF06D06E
:102DA000DFF8F80506431E4300F07FFB0FBDF64336
:102DB0000BE0122E00000000096D6F76776D6F76C4
:102DC000742C0FB5330040CF1B02300040CFFFF70B
:102DD00083FF4FF6FF7110EA014001D0FFF798FF23
:102DE0000FBD0FB50136300040CF0023FFF774FF51
:102DF000FFF78EFF06E00FB5013647F8046D002699
:102E0000FFF7B0FF47F8046D44F2807600F01CFB3A
:102E10000FBD782E000000000563616C6C2C0FB5AF
:102E2000330000F0B6FE300040CF1B1A043BDFF841
:102E300070151940002906D0DFF86825914202D0AC
:102E4000BDE80F40D7E740CF5B08DFF85C0540F2F4
:102E5000FF7119400843DB0A40F2FF3119400904B1
:102E600008439B0A13F001018906084347F8046DE3
:102E7000060000F01AFB0FBDAE2E00000000086C2B
:102E800069746572616C2C0008B547F8046D4FF6E3
:102E9000470600F0D9FA47F8046D46F6045600F0EC
:102EA000D3FA47F8046D0626FFF75CFF08BDD22E63
:102EB00000000000066372656174650000B500F0F3
:102EC0003DF842F6EF60804747F8046DBEF1010619
:102ED00000BD2E2F0000200005646F65733E42F692
:102EE000EF60804747F8046DBEF10106704747F870
:102EF000046DBEF101064FF000521368DFF8AC1408
:102F000009684FF00050834205D20F200840042882
:102F100005D00231F9E70220084000D00231023129
:102F20001160FFF75EFF136000F0DEF900BD982F1F
:102F300000000000073C6275696C647300B500F026
:102F4000ADFB4FF0005001684FF0005291420CD29F
:102F500000F01FFE0F200640042E40CF10D047F88F
:102F6000046D362600F070FAF2E700F012FE02203F
:102F7000064040CF04D047F8046D362600F064FACE
:102F800047F8046D4BF2005600F05EFA47F8046D06
:102F90000A2600F0CDFA00BDA42F00005000035B0C
:102FA000275D03E0BC2F00000000012700B501F001
:102FB00067F900F086FD300040CF00BDF22F000021
:102FC000300008706F7374706F6E650000B5FFF7A6
:102FD000EDFF47F8046D060039683E600E46FFF7C6
:102FE00053FFFFF751FF47F8046DF14EFFF717FF4E
:102FF00000BD48300000000007696E6C696E652CEA
:1030000000B54BF200514BF6005244F27073308819
:10301000884208D0904208D0984206D047F8046D04
:10302000060000F011FA0236F1E740CF00BD0EB401
:103030004BF6005244F2707301880230914201D085
:103040009942F9D10EBC70475E3000000000047256
:1030500065742C0047F8046D4BF60056F4E16C30B3
:1030600000003000046578697400F3E784300000E4
:103070003000077265637572736547F8046DCB4E57
:103080003668CCE69C30000081000573746174657D
:1030900047F8046DC74E704700000000AE300000D6
:1030A0000000015DC3480021C94301607047BE3084
:1030B00000001000015BBF48002101607047DE3056
:1030C00000000000013A00B5BB48076000F0E6FAD6
:1030D000B84801210160B9480021016000BD5C31A0
:1030E00000003008013B00B5B3480168B94214D074
:1030F000B3498E4202D1B34EFFF766FCFFF71CFCCA
:103100001520537461636B206E6F742062616C6173
:103110006E6365642E0A01F02DBCA6480068411C50
:1031200010D00B2805D847F8046D40F6200600F0B3
:1031300012F947F8046D44F2707600F085F901F059
:1031400019FB05E047F8046D4BF6005600F07CF9DA
:1031500000F0CAF897480021016000BD70310000FE
:1031600000000765786563757465300040CF874659
:1031700088310000100009696D6D656469617465CE
:1031800047F8046D1026E6E09E3100005000066905
:103190006E6C696E650047F8046D2026DBE0B8317F
:1031A000000010000B636F6D70696C656F6E6C7959
:1031B00047F8046D3026CEE0D231000050000A30CE
:1031C0002D666F6C6461626C650047F8046D402683
:1031D000C1E0EC31000050000A312D666F6C646173
:1031E000626C650047F8046D4126B4E006320000C9
:1031F00050000A322D666F6C6461626C650047F89E
:10320000046D4226A7E02032000050000A332D66EC
:103210006F6C6461626C650047F8046D43269AE048
:103220003A32000050000A342D666F6C6461626CA3
:10323000650047F8046D44268DE0543200005000CC
:103240000A352D666F6C6461626C650047F8046D29
:10325000452680E06E32000050000A362D666F6C05
:103260006461626C650047F8046D462673E088323D
:10327000000050000A372D666F6C6461626C650057
:1032800047F8046D472666E0B83200000000086386
:103290006F6E7374616E740000B500F0FFF9FFF794
:1032A000F3FD47F8046D44F2707600F0CDF8FFF7B7
:1032B0008CFF00F019F800BDDA320000000009327E
:1032C000636F6E7374616E7400B500F0E7F939686E
:1032D0003E600E46FFF7D8FDE1E7463300000000F0
:1032E00006736D756467650000B54FF000500168A6
:1032F0004FF00052914220D202390A884FF6FF73F4
:103300009A4204D147F8046D002600F09DF800F0C1
:1033100073F800F086F82C48006847F8046D060042
:103320002A49096804314FF000521368116000F017
:103330008BF81360FEF7E1FE00BD00F05DF847F882
:10334000046D002608E0D0330000000008736574A7
:10335000666C6167730000B54FF0005001684FF074
:103360000052914205D2184801683143016040CFB4
:1033700000BD320040CF15480068043001884FF688
:10338000FF73994201D1110000E01143018000BD9B
:10339000000040F20000C0F200005FF000007FF08B
:1033A0000100C0FF0000C0FF00F800F01400002082
:1033B0006E460000D8BF0020100000205C000020F6
:1033C000851912046A2A0000200000200400002051
:1033D000EC330000410007616C69676E6564012091
:1033E0003040361802203040361870471234000042
:1033F000000005616C69676E00B54FF00050016810
:103400000220014004D047F8046D002600F01CF8AB
:1034100000BD3E340000000008616C69676E313603
:103420002C0000B54FF0005001680F20014005D07E
:1034300047F8046D002600F007F8F3E700BD863476
:103440000000000002682C000FB5B6B28848016881
:10345000002902D0013100D001604FF00050016816
:103460004FF00052914205D247F8046D0E00FEF76E
:10347000CEFD02E0320040CF0A8047F8046D0226FC
:1034800000F056F80FBDA03400000000012C00B57C
:1034900047F8046DFFF7D8FF360CFFF7D5FF00BDE6
:1034A000BC3400000000033E3C2C00B547F8046D1E
:1034B000360CFFF7C9FFFFF7C7FF00BD243500003A
:1034C000000007737472696E672C07B5FF213140E5
:1034D00040CF300040CF002905D147F8046D0026C9
:1034E000FFF7B2FF07BD47F8046D067836020E43BA
:1034F000FFF7AAFF0130013902290AD347F8046D0A
:103500004678360202781643FFF79EFF02300239F2
:10351000F2E7002900D107BD47F8046D0678FFF7F0
:1035200093FF07BD84350000000005616C6C6F746B
:103530004FF0005001684FF00052914210D232001B
:1035400040CF89184FF48022914219D3FFF7F4F944
:103550000B466C6173682066756C6C0A01F00ABAE0
:10356000320040CF8918434A1268914208D3FFF7CE
:10357000E3F90952616D2066756C6C0A01F0FAB9C5
:1035800001607047AA350000000009666F72676528
:103590007472616D00B500F028F84FF000503649A4
:1035A000016036483649016000BDD6350000000094
:1035B0000D636F6D70696C65746F72616D3F47F874
:1035C000046D00264FF0005000684FF00051884213
:1035D0004DD3F6437047FA35000000000C636F6D61
:1035E00070696C65746F72616D004FF00050006817
:1035F0004FF00051884213D370478C360000000012
:103600000E636F6D70696C65746F666C61736800D2
:103610004FF0005000684FF00051884200D27047D0
:103620001648184902680B680A6003604FF00050A2
:10363000154902680B680A6003600E4800688342FF
:1036400015D300B5FFF778F92320566172696162DE
:103650006C657320636F6C6C69646520776974684E
:103660002064696374696F6E6172790A00BD704786
:10367000D8BF0020240000203007002004000020D4
:10368000880100001C000020180000209437000072
:1036900000000828637265617465290000B500F0B8
:1036A000EFFD002E0ED1FFF747F91520437265613B
:1036B0007465206E65656473206E616D6520210AF6
:1036C00001F058B9386847F8046D043F386000F0DD
:1036D000AFF940CF002E40CF11D0386847F8046DC5
:1036E000043F3860FFF728F9095265646566696E22
:1036F0006520FFF775F9FFF71FF9022E2000FFF78D
:103700007BFE4FF0005000684FF00051884227D2F6
:10371000954800210160FFF784FE47F8046D0C26F0
:10372000FFF706FF00F035FA47F8046D0626FFF7AD
:10373000FFFEFDF757FCFFF7C8FE8C4801680A68DA
:103740004FF0FF339A4208D14FF0005213681160D6
:1037500047F8046DFFF79BFE1360066040CF13E04F
:1037600000F017FA814847F8046D0668FFF78FFEEE
:1037700047F8046D4FF6FF76FFF766FE7B48310091
:1037800040CF0160FFF7A1FE4FF00050016878487C
:10379000016000BDAC37000000000876617269610D
:1037A000626C650047F8046D012613E0C437000021
:1037B000000009327661726961626C6547F8046DD8
:1037C000022607E0A23800000000096E76617269E7
:1037D00061626C6500B5FFF761FF4FF00050016852
:1037E0004FF00052914234D20F200640B20061489F
:1037F0000168891A604A91420BD2FFF79DF80F4E7B
:103800006F7420656E6F7567682052414D0A01F034
:10381000B1B8016047F8046D0E00FFF735FB47F8BB
:10382000046D44F27076FFF70FFE300040CF0200C7
:10383000002805D00E600431FFF729FE0138F9D1C8
:1038400047F8046D80261643FFF785FDFFF74CFD12
:1038500000BD00F09EF90220064040CF04D147F899
:10386000046D3626FFF7F0FD47F8046D434EFFF771
:103870001CFE47F8046D424EFFF717FE47F8046D33
:1038800044F27076FFF7E0FD300040CF002803D00F
:10389000FFF7FDFD0138FBD1FFF797FCFFF724FD93
:1038A00000BD843900000000076275666665723AE3
:1038B00000B5FFF7F3FE01203040361802203040FB
:1038C00036184FF0005001684FF00052914228D254
:1038D00028480168891B284A91420BD2FFF72CF82F
:1038E0000F4E6F7420656E6F7567682052414D0AE8
:1038F00001F040B8016047F8046D0E00FFF7C4FA0C
:1039000047F8046D44F27076FFF79EFDFFF7BFFDA8
:1039100047F8046D40F24016FFF71DFDFFF7E4FC89
:1039200000BD00F036F90220064040CF04D147F830
:10393000046D3626FFF788FD47F8046D0F4EFFF73C
:10394000B4FD47F8046D0E4EFFF7AFFD47F8046D68
:1039500044F27076FFF778FDFFF7EAFDFFF735FCDC
:10396000FFF7C2FC00BD0000200000200400002082
:103970001400002024000020300700203E60043F97
:1039800002367E46B639000000000F646963746930
:103990006F6E61727973746172744FF000500068D9
:1039A0004FF0005147F8046D884201D24B4E7047EA
:1039B0004B4E36687047F239000000000E646963B0
:1039C00074696F6E6172796E6578740003B53168E1
:1039D0004FF0FF30814207D08879FF2804D00E00D5
:1039E00047F8046D002603BD47F8046D0026F64332
:1039F00003BD243A000000000A736B69707374728F
:103A0000696E67003178013101220A408918761801
:103A1000704706B40178013101220A408918401824
:103A200006BC7047363A000000000466696E640008
:103A30002C4800688746523A0000810009686F6F81
:103A40006B2D66696E6447F8046D274E7047603AC7
:103A50000000EC3A00000000062866696E64290048
:103A600030B500220023350040CF340040CFFFF7AF
:103A700094FF4FF6FF70B188884218D047F8046D64
:103A80000636FEF795FF47F8046D260047F8046DEB
:103A90002E00FEF7CAFE002E40CF08D0B01DFFF763
:103AA000B8FF02000B004FF00050824204D2FFF733
:103AB0008DFF300040CFDCD0160047F8046D1E00AB
:103AC00030BD00B53100386803B4FFF7B1FF03BC67
:103AD0003A68002A01D100F0FBFE00BD8801000019
:103AE00004000020D4BF0020D4BF00204C3B0000C5
:103AF000000006636A756D702C00320040CF310003
:103B000040CF8B1B043B6FF0FE01194000290ED003
:103B10006FF0FF0081420AD0FEF70EFF0D4A756D6F
:103B20007020746F6F206661720A00F023BF5B1013
:103B3000FF210B40134330001E0000B54FF0005230
:103B400013681060FFF780FC136000BD863B000027
:103B50000000056A756D702C310040CF300040CFF9
:103B60000B1A043BC4491940002902D0C34A9142B0
:103B7000D2D15B1040F2FF72134053F4604347F818
:103B8000046D1E00D9E79E3B0000000004686572CA
:103B9000650047F8046D4FF0005636687047D43C16
:103BA000000000000D666C6173687661722D6865B7
:103BB000726547F8046DB24E3668704700B547F835
:103BC000046D42F60066FFF73FFC47F8046D4CF6C3
:103BD0004076FFF739FC00BDDBE700B500F03AF8AE
:103BE00039683E600E4647F8046D4DF20016FFF747
:103BF00084FF00BD00B500F02DF839683E600E4628
:103C000047F8046D4DF20076FFF777FF00BD00B571
:103C1000FFF7D4FF00F01EF839683E600E4647F803
:103C2000046D4DF20006FFF768FF00BD00B500F01F
:103C300011F839683E600E46FFF78EFF00BD00B5F3
:103C4000FFF7BCFFFFF7A5FF47F8046D0226FFF75B
:103C50006FFC00BD00B5FFF79CFF47F8046D02261E
:103C6000FFF766FC00BD00B5FFF793FFFFF774FF99
:103C700000BD00B5FFF78DFF47F8046D4DF200065B
:103C8000FFF73BFF00BD00B5FFF783FF47F8046D6A
:103C90004DF20016FFF731FF00BD00B5FCF7EEFB5B
:103CA000FCF726FBFCF729FBFCF72CFB8168282995
:103CB00001D1FCF729FCFCF71DFC47F8046D42F626
:103CC000000609020E43FFF7BFFBFCF7DAFAFCF728
:103CD00003FB00BD003D00003000047468656E0009
:103CE000052E01D140CFBEE7F1B200296DD100B55C
:103CF000FFF74FFF39683E600E46FFF7FEFE00BD3E
:103D00001C3D0000300004656C73650000B500F0D8
:103D100036F8FCF77EFCFFF7E3FF00BD723D0000C4
:103D200030060269660000B5FFF789FF47F8046DA9
:103D30004DF2000600BD00B5FCF733FCFDF7E7FCD3
:103D4000816A002907D002B4FCF7C6FAFFF782FFA8
:103D500047F8046D40BDFFF7A0FFFFF71AFF47F8D3
:103D6000046D0226FFF7E4FB47F8046D4DF20006F0
:103D700000BD8C3D0000300005616865616400B5E0
:103D8000FFF768FF47F8046D052600BDA63D00005B
:103D90003000067265706561740000B500F05BF874
:103DA000FFF79EFF00BDEA3D000030060577686919
:103DB0006C6500B5FFF7B7FFFCF72BFC00BD00B545
:103DC000FFF7B9FFFCF725FC00BDFEF7B5FD175363
:103DD00074727563747572657320646F6E277420D6
:103DE0006D617463680A00F0C5BD4A3E000030068C
:103DF00005756E74696C012EE7D140CF07E77047F7
:103E0000012EE2D140CF00B5FDF781FC816A002987
:103E10000DD002B4FCF760FAFFF71CFF39683E6072
:103E20000E4647F8046D40BCFFF767FE00BDFFF784
:103E300034FFFFF70FFF39683E600E4647F8046D08
:103E40004DF20006FFF759FE00BD5E3E0000300057
:103E500005616761696E012EB7D140CFE6E6843E09
:103E60000000300005626567696E00B5FFF7B4FEBB
:103E700047F8046D012600BD01F8FFFF00F8FFFFC1
:103E8000240000209E3E00002002016B47F8046DD4
:103E9000029E704747F8046D49F602060BE0CC3EDF
:103EA00000002002016A47F8046D009E704747F841
:103EB000046D49F6000600B5FCF7D9F9FCF7AAFA3B
:103EC00003601B021E43FFF7BFFA00BDF83E00006F
:103ED0002002016947F8046D2600704700B547F8D5
:103EE000046D40F22006FCF7C2F9FCF793FA036078
:103EF0001E43FFF7A9FA00BD363F00003000056CF5
:103F00006561766500B5754801683B00043F1A6835
:103F1000043B1A6008338B42F9D103B4FFF79AFED1
:103F200003BC330040CF04390B60016004390A68D8
:103F300001320A6000BD483F0000200006756E6C2B
:103F40006F6F700030BC7047803F00003000052B61
:103F50006C6F6F70032E00D037E740CF00B547F885
:103F6000046D5F4EFFF74CF8FFF744FE1AE014F1C2
:103F70000044641BA41940CF2C44A4F100447047B2
:103F8000C23F00003000046C6F6F7000032E00D041
:103F90001BE740CF00B547F8046D524EFFF730F8ED
:103FA000FFF71BFE00F052F94C48310040CF016092
:103FB00047F8046D4C4EFFF723F800BD0134AC42C6
:103FC00070470A400000300202646F0000B547F8F5
:103FD000046D464EFFF714F84048016847F8046D39
:103FE0000E0047F8046D00260760FFF7F5FD47F85F
:103FF000046D032600BD00B500F02FF8ECE730B4E7
:10400000340040CF350040CF7047F0400000300210
:10401000033F646F00B547F8046D344EFEF7F0FFC0
:1040200047F8046D44F2AC26FFF70EFA2B480168FE
:1040300047F8046D0E00FFF70DFE013647F8046DDA
:10404000012626480760FFF7C7FD47F8046D0326E1
:1040500000BD00B500F001F8E2E700B5FCF7A1FAF9
:10406000FCF716FAFCF744F9FCF747F9FCF74AF9B4
:1040700047F8046D4BF23046FFF7E6F9016828294E
:1040800008D047F8046D40F20406C9000E43FFF75C
:10409000DBF907E047F8046D466847F8046D04262D
:1040A000FEF760FE8168282908D047F8046D40F2C9
:1040B0000506C9000E43FFF7C7F907E047F8046D8E
:1040C000C66847F8046D0526FEF74CFEFCF7D9F8E4
:1040D000FCF7D7F8FCF720F900BD00000C00002029
:1040E0006E3F0000BC3F0000443F0000FE3F000068
:1040F00010410000300004636173650000B5FCF7F7
:1041000050FA47F8046D002647F8046D082600BDF4
:10411000264100003000033F6F666F4809E0013E12
:10412000B64140CF7047EC4100003002026F66009C
:104130006A48082E00D048E640CF00B547F8046D25
:104140000600FEF75DFFFFF785FD39683E600E460D
:10415000013647F8046D092647F8046D4CF64076A1
:10416000FFF772F900BD082E00D02EE640CF00B553
:10417000FCF78EF9FCF7BCF8FCF7BFF8FCF7C2F8C7
:1041800047F8046D44F28026FCF7BEF90E4302683E
:10419000282A1ED14268FF2A08D840CF47F8046D6C
:1041A00042F60006164309020E4314E047F8046D78
:1041B0004668FEF723FD04CF002E40CF06D0484EC0
:1041C000164356EA0146FFF770F906E0FCF792F94C
:1041D0000A00D2001643FFF737F9FCF752F8FCF754
:1041E0009BF8B0E7300040CFB04270472242000059
:1041F000300005656E646F66092E00D0E5E540CF9E
:1042000000B540B440CFFFF725FD39683E600E464B
:10421000FFF739FD47F8046D40BC47F8046D0826E8
:1042200000BD74420000300007656E646361736511
:10423000082E00D0C9E540CF00B547F8046D4CF614
:104240004076FFF701F900F001F800BD00B530003D
:1042500040CF00280DD003B401213140002903D004
:10426000013EFFF706FD01E0FFF7FDFC03BC01384E
:10427000EFE700BD88420000000005746F6B656EBB
:1042800047F8046D202605E0EC42000000000570B0
:104290006172736510B5134801684068124A12686C
:1042A0008418202E07D191420FD0835CB34202D1F3
:1042B00001328418F7E7914207D0835C0132B342A0
:1042C000F9D18618361B013E01E08618361B043FE3
:1042D0003C600548026010BD1E410000E441000042
:1042E000000FB0F1DCBF0020E4BF00202A43000033
:1042F0000000056469676974CF4B1B68303E0BD3BF
:104300000A2E0BD3073E0A2E06D3242E06D3203EB8
:104310000A2E01D3242E01D3002670479E42FBD2E1
:1043200047F8046D0026F64370473444000000004F
:10433000066E756D626572003FB5310040CF701E2C
:104340000126012204B4BC4B1B680024002500296F
:104350003CD00130013902782D2A04D101B000226D
:10436000D24304B4F3E7232A01D10A23EFE7242A36
:1043700001D11023EBE7252A01D10223E7E72E2AFA
:1043800001D10226E3E72C2A36D047F8046D160047
:10439000FFF7B4FF002E40CF2BD047F8046D260066
:1043A00047F8046D2E0047F8046D1E0047F8046DB1
:1043B00000260FB4FCF7FDFA0FBC350040CF3400E7
:1043C00040CF0022A419554140CFC0E704BC002AC9
:1043D00004D50022E443ED43013455413300260067
:1043E000012B02D047F8046D2E0047F8046D1E0023
:1043F0003FBD01B000263FBD250000240226002954
:10440000E4D0425C01392E2AF9D047F8046D160039
:10441000FFF774FF002E40CFEBD0043F3C6047F81D
:10442000046D1E000FB4FCF773FB0FBC340040CFCB
:1044300040CFE4E7564400000000062E6469676937
:1044400074000A2E01D230367047242E01D237363E
:104450007047232670478C440000000004686F6C8E
:104460006400330040CF754801783F290DD20131F7
:1044700001704018012907D001380278013002701C
:10448000013801390129F7D103707047AC440000AD
:10449000000005686F6C643C330040CF67480178CA
:1044A0003F2902D20131017043547047C4440000D7
:1044B0000000047369676E00002E01D440CF70477E
:1044C0002D26CEE7D8440000000002233E005B48C2
:1044D0000678013038607047F04400000000036641
:1044E000235310B5202400F008F8013CFBD110BD87
:1044F0001245000000000266230000B547F8046D75
:104500004D4E3668FCF717FAFFF79BFFFFF7C4FF25
:1045100000BD2E45000000000223530000B500F04E
:104520000AF8002EFBD138680028F8D100BD5A45A2
:1045300000000000012300B547F8046D3E4E3668C8
:1045400047F8046D0026FCF702FBFCF762F840CF49
:10455000FFF777FFFFF785FF00BD6C450000000007
:10456000023C230035480021017070477E45000061
:10457000000002662E0047F8046D202604E0CC45BA
:104580000000000003662E6E00B510B4340040CF6A
:10459000FCF7FAFCFCF754F947F8046D0026FFF726
:1045A000E1FFFFF7BBFF40CF2C26FFF775FF002C84
:1045B00003D0FFF7A2FF013CFBD110BC40CFFFF7B7
:1045C0007BFF47F8046D47F8046D1CE0E2450000EE
:1045D00000000375642E00B5FFF7C4FFFFF79EFFD0
:1045E00011E014460000000002642E0000B5FCF744
:1045F000CBFCFCF725F9FFF7B5FFFFF78FFFFCF7C2
:10460000D5FCFFF759FFFFF762FFFEF7E9F9FEF768
:1046100042F900BD26460000000002752E0047F852
:10462000046D0026D7E7FC4700000000012E47F884
:10463000046DF617DAE70000FCBF002084000020BC
:1046400030B5DD4C2568002D01D13D00256030BD21
:1046500030B5D94C3D00256030BD30B5D64C002575
:10466000256030BDD44B1B68DB1B9B08704700B531
:10467000310040CF4FF48050084002D000F0A6F83F
:1046800000BD4FF48060084001D1FCF7F9FF320013
:1046900040CFFFF7D5FF4FF40050084003D047F854
:1046A000046D160000BDFFF7DDFF8020084006D135
:1046B0004020084009D00F200840834205D347F826
:1046C000046D1600FEF751FD00BD4FF40070084068
:1046D00014D0FBF76EFD47F8046D160047F8046D23
:1046E0000E0000F031F81000FEF7A1FC421CB348A8
:1046F0009047FFF7ADFFFBF76BFD00BDFBF759FDE2
:1047000047F8046D160047F8046D0E0000F01CF821
:10471000FBF7E2FDFFF7A1FF4FF40060084001D175
:10472000FBF73FFF47F8046D160010220A4002D045
:10473000FEF71BFD00BD20220A4002D0FEF760FC00
:1047400000BDFEF76CFB00BD0FB5320040CF33005B
:1047500040CF9B480168062907D20620414399486B
:10476000401803801B0C438082809548016801310A
:1047700001600FBD0FB59248016806291FD8914806
:1047800001391DD047F8046D0E00FEF75DFE47F8B5
:10479000046D0688FEF758FE47F8046D4688FEF75C
:1047A00053FE47F8046D8688FEF74EFE0630013949
:1047B000EDD147F8046D41F20006FEF7CCFD0FBDC8
:1047C00047F8046D4026FEF7C6FD0FBD00B530006A
:1047D00040CFFEF72CFC0188023047F8046D0688B4
:1047E00042881204164347F8046D868803B4FFF725
:1047F0003EFF03BC06300139EFD100BD4448000044
:104800000000086576616C756174650000B5FDF7A0
:10481000E0FF01CF01B440B440CF6B48016802B45F
:1048200000210160FDF7C8FF00F014F8664802BCE3
:10483000016047F8046D40BC01BC043F3860FDF7DF
:10484000BBFF00BD4C490000000009696E74657231
:104850007072657400B55D4887420BD9FEF76CF83D
:1048600010537461636B20756E646572666C6F774C
:104870000A007FE0564887420AD2FEF75DF80F53E0
:104880007461636B206F766572666C6F770A71E096
:10489000FFF7D6FEFFF7F4FC002E02D1043740CF1D
:1048A00000BD386847F8046D043F3860FFF7C0F872
:1048B000310040CF320040CF002A1BD13868310090
:1048C000FCF7DEFEFFF738FD320040CF002AC2D1F0
:1048D00047F8046D060047F8046D0E00FEF780F8F7
:1048E000FEF72AF80C206E6F7420666F756E642ECA
:1048F0000A003FE0374B1B68002B1CD1FFF7ADFED1
:1049000030230B40302B0ED1FEF76AF8FEF714F877
:104910001220697320636F6D70696C652D6F6E6C0A
:10492000792E0A0026E0043740CF47F8046D1600C0
:10493000FEF71BFC8FE7043740CF47F8046D1600E5
:1049400047F8046D0E00FFF792FE84E76849000007
:10495000810009686F6F6B2D7175697447F8046D7C
:104960001D4E7047A4490000EC490000000004718E
:1049700075697400DFF864D0144FFDF738FB1848F0
:104980000A2101601348002101600B480160FBF718
:10499000EAFC0D48016013480160134941600E486C
:1049A00000688746FDF723FFFFF754FFFDF7C4FFBC
:1049B00005206F6B2E0AF5E7080000202800002074
:1049C0005C00002060000020E4BF00208C03002079
:1049D0008C010020D8BF0020D0BF00208C04002014
:1049E000FCBF0020DCBF0020C4000020064A0000FD
:1049F00000000565696E743F47F8046DEFF310869B
:104A0000013EB6417047164A000020000465696EF9
:104A1000740062B67047264A000020000464696E84
:104A2000740072B670473C4A00002000046970733D
:104A3000720047F8046DEFF305867047484A00009E
:104A40000000036E6F7070478A4A0000000009750D
:104A50006E68616E646C656400B5FDF76DFF14559A
:104A60006E68616E646C656420496E7465727275FF
:104A70007074200047F8046DEFF30586FDF7C4FF5E
:104A8000FDF75AFF02210A0000BD9C4A0000000009
:104A9000057265736574924892490160C64A0000C8
:104AA00081000B6972712D7379737469636B47F8B8
:104AB000046D8D4E7047584A00004BF6CC70C2F220
:104AC000000000688746EE4A0000810009697271A3
:104AD0002D6661756C7447F8046D844E7047584AB2
:104AE00000004BF6C870C2F20000006887461C4BFD
:104AF000000081000E6972712D636F6C6C656374C8
:104B0000696F6E0047F8046D794E7047584A00008F
:104B10004BF6C470C2F2000000688746444B0000A8
:104B20008100096972712D657874693047F8046DE8
:104B3000704E7047584A00004BF6C070C2F2000039
:104B4000006887466C4B00008100096972712D6511
:104B50007874693147F8046D674E7047584A000011
:104B60004BF6BC70C2F2000000688746944B000010
:104B70008100096972712D657874693247F8046D96
:104B80005E4E7047584A00004BF6B870C2F2000003
:104B900000688746BC4B00008100096972712D6571
:104BA0007874693347F8046D554E7047584A0000D1
:104BB0004BF6B470C2F2000000688746E44B000078
:104BC0008100096972712D657874693447F8046D44
:104BD0004C4E7047584A00004BF6B070C2F20000CD
:104BE000006887460A4C00008100076972712D61D8
:104BF000646347F8046D444E7047584A00004BF612
:104C0000AC70C2F2000000688746324C00008100A0
:104C1000086972712D74696D320047F8046D3B4E5E
:104C20007047584A00004BF6A870C2F200000068B6
:104C300087465A4C00008100086972712D74696DB5
:104C4000330047F8046D324E7047584A00004BF667
:104C5000A470C2F2000000688746824C0000810008
:104C6000086972712D74696D340047F8046D294E1E
:104C70007047584A00004BF6A070C2F2000000686E
:104C800087460C500000FFFF182D2D2D20466C612B
:104C900073682044696374696F6E617279202D2D89
:104CA0002D001D48016821F4C06141F400710160CC
:104CB0001A48016811F48061FBD11948016821F09C
:104CC000070141F4817101601648016821F0F0018B
:104CD00041F0B001016041F008010160704700003F
:104CE0000CED00E00400FA05CCBF0020C8BF002096
:104CF000C4BF0020C0BF0020BCBF0020B8BF002040
:104D0000B4BF0020B0BF0020ACBF0020A8BF00206F
:104D1000A4BF0020A0BF002000700040147000401D
:104D20000020024000100240FFF7BBFFFDF7B6FB7A
:104D3000FDF7D2FB46488546464F2A264FF00050E5
:104D40004549016045484649016047F8046D444EB5
:104D5000444DB1884FF6FF73994225D04FF48073CC
:104D60000B400AD0B01DFEF754FEFEF760F9038831
:104D7000408800040343ED1A16E080230B4013D053
:104D80000F23194089006D1AB01DFEF742FEFEF791
:104D90004EF947F8046D060047F8046D2E0047F8F9
:104DA000046D0E00FCF732FDFEF710FE300040CF20
:104DB000CFD02D48066040CF2C4805604FF48020AE
:104DC0004FF4A0414FF6FF72884204D002380388A6
:104DD0009342F9D0023026490860FDF708F9FDF743
:104DE000ABFD3D4D6563726973702D5374656C6CDA
:104DF0006172697320524120322E342E3820666F42
:104E0000722053544D33324C3433324B4320627949
:104E1000204D61747468696173204B6F6368200A68
:104E2000144800210160FBF79EFA47F8046D124E0A
:104E300047F8046D0426FEF7FBFD40CF002E02D09C
:104E4000FEF793F9ABE540CF94E5696E6974000015
:104E50008C0400208C030020300700200400002078
:104E60008801000000C000201C0000202400002059
:0C4E700018000020080000204A4E00003E
:0400000508000000EF
:00000001FF
