S02200006D6563726973702D7374656C6C617269732D6B6C32357A3132382E737265638F
S113000030F3FF1F753C00007D3B00007D3B00008A
S113001000000000000000000000000000000000DC
S1130020000000000000000000000000A73B0000EA
S11300300000000000000000A73B00005B3B000044
S1130040A73B0000A73B0000A73B0000A73B000024
S1130050A73B0000A73B0000A73B0000A73B000014
S1130060A73B0000A73B0000A73B0000A73B000004
S1130070A73B0000A73B0000A73B0000C73B0000D4
S1130080E73B0000A73B0000A73B0000A73B0000A4
S1130090A73B0000A73B0000A73B0000A73B0000D4
S11300A0A73B0000073C0000A73B0000A73B000063
S11300B0A73B0000A73B0000293C00004D3C00008A
S11300C0FFFFFFFFFFFFFFFFFFFFFFFFFFFFFFFF3C
S11300D0FFFFFFFFFFFFFFFFFFFFFFFFFFFFFFFF2C
S11300E0FFFFFFFFFFFFFFFFFFFFFFFFFFFFFFFF1C
S11300F0FFFFFFFFFFFFFFFFFFFFFFFFFFFFFFFF0C
S113041038040000FFFF1F2D2D2D204D65637269E8
S113042073702D5374656C6C6172697320322E3550
S11304302E33202D2D2DC0465004000042000432DE
S1130440647570003868043F3E60043F386070474C
S1130450640400006200053264726F70043740CF98
S11304607047C0468404000044000532737761700D
S113047007CF043F3860043F3E60043F3A600E00FB
S11304807047C04698040000620004326E69700030
S113049007CF043F38607047B404000044000532BD
S11304A06F766572B868043F3E60043F3860FE684A
S11304B07047C046D8040000440005327475636B6D
S11304C007CF043F3860043F3E60043F3A60043F76
S11304D03960043F38607047FC0400004600043271
S11304E0726F74003868B9683A69B86039613A6003
S11304F079687E60FE68F9607047C0462005000098
S1130500460005322D726F743868B9683A693861EB
S11305103960BA60F968FE607E6879607047C046E9
S113052034050000200003323E7201CF01B440B410
S113053040CF70474C05000020000332723E043F58
S11305403E6040BC01BC043F386070476405000055
S1130550200003327240043F3E60019E043F3E602F
S1130560009E704778050000200006327264726FA6
S1130570700002B07047C04690050000420003645A
S1130580322F3868F1077610400808433860704706
S1130590A405000062000364322A3868001876411A
S11305A038607047C005000042000464736872003C
S11305B03868F10776084008084338607047C04639
S11305C0D80500006200046473686C003868001881
S11305D0764138607047C046EC0500004200046470
S11305E061627300002E08D47047C0460C060000F8
S11305F0420007646E656761746538680021C04312
S1130600F64301304E4138607047C046240600006E
S1130610640002642D0007CF121AB1410E00043F9A
S11306203A6070473C060000640002642B0007CF68
S113063012184E41043F3A607047C046500600000D
S1130640610003733E64043F3E60F6177047C04682
S113065064060000420003756D2A01CF32000026B3
S113066013E0C046780600004200026D2A00300004
S1130670F61704CFD11705E0B8060000440003754F
S1130680642A07CF564341437618010C130C59438F
S11306907618010C80B292B2514343435043002276
S11306A0C91852411204B6180A04090C80184E41A4
S11306B0043F38607047C0464C070000440004758E
S11306C0646D2A0010B50024043F3E607E68043F38
S11306D03E603E69FFF7C1FF310040CF300040CF9C
S11306E0043F3E603E68043F3E60FE6803B4FFF78B
S11306F0B4FF03BC330040CF320040CF043F3E6020
S11307003E68043F3E603E690FB4FFF7A6FF0FBC8E
S11307109219634140CF89196241634140CF043F3C
S11307203E607E68043F3E60FE680FB4FFF795FFAD
S11307300FBC9219634140CF89196241634140CF94
S11307401E003A607960B86010BDC04670070000B2
S11307504300022A2F0000B540B440CFFFF787FFC3
S1130760043F3E6040BC00F04FF8043700BDC04673
S1130770940700004300052A2F6D6F6400B540B450
S113078040CFFFF774FF043F3E6040BC00F03CF8EC
S113079000BDC046B8070000430003752A2F00B50A
S11307A040B440CFFFF759FF043F3E6040BC00F027
S11307B01CF8043700BDC046DC0700004300067582
S11307C02A2F6D6F640000B540B440CFFFF745FF9A
S11307D0043F3E6040BC00F008F800BDFC07000088
S11307E0430006756D2F6D6F640000B5043F3E60D5
S11307F0002600F01AF840CF043700BD1C080000A2
S11308004300056D2F6D6F6400B5043F3E60F6171D
S113081000F034F840CF043700BDC0467008000033
S113082044000675642F6D6F640030B40023002209
S11308307968B86835003C68402640004941524117
S11308405B41AB4202D804D3A24202D3121BAB4198
S11308500130013EF1D10E0038607B60BA6030BCDB
S1130860704730B400237A68B9680020E2E7C046D4
S1130870E8080000440005642F6D6F6400B5F017AC
S113088019D0FFF7BAFEFFF7F3FDF0170CD0FFF70E
S1130890B4FEFFF7EDFDFFF7C8FFFFF7E9FDFFF733
S11308A0ACFEFFF7E5FD00BDFFF7E2FDFFF7BDFF7E
S11308B0FFF7A3FE00BDFFF7DBFDF0170ED0FFF737
S11308C09CFEFFF7D5FDFFF7B0FFFFF796FEFFF79D
S11308D0CFFDFFF792FEFFF7CBFD00BDFFF7C8FD8C
S11308E0FFF7A3FF00BDC0460009000044000264F6
S11308F02F0000B5FFF7C2FFFFF7CAFD00BDC046D9
S113090048090000440002662A0000B5F0170DD023
S1130910FFF773FEFFF7ACFDF0170DD0FFF76DFE88
S1130920FFF7D0FE40CF01CF386000BDFFF7A0FD38
S1130930F017F5D0FFF761FEFFF7C4FE40CF01CFFB
S11309403860FFF75AFE00BD9409000044000266B7
S11309502F0000B5F0170ED0FFF74FFEFFF788FD0C
S1130960F0170ED0FFF749FEFFF782FDFFF779FF7E
S1130970FFF78EFD00BDFFF77BFDF017F4D0FFF706
S11309803CFEFFF775FDFFF76CFFFFF736FEFFF740
S11309907FFD00BDA809000020000232210006CF1F
S11309A03160726040CF7047BC0900002000023201
S11309B04000043F7068386036687047D009000012
S11309C044000364753C07CF121AB141B641704725
S11309D0E409000044000364753E07CF801A8E4189
S11309E0B6417047FC090000440002643C0007CF94
S11309F0121AB1410DDB00267047C046180A0000E8
S1130A00440002643E0007CF801A8E4101DB0026B9
S1130A1070470026F6437047280A0000620003640A
S1130A20303C0437F61770473C0A00006200036448
S1130A30303D01CF0643013EB6417047580A0000DD
S1130A40440003643C3E07CF50404E400643013E01
S1130A50B641F6437047C046700A00004400026481
S1130A603D0007CF50404E400643013EB64170471B
S1130A70840A0000200003737040043F3E603E007F
S1130A807047C046940A00002000037370213700A9
S1130A9040CF7047A80A0000200003727040043F52
S1130AA03E606E467047C046B80A000020000372DC
S1130AB07021B54640CF7047C80A00006100036446
S1130AC07570043F3E607047D80A000061000464FA
S1130AD0726F700040CF7047F00A00006100043F5D
S1130AE064757000002E01D0043F3E607047C0461C
S1130AF0040B0000620004737761700039683E6083
S1130B000E007047140B00006200036E6970043716
S1130B107047C046280B00006200046F76657200BF
S1130B20043F3E607E687047400B0000620004741E
S1130B3075636B0001CF083F7E6038607047C04624
S1130B40580B0000630003726F7403CF083F786092
S1130B503E600E007047C046700B00006300042D19
S1130B60726F740003CF083F7E60396006007047DF
S1130B70840B00002000047069636B00B0003E58D1
S1130B807047C0469C0B00000000056465707468E3
S1130B90C749C91B043F3E608E107047B80B000064
S1130BA000000672646570746800043F3E606E461F
S1130BB0C049891B8E107047C80B00002000023EFC
S1130BC0720040B440CF7047DC0B0000200002727A
S1130BD03E00043F3E6040BC7047C046F00B00003E
S1130BE0200002724000043F3E60009E7047C046F1
S1130BF0000C00002000057264726F7001B0704731
S1130C00140C0000200005727069636BB6006E441A
S1130C1036687047280C00006A0003616E6401CFD7
S1130C20064070470640C0463C0C00006A00036260
S1130C30696301CFB043060070478643500C00003F
S1130C406A00026F720001CF064370470643C04634
S1130C50640C00006A0003786F7201CF464070474D
S1130C604640C046740C00006100036E6F74F64386
S1130C707047C046940C0000410003636C7A300056
S1130C8006D00026400002D001D20136FAE77047B0
S1130C9020267047A40C0000610003736872760874
S1130CA07047C046B40C000061000373686C7600A2
S1130CB07047C046C40C0000610003726F720120CB
S1130CC0C6417047D80C0000610003726F6C0020AD
S1130CD0B61946417047C046F40C00006C00067219
S1130CE073686966740001CFF040060070473608E7
S1130CF00026C046100D00006C000761727368691D
S1130D00667401CF3041060070473610F617C046AE
S1130D102C0D00006C00066C73686966740001CFCA
S1130D20B0400600704736000026C0463C0D000067
S1130D30610002303D00013EB6417047500D000095
S1130D40610003303C3E013EB641F6437047C04665
S1130D50600D0000610002303C00F6177047C04689
S1130D60780D00006000047472756500043F3E60F5
S1130D700026F6437047C0468C0D000060000566EF
S1130D80616C7365043F3E6000267047A00D00004F
S1130D904200023E3D0001CFB042E9DA002670472E
S1130DA0B40D00004200023C3D0001CFB042DFDD43
S1130DB000267047C80D00004200013C01CFB0423C
S1130DC0D6DB00267047C046DC0D00004200013E21
S1130DD001CFB042CCDC00267047C046F00D0000C5
S1130DE0620003753E3D01CF861BB641F643704752
S1130DF0040E0000620003753C3D01CF361AB64173
S1130E00F6437047180E0000620002753C0001CFE3
S1130E10861BB6417047C0462C0E00006200027566
S1130E203E0001CF361AB6417047C046440E00005A
S1130E306B00023C3E0001CF361A013EB641F64338
S1130E407047C046580E00006B00013D01CF361AB2
S1130E50013EB6417047C0466C0E00006200036D4F
S1130E60696E01CFB04200DC06007047800E0000BE
S1130E706200036D617801CFB04200DB0600704769
S1130E80980E0000620004756D61780001CFB042D5
S1130E9000D306007047C046B80E00006200047517
S1130EA06D696E0001CFB04200D8060070470000A3
S1130EB030F2FF1F30F3FF1FF80E00000000046D36
S1130EC06F76650007B5310040CF320040CF00296E
S1130ED00FD0B2420DD006D3013E013A705C50549B
S1130EE00139FBD105E03078107001360132013947
S1130EF0F9D140CF07BDC0461C0F000000000466B6
S1130F00696C6C00300040CF310040CF002902D022
S1130F1001397054FCD140CF7047C046280F0000FF
S1130F202000014036687047400F00006D00012129
S1130F3003CF30600E007047066070470160704751
S1130F40680F00006D00022B210003CF32681218D5
S1130F5032600E007047026892190260704702689E
S1130F60521802607047C046780F000020000268E3
S1130F70400036887047C046940F00006D00026838
S1130F80210003CF30800E00704706807047018037
S1130F907047C046BC0F00006D0003682B2103CFCF
S1130FA03288121832800E0070470288921902802B
S1130FB070470288521802807047C046CC0F000068
S1130FC020000263400036787047C046E80F0000F6
S1130FD06D000263210003CF30700E00704706706D
S1130FE0704701707047C046101000006D00036325
S1130FF02B2103CF3278121832700E00704702781A
S11310009219027070470278521802707047C046F5
S1131010381000006D0004626973210003CF326848
S1131020024332600E007047026832430260704728
S113103002680A4302607047601000006D00046299
S11310406963210003CF3268824332600E00704727
S11310500268B2430260704702688A4302607047C4
S1131060881000006D0004786F72210003CF32688D
S1131070424032600E00704702687240026070475E
S113108002684A4002607047F01000006800046281
S11310906974400001CF36680640013EB641F6430C
S11310A07047F24A00B5012B0AD1043F3E60002686
S11310B000F074FF043F3E60160001F010FB11E0E5
S11310C002CF013B02F07FFC043F3E60362616430C
S11310D001F005FB043F3E600E00043F3E60002625
S11310E000F05CFF043F3E60E14E01F000F900BDFA
S11310F0181100006D0005686269732103CF3288FE
S1131100024332800E0070470288324302807047E7
S113111002880A4302807047401100006D00056890
S11311206269632103CF3288824332800E007047A4
S11311300288B2430280704702888A430280704763
S1131140681100006D000568786F722103CF328842
S1131150424032800E00704702887240028070471D
S113116002884A40028070478811000068000568C0
S11311706269744001CF36880640013EB641F643A9
S11311807047BC4A8EE7C046B01100006D0005638D
S11311906269732103CF3278024332700E007047C4
S11311A0027832430270704702780A430270704733
S11311B0D81100006D0005636269632103CF3278A2
S11311C0824332700E0070470278B2430270704757
S11311D002788A4302707047001200006D000563B4
S11311E0786F722103CF3278424032700E0070471C
S11311F0027872400270704702784A400270704769
S113120020120000680005636269744001CF3678DB
S11312100640013EB641F6437047974A42E7C0464E
S11312203012000061000563656C6C2B0436704756
S11312304012000061000563656C6C73B600704772
S113124050130000000006666C61736821003000D2
S113125040CF310040CF894B984268D3884B9942A4
S11312602ED0032202402CD102689A4246D1854AEC
S1131270137880221A40FAD030221A4002D0814AD0
S113128030231370804A06231370804A1070000ABA
S11312907F4A1070000A7F4A10707F4A1170090A51
S11312A07E4A1170090A7E4A1170090A7D4A11703A
S11312B0744A80231370734A137880221A40FAD038
S11312C0704700F001FD30416464726573732068F7
S11312D0617320746F20626520342D616C69676EC0
S11312E0656420666F722077726974696E67206620
S11312F06C61736820210A0002F08CFB00F0E4FCAE
S113130029466C617368206C6F636174696F6E2029
S113131063616E6E6F7420626520777269747465A0
S11313206E20747769636520210A02F073FB00F074
S1131330CBFC1943616E6E6F7420777269746520FB
S1131340696E746F20636F726520210A02F062FB7C
S1131350D413000000000E666C61736870616765E9
S11313606572617365000FB5300040CF434B9842FE
S113137020D303239843434A137880221A40FAD097
S113138030221A4002D03F4A302313703E4A0923C8
S113139013703E4A1070000A3D4A1070000A3D4A1C
S11313A01070384A80231370364A137880221A400A
S11313B0FAD00FBD00F088FC1443616E6E6F742088
S11313C0657261736520636F726520210A0002F003
S11313D021FBC0465014000000000A657261736569
S11313E0666C61736800254872B62F492F4A0368FA
S11313F093421CD0043F3E600600043F3E6000F070
S113140063FC10457261736520626C6F636B2061CD
S11314107420200000F0C4FC00F056FC0C2066721E
S11314206F6D20466C6173680A00FFF79CFF0430FF
S11314308842DCD100F048FC1246696E6973686525
S1131440642E20526573657420210A0002F072FB39
S1131450C014000000000E6572617365666C6173F0
S11314606866726F6D00300040CFBDE70068000011
S11314709810000000880000007800000040000080
S1131480FFFFFFFF0000024007000240040002408B
S11314900500024006000240080002400900024024
S11314A00A0002400B00024000000200FFFFFFFFA1
S11314B0464860210022028002300139FBD1704786
S11314C0D015000000000768666C6173682130B5B0
S11314D0320040CF500813D300F0F6FB1E68666C50
S11314E061736821206E65656473206576656E207E
S11314F06164647265737365732E0A0002F08AFA7C
S11315000223534031482021048845882D042C436C
S11315109C422AD006300139F6D12C482021048877
S113152045882D042C431AD006300139F7D100F038
S1131530CBFB27546F6F206D616E7920756E7061DF
S1131540697265642031362D62697420466C61735A
S113155068207772697465732E0A02F05BFA028060
S1131560120C4280868040CF30BD0221114003D04E
S1131570023A8188360401E0818809040E43043F5D
S11315803E6016000021018041808180FFF75FFEEC
S113159030BD0E4860210288002A12D000F094FB6E
S11315A01D556E7061697265642031362D626974EF
S11315B020466C6173682077726974652E0A02F0A4
S11315C029FA02300139E6D17047000030F3FF1FD9
S11315D0E41500006900012B01CF36187047361856
S11315E00036C046F81500006900012D01CF861BA6
S11315F07047361A003EC0460816000061000231EA
S11316002D00013E7047C0461816000061000231EB
S11316102B0001367047C0462816000061000232D4
S11316202D00023E7047C0463816000061000232A9
S11316302B0002367047C0464C1600006100066E4F
S113164065676174650076427047C04660160000A5
S1131650610003616273F017361846407047C04654
S1131660A8160000420005752F6D6F64310040CF4D
S1131670002903D1043F3E60002670470122002365
S11316808E4206D9003104D45200490001D48E425E
S1131690FAD88E4201D3761A134349085208F8D176
S11316A0043F3E601E007047181700004200042FDC
S11316B06D6F640000B5300040CF002E1CDA764216
S11316C000280CDA4042043F3E600600FFF7CEFFDC
S11316D0300040CF7642043F3E60060000BD043F28
S11316E03E600600FFF7C2FF300040CF4042764222
S11316F0043F3E60060000BD002807DA4042043F74
S11317003E600600FFF7B2FF764200BD043F3E6034
S11317100600FFF7ABFF00BD2C1700004200036D6D
S11317206F6400B5FFF7C6FF40CF00BD401700004F
S11317304200012F00B5FFF7BDFF043700BDC046CE
S1131740501700006A00012A01CF46437047464300
S113175060170000610002322A0076007047C0461C
S113176070170000610002322F0076107047C046E7
S1131770841700006100046576656E000120304026
S1131780361870479C17000081000462617365007D
S1131790043F3E60934E70470A000000B4170000F7
S11317A000000662696E617279008E480221016050
S11317B07047C046CC170000000007646563696D7C
S11317C0616C88480A2101607047C04628180000EF
S11317D000000368657883481021016070478249DE
S11317E082480160824983480160834983480160DB
S11317F08349844801608448016000218348017062
S1131800834801708348017083480170062183482E
S113181001700021824801701A21824801700C2154
S11318207A4801707047C046441800008100096876
S11318306F6F6B2D656D6974043F3E607A4E70471F
S11318403A19000060180000810008686F6F6B2D62
S11318506B657900043F3E60744E70476219000066
S11318608018000081000A686F6F6B2D656D6974C4
S11318703F00043F3E606E4E704790190000C04622
S11318809C180000810009686F6F6B2D6B65793FB0
S1131890043F3E60674E7047C2190000BC18000048
S11318A081000A686F6F6B2D706175736500043F6A
S11318B03E60614E7047E23A0000C046D418000012
S11318C0000004656D6974000FB5574800F029F8ED
S11318D00FBDC046E81800000000036B65790FB522
S11318E0524800F01EF80FBDFC180000000005650A
S11318F06D69743F4E4800688746C0461019000061
S11319000000046B65793F004A4800688746C0467A
S11319102819000000000570617573654648006869
S1131920874600688746C0465019000000000B73C4
S1131930657269616C2D656D697400B500F028F8F5
S1131940002E40CFFAD03D48067040CF00BDC046BF
S11319507C19000000000A73657269616C2D6B6567
S1131960790000B500F02DF8002E40CFFAD03348AE
S1131970043F3E600678F6B200BDC046B0190000D0
S113198000000C73657269616C2D656D69743F00AC
S113199000B5FFF7C3FF2A4808210170043F3E60E9
S11319A00026274880220178114000D0F64300BD6C
S11319B0441A000000000B73657269616C2D6B653D
S11319C0793F00B5FFF7AAFF1D4808210170043FC5
S11319D03E6000261A4820220178114000D0F643C8
S11319E000BD0000FC2F0020803F00003880044030
S11319F0300400F0348004400000000404800440FB
S1131A0000020000049004400890044003A0064033
S1131A1002A0064006A0064005A006400AA0064013
S1131A2000A0064001A00640F82F0020F42F00205B
S1131A30F02F0020EC2F0020E82F002007A0064004
S1131A4004A00640681A000000000763657870650A
S1131A50637400B5386801B40130386000F00BF8E5
S1131A6001BC067040CF00BDE01A00000000066112
S1131A7063636570740000B502CF01390022FFF77B
S1131A802EFF300040CF7F2809D0202819D2092802
S1131A9016D00A281FD00D281DD00828EFD1002AFF
S1131AA0EDD000F011F903082008002AE7D0885C83
S1131AB0013A80230340E2D040230340F5D0DEE71F
S1131AC02020B242DBD2043F3E600600FFF7FCFE5A
S1131AD001328854D3E7160000F0A4F800BDC046D4
S1131AE0F41A0000400003746962043F3E602B4E08
S1131AF07047C0460C1B00008100033E696E043F22
S1131B003E60274E704700000000C046341B0000B2
S1131B1082000E63757272656E742D736F757263D5
S1131B206500043F3E601F4E70470000000068F0EF
S1131B30FF1FC046501B0000000009736574736FDB
S1131B4075726365174802CF0660416040CF7047E5
S1131B50701B0000000006736F7572636500043F1C
S1131B603E60104E043F7068386036687047C04667
S1131B70A81B000000000571756572790FB508484F
S1131B8000210160FFF7B1FF043F3E60043F3E6067
S1131B90C826FFF770FFFFF7D5FF0FBD68F0FF1FE2
S1131BA0E42F0020DC2F0020F01B0000000007635E
S1131BB06F6D706172650FB5310040CF01CF8842FF
S1131BC002CF10D1002810D001380A5C335C412ABE
S1131BD002D35B2A00D22032412B02D35B2B00D2EA
S1131BE020339A42EED000260FBD0026F6430FBDE7
S1131BF0041C000000000263720000B500F064F8E9
S1131C00010A00BD181C0000000002626C00043FC1
S1131C103E6020267047C0462C1C0000000005735F
S1131C2070616365043F3E6020264DE64C1C000055
S1131C300000067370616365730000B5002E03DD58
S1131C40FFF7F0FF013EFBD140CF00BD5C1C00005C
S1131C505000065B636861725D0005E0741C00005F
S1131C60000004636861720000B501F05DFB40CFC1
S1131C70367800BD841C000050000128043F3E60FB
S1131C80292606E0A01C00005000015C043F3E60D1
S1131C90002600B501F052FB043740CF00BDC0461A
S1131CA0E81C00003000022E2200AB4800B5043FBF
S1131CB03E60060000F014FA043F3E60222601F064
S1131CC03DFB00F046FD00BD0AB4043F3E6076468D
S1131CD0013E33780121013319405B187146C9185C
S1131CE08E460ABC3CE0C046101D00003000026372
S1131CF022009A48DAE7043F3E607646013E337894
S1131D000121013319405B187146C9188E4670478A
S1131D103C1D00003000027322009148C6E7043FD6
S1131D203E607646043F3E60013E36780121731CD6
S1131D3019405B187146C9188E467047541D00003F
S1131D40000005636F756E740136043F3E60013E0A
S1131D50367870476C1D0000000005637479706567
S1131D6000B5FFF7F1FF00F007F800BD941D000077
S1131D70000004747970650001B501CF002E07D00E
S1131D80043F3E600678FFF79FFD0130013EF7D126
S1131D9040CF01BDD01D00000000046865782E000E
S1131DA007B5310040CF20200F220438043F3E60A5
S1131DB00E00C6401640092E01D9373600E03036F1
S1131DC0FFF782FD0028F0D1FFF72CFF07BDC046C6
S1131DD0E01D0000000003682E731FB5614C0EE087
S1131DE0F01D0000000003752E731FB55E4C06E065
S1131DF0941E00000000022E73001FB55B4C5C496A
S1131E00C91B8908220A2020292F200A2028273EBE
S1131E10200A202F43432020203335204343430A04
S1131E20385C29295F200A0A524A106803B40A2040
S1131E301060FFF749FF08537461636B3A205B003D
S1131E40043F3E600E0001F063FCFFF73DFF025DBE
S1131E50200003BC2736474A106000290AD0464AAE
S1131E60106806B4043F3E600600A04706BC043A6E
S1131E700139F5D1FFF728FF0620544F533A2000CB
S1131E80043F3E603600A047FFF71EFF04202A3EB1
S1131E900A001FBD341F0000000005776F726473D1
S1131EA000B5FFF711FF010A00F0ADFEFFF70CFFCC
S1131EB009416464726573733A20043F3E60FFF71E
S1131EC06FFFFFF701FF064C696E6B3A2000043F79
S1131ED03E603668FFF764FFFFF7F6FE07466C6165
S1131EE067733A20043F3E60B688FFF759FFFFF757
S1131EF0EBFE06436F64653A2000B01D00F0BEFEA1
S1131F00043F3E600600FFF74BFFFFF7DDFE064E81
S1131F10616D653A2000043F3E600636FFF720FFFE
S1131F20FFF7D2FE010A00F086FE300040CFBDD09C
S1131F3040CF00BD841F0000000006756E757365F8
S1131F40640000B500F046FF0C4801680B4A91425A
S1131F5000D20B4E761A00BDC81C0000F61C00000F
S1131F601E1D0000A11D0000FF36000011370000F7
S1131F7030F2FF1FFC2F00202CF2FF1F00F0FF1F88
S1131F8000000200D420000000001072656769732D
S1131F907465726C69746572616C2C003FB5A64BF4
S1131FA03868184098420FD13868C043386040B44C
S1131FB000F00DF8043F3E60A04E01BC0643C00093
S1131FC0064300F08CFB3FBD00F001F83FBD00B5B7
S1131FD0350040CF2900C90029432D029848054304
S1131FE0FF2300223000D040984301D00132F9E7AA
S1131FF03000D04018402843043F3E60060000F003
S11320006EFB9048054318009040864310D000248E
S11320103000E040984301D00134F9E7101B043F3D
S11320203E600E008001064300F059FB2200DFE70A
S1132030002A06D0043F3E600E009201164300F0D1
S11320404EFB40CF00BD1FB5310040CF7E4C0C434A
S1132050C9000C434901300040CF020EFF231A404F
S1132060774B0B431343043F3E601E0000F037FBE5
S1132070043F3E60260000F032FB020CFF231A40AE
S1132080724B0B431343043F3E601E0000F027FBDA
S1132090043F3E60260000F022FB020AFF231A40A0
S11320A06A4B0B431343043F3E601E0000F017FBD2
S11320B0043F3E60260000F012FB0200FF231A409A
S11320C0624B0B431343043F3E601E0000F007FBCA
S11320D01FBDC0464421000000000563616C6C2CE8
S11320E00FB5330000F066FE300040CF1B1A043BEE
S11320F05749194000290ED0564A91420BD0013657
S1132100043F3E600026FFF749FF043F3E60524E05
S113211000F0E5FA0FBD40CF5B0850485049194024
S11321200843DB0A4F491940090408439B0A01216B
S1132130194089060843043F3E60060000F0F9FA9E
S11321400FBDC046782100000000086C69746572F8
S1132150616C2C0000B5043F3E60434E00F0BFFAB2
S1132160043F3E60414E00F0BAFA043F3E6006264A
S1132170FFF714FF00BDC046A02100000000066365
S113218072656174650000B500F03DF8212000021D
S1132190BF308047043F3E607646013E00BDC046E6
S11321A0F8210000200005646F65733E21200002C1
S11321B0BF308047043F3E607646013E7047043F8F
S11321C03E607646013E2A4A13682A49096802207D
S11321D0084000D10231023111600136043F3E60F3
S11321E00026FFF730FF043F3E601B4E00F077FAF5
S11321F0136000F0E6F900BD7C2200000000073CFB
S11322006275696C647300B500F086FB00F0D2FD62
S11322100220064040CF04D1043F3E60362600F041
S11322205EFA043F3E60144E00F059FA043F3E60EB
S1132230102600F0C1FA00BD0000FFFFC0430000FB
S11322400020000000100000000200000030000028
S11322500100C0FF0000C0FF8047000000F800F04C
S1132260FF070000FF030000043F00003E60000081
S113227000F0FF1F14F0FF1F00B5000088220000CB
S11322805000035B275D03E0A0220000000001274B
S113229000B501F049F800F030FD300040CF00BD3A
S11322A0E0220000300008706F7374706F6E650078
S11322B000B5FFF7EDFF102101400DD120210140B1
S11322C005D0FFF747FF043F3E60E34E04E0FFF70D
S11322D041FF043F3E60E14EFFF702FF00BDC046F0
S11322E02C230000000007696E6C696E652C00B534
S11322F0DB49DC4ADC4B3088884208D0904208D065
S1132300984206D0043F3E60060000F0E8F9023629
S1132310F1E740CF00BD0EB4D24AD34B018802305E
S1132320914201D09942F9D10EBC7047402300007C
S11323300000047265742C00043F3E60C94ECEE177
S1132340502300003000046578697400F4E7C04647
S11323506823000030000772656375727365043F7B
S11323603E60C24E3668BBE68023000081000573E0
S113237074617465043F3E60BD4E70470000000008
S1132380942300000000015DB9480021C9430160A5
S11323907047C046A42300001000015BB44800212C
S11323A001607047CC2300000000013A00B5B14839
S11323B0076000F0B1FA043F3E60A94E00F08FF9C7
S11323C0AB480021C943016000BDC0462024000081
S11323D03000013B00B5A7480168B94214D0A649B2
S11323E08E4202D1A54EFFF7BBFCFFF76DFC152012
S11323F0537461636B206E6F742062616C616E63F1
S113240065642E0A01F006FB043F3E60954E00F021
S113241066F900F0D6F896480021016000BDC04678
S11324203424000000000765786563757465300026
S113243040CF87464C240000100009696D6D656427
S113244069617465043F3E601026EBE0642400007B
S1132450500006696E6C696E6500043F3E6020267C
S1132460E0E0C0468024000010000B636F6D7069CB
S11324706C656F6E6C79043F3E603026D2E0C046D6
S11324809C24000050000A302D666F6C6461626CFD
S11324906500043F3E604026C4E0C046B824000006
S11324A050000A312D666F6C6461626C6500043FF4
S11324B03E604126B6E0C046D424000050000A32F3
S11324C02D666F6C6461626C6500043F3E60422659
S11324D0A8E0C046F024000050000A332D666F6C5B
S11324E06461626C6500043F3E6043269AE0C04626
S11324F00C25000050000A342D666F6C6461626C18
S11325006500043F3E6044268CE0C0462825000058
S113251050000A352D666F6C6461626C6500043F7F
S11325203E6045267EE0C0464425000050000A3641
S11325302D666F6C6461626C6500043F3E604626E4
S113254070E0C0466025000050000A372D666F6CAD
S11325506461626C6500043F3E60472662E0C046E9
S113256090250000000008636F6E7374616E740040
S113257000B500F0D1F9FFF7EDFD043F3E603A4E9F
S113258000F0ADF8FFF785FF00F01BF800BDC04672
S1132590B425000000000932636F6E7374616E74B9
S11325A000B500F0B9F939683E600E46FFF7D2FD78
S11325B0E1E7C04614260000000006736D756467E9
S11325C0650000B52E4801682D4A91421CD202399B
S11325D00A882C4B9A4204D1043F3E602A4E00F0F4
S11325E07EF800F06BF829480068043F3E6006005E
S11325F0274909680431224A1368116000F06FF812
S11326001360FEF7C6FF00BD00F058F8043F3E60BB
S11326101D4E08E094260000000008736574666C83
S11326206167730000B516480168154A914205D2E6
S1132630164801683143016040CF00BD320040CFED
S113264013480068043001880E4B994201D11100EF
S113265000E01143018000BDEE220000E0200000F4
S113266000B5000000BD00007047000014F0FF1F1B
S1132670D82F002010F0FF1F85191204041E00003B
S113268000F0FF1FFFFF00000000000020F0FF1F0C
S113269004F0FF1FB0260000410007616C69676EFB
S11326A065640120304036180220304036187047E7
S11326B0D4260000000005616C69676E00B5894886
S11326C001680220014004D0043F3E60864E00F0C1
S11326D006F800BD0C270000000002682C000FB5AE
S11326E0B6B2804801687F4A914205D2043F3E60F9
S11326F00E00FEF7ECFE02E0320040CF0A80043FF9
S11327003E60022600F058F80FBDC046282700009E
S11327100000012C00B5043F3E60FFF7E0FF360CDB
S1132720FFF7DDFF00BDC046442700000000033E64
S11327303C2C00B5043F3E60360CFFF7D0FFFFF79A
S1132740CEFF00BDAC270000000007737472696EF1
S1132750672C07B5FF21314040CF300040CF00291E
S113276005D1043F3E600026FFF7B9FF07BD043FD3
S11327703E60067836020E43FFF7B1FF013001399F
S113278002290AD3043F3E60467836020278164393
S1132790FFF7A5FF02300239F2E7002900D107BD97
S11327A0043F3E600678FFF79AFF07BD0828000043
S11327B0000005616C6C6F744A480168494A914293
S11327C00FD2320040CF8918484A914219D3FFF7FB
S11327D07BFA0B466C6173682066756C6C0A01F0B9
S11327E019F9320040CF8918414A1268914208D33E
S11327F0FFF76AFA0952616D2066756C6C0A01F084
S113280009F901607047C0462C28000000000966E1
S11328106F7267657472616D00B500F025F8314818
S11328203449016034483549016000BD5428000032
S113283000000D636F6D70696C65746F72616D3F3C
S1132840043F3E600026274800682649884248D352
S1132850F64370477428000000000C636F6D7069C4
S11328606C65746F72616D001E4800681D49884272
S113287011D370470829000000000E636F6D706962
S11328806C65746F666C617368001648006815495E
S1132890884200D270471848194902680B680A60D8
S11328A003601048174902680B680A600360104807
S11328B00068834215D300B5FFF706FA232056615A
S11328C0726961626C657320636F6C6C6964652006
S11328D0776974682064696374696F6E6172790AD8
S11328E000BD704700F0FF1F000000000000020060
S11328F024F0FF1FF0F3FF1F04F0FF1F100400007B
S11329001CF0FF1F18F0FF1FF82900000000082822
S1132910637265617465290000B500F005FD002E41
S11329200ED1FFF7D1F91520437265617465206EED
S113293065656473206E616D6520210A01F06AF893
S11329403868043F3E60043F386000F0A7F940CF88
S1132950002E40CF11D03868043F3E60043F3860F9
S1132960FFF7B2F9095265646566696E6520FFF781
S113297003FAFFF7A9F9022E2000FFF79FFE8F4804
S113298000688E4988421ED28D488E49016000F04D
S113299011FA043F3E600626FFF70EFFFEF7E2F849
S11329A0FFF7D7FE884801680A68884B9A4207D126
S11329B0824A13681160043F3E60FFF7ABFE136068
S11329C0066040CF12E000F0F5F97F48043F3E6016
S11329D00668FFF79FFE043F3E607D4EFFF77FFED3
S11329E07948310040CF0160FFF7B3FE73480168B6
S11329F07848016000BDC046102A00000000087637
S1132A0061726961626C6500043F3E60012613E0F7
S1132A10282A0000000009327661726961626C65DF
S1132A20043F3E60022607E0002B00000000096E10
S1132A307661726961626C6500B5FFF76DFF5F488E
S1132A4001685E4A914233D20F200640B2006248C8
S1132A500168891A614A91420BD2FFF735F90F4E8A
S1132A606F7420656E6F7567682052414D0A00F0DF
S1132A70D1FF0160043F3E600E00FFF76BFB043F93
S1132A803E60574EFFF72BFE300040CF0200002877
S1132A9005D00E600431FFF73DFE0138F9D1043F43
S1132AA03E6080261643FFF7BDFDFFF78AFD00BD9B
S1132AB000F080F90220064040CF04D1043F3E607C
S1132AC03626FFF70CFE043F3E60464EFFF731FE0C
S1132AD0043F3E60444EFFF72CFE043F3E60404EF0
S1132AE0FFF7FDFD300040CF002803D0FFF712FEB2
S1132AF00138FBD1FFF7CDFCFFF763FD00BDC046F5
S1132B00F02B00000000076275666665723A00B536
S1132B10FFF702FF012030403618022030403618FB
S1132B2026480168254A914226D22B480168891B10
S1132B302A4A91420BD2FFF7C7F80F4E6F742065F3
S1132B406E6F7567682052414D0A00F063FF0160A3
S1132B50043F3E600E00FFF7FDFA043F3E60204E46
S1132B60FFF7BDFDFFF7D6FD043F3E601F4EFFF7A4
S1132B7059FDFFF726FD00BD00F01CF902200640B8
S1132B8040CF04D1043F3E603626FFF7A8FD043F42
S1132B903E60144EFFF7CDFD043F3E60124EFFF73A
S1132BA0C8FD043F3E600E4EFFF799FDFFF704FE9B
S1132BB0FFF76FFCFFF705FD00BD000000F0FF1FED
S1132BC020F0FF1F0000000004F0FF1FFFFFFFFFC5
S1132BD0FFFF000014F0FF1F24F0FF1FF0F3FF1F9E
S1132BE0704700003E60043F02367E46400100000C
S1132BF0202C000000000F64696374696F6E6172B9
S1132C00797374617274EB480068EA49043F3E606A
S1132C10884201D2E84E7047E84E36687047C04695
S1132C205C2C000000000E64696374696F6E61724D
S1132C30796E6578740003B53168E148814207D044
S1132C408879FF2804D00E00043F3E60002603BDAF
S1132C50043F3E600026F64303BDC046902C0000AE
S1132C6000000A736B6970737472696E670031785F
S1132C70013101220A4089187618704706B4017898
S1132C80013101220A408918401806BC7047C04629
S1132C90142D000000000466696E640030B5002243
S1132CA00023350040CF340040CFFFF7ACFFC548C8
S1132CB0B188884217D0043F3E600636FFF744F8D7
S1132CC0043F3E602600043F3E602E00FEF773FF83
S1132CD0002E40CF07D0B01DFFF7D0FF02000B003D
S1132CE0B448824204D2FFF7A6FF300040CFDED0C2
S1132CF01600043F3E601E0030BD00B53100386848
S1132D0003B4FFF7CBFF03BC3A68002A01D100F0FB
S1132D1073FD00BD702D0000000006636A756D70C0
S1132D202C00320040CF310040CF8B1B043BA6491E
S1132D30194000290DD0A54881420AD0FEF7C4FFEE
S1132D400D4A756D7020746F6F206661720A00F011
S1132D5061FE5B10FF210B40134330001E0000B5E1
S1132D60944A13681060FFF7BAFC136000BDC046B4
S1132D70A82D00000000056A756D702C310040CF4D
S1132D80300040CF0B1A043B91491940002902D06E
S1132D90904A9142D2D15B108F4A13408F4A134319
S1132DA0043F3E601E00DAE7C02D00000000046806
S1132DB065726500043F3E607E4E36687047C046CB
S1132DC0B02E000000000D666C6173687661722D90
S1132DD068657265043F3E60814E3668704700B591
S1132DE0043F3E607F4EFFF77AFC043F3E607E4E18
S1132DF0FFF775FC00BDDDE700B500F037F8396872
S1132E003E600E46043F3E60784EFFF78AFF00BDE9
S1132E1000B500F02BF839683E600E46043F3E6072
S1132E20734EFFF77EFF00BD00B5FFF7D8FF00F03B
S1132E301DF839683E600E46043F3E606D4EFFF754
S1132E4070FF00BD00B500F011F839683E600E4611
S1132E50FFF794FF00BD00B5FFF7C1FFFFF7AAFF1E
S1132E60043F3E600226FFF7A7FC00BD00B5FFF754
S1132E70A1FF043F3E600226FFF79EFC00BD00B5A3
S1132E80FFF798FFFFF77AFF00BD00B5FFF792FF49
S1132E90043F3E60574EFFF744FF00BD00B5FFF707
S1132EA089FF043F3E60514EFFF73BFF00BDC04623
S1132EB0EC2E00003000047468656E00052E01D10C
S1132EC040CFDCE7022E01D140CFDEE7FEF7FCFE67
S1132ED0175374727563747572657320646F6E270B
S1132EE074206D617463680A00F094FD082F00007B
S1132EF0300004656C73650000B500F017F8FDF749
S1132F00B7FAFFF7DBFF00BD202F00003000026995
S1132F10660000B5FFF79FFF043F3E60022600BD38
S1132F203C2F0000300005616865616400B5FFF75F
S1132F309DFF043F3E60052600BDC046582F00009B
S1132F403000067265706561740000B500F020F809
S1132F50FFF7B4FF00BDC046702F000030000577B6
S1132F6068696C6500B5FFF7D4FFFDF781FA00BD11
S1132F70842F0000300005756E74696C012EA5D194
S1132F8040CF51E7982F0000300005616761696EFA
S1132F90012E9BD140CF55E7F82F00003000056289
S1132FA06567696E00B5FFF726FF043F3E600126A2
S1132FB000BD000000F0FF1F1004000004F0FF1F1C
S1132FC0FFFFFFFFFFFF000001FFFFFF00FFFFFF08
S1132FD001F8FFFF00F8FFFFFF07000000E000001A
S1132FE024F0FF1F002E000040CF000000D100009D
S1132FF000D7000000D00000083000002000016B62
S1133000043F3E60029E7047183000002000016AB1
S1133010043F3E60009E7047283000002000016994
S1133020043F3E6026007047683000003000056CA5
S11330306561766500B5D24801683B00043F1A68B3
S1133040043B1A6008338B42F9D103B4FFF70EFF37
S113305003BC330040CF04390B60016004390A68B3
S113306001320A6000BDC0467C30000020000675B5
S11330706E6C6F6F700030BC7047C046B430000097
S11330803000052B6C6F6F70032E00D01EE740CF0D
S113309000B5043F3E60BB4EFFF729F9FFF7B8FEC9
S11330A01AE0802000060019A419401B801940CFA3
S11330B07047C046F83000003000046C6F6F700039
S11330C0032E00D002E740CF00B5043F3E60AE4E71
S11330D0FFF70DF9FFF790FE00F00CF9A848310056
S11330E040CF0160043F3E60A84EFFF700F900BDE9
S11330F00134AC427047C04640310000780002649D
S11331006F0000B5043F3E60A14EFFF7F0F89C4805
S11331100168043F3E600E00043F3E6000260760E5
S1133120FFF769FE043F3E60032600BD00B500F0D2
S11331302EF8ECE730B4340040CF350040CF704770
S1133140D43100007800033F646F00B5043F3E6053
S11331508F4EFFF7CCF8043F3E608E4EFFF7BFFA68
S113316087480168043F3E600E00FFF77FFE01368A
S1133170043F3E60012682480760FFF73CFE043F9F
S11331803E60032600BD00B500F001F8E3E700B59A
S1133190043F3E60804EFFF7A2FA043F3E600426DF
S11331A0FEF7FCFE013B08D0043F3E600526FEF717
S11331B0F5FE013B00F007FC00BD043F3E603526F0
S11331C0FFF78DFA043F3E60744EFFF788FA00F073
S11331D0FAFB00BDF0310000300004636173650048
S11331E0043F3E600026043F3E6008267047C04608
S11331F0083200003000033F6F6669480AE0013E70
S1133200B64140CF7047C046943200007800026F48
S113321066006448082E00D058E640CF00B5043F4D
S11332203E600600FFF763F8FFF720FE39683E6052
S11332300E460136043F3E600926043F3E60574E69
S1133240FFF74DFA00BD00B5300040CF013B01B49B
S113325000F0B9FB01BC082E00D037E640CF043F94
S11332603E600600FF213140B14204D14E490E4375
S1133270FFF735FAD8E7043F3E600026FEF78EFEDE
S1133280043F3E60494EFFF72AFACDE7300040CFB5
S1133290B0427047CC320000300005656E646F6642
S11332A0092E00D012E640CF00B540B440CFFFF75E
S11332B0DDFD39683E600E46FFF7F0FD043F3E60D9
S11332C040BC043F3E60082600BDC0461C330000DD
S11332D0300007656E6463617365082E00D0F5E500
S11332E040CF00B5043F3E602C4EFFF7F8F900F0E4
S11332F001F800BD00B5300040CF00280DD003B464
S113330001213140002903D0013EFFF7BEFD01E059
S1133310FFF7B5FD03BC0138EFE700BD3033000013
S1133320000005746F6B656E043F3E60202605E067
S1133330B8330000000005706172736510B51C4855
S1133340016840681B4A12688418202E07D19142F4
S11333500FD0835CB34202D101328418F7E7914263
S113336007D0835C0132B342F9D18618361B013E83
S113337001E08618361B043F3C600E48026010BD15
S11333800CF0FF1FA2300000F03000007630000087
S113339034310000AC42000030B4000040CF0000E3
S11333A0FE3100008C320000002E0000B04200000C
S11333B0DC2F0020E42F0020F83300000000056417
S11333C069676974D44B1B68303E0BD30A2E0BD348
S11333D0073E0A2E06D3242E06D3203E0A2E01D3FE
S11333E0242E01D3002670479E42FBD2043F3E6048
S11333F00026F6437047C046043500000000066E00
S1133400756D626572003FB5310040CF701E0126B4
S1133410012204B4C04B1B680024002500293CD0C1
S11334200130013902782D2A04D101B00022D2439F
S113343004B4F3E7232A01D10A23EFE7242A01D1B4
S11334401023EBE7252A01D10223E7E72E2A01D135
S11334500226E3E72C2A36D0043F3E601600FFF72D
S1133460B3FF002E40CF2BD0043F3E602600043F24
S11334703E602E00043F3E601E00043F3E60002676
S11334800FB4FDF7FEF80FBC350040CF340040CF39
S11334900022A419554140CFC0E704BC002A04D53A
S11334A00022E443ED430134554133002600012B4F
S11334B002D0043F3E602E00043F3E601E003FBD2C
S11334C001B000263FBD2500002402260029E4D0D7
S11334D0425C01392E2AF9D0043F3E601600FFF702
S11334E073FF002E40CFEBD0043F3C60043F3E60AE
S11334F01E000FB4FDF779F90FBC340040CF40CF64
S1133500E4E7C046283500000000062E64696769B8
S113351074000A2E01D230367047242E01D2373679
S1133520704723267047C0466035000000000468D9
S11335306F6C6400330040CF784801783F290DD286
S1133540013101704018012907D001380278013097
S11335500270013801390129F7D103707047C04660
S113356080350000000005686F6C643C330040CF78
S11335706A4801783F2902D20131017043547047EF
S1133580983500000000047369676E00002E01D4B2
S113359040CF70472D26CDE7AC3500000000022354
S11335A03E005E480678013038607047C43500003C
S11335B000000366235310B5202400F008F8013CF2
S11335C0FBD110BDE835000000000266230000B501
S11335D0043F3E60504E3668FDF73FF8FFF799FF11
S11335E0FFF7C4FF00BDC0460436000000000223FC
S11335F0530000B500F00AF8002EFBD1386800280B
S1133600F8D100BD303600000000012300B5043FAE
S11336103E60414E3668043F3E600026FDF705F9E2
S1133620FCF726FF40CFFFF774FFFFF783FF00BDD1
S1133630443600000000023C230038480021017099
S11336407047C04658360000000002662E00043F52
S11336503E60202605E0C046A83600000000036650
S11336602E6E00B510B4340040CFFDF763FAFCF7BA
S1133670B9FF043F3E600026FFF7DFFFFFF7B9FF05
S113368040CF2C26FFF772FF002C03D0FFF79FFFDB
S1133690013CFBD110BC40CFFFF778FF043F3E60F4
S11336A0043F3E601EE0C046C036000000000375C3
S11336B0642E00B5FFF7C1FFFFF79BFF12E0C04681
S11336C0F4360000000002642E0000B5FDF732FA63
S11336D0FCF788FFFFF7B1FFFFF78BFFFDF735FA23
S11336E0FFF754FFFFF75DFFFEF746FBFEF79AFA7C
S11336F000BDC04608370000000002752E00043FDC
S11337003E600026D5E7C046203700000000012EA9
S1133710043F3E60F617D8E7FC2F002028F0FF1F77
S1133720683700000000086576616C756174650097
S113373000B5FEF714FA01CF01B440B440CFC54838
S1133740016802B400210160FEF7FCF900F014F8EE
S1133750C04802BC0160043F3E6040BC01BC043F61
S11337603860FEF7EFF900BDEC390000000009698C
S11337706E7465727072657430B5B74887420BD940
S1133780FEF7A2FA10537461636B20756E64657260
S1133790666C6F770A003DE1B04887420AD2FEF7B3
S11337A093FA0F537461636B206F766572666C6F66
S11337B0770A2FE1AA4C2568002D01D13D00256030
S11337C0FFF7B2FD002E02D1043740CF30BD386878
S11337D0043F3E60043F3860FFF760FA310040CF99
S11337E0320040CF002A19D138683100FFF70BFEB0
S11337F0320040CF002AC0D1043F3E600600043F9F
S11338003E600E00FEF7B8FAFEF75EFA0C206E6F0B
S11338107420666F756E642E0A00FBE0914B1B6882
S1133820002B1DD10025256030230B40302B0ED1F9
S1133830FEF7A2FAFEF748FA1220697320636F6D4F
S113384070696C652D6F6E6C792E0A00E2E00437A6
S113385040CF043F3E601600FEF7E9FDFFF78DFF01
S1133860043740CF802008400ED1EB1B9B0840203A
S113387008400FD00820084002D0002B00D01DE0E3
S11338800F200840834205D3043F3E601600FEF734
S1133890CEFD72E700F097F8043F3E601600102258
S11338A00A4002D0FEF7C3FD67E720220A4002D097
S11338B0FEF71DFD61E7FEF713FC5EE707200140FC
S11338C01000FEF728FD012915D1012BDCD1FF21C1
S11338D03140B14204D140880643FEF700FF4CE773
S11338E0043F3E600026FEF759FB043F3E60068815
S11338F0FEF7F5FE41E7022902D1012BC4D1EFE71F
S113390003291CD1012BBFD1FF213140B1420AD17F
S113391055490E43FEF7E3FE0432043F3E601600B1
S1133920FEF7E5FC29E7043F3E600026FEF736FB80
S11339300232043F3E601600FEF7D9FC1DE704295D
S113394018D1012BA0D1330040CF002B00D114E7B4
S11339501F221A409A4205D0043F3E604688FEF773
S1133960BEFE0AE7043F3E6006889B011E43FEF745
S1133970B6FE02E7052923D1012B0FD1043F3E6097
S11339800026FEF70BFB043F3E600600FEF7AFFC8B
S1133990043F3E60354EFEF7A2FEEEE6043F3E6075
S11339A00026FEF7FBFA043F3E600126FEF7F6FA16
S11339B0FEF7B1FC043F3E600600FEF798FCDCE62F
S11339C001308047D9E600B5002B0BD0013B043F02
S11339D03E609E00BE59FEF7BDFB002BF6D1043DB0
S11339E02F0040CF0025256000BDC046083A0000E6
S11339F0810009686F6F6B2D71756974043F3E60B7
S1133A001B4E7047403A0000843A000000000471E5
S1133A1075697400174885460F4FFDF749FD164830
S1133A200A2101600F48002101600D480160094826
S1133A30016012480160124941600D4800688746E0
S1133A40FEF79CF8FFF798FEFEF73EF905206F6B32
S1133A502E0AF5E7E42F002030F2FF1F30F1FF1F9C
S1133A6008F0FF1FD82F0020003E000040CF0000C8
S1133A70D42F002030F3FF1FFC2F0020DC2F002068
S1133A8068F0FF1FA03A000000000565696E743FEE
S1133A90043F3E60EFF31086013EB6417047C046D6
S1133AA0B03A000020000465696E740062B6704785
S1133AB0C03A000020000464696E740072B6704756
S1133AC0D83A00002000046970737200043F3E601D
S1133AD0EFF305867047C046E43A00000000036E29
S1133AE06F707047283B0000000009756E68616EB6
S1133AF0646C656400B5FEF7E7F814556E68616E92
S1133B00646C656420496E7465727275707420000B
S1133B10043F3E60EFF30586FEF742F9FEF7D4F862
S1133B2002210A0000BDC0463C3B000000000572B3
S1133B3065736574964897490160C046603B000010
S1133B4081000B6972712D7379737469636B043F1F
S1133B503E60914E7047F43A00008F4800688746F3
S1133B60843B00008100096972712D6661756C7473
S1133B70043F3E60894E7047F43A0000874800686D
S1133B808746C046AC3B000081000E6972712D630C
S1133B906F6C6C656374696F6E00043F3E60804EA9
S1133BA07047F43A00007E4800688746CC3B00002A
S1133BB08100076972712D616463043F3E60794E30
S1133BC07047F43A0000774800688746EC3B0000F1
S1133BD08100076972712D636D70043F3E60724EFF
S1133BE07047F43A00007048006887460C3C0000B7
S1133BF08100076972712D646163043F3E606B4EFE
S1133C007047F43A0000694800688746303C000079
S1133C108100096972712D706F727461043F3E6096
S1133C20634E7047F43A0000614800688746C04616
S1133C30543C00008100096972712D706F727464C4
S1133C40043F3E605B4E7047F43A000059480068F8
S1133C508746C04600400000FFFF182D2D2D20464A
S1133C606C6173682044696374696F6E6172792052
S1133C702D2D2D00002150480160FDF7B0FD4F4867
S1133C8085464F4F2A264F484F4901604F485049B7
S1133C900160043F3E604E4E4E4DB1884E4B9942FA
S1133CA024D04E4B0B400AD0B01DFEF7E7FFFEF7C1
S1133CB032FB0388408800040343ED1A16E0802396
S1133CC00B4013D00F23194089006D1AB01DFEF765
S1133CD0D5FFFEF720FB043F3E600600043F3E6034
S1133CE02E00043F3E600E00FDF7ECF8FEF7A3FF44
S1133CF0300040CFD1D03A48066040CF3948056003
S1133D0039483A49344A884204D0023803889342F5
S1133D10F9D0023036490860FDF7CAFBFDF7D4FF3D
S1133D20434D6563726973702D5374656C6C617275
S1133D30697320322E352E332077697468204D3014
S1133D4020636F726520666F72204B4C32355A3196
S1133D503238206279204D61747468696173204B34
S1133D606F63680A234800210160043F3E60224ECD
S1133D70043F3E600426FEF791FF40CF002E02D0A0
S1133D80FEF755FB59E640CF44E6696E69740000BE
S1133D900CED00E00400FA05D02F0020CC2F002009
S1133DA0C82F0020C42F0020C02F0020BC2F0020CB
S1133DB0B82F0020B42F00200081044030F3FF1FEF
S1133DC030F2FF1F00F0FF1FF0F3FF1F04F0FF1F8E
S1133DD01004000000300020FFFF0000000100007C
S1133DE01CF0FF1F24F0FF1F000002000040000031
S10F3DF018F0FF1F08F0FF1F8A3D0000C0
S9030000FC
