:020000040800F2
:100000002C030020DF390000CB370000CB37000085
:10001000CB370000CB370000CB37000000000000DA
:100020000000000000000000000000002338000075
:10003000F9370000000000004D380000A337000031
:10004000F9370000F9370000F9370000F9370000F0
:10005000F9370000F9370000753800009D380000BE
:10006000C5380000ED38000015390000F9370000F0
:10007000F9370000F9370000F9370000F9370000C0
:10008000F9370000F93700003B390000F93700006C
:10009000F9370000F9370000F9370000F9370000A0
:1000A000F9370000F9370000F9370000F937000090
:1000B000633900008B390000B3390000F9370000C4
:1000C000F9370000F9370000F9370000F937000070
:1000D000F9370000F9370000F9370000F937000060
:1000E000F9370000F9370000F9370000F937000050
:1000F000F9370000F9370000F9370000F937000040
:10010000F9370000F9370000F9370000F93700002F
:10011000F9370000F9370000F9370000F93700001F
:10012000F9370000F9370000F9370000F93700000F
:10013000F9370000F9370000F9370000F9370000FF
:10014000F9370000F9370000F9370000F9370000EF
:10015000F9370000F9370000F9370000F9370000DF
:10016000F9370000F9370000F9370000F9370000CF
:10017000F9370000F9370000F9370000F9370000BF
:10018000F9370000F9370000AE010000FFFF1F2D16
:100190002D2D204D6563726973702D5374656C6CE1
:1001A0006172697320332E302E30202D2D2DC20127
:1001B00000004200043264757000386827E941008D
:1001C0007047D40100006200053264726F7004371A
:1001D00040CF7047EE010000440005327377617034
:1001E00007CF0C3F3A607E60B8600E007047000297
:1001F0000000620004326E69700003CF38607047FF
:1002000016020000440005326F766572B86827E96F
:100210004100FE6870472E020000440005327475EC
:10022000636B07CF47F8040D27E94700704750027A
:10023000000046000432726F74003868B9683A6989
:10024000B86039613A6079687E60FE68F96070472D
:1002500072020000460005322D726F743868B9686A
:100260003A6938613960BA60F968FE607E68796021
:10027000704786020000200003323E7201CF01B4B5
:1002800040B440CF70479C02000020000332723E11
:10029000083F7E6040BC01BC38607047B20200007D
:1002A000200003327240083F7E60019E3E60009E47
:1002B0007047C4020000200006327264726F700042
:1002C00002B07047DC02000042000364322F38683D
:1002D000F10776104008084338607047F0020000CC
:1002E00062000364322A386800187641386070472B
:1002F0000A03000042000464736872003868F10762
:100300007608400808433860704720030000620008
:10031000046473686C003868001876413860704770
:10032000320300004200046461627300002E07D4AF
:10033000704750030000420007646E656761746592
:1003400038680021C043F64301304E4138607047A1
:1003500068030000640002642D0007CF121AB14147
:100360000E00043F3A6070477E03000064000264A0
:100370002B0007CF12184E41043F3A60704790039C
:100380000000610003733E6447F8046DF617704780
:10039000A4030000620003756D2A3868A0FB0606FE
:1003A00038607047B80300006200026D2A003868A8
:1003B00080FB060638607047F603000044000375B2
:1003C000642A07CF564341437618010C130C594356
:1003D0007618010C80B292B251434343504300223D
:1003E000C91852411204B6180A04090C80184E416B
:1003F000043F386070477404000044000475646D65
:100400002A0010B50024083F7E60BE683E603E6949
:10041000FFF7C3FF310041CF083F7E603E60FE68BA
:1004200003B4FFF7BAFF03BC330044CF083F7E603C
:100430003E603E690FB4FFF7B0FF0FBC92196341F5
:1004400040CF89196241634140CF083F7E60BE685A
:100450003E60FE680FB4FFF7A0FF0FBC9219634126
:1004600040CF89196241634140CF1E003A607960F4
:10047000B86010BD960400004300022A2F0000B5AA
:1004800040B440CFFFF793FF47F8046D40BC00F045
:100490004CF8043700BDB80400004300052A2F6D56
:1004A0006F6400B540B440CFFFF781FF47F8046D9B
:1004B00040BC00F03AF800BDDA04000043000375C8
:1004C0002A2F00B540B440CFFFF767FF47F8046D0F
:1004D00040BC00F01BF8043700BDFE0400004300E0
:1004E00006752A2F6D6F640000B540B440CFFFF74A
:1004F00054FF47F8046D40BC00F008F800BD1E052D
:100500000000430006756D2F6D6F640000B547F85D
:10051000046D002600F019F840CF043700BD3C05FB
:1005200000004300056D2F6D6F6400B547F8046D42
:10053000F61700F032F840CF043700BD8E050000FA
:1005400044000675642F6D6F640030B400230022F0
:100550007968B86835003C684026400049415241FE
:100560005B41AB4202D804D3A24202D3121BAB417F
:100570000130013EF1D10E0038607B60BA6030BCC2
:10058000704730B400237A68B9680020E2E70406B7
:100590000000440005642F6D6F6400B5F01719D09A
:1005A000FFF7CEFEFFF71CFEF0170CD0FFF7C8FEDA
:1005B000FFF716FEFFF7C9FFFFF712FEFFF7C0FEB9
:1005C000FFF70EFE00BDFFF70BFEFFF7BEFFFFF7C4
:1005D000B7FE00BDFFF704FEF0170ED0FFF7B0FE28
:1005E000FFF7FEFDFFF7B1FFFFF7AAFEFFF7F8FDEB
:1005F000FFF7A6FEFFF7F4FD00BDFFF7F1FDFFF7E3
:10060000A4FF00BD1A060000440002642F0000B5DC
:10061000FFF7C3FFFFF7F1FD00BD620600004400D5
:1006200002662A0000B5F0170DD0FFF789FEFFF72C
:10063000D7FDF0170DD0FFF783FEFFF7E2FE40CFA6
:1006400001CF386000BDFFF7CBFDF017F5D0FFF705
:1006500077FEFFF7D6FE40CF01CF3860FFF770FE80
:1006600000BDAE060000440002662F0000B5F01782
:100670000ED0FFF765FEFFF7B3FDF0170ED0FFF7C2
:100680005FFEFFF7ADFDFFF77CFFFFF7B6FD00BD96
:10069000FFF7A6FDF017F4D0FFF752FEFFF7A0FD1D
:1006A000FFF76FFFFFF74CFEFFF7A7FD00BDC20687
:1006B000000020000232210006CF3160726040CF7E
:1006C0007047D6060000200002324000043F7068E8
:1006D000386036687047EA06000044000364753CE1
:1006E00007CF121AB141B6417047FE060000440020
:1006F0000364753E07CF801A8E41B64170471407D8
:100700000000440002643C0007CF121AB1410CDB28
:100710000026704730070000440002643E0007CF07
:10072000801A8E4101DB002670470026F643704791
:100730004007000062000364303C0437F61770473E
:100740005407000062000364303D01CF0643013EC0
:10075000B64170476E070000440003643C3E07CF7B
:1007600050404E400643013EB641F643704786076F
:100770000000440002643D0007CF50404E40064355
:10078000013EB64170479807000020000373704097
:1007900047F8046D3E007047A8070000200003736F
:1007A0007021370040CF7047BA0700002000037265
:1007B000704047F8046D6E467047CA07000020007D
:1007C00003727021B54640CF7047DA070000610020
:1007D0000364757047F8046D7047EA070000610014
:1007E0000464726F700040CF704700080000610021
:1007F000043F64757000002E01D047F8046D704707
:1008000014080000620004737761700039683E606C
:100810000E007047220800006200036E6970043702
:100820007047360800006200046F7665720047F872
:10083000046D7E6870474C080000620004747563A4
:100840006B0001CF083F7E6038607047620800008F
:10085000630003726F7403CF083F78603E600E0040
:1008600070477A0800006300042D726F740003CF94
:10087000083F7E603960060070478C080000200049
:10088000047069636B0057F826607047A408000085
:100890000000056465707468C149C91B47F8046DA0
:1008A0008E107047C0080000000006726465707406
:1008B000680047F8046D6E46BA49891B8E10704770
:1008C000D00800002000023E720040B440CF7047C4
:1008D000E2080000200002723E0047F8046D40BCB0
:1008E0007047F408000020000272400047F8046DD1
:1008F000009E7047040900002000057264726F704A
:1009000001B0704718090000200005727069636B20
:10091000B6006E44366870472E0900006E00036111
:100920006E6401CF064070470640000616F0460987
:1009300000006E000362696301CFB0430600704798
:100940008643000636F05C0900006E00026F7200FC
:1009500001CF064370470643000656F072090000B7
:100960006E0003786F7201CF464070474640000624
:1009700096F0800900006100036E6F74F6437047C3
:1009800090090000610003636C7AB6FA86F670473E
:100990009E09000061000373687276087047AC0915
:1009A000000061000373686C76007047BC090000AA
:1009B000610003726F720120C6417047CC090000CC
:1009C000610003726F6C1F20C6417047E20900008E
:1009D00062000772726F7461746501CFF0410600A6
:1009E0007047FC0900006C00067273686966740049
:1009F00001CFF0400600704736080026160A0000B6
:100A00006C00076172736869667401CF304106003B
:100A100070473610F617300A00006C00066C7368D9
:100A20006966740001CFB0400600704736000026AA
:100A3000400A0000610002303D00013EB6417047AF
:100A4000520A0000610003303C3E013EB641F643CD
:100A50007047600A0000610002303C00F6177047E2
:100A6000760A0000600004747275650047F8046D32
:100A70000026F64370478A0A000060000566616C34
:100A8000736547F8046D002670479E0A0000420017
:100A9000023E3D0001CFB042EADA00267047B20ABA
:100AA00000004200023C3D0001CFB042E0DD0026E4
:100AB0007047C40A00004200013C01CFB042D7DBBE
:100AC00000267047D60A00004200013E01CFB04226
:100AD000CEDC00267047EA0A0000620003753E3D46
:100AE00001CF861BB641F6437047FE0A0000620044
:100AF00003753C3D01CF361AB641F6437047100BE3
:100B00000000620002753C0001CF861BB6417047B1
:100B1000220B0000620002753E0001CF361AB6417A
:100B20007047380B00006B00023C3E0001CF361AC4
:100B3000013EB641F64370474A0B00006B00013D91
:100B400001CF361A013EB64170475E0B00006200CD
:100B5000036D696E01CFB04200DC06007047720B76
:100B600000006200036D617801CFB04200DB060037
:100B70007047880B0000620004756D61780001CF3A
:100B8000B04200D306007047A80B00006200047555
:100B90006D696E0001CFB04200D8060070470000BA
:100BA0002C0200202C030020E60B00000000046D46
:100BB0006F76650007B5310040CF320040CF002985
:100BC0000FD0B2420DD006D3013E013A705C5054B2
:100BD0000139FBD105E0307810700136013201395E
:100BE000F9D140CF07BD080C000000000466696C15
:100BF0006C00300040CF310040CF002902D00139D5
:100C00007054FCD140CF7047140C0000200001400C
:100C1000366870472C0C00006D00012103CF306056
:100C20000E0070470660704701607047520C00006C
:100C30006D00022B210003CF3268121832600E00C3
:100C40007047026892190260704702685218026089
:100C50007047600C00002000026840003688704732
:100C60007A0C00006D000268210003CF30800E0076
:100C700070470680704701807047A00C00006D002F
:100C800003682B2103CF3288121832800E00704780
:100C900002889219028070470288521802807047B9
:100CA000AE0C000020000263400036787047C80C8C
:100CB00000006D000263210003CF30700E0070470A
:100CC0000670704701707047EE0C00006D00036302
:100CD0002B2103CF3278121832700E007047027841
:100CE0009219027070470278521802707047160D00
:100CF00000006D0004626973210003CF3268024373
:100D000032600E007047026832430260704702682A
:100D10000A43026070473E0D00006D000462696383
:100D2000210003CF3268824332600E0070470268B0
:100D3000B2430260704702688A4302607047660DE2
:100D400000006D0004786F72210003CF32684240CA
:100D500032600E007047026872400260704702689D
:100D60004A4002607047D20D000068000462697456
:100D7000400001CF3668064018BF4FF0FF3670477D
:100D80004FF4D04200B5012B0AD147F8046D00267C
:100D900000F0B0FF47F8046D160001F0EDFA11E025
:100DA00002CF013B02F03BFC47F8046D36261643A8
:100DB00001F0E2FA47F8046D0E0047F8046D0026D2
:100DC00000F098FF47F8046DDFF84C6401F0C1F8BB
:100DD00000BDFA0D00006D0005686269732103CF44
:100DE0003288024332800E0070470288324302800C
:100DF000704702880A4302807047220E00006D008F
:100E000005686269632103CF3288824332800E0015
:100E100070470288B2430280704702888A4302808A
:100E200070474A0E00006D000568786F722103CF8D
:100E30003288424032800E00704702887240028041
:100E4000704702884A40028070476A0E00006800BE
:100E500005686269744001CF3688064018BF4FF0BC
:100E6000FF3670474FF408428CE7920E00006D0089
:100E700005636269732103CF3278024332700E003A
:100E80007047027832430270704702780A4302705A
:100E90007047BA0E00006D0005636269632103CFDD
:100EA0003278824332700E0070470278B24302708B
:100EB000704702788A4302707047E20E00006D00AE
:100EC0000563786F722103CF3278424032700E0092
:100ED0007047027872400270704702784A40027090
:100EE0007047020F0000680005636269744001CF1B
:100EF0003678064018BF4FF0FF3670474FF4F04287
:100F000040E7120F000061000563656C6C2B04362E
:100F10007047220F000061000563656C6C73B600BA
:100F20007047C00F000000000768666C617368219D
:100F3000300040CF310040CF4FF48043984225D35A
:100F40004FF48013984221D24FF6FF731940994213
:100F50001BD010F00102002A18D102889A4215D144
:100F600010F10060AD4AAE4B1360AE4B1360AE4A59
:100F700040F2011313600180AC4A136813F480330C
:100F8000FBD1A94A4FF000431360704700F09AFC70
:100F90002A57726F6E672061646472657373206F85
:100FA00072206461746120666F722077726974695F
:100FB0006E6720666C61736820210A0002F056BBE0
:100FC0002010000000000763666C61736821300028
:100FD00040CF310040CF4FF480439842D6D34FF4F6
:100FE00080139842D2D211F0FF01FF2917D0027866
:100FF000FF2ACBD110F10060884A894B1360894BDE
:101000001360894A4FF0010313600170874A136827
:1010100013F48033FBD1844A4FF0004313607047D0
:10102000981000000000106572617365666C617352
:1010300068736563746F720000B5012E2AD30C2E9D
:1010400028D2764A764B1360764B136000F03AFC58
:101050000D457261736520736563746F722047F884
:10106000046D02F056F9704A714BF6003343136079
:101070006E4A136813F48033FBD16B4A4FF0004380
:10108000136000F01FFC0C66726F6D20466C61737C
:10109000682E0A0040CF00BD8C12000000000A65D7
:1010A00072617365666C6173680072B600B5614801
:1010B00061490268B2F1FF3F05D047F8046D01268F
:1010C000FFF7BAFF02E004308842F2D35B485C4984
:1010D0000268B2F1FF3F05D047F8046D0226FFF722
:1010E000ABFF02E004308842F2D35648564902680A
:1010F000B2F1FF3F05D047F8046D0326FFF79CFFD0
:1011000002E004308842F2D3504851490268B2F1FB
:10111000FF3F05D047F8046D0426FFF78DFF02E07E
:1011200004308842F2D34B484B490268B2F1FF3F8A
:1011300005D047F8046D0526FFF77EFF02E0043076
:101140008842F2D3454846490268B2F1FF3F05D0D4
:1011500047F8046D0626FFF76FFF02E0043088426F
:10116000F2D3404840490268B2F1FF3F05D047F84A
:10117000046D0726FFF760FF02E004308842F2D3D7
:101180003A483B490268B2F1FF3F05D047F8046D89
:101190000826FFF751FF02E004308842F2D33548B9
:1011A00035490268B2F1FF3F05D047F8046D0926C2
:1011B000FFF742FF02E004308842F2D32F48304963
:1011C0000268B2F1FF3F05D047F8046D0A26FFF729
:1011D00033FF02E004308842F2D32A482A490268E9
:1011E000B2F1FF3F05D047F8046D0B26FFF724FF4F
:1011F00002E004308842F2D300F064FB1246696ECC
:1012000069736865642E20526573657420210A0035
:101210005DF804EB02F0B3BA760D0000043C024026
:1012200023016745AB89EFCD103C02400C3C0240E6
:101230000200010000400008FF7F00080080000855
:10124000FFBF000800C00008FFFF00080000010801
:10125000FFFF010800000208FFFF03080000040868
:10126000FFFF050800000608FFFF07080000080848
:10127000FFFF090800000A08FFFF0B0800000C0828
:10128000FFFF0D0800000E08FFFF0F08A21200006C
:101290006900012B01CF361870473618003600065A
:1012A00016F1B81200006900012D01CF861B7047AE
:1012B000361A003E0006B6F1C61200006100023187
:1012C0002D00013E7047D4120000610002312B0056
:1012D00001367047E2120000610002322D00023E2A
:1012E0007047F0120000610002322B000236704796
:1012F000021300006100066E656761746500764246
:10130000704714130000610003616273F017361810
:101310004640704732130000420005752F6D6F6420
:1013200001CF3100B0FBF6F67143401A043F38603C
:101330007047501300004200042F6D6F640001CF0E
:10134000310090FBF6F67143401A043F3860704755
:10135000641300004200036D6F6400B5FFF7EFFFF8
:1013600040CF00BD741300006200012F01CF90FB3D
:10137000F6F67047841300006A00012A01CF464345
:101380007047464392130000610002322A00760043
:101390007047A0130000610002322F0076107047E2
:1013A000B41300006100046576656E0001203040D2
:1013B00036187047CC130000810004626173650029
:1013C00047F8046D904E70470A000000E2130000D9
:1013D00000000662696E617279008B48022101602B
:1013E0007047F8130000000007646563696D616C65
:1013F00085480A21016070470A1400000000036854
:101400006578814810210160704726140000810032
:1014100009686F6F6B2D656D697447F8046D7B4EBD
:1014200070471015000042140000810008686F6FBB
:101430006B2D6B65790047F8046D754E7047361556
:1014400000006014000081000A686F6F6B2D656DED
:1014500069743F0047F8046D6E4E704760150000D8
:101460007C140000810009686F6F6B2D6B65793FFC
:1014700047F8046D684E70478C1500009A14000000
:1014800081000A686F6F6B2D70617573650047F896
:10149000046D624E70472E370000B014000000004B
:1014A00004656D6974000FB5584800F026F80FBD4B
:1014B000C41400000000036B65790FB5544800F0B8
:1014C0001CF80FBDD6140000000005656D69743F5F
:1014D000504800688746E81400000000046B6579F6
:1014E0003F004D4800688746FE140000000005706C
:1014F000617573654948006887460068874624150A
:10150000000000000B73657269616C2D656D697474
:1015100000B500F025F8002E40CFFAD0404A1670F2
:1015200040CF00BD4C15000000000A736572696170
:101530006C2D6B65790000B500F028F8002E40CFC7
:10154000FAD047F8046D364A167800BD7A150000C7
:1015500000000C73657269616C2D656D69743F00E4
:1015600000B5FFF7C7FF47F8046D00262D48016856
:101570008020014000D0F64300BD4C160000000062
:101580000B73657269616C2D6B65793F00B5FFF770
:10159000B1FF47F8046D0026224801682020014071
:1015A00000D0F64300BD20494FF480300860086841
:1015B00010F40030FBD01D494FF0010008601A49BB
:1015C000086820F001000860704719491948086050
:1015D0001949086850F0A000086018494FF4EE401F
:1015E000086017494FF4003008601649462008602B
:1015F000154942F20C000860704700B5FFF7D3FFB1
:10160000FFF7E3FF00BD0000FCFF0120F8FF012011
:10161000F4FF0120F0FF0120ECFF0120E8FF012092
:1016200004440040004400400038024008380240B2
:1016300030380240FF01100000000240200002404C
:1016400040380240084400400C440040701600003E
:101650000000076365787065637400B5386801B48D
:101660000130386000F00BF801BC067040CF00BDBF
:10167000E61600000000066163636570740000B543
:1016800002CF01390022FFF718FF300040CF7F283A
:1016900009D0202819D2092816D00A281FD00D28D1
:1016A0001DD00828EFD1002AEDD000F00BF9030877
:1016B0002008002AE7D0885C013A80230340E2D06A
:1016C00040230340F5D0DEE72020B242DBD247F8CA
:1016D000046D0600FFF7E7FE01328854D3E71600D9
:1016E00000F09FF800BDF816000040000374696226
:1016F00047F8046D294E70470E1700008100033E25
:10170000696E47F8046D264E7047000000003417DC
:10171000000082000E63757272656E742D736F75B2
:101720007263650047F8046D1E4E704700000000AC
:101730006400002050170000000009736574736F87
:1017400075726365174802CF0660416040CF7047ED
:101750006E170000000006736F757263650047F82E
:10176000046D104E043F7068386036687047A817E3
:10177000000000000571756572790FB508480021F9
:101780000160FFF7B5FF47F8046D47F8046DC82600
:10179000FFF775FFFFF7D6FF0FBD000064000020C4
:1017A000E4FF0120DCFF0120F017000000000763C8
:1017B0006F6D706172650FB5310040CF01CF884207
:1017C00002CF10D1002810D001380A5C335C412AC6
:1017D00002D35B2A38BF2032412B02D35B2B38BFA8
:1017E00020339A42EED000260FBD0026F6430FBDEF
:1017F0000418000000000263720000B500F062F8F7
:10180000010A00BD16180000000002626C0047F8D3
:10181000046D202670472A180000000005737061CF
:10182000636547F8046D20263DE64A180000000075
:10183000067370616365730000B5002E03DDFFF76A
:10184000F0FF013EFBD140CF00BD5A180000500010
:10185000065B636861725D0005E0721800000000BD
:1018600004636861720000B501F079FB40CF3678FF
:1018700000BD821800005000012847F8046D292699
:1018800006E09C1800005000015C47F8046D00263B
:1018900000B501F06EFB043740CF00BDE01800003A
:1018A0003000022E2200AA4800B547F8046D060059
:1018B00000F07DFA47F8046D222601F05AFB00F093
:1018C0008FFD00BD0AB447F8046D7646013E3378BB
:1018D0000121013319405B181EEB030E0ABC39E0ED
:1018E000061900003000026322009A48DCE747F83E
:1018F000046D7646013E33780121013319405B18AF
:101900001EEB030E704730190000300002732200F6
:101910009148C9E747F8046D764647F8046D013EE3
:1019200036780121731C19405B181EEB030E7047BB
:1019300048190000000005636F756E74013647F8A2
:10194000046D013E367870476019000000000563A1
:101950007479706500B5FFF7F1FF00F007F800BD7E
:1019600088190000000004747970650001B501CF8A
:10197000002E07D047F8046D0678FFF794FD01307C
:10198000013EF7D140CF01BDC2190000000004683C
:1019900065782E0007B5310040CF20200F22043893
:1019A00047F8046D0E00C6401640092E01D937369F
:1019B00000E03036FFF777FD0028F0D1FFF731FF68
:1019C00007BDD2190000000003682E731FB5634CD9
:1019D0000EE0E2190000000003752E731FB5604C85
:1019E00006E0861A00000000022E73001FB55D4C51
:1019F0005D49C91B8908220A2020292F200A202896
:101A0000273E200A202F4343202020333520434304
:101A1000430A385C29295F200A0A544A106803B433
:101A20000A201060FFF74EFF08537461636B3A2081
:101A30005B0047F8046D0E0001F073FCFFF742FFF6
:101A4000025D200003BC2736484A106000290AD0F6
:101A5000474A106806B447F8046D0600A04706BC64
:101A6000043A0139F5D1FFF72DFF0620544F533AC0
:101A7000200047F8046D3600A047FFF723FF04203D
:101A80002A3E0A001FBD261B0000000005776F726A
:101A9000647300B5FFF716FF010A00F0E3FEFFF7DD
:101AA00011FF09416464726573733A2047F8046D4D
:101AB000FFF770FFFFF706FF064C696E6B3A2000D8
:101AC00047F8046D3668FFF765FFFFF7FBFE074632
:101AD0006C6167733A2047F8046DB688FFF75AFFC8
:101AE000FFF7F0FE06436F64653A2000B01D00F07A
:101AF00006FF47F8046D0600FFF74CFFFFF7E2FE14
:101B0000064E616D653A200047F8046D0636FFF712
:101B100021FFFFF7D7FE010A00F0BCFE300040CFE6
:101B2000BDD040CF00BD781B0000000006756E756B
:101B30007365640000B500F08EFF0E4801684FF039
:101B40000052914201D24FF48016761A00BD000077
:101B5000C4180000EE1800001419000095190000C8
:101B600013330000233300002C020020FCFF01206F
:101B700028020020D0FF0120DC1C000000000D31F5
:101B800032626974656E636F64696E670FB5FF2EAC
:101B900004D847F8046D5FF0FF360FBD16F0FF1054
:101BA000B0420ED14FF6FF710840310C814208D18E
:101BB00016F0FF0656F4805647F8046D5FF0FF36C6
:101BC0000FBD16F0FF20B0420FD14FF6FF71084055
:101BD000310C814209D1360A16F0FF0656F4005640
:101BE00047F8046D5FF0FF360FBDFF223100114052
:101BF000300A1040884210D1300C104088420CD17D
:101C0000300E1040884208D116F0FF0656F44056B8
:101C100047F8046D5FF0FF360FBD30000021013141
:101C2000001850F100007FF07F020240802A05D0AA
:101C30001F29F4D347F8046D00260FBD0829F9D3F6
:101C4000060036F0800611F00100C001064311F0D5
:101C50000E00C002064311F010008005064347F84D
:101C6000046D5FF0FF360FBD47F8046DDFF86C655B
:101C70005FF4704110EA0102120116435FF4006143
:101C800010EA0102D20316435FF4E06110EA010298
:101C900012011643FF2110EA010216431E4394E38A
:101CA00047F8046DDFF838655FF0704110EA010213
:101CB000120B16435FF0006110EA0102520816434E
:101CC0005FF0E06110EA0102120B16435FF47F013E
:101CD00010EA0102120C16431E4376E3421D000077
:101CE00000001072656769737465726C697465725F
:101CF000616C2C000FB5330040CF1B02FF2E05D8BE
:101D000056F400561E4300F037FB0FBDFFF73EFFB1
:101D1000002E40CF06D0DFF8CC0406431E4300F06F
:101D200054FB0FBDF643FFF731FF002E40CF06D026
:101D3000DFF8B40406431E4300F047FB0FBDF64333
:101D40000BE0A21D00000000096D6F76776D6F76C5
:101D5000742C0FB5330040CF1B02300040CFFFF78B
:101D600083FF4FF6FF7110EA014001D0FFF798FFA3
:101D70000FBD0FB50136300040CF0023FFF774FFD1
:101D8000FFF78EFF06E00FB5013647F8046D002619
:101D9000FFF7B0FF47F8046D44F2807600F0ECFAEC
:101DA0000FBD081E000000000563616C6C2C0FB5B0
:101DB000330000F041FE300040CF1B1A043BDFF837
:101DC0002C141940002906D0DFF82424914202D0B7
:101DD000BDE80F40D7E740CF5B08DFF8180440F2BA
:101DE000FF7119400843DB0A40F2FF311940090432
:101DF00008439B0A13F001018906084347F8046D64
:101E0000060000F0E2FA0FBD3E1E00000000086C64
:101E100069746572616C2C0008B547F8046D4FF663
:101E2000470600F0A9FA47F8046D46F6045600F09C
:101E3000A3FA47F8046D0626FFF75CFF08BD621E93
:101E400000000000066372656174650000B500F073
:101E500031F841F67F60804747F8046DBEF1010616
:101E600000BDA61E0000200005646F65733E41F6AC
:101E70007F60804747F8046DBEF10106704747F860
:101E8000046DBEF10106DC4A1368DC4909680220D2
:101E9000084000D0023102311160FFF76AFF136081
:101EA00000F0C1F900BDE21E00000000073C6275B1
:101EB000696C647300B500F0B1FB00F0BDFD022059
:101EC000064040CF01D000F049FA47F8046D4BF2CC
:101ED000005600F051FA47F8046D0A2600F0ACFAFB
:101EE00000BDEE1E00005000035B275D03E0061FEF
:101EF00000000000012700B501F031F800F049FDB5
:101F0000300040CF00BD441F0000300008706F73E8
:101F100074706F6E650000B5FFF7EDFF1021014092
:101F20000DD12021014005D0FFF776FF47F8046D61
:101F3000B34E04E0FFF770FF47F8046DB14EFFF7B2
:101F400036FF00BD981F0000000007696E6C696EC7
:101F5000652C00B54BF200514BF6005244F2707301
:101F60003088884208D0904208D0984206D047F87E
:101F7000046D060000F000FA0236F1E740CF00BD24
:101F80000EB54BF6005244F2707301880230914254
:101F900001D09942F9D10EBDAE1F000000000472BD
:101FA00065742C0047F8046D4BF60056E4E1BC1F45
:101FB00000003000046578697400F3E7D41F000066
:101FC0003000077265637572736547F8046D8B4E58
:101FD0003668ECE6EC1F00008100057374617465DF
:101FE00047F8046D884E704700000000FE1F000097
:101FF0000000015D84480021C943016070470E2044
:1020000000001000015B8048002101607047322011
:1020100000000000013A00B57C48076000F0FEFABD
:1020200047F8046D4BF2005600F0A6F9FFF7E2FF07
:1020300000BD842000003000013B00B573480168FA
:10204000B94214D072498E4202D1724EFFF782FC1F
:10205000FFF738FC1520537461636B206E6F74209A
:1020600062616C616E6365642E0A01F0FFBA47F825
:10207000046D4BF6005600F07FF900F0D4F8FFF73E
:10208000C2FF00BD982000000000076578656375F9
:102090007465300040CF8746AC200000100009690D
:1020A0006D6D65646961746510206AE0BE20000092
:1020B000500006696E6C696E6500202061E0D420D6
:1020C000000010000B636F6D70696C656F6E6C794A
:1020D000302056E0EA20000050000A302D666F6C78
:1020E0006461626C650040204BE0002100005000FC
:1020F0000A312D666F6C6461626C6500412040E0BE
:102100001621000050000A322D666F6C6461626C0B
:102110006500422035E02C21000050000A332D6676
:102120006F6C6461626C650043202AE0422100000C
:1021300050000A342D666F6C6461626C6500442047
:102140001FE05821000050000A352D666F6C646155
:10215000626C6500452014E06E21000050000A36D4
:102160002D666F6C6461626C6500462009E08A210F
:10217000000050000A372D666F6C6461626C650068
:10218000472047F8046D060080E0BA2100000000F7
:1021900008636F6E7374616E740000B500F03EFAF0
:1021A000FFF73AFE47F8046D44F2707600F0E4F869
:1021B000FFF799FF00F037F800BD1822000000007B
:1021C0000932636F6E7374616E7400B500F026FAA5
:1021D00039683E600E46FFF71FFEE1E7000040F25F
:1021E0000000C0F200005FF000007FF00100C0FFBF
:1021F0000000C0FF00F800F0D0FF01200C0000201C
:10220000521F0000AE1D0000D8FF01200800002072
:1022100085191204F61900007C22000000000673E4
:102220006D756467650000B5ED4801684FF00052B8
:1022300091421CD202390A884FF6FF739A4205D1A7
:1022400047F8046D4FF0000600F096F800F05CF8D7
:10225000E448006847F8046D0600E3490968043162
:10226000DF4A1368116000F087F8136000BD00F0CA
:102270004BF847F8046D4FF0000608E0C422000058
:10228000000008736574666C6167730000B5D4481C
:1022900001684FF00052914205D2D24801683143A3
:1022A000016040CF00BD320040CFCF48006804300D
:1022B00001884FF6FF73994201D1110000E01143EC
:1022C000018000BDDA220000410007616C69676E81
:1022D00065640336032086437047FC22000000003B
:1022E0000668616C69676E00BD48016801200140A5
:1022F00003D047F8046D00261AE07047262300003B
:10230000000005616C69676E00B5FFF7EDFFB4482A
:1023100001680220014005D047F8046D4FF0000627
:1023200000F02AF800BD6E230000000002632C00BC
:1023300000B5AB4801684FF00052914205D247F812
:10234000046D0E00FEF743FE02E0320040CF0A703B
:1023500047F8046D012600F06FF800BD47F8046DE2
:10236000362609E047F8046D4CF6407604E0A623D3
:102370000000000002682C000FB5B6B29848016852
:102380004FF00052914205D247F8046D0E00FEF75F
:10239000CFFD02E0320040CF0A8047F8046D0226EC
:1023A00000F04AF80FBDC02300000000012C01B569
:1023B00047F8046DFFF7E0FF360CFFF7DDFF01BDC6
:1023C000D22300000000033E3C2C01B51020C64182
:1023D000EEE72C240000000007737472696E672C0E
:1023E00007B5F1B201CF002903D10026FFF7C4FFE2
:1023F00007BD067836020E43FFF7BEFF01300139F4
:1024000002290AD347F8046D46783602027816434B
:10241000FFF7B2FF02300239F2E7002900D107BD11
:1024200047F8046D0678FFF7A7FF07BD8A24000070
:10243000000005616C6C6F74694801684FF00052D0
:10244000914210D2320040CF89184FF4801291424D
:1024500019D3FFF737FA0B466C6173682066756C09
:102460006C0A01F003B9320040CF89185F4A126844
:10247000914208D3FFF726FA0952616D2066756C08
:102480006C0A01F0F3B801607047A62400008100D7
:1024900008286C6174657374290047F8046D544E04
:1024A000704788010000BE24000081000428647089
:1024B000290047F8046D4F4E70472C030020E2249A
:1024C0000000000009666F7267657472616D00B587
:1024D00000F025F8474848490160454847490160F0
:1024E00000BD0A25000000000D636F6D70696C650A
:1024F000746F72616D3F47F8046D3E4800684FF09D
:1025000000518842B641F64370472C250000000078
:102510000C636F6D70696C65746F72616D00354826
:1025200000684FF00051884212D370479E2500008A
:1025300000000E636F6D70696C65746F666C61731B
:1025400068002C4800684FF00051884200D2704764
:1025500027482B4902680B680A600360254829490F
:1025600002680B680A60036020480068834215D344
:1025700000B5FFF7A7F923205661726961626C65A7
:102580007320636F6C6C696465207769746820647C
:10259000696374696F6E6172790A00BD7047BA250C
:1025A000000000000C61646472696E666C6173689F
:1025B0003F0012484FF480110BE00C260000000091
:1025C0000A61646472696E72616D3F004FF0005081
:1025D0000D49864202D38E42B641704700267047AD
:1025E000D0FF012018000020D4FF01201C00002093
:1025F000D4FF0120D0FF01202C030020880100001F
:10260000140000201000002000000220FA26000024
:1026100000000828637265617465290000B500F048
:102620009EFC002E0ED1FFF74DF915204372656117
:102630007465206E65656473206E616D6520210A86
:1026400001F014B8386827E9410000F066F940CF7E
:10265000002E40CF0FD0386827E94100FFF732F94C
:10266000095265646566696E6520FFF77FF9FFF7BB
:1026700029F9022E2000FFF747FE904800684FF02E
:102680000051884220D28E484FF00001016000F0D6
:10269000D3F947F8046D0626FFF7CEFEFEF7E7F8FC
:1026A000FFF79EFE874801680A684FF0FF339A42A1
:1026B00007D1824A1368116047F8046DFFF777FE6F
:1026C0001360066040CF13E000F0B6F97D4847F88C
:1026D000046D0668FFF76BFE47F8046D4FF6FF7652
:1026E000FFF74AFE7748310040CF0160FFF778FEE0
:1026F000724801687448016000BD122700000000A4
:10270000087661726961626C650047F8046D0126A4
:1027100013E02A27000000000932766172696162C5
:102720006C6547F8046D022607E09A270000000058
:10273000096E7661726961626C6500B5FFF76EFFC4
:102740005E4801684FF00052914218D20F200640B7
:10275000B20000F048F8300040CF020006D005D0AB
:102760000E600431FFF723FE0138F9D147F8046DFC
:1027700080261643FFF78AFDFFF755FD00BD00F0E8
:102780004CF8300040CF03D0FFF711FE0138FBD1E9
:10279000FFF7A9FCFFF747FD00BD4E280000000031
:1027A000076275666665723A00B5FFF737FF03206A
:1027B00036188643414801684FF0005291420DD2CD
:1027C000320000F010F8FFF7F2FD47F8046D40F218
:1027D0004016FFF75BFDFFF726FD00BD00F01DF87A
:1027E000FFF72AFED4E700B538480168891A384A4D
:1027F00091420BD2FFF766F80F4E6F7420656E6F33
:102800007567682052414D0A00F030BF016047F8FB
:10281000046D0E00FFF700FB12E000B500F00CF9AC
:102820000220064040CF01D1FFF798FD47F8046D24
:10283000284EFFF7CAFD47F8046D274EFFF7C5FD88
:1028400047F8046D44F27076FFF796FD00BD7E28D0
:10285000000000000F64696374696F6E61727973C0
:1028600074617274154800684FF0005147F8046DA8
:10287000884201D2194E7047124E36687047E028E0
:10288000000000000E64696374696F6E6172796E96
:102890006578740003B531684FF0FF30814207D08E
:1028A0008879FF2804D00E0047F8046D002603BD88
:1028B00047F8046D0026F64303BD0000D0FF012059
:1028C00018000020D4FF01200C0000201C00002074
:1028D0002C0300203E60043F02367E468801000043
:1028E0000E29000000000A736B6970737472696EC0
:1028F000670031780231012291437618704706B49F
:102900000178023101229143401806BC7047AC297E
:10291000000000000466696E640030B500200021EC
:1029200003B4350040CF340040CFFFF79BFF4FF694
:10293000FF70B18888421ED0B179A9421BD1F01D29
:102940000139425C635C412A02D35B2A38BF2032E2
:10295000412B02D35B2B38BF20339A420BD1002985
:10296000EED102B0B01DFFF7CAFFB18803B44FF03B
:102970000050864207D236684FF0FF30864202D0C0
:10298000B079FF28D3D103BC060047F8046D0E00D0
:1029900030BD00B53100386803B4FFF7BEFF03BC9B
:1029A0003A68002A01D100F030FD00BDFC2900008A
:1029B000000006636A756D702C00320042CF8B1BDD
:1029C000043BD90703D119120CD0C9430AD0FEF732
:1029D00079FF0D4A756D7020746F6F206661720A01
:1029E00000F044BE30005B10DBB2D61800B5914A4F
:1029F00013681060FFF7C0FC136000BD2C2A0000B4
:102A00000000056A756D702C310041CF0B1A043B34
:102A1000D907DCD1D91201D0C943D8D11B055B0D30
:102A200053F4604347F8046D1E00DFE7422A0000BC
:102A3000000004686572650047F8046D7D4E3668D5
:102A40007047362B000000000D666C61736876617C
:102A5000722D6865726547F8046D774E3668704769
:102A600000B547F8046D42F60066FFF785FCFFF7F6
:102A700079FC00BDE0E700B500F03AF839683E6047
:102A80000E4647F8046D4DF20016FFF796FF00BDA5
:102A900000B500F02DF839683E600E4647F8046D29
:102AA0004DF20076FFF789FF00BD00B5FFF7D8FFB4
:102AB00000F01EF839683E600E4647F8046D4DF28E
:102AC0000006FFF77AFF00BD00B500F011F8396885
:102AD0003E600E46FFF798FF00BD00B5FFF7C0FF50
:102AE000FFF7AAFF47F8046D0226FFF7A5FC00BD1B
:102AF00000B5FFF7A1FF47F8046D0226FFF79CFC25
:102B000000BD00B5FFF798FFFFF77EFF00BD00B5E1
:102B1000FFF792FF47F8046D4DF20006FFF74DFFF7
:102B200000BD00B5FFF788FF47F8046D4DF20016B1
:102B3000FFF743FF00BD722B00003000047468658E
:102B40006E00052E01D140CFDBE7022E01D140CF30
:102B5000DDE7FEF7B7FE175374727563747572651F
:102B60007320646F6E2774206D617463680A00F0CF
:102B70007DBD8E2B0000300004656C73650000B5D0
:102B800000F017F8FDF72CFBFFF7DBFF00BDA62BCD
:102B9000000030000269660000B5FFF79EFF47F8AD
:102BA000046D022600BDC02B000030000561686581
:102BB000616400B5FFF79CFF47F8046D052600BD72
:102BC000DA2B00003000067265706561740000B594
:102BD00000F01FF8FFF7B5FF00BDF22B000030003A
:102BE000057768696C6500B5FFF7D6FFFDF7F8FA61
:102BF00000BD062C0000300005756E74696C012E56
:102C0000A7D140CF51E71A2C000030000561676161
:102C1000696E012E9DD140CF56E73C2C000030005C
:102C200005626567696E00B5FFF724FF47F8046D1C
:102C3000012600BDD0FF01201C0000204C2C00000C
:102C40002000016B47F8046D029E70475C2C000069
:102C50002000016A47F8046D009E70476C2C00004C
:102C60002000016947F8046D26007047AA2C000077
:102C70003000056C6561766500B5CF4801683B00A2
:102C8000043F1A68043B1A6008338B42F9D103B43D
:102C9000FFF72EFF03BC330040CF04390B60016007
:102CA00004390A6801320A6000BDBC2C0000200013
:102CB00006756E6C6F6F700030BC7047F42C0000AE
:102CC0003000052B6C6F6F70032E00D041E740CFB2
:102CD00000B547F8046DB94EFFF73BF9FFF7D8FE92
:102CE0001AE014F10044641BA41940CF2C44A4F151
:102CF00000447047362D00003000046C6F6F700088
:102D0000032E00D025E740CF00B547F8046DAC4E48
:102D1000FFF71FF9FFF7AFFE00F009F9A6483100F1
:102D200040CF016047F8046DA64EFFF712F900BDD1
:102D30000134AC4270477E2D0000780002646F00C1
:102D400000B547F8046DA04EFFF703F99A480168F3
:102D500047F8046D0E0047F8046D00260760FFF782
:102D600089FE47F8046D032600BD00B500F02FF87A
:102D7000ECE730B4340040CF350040CF7047102E20
:102D800000007800033F646F00B547F8046D8E4E75
:102D9000FFF7DFF847F8046D44F2AC26FFF7ECFAD2
:102DA0008548016847F8046D0E00FFF7A1FE013663
:102DB00047F8046D012680480760FFF75BFE47F87F
:102DC000046D032600BD00B500F001F8E2E700B590
:102DD00047F8046D4BF23046FFF7CEFA47F8046D22
:102DE0000426FEF787FF013B08D047F8046D05264F
:102DF000FEF780FF013B00F012FC00BD47F8046DB8
:102E00003526FFF7B9FAFFF7ADFA00F008FC00BD70
:102E1000282E00003000046361736500083F7E6067
:102E200000263E60082670473E2E00003000033F1B
:102E30006F66664809E0013EB64140CF7047D62E26
:102E400000007800026F66006148082E00D080E61E
:102E500040CF00B547F8046D0600FFF77AF8FFF79A
:102E600047FE39683E600E46013647F8046D092674
:102E7000FFF778FA00BD00B5300040CF013B01B448
:102E800000F0CDFB01BC082E00D062E640CF47F831
:102E9000046D0600310A04D146F43856FFF76CFA87
:102EA000DDE7FEF773FE002E40CF04D0494806430D
:102EB000FFF78BFAD3E747F8046D0026FEF71AFFF9
:102EC00047F8046D44F2B026FFF756FAC7E7300022
:102ED00040CFB04270470C2F0000300005656E6493
:102EE0006F66092E00D034E640CF00B540B440CF25
:102EF000FFF7FEFD39683E600E46FFF712FE47F809
:102F0000046D40BC47F8046D082600BD522F000038
:102F1000300007656E6463617365082E00D018E6A3
:102F200040CF00B5FFF71EFA00F001F800BD00B574
:102F3000300040CF00280BD003B4F10703D0013E8E
:102F4000FFF7E5FD01E0FFF7DCFD03BC0138F1E729
:102F500000BD662F0000000005746F6B656E47F8BA
:102F6000046D202605E0E02F00000000057061726E
:102F7000736510B5184801684068184A12688418CB
:102F8000202E07D191420FD0835CB34202D101328F
:102F90008418F7E7914207D0835C0132B342F9D13C
:102FA0008618361B013E01E08618361B043F3C6044
:102FB0000A48026010BD000004000020E22C00005E
:102FC000302D0000B82C0000722D0000362E0000BD
:102FD000CE2E0000000FB6F1DCFF0120E4FF01203F
:102FE0001E3000000000056469676974CF4B1B68E0
:102FF000303E0BD30A2E0BD3073E0A2E06D3242EC7
:1030000006D3203E0A2E01D3242E01D3002670477A
:103010009E42FBD247F8046D0026F64370472831E4
:1030200000000000066E756D626572003FB53100EC
:1030300040CF701E0126012204B4BC4B1B68002443
:10304000002500293CD00130013902782D2A04D115
:1030500001B00022D24304B4F3E7232A01D10A23AA
:10306000EFE7242A01D11023EBE7252A01D102231F
:10307000E7E72E2A01D10226E3E72C2A36D047F8CB
:10308000046D1600FFF7B4FF002E40CF2BD047F899
:10309000046D260047F8046D2E0047F8046D1E00ED
:1030A00047F8046D00260FB4FDF78BF90FBC35000F
:1030B00040CF340040CF0022A419554140CFC0E793
:1030C00004BC002A04D50022E443ED4301345541F9
:1030D00033002600012B02D047F8046D2E0047F87C
:1030E000046D1E003FBD01B000263FBD2500002439
:1030F00002260029E4D0425C01392E2AF9D047F893
:10310000046D1600FFF774FF002E40CFEBD0043F94
:103110003C6047F8046D1E000FB4FDF7F7F90FBCD3
:10312000340040CF40CFE4E74A3100000000062ED3
:103130006469676974000A2E01D230367047242E04
:1031400001D23736704723267047803100000000D7
:1031500004686F6C6400330040CF754801784329E0
:103160000DD2013101704018012907D001380278D1
:1031700001300270013801390129F7D1037070471D
:10318000A0310000000005686F6C643C330040CF44
:1031900067480178432902D20131017043547047D6
:1031A000B83100000000047369676E00002E01D47E
:1031B00040CF70472D26CEE7CC310000000002231F
:1031C0003E005B480678013038607047E43100000B
:1031D00000000366235310B5202400F008F8013CDA
:1031E000FBD110BD0632000000000266230000B5CE
:1031F00047F8046D4D4E3668FDF7CFF8FFF79BFF9B
:10320000FFF7C4FF00BD223200000000022353007C
:1032100000B500F00AF8002EFBD138680028F8D17C
:1032200000BD4E3200000000012300B547F8046DD8
:103230003E4E366847F8046D0026FDF786F9FCF728
:10324000CFFF40CFFFF777FFFFF785FF00BD60326C
:1032500000000000023C2300354800210170704747
:1032600072320000000002662E0047F8046D20262E
:1032700004E0C0320000000003662E6E00B510B4FA
:10328000340040CFFDF7DDFAFDF750F847F8046D44
:103290000026FFF7E1FFFFF7BBFF40CF2C26FFF72B
:1032A00075FF002C03D0FFF7A2FF013CFBD110BC3F
:1032B00040CFFFF77BFF47F8046D47F8046D1CE033
:1032C000D632000000000375642E00B5FFF7C4FF7E
:1032D000FFF79EFF11E008330000000002642E009B
:1032E00000B5FDF7AEFAFDF721F8FFF7B5FFFFF7E0
:1032F0008FFFFDF7B0FAFFF759FFFFF762FFFEF708
:1033000035FBFEF78EFA00BD1A330000000002758F
:103310002E0047F8046D0026D7E734330000000084
:10332000012E47F8046DF617DAE70000FCFF0120D4
:10333000200000207C3300000000086576616C7579
:103340006174650000B5FEF70AFA01CF01B440B41C
:1033500040CFD648016802B400210160FEF7F2F9BF
:1033600000F014F8D14802BC016047F8046D40BC7D
:1033700001BC043F3860FEF7E5F900BD44360000AB
:10338000000009696E7465727072657430B5C84862
:1033900087420BD9FEF796FA10537461636B207560
:1033A0006E646572666C6F770A005FE1C1488742A0
:1033B0000AD2FEF787FA0F537461636B206F76654C
:1033C00072666C6F770A51E14FF000542568002D4A
:1033D00001D13D002560FFF7C2FD002E02D1043768
:1033E00040CF30BD386827E94100FFF796FA310039
:1033F00040CF320040CF002A19D138683100FFF7A2
:1034000015FE320040CF002AC1D147F8046D0600F6
:1034100047F8046D0E00FEF7A9FAFEF753FA0C20E8
:103420006E6F7420666F756E642E0A001EE1A24BEB
:103430001B68002B1DD10025256030230B40302B4D
:103440000ED1FEF793FAFEF73DFA1220697320635E
:103450006F6D70696C652D6F6E6C792E0A0005E1D9
:10346000043740CF47F8046D1600FEF712FEFFF751
:103470008EFF043740CF802008400ED1EB1B9B0805
:10348000402008400FD00820084002D0002B00D078
:103490001DE00F200840834205D347F8046D160055
:1034A000FEF7F7FD73E700F0BAF847F8046D160071
:1034B00010220A4002D0FEF7ECFD68E720220A4005
:1034C00002D0FEF746FD62E7FEF771FC5FE70720DA
:1034D00001401000FEF754FD01291FD1012BDCD162
:1034E000FF213140B14204D140880643FEF744FF3A
:1034F0004DE7FEF74BFB002E40CF04D0406806435B
:10350000FEF763FF43E747F8046D0026FEF7F2FB82
:1035100047F8046D0688FEF72FFF38E7022902D12D
:10352000012BBAD1EFE7032927D1012BB5D1FF2118
:103530003140B1420BD14FF478510E43FEF71CFFDE
:10354000043247F8046D1600FEF703FD1FE7FEF78F
:103550001DFB002E40CF04D058490E43FEF735FF27
:10356000EEE747F8046D0026FEF7C4FB023247F889
:10357000046D1600FEF7EDFC09E7042918D1012BB4
:103580008BD1330040CF002B00D100E71F221A401F
:103590009A4205D047F8046D4688FEF7EDFEF6E640
:1035A00047F8046D06889B011E43FEF7E5FEEEE634
:1035B000052920D1012B0CD147F8046D0026FEF718
:1035C00099FB47F8046D0600FEF7C3FCFEF7CAFE40
:1035D000DDE647F8046D0026FEF78CFB47F8046D26
:1035E0000126FEF787FBFEF7CBFC47F8046D0600CB
:1035F000FEF7AFFCCBE606290ED1012B7FF44DAFD1
:10360000FEF7C4FA002E40CF3FF47DAFD0F80200A1
:103610000643FEF7DAFEBAE601308047B7E600B5AA
:10362000002B0CD0013B47F8046D1E0057F82660B4
:10363000FEF7F2FB002BF5D1043D2F0040CF002513
:10364000256000BD60360000810009686F6F6B2D3A
:103650007175697447F8046D194E7047963600000D
:10366000D43600000000047175697400DFF854D08E
:103670000F4F15480A2101600F48002101604FF0EB
:103680000050016009480160104801601049416024
:103690000B4800688746FEF770F8FFF777FEFEF7E5
:1036A00011F905206F6B2E0AF5E70000E4FF0120F9
:1036B0002C0200202C010020D8FF01200006B6F1CA
:1036C000CCFF01202C030020FCFF0120DCFF0120A7
:1036D00064000020EE36000000000565696E743F4E
:1036E00047F8046DEFF31086013EB6417047FE3691
:1036F000000020000465696E740062B670470E37E2
:10370000000020000464696E740072B670472437AC
:103710000000200004697073720047F8046DEFF335
:1037200005867047303700000000036E6F707047E9
:1037300072370000000009756E68616E646C656424
:1037400000B5FEF7BFF814556E68616E646C656471
:1037500020496E74657272757074200047F8046DAC
:10376000EFF30586FEF716F9FEF7ACF802210A0022
:1037700000BD843700000000057265736574D6488B
:10378000D6490160AE37000081000B6972712D735C
:1037900079737469636B47F8046DD14E7047403795
:1037A00000004FF6C870C2F2010000688746D637A5
:1037B00000008100096972712D6661756C7447F8AB
:1037C000046DC84E7047403700004FF6C470C2F217
:1037D0000100006887460438000081000E6972719C
:1037E0002D636F6C6C656374696F6E0047F8046DD0
:1037F000BD4E7047403700004FF6C070C2F2010066
:10380000006887462E38000081000A6972712D73A6
:103810007663616C6C0047F8046DB44E70474037B6
:1038200000004FF6BC70C2F20100006887465838AD
:10383000000081000A6972712D70656E64737600F4
:1038400047F8046DAA4E7047403700004FF6B87035
:10385000C2F20100006887468038000081000969D3
:1038600072712D657874693047F8046DA14E704708
:10387000403700004FF6B470C2F20100006887467E
:10388000A83800008100096972712D65787469316A
:1038900047F8046D984E7047403700004FF6B070FF
:1038A000C2F2010000688746D03800008100096933
:1038B00072712D657874693247F8046D8F4E7047C8
:1038C000403700004FF6AC70C2F201000068874636
:1038D000F83800008100096972712D6578746933C8
:1038E00047F8046D864E7047403700004FF6A870C9
:1038F000C2F2010000688746203900008100096992
:1039000072712D657874693447F8046D7D4E704787
:10391000403700004FF6A470C2F2010000688746ED
:10392000463900008100076972712D61646347F8B0
:10393000046D754E7047403700004FF6A070C2F21C
:103940000100006887466E390000810008697271C5
:103950002D74696D320047F8046D6C4E7047403726
:1039600000004FF69C70C2F201000068874696394D
:1039700000008100086972712D74696D330047F889
:10398000046D634E7047403700004FF69870C2F2E6
:10399000010000688746BE39000081000869727125
:1039A0002D74696D340047F8046D5A4E70474037E6
:1039B00000004FF69470C2F2010000688746004094
:1039C0000000FFFF182D2D2D20466C6173682044E8
:1039D000696374696F6E617279202D2D2D00FDF77A
:1039E0000CFE4D4885464D4F2A2647F8046D4C4E37
:1039F0004C4DB1884FF6FF73994220D04FF480733D
:103A00000B400AD0B01DFEF77AFFFEF7B9FA038823
:103A1000408800040343ED1A11E080230B400ED0D0
:103A20000907890E6D1AB01DFEF769FFFEF7A8FAA7
:103A30000C3FBE6078603D600E00FDF7BBF8FEF7FE
:103A400029FF300040CFD4D03748066040CF3748F8
:103A500005604FF480104FF480414FF6FF728842AA
:103A600004D0023803889342F9D00230304908600C
:103A7000FDF728FF374D6563726973702D537465C8
:103A80006C6C6172697320332E302E3020666F7239
:103A90002053544D333246343037206279204D6103
:103AA000747468696173204B6F63680A4FF000504B
:103AB00000210160083F7E601E4E3E600426FEF736
:103AC0002CFF40CF002E02D0FEF7E3FAE0E540CF16
:103AD000CCE5696E697400000CED00E00400FA05A5
:103AE000C8FF0120C4FF0120C0FF0120BCFF01204E
:103AF000B8FF0120B4FF0120B0FF0120ACFF01207E
:103B0000A8FF0120A4FF0120A0FF01209CFF0120AD
:103B100098FF012094FF01202C0300202C0200209C
:103B20008801000000000220140000201C0000207A
:083B300010000020D23A000051
:0400000508000000EF
:00000001FF
