:020000040800F2
:1000000088030020334C2000734A2000734A2000EC
:10001000734A2000734A2000734A20000000000049
:10002000000000000000000000000000A14A2000C5
:10003000A14A200000000000A14A20004B4A2000F5
:10004000A14A2000A14A2000A14A2000A14A200084
:10005000A14A2000A14A2000C94A2000F14A2000FC
:10006000194B2000414B2000694B2000A14A200081
:10007000A14A2000A14A2000A14A2000A14A200054
:10008000A14A2000A14A20008F4B2000A14A200055
:10009000A14A2000A14A2000A14A2000A14A200034
:1000A000A14A2000A14A2000A14A2000A14A200024
:1000B000B74B2000DF4B2000074C2000A14A200056
:1000C000A14A2000A14A2000A14A2000A14A200004
:1000D000A14A2000A14A2000A14A2000A14A2000F4
:1000E000A14A2000A14A2000A14A2000A14A2000E4
:1000F000A14A2000A14A2000A14A2000A14A2000D4
:10010000A14A2000A14A2000A14A2000A14A2000C3
:10011000A14A2000A14A2000A14A2000A14A2000B3
:10012000A14A2000A14A2000A14A2000A14A2000A3
:10013000A14A2000A14A2000A14A2000A14A200093
:10014000A14A2000A14A2000A14A2000A14A200083
:10015000A14A2000A14A2000A14A2000A14A200073
:10016000A14A2000A14A2000A14A2000A14A200063
:10017000A14A2000A14A2000A14A2000A14A200053
:10018000A14A2000A14A2000A14A2000A14A200043
:10019000A14A2000A14A2000A14A2000A14A200033
:1001A000A14A2000A14A2000A14A2000A14A200023
:1001B000A14A2000A14A2000A14A2000A14A200013
:1001C000A14A2000A14A2000A14A2000A14A200003
:1001D000A14A2000A14A2000A14A2000A14A2000F3
:1001E000A14A200020062000FFFF222D2D2D204DAA
:1001F0006563726973702D5374656C6C6172697399
:1002000020524120322E362E35202D2D2D0007B5BF
:100210009048002B09D000F03DF800F043F800F0C2
:1002200028F8426028210160F3E707BD00B589483E
:1002300000230168282905D1426800F004F800F085
:100240004EF8F6E700BD03B547F8046D160047F811
:10025000046D1E0008B400F09FFF08BC013347F88E
:10026000046D7D4E47F8046D40F2612604F036FAC5
:1002700003BD03B5013B47F8046D1E0008B400F050
:1002800075FF08BC320047F8046D4FF4005604F0C7
:1002900025FA03BD03B5714801681E2901D000F09D
:1002A00034F803BD8169016201698161816801617E
:1002B00001688160C16941624169C161C168416190
:1002C0004168C1601E21016070470FB56148016837
:1002D0001E2903D0FFF7DEFFFFF7E4FF0FBD02B5D5
:1002E00081680160C168416000E002B50169816018
:1002F0004169C16081690161C1694161016A8161CE
:10030000416AC1611E21016202BD08B501681E2259
:100310000260082901D20B0004E0282909D14368B2
:1003200000F05BF847F8046D4D4E56EA033603F0D3
:100330008FF808BD00B500F009F800F00CF800F0E7
:100340000FF800F012F800F015F800BD0FB54348A3
:10035000FFF7DBFF0FBD0FB54248FFF7D6FF0FBD1C
:100360000FB54148FFF7D1FF0FBD0FB53F48FFF76D
:10037000CCFF0FBD0FB537480168062202601E2969
:1003800006D147F8046D4CF6407603F031F815E0DD
:10039000282909D1436847F8046D1E0047F8046D09
:1003A000062602F0BBFC09E0062907D047F8046DD9
:1003B00044F20666C9000E4303F01AF800F001F893
:1003C0000FBD24481E210162816101618160C1620B
:1003D0000621016000218162704707B547F8046D6E
:1003E0001E0000F045F847F8046D1E0002F096FC70
:1003F00007BD07B5C16A282904D1016B994201D113
:10040000002307BD0168002918D08168002915D094
:100410000169002912D0816900290FD0016A0029E1
:100420000CD0036347F8046D1E0047F8046D0026E6
:1004300002F074FC2821C162002307BD47F8046D57
:100440001E0000F015F847F8046D1E0002F066FC6F
:1004500007BD000020000020200F200040000020E9
:10046000040D47F83800002030000020280000204C
:1004700037B536480168826803698469056A0620D1
:1004800000F00EF8032000F00BF8022000F008F84E
:10049000012000F005F800232C481E21C16237BD61
:1004A000814209D0824207D0834205D0844203D0E2
:1004B000854201D0030037BD704747F8046D4CF604
:1004C000007600B581581E2905D1FFF7D1FF835072
:1004D000012199400E4300BD00B501681E2904D1D9
:1004E0000022FFF7EAFF02F083FF00BD00B581683C
:1004F0001E2907D10822FFF7E0FF0022FFF7E1FFE6
:1005000002F076FF00BD00B501691E290AD1102254
:10051000FFF7D3FF0822FFF7D4FF0022FFF7D1FF38
:1005200002F066FF00BD00B581691E290DD11822B9
:10053000FFF7C3FF1022FFF7C4FF0822FFF7C1FF38
:100540000022FFF7BEFF02F053FF00BD2000002095
:1005500000B50168282904D14368FFF73EFF036016
:10056000190000BD00B58168282904D1C368FFF7D0
:1005700034FF8360190000BD00B50169282904D14A
:100580004369FFF72AFF0361190000BD3EB5826889
:1005900003698469056A9A4203D0A24201D0AA4243
:1005A0000AD1072A08D847F8046DD600FFF760FF84
:1005B0001E43836002F01CFF3EBD3EB501688268A9
:1005C00003698469056A914206D0994204D0A14228
:1005D00002D0A94200D03EBD47F8046DCE00FFF71F
:1005E00047FF1E43036002F003FF3EBD00B5FFF767
:1005F00076FEFFF76AFEFFF73BFF036000BD01B523
:1006000006480368013308D00023DB43036047F842
:10061000046D4BF2005602F0EBFE01BDD8FF07203F
:10062000440620004202043264757000386847F8BE
:10063000046D043F3860704700B500F0C3FC00F063
:10064000C1FC00BD620620006202053264726F7058
:10065000043740CF704700B500F064FC00F062FC46
:1006600000BDA8062000440205327377617007CFF1
:10067000043F386047F8046D043F3A600E0070474D
:1006800000B5FFF750FF026803690360026142682A
:100690004369436042618268836983608261C268A2
:1006A000C369C360C26100BDD0062000620204328B
:1006B0006E69700007CF043F3860704700B5FFF7E0
:1006C00032FFFFF7DDFFFFF70AFEFFF708FE00BD70
:1006D000EA062000440005326F766572B86847F874
:1006E000046D043F3860FE6870470E072000440028
:1006F00005327475636B07CF043F386047F8046DAB
:10070000043F3A60043F3960043F38607047300767
:10071000200046000432726F74003868B9683A6984
:10072000B86039613A6079687E60FE68F960704748
:1007300052072000460005322D726F743868B96880
:100740003A6938613960BA60F968FE607E6879603C
:1007500070477A072000200203323E7201CF01B4B5
:1007600040B440CF704700B5FFF749FF00F0FDFBF4
:1007700000F09DFC00F09BFC00BDA60720002002BD
:100780000332723E47F8046D40BC01BC043F386040
:10079000704700B5FFF733FF00F0A5FC00F0A3FCA5
:1007A00000F0E3FB00BDD6072000200203327240B8
:1007B00047F8046D019E47F8046D009E704700B530
:1007C000FFF71DFF47F8046D49F6010603F041FBF2
:1007D00003F03BFB00BDFC072000200206327264E0
:1007E000726F700002B0704700B5FFF708FF47F85E
:1007F000046D4BF2020602F0FBFD00BD1408200060
:1008000042000364322F3868F1077610400808432D
:10081000386070472A08200062020364322A386870
:10082000001876413860704717E044082000420005
:100830000464736872003868F1077608400808435A
:1008400038607047900820006202046473686C008E
:100850003868001876413860704700B5FFF746FEEB
:10086000FFF776FEFFF7A9FE00F07FFBFFF770FEB3
:10087000FFF7A3FE47F8046D402601F0E7FC00F007
:1008800074FB47F8046D44F2401601F0DFFC00BD34
:10089000A20820004200046461627300002E07D4A5
:1008A0007047C0082000420007646E656761746588
:1008B00038680021C043F64301304E41386070472C
:1008C00010092000640202642D0007CF121AB14102
:1008D0000E00043F3A60704700B5FFF724FE00F0B9
:1008E00099FBFFF735FEFFF768FE00F03EFBFFF7D0
:1008F0002FFEFFF762FEFFF7C3FE01F011FC00F0D0
:10090000A5FB47F8046D44F2801600F04EFD00BDD3
:100910005E092000640202642B0007CF12184E41CA
:10092000043F3A60704700B5FFF7FDFD00F072FB31
:10093000FFF70EFEFFF741FE00F017FBFFF708FE82
:10094000FFF73BFEFFF79CFE01F0CFFB00F07EFBC4
:1009500047F8046D44F2401600F02BFD00BD8809F5
:100960002000610203733E6447F8046DF617704778
:1009700000B500F0C5FAFFF720FE47F8046D41F21C
:10098000C07601F063FC00BDE60920006202037539
:100990006D2A3868A0FB06063860704747F8046D7A
:1009A000DFF8006500B5FFF7A1FDFFF7D1FDFFF708
:1009B000D9FD01680E43816856EA0146FFF78FFCB6
:1009C000FFF78DFCFFF781FCFFF752FD036056EA4D
:1009D0000336FFF77AFCFFF74BFD036056EA032668
:1009E00002F036FD00BD040A20006202026D2A00FA
:1009F000386880FB06063860704747F8046DDFF8FA
:100A0000A864CFE7420A200044000375642A07CF98
:100A1000564341437618010C130C59437618010CC8
:100A200080B292B25143434350430022C91852410D
:100A30001204B6180A04090C80184E41043F3860AD
:100A40007047D40A200044000475646D2A0010B574
:100A5000002447F8046D7E6847F8046D3E69FFF78F
:100A600098FF310040CF300040CF47F8046D3E681A
:100A700047F8046DFE6803B4FFF78BFF03BC330037
:100A800040CF320040CF47F8046D3E6847F8046D10
:100A90003E690FB4FFF77DFF0FBC9219634140CF51
:100AA00089196241634140CF47F8046D7E6847F879
:100AB000046DFE680FB4FFF76CFF0FBC9219634121
:100AC00040CF89196241634140CF1E003A6079608E
:100AD000B86010BDF60A20004300022A2F0000B5BE
:100AE00040B440CFFFF784FF47F8046D40BC00F0EE
:100AF0004CF8043700BD180B20004300052A2F6D69
:100B00006F6400B540B440CFFFF772FF47F8046D43
:100B100040BC00F03AF800BD3A0B200043000375DA
:100B20002A2F00B540B440CFFFF733FF47F8046DDC
:100B300040BC00F01BF8043700BD5E0B20004300F2
:100B400006752A2F6D6F640000B540B440CFFFF7E3
:100B500020FF47F8046D40BC00F008F800BD7E0B94
:100B60002000430006756D2F6D6F640000B547F8D7
:100B7000046D002600F019F840CF043700BD9C0B2F
:100B800020004300056D2F6D6F6400B547F8046DBC
:100B9000F61700F032F840CF043700BDEE0B20000E
:100BA00044000675642F6D6F640030B4002300228A
:100BB0007968B86835003C68402640004941524198
:100BC0005B41AB4202D804D3A24202D3121BAB4119
:100BD0000130013EF1D10E0038607B60BA6030BC5C
:100BE000704730B400237A68B9680020E2E7640CEB
:100BF0002000440005642F6D6F6400B5F01719D014
:100C0000FFF756FEFFF733FDF0170CD0FFF750FE4D
:100C1000FFF72DFDFFF7C9FFFFF729FDFFF748FE9E
:100C2000FFF725FD00BDFFF722FDFFF7BEFFFFF731
:100C30003FFE00BDFFF71BFDF0170ED0FFF738FE9B
:100C4000FFF715FDFFF7B1FFFFF732FEFFF70FFDCE
:100C5000FFF72EFEFFF70BFD00BDFFF708FDFFF7C6
:100C6000A4FF00BD7A0C2000440002642F0000B5F0
:100C7000FFF7C3FFFFF71EFD00BDC20C20004400BC
:100C800002662A0000B5F0170DD0FFF711FEFFF73E
:100C9000EEFCF0170DD0FFF70BFEFFF7D8FE40CFAC
:100CA00001CF386000BDFFF7E2FCF017F5D0FFF789
:100CB000FFFDFFF7CCFE40CF01CF3860FFF7F8FD16
:100CC00000BD0E0D2000440002662F0000B5F01795
:100CD0000ED0FFF7EDFDFFF7CAFCF0170ED0FFF7BF
:100CE000E7FDFFF7C4FCFFF77CFFFFF7E3FC00BD67
:100CF000FFF7BDFCF017F4D0FFF7DAFDFFF7B7FC04
:100D0000FFF76FFFFFF7D4FDFFF7D4FC00BD560DD2
:100D1000200020020232210006CF3160726040CFF5
:100D2000704700B5FFF7EFFB0168426806B400F0BA
:100D30000CFEFFF7CAFA06BC0160282906D047F866
:100D4000046D46F2400600F004FE00BD043242602D
:100D500000F0FBFD00BDA00D20002002023240008B
:100D6000043F706838603668704700B500F0C8F816
:100D7000016828290AD047F8046D46F6400600F0BD
:100D8000C5FD00F0F2F800F0BDFD00BD4168043182
:100D9000416000F0B7FD00F0E8F800F0B3FD00BDE1
:100DA000B40D200044000364753C07CF121AB14112
:100DB000B6417047C80D200044000364753E07CF5C
:100DC000801A8E41B6417047DE0D20004400026457
:100DD0003C0007CF121AB1410CDB00267047FA0D18
:100DE0002000440002643E0007CF801A8E4101DBE0
:100DF000002670470026F6437047160E2000620258
:100E00000364303C0437F617704700B500F0C0F8B3
:100E100000F058FB00BD3E0E200062020364303D2E
:100E200001CF0643013EB641704700B547F8046D57
:100E300044F2003600F0BDFA00F01EFB00BD640E67
:100E40002000440203643C3E07CF50404E4006431E
:100E5000013EB641F643704700B500F015F800F0CA
:100E60001FFB00BDAC0E2000440202643D0007CF12
:100E700050404E400643013EB641704700B500F079
:100E800003F800F0F9FA00BD00B5FFF74CFB00F0E5
:100E9000C1F800F0C3F900F0D9F800F0BFF900F094
:100EA000B0F900BD0000A0FB000080FBBE0E2000DA
:100EB00020000373704047F8046D3E007047CE0E6B
:100EC0002000200003737021370040CF7047E00EF0
:100ED000200020000372704047F8046D6E46704792
:100EE000F00E2000200003727021B54640CF7047FD
:100EF000140F200061020364757047F8046D704799
:100F000006B5FFF7E9FA01684268FFF7DEF901600C
:100F1000426006BD400F200061020464726F7000E1
:100F200040CF704700B501681E2906D147F8046D0F
:100F300043F2047602F05CFA00BDFFF7D0F900BD81
:100F4000560F20006100043F64757000002E01D030
:100F500047F8046D7047820F2000620204737761C6
:100F6000700039683E600E0070470CB5FFF7BEFA9E
:100F700002688368036082604268C3684360C2603D
:100F80000CBDB00F20006202036E69700437704719
:100F900000B5FFF7A1FA81681E2902D0FFF7A5F975
:100FA00000BD47F8046D43F2047602F021FA00BD5B
:100FB000D80F20006202046F7665720047F8046D56
:100FC0007E68704700B5FFF791FA8168C268FFF745
:100FD0007CF90160426000BDFE0F200062020474D3
:100FE00075636B0001CF083F7E603860704700B5C5
:100FF000FFF77CFAFFF784FF00F028F800BD3410FB
:101000002000630203726F7403CF083F78603E6074
:101010000E0070470EB5FFF776FA01688268036923
:101020008160026103604168C2684369C1604261D6
:1010300043600EBD581020006302042D726F7400CF
:1010400003CF083F7E6039600600704700B5FFF7A8
:10105000E1FFFFF7DFFF00BD6A10200020000470F1
:1010600069636B0057F8266070478210200000000B
:101070000564657074684F49C91B47F8046D8E108C
:1010800070479E102000000006726465707468004E
:1010900047F8046D6E464849891B8E107047D4107E
:1010A00020002002023E720040B440CF704700B5DD
:1010B000FFF7A5FAFFF710FAFFF74AFA47F8046DB1
:1010C0004BF2004601228A40164302F091F9FFF7E5
:1010D00006F900BD0A112000200202723E0047F806
:1010E000046D40BC704700B5FFF789FAFFF7EDF8D3
:1010F000FFF7BEF9036047F8046D4BF60046012286
:101100009A40164302F074F900BD28112000200215
:101110000272400047F8046D009E704700B5FFF76B
:101120006EFA02F092FE00BD4C1120002002057202
:1011300064726F7001B0704700B5FFF760FA47F84E
:10114000046D4BF2010602F053F900BD601120005E
:10115000200005727069636BB6006E443668704794
:101160008C112000000004726F6C6C00002E01D105
:1011700040CF7047B0003958C019031F1A68026089
:101180000438013EF9D104370E007047BC1120002D
:101190000000052D726F6C6C002E01D140CF70479E
:1011A000386839464A680A600431013EFAD108605D
:1011B00040CF70478802002088030020D61120000D
:1011C000620203616E6401CF0640704747F8046D08
:1011D00044F20006EDE0F21120006202036269634E
:1011E00001CFB0430600704747F8046D44F28036E3
:1011F000DBE00C1220006202026F720001CF064396
:10120000704747F8046D44F20036D2E02612200001
:10121000620203786F7201CF4640704747F8046D51
:1012200044F24006C5E03E1220006202012A01CFCE
:101230004643704747F8046D44F24036B9E07212F5
:101240002000610203636C7AB6FA86F6704700B537
:10125000FFF742F947F8046D7E4EFFF779F90E4328
:1012600056EA0146FFF7C2F956EA032602F0F0F803
:1012700000BD90122000611803726F720120C641F8
:1012800070470200010000000020BC122000620232
:10129000AE122000611803726F6C1F20C6417047A8
:1012A00002001F0000000020BC1220006202CE12CB
:1012B000200062020772726F7461746501CFF041A1
:1012C0000600704747F8046D44F2C0166DE006133F
:1012D00020006202076172736869667401CF304151
:1012E0000600704700B547F8046D44F2001647F851
:1012F000046D41F20006FFF7F9F841681F292AD969
:101300001F21416027E030132000620206727368DB
:101310006966740001CFF0400600704700B547F8D9
:10132000046D44F2C00647F8046D40F6000612E072
:10133000681420006202066C73686966740001CF4D
:10134000B0400600704700B547F8046D44F28006CF
:1013500047F8046D0026FFF7C9F80168282903D073
:1013600040CF00F022F800BD04374168FEF7B7FF18
:10137000002901D140CF00BD1F290AD889010E43A1
:101380000268D2001643FFF731F91E4302F030F82D
:1013900000BD40CFFFF72AF947F8046D42F200067E
:1013A0001B021E4302F024F800BD0FB5FFF79EF8A4
:1013B0000CE00FB5FFF79AF80168062901D1FFF795
:1013C000D4FD8268282A01D1FFF7CFFDFFF7CAF8C4
:1013D000016828291ED147F8046D466801F0EAFB30
:1013E00002CF002E40CF15D0B6F5804F01D11A4E56
:1013F0001EE044F24002964201D1184E18E0B6F5C4
:10140000864F01D1164E13E04FF48742964201D128
:10141000144E0DE0FFF7BAF8FFF79AF8C90082689A
:101420000E43164301F0E4FFFEF759FF0FBD0FB561
:101430000E43816856EA0146FEF751FFFEF74FFF63
:10144000FEF743FFFFF714F8036056EA032601F0A6
:10145000FFFF0FBD80F0B0FA000010F0000090F028
:10146000000050F0000030F08E14200061020230C5
:101470003D00013EB641704700B500F0FBF800F0BA
:10148000A2FEFEF72CFF4FF45241816200BDB6145C
:101490002000610203303C3E013EB641F6437047F6
:1014A00000B500F0E7F800F08EFEFEF718FF4FF4ED
:1014B0005341816200BDDE142000610202303C0015
:1014C000F617704700B500F0D5F847F8046D41F203
:1014D000C07600F0BBFE4FF45541816200BDF414AC
:1014E0002000600004747275650047F8046D0026E2
:1014F000F64370470815200060000566616C73654F
:1015000047F8046D002670472E1520004202023E67
:101510003D0001CFB042EADA0026704747F8046D7B
:101520004DF6003647F8046D4DF60026AEE0541532
:1015300020004202023C3D0001CFB042D7DD002630
:10154000704747F8046D4DF6004647F8046D4DF6B8
:1015500000569BE0781520004202013C01CFB042CA
:10156000C5DB0026704747F8046D4DF6002647F8A6
:10157000046D4DF6003689E09C1520004202013EC4
:1015800001CFB042B3DC0026704747F8046D4DF63A
:10159000005647F8046D4DF6004677E0C21520006E
:1015A000620203753E3D01CF861BB641F64370478C
:1015B00047F8046D4DF2003647F8046D4DF20026F1
:1015C00064E0E8152000620203753C3D01CF361A45
:1015D000B641F643704747F8046D4DF6000647F8EC
:1015E000046D4DF6001651E00C16200062020275E3
:1015F0003C0001CF861BB641704747F8046D4DF2A1
:10160000002647F8046D4DF200363FE0301620000A
:10161000620202753E0001CF361AB641704747F8A4
:10162000046D4DF6001647F8046D4DF600062DE0EA
:10163000541620006202023C3E0001CF361A013EE1
:10164000B641F643704747F8046D4DF2000647F87F
:10165000046D1BE0B61720006202013D01CF361A6F
:10166000013EB641704747F8046D4DF2001647F849
:10167000046D0BE000B5FEF72FFFFEF767FEFEF7E7
:101680006AFEFEF76DFEFEF76DFF00BD00B5FEF7CA
:101690002DFFFEF75BFEFEF75EFEFEF76DFF826834
:1016A000282A05D1FFF761FC39683E600E46826842
:1016B00040CF016828291DD14168FF2907D847F884
:1016C000046D42F600060E43816809021AE047F8ED
:1016D000046D466801F06EFA02CF002E40CF09D0AB
:1016E00047F8046D6A4E0E43816856EA014601F0E0
:1016F000AFFE0AE0FEF72CFF47F8046D44F28026A7
:10170000C90016430E4301F073FEFEF7E8FDFEF735
:10171000E6FD866240CF00BD0FB55E48816A0029B4
:1017200035D047F8046D866A00218162310AD529D7
:1017300001D140CF0FBDFEF7C8FDFEF799FE036053
:10174000D22904D14FF4834600F080FD0FBDD32988
:1017500006D14FF4834600F079FD00F08AFD0FBDFD
:10176000023601F045FE47F8046D42F2000600F033
:101770000FF800F07EFD47F8046D4EF2000601F010
:1017800037FE47F8046D42F2000600F001F80FBD85
:1017900000B5FEF7A1FEFEF710FF016809020E4337
:1017A00001F026FE00BD00B5816A090AD52901D1E4
:1017B000FEF795FD00BDD41720006202036D696E2F
:1017C00001CFB04200DC0600704747F8046D4DF6CB
:1017D00000362DE0F21720006202036D617801CF20
:1017E000B04200DB0600704747F8046D4DF6004636
:1017F0001EE012182000620204756D61780001CFAE
:10180000B04200D30600704747F8046D4DF600065D
:101810000EE098182000620204756D696E0001CF19
:10182000B04200D80600704747F8046D4DF200360C
:1018300000B5FEF75BFE01688268914203D140CF9C
:10184000FEF753FD00BD062A01D1FFF78EFB0168AC
:10185000282901D1FFF789FBFEF7AFFEFEF782FED4
:10186000C900026847F8046D44F280260E4316430F
:1018700001F0BEFD01F0BCFD47F8046D44F20066C6
:101880000E43164301F0B4FDFEF72FFD00BD00002E
:10189000000FB0F120000020D61820000000046DD9
:1018A0006F76650007B5310040CF320040CF002988
:1018B0000FD0B2420DD006D3013E013A705C5054B5
:1018C0000139FBD105E03078107001360132013961
:1018D000F9D140CF07BDF818200000000466696CFC
:1018E0006C00300040CF310040CF002902D00139D8
:1018F0007054FCD140CF70473A19200020020140BB
:101900003668704747F8046D46F6000600B5FEF7E6
:10191000E3FD0368282B08D143687C2119400901A5
:101920000E437C218B43FEF764FDDB001E43FEF774
:101930005DFE1E4301F05CFD00BD921920002002F7
:10194000012103CF30600E00704747F8046D46F266
:10195000000600B5FEF7CAFD0368282B09D14368CD
:101960007C21194009010E437C218B43FEF741FD88
:101970000360DB001E438368282B02D1C368FEF797
:101980002CFD1E4301F034FDFEF7A9FCFEF7A7FC79
:1019900000BDC81920002002022B210003CF3268AD
:1019A000121832600E00704700B5FEF79FFDFFF77A
:1019B000A7FAFFF7A7FFFFF72DFB00F096FBFFF755
:1019C000D4FAFFF7C2FF00BD0C1A20002002026803
:1019D00040003688704700B5FEF77EFD47F8046D7D
:1019E00048F600060368282B08D143683E211940B9
:1019F00049010E433E218B43FEF7FBFCDB001E43F7
:101A0000FEF7F4FD1E4301F0F3FC00BD661A200052
:101A100020020268210003CF30800E00704700B51D
:101A2000FEF764FD47F8046D48F200060368282BB2
:101A300009D143683E21194049010E433E218B43A1
:101A4000FEF7D7FC0360DB001E438368282B02D11E
:101A5000C368FEF7C2FC1E4301F0CAFCFEF73FFC60
:101A6000FEF73DFC00BD9C1A2000200203682B21DC
:101A700003CF3288121832800E00704700B5FEF78F
:101A800035FDFFF73DFAFFF7A6FFFFF7C3FA00F0B9
:101A90002CFBFFF76AFAFFF7C2FF00BDE01A200037
:101AA0002002026340003678704700B5FEF714FD4F
:101AB00047F8046D47F600060368282B08D14368F1
:101AC0001F21194089010E431F218B43FEF791FC12
:101AD000DB001E43FEF78AFD1E4301F089FC00BDBA
:101AE0003A1B200020020263210003CF30700E0059
:101AF000704700B5FEF7FAFC47F8046D47F20006A0
:101B00000368282B09D143681F21194089010E431E
:101B10001F218B43FEF76DFC0360DB001E438368CF
:101B2000282B02D1C368FEF758FC1E4301F060FC6D
:101B3000FEF7D5FBFEF7D3FB00BD701B2000200293
:101B400003632B2103CF3278121832700E007047D6
:101B500000B5FEF7CBFCFFF7D3F9FFF7A6FFFFF7C1
:101B600059FA00F0C2FAFFF700FAFFF7C2FF00BD12
:101B7000941B2000200204626973210003CF3268A5
:101B8000024332600E00704700B547F8046D44F21E
:101B9000003630E0D41B200020020462696321007B
:101BA00003CF3268824332600E00704700B5FEF703
:101BB0009DFCFFF7A5F9FFF7A5FEFFF72BFA47F805
:101BC000046D44F28036FFF7F0FBFFF7CEF9FFF724
:101BD000BCFE00BD141C2000200204786F7221009E
:101BE00003CF3268424032600E00704700B547F8BC
:101BF000046D44F24006FEF779FCFFF781F9FFF728
:101C000081FEFFF707FAFFF7D4FBFFF7AEF9FFF706
:101C10009CFE00BD4A1C2000200204626974400042
:101C200001CF3668064018BF4FF0FF36704700B549
:101C3000FEF75CFCFFF766FE47F8046D44F2000611
:101C4000FFF7B7FBFFF72CFC00BD6E1C2000200245
:101C500005686269732103CF3288024332800E0027
:101C6000704700B547F8046D44F2003630E0AE1C12
:101C70002000200205686269632103CF3288824315
:101C800032800E00704700B5FEF730FCFFF738F9E0
:101C9000FFF7A1FEFFF7BEF947F8046D44F2803666
:101CA000FFF783FBFFF761F9FFF7B9FE00BDEE1CFC
:101CB000200020020568786F722103CF32884240ED
:101CC00032800E00704700B547F8046D44F24006BC
:101CD000FEF70CFCFFF714F9FFF77DFEFFF79AF90A
:101CE000FFF767FBFFF741F9FFF799FE00BD141DF1
:101CF0002000200205686269744001CF36880640E2
:101D000018BF4FF0FF36704700B5FEF7EFFBFFF747
:101D100062FE91E7381D200020020563626973218D
:101D200003CF3278024332700E00704700B547F897
:101D3000046D44F2003630E0781D20002002056377
:101D40006269632103CF3278824332700E0070479C
:101D500000B5FEF7CBFBFFF7D3F8FFF7A6FEFFF7C2
:101D600059F947F8046D44F28036FFF71EFBFFF780
:101D7000FCF8FFF7BEFE00BDB81D20002002056381
:101D8000786F722103CF3278424032700E00704774
:101D900000B547F8046D44F24006FEF7A7FBFFF7D5
:101DA000AFF8FFF782FEFFF735F9FFF702FBFFF709
:101DB000DCF8FFF79EFE00BDDE1D2000200205635B
:101DC0006269744001CF3678064018BF4FF0FF3685
:101DD000704700B5FEF78AFBFFF767FE2CE79A1EF7
:101DE000200000000768666C61736821300040CFF6
:101DF000310040CF4FF40213984234D34FF48003A4
:101E0000984230D24FF6FF73194099422AD010F011
:101E10000102002A27D1028802EA01028A4222D165
:101E200030F07F4030F4700010F10060974A984B1A
:101E30001360984B1360984A40F2011313601368C3
:101E400040F201129342F6D1BFF34F8F0180BFF3EE
:101E50004F8F924A136813F48033FBD18E4A4FF0B0
:101E600000431360704700F041FD2A57726F6E67A0
:101E70002061646472657373206F722064617461A1
:101E800020666F722077726974696E6720666C6174
:101E9000736820210A0002F037BD0A1F20000000ED
:101EA0000763666C61736821300040CF310040CF1A
:101EB0004FF402139842D6D34FF480039842D2D203
:101EC00011F0FF01FF291FD00278FF2ACBD130F09B
:101ED0007F4030F4600010F100606C4A6C4B13607E
:101EE0006C4B13606C4A4FF001031360BFF34F8FCC
:101EF0000170BFF34F8F694A136813F48033FBD12D
:101F0000654A4FF0004313607047821F20000000B5
:101F1000106572617365666C617368736563746F75
:101F2000720000B5012E2AD3082E28D2574A584BEA
:101F30001360584B136000F0D9FC0D457261736556
:101F400020736563746F722047F8046D02F02DFBF7
:101F5000514A534BF60033431360504A136813F44D
:101F60008033FBD14C4A4FF00043136000F0BEFCBD
:101F70000C66726F6D20466C6173682E0A0040CF4C
:101F800000BDDC20200000000A6572617365666C8C
:101F90006173680072B600B5424843490268B2F105
:101FA000FF3F05D047F8046D0126FFF7BAFF02E0B6
:101FB00004308842F2D33D483D490268B2F1FF3F08
:101FC00005D047F8046D0226FFF7ABFF02E00430AE
:101FD0008842F2D3374838490268B2F1FF3F05D052
:101FE00047F8046D0326FFF79CFF02E004308842A7
:101FF000F2D3324832490268B2F1FF3F05D047F8C8
:10200000046D0426FFF78DFF02E004308842F2D30E
:102010002C482D490268B2F1FF3F05D047F8046D06
:102020000526FFF77EFF02E004308842F2D32748FE
:1020300027490268B2F1FF3F05D047F8046D062634
:10204000FFF76FFF02E004308842F2D321482249B3
:102050000268B2F1FF3F05D047F8046D0726FFF78D
:1020600060FF02E004308842F2D300F03FFC1246E9
:10207000696E69736865642E2052657365742021EA
:102080000A005DF804EB02F0CEBC0000043C024004
:1020900023016745AB89EFCD103C02400C3C024068
:1020A0000200010000800008FFFF00080000010896
:1020B000FF7F010800800108FFFF010800000208FF
:1020C000FFFF030800000408FFFF070800000808DE
:1020D000FFFF0B0800000C08FFFF0F081221200073
:1020E0006202012B01CF3618704700B5FEF7FEF9EA
:1020F00047F8046D43F2000647F8046DC94E47F8EF
:10210000046D41F600068168282917D1FEF72DFFDE
:1021100014E0B82120006202012D01CF861B704718
:1021200000B5FEF7E3F947F8046D43F6000647F8FB
:10213000046DBD4E47F8046D41F60026FEF712FA15
:102140000168282927D14168FF290CD840CF40CF0A
:10215000FEF71CFA0E43816809020E4301F048F9AC
:10216000FEF7BDF800BD47F8046D0E0000F022FD3B
:1021700002CF002E40CF0ED040CF04370E438168EF
:1021800056EA0146FEF7ABF8FEF730FA56EA0326A8
:1021900001F05EF900BD04370437FEF7D9F9890173
:1021A0008268D2000E431643FEF799F8FEF71EFA36
:1021B0001E4301F01DF900BDD02120006102023153
:1021C0002D00013E704747F8046D41F640663DE042
:1021D000E8212000610202312B000136704747F8E8
:1021E000046D41F6404631E00022200061020232D7
:1021F0002D00023E704747F8046D41F6806625E0E9
:1022000018222000610202322B000236704747F884
:10221000046D41F6804619E0322220006102056318
:10222000656C6C2B0436704747F8046D41F6005618
:102230000CE0642220006102066E6567617465002F
:102240007642704747F8046D44F2402600B5FEF729
:1022500043F90168C9000E43FEF7C8F91E4301F0B7
:10226000C7F800BD7C2220006102036E6F74F64344
:10227000704747F8046D44F2C036E7E79422200027
:102280006102037368727608704747F8046D40F680
:102290004006DBE7A422200061020373686C76002D
:1022A000704706E0BA222000610202322A0076005E
:1022B000704747F8046D4026C8E7D222200061022B
:1022C0000563656C6C73B600704747F8046D802633
:1022D000BCE7EA222000610202322F00761070472C
:1022E00047F8046D41F24006B0E72A23200061025E
:1022F00003616273F01736184640704700B5FEF769
:10230000EBF847F8046D00260168C9000E43FEF79C
:102310006DF91E4301F06CF847F8046D4DF200565C
:1023200001F066F8FFF78EFF00BD48232000420051
:1023300005752F6D6F6401CF3100B0FBF6F6714368
:10234000401A043F38607047662320004200042F83
:102350006D6F640001CF310090FBF6F67143401AB7
:10236000043F386070477A2320004200036D6F6499
:1023700000B5FFF7EFFF40CF00BDBA232000620297
:10238000012F01CF90FBF6F6704700B5FEF7AEF8CF
:10239000FEF7DEF8FEF7E6F847F8046D234E016815
:1023A0000E43816856EA0146FDF799FFFEF71EF9D4
:1023B00056EA032601F04CF800BDCE232000610050
:1023C000046576656E000120304036187047E623BC
:1023D0002000810004626173650047F8046D144EAB
:1023E00070470A000000FC23200000000662696EAE
:1023F000617279000E4802210160704712242000AA
:10240000000007646563696D616C09480A21016019
:102410007047B82420000000036865780448102144
:1024200001607047000010F10000B0F1F0F090FB87
:10243000FCFF07201949086850F00F0050F4FE60B7
:1024400008601749086820F4403050F400300860F4
:102450001349086820F4402050F400200860114916
:10246000086820F00F0050F0070008600D49086868
:1024700020F0F00050F0700008600B49086850F43C
:102480008020086009498B20086009494FF480507A
:10249000086008494FF00D0008607047303802406E
:1024A000000C0240240C0240403802400C4800401E
:1024B0000848004000480040D424200081000968FA
:1024C0006F6F6B2D656D697447F8046D614E7047D1
:1024D000BE252000F0242000810008686F6F6B2D5E
:1024E0006B65790047F8046D5B4E7047E42520006A
:1024F0000E25200081000A686F6F6B2D656D697471
:102500003F0047F8046D554E70470E2620002A25DF
:102510002000810009686F6F6B2D6B65793F47F86C
:10252000046D4F4E70473A26200048252000810058
:102530000A686F6F6B2D70617573650047F8046DE5
:10254000484E7047D64920005E25200000000465F3
:102550006D6974000FB53F4800F026F80FBD722575
:1025600020000000036B65790FB53B4800F01CF8B4
:102570000FBD84252000000005656D69743F374854
:1025800000688746962520000000046B65793F00AF
:10259000334800688746AC2520000000057061754F
:1025A000736530480068874600688746D22520005A
:1025B00000000B73657269616C2D656D697400B5FF
:1025C00000F025F8002E40CFFAD0274A167040CFF1
:1025D00000BDFA25200000000A73657269616C2D48
:1025E0006B65790000B500F028F8002E40CFFAD0D6
:1025F00047F8046D1D4A167800BD2826200000000B
:102600000C73657269616C2D656D69743F0000B56E
:10261000FFF7C7FF47F8046D0026154801688020C2
:10262000014000D0F64300BD7426200000000B736B
:10263000657269616C2D6B65793F00B5FFF7B1FF7D
:1026400047F8046D00260A4801682020014000D0A8
:10265000F64300BDF8FF0720F4FF0720F0FF072036
:10266000ECFF0720E8FF07202848004024480040EE
:102670001C480040982620000000076365787065BC
:10268000637400B5386801B40130386000F00BF8AD
:1026900001BC067040CF00BD0E272000000006617F
:1026A00063636570740000B502CF01390022FFF743
:1026B0005BFF300040CF7F2809D0202819D209289D
:1026C00016D00A281FD00D281DD00828EFD1002AC7
:1026D000EDD000F00BF903082008002AE7D0885C51
:1026E000013A80230340E2D040230340F5D0DEE7E7
:1026F0002020B242DBD247F8046D0600FFF72AFF24
:1027000001328854D3E7160000F09FF800BD20275F
:10271000200040000374696247F8046D294E704739
:10272000362720008100033E696E47F8046D264E6F
:102730007047000000005C27200082000E63757265
:1027400072656E742D736F757263650047F8046D62
:102750001E4E704700000000C000002078272000B7
:10276000000009736574736F75726365174802CF53
:102770000660416040CF7047962720000000067336
:102780006F757263650047F8046D104E043F706802
:10279000386036687047D0272000000005717565E5
:1027A00072790FB5084800210160FFF7B5FF47F8BF
:1027B000046D47F8046DC826FFF775FFFFF7D6FFD5
:1027C0000FBD0000C0000020E4FF0720DCFF072051
:1027D00018282000000007636F6D706172650FB5E7
:1027E000310040CF01CF884202CF10D1002810D055
:1027F00001380A5C335C412A02D35B2A38BF20329D
:10280000412B02D35B2B38BF20339A42EED00026F7
:102810000FBD0026F6430FBD2C28200000000263E8
:10282000720000B500F062F8010A00BD3E282000E9
:10283000000002626C0047F8046D202670475228A1
:102840002000000005737061636547F8046D202661
:1028500080E67228200000000673706163657300D3
:1028600000B5002E03DDFFF7F0FF013EFBD140CFA6
:1028700000BD822820005000065B636861725D0025
:1028800005E09A282000000004636861720000B52A
:1028900001F0BCFC40CF367800BDAA2820005004CF
:1028A000012847F8046D292606E0C42820005004BA
:1028B000015C47F8046D002600B501F0B1FC043757
:1028C00040CF00BD082920003000022E2200AA4877
:1028D00000B547F8046D060000F07DFA47F8046D76
:1028E000222601F09DFC00F0BEFD00BD0AB447F8B1
:1028F000046D7646013E33780121013319405B189F
:102900001EEB030E0ABC39E02E29200030000263C2
:1029100022009A48DCE747F8046D7646013E33789A
:102920000121013319405B181EEB030E7047582933
:1029300020003000027322009148C9E747F8046D77
:10294000764647F8046D013E36780121731C194024
:102950005B181EEB030E7047702920000000056312
:102960006F756E74013647F8046D013E3678704716
:1029700088292000000005637479706500B5FFF7B1
:10298000F1FF00F007F800BDB0292000000004743A
:102990007970650001B501CF002E07D047F8046DAE
:1029A0000678FFF7D7FD0130013EF7D140CF01BDDA
:1029B000EA2920000000046865782E0007B5310080
:1029C00040CF20200F22043847F8046D0E00C64087
:1029D0001640092E01D9373600E03036FFF7BAFD30
:1029E0000028F0D1FFF731FF07BDFA2920000000D1
:1029F00003682E731FB5634C0EE00A2A2000000006
:102A000003752E731FB5604C06E0AE2A200000004F
:102A1000022E73001FB55D4C5D49C91B8908220A4F
:102A20002020292F200A2028273E200A202F434338
:102A30002020203335204343430A385C29295F2076
:102A40000A0A544A106803B40A201060FFF74EFFC8
:102A500008537461636B3A205B0047F8046D0E0005
:102A600001F0ABFDFFF742FF025D200003BC2736FB
:102A7000484A106000290AD0474A106806B447F84F
:102A8000046D0600A04706BC043A0139F5D1FFF7F2
:102A90002DFF0620544F533A200047F8046D3600AE
:102AA000A047FFF723FF04202A3E0A001FBD4E2B3C
:102AB0002000000005776F72647300B5FFF716FF02
:102AC000010A00F023FFFFF711FF094164647265FA
:102AD00073733A2047F8046DFFF770FFFFF706FFA6
:102AE000064C696E6B3A200047F8046D3668FFF7B4
:102AF00065FFFFF7FBFE07466C6167733A2047F8F6
:102B0000046DB688FFF75AFFFFF7F0FE06436F64C7
:102B1000653A2000B01D00F047FF47F8046D06003D
:102B2000FFF74CFFFFF7E2FE064E616D653A2000AD
:102B300047F8046D0636FFF721FFFFF7D7FE010ABD
:102B400000F0FCFE300040CFBDD040CF00BDA02B38
:102B50002000000006756E757365640000B500F016
:102B6000F8FF0E4801684FF00052914201D24FF435
:102B70008006761A00BD0000EC28200016292000EF
:102B80003C292000BD292000AB452000BB4520008A
:102B900088020020FCFF072084020020D0FF0720CD
:102BA000042D200000000D3132626974656E636F80
:102BB00064696E670FB5FF2E04D847F8046D5FF0A7
:102BC000FF360FBD16F0FF10B0420ED14FF6FF7169
:102BD0000840310C814208D116F0FF0656F48056A9
:102BE00047F8046D5FF0FF360FBD16F0FF20B042CE
:102BF0000FD14FF6FF710840310C814209D1360ADE
:102C000016F0FF0656F4005647F8046D5FF0FF36E5
:102C10000FBDFF2231001140300A1040884210D110
:102C2000300C104088420CD1300E1040884208D140
:102C300016F0FF0656F4405647F8046D5FF0FF3675
:102C40000FBD300000210131001850F100007FF06D
:102C50007F020240802A05D01F29F4D347F8046D73
:102C600000260FBD0829F9D3060036F0800611F0C2
:102C70000100C001064311F00E00C002064311F02E
:102C800010008005064347F8046D5FF0FF360FBD66
:102C900047F8046DDFF8BC655FF4704110EA01028B
:102CA000120116435FF4006110EA0102D2031643D9
:102CB0005FF4E06110EA010212011643FF2110EAFD
:102CC000010216431E43C3E347F8046DDFF888652D
:102CD0005FF0704110EA0102120B16435FF00061D1
:102CE00010EA0102520816435FF0E06110EA0102A7
:102CF000120B16435FF47F0110EA0102120C164317
:102D00001E43A5E36A2D20000000107265676973F9
:102D10007465726C69746572616C2C000FB5330058
:102D200040CF1B02FF2E05D856F400561E4300F07C
:102D30005FFB0FBDFFF73EFF002E40CF06D0DFF850
:102D40001C0506431E4300F083FB0FBDF643FFF74F
:102D500031FF002E40CF06D0DFF8040506431E43A6
:102D600000F076FB0FBDF6430BE0CA2D20000000FB
:102D7000096D6F76776D6F76742C0FB5330040CF89
:102D80001B02300040CFFFF783FF4FF6FF7110EAC0
:102D9000014001D0FFF798FF0FBD0FB5013630009D
:102DA00040CF0023FFF774FFFFF78EFF06E00FB55B
:102DB000013647F8046D0026FFF7B0FF47F8046DB1
:102DC00044F2807600F014FB0FBD302E200000008E
:102DD0000563616C6C2C0FB5330000F0ABFE300066
:102DE00040CF1B1A043BDFF87C141940002906D0A1
:102DF000DFF87424914202D0BDE80F40D7E740CFFE
:102E00005B08DFF8680440F2FF7119400843DB0AF1
:102E100040F2FF311940090408439B0A13F00101F5
:102E20008906084347F8046D060000F011FB0FBD4A
:102E3000662E20000000086C69746572616C2C00BD
:102E400008B547F8046D4FF6470600F0D1FA47F889
:102E5000046D46F6045600F0CBFA47F8046D0626DA
:102E6000FFF75CFF08BD8E2E200000000663726530
:102E70006174650000B500F035F842F6AF60C0F24D
:102E80002000804747F8046DBEF1010600BDD62E34
:102E90002000200005646F65733E42F6AF60C0F20B
:102EA0002000804747F8046DBEF10106704747F8DF
:102EB000046DBEF10106EE4A1368EE49096802206E
:102EC000084000D0023102311160FFF766FF136045
:102ED00000F0E5F900BD122F20000000073C6275EC
:102EE000696C647300B500F0E5FB00F023FE02207E
:102EF000064040CF01D000F06DFA47F8046D4BF268
:102F0000005600F075FA47F8046D0A2600F0DEFA64
:102F100000BD1E2F20005000035B275D03E0362F0D
:102F200020000000012700B501F070F900F09FFDBE
:102F3000300040CF00BD6C2F2000300008706F7350
:102F400074706F6E650000B5FFF7EDFF47F8046D14
:102F5000060039683E600E46FFF772FFFFF770FF0C
:102F600047F8046DC44EFFF736FF00BDC22F2000A6
:102F7000000007696E6C696E652C00B54BF200515C
:102F80004BF6005244F270733088884208D0904269
:102F900008D0984206D047F8046D060000F028FAE1
:102FA0000236F1E740CF00BD0EB44BF6005244F2BA
:102FB000707301880230914201D09942F9D10EBC60
:102FC0007047D82F20000000047265742C0047F869
:102FD000046D4BF600560BE2E62F2000300004652E
:102FE00078697400F3E7FE2F2000300007726563F4
:102FF0007572736547F8046D9E4E3668EBE61630C1
:103000002000810005737461746547F8046D9B4E60
:10301000704700000000283020000000015D974844
:103020000021C94301607047383020001000015B67
:103030009248002101607047583020000000013A9A
:1030400000B58F48076000F035FB8C480121016016
:103050008C480021016000BDD43020003008013BC5
:1030600000B587480168B94214D087498E4202D121
:10307000864EFFF783FCFFF739FC1520537461631C
:103080006B206E6F742062616C616E6365642E0AE2
:1030900001F03ABC79480068411C10D00B2805D8D3
:1030A00047F8046D40F6200600F02CF947F8046D4F
:1030B00044F2707600F09CF901F026FB05E047F839
:1030C000046D4BF6005600F093F900F0E8F8FFF7B6
:1030D000AFFF00BDE830200000000765786563752C
:1030E0007465300040CF8746003120001000096928
:1030F0006D6D65646961746547F8046D102601E1C2
:1031000016312000500006696E6C696E650047F844
:10311000046D2026F6E03031200010000B636F6D47
:1031200070696C656F6E6C7947F8046D3026E9E064
:103130004A31200050000A302D666F6C6461626C69
:10314000650047F8046D4026DCE064312000500043
:103150000A312D666F6C6461626C650047F8046D1E
:103160004126CFE07E31200050000A322D666F6C80
:103170006461626C650047F8046D4226C2E09831D4
:10318000200050000A332D666F6C6461626C65002C
:1031900047F8046D4326B5E0B231200050000A34F0
:1031A0002D666F6C6461626C650047F8046D44269F
:1031B000A8E0CC31200050000A352D666F6C6461A8
:1031C000626C650047F8046D45269BE0E6312000FF
:1031D00050000A362D666F6C6461626C650047F8BA
:1031E000046D46268EE00032200050000A372D661E
:1031F0006F6C6461626C650047F8046D472681E07E
:1032000030322000000008636F6E7374616E7400CA
:1032100000B500F04FFAFFF713FE47F8046D44F2D3
:10322000707600F0E5F8FFF78CFF00F038F800BD8D
:103230009032200000000932636F6E7374616E7407
:1032400000B500F037FA39683E600E46FFF7F8FD2A
:10325000E1E70000000040F20000C0F200005FF073
:1032600000007FF00100C0FF0000C0FF00F800F088
:10327000D0FF07200C00002002462000D8FF0720C6
:103280000800002054000020851912041E2A200086
:10329000F4322000000006736D756467650000B5A8
:1032A000F44801684FF0005291421CD202390A885A
:1032B0004FF6FF739A4205D147F8046D4FF00006B0
:1032C00000F096F800F05CF8EB48006847F8046DF1
:1032D0000600EA4909680431E64A1368116000F003
:1032E00087F8136000BD00F04BF847F8046D4FF00D
:1032F000000608E03C332000000008736574666C2B
:103300006167730000B5DB4801684FF000529142DD
:1033100005D2D94801683143016040CF00BD320079
:1033200040CFD6480068043001884FF6FF739942B9
:1033300001D1110000E01143018000BD5233200093
:10334000410007616C69676E65640336032086433C
:1033500070477433200000000668616C69676E0076
:10336000C44801680120014003D047F8046D0026DD
:103370001AE070479E332000000005616C69676E9B
:1033800000B5FFF7EDFFBB4801680220014005D002
:1033900047F8046D4FF0000600F02AF800BDE63350
:1033A0002000000002632C0000B5B24801684FF015
:1033B0000052914205D247F8046D0E00FEF774FDED
:1033C00002E0320040CF0A7047F8046D012600F099
:1033D0007DF800BD47F8046D362609E047F8046D16
:1033E0004CF6407604E02C342000000002682C00EB
:1033F0000FB5B6B2A2480168002902D0013100D051
:1034000001609C4801684FF00052914205D247F894
:10341000046D0E00FEF7EAFC02E0320040CF0A80A5
:1034200047F8046D022600F051F80FBD4634200025
:103430000000012C01B547F8046DFFF7D9FF360CE9
:10344000FFF7D6FF01BD583420000000033E3C2C9E
:1034500001B51020C641EEE7C0342000000007731C
:103460007472696E672C07B5FF21314040CF300080
:1034700040CF002905D147F8046D0026FFF7B8FFBB
:1034800007BD47F8046D067836020E43FFF7B0FF1C
:103490000130013902290AD347F8046D4678360213
:1034A00002781643FFF7A4FF02300239F2E7002941
:1034B00000D107BD47F8046D0678FFF799FF07BDF7
:1034C0001E352000000005616C6C6F74694801684E
:1034D0004FF00052914210D2320040CF89184FF481
:1034E0008002914219D3FFF701FA0B466C617368B1
:1034F0002066756C6C0A01F007BA320040CF89185B
:10350000604A1268914208D3FFF7F0F90952616DE1
:103510002066756C6C0A01F0F7B9016070473A35A6
:103520002000810008286C6174657374290047F8D5
:10353000046D554E7047E401200052352000810093
:1035400004286470290047F8046D504E70478803C2
:10355000002076352000000009666F72676574727E
:10356000616D00B500F025F84848494901604648BA
:103570004849016000BD9E35200000000D636F6D5D
:1035800070696C65746F72616D3F47F8046D3F48F8
:1035900000684FF000518842B641F6437047C0358D
:1035A000200000000C636F6D70696C65746F726150
:1035B0006D00364800684FF00051884212D37047C2
:1035C0003236200000000E636F6D70696C65746F99
:1035D000666C617368002D4800684FF000518842A6
:1035E00000D2704728482C4902680B680A600360C3
:1035F00026482A4902680B680A600360214800686F
:10360000834215D300B5FFF771F923205661726923
:1036100061626C657320636F6C6C696465207769A7
:1036200074682064696374696F6E6172790A00BDA1
:1036300070474E36200000000C61646472696E664B
:103640006C6173683F0013484FF480010BE0A436AF
:10365000200000000A61646472696E72616D3F004F
:103660004FF000500E49864202D38E42B641704759
:1036700000267047D0FF072018000020D4FF072045
:10368000D8FF07201C000020D4FF0720D0FF072010
:1036900088030020E4012000140000201000002016
:1036A000000008209A372000000008286372656136
:1036B0007465290000B500F0A9FD002E0ED1FFF7BA
:1036C00015F91520437265617465206E6565647334
:1036D000206E616D6520210A01F016B9386847F83F
:1036E000046D043F386000F06EF940CF002E40CFEB
:1036F00011D0386847F8046D043F3860FFF7F6F8DA
:10370000095265646566696E6520FFF743F9FFF746
:10371000EDF8022E2000FFF733FE924800684FF0CC
:103720000051884220D290484FF00001016000F023
:1037300001FA47F8046D0626FFF7C8FEFDF780FC86
:10374000FFF791FE894801680A684FF0FF339A42FB
:1037500007D1844A1368116047F8046DFFF76AFEC9
:103760001360066040CF13E000F0E4F97F4847F8AB
:10377000046D0668FFF75EFE47F8046D4FF6FF76AE
:10378000FFF736FE7948310040CF0160FFF76BFE4E
:10379000744801687648016000BDB237200000001F
:1037A000087661726961626C650047F8046D0126F4
:1037B00013E0CA3720000000093276617269616245
:1037C0006C6547F8046D022607E03C3820000000D5
:1037D000096E7661726961626C6500B5FFF76AFF18
:1037E000604801684FF00052914218D20F20064005
:1037F000B20000F04CF8300040CF0200002805D0A5
:103800000E600431FFF716FE0138F9D147F8046D58
:1038100080261643FFF776FDFFF741FD00BD00F05F
:1038200050F8300040CF002803D0FFF703FE0138E6
:10383000FBD1FFF786FCFFF732FD00BDF638200014
:103840000000076275666665723A00B5FFF732FFE1
:1038500001203040361802203040361841480168B7
:103860004FF0005291420DD2320000F010F8FFF7F5
:10387000E1FD47F8046D40F24016FFF743FDFFF706
:103880000EFD00BD00F01DF8FFF720FED1E700B5EA
:1038900038480168891A384A91420BD2FFF726F856
:1038A0000F4E6F7420656E6F7567682052414D0A28
:1038B00001F02AB8016047F8046D0E00FFF7C0FA66
:1038C00012E000B500F036F90220064040CF01D1E9
:1038D000FFF780FD47F8046D284EFFF7B9FD47F864
:1038E000046D274EFFF7B4FD47F8046D44F270767F
:1038F000FFF77EFD00BD2639200000000F646963DC
:1039000074696F6E617279737461727415480068BE
:103910004FF0005147F8046D884201D2194E7047AC
:10392000124E366870478839200000000E646963C3
:1039300074696F6E6172796E6578740003B5316871
:103940004FF0FF30814207D08879FF2804D00E0065
:1039500047F8046D002603BD47F8046D0026F643C2
:1039600003BD0000D0FF072018000020D4FF07206F
:103970000C0000201C000020880300203E60043F53
:1039800002367E46E4012000BA39200000000A73A6
:103990006B6970737472696E67003178013101224E
:1039A0000A4089187618704706B40178013101225F
:1039B0000A408918401806BC7047CC392000000026
:1039C0000466696E6400304800688746E839200064
:1039D000810009686F6F6B2D66696E6447F8046D2E
:1039E0002A4E7047F6392000903A20000000062841
:1039F00066696E64290030B50020002103B43500EB
:103A000040CF340040CFFFF781FF4FF6FF70B18801
:103A100088421ED0B179A9421BD1F01D0139425C08
:103A2000635C412A02D35B2A38BF2032412B02D388
:103A30005B2B38BF20339A420BD10029EED102B064
:103A4000B01DFFF7B1FFB18803B44FF000508642BC
:103A500007D236684FF0FF30864202D0B079FF2897
:103A6000D3D103BC060047F8046D0E0030BD00B58D
:103A70003100386803B4FFF7A6FF03BC3A68002A98
:103A800001D100F0EFFE00BDCCFF0720CCFF0720E6
:103A9000EE3A2000000006636A756D702C0032005B
:103AA00040CF310040CF8B1B043B6FF0FE0119402B
:103AB00000290ED06FF0FF0081420AD0FEF716FFFA
:103AC0000D4A756D7020746F6F206661720A00F088
:103AD0001BBF5B10FF210B40134330001E0000B5DD
:103AE000CB4A13681060FFF783FC136000BD283BCE
:103AF00020000000056A756D702C310040CF300049
:103B000040CF0B1A043BC3491940002902D0C24AD6
:103B10009142D3D15B1040F2FF72134053F46043E3
:103B200047F8046D1E00DAE73E3B20000000046801
:103B30006572650047F8046DB54E366870476C3C99
:103B4000200000000D666C6173687661722D6865F7
:103B5000726547F8046DB14E3668704700B547F896
:103B6000046D42F60066FFF743FCFFF737FC00BD2B
:103B7000E0E700B500F03AF839683E600E4647F8D5
:103B8000046D4DF20016FFF78AFF00BD00B500F08E
:103B90002DF839683E600E4647F8046D4DF2007608
:103BA000FFF77DFF00BD00B5FFF7D8FF00F01EF85E
:103BB00039683E600E4647F8046D4DF20006FFF787
:103BC0006EFF00BD00B500F011F839683E600E468A
:103BD000FFF793FF00BD00B5FFF7C0FFFFF7AAFF97
:103BE00047F8046D0226FFF771FC00BD00B5FFF732
:103BF000A1FF47F8046D0226FFF768FC00BD00B581
:103C0000FFF798FFFFF779FF00BD00B5FFF792FFC0
:103C100047F8046D4DF20006FFF741FF00BD00B507
:103C2000FFF788FF47F8046D4DF20016FFF737FFE6
:103C300000BD00B5FCF750FCFCF788FBFCF78BFBE4
:103C4000FCF78EFB8168282901D1FCF78BFCFCF77F
:103C50007FFC47F8046D42F6000609020E43FFF7A9
:103C6000C7FBFCF73CFBFCF765FB00BD983C200064
:103C70003000047468656E00052E01D140CFBEE7A8
:103C8000F1B200296DD100B5FFF754FF39683E60ED
:103C90000E46FFF704FF00BDB43C20003000046571
:103CA0006C73650000B500F036F8FCF7E0FCFFF738
:103CB000E3FF00BD0A3D200030060269660000B542
:103CC000FFF789FF47F8046D4DF2000600BD00B50F
:103CD000FCF795FCFDF767FD816A002907D002B467
:103CE000FCF728FBFFF782FF47F8046D40BDFFF7A4
:103CF000A0FFFFF71FFF47F8046D0226FFF7E6FB62
:103D000047F8046D4DF2000600BD243D2000300050
:103D100005616865616400B5FFF768FF47F8046DE9
:103D2000052600BD3E3D20003000067265706561CD
:103D3000740000B500F05BF8FFF79EFF00BD823D08
:103D400020003006057768696C6500B5FFF7B7FF9E
:103D5000FCF78DFC00BD00B5FFF7B9FFFCF787FC51
:103D600000BDFEF7C3FD17537472756374757265F9
:103D70007320646F6E2774206D617463680A00F0AD
:103D8000C3BDE23D2000300605756E74696C012EDE
:103D9000E7D140CF07E77047012EE2D140CF00B511
:103DA000FDF701FD816A00290DD002B4FCF7C2FACB
:103DB000FFF71CFF39683E600E4647F8046D40BCB3
:103DC000FFF76DFE00BDFFF734FFFFF70FFF396807
:103DD0003E600E4647F8046D4DF20006FFF75FFEA9
:103DE00000BDF63D2000300005616761696E012E5F
:103DF000B7D140CFE6E6203E20003000056265677F
:103E0000696E00B5FFF7B4FE47F8046D012600BDEA
:103E1000D0FF072001F8FFFF00F8FFFF1C00002083
:103E20003A3E20002002016B47F8046D029E704765
:103E300047F8046D49F602060BE0683E20002002B8
:103E4000016A47F8046D009E704747F8046D49F613
:103E5000000600B5FCF739FAFCF70AFB03601B0209
:103E60001E43FFF7C5FA00BD943E20002002016901
:103E700047F8046D2600704700B547F8046D40F21E
:103E80002006FCF722FAFCF7F3FA03601E43FFF763
:103E9000AFFA00BDD23E20003000056C656176654A
:103EA00000B5754801683B00043F1A68043B1A607E
:103EB00008338B42F9D103B4FFF798FE03BC3300FB
:103EC00040CF04390B60016004390A6801320A608E
:103ED00000BDE43E2000200006756E6C6F6F700020
:103EE00030BC70471C3F20003000052B6C6F6F709A
:103EF000032E00D035E740CF00B547F8046D5F4E84
:103F0000FFF73BF8FFF742FE1AE014F10044641B90
:103F1000A41940CF2C44A4F1004470475E3F200018
:103F20003000046C6F6F7000032E00D019E740CF93
:103F300000B547F8046D524EFFF71FF8FFF719FE62
:103F400000F04AF94C48310040CF016047F8046D59
:103F50004C4EFFF712F800BD0134AC427047A63F4B
:103F60002000300202646F0000B547F8046D464E31
:103F7000FFF703F84048016847F8046D0E0047F862
:103F8000046D00260760FFF7F3FD47F8046D032674
:103F900000BD00B500F02FF8ECE730B4340040CF9E
:103FA000350040CF70478C4020003002033F646FE3
:103FB00000B547F8046D344EFEF7DFFF47F8046D97
:103FC00044F2AC26FFF714FA2B48016847F8046D59
:103FD0000E00FFF70BFE013647F8046D0126264858
:103FE0000760FFF7C5FD47F8046D032600BD00B567
:103FF00000F001F8E2E700B5FCF701FBFCF776FA08
:10400000FCF7A4F9FCF7A7F9FCF7AAF947F8046D47
:104010004BF23046FFF7ECF90168282908D047F841
:10402000046D40F20406C9000E43FFF7E1F907E012
:1040300047F8046D466847F8046D0426FEF76EFEE7
:104040008168282908D047F8046D40F20506C900A8
:104050000E43FFF7CDF907E047F8046DC66847F84F
:10406000046D0526FEF75AFEFCF739F9FCF737F91F
:10407000FCF780F900BD0000040000200A3F20008A
:10408000583F2000E03E20009A3F2000AC40200036
:10409000300004636173650000B5FCF7B0FA47F8BF
:1040A000046D002647F8046D082600BDC2402000BC
:1040B0003000033F6F666B4809E0013EB64140CFD8
:1040C0007047804120003002026F66006648082E6B
:1040D00000D046E640CF00B547F8046D0600FEF775
:1040E0004CFFFFF783FD39683E600E46013647F806
:1040F000046D0926FFF772F900BD082E00D030E6E6
:1041000040CF00B5FCF7F2F9FCF720F9FCF723F9F2
:10411000FCF726F947F8046D44F28026FCF722FAF2
:104120000E430268282A1ED14268FF2A08D840CFD1
:1041300047F8046D42F60006164309020E4314E0E8
:1041400047F8046D4668FEF735FD04CF002E40CFDA
:1041500006D0464E164356EA0146FFF779F906E0C7
:10416000FCF7F6F90A00D2001643FFF741F9FCF715
:10417000B6F8FCF7FFF8B4E7300040CFB042704724
:10418000B6412000300005656E646F66092E00D0D0
:10419000E7E540CF00B540B440CFFFF727FD3968D1
:1041A0003E600E46FFF73BFD47F8046D40BC47F804
:1041B000046D082600BD00422000300007656E64D3
:1041C00063617365082E00D0CBE540CF00B5FFF7E3
:1041D00005F900F001F800BD00B5300040CF00281F
:1041E0000DD003B401213140002903D0013EFFF777
:1041F0000CFD01E0FFF703FD03BC0138EFE700BD54
:1042000014422000000005746F6B656E47F8046D62
:10421000202605E078422000000005706172736579
:1042200010B5134801684068124A12688418202E9D
:1042300007D191420FD0835CB34202D1013284187E
:10424000F7E7914207D0835C0132B342F9D1861877
:10425000361B013E01E08618361B043F3C600548D2
:10426000026010BDBA40200078412000000FB0F17C
:10427000DCFF0720E4FF0720B642200000000564B1
:1042800069676974CF4B1B68303E0BD30A2E0BD382
:10429000073E0A2E06D3242E06D3203E0A2E01D333
:1042A000242E01D3002670479E42FBD247F8046DAE
:1042B0000026F6437047C04320000000066E756D6F
:1042C000626572003FB5310040CF701E01260122A9
:1042D00004B4BC4B1B680024002500293CD00130ED
:1042E000013902782D2A04D101B00022D24304B44E
:1042F000F3E7232A01D10A23EFE7242A01D110236F
:10430000EBE7252A01D10223E7E72E2A01D1022675
:10431000E3E72C2A36D047F8046D1600FFF7B4FF08
:10432000002E40CF2BD047F8046D260047F8046DCF
:104330002E0047F8046D1E0047F8046D00260FB4E8
:10434000FCF765FB0FBC350040CF340040CF0022A6
:10435000A419554140CFC0E704BC002A04D500226F
:10436000E443ED430134554133002600012B02D0D4
:1043700047F8046D2E0047F8046D1E003FBD01B0E4
:1043800000263FBD2500002402260029E4D0425C1F
:1043900001392E2AF9D047F8046D1600FFF774FF93
:1043A000002E40CFEBD0043F3C6047F8046D1E0068
:1043B0000FB4FCF7DBFB0FBC340040CF40CFE4E789
:1043C000E24320000000062E6469676974000A2E2B
:1043D00001D230367047242E01D23736704723265B
:1043E000704718442000000004686F6C64003300BC
:1043F00040CF7548017843290DD201310170401832
:10440000012907D0013802780130027001380139E2
:104410000129F7D103707047384420000000056877
:104420006F6C643C330040CF67480178432902D267
:104430000131017043547047504420000000047360
:1044400069676E00002E01D440CF70472D26CEE75D
:1044500064442000000002233E005B4806780130DF
:10446000386070477C44200000000366235310B579
:10447000202400F008F8013CFBD110BD9E44200030
:1044800000000266230000B547F8046D4D4E366803
:10449000FCF77FFAFFF79BFFFFF7C4FF00BDBA44AC
:1044A000200000000223530000B500F00AF8002E9F
:1044B000FBD138680028F8D100BDE6442000000098
:1044C000012300B547F8046D3E4E366847F8046D89
:1044D0000026FCF76AFBFCF7CAF840CFFFF777FF2E
:1044E000FFF785FF00BDF84420000000023C2300D8
:1044F00035480021017070470A452000000002661F
:104500002E0047F8046D202604E0584520000000E6
:1045100003662E6E00B510B4340040CFFCF762FD88
:10452000FCF7BCF947F8046D0026FFF7E1FFFFF741
:10453000BBFF40CF2C26FFF775FF002C03D0FFF701
:10454000A2FF013CFBD110BC40CFFFF77BFF47F837
:10455000046D47F8046D1CE06E45200000000375F3
:10456000642E00B5FFF7C4FFFFF79EFF11E0A045E2
:104570002000000002642E0000B5FCF733FDFCF7BC
:104580008DF9FFF7B5FFFFF78FFFFCF73DFDFFF754
:1045900059FFFFF762FFFEF7FDF9FEF756F900BD80
:1045A000B2452000000002752E0047F8046D002679
:1045B000D7E7904720000000012E47F8046DF6175A
:1045C000DAE70000FCFF07207C00002030B54FF048
:1045D00000542568002D01D13D00256030BD30B567
:1045E0004FF000543D00256030BD30B54FF0005411
:1045F0000025256030BD4FF000531B68DB1B9B0876
:10460000704700B5310040CF4FF48050084002D0D1
:1046100000F0A6F800BD4FF48060084001D1FDF71E
:104620007BF8320040CFFFF7D1FF4FF40050084035
:1046300003D047F8046D160000BDFFF7DCFF8020B3
:10464000084006D14020084009D00F20084083428E
:1046500005D347F8046D1600FEF743FD00BD4FF487
:104660000070084014D0FBF7D2FD47F8046D160027
:1046700047F8046D0E0000F031F81000FEF794FCCE
:10468000421CB2489047FFF7AAFFFBF7CFFD00BDE1
:10469000FBF7BDFD47F8046D160047F8046D0E00EA
:1046A00000F01CF8FBF746FEFFF79FFF4FF4006099
:1046B000084001D1FBF7A3FF47F8046D1600102254
:1046C0000A4002D0FEF70DFD00BD20220A4002D0B4
:1046D000FEF753FC00BDFEF77EFB00BD0FB53200B8
:1046E00040CF330040CF9A480168062907D2062000
:1046F00041439848401803801B0C438082809448B3
:104700000168013101600FBD0FB5914801680629AC
:104710001FD8904801391DD047F8046D0E00FEF7F0
:1047200067FE47F8046D0688FEF762FE47F8046DE1
:104730004688FEF75DFE47F8046D8688FEF758FE52
:1047400006300139EDD147F8046D41F20006FEF75D
:10475000D9FD0FBD47F8046D4026FEF7D3FD0FBD10
:1047600000B5300040CFFEF71FFC0188023047F84B
:10477000046D068842881204164347F8046D868843
:1047800003B4FFF73EFF03BC06300139EFD100BD93
:10479000D84720000000086576616C75617465007B
:1047A00000B5FDF7F0FF01CF01B440B440CF6A4837
:1047B000016802B400210160FDF7D8FF00F014F891
:1047C000654802BC016047F8046D40BC01BC043F71
:1047D0003860FDF7CBFF00BDE0482000000009690C
:1047E0006E7465727072657400B55C4887420BD94F
:1047F000FEF77CF810537461636B20756E6465720C
:10480000666C6F770A007FE0554887420AD2FEF750
:104810006DF80F537461636B206F766572666C6F11
:10482000770A71E0FFF7D2FEFFF7F0FC002E02D10D
:10483000043740CF00BD386847F8046D043F386046
:10484000FFF7C1F8310040CF320040CF002A1BD122
:1048500038683100FCF760FFFFF734FD320040CFCD
:10486000002AC2D147F8046D060047F8046D0E0017
:10487000FEF790F8FEF73AF80C206E6F7420666F22
:10488000756E642E0A003FE0364B1B68002B1CD16E
:10489000FFF7ABFE30230B40302B0ED1FEF77AF83A
:1048A000FEF724F81220697320636F6D70696C65E0
:1048B0002D6F6E6C792E0A0026E0043740CF47F842
:1048C000046D1600FEF70DFC8FE7043740CF47F864
:1048D000046D160047F8046D0E00FFF792FE84E7A2
:1048E000FC482000810009686F6F6B2D7175697439
:1048F00047F8046D1C4E7047364920007C49200063
:104900000000047175697400DFF860D0134F184817
:104910000A2101601348002101604FF0005001603E
:10492000FBF74FFD0C4801601248016012494160DD
:104930000D4800688746FDF734FFFFF755FFFDF788
:10494000D5FF05206F6B2E0AF5E700002000002040
:104950005400002058000020E4FF072088020020B7
:1049600088010020D8FF0720C8FF07208803002007
:10497000FCFF0720DCFF0720C00000209649200034
:1049800000000565696E743F47F8046DEFF310860B
:10499000013EB6417047A649200020000465696EBB
:1049A000740062B67047B649200020000464696E46
:1049B000740072B67047CC492000200004697073FF
:1049C000720047F8046DEFF305867047D849200060
:1049D0000000036E6F7070471A4A200000000975CE
:1049E0006E68616E646C656400B5FDF77FFF1455F9
:1049F0006E68616E646C656420496E746572727570
:104A00007074200047F8046DEFF30586FDF7D6FFBC
:104A1000FDF76CFF02210A0000BD2C4A20000000B7
:104A2000057265736574C748C7490160564A20001E
:104A300081000B6972712D7379737469636B47F828
:104A4000046DC24E7047E84920004FF6C470C2F2B0
:104A50000700006887467E4A20008100096972715C
:104A60002D6661756C7447F8046DB94E7047E8495E
:104A700020004FF6C070C2F2070000688746AC4ABB
:104A8000200081000E6972712D636F6C6C65637418
:104A9000696F6E0047F8046DAE4E7047E84920001C
:104AA0004FF6BC70C2F2070000688746D44A200067
:104AB0008100096972712D657874693047F8046D59
:104AC000A54E7047E84920004FF6B870C2F20700C3
:104AD00000688746FC4A20008100096972712D65D3
:104AE0007874693147F8046D9C4E7047E84920009E
:104AF0004FF6B470C2F2070000688746244B2000CE
:104B00008100096972712D657874693247F8046D06
:104B1000934E7047E84920004FF6B070C2F207008C
:104B2000006887464C4B20008100096972712D6531
:104B30007874693347F8046D8A4E7047E84920005D
:104B40004FF6AC70C2F2070000688746744B200035
:104B50008100096972712D657874693447F8046DB4
:104B6000814E7047E84920004FF6A870C2F2070056
:104B7000006887469A4B20008100076972712D6199
:104B8000646347F8046D794E7047E84920004FF69A
:104B9000A470C2F2070000688746C24B2000810063
:104BA000086972712D74696D320047F8046D704E9A
:104BB0007047E84920004FF6A070C2F20700006875
:104BC0008746EA4B20008100086972712D74696D77
:104BD000330047F8046D674E7047E84920004FF6F0
:104BE0009C70C2F2070000688746124C20008100CA
:104BF000086972712D74696D340047F8046D5E4E5A
:104C00007047E84920004FF69870C2F2070000682C
:104C1000874600802000FFFF182D2D2D20466C6157
:104C200073682044696374696F6E617279202D2DF9
:104C30002D00FDF7FFFB51488546514F2A2647F8C6
:104C4000046D504E504DB1884FF6FF73994225D0F8
:104C50004FF480730B400AD0B01DFEF7A5FEFEF79F
:104C6000A3F90388408800040343ED1A16E080236B
:104C70000B4013D00F23194089006D1AB01DFEF7A9
:104C800093FEFEF791F947F8046D060047F8046DAE
:104C90002E0047F8046D0E00FCF704FEFEF74EFEF2
:104CA000300040CFCFD03948066040CF384805604B
:104CB0004FF480004FF402114FF6FF72884204D087
:104CC000023803889342F9D0023032490860FDF778
:104CD0000DFE414D6563726973702D5374656C6C84
:104CE0006172697320524120322E362E3520666F54
:104CF000722053544D333246373637204E75636C2D
:104D0000656F206279204D61747468696173204B0E
:104D10006F63680A4FF0005000210160FBF751FB00
:104D200047F8046D1C4E47F8046D0426FEF74BFE51
:104D300040CF002E02D0FEF7D4F9F9E540CFE3E5ED
:104D4000696E69740CED00E00400FA05C4FF0720E9
:104D5000C0FF0720BCFF0720B8FF0720B4FF0720D3
:104D6000B0FF0720ACFF0720A8FF0720A4FF072003
:104D7000A0FF07209CFF072098FF07208803002042
:104D800088020020E4012000000008201400002018
:0C4D90001C00002010000020404D2000FE
:0400000508000000EF
:00000001FF
