:100000003083FF1F373D0000D33A0000D33A000091
:10001000D33A0000D33A0000D33A000000000000B9
:10002000000000000000000000000000013B000094
:10003000013B000000000000013B0000AB3A000063
:10004000013B0000013B0000013B0000013B0000C0
:10005000013B0000013B0000013B0000013B0000B0
:10006000013B0000013B0000013B0000013B0000A0
:10007000013B0000013B0000013B0000013B000090
:10008000013B000000000000013B0000013B0000BC
:10009000013B0000013B0000013B000000000000AC
:1000A000013B0000013B0000013B0000013B000060
:1000B00000000000013B0000013B0000013B00008C
:1000C000013B0000013B0000013B0000013B000040
:1000D000013B0000000000000000000000000000E4
:1000E0000000000000000000000000000000000010
:1000F000013B0000E13C00000B3D0000013B000023
:10010000013B0000013B0000013B0000000000003B
:1001100000000000000000000000000000000000DF
:1001200000000000293B0000513B0000793B00002B
:10013000A13B0000C93B0000013B0000013B000067
:10014000013B0000013B0000013B0000013B0000BF
:10015000013B0000013B0000013B0000013B0000AF
:10016000013B0000013B0000013B000000000000DB
:10017000000000000000000000000000000000007F
:1001800000000000EF3B000000000000013B000009
:10019000013B0000013B0000013B0000173C000058
:1001A0003F3C0000673C00008F3C0000B73C000073
:1001B0000000000000000000013B0000FFFFFFFF07
:1001C000FFFFFFFFFFFFFFFFFFFFFFFFFFFFFFFF3F
:1001D000FFFFFFFFFFFFFFFFFFFFFFFFFFFFFFFF2F
:1001E000FFFFFFFFFFFFFFFFFFFFFFFFFFFFFFFF1F
:1001F000FFFFFFFFFFFFFFFFFFFFFFFFFFFFFFFF0F
:10040000FFFFFFFFFFFFFFFFFFFFFFFF00000000F8
:1004100036040000FFFF1F2D2D2D204D65637269EE
:1004200073702D5374656C6C6172697320322E3554
:100430002E31202D2D2D4E04000042000432647513
:100440007000386847F8046D043F386070476004F6
:1004500000006200053264726F70043740CF70474D
:100460007E040000440005327377617007CF043FBB
:10047000386047F8046D043F3A600E0070479204FC
:100480000000620004326E69700007CF043F3860DC
:100490007047AC040000440005326F766572B8689E
:1004A00047F8046D043F3860FE687047D0040000D0
:1004B000440005327475636B07CF043F386047F81A
:1004C000046D043F3A60043F3960043F3860704770
:1004D000F204000046000432726F74003868B96894
:1004E0003A69B86039613A6079687E60FE68F9609F
:1004F000704714050000460005322D726F7438688D
:10050000B9683A6938613960BA60F968FE607E6836
:100510007960704728050000200003323E7201CF49
:1005200001B440B440CF70474005000020000332C2
:10053000723E47F8046D40BC01BC043F3860704710
:100540005805000020000332724047F8046D019EF8
:1005500047F8046D009E70476A05000020000632CF
:100560007264726F700002B0704782050000420032
:100570000364322F3868F10776104008084338606A
:1005800070479605000062000364322A386800183C
:10059000764138607047B00500004200046473681B
:1005A00072003868F10776084008084338607047E1
:1005B000C60500006200046473686C0038680018A7
:1005C000764138607047D8050000420004646162DB
:1005D0007300002E07D47047F60500004200076440
:1005E0006E656761746538680021C043F643013069
:1005F0004E41386070470E060000640002642D0012
:1006000007CF121AB1410E00043F3A60704724062A
:100610000000640002642B0007CF12184E41043F13
:100620003A60704736060000610003733E6447F885
:10063000046DF61770474A060000620003756D2AC4
:100640003868A0FB0606386070475E06000062004E
:10065000026D2A00386880FB0606386070479C06E9
:10066000000044000375642A07CF564341437618BF
:10067000010C130C59437618010C80B292B251430D
:10068000434350430022C91852411204B6180A04C9
:10069000090C80184E41043F386070472E07000057
:1006A00044000475646D2A0010B5002447F8046DF9
:1006B0007E6847F8046D3E69FFF7C2FF310040CF06
:1006C000300040CF47F8046D3E6847F8046DFE687F
:1006D00003B4FFF7B5FF03BC330040CF320040CF77
:1006E00047F8046D3E6847F8046D3E690FB4FFF7A4
:1006F000A7FF0FBC9219634140CF89196241634142
:1007000040CF47F8046D7E6847F8046DFE680FB46B
:10071000FFF796FF0FBC9219634140CF89196241E0
:10072000634140CF1E003A607960B86010BD500749
:1007300000004300022A2F0000B540B440CFFFF76D
:1007400089FF47F8046D40BC00F04CF8043700BD49
:10075000720700004300052A2F6D6F6400B540B496
:1007600040CFFFF777FF47F8046D40BC00F03AF840
:1007700000BD94070000430003752A2F00B540B464
:1007800040CFFFF75DFF47F8046D40BC00F01BF859
:10079000043700BDB8070000430006752A2F6D6FAF
:1007A000640000B540B440CFFFF74AFF47F8046D3E
:1007B00040BC00F008F800BDD807000043000675F3
:1007C0006D2F6D6F640000B547F8046D002600F0D2
:1007D00019F840CF043700BDF60700004300056D4F
:1007E0002F6D6F6400B547F8046DF61700F032F80E
:1007F00040CF043700BD4808000044000675642F50
:100800006D6F640030B4002300227968B868350049
:100810003C6840264000494152415B41AB4202D80E
:1008200004D3A24202D3121BAB410130013EF1D1ED
:100830000E0038607B60BA6030BC704730B4002373
:100840007A68B9680020E2E7BE0800004400056449
:100850002F6D6F6400B5F01719D0FFF7C4FEFFF7D6
:1008600005FEF0170CD0FFF7BEFEFFF7FFFDFFF708
:10087000C9FFFFF7FBFDFFF7B6FEFFF7F7FD00BD71
:10088000FFF7F4FDFFF7BEFFFFF7ADFE00BDFFF77A
:10089000EDFDF0170ED0FFF7A6FEFFF7E7FDFFF71F
:1008A000B1FFFFF7A0FEFFF7E1FDFFF79CFEFFF7AA
:1008B000DDFD00BDFFF7DAFDFFF7A4FF00BDD408A2
:1008C0000000440002642F0000B5FFF7C3FFFFF7EC
:1008D000DCFD00BD1C090000440002662A0000B5D2
:1008E000F0170DD0FFF77FFEFFF7C0FDF0170DD01A
:1008F000FFF779FEFFF7D8FE40CF01CF386000BD8B
:10090000FFF7B4FDF017F5D0FFF76DFEFFF7CCFE53
:1009100040CF01CF3860FFF766FE00BD68090000D8
:10092000440002662F0000B5F0170ED0FFF75BFE03
:10093000FFF79CFDF0170ED0FFF755FEFFF796FD71
:10094000FFF77CFFFFF7A1FD00BDFFF78FFDF0175C
:10095000F4D0FFF748FEFFF789FDFFF76FFFFFF7C1
:1009600042FEFFF792FD00BD7C090000200002322C
:10097000210006CF3160726040CF704790090000BF
:10098000200002324000043F7068386036687047CB
:10099000A409000044000364753C07CF121AB1415A
:1009A000B6417047B809000044000364753E07CFA4
:1009B000801A8E41B6417047CE090000440002649F
:1009C0003C0007CF121AB1410CDB00267047EA0940
:1009D0000000440002643E0007CF801A8E4101DB14
:1009E000002670470026F6437047FA0900006200AF
:1009F0000364303C0437F61770470E0A00006200AB
:100A00000364303D01CF0643013EB6417047280ADA
:100A10000000440003643C3E07CF50404E40064374
:100A2000013EB641F6437047400A000044000264AC
:100A30003D0007CF50404E400643013EB64170474F
:100A4000520A000020000373704047F8046D3E0016
:100A50007047620A0000200003737021370040CF06
:100A60007047740A000020000372704047F8046D5C
:100A70006E467047840A0000200003727021B5465C
:100A800040CF7047940A000061000364757047F816
:100A9000046D7047A40A000061000464726F700066
:100AA00040CF7047BA0A00006100043F64757000CF
:100AB000002E01D047F8046D7047CE0A0000620096
:100AC00004737761700039683E600E007047DC0A7D
:100AD00000006200036E697004377047F00A00007E
:100AE0006200046F7665720047F8046D7E68704797
:100AF000060B00006200047475636B0001CF083FB1
:100B00007E60386070471C0B0000630003726F74D6
:100B100003CF083F78603E600E007047340B000042
:100B20006300042D726F740003CF083F7E6039604C
:100B300006007047460B00002000047069636B00DC
:100B400057F8266070475E0B000000000564657072
:100B50007468BC49C91B47F8046D8E1070477A0B46
:100B600000000000067264657074680047F8046D48
:100B70006E46B549891B8E1070478A0B0000200015
:100B8000023E720040B440CF70479C0B0000200032
:100B900002723E0047F8046D40BC7047AE0B000087
:100BA00020000272400047F8046D009E7047BE0BA3
:100BB00000002000057264726F7001B07047D20BA4
:100BC0000000200005727069636BB6006E443668E1
:100BD0007047E80B00006E0003616E6401CF0640B1
:100BE00070470640000616F0000C00006E0003621D
:100BF000696301CFB043060070478643000636F0B4
:100C0000160C00006E00026F720001CF06437047A1
:100C10000643000656F02C0C00006E0003786F723D
:100C200001CF464070474640000696F03A0C00005F
:100C30006100036E6F74F64370474A0C0000610058
:100C400003636C7AB6FA86F67047580C00006100B0
:100C50000373687276087047660C000061000373C6
:100C6000686C76007047760C0000610003726F724A
:100C70005FEA76067047880C0000610003726F6CB3
:100C8000B61956F100067047A20C00006C000672FF
:100C900073686966740001CFF0400600704736083B
:100CA0000026BC0C00006C000761727368696674F2
:100CB00001CF3041060070473610F617D60C000001
:100CC0006C00066C73686966740001CFB040060062
:100CD000704736000026E60C0000610002303D003F
:100CE000013EB6417047F80C0000610003303C3E05
:100CF000013EB641F6437047060D00006100023028
:100D00003C00F61770471C0D0000600004747275FB
:100D1000650047F8046D0026F6437047300D00006B
:100D200060000566616C736547F8046D00267047C6
:100D3000440D00004200023E3D0001CFB042EADA1D
:100D400000267047580D00004200023C3D0001CFD4
:100D5000B042E0DD002670476A0D00004200013C11
:100D600001CFB042D7DB002670477C0D0000420067
:100D7000013E01CFB042CEDC00267047900D00004E
:100D8000620003753E3D01CF861BB641F6437047B6
:100D9000A40D0000620003753C3D01CF361AB64138
:100DA000F6437047B60D0000620002753C0001CFAB
:100DB000861BB6417047C80D0000620002753E00F8
:100DC00001CF361AB6417047DE0D00006B00023CC1
:100DD0003E0001CF361A013EB641F6437047F00D92
:100DE00000006B00013D01CF361A013EB64170474D
:100DF000040E00006200036D696E01CFB04200DC9A
:100E000006007047180E00006200036D617801CF84
:100E1000B04200DB060070472E0E00006200047531
:100E20006D61780001CFB04200D3060070474C0ED0
:100E30000000620004756D696E0001CFB04200D8F9
:100E4000060070473082FF1F3083FF1F8A0E0000AC
:100E50000000046D6F76650007B5310040CF3200A9
:100E600040CF00290FD0B2420DD006D3013E013A47
:100E7000705C50540139FBD105E0307810700136B8
:100E800001320139F9D140CF07BDAC0E000000009E
:100E90000466696C6C00300040CF310040CF0029FF
:100EA00002D001397054FCD140CF7047B80E000019
:100EB0002000014036687047D00E00006D0001210F
:100EC00003CF30600E0070470660704701607047C6
:100ED000F60E00006D00022B210003CF32681218BD
:100EE00032600E0070470268921902607047026813
:100EF000521802607047040F000020000268400092
:100F0000368870471E0F00006D000268210003CF75
:100F100030800E0070470680704701807047440F94
:100F200000006D0003682B2103CF32881218328035
:100F30000E0070470288921902807047028852188A
:100F400002807047520F0000200002634000367894
:100F500070476C0F00006D000263210003CF3070FA
:100F60000E0070470670704701707047920F0000C6
:100F70006D0003632B2103CF3278121832700E00FC
:100F80007047027892190270704702785218027006
:100F90007047BA0F00006D0004626973210003CF2F
:100FA0003268024332600E007047026832430260CA
:100FB000704702680A4302607047E20F00006D004C
:100FC00004626963210003CF3268824332600E00FD
:100FD00070470268B2430260704702688A43026049
:100FE00070470A1000006D0004786F72210003CF73
:100FF0003268424032600E00704702687240026000
:10100000704702684A400260704774100000680030
:1010100004626974400001CF3668064018BF4FF083
:10102000FF3670474FF4D04200B5012B0AD147F884
:10103000046D002600F0D0FF47F8046D160001F0A3
:10104000F6FA11E002CF013B02F068FC47F8046DAC
:101050003626164301F0EBFA47F8046D0E0047F808
:10106000046D002600F0B8FF47F8046DE34E01F070
:10107000E7F800BD9C1000006D00056862697321EF
:1010800003CF3288024332800E0070470288324319
:101090000280704702880A4302807047C410000033
:1010A0006D0005686269632103CF32888243328014
:1010B0000E0070470288B2430280704702888A435C
:1010C00002807047EC1000006D000568786F722197
:1010D00003CF3288424032800E007047028872404F
:1010E0000280704702884A40028070470C1100005D
:1010F000680005686269744001CF3688064018BFF1
:101100004FF0FF3670474FF408428DE7341100006E
:101110006D0005636269732103CF32780243327038
:101120000E007047027832430270704702780A431B
:10113000027070475C1100006D00056362696321F5
:1011400003CF3278824332700E0070470278B24388
:101150000270704702788A43027070478411000061
:101160006D000563786F722103CF32784240327090
:101170000E007047027872400270704702784A4051
:1011800002707047A4110000680005636269744032
:1011900001CF3678064018BF4FF0FF3670474FF446
:1011A000F04241E7B411000061000563656C6C2BEF
:1011B00004367047C411000061000563656C6C73F0
:1011C000B6007047D8120000000006666C617368B4
:1011D0002100300040CF310040CF4FF4804398428F
:1011E00069D34FF0FF3399422ED0032202402CD115
:1011F00002689A4246D1824A137880221A40FAD075
:1012000030221A4002D07E4A302313707D4A0623D2
:1012100013707D4A1070000A7C4A1070000A7C4AE4
:1012200010707C4A1170090A7B4A1170090A7B4AC6
:101230001170090A7A4A1170714A80231370704A3A
:10124000137880221A40FAD0704700F0AFFC30418A
:101250006464726573732068617320746F206265C3
:1012600020342D616C69676E656420666F7220772B
:10127000726974696E6720666C61736820210A0068
:1012800002F073BB00F092FC29466C617368206C1D
:101290006F636174696F6E2063616E6E6F7420623C
:1012A00065207772697474656E2074776963652050
:1012B000210A02F05ABB00F079FC1943616E6E6F8F
:1012C0007420777269746520696E746F20636F7221
:1012D0006520210A02F049BB5C13000000000E6685
:1012E0006C617368706167656572617365000FB5E5
:1012F000300040CF4FF48043984220D303239843DB
:101300003F4A137880221A40FAD030221A4002D085
:101310003B4A302313703B4A092313703A4A10703A
:10132000000A3A4A1070000A394A1070344A802381
:101330001370334A137880221A40FAD00FBD00F0A0
:1013400035FC1443616E6E6F7420657261736520A5
:10135000636F726520210A0002F007BBDE130000F4
:1013600000000A6572617365666C617368004FF412
:10137000804072B64FF480214FF0FF3203689342F1
:101380001CD047F8046D060047F8046D00F00EFC11
:1013900010457261736520626C6F636B206174200D
:1013A000200000F06BFC00F001FC0C2066726F6DF9
:1013B00020466C6173680A00FFF799FF0430884289
:1013C000DCD100F0F3FB1246696E69736865642E28
:1013D00020526573657420210A0002F052FB341418
:1013E000000000000E6572617365666C617368666B
:1013F000726F6D00300040CFBBE700001A10000094
:1014000000000240070002400400024005000240C4
:101410000600024008000240090002400A000240A3
:101420000B00024046486021002202800230013950
:10143000FBD170474415000000000768666C6173BB
:10144000682130B5320040CF500813D300F0AEFB16
:101450001E68666C61736821206E65656473206523
:1014600076656E206164647265737365732E0A001D
:1014700002F07BBA0223534031482021048845887A
:101480002D042C439C422AD006300139F6D12C4839
:101490002021048845882D042C431AD006300139B8
:1014A000F7D100F083FB27546F6F206D616E7920B8
:1014B000756E7061697265642031362D62697420C1
:1014C000466C617368207772697465732E0A02F046
:1014D0004CBA0280120C4280868040CF30BD02217F
:1014E000114003D0023A8188360401E08188090462
:1014F0000E4347F8046D1600002101804180818071
:10150000FFF767FE30BD0E4860210288002A12D026
:1015100000F04CFB1D556E706169726564203136B8
:101520002D62697420466C617368207772697465F6
:101530002E0A02F01ABA02300139E6D170470000D3
:101540003083FF1F5A1500006900012B01CF3618A8
:10155000704736180036000616F170150000690055
:10156000012D01CF861B7047361A003E0006B6F1EA
:101570007E150000610002312D00013E70478C1580
:101580000000610002312B00013670479A150000FF
:10159000610002322D00023E7047A8150000610074
:1015A00002322B0002367047BA1500006100066E49
:1015B00065676174650076427047CC150000610074
:1015C00003616273F017361846407047EA15000051
:1015D000420005752F6D6F6401CF3100B0FBF6F648
:1015E0007143401A043F38607047081600004200FB
:1015F000042F6D6F640001CF310090FBF6F671434C
:10160000401A043F386070471C1600004200036D0A
:101610006F6400B5FFF7EFFF40CF00BD2C16000050
:101620006200012F01CF90FBF6F670473C160000D8
:101630006A00012A01CF4643704746434A1600001C
:10164000610002322A0076007047581600006100DF
:1016500002322F00761070476C160000610004659E
:1016600076656E0001203040361870478416000001
:10167000810004626173650047F8046D954E704700
:101680000A0000009A16000000000662696E61728E
:1016900079009048022101607047B01600000000F8
:1016A00007646563696D616C8A480A21016070474F
:1016B0003217000000000368657886481021016039
:1016C00070474FF47851844801604FF4806183483B
:1016D00001600021824801604FF44071814801643B
:1016E00041648160C16000217F4801707F480170C2
:1016F0007F4801707F4801700C217F4801700021F4
:101700007E4801700B217E480170C0217D48017028
:1017100088217D4801430170C0217A4801707B48CF
:10172000012101707A48082101700C216E48017076
:1017300070474E170000810009686F6F6B2D656D53
:10174000697447F8046D734E7047381800006A17C3
:101750000000810008686F6F6B2D6B65790047F89A
:10176000046D6D4E70475E18000088170000810000
:101770000A686F6F6B2D656D69743F0047F8046DE3
:10178000664E70478E180000A4170000810009689B
:101790006F6F6B2D6B65793F47F8046D604E704736
:1017A000BA180000C217000081000A686F6F6B2D25
:1017B00070617573650047F8046D5A4E7047323A90
:1017C0000000D8170000000004656D6974000FB5B3
:1017D000504800F026F80FBDEC1700000000036B26
:1017E00065790FB54C4800F01CF80FBDFE170000DE
:1017F000000005656D69743F484800688746101809
:1018000000000000046B65793F004548006887468A
:101810002618000000000570617573654148006876
:101820008746006887464C18000000000B736572FD
:1018300069616C2D656D697400B500F028F8002EA3
:1018400040CFFAD03848067040CF00BD7A1800006B
:1018500000000A73657269616C2D6B65790000B5D3
:1018600000F02BF8002E40CFFAD0304800782E48F8
:1018700047F8046D0678F6B200BDA8180000000015
:101880000C73657269616C2D656D69743F0000B5FC
:10189000FFF7C4FF47F8046D002624488022017832
:1018A000114000D0F64300BD3419000000000B7356
:1018B000657269616C2D6B65793F00B5FFF7AEFF0E
:1018C00047F8046D00261A4840220178114000D1E3
:1018D000F64300BDFC7F0020388004403480044083
:1018E0001080044000A0044003A0064002A006406F
:1018F00006A0064005A006400AA0064000A006403B
:1019000001A0064011A0064010A0064015A0064008
:101910000DA00640F87F0020F47F0020F07F00201B
:10192000EC7F0020E87F002007A0064004A00640CE
:1019300012A0064058190000000007636578706522
:10194000637400B5386801B40130386000F00BF8FA
:1019500001BC067040CF00BDCE190000000006613A
:1019600063636570740000B502CF01390022FFF790
:1019700038FF300040CF7F2809D0202819D209280D
:1019800016D00A281FD00D281DD00828EFD1002A14
:10199000EDD000F00BF903082008002AE7D0885C9E
:1019A000013A80230340E2D040230340F5D0DEE734
:1019B0002020B242DBD247F8046D0600FFF707FF94
:1019C00001328854D3E7160000F09FF800BDE019FB
:1019D000000040000374696247F8046D294E7047A7
:1019E000F61900008100033E696E47F8046D264E2B
:1019F0007047000000001C1A000082000E63757220
:101A000072656E742D736F757263650047F8046DAF
:101A10001E4E7047000000006880FF1F381A00004B
:101A2000000009736574736F75726365174802CFA0
:101A30000660416040CF7047561A000000000673F0
:101A40006F757263650047F8046D104E043F70684F
:101A5000386036687047901A00000000057175659F
:101A600072790FB5084800210160FFF7B5FF47F80C
:101A7000046D47F8046DC826FFF775FFFFF7D6FF22
:101A80000FBD00006880FF1FE47F0020DC7F002086
:101A9000D81A0000000007636F6D706172650FB5A2
:101AA000310040CF01CF884202CF10D1002810D0A2
:101AB00001380A5C335C412A02D35B2A38BF2032EA
:101AC000412B02D35B2B38BF20339A42EED0002645
:101AD0000FBD0026F6430FBDEC1A000000000263A4
:101AE000720000B500F062F8010A00BDFE1A0000A5
:101AF000000002626C0047F8046D20267047121B3C
:101B00000000000005737061636547F8046D2026CE
:101B10005DE6321B000000000673706163657300B0
:101B200000B5002E03DDFFF7F0FF013EFBD140CFF3
:101B300000BD421B00005000065B636861725D00DF
:101B400005E05A1B0000000004636861720000B5E4
:101B500001F07FFB40CF367800BD6A1B00005000CB
:101B6000012847F8046D292606E0841B0000500078
:101B7000015C47F8046D002600B501F074FB0437E2
:101B800040CF00BDC81B00003000022E2200A94833
:101B900000B547F8046D060000F07BFA47F8046DC5
:101BA000222601F060FB00F07AFD00BD0AB447F880
:101BB000046D7646013E33780121013319405B18EC
:101BC0001EEB030E0ABC39E0EE1B0000300002637E
:101BD00022009948DCE747F8046D7646013E3378E9
:101BE0000121013319405B181EEB030E7047181CCE
:101BF00000003000027322009048C9E747F8046DE6
:101C0000764647F8046D013E36780121731C194071
:101C10005B181EEB030E7047301C000000000563CC
:101C20006F756E74013647F8046D013E3678704763
:101C3000481C0000000005637479706500B5FFF76B
:101C4000F1FF00F007F800BD701C000000000474F4
:101C50007970650001B501CF002E07D047F8046DFB
:101C60000678FFF7B4FD0130013EF7D140CF01BD4A
:101C7000AA1C00000000046865782E0007B531003A
:101C800040CF20200F22043847F8046D0E00C640D4
:101C90001640092E01D9373600E03036FFF797FDA0
:101CA0000028F0D1FFF731FF07BDBA1C000000008B
:101CB00003682E731FB5624C0EE0CA1C00000000C2
:101CC00003752E731FB55F4C06E06E1D000000000B
:101CD000022E73001FB55C4C5C49C91B8908220A9F
:101CE0002020292F200A2028273E200A202F434386
:101CF0002020203335204343430A385C29295F20C4
:101D00000A0A534A106803B40A201060FFF74EFF16
:101D100008537461636B3A205B0047F8046D0E0052
:101D200001F079FCFFF742FF025D200003BC27367B
:101D3000474A106000290AD0464A106806B447F89E
:101D4000046D0600A04706BC043A0139F5D1FFF73F
:101D50002DFF0620544F533A200047F8046D3600FB
:101D6000A047FFF723FF04202A3E0A001FBD0E1ED6
:101D70000000000005776F72647300B5FFF716FF6F
:101D8000010A00F0DCFEFFF711FF0941646472658F
:101D900073733A2047F8046DFFF770FFFFF706FFF3
:101DA000064C696E6B3A200047F8046D3668FFF701
:101DB00065FFFFF7FBFE07466C6167733A2047F843
:101DC000046DB688FFF75AFFFFF7F0FE06436F6415
:101DD000653A2000B01D00F0ECFE47F8046D0600E7
:101DE000FFF74CFFFFF7E2FE064E616D653A2000FB
:101DF00047F8046D0636FFF721FFFFF7D7FE010A0B
:101E000000F0B4FE300040CFBDD040CF00BD5C1E1E
:101E10000000000006756E757365640000B500F083
:101E200075FF0D4801680C4A914201D24FF480269B
:101E3000761A00BDAC1B0000D61B0000FC1B000086
:101E40007D1C000007360000173600003082FF1F9F
:101E5000FC7F00202C82FF1F0080FF1FC01F00009E
:101E600000000D3132626974656E636F64696E677C
:101E70000FB5FF2E04D847F8046D5FF0FF360FBD95
:101E800016F0FF10B0420ED14FF6FF710840310C32
:101E9000814208D116F0FF0656F4805647F8046DCB
:101EA0005FF0FF360FBD16F0FF20B0420FD14FF6A6
:101EB000FF710840310C814209D1360A16F0FF0645
:101EC00056F4005647F8046D5FF0FF360FBDFF2251
:101ED00031001140300A1040884210D1300C1040BF
:101EE00088420CD1300E1040884208D116F0FF060F
:101EF00056F4405647F8046D5FF0FF360FBD3000D2
:101F000000210131001850F100007FF07F020240F3
:101F1000802A05D01F29F4D347F8046D00260FBD91
:101F20000829F9D3060036F0800611F00100C0013F
:101F3000064311F00E00C002064311F010008005A8
:101F4000064347F8046D5FF0FF360FBD47F8046D98
:101F5000DFF84C665FF4704110EA0102120116438B
:101F60005FF4006110EA0102D20316435FF4E061FE
:101F700010EA010212011643FF2110EA0102164382
:101F80001E437CE347F8046DDFF818665FF070418C
:101F900010EA0102120B16435FF0006110EA010221
:101FA000520816435FF0E06110EA0102120B16437B
:101FB0005FF47F0110EA0102120C16431E435EE338
:101FC0002620000000001072656769737465726CEA
:101FD00069746572616C2C000FB5330040CF1B0231
:101FE000FF2E05D856F400561E4300F020FB0FBD0F
:101FF000FFF73EFF002E40CF06D0DFF8AC050643CA
:102000001E4300F03CFB0FBDF643FFF731FF002EEF
:1020100040CF06D0DFF8940506431E4300F02FFBA7
:102020000FBDF6430BE0862000000000096D6F76BF
:10203000776D6F76742C0FB5330040CF1B023000E4
:1020400040CFFFF783FF4FF6FF7110EA014001D048
:10205000FFF798FF0FBD0FB50136300040CF0023CA
:10206000FFF774FFFFF78EFF06E00FB5013647F864
:10207000046D0026FFF7B0FF47F8046D44F2807648
:1020800000F0D5FA0FBDEC20000000000563616C84
:102090006C2C0FB5330000F02AFE300040CF1B1A25
:1020A000043BDFF80C151940002906D0DFF80425A1
:1020B000914202D0BDE80F40D7E740CF5B08DFF880
:1020C000F80440F2FF7119400843DB0A40F2FF3187
:1020D0001940090408439B0A13F0010189060843CB
:1020E00047F8046D060000F0CAFA0FBD2221000077
:1020F0000000086C69746572616C2C0008B547F8C3
:10210000046D4FF6470600F092FA47F8046D46F664
:10211000045600F08CFA47F8046D0626FFF75CFFC2
:1021200008BD462100000000066372656174650009
:1021300000B500F033F842F26310804747F8046DB1
:10214000BEF1010600BD8E210000200005646F6510
:10215000733E42F26310804747F8046DBEF10106FA
:10216000704747F8046DBEF10106DFF8502413688C
:10217000DFF84C1409680220084000D00231023117
:102180001160FFF768FF136000F0BDF900BDD021BA
:1021900000000000073C6275696C647300B500F0D4
:1021A0005DFB00F0A4FD0220064040CF04D047F8BC
:1021B000046D362600F03BFA47F8046D4BF20056EA
:1021C00000F035FA47F8046D0A2600F09BFA00BDCE
:1021D000DC2100005000035B275D03E0F4210000D8
:1021E0000000012700B501F034F800F021FD3000B7
:1021F00040CF00BD32220000300008706F73747051
:102200006F6E650000B5FFF7EDFF102101400DD1A5
:102210002021014005D0FFF771FF47F8046DE94E1A
:1022200004E0FFF76BFF47F8046DE74EFFF731FF5F
:1022300000BD88220000000007696E6C696E652C85
:1022400000B54BF200514BF6005244F270733088E7
:10225000884208D0904208D0984206D047F8046DD2
:10226000060000F0E4F90236F1E740CF00BD0EB4FD
:102270004BF6005244F2707301880230914201D053
:102280009942F9D10EBC70479E22000000000472F2
:1022900065742C0047F8046D4BF60056C7E1AC227C
:1022A00000003000046578697400F3E7C422000080
:1022B0003000077265637572736547F8046DC04E30
:1022C0003668E6E6DC2200008100057374617465FF
:1022D00047F8046DBD4E704700000000EE2200007C
:1022E0000000015DB9480021C94301607047FE222A
:1022F00000001000015BB5480021016070472623F3
:1023000000000000013A00B5B148076000F0A6FAED
:1023100047F8046D4BF2005600F089F9AB480021F4
:10232000C943016000BD7A2300003000013B00B5C5
:10233000A7480168B94214D0A6498E4202D1A64EE0
:10234000FFF77CFCFFF732FC1520537461636B20B0
:102350006E6F742062616C616E6365642E0A01F0B9
:1023600004BB47F8046D4BF6005600F060F900F02E
:10237000CAF896480021016000BD8E2300000000CD
:102380000765786563757465300040CF8746A6237E
:102390000000100009696D6D65646961746547F836
:1023A000046D1026E1E0BC230000500006696E6C4D
:1023B000696E650047F8046D2026D6E0D62300003C
:1023C00010000B636F6D70696C656F6E6C7947F808
:1023D000046D3026C9E0F023000050000A302D665D
:1023E0006F6C6461626C650047F8046D4026BCE068
:1023F0000A24000050000A312D666F6C6461626C23
:10240000650047F8046D4126AFE024240000500029
:102410000A322D666F6C6461626C650047F8046D6A
:102420004226A2E03E24000050000A332D666F6C65
:102430006461626C650047F8046D432695E058249A
:10244000000050000A342D666F6C6461626C650098
:1024500047F8046D442688E07224000050000A35D5
:102460002D666F6C6461626C650047F8046D4526EB
:102470007BE08C24000050000A362D666F6C64618E
:10248000626C650047F8046D46266EE0A6240000E5
:1024900050000A372D666F6C6461626C650047F806
:1024A000046D472661E0D6240000000008636F6ECB
:1024B0007374616E740000B500F0D0F9FFF71EFE72
:1024C00047F8046D44F2707600F0B1F8FFF78CFF26
:1024D00000F019F800BDF824000000000932636F15
:1024E0006E7374616E7400B500F0B8F939683E60BF
:1024F0000E46FFF703FEE1E75A25000000000673D1
:102500006D756467650000B52C4801682B4A9142DF
:102510001DD202390A884FF6FF739A4204D147F858
:10252000046D002600F083F800F070F82B48006876
:1025300047F8046D06002A49096804311F4A1368E8
:10254000116000F074F81360FEF7DDFF00BD00F0CD
:102550005DF847F8046D002608E0E425000000005F
:1025600008736574666C6167730000B51348016891
:10257000124A914205D2194801683143016040CFA7
:1025800000BD320040CF16480068043001884FF685
:10259000FF73994201D1110000E01143018000BD99
:1025A000000040F20000C0F200005FF000007FF089
:1025B0000100C0FF0000C0FF00F800F00080FF1F16
:1025C0001480FF1F4022000092200000D87F0020CE
:1025D0001080FF1F85191204DE1C00002080FF1FE1
:1025E0000480FF1F00260000410007616C69676ED0
:1025F000656401203040361802203040361870479C
:1026000024260000000005616C69676E00B58848EB
:1026100001680220014004D047F8046D002600F054
:1026200006F800BD5A260000000002682C000FB515
:10263000B6B27F4801687E4A914205D247F8046DE0
:102640000E00FEF7FEFE02E0320040CF0A8047F89F
:10265000046D022600F056F80FBD7426000000003D
:10266000012C00B547F8046DFFF7E1FF360CFFF7CA
:10267000DEFF00BD902600000000033E3C2C00B5AC
:1026800047F8046D360CFFF7D2FFFFF7D0FF00BD0F
:10269000F8260000000007737472696E672C07B596
:1026A000FF21314040CF300040CF002905D147F80D
:1026B000046D0026FFF7BBFF07BD47F8046D0678E1
:1026C00036020E43FFF7B3FF0130013902290AD366
:1026D00047F8046D4678360202781643FFF7A7FFE5
:1026E00002300239F2E7002900D107BD47F8046D36
:1026F0000678FFF79CFF07BD542700000000056126
:102700006C6C6F744A480168494A914210D2320099
:1027100040CF89184FF48022914219D3FFF746FA2F
:102720000B466C6173682066756C6C0A01F01DB90C
:10273000320040CF89183F4A1268914208D3FFF710
:1027400035FA0952616D2066756C6C0A01F00DB99D
:102750000160704778270000000009666F726765A6
:102760007472616D00B500F025F83148324901609E
:1027700032483349016000BDA027000000000D630E
:102780006F6D70696C65746F72616D3F47F8046DB1
:102790000026274800682649884248D3F6437047F8
:1027A000C027000000000C636F6D70696C65746F6A
:1027B00072616D001E4800681D49884211D3704740
:1027C0004C28000000000E636F6D70696C65746FBB
:1027D000666C61736800164800681549884200D22B
:1027E00070471648174902680B680A600360104872
:1027F000154902680B680A6003600E48006883424E
:1028000015D300B5FFF7D2F92320566172696162D2
:102810006C657320636F6C6C69646520776974689C
:102820002064696374696F6E6172790A00BD7047D4
:102830000080FF1F2480FF1FF083FF1F0480FF1F05
:10284000100400001C80FF1F1880FF1F3E2900009D
:1028500000000828637265617465290000B500F006
:10286000F8FC002E0ED1FFF7A1F915204372656127
:102870007465206E65656473206E616D6520210A44
:1028800001F073B8386847F8046D043F386000F011
:102890009FF940CF002E40CF11D0386847F8046D23
:1028A000043F3860FFF782F9095265646566696E16
:1028B0006520FFF7CFF9FFF779F9022E2000FFF727
:1028C000A5FE91480068904988421FD28F48002198
:1028D000016000F00CFA47F8046D0626FFF712FFBE
:1028E000FEF722F9FFF7DBFE894801680A684FF01E
:1028F000FF339A4207D1844A1368116047F8046D88
:10290000FFF7AFFE1360066040CF13E000F0EFF971
:102910007F4847F8046D0668FFF7A3FE47F8046D8B
:102920004FF6FF76FFF783FE7948310040CF016014
:10293000FFF7B5FE744801687648016000BD56296E
:1029400000000000087661726961626C650047F8FA
:10295000046D012613E06E29000000000932766143
:10296000726961626C6547F8046D022607E0482AC7
:1029700000000000096E7661726961626C6500B5E5
:10298000FFF76CFF604801685F4A914234D20F2024
:102990000640B20060480168891A604A91420BD231
:1029A000FFF704F90F4E6F7420656E6F756768202E
:1029B00052414D0A00F0D9BF016047F8046D0E0086
:1029C000FFF79CFB47F8046D44F27076FFF72FFE8B
:1029D000300040CF0200002805D00E600431FFF720
:1029E00040FE0138F9D147F8046D80261643FFF701
:1029F000BCFDFFF788FD00BD00F079F9022006401C
:102A000040CF04D147F8046D3626FFF710FE47F893
:102A1000046D434EFFF733FE47F8046D414EFFF758
:102A20002EFE47F8046D44F27076FFF700FE30008A
:102A300040CF002803D0FFF714FE0138FBD1FFF789
:102A4000D3FCFFF760FD00BD282B000000000762EB
:102A500075666665723A00B5FFF700FF01203040E9
:102A6000361802203040361827480168264A91421D
:102A700028D229480168891B284A91420BD2FFF7C6
:102A800095F80F4E6F7420656E6F75676820524120
:102A90004D0A00F06ABF016047F8046D0E00FFF7B1
:102AA0002DFB47F8046D44F27076FFF7C0FDFFF789
:102AB000D8FD47F8046D40F24016FFF756FDFFF7CA
:102AC00022FD00BD00F013F90220064040CF04D1E2
:102AD00047F8046D3626FFF7AAFD47F8046D104E3F
:102AE000FFF7CDFD47F8046D0E4EFFF7C8FD47F820
:102AF000046D44F27076FFF79AFDFFF703FEFFF7CF
:102B000073FCFFF700FD00BD0080FF1F2080FF1F4A
:102B10000480FF1F1480FF1F2480FF1FF083FF1F0E
:102B20003E60043F02367E46562B000000000F64D4
:102B3000696374696F6E6172797374617274ED4860
:102B40000068EC4947F8046D884201D2EA4E7047AC
:102B5000EA4E36687047922B000000000E646963ED
:102B600074696F6E6172796E6578740003B531684F
:102B70004FF0FF30814207D08879FF2804D00E0043
:102B800047F8046D002603BD47F8046D0026F643A0
:102B900003BDC42B000000000A736B69707374726C
:102BA000696E67003178013101220A408918761870
:102BB000704706B40178013101220A408918401893
:102BC00006BC70474A2C000000000466696E640071
:102BD00030B500220023350040CF340040CFFFF74E
:102BE000AEFF4FF6FF70B188884217D047F8046DEA
:102BF0000636FFF717F847F8046D260047F8046D0E
:102C00002E00FEF74CFF002E40CF07D0B01DFFF77F
:102C1000D0FF02000B00B748824204D2FFF7A6FFA4
:102C2000300040CFDDD0160047F8046D1E0030BDE7
:102C300000B53100386803B4FFF7CAFF03BC3A6837
:102C4000002A01D100F05CFD00BDA82C00000000AE
:102C500006636A756D702C00320040CF310040CFA2
:102C60008B1B043B6FF0FE01194000290ED06FF062
:102C7000FF0081420AD0FEF799FF0D4A756D702062
:102C8000746F6F206661720A00F06FBE5B10FF21E7
:102C90000B40134330001E0000B5964A13681060C5
:102CA000FFF7C5FC136000BDE22C00000000056AC0
:102CB000756D702C310040CF300040CF0B1A043BB3
:102CC0008F491940002902D08E4A9142D3D15B101E
:102CD00040F2FF72134053F4604347F8046D1E0046
:102CE000DAE7F82C0000000004686572650047F818
:102CF000046D804E36687047F42D000000000D66AC
:102D00006C6173687661722D6865726547F8046D51
:102D10007D4E3668704700B547F8046D42F6006690
:102D2000FFF785FC47F8046D4CF64076FFF77FFC13
:102D300000BDDCE700B500F03AF839683E600E46A9
:102D400047F8046D4DF20016FFF786FF00BD00B591
:102D500000F02DF839683E600E4647F8046D4DF2DC
:102D60000076FFF779FF00BD00B5FFF7D4FF00F054
:102D70001EF839683E600E4647F8046D4DF20006B5
:102D8000FFF76AFF00BD00B500F011F839683E603A
:102D90000E46FFF78FFF00BD00B5FFF7BCFFFFF742
:102DA000A6FF47F8046D0226FFF7ACFC00BD00B596
:102DB000FFF79DFF47F8046D0226FFF7A3FC00BD57
:102DC00000B5FFF794FFFFF775FF00BD00B5FFF7F3
:102DD0008EFF47F8046D4DF20006FFF73DFF00BD82
:102DE00000B5FFF784FF47F8046D4DF20016FFF7BA
:102DF00033FF00BD302E00003000047468656E00A3
:102E0000052E01D140CFDBE7022E01D140CFDDE717
:102E1000FEF7CCFE17537472756374757265732078
:102E2000646F6E2774206D617463680A00F09DBD45
:102E30004C2E0000300004656C73650000B500F096
:102E400017F8FDF713FBFFF7DBFF00BD642E000052
:102E500030000269660000B5FFF79EFF47F8046D79
:102E6000022600BD7E2E00003000056168656164A9
:102E700000B5FFF79CFF47F8046D052600BD982EAE
:102E800000003000067265706561740000B500F0E6
:102E90001FF8FFF7B5FF00BDB02E0000300005772A
:102EA00068696C6500B5FFF7D6FFFDF7DFFA00BD76
:102EB000C42E0000300005756E74696C012EA7D118
:102EC00040CF51E7D82E0000300005616761696E80
:102ED000012E9DD140CF56E70C2F00003000056237
:102EE0006567696E00B5FFF724FF47F8046D01269A
:102EF00000BD00000080FF1F100400000480FF1FC1
:102F000001F8FFFF00F8FFFF2480FF1F1C2F0000C7
:102F10002000016B47F8046D029E70472C2F0000C3
:102F20002000016A47F8046D009E70473C2F0000A6
:102F30002000016947F8046D260070477A2F0000D1
:102F40003000056C6561766500B5D84801683B00C6
:102F5000043F1A68043B1A6008338B42F9D103B46A
:102F6000FFF725FF03BC330040CF04390B6001603D
:102F700004390A6801320A6000BD8C2F000020006D
:102F800006756E6C6F6F700030BC7047C42F000008
:102F90003000052B6C6F6F70032E00D038E740CFE8
:102FA00000B547F8046DC24EFFF74AF9FFF7CFFEB0
:102FB0001AE014F10044641BA41940CF2C44A4F17E
:102FC00000447047063000003000046C6F6F7000E2
:102FD000032E00D01CE740CF00B547F8046DB54E76
:102FE000FFF72EF9FFF7A6FE00F019F9AF48310000
:102FF00040CF016047F8046DAF4EFFF721F900BDE7
:103000000134AC4270474E300000780002646F001B
:1030100000B547F8046DA94EFFF712F9A3480168FF
:1030200047F8046D0E0047F8046D00260760FFF7AF
:1030300080FE47F8046D032600BD00B500F02FF8B0
:10304000ECE730B4340040CF350040CF7047E83073
:1030500000007800033F646F00B547F8046D974E99
:10306000FFF7EEF847F8046D44F2AC26FFF7DFFAFD
:103070008E48016847F8046D0E00FFF798FE013690
:1030800047F8046D012689480760FFF752FE47F8AC
:10309000046D032600BD00B500F001F8E2E700B5BD
:1030A00047F8046D4BF23046FFF7C1FA47F8046D5C
:1030B0000426FEF791FF013B08D047F8046D052672
:1030C000FEF78AFF013B00F029FC00BD47F8046DC4
:1030D0003526FFF7ACFA47F8046D4CF64076FFF75B
:1030E000A6FA00F01BFC00BD0231000030000463B2
:1030F0006173650047F8046D002647F8046D0826E3
:103100007047183100003000033F6F666C4809E0DB
:10311000013EB64140CF7047BE3100007800026FDB
:1031200066006848082E00D072E640CF00B547F828
:10313000046D0600FFF784F8FFF739FE39683E603A
:103140000E46013647F8046D092647F8046D4CF623
:103150004076FFF76CFA00BD00B5300040CF013B70
:1031600001B400F0DBFB01BC082E00D050E640CFDC
:1031700047F8046D0600FF213140B14205D14FF4FC
:1031800038510E43FFF753FAD6E7FEF771FE002ED3
:1031900040CF04D04C480643FFF771FACCE747F81C
:1031A000046D0026FEF718FF47F8046D44F2B026C0
:1031B000FFF73DFAC0E7300040CFB0427047F4312E
:1031C0000000300005656E646F66092E00D01FE6B2
:1031D00040CF00B540B440CFFFF7E9FD39683E600D
:1031E0000E46FFF7FDFD47F8046D40BC47F8046D3F
:1031F000082600BD46320000300007656E6463613A
:103200007365082E00D003E640CF00B547F8046D83
:103210004CF64076FFF70BFA00F001F800BD00B560
:10322000300040CF00280DD003B4012131400029E7
:1032300003D0013EFFF7CAFD01E0FFF7C1FD03BC6B
:103240000138EFE700BD5A320000000005746F6BD3
:10325000656E47F8046D202605E0D43200000000BA
:1032600005706172736510B5184801684068184AA6
:1032700012688418202E07D191420FD0835CB3428C
:1032800002D101328418F7E7914207D0835C013202
:10329000B342F9D18618361B013E01E08618361B71
:1032A000043F3C600A48026010BD00000C80FF1F14
:1032B000B22F000000300000882F000042300000D4
:1032C00010310000B6310000000FB6F1DC7F0020A5
:1032D000E47F002012330000000005646967697410
:1032E000CF4B1B68303E0BD30A2E0BD3073E0A2E62
:1032F00006D3242E06D3203E0A2E01D3242E01D33A
:10330000002670479E42FBD247F8046D0026F64324
:1033100070471C3400000000066E756D6265720017
:103320003FB5310040CF701E0126012204B4BC4BD2
:103330001B680024002500293CD0013001390278A7
:103340002D2A04D101B00022D24304B4F3E7232A8A
:1033500001D10A23EFE7242A01D11023EBE7252A24
:1033600001D10223E7E72E2A01D10226E3E72C2A26
:1033700036D047F8046D1600FFF7B4FF002E40CF9B
:103380002BD047F8046D260047F8046D2E0047F84F
:10339000046D1E0047F8046D00260FB4FDF764F9B4
:1033A0000FBC350040CF340040CF0022A419554156
:1033B00040CFC0E704BC002A04D50022E443ED431B
:1033C0000134554133002600012B02D047F8046D2B
:1033D0002E0047F8046D1E003FBD01B000263FBD22
:1033E0002500002402260029E4D0425C01392E2A5F
:1033F000F9D047F8046D1600FFF774FF002E40CF98
:10340000EBD0043F3C6047F8046D1E000FB4FDF79D
:10341000DAF90FBC340040CF40CFE4E73E3400007F
:103420000000062E6469676974000A2E01D23036E6
:103430007047242E01D237367047232670477434E4
:103440000000000004686F6C6400330040CF7548D2
:1034500001783F290DD2013101704018012907D0B0
:103460000138027801300270013801390129F7D1A1
:103470000370704794340000000005686F6C643C72
:10348000330040CF674801783F2902D201310170F3
:1034900043547047AC3400000000047369676E0049
:1034A000002E01D440CF70472D26CEE7C034000057
:1034B000000002233E005B48067801303860704708
:1034C000D834000000000366235310B5202400F018
:1034D00008F8013CFBD110BDFA3400000000026680
:1034E000230000B547F8046D4D4E3668FDF7A8F887
:1034F000FFF79BFFFFF7C4FF00BD1635000000007B
:103500000223530000B500F00AF8002EFBD1386802
:103510000028F8D100BD423500000000012300B5AD
:1035200047F8046D3E4E366847F8046D0026FDF7F7
:1035300069F9FCF79BFF40CFFFF777FFFFF785FFA7
:1035400000BD543500000000023C23003548002136
:103550000170704766350000000002662E0047F8D3
:10356000046D202604E0B4350000000003662E6ED2
:1035700000B510B4340040CFFDF7C0FAFDF729F8CC
:1035800047F8046D0026FFF7E1FFFFF7BBFF40CFD0
:103590002C26FFF775FF002C03D0FFF7A2FF013C9C
:1035A000FBD110BC40CFFFF77BFF47F8046D47F815
:1035B000046D1CE0CA35000000000375642E00B5E0
:1035C000FFF7C4FFFFF79EFF11E0FC35000000008D
:1035D00002642E0000B5FDF791FAFCF7FAFFFFF741
:1035E000B5FFFFF78FFFFDF793FAFFF759FFFFF7DE
:1035F00062FFFEF72FFBFEF788FA00BD0E360000D3
:10360000000002752E0047F8046D0026D7E7283623
:1036100000000000012E47F8046DF617DAE70000FD
:10362000FC7F00202880FF1F703600000000086526
:1036300076616C756174650000B5FEF704FA01CF20
:1036400001B440B440CFD948016802B40021016000
:10365000FEF7ECF900F014F8D44802BC016047F81A
:10366000046D40BC01BC043F3860FEF7DFF900BDCB
:1036700042390000000009696E74657270726574E9
:1036800030B5CB4887420BD9FEF790FA10537461DE
:10369000636B20756E646572666C6F770A0064E117
:1036A000C44887420AD2FEF781FA0F537461636BF4
:1036B000206F766572666C6F770A56E1BE4C25689E
:1036C000002D01D13D002560FFF7C3FD002E02D182
:1036D000043740CF30BD386847F8046D043F386088
:1036E000FFF776FA310040CF320040CF002A19D1DF
:1036F00038683100FFF714FE320040CF002AC0D1F5
:1037000047F8046D060047F8046D0E00FEF7A2FAB4
:10371000FEF74CFA0C206E6F7420666F756E642E87
:103720000A0022E1A54B1B68002B1DD10025256056
:1037300030230B40302B0ED1FEF78CFAFEF736FA11
:103740001220697320636F6D70696C652D6F6E6CEC
:10375000792E0A0009E1043740CF47F8046D1600BE
:10376000FEF712FEFFF78DFF043740CF80200840A0
:103770000ED1EB1B9B08402008400FD008200840CA
:1037800002D0002B00D01DE00F200840834205D35B
:1037900047F8046D1600FEF7F7FD72E700F0BEF87B
:1037A00047F8046D160010220A4002D0FEF7ECFD27
:1037B00067E720220A4002D0FEF742FD61E7FEF7EC
:1037C00068FC5EE7072001401000FEF750FD01296C
:1037D0001FD1012BDCD1FF213140B14204D14088FF
:1037E0000643FEF724FF4CE7FEF742FB002E40CFD6
:1037F00004D040680643FEF742FF42E747F8046DF5
:103800000026FEF7E9FB47F8046D0688FEF70FFF78
:1038100037E7022902D1012BBAD1EFE7032927D1DB
:10382000012BB5D1FF213140B1420BD14FF478517A
:103830000E43FEF7FCFE043247F8046D1600FEF757
:10384000FFFC1EE7FEF714FB002E40CF04D05C49BE
:103850000E43FEF714FFEEE747F8046D0026FEF76F
:10386000BBFB023247F8046D1600FEF7E9FC08E7DF
:10387000042918D1012B8BD1330040CF002B00D16C
:10388000FFE61F221A409A4205D047F8046D468889
:10389000FEF7CDFEF5E647F8046D06889B011E4352
:1038A000FEF7C5FEEDE6052924D1012B10D147F81E
:1038B000046D0026FEF790FB47F8046D0600FEF746
:1038C000BFFC47F8046D4CF64076FEF7B0FED8E634
:1038D00047F8046D0026FEF77FFB47F8046D0126CC
:1038E000FEF77AFBFEF7C3FC47F8046D0600FEF70F
:1038F000A7FCC6E606290ED1012B7FF449AFFEF7DF
:10390000B7FA002E40CF3FF479AFD0F8020006435B
:10391000FEF7B5FEB5E601308047B2E600B5002BF4
:103920000CD0013B47F8046D1E0057F82660FEF7E7
:10393000E5FB002BF5D1043D2F0040CF002525608D
:1039400000BD5E390000810009686F6F6B2D7175D5
:10395000697447F8046D1B4E704796390000D839DA
:1039600000000000047175697400DFF85CD0104F2E
:10397000FDF758FD15480A2101601048002101603B
:103980000D4801600948016011480160114941601A
:103990000C4800688746FEF764F8FFF771FEFEF7F3
:1039A00005F905206F6B2E0AF5E70000E47F002083
:1039B0003082FF1F3081FF1F0880FF1FD87F00204B
:1039C0000006B6F1D47F00203083FF1FFC7F00206B
:1039D000DC7F00206880FF1FF239000000000565D1
:1039E000696E743F47F8046DEFF31086013EB641EF
:1039F0007047023A000020000465696E740062B6E8
:103A00007047123A000020000464696E740072B6B8
:103A10007047283A0000200004697073720047F86C
:103A2000046DEFF305867047343A00000000036E22
:103A30006F707047763A0000000009756E68616E1D
:103A4000646C656400B5FEF7B1F814556E68616E7C
:103A5000646C656420496E746572727570742000C0
:103A600047F8046DEFF30586FEF708F9FEF79EF8B8
:103A700002210A0000BD8C3A000000000572657347
:103A80006574DFF80C04DFF80C140160B63A00002E
:103A900081000B6972712D7379737469636B47F8D8
:103AA000046DFD4E7047443A000047F6D070C2F2F4
:103AB000000000688746DE3A0000810009697271E3
:103AC0002D6661756C7447F8046DF44E7047443A86
:103AD000000047F6CC70C2F20000006887460C3B3D
:103AE000000081000E6972712D636F6C6C656374E8
:103AF000696F6E0047F8046DE94E7047443A000064
:103B000047F6C870C2F2000000688746343B0000E8
:103B10008100086972712D616463300047F8046D9B
:103B2000E04E7047443A000047F6C470C2F200000D
:103B3000006887465C3B00008100086972712D6156
:103B40006463310047F8046DD74E7047443A000073
:103B500047F6C070C2F2000000688746843B000050
:103B60008100086972712D636D70300047F8046D33
:103B7000CE4E7047443A000047F6BC70C2F20000D7
:103B800000688746AC3B00008100086972712D63B4
:103B90006D70310047F8046DC54E7047443A00001F
:103BA00047F6B870C2F2000000688746D43B0000B8
:103BB0008100086972712D636D70320047F8046DE1
:103BC000BC4E7047443A000047F6B470C2F20000A1
:103BD00000688746FA3B00008100076972712D6416
:103BE000616347F8046DB44E7047443A000047F6ED
:103BF000B070C2F2000000688746223C00008100DD
:103C0000096972712D706F72746147F8046DAB4E63
:103C10007047443A000047F6AC70C2F200000068FA
:103C200087464A3C00008100096972712D706F72ED
:103C3000746247F8046DA24E7047443A000047F69C
:103C4000A870C2F2000000688746723C0000810044
:103C5000096972712D706F72746347F8046D994E23
:103C60007047443A000047F6A470C2F200000068B2
:103C700087469A3C00008100096972712D706F724D
:103C8000746447F8046D904E7047443A000047F65C
:103C9000A070C2F2000000688746C23C00008100AC
:103CA000096972712D706F72746547F8046D874EE3
:103CB0007047443A000047F69C70C2F2000000686A
:103CC0008746EC3C000081000A6972712D55415213
:103CD0005430530047F8046D7D4E7047443A00005D
:103CE00047F69870C2F2000000688746163D000053
:103CF00081000A6972712D5541525430450047F8D0
:103D0000046D744E7047443A000047F69470C2F256
:103D100000000068874600400000FFFF182D2D2D91
:103D200020466C6173682044696374696F6E6172C8
:103D300079202D2D2D00002167484CF22052C281A0
:103D40004DF62812C281028822F001020280FDF79E
:103D5000B8FC62488546624F2A2662486249016083
:103D600062486349016047F8046D614E614DB18856
:103D70004FF6FF73994225D04FF480730B400AD061
:103D8000B01DFEF716FFFEF772FA038840880004A4
:103D90000343ED1A16E080230B4013D00F23194084
:103DA00089006D1AB01DFEF704FFFEF760FA47F8B0
:103DB000046D060047F8046D2E0047F8046D0E00F0
:103DC000FDF74AF8FEF7D2FE300040CFCFD04A4888
:103DD000066040CF494805604FF480204FF4804191
:103DE0004FF6FF72884204D0023803889342F9D01C
:103DF000023043490860FDF715FBFDF7D7FE294D5A
:103E00006563726973702D5374656C6C617269734C
:103E100020322E352E31206279204D61747468690C
:103E20006173204B6F63680AFDF7C0FE38436F6E05
:103E300066696775726174696F6E20666F7220546F
:103E400065656E737920332E3120706C6174666FF6
:103E5000726D206279204D61726B205363687765C3
:103E6000697A65720A0027480021016047F8046DED
:103E7000254E47F8046D0426FEF7AAFE40CF002E1B
:103E800002D0FEF781FA83E540CF6EE5696E697472
:103E90000CED00E00400FA05D07F0020CC7F00206C
:103EA000C87F0020C47F0020C07F0020BC7F00208E
:103EB000B87F0020B47F0020B07F0020AC7F0020BE
:103EC000A87F0020A47F0020A07F00209C7F0020EE
:103ED000987F0020947F0020002005403083FF1F42
:103EE0003082FF1F0080FF1FF083FF1F0480FF1F31
:103EF00010040000008000201C80FF1F2480FF1F92
:0C3F00001880FF1F0880FF1F8C3E00008F
:00000001FF
