:100000003083FF1F073D0000A33A0000A33A000021
:10001000A33A0000A33A0000A33A00000000000049
:10002000000000000000000000000000D13A0000C5
:10003000D13A000000000000D13A00007B3A0000F5
:10004000D13A0000D13A0000D13A0000D13A000084
:10005000D13A0000D13A0000D13A0000D13A000074
:10006000D13A0000D13A0000D13A0000D13A000064
:10007000D13A0000D13A0000D13A0000D13A000054
:10008000D13A000000000000D13A0000D13A00004F
:10009000D13A0000D13A0000D13A0000000000003F
:1000A000D13A0000D13A0000D13A0000D13A000024
:1000B00000000000D13A0000D13A0000D13A00001F
:1000C000D13A0000D13A0000D13A0000D13A000004
:1000D000D13A000000000000000000000000000015
:1000E0000000000000000000000000000000000010
:1000F000D13A0000B13C0000DB3C0000D13A0000E6
:10010000D13A0000D13A0000D13A000000000000CE
:1001100000000000000000000000000000000000DF
:1001200000000000F93A0000213B0000493B0000BC
:10013000713B0000993B0000D13A0000D13A000029
:10014000D13A0000D13A0000D13A0000D13A000083
:10015000D13A0000D13A0000D13A0000D13A000073
:10016000D13A0000D13A0000D13A0000000000006E
:10017000000000000000000000000000000000007F
:1001800000000000BF3B000000000000D13A00006A
:10019000D13A0000D13A0000D13A0000E73B00001C
:1001A0000F3C0000373C00005F3C0000873C000033
:1001B0000000000000000000D13A0000FFFFFFFF38
:1001C000FFFFFFFFFFFFFFFFFFFFFFFFFFFFFFFF3F
:1001D000FFFFFFFFFFFFFFFFFFFFFFFFFFFFFFFF2F
:1001E000FFFFFFFFFFFFFFFFFFFFFFFFFFFFFFFF1F
:1001F000FFFFFFFFFFFFFFFFFFFFFFFFFFFFFFFF0F
:10040000FFFFFFFFFFFFFFFFFFFFFFFF00000000F8
:1004100036040000FFFF1E2D2D2D204D65637269EF
:1004200073702D5374656C6C6172697320436F72C5
:1004300065202D2D2D004E0400004200043264750D
:100440007000386847F8046D043F386070476004F6
:1004500000006200053264726F70043740CF70474D
:100460007E040000440005327377617007CF043FBB
:10047000386047F8046D043F3A600E0070479204FC
:100480000000620004326E69700007CF043F3860DC
:100490007047AC040000440005326F766572B8689E
:1004A00047F8046D043F3860FE687047D0040000D0
:1004B000440005327475636B07CF043F386047F81A
:1004C000046D043F3A60043F3960043F3860704770
:1004D000F204000046000432726F74003868B96894
:1004E0003A69B86039613A6079687E60FE68F9609F
:1004F000704714050000460005322D726F7438688D
:10050000B9683A6938613960BA60F968FE607E6836
:100510007960704728050000200003323E7201CF49
:1005200001B440B440CF70474005000020000332C2
:10053000723E47F8046D40BC01BC043F3860704710
:100540005805000020000332724047F8046D019EF8
:1005500047F8046D009E70476A05000020000632CF
:100560007264726F700002B0704782050000420032
:100570000364322F3868F10776104008084338606A
:1005800070479605000062000364322A386800183C
:10059000764138607047B00500004200046473681B
:1005A00072003868F10776084008084338607047E1
:1005B000C60500006200046473686C0038680018A7
:1005C000764138607047D8050000420004646162DB
:1005D0007300002E07D47047F60500004200076440
:1005E0006E656761746538680021C043F643013069
:1005F0004E41386070470E060000640002642D0012
:1006000007CF121AB1410E00043F3A60704724062A
:100610000000640002642B0007CF12184E41043F13
:100620003A60704736060000610003733E6447F885
:10063000046DF61770474A060000620003756D2AC4
:100640003868A0FB0606386070475E06000062004E
:10065000026D2A00386880FB0606386070479C06E9
:10066000000044000375642A07CF564341437618BF
:10067000010C130C59437618010C80B292B251430D
:10068000434350430022C91852411204B6180A04C9
:10069000090C80184E41043F386070472E07000057
:1006A00044000475646D2A0010B5002447F8046DF9
:1006B0007E6847F8046D3E69FFF7C2FF310040CF06
:1006C000300040CF47F8046D3E6847F8046DFE687F
:1006D00003B4FFF7B5FF03BC330040CF320040CF77
:1006E00047F8046D3E6847F8046D3E690FB4FFF7A4
:1006F000A7FF0FBC9219634140CF89196241634142
:1007000040CF47F8046D7E6847F8046DFE680FB46B
:10071000FFF796FF0FBC9219634140CF89196241E0
:10072000634140CF1E003A607960B86010BD500749
:1007300000004300022A2F0000B540B440CFFFF76D
:1007400089FF47F8046D40BC00F04CF8043700BD49
:10075000720700004300052A2F6D6F6400B540B496
:1007600040CFFFF777FF47F8046D40BC00F03AF840
:1007700000BD94070000430003752A2F00B540B464
:1007800040CFFFF75DFF47F8046D40BC00F01BF859
:10079000043700BDB8070000430006752A2F6D6FAF
:1007A000640000B540B440CFFFF74AFF47F8046D3E
:1007B00040BC00F008F800BDD807000043000675F3
:1007C0006D2F6D6F640000B547F8046D002600F0D2
:1007D00019F840CF043700BDF60700004300056D4F
:1007E0002F6D6F6400B547F8046DF61700F032F80E
:1007F00040CF043700BD4808000044000675642F50
:100800006D6F640030B4002300227968B868350049
:100810003C6840264000494152415B41AB4202D80E
:1008200004D3A24202D3121BAB410130013EF1D1ED
:100830000E0038607B60BA6030BC704730B4002373
:100840007A68B9680020E2E7BE0800004400056449
:100850002F6D6F6400B5F01719D0FFF7C4FEFFF7D6
:1008600005FEF0170CD0FFF7BEFEFFF7FFFDFFF708
:10087000C9FFFFF7FBFDFFF7B6FEFFF7F7FD00BD71
:10088000FFF7F4FDFFF7BEFFFFF7ADFE00BDFFF77A
:10089000EDFDF0170ED0FFF7A6FEFFF7E7FDFFF71F
:1008A000B1FFFFF7A0FEFFF7E1FDFFF79CFEFFF7AA
:1008B000DDFD00BDFFF7DAFDFFF7A4FF00BDD408A2
:1008C0000000440002642F0000B5FFF7C3FFFFF7EC
:1008D000DCFD00BD1C090000440002662A0000B5D2
:1008E000F0170DD0FFF77FFEFFF7C0FDF0170DD01A
:1008F000FFF779FEFFF7D8FE40CF01CF386000BD8B
:10090000FFF7B4FDF017F5D0FFF76DFEFFF7CCFE53
:1009100040CF01CF3860FFF766FE00BD68090000D8
:10092000440002662F0000B5F0170ED0FFF75BFE03
:10093000FFF79CFDF0170ED0FFF755FEFFF796FD71
:10094000FFF77CFFFFF7A1FD00BDFFF78FFDF0175C
:10095000F4D0FFF748FEFFF789FDFFF76FFFFFF7C1
:1009600042FEFFF792FD00BD7C090000200002322C
:10097000210006CF3160726040CF704790090000BF
:10098000200002324000043F7068386036687047CB
:10099000B009000044000364753C07CF8E4204D8C0
:1009A00001D1904201D8002670470026F6437047D7
:1009B000D009000044000364753E07CFB14204D85B
:1009C00001D1824201D8002670470026F6437047C5
:1009D000F0090000440002643C0007CF8E4204DCB2
:1009E00001D1904201DC002670470026F643704793
:1009F000100A0000440002643E0007CFB14204DC4C
:100A000001D1824201DC002670470026F643704780
:100A1000200A000062000364303C0437F617704778
:100A2000340A000062000364303D01CF0643013EFA
:100A3000B64170474E0A0000440003643C3E07CFB5
:100A400050404E400643013EB641F6437047660AA9
:100A50000000440002643D0007CF50404E40064372
:100A6000013EB6417047780A0000200003737040D1
:100A700047F8046D3E007047880A000020000373A9
:100A80007021370040CF70479A0A0000200003729F
:100A9000704047F8046D6E467047AA0A00002000B7
:100AA00003727021B54640CF7047BA0A000061005A
:100AB0000364757047F8046D7047CA0A000061004E
:100AC0000464726F700040CF7047E00A000061005C
:100AD000043F64757000002E01D047F8046D704724
:100AE000F40A0000620004737761700039683E60A8
:100AF0000E007047020B00006200036E697004373D
:100B00007047160B00006200046F7665720047F8AC
:100B1000046D7E6870472C0B0000620004747563DE
:100B20006B0001CF083F7E6038607047420B0000C9
:100B3000630003726F7403CF083F78603E600E005D
:100B400070475A0B00006300042D726F740003CFCE
:100B5000083F7E603960060070476C0B0000200083
:100B6000047069636B0057F826607047840B0000BF
:100B70000000056465707468BC49C91B47F8046DC2
:100B80008E087047A00B0000000006726465707448
:100B9000680047F8046D6E46B549891B8E0870479A
:100BA000B00B00002000023E720040B440CF7047FE
:100BB000C20B0000200002723E0047F8046D40BCEA
:100BC0007047D40B000020000272400047F8046D0B
:100BD000009E7047E40B00002000057264726F7085
:100BE00001B07047F80B0000200005727069636B5C
:100BF000B6006E44366870470E0C00006E0003614C
:100C00006E6401CF064070470640000616F0260CC1
:100C100000006E000362696301CFB04306007047B5
:100C20008643000636F03C0C00006E00026F720036
:100C300001CF064370470643000656F0520C0000F1
:100C40006E0003786F7201CF464070474640000641
:100C500096F0600C00006100036E6F74F6437047FD
:100C6000700C0000610003636C7AB6FA86F6704778
:100C70007E0C0000610003736872760870478C0C6C
:100C8000000061000373686C760070479C0C0000E4
:100C9000610003726F725FEA76067047AE0C000067
:100CA000610003726F6CB61956F100067047C80CEC
:100CB00000006C00067273686966740001CFF04032
:100CC0000600704736080026E20C00006C00076141
:100CD00072736869667401CF304106007047361040
:100CE000F617FC0C00006C00066C736869667400F3
:100CF00001CFB04006007047360000260C0D000002
:100D0000610002303D00013EB64170471E0D0000FB
:100D1000610003303C3E013EB641F64370472C0D66
:100D20000000610002303C00F6177047420D0000E1
:100D3000600004747275650047F8046D0026F64380
:100D40007047560D000060000566616C736547F8DA
:100D5000046D002670476A0D00004200023E3D000F
:100D600001CFB042EADA002670477E0D0000420053
:100D7000023C3D0001CFB042E0DD00267047900DFF
:100D800000004200013C01CFB042D7DB0026704793
:100D9000A20D00004200013E01CFB042CEDC002691
:100DA0007047B60D0000620003753E3D01CF861B03
:100DB000B641F6437047CA0D0000620003753C3D22
:100DC00001CF361AB641F6437047DC0D00006200D1
:100DD00002753C0001CF861BB6417047EE0D000046
:100DE000620002753E0001CF361AB6417047040E0C
:100DF00000006B00023C3E0001CF361A013EB641B6
:100E0000F6437047160E00006B00013D01CF361A05
:100E1000013EB64170472A0E00006200036D696E04
:100E200001CFB04200DC060070473E0E00006200B9
:100E3000036D617801CFB04200DB06007047540EAD
:100E40000000620004756D61780001CFB04200D3EC
:100E500006007047740E0000620004756D696E0034
:100E600001CFB04200D80600704700003082FF1F5B
:100E70003083FF1FB20E00000000046D6F76650026
:100E800007B5310040CF320040CF00290FD0B24229
:100E90000DD006D3013E013A705C50540139FBD1AC
:100EA00005E030781070013601320139F9D140CFB8
:100EB00007BDD40E000000000466696C6C003000B1
:100EC00040CF310040CF002902D001397054FCD10D
:100ED00040CF7047E00E00002000014036687047A8
:100EE000F80E00006D00012103CF30600E00704746
:100EF00006607047016070471E0F00006D00022BF6
:100F0000210003CF3268121832600E007047026869
:100F100092190260704702685218026070472C0FE5
:100F2000000020000268400036887047460F00002D
:100F30006D000268210003CF30800E0070470680EC
:100F40007047018070476C0F00006D0003682B2113
:100F500003CF3288121832800E007047028892192F
:100F60000280704702885218028070477A0F000092
:100F700020000263400036787047940F00006D0037
:100F80000263210003CF30700E0070470670704777
:100F900001707047BA0F00006D0003632B2103CF6F
:100FA0003278121832700E0070470278921902706F
:100FB00070470278521802707047E20F00006D000F
:100FC00004626973210003CF3268024332600E006D
:100FD0007047026832430260704702680A43026049
:100FE00070470A1000006D0004626963210003CF9E
:100FF0003268824332600E0070470268B24302607A
:10100000704702688A4302607047321000006D002A
:1010100004786F72210003CF3268424032600E00C4
:101020007047026872400260704702684A4002607E
:1010300070479C100000680004626974400001CF92
:101040003668064018BF4FF0FF3670474FF4D04265
:1010500000B5012B0AD147F8046D002600F0B6FF59
:1010600047F8046D160001F0D2FA11E002CF013BFF
:1010700002F03CFC47F8046D3626164301F0C7FA2F
:1010800047F8046D0E0047F8046D002600F09EFF3F
:1010900047F8046DE34E01F0CDF800BDC410000028
:1010A0006D0005686269732103CF32880243328084
:1010B0000E007047028832430280704702880A435C
:1010C00002807047EC1000006D00056862696321C2
:1010D00003CF3288824332800E0070470288B243C9
:1010E0000280704702888A43028070471411000012
:1010F0006D000568786F722103CF328842403280DC
:101100000E007047028872400280704702884A4091
:1011100002807047341100006800056862697440FD
:1011200001CF3688064018BF4FF0FF3670474FF4A6
:1011300008428DE75C1100006D0005636269732150
:1011400003CF3278024332700E0070470278324388
:101150000270704702780A430270704784110000E1
:101160006D0005636269632103CF32788243327078
:101170000E0070470278B2430270704702788A43CB
:1011800002707047AC1100006D000563786F72212A
:1011900003CF3278424032700E00704702787240BE
:1011A0000270704702784A4002707047CC1100000C
:1011B000680005636269744001CF3678064018BF45
:1011C0004FF0FF3670474FF4F04241E7DC1100006A
:1011D00061000563656C6C2B04367047EC110000F0
:1011E00061000563656C6C73B60070470013000006
:1011F000000006666C6173682100300040CF31004A
:1012000040CF4FF48043984269D34FF0FF33994267
:101210002ED0032202402CD102689A4246D1824A43
:10122000137880221A40FAD030221A4002D07E4A27
:10123000302313707D4A062313707D4A1070000A14
:101240007C4A1070000A7C4A10707C4A1170090AAE
:101250007B4A1170090A7B4A1170090A7A4A117097
:10126000714A80231370704A137880221A40FAD092
:10127000704700F0B2FC304164647265737320689B
:10128000617320746F20626520342D616C69676E14
:10129000656420666F722077726974696E67206674
:1012A0006C61736820210A0002F047BB00F095FCD6
:1012B00029466C617368206C6F636174696F6E207E
:1012C00063616E6E6F7420626520777269747465F5
:1012D0006E20747769636520210A02F02EBB00F04E
:1012E0007CFC1943616E6E6F74207772697465209F
:1012F000696E746F20636F726520210A02F01DBB56
:101300008413000000000E666C617368706167658D
:101310006572617365000FB5300040CF4FF48043B4
:10132000984220D3032398433F4A137880221A40DF
:10133000FAD030221A4002D03B4A302313703B4A85
:10134000092313703A4A1070000A3A4A1070000AD2
:10135000394A1070344A80231370334A137880223C
:101360001A40FAD00FBD00F038FC1443616E6E6F66
:101370007420657261736520636F726520210A00B5
:1013800002F0DBBA0614000000000A6572617365A2
:10139000666C617368004FF4804072B64FF4802130
:1013A0004FF0FF32036893421CD047F8046D0600EB
:1013B00047F8046D00F011FC1045726173652062FE
:1013C0006C6F636B20617420200000F079FC00F0EA
:1013D00004FC0C2066726F6D20466C6173680A0015
:1013E000FFF799FF04308842DCD100F0F6FB12468B
:1013F000696E69736865642E205265736574202177
:101400000A0002F026FB9414000000000E657261D1
:101410007365666C61736866726F6D00300040CFF3
:10142000BBE700004210000000000240070002403D
:10143000040002400500024006000240080002408D
:10144000090002400A0002400B00024046486021A9
:101450000022028002300139FBD1704742486021EE
:101460000288002A12D000F0B8FB1D556E70616929
:101470007265642031362D62697420466C61736830
:101480002077726974652E0A02F057BA023001396A
:10149000E6D170476C15000000000768666C617348
:1014A000682130B5320040CF500813D300F095FBCF
:1014B0001E68666C61736821206E656564732065C3
:1014C00076656E206164647265737365732E0A00BD
:1014D00002F033BA02235340234820210488458870
:1014E0002D042C439C422AD006300139F6D11E48E7
:1014F0002021048845882D042C431AD00630013958
:10150000F7D100F06AFB27546F6F206D616E792070
:10151000756E7061697265642031362D6269742060
:10152000466C617368207772697465732E0A02F0E5
:1015300004BA0280120C4280868040CF30BD022166
:10154000114003D0023A8188360401E08188090401
:101550000E4347F8046D1600002101804180818010
:10156000FFF74BFE30BD00003083FF1F82150000E7
:101570006900012B01CF3618704736180036000677
:1015800016F1981500006900012D01CF861B7047E8
:10159000361A003E0006B6F1A615000061000231C1
:1015A0002D00013E7047B4150000610002312B0090
:1015B00001367047C2150000610002322D00023E64
:1015C0007047D0150000610002322B0002367047D0
:1015D000E21500006100066E656761746500764281
:1015E0007047F4150000610003616273F01736184C
:1015F0004640704712160000420005752F6D6F645B
:1016000001CF3100B0FBF6F67143401A043F386059
:101610007047301600004200042F6D6F640001CF48
:10162000310090FBF6F67143401A043F3860704772
:10163000441600004200036D6F6400B5FFF7EFFF32
:1016400040CF00BD541600006200012F01CF90FB77
:10165000F6F67047641600006A00012A01CF46437F
:101660007047464372160000610002322A0076007D
:10167000704780160000610002322F00761070471C
:10168000941600006100046576656E00012030400C
:1016900036187047AC160000810004626173650063
:1016A00047F8046D954E70470A000000C21600000E
:1016B00000000662696E6172790090480221016043
:1016C0007047D8160000000007646563696D616C9F
:1016D0008A480A21016070475A1700000000036819
:1016E000657886481021016070474FF4785184482E
:1016F00001604FF4806183480160002182480160ED
:101700004FF440718148016441648160C1600021EF
:101710007F4801707F4801707F4801707F480170E9
:101720000C217F48017000217E4801700B217E480A
:101730000170C0217D48017088217D4801430170FE
:10174000C0217A4801707B48012101707A48082144
:1017500001700C216E4801707047761700008100FF
:1017600009686F6F6B2D656D697447F8046D734E72
:1017700070476018000092170000810008686F6FC2
:101780006B2D6B65790047F8046D6D4E70478618B8
:101790000000B017000081000A686F6F6B2D656D47
:1017A00069743F0047F8046D664E7047B618000034
:1017B000CC170000810009686F6F6B2D6B65793F56
:1017C00047F8046D604E7047E2180000EA17000009
:1017D00081000A686F6F6B2D70617573650047F843
:1017E000046D5A4E7047023A0000001800000000D5
:1017F00004656D6974000FB5504800F026F80FBD00
:10180000141800000000036B65790FB54C4800F018
:101810001CF80FBD26180000000005656D69743FB7
:10182000484800688746381800000000046B657956
:101830003F004548006887464E18000000000570CC
:10184000617573654148006887460068874674186B
:10185000000000000B73657269616C2D656D697421
:1018600000B500F028F8002E40CFFAD038480670B6
:1018700040CF00BDA218000000000A7365726961C4
:101880006C2D6B65790000B500F02BF8002E40CF71
:10189000FAD0304800782E4847F8046D0678F6B242
:1018A00000BDD018000000000C73657269616C2DDA
:1018B000656D69743F0000B5FFF7C4FF47F8046D1C
:1018C0000026244880220178114000D0F64300BD54
:1018D0005C19000000000B73657269616C2D6B650B
:1018E000793F00B5FFF7AEFF47F8046D00261A48B0
:1018F00040220178114000D1F64300BDFC7F00205A
:1019000038800440348004401080044000A004402B
:1019100003A0064002A0064006A0064005A006401F
:101920000AA0064000A0064001A0064011A0064003
:1019300010A0064015A006400DA00640F87F00202C
:10194000F47F0020F07F0020EC7F0020E87F002063
:1019500007A0064004A0064012A00640801900001F
:101960000000076365787065637400B5386801B47A
:101970000130386000F00BF801BC067040CF00BDAC
:10198000F61900000000066163636570740000B51D
:1019900002CF01390022FFF738FF300040CF7F2807
:1019A00009D0202819D2092816D00A281FD00D28BE
:1019B0001DD00828EFD1002AEDD000F00EF9030861
:1019C0002008002AE7D0885C013A80230340E2D057
:1019D00040230340F5D0DEE72020B242DBD247F8B7
:1019E000046D0600FFF707FF01328854D3E71600A5
:1019F00000F0A2F800BD081A0000400003746962FC
:101A000047F8046D294E70471E1A00008100033EFE
:101A1000696E47F8046D264E704700000000441AB6
:101A2000000082000E63757272656E742D736F759F
:101A30007263650047F8046D1E4E70470000000099
:101A40006880FF1F601A0000000009736574736FDF
:101A500075726365174802CF0660416040CF7047DA
:101A60007E1A0000000006736F757263650047F808
:101A7000046D104E043F7068386036687047B81ABD
:101A8000000000000571756572790FB508480021E6
:101A90000160FFF7B5FF47F8046D47F8046DC826ED
:101AA000FFF775FFFFF7D6FF0FBD00006880FF1F2F
:101AB000E47F0020DC7F0020061B0000000007639D
:101AC0006F6D706172650FB5310040CF01CF8842F4
:101AD00002D040CF00260FBD02CF002810D0013821
:101AE0000A5C335C412A02D35B2A38BF2032412B87
:101AF00002D35B2B38BF20339A42EED000260FBDB5
:101B00000026F6430FBD1A1B00000000026372009E
:101B100000B500F062F8010A00BD2C1B00000000B7
:101B200002626C0047F8046D20267047401B0000DD
:101B3000000005737061636547F8046D20265AE65E
:101B4000601B00000000067370616365730000B5E0
:101B5000002E03DDFFF7F0FF013EFBD140CF00BDBB
:101B6000701B00005000065B636861725D0005E059
:101B7000881B0000000004636861720000B501F07A
:101B800056FB40CF367800BD981B0000500001285E
:101B900047F8046D292606E0B21B00005000015CE6
:101BA00047F8046D002600B501F04BFB043740CF29
:101BB00000BDF61B00001000022E22009B4800B55D
:101BC00047F8046D060000F05EFA47F8046D22261F
:101BD00001F037FB00F053FD00BD0AB447F8046D77
:101BE0007646013E33780121013319405B181EEB24
:101BF000030E0ABC39E01C1C000010000263220026
:101C00008B48DCE747F8046D7646013E33780121C6
:101C1000013319405B181EEB030E7047461C000091
:101C20001000027322008348C9E747F8046D764626
:101C300047F8046D013E36780121731C19405B188A
:101C40001EEB030E70475E1C0000000005636F75FD
:101C50006E74013647F8046D013E36787047861C75
:101C60000000000005637479706501B530780028C4
:101C700007D0013647F8046D3678FFF7BCFD013810
:101C8000F7D140CF01BDB41C00000000047479708E
:101C90006500310040CF300040CF00B5002908D0AA
:101CA000002247F8046D865CFFF7A5FD01329142E2
:101CB000F7D100BDEE1C00000000046865782E001E
:101CC00007B5310040CF20200F22043847F8046DBB
:101CD0000E00C6401640092E01D9373600E03036D6
:101CE000FFF789FD0028F0D1FFF726FF07BDFE1C96
:101CF0000000000003682E731FB54F4C0EE00E1D50
:101D00000000000003752E731FB54C4C06E08C1DBF
:101D100000000000022E73001FB5494C4949C91B41
:101D20008908494A106803B40A201060FFF755FF7C
:101D300008537461636B3A205B0047F8046D0E0032
:101D400001F057FCFFF749FF025D200003BC3E4A4B
:101D5000106000290AD03D4A106806B447F8046DA7
:101D60000600A04706BC043A0139F5D1FFF735FF5C
:101D70000620544F533A200047F8046D3600A04720
:101D8000FFF72BFF04202A3E0A001FBD501E000053
:101D9000000005776F72647300B5FFF71EFF010A3C
:101DA00000F0BBFEFFF719FF0941646472657373AD
:101DB0003A2047F8046DFFF783FFFFF70EFF064C4C
:101DC000696E6B3A200047F8046D3668FFF778FFBC
:101DD000FFF703FF07466C6167733A2047F8046D0D
:101DE000B688FFF76DFFFFF7F8FE06436F64653AAC
:101DF0002000B01D00F0CBFE47F8046D0600FFF791
:101E00005FFFFFF7EAFE064E616D653A200047F876
:101E1000046D0636FFF729FFFFF7DFFE010A00F029
:101E200093FE300040CFBDD040CF00BDDA1B000094
:101E3000041C00002A1C0000C11C0000E335000047
:101E4000F33500003082FF1FFC7F00202C82FF1F33
:101E5000B41F000000000D3132626974656E636F5B
:101E600064696E670FB5FF2E04D847F8046D5FF004
:101E7000FF360FBD16F0FF10B0420ED14FF6FF71C6
:101E80000840310C814208D116F0FF0656F4805606
:101E900047F8046D5FF0FF360FBD16F0FF20B0422B
:101EA0000FD14FF6FF710840310C814209D1360A3B
:101EB00016F0FF0656F4005647F8046D5FF0FF3643
:101EC0000FBDFF2231001140300A1040884210D16E
:101ED000300C104088420CD1300E1040884208D19E
:101EE00016F0FF0656F4405647F8046D5FF0FF36D3
:101EF0000FBD300000210131001850F100007FF0CB
:101F00007F020240802A05D01F29F4D347F8046DD0
:101F100000260FBD0829F9D3060036F0800611F01F
:101F20000100C001064311F00E00C002064311F08B
:101F300010008005064347F8046D5FF0FF360FBDC3
:101F400047F8046DDFF840665FF4704110EA010263
:101F5000120116435FF4006110EA0102D203164336
:101F60005FF4E06110EA010212011643FF2110EA5A
:101F7000010216431E4372E347F8046DDFF80C6656
:101F80005FF0704110EA0102120B16435FF000612E
:101F900010EA0102520816435FF0E06110EA010204
:101FA000120B16435FF47F0110EA0102120C164374
:101FB0001E4354E31A200000000010726567697325
:101FC0007465726C69746572616C2C000FB53300B6
:101FD00040CF1B02FF2E05D856F400561E4300F0DA
:101FE00016FB0FBDFFF73EFF002E40CF06D0DFF8F7
:101FF000A00506431E4300F032FB0FBDF643FFF77A
:1020000031FF002E40CF06D0DFF8880506431E437F
:1020100000F025FB0FBDF6430BE07A200000000026
:10202000096D6F76776D6F76742C0FB5330040CFE6
:102030001B02300040CFFFF783FF4FF6FF7110EA1D
:10204000014001D0FFF798FF0FBD0FB501363000FA
:1020500040CF0023FFF774FFFFF78EFF06E00FB5B8
:10206000013647F8046D0026FFF7B0FF47F8046D0E
:1020700044F2807600F0CBFA0FBDE02000000000B3
:102080000563616C6C2C0FB5330000F01EFE300050
:1020900040CF1B1A043BDFF800151940002906D079
:1020A000DFF8F824914202D0BDE80F40D7E740CFD7
:1020B0005B08DFF8EC0440F2FF7119400843DB0ACB
:1020C00040F2FF311940090408439B0A13F0010153
:1020D0008906084347F8046D060000F0C0FA0FBDFA
:1020E000162100000000086C69746572616C2C0098
:1020F00008B547F8046D4FF6470600F088FA47F830
:10210000046D46F6045600F082FA47F8046D062680
:10211000FFF75CFF08BD3A2100000000066372650E
:102120006174650000B500F033F842F25710804743
:1021300047F8046DBEF1010600BD822100002000B9
:1021400005646F65733E42F25710804747F8046D8F
:10215000BEF10106704747F8046DBEF10106DFF8D5
:1021600044241368DFF8401409680220084000D0B6
:10217000023102311160FFF768FF136000F0B7F918
:1021800000BDC42100000000073C6275696C6473E7
:1021900000B500F053FB00F098FD0220064040CF50
:1021A00004D047F8046D362600F031FA47F8046D84
:1021B0004BF2005600F02BFA47F8046D0A2600F0A7
:1021C00091FA00BDD02100005000035B275D03E0C1
:1021D000E82100000000012700B501F028F800F018
:1021E00015FD300040CF00BD2622000030000870F1
:1021F0006F7374706F6E650000B5FFF7EDFF10210F
:1022000001400DD12021014005D0FFF771FF47F8B3
:10221000046DE64E04E0FFF76BFF47F8046DE44EF3
:10222000FFF731FF00BD7C220000000007696E6CE3
:10223000696E652C00B54BF200514BF6005244F22A
:1022400070733088884208D0904208D0984206D0F7
:1022500047F8046D060000F0DAF90236F1E740CFE6
:1022600000BD0EB44BF6005244F270730188023088
:10227000914201D09942F9D10EBC704792220000E0
:102280000000047265742C0047F8046D4BF600568C
:10229000BDE1A02200003000046578697400F3E716
:1022A000B82200003000077265637572736547F8E5
:1022B000046DBD4E3668E6E6D0220000810005734D
:1022C0007461746547F8046DBA4E704700000000F1
:1022D000E22200000000015DB6480021C943016010
:1022E0007047F22200001000015BB248002101603B
:1022F00070471A2300000000013A00B5AE4807609D
:1023000000F09CFA47F8046D4BF2005600F07FF99C
:10231000A8480021C943016000BD622300003000CD
:10232000013B00B5A4480168B9420ED0FFF755FC47
:102330001520537461636B206E6F742062616C6151
:102340006E6365642E0A01F0F8BA47F8046D4BF627
:10235000005600F05CF900F0CAF8964800210160D0
:1023600000BD76230000000007657865637574651D
:10237000300040CF87468E230000100009696D6D44
:1023800065646961746547F8046D1026E1E0A42373
:102390000000500006696E6C696E650047F8046DB8
:1023A0002026D6E0BE23000010000B636F6D70691D
:1023B0006C656F6E6C7947F8046D3026C9E0D823E0
:1023C000000050000A302D666F6C6461626C65001D
:1023D00047F8046D4026BCE0F223000050000A31AB
:1023E0002D666F6C6461626C650047F8046D412670
:1023F000AFE00C24000050000A322D666F6C64615F
:10240000626C650047F8046D4226A2E026240000B5
:1024100050000A332D666F6C6461626C650047F88A
:10242000046D432695E04024000050000A342D66D8
:102430006F6C6461626C650047F8046D442688E047
:102440005A24000050000A352D666F6C6461626C7E
:10245000650047F8046D45267BE0742400005000B9
:102460000A362D666F6C6461626C650047F8046D16
:1024700046266EE08E24000050000A372D666F6CF1
:102480006461626C650047F8046D472661E0BE2414
:102490000000000008636F6E7374616E740000B515
:1024A00000F0CCF9FFF724FE47F8046D44F2707693
:1024B00000F0ADF8FFF78CFF00F019F800BDE02444
:1024C000000000000932636F6E7374616E7400B5B2
:1024D00000F0B4F939683E600E46FFF709FEE1E707
:1024E00042250000000006736D756467650000B545
:1024F0002C4801682B4A91421DD202390A884FF6B6
:10250000FF739A4204D147F8046D002600F07FF86B
:1025100000F06CF82948006847F8046D0600284967
:10252000096804311F4A1368116000F070F81360E5
:10253000FEF794FF00BD00F059F847F8046D00263F
:1025400008E0C4250000000008736574666C6167CC
:10255000730000B513480168124A914205D217482A
:1025600001683143016040CF00BD320040CF1448C4
:102570000068043001884FF6FF73994201D11100C1
:1025800000E01143018000BD000040F20000C0F2F5
:1025900000005FF000007FF00100C0FF0000C0FFFE
:1025A00000F800F00080FF1F1480FF1F342200009D
:1025B00086200000D87F00201080FF1F2080FF1F92
:1025C0000480FF1FE0250000410007616C69676E11
:1025D00065640120304036180220304036187047BC
:1025E00004260000000005616C69676E00B588482C
:1025F00001680220014004D047F8046D002600F075
:1026000006F800BD3A260000000002682C000FB555
:10261000B6B27F4801687E4A914205D247F8046D00
:102620000E00FEF73EFF02E0320040CF0A8047F87E
:10263000046D022600F056F80FBD5426000000007D
:10264000012C00B547F8046DFFF7E1FF360CFFF7EA
:10265000DEFF00BD702600000000033E3C2C00B5EC
:1026600047F8046D360CFFF7D2FFFFF7D0FF00BD2F
:10267000D8260000000007737472696E672C07B5D6
:10268000FF21314040CF300040CF002905D147F82D
:10269000046D0026FFF7BBFF07BD47F8046D067801
:1026A00036020E43FFF7B3FF0130013902290AD386
:1026B00047F8046D4678360202781643FFF7A7FF05
:1026C00002300239F2E7002900D107BD47F8046D56
:1026D0000678FFF79CFF07BD342700000000056166
:1026E0006C6C6F744A480168494A914210D23200BA
:1026F00040CF89184FF48022914219D3FFF76DFA29
:102700000B466C6173682066756C6C0A01F015B934
:10271000320040CF89183F4A1268914208D3FFF730
:102720005CFA0952616D2066756C6C0A01F005B99E
:102730000160704758270000000009666F726765E6
:102740007472616D00B500F025F8314832490160BE
:1027500032483349016000BD8027000000000D634E
:102760006F6D70696C65746F72616D3F47F8046DD1
:102770000026274800682649884248D3F643704718
:10278000A027000000000C636F6D70696C65746FAA
:1027900072616D001E4800681D49884211D3704760
:1027A0002C28000000000E636F6D70696C65746FFB
:1027B000666C61736800164800681549884200D24B
:1027C00070471648174902680B680A600360104892
:1027D000154902680B680A6003600E48006883426E
:1027E00015D300B5FFF7F9F92320566172696162CC
:1027F0006C657320636F6C6C6964652077697468BD
:102800002064696374696F6E6172790A00BD7047F4
:102810000080FF1F2480FF1FF083FF1F0480FF1F25
:10282000100400001C80FF1F1880FF1F1A290000E1
:1028300000000828637265617465290000B500F026
:10284000F6FC002E0ED1FFF7C8F915204372656122
:102850007465206E65656473206E616D6520210A64
:1028600001F06BB8386847F8046D043F386000F039
:102870009DF940CF002E40CF11D0386847F8046D45
:10288000043F3860FFF7A9F9095265646566696E0F
:102890006520FFF7FEF9FFF7A0F9022E2000FFF7F1
:1028A000A5FE00F012FA8F4800688E4988421DD2BA
:1028B0008D480021016047F8046D0626FFF712FFDE
:1028C000FEF745F9FFF7DBFE884801680A684FF01C
:1028D000FF339A4207D1834A1368116047F8046DA9
:1028E000FFF7AFFE1360066040CF11E07F4847F866
:1028F000046D0668FFF7A5FE47F8046D4FF6FF76F6
:10290000FFF785FE7948310040CF0160FFF7B7FE41
:10291000744801687648016000BD3229000000005B
:10292000087661726961626C650047F8046D012682
:1029300013E04A2900000000093276617269616281
:102940006C6547F8046D022607E0242A00000000A9
:10295000096E7661726961626C6500B5FFF76EFFA2
:10296000604801685F4A914234D20F200640B200AD
:1029700060480168891A604A91420BD2FFF72DF92D
:102980000F4E6F7420656E6F7567682052414D0A57
:1029900000F0D3BF016047F8046D0E00FFF7A8FBFD
:1029A00047F8046D44F27076FFF731FE300040CFF7
:1029B0000200002805D00E600431FFF742FE013806
:1029C000F9D147F8046D80261643FFF7C2FDFFF7E3
:1029D0008EFD00BD00F079F90220064040CF04D101
:1029E00047F8046D3626FFF712FE47F8046D434E94
:1029F000FFF735FE47F8046D414EFFF730FE47F80C
:102A0000046D44F27076FFF702FE300040CF0028DC
:102A100003D0FFF716FE0138FBD1FFF7D9FCFFF713
:102A200066FD00BD042B0000000007627566666548
:102A3000723A00B5FFF702FF01203040361802203D
:102A40003040361827480168264A914228D2294842
:102A50000168891B284A91420BD2FFF7BEF80F4E3E
:102A60006F7420656E6F7567682052414D0A00F0E3
:102A700064BF016047F8046D0E00FFF739FB47F8AB
:102A8000046D44F27076FFF7C2FDFFF7DAFD47F8F8
:102A9000046D40F24016FFF75CFDFFF728FD00BD16
:102AA00000F013F90220064040CF04D147F8046D2E
:102AB0003626FFF7ACFD47F8046D104EFFF7CFFD4B
:102AC00047F8046D0E4EFFF7CAFD47F8046D44F257
:102AD0007076FFF79CFDFFF705FEFFF779FCFFF727
:102AE00006FD00BD0080FF1F2080FF1F0480FF1F28
:102AF0001480FF1F2480FF1FF083FF1F3E60043FF0
:102B000002367E46322B000000000F646963746950
:102B10006F6E6172797374617274ED480068EC498C
:102B200047F8046D884201D2EA4E7047EA4E366893
:102B300070476E2B000000000E64696374696F6E4D
:102B40006172796E6578740003B531684FF0FF30BB
:102B5000814207D08879FF2804D00E0047F8046D21
:102B6000002603BD47F8046D0026F64303BDA02BE5
:102B7000000000000A736B6970737472696E6700FD
:102B80003178013101220A4089187618704706B45D
:102B90000178013101220A408918401806BC7047AB
:102BA000262C000000000466696E640030B5002227
:102BB0000023350040CF340040CFFFF7AEFF4FF683
:102BC000FF70B188884217D047F8046D0636FFF7CA
:102BD00040F847F8046D260047F8046D2E00FEF714
:102BE00072FF002E40CF07D0B01DFFF7D0FF0200CC
:102BF0000B00B748824204D2FFF7A6FF300040CF57
:102C0000DDD0160047F8046D1E0030BD00B5310060
:102C1000386803B4FFF7CAFF03BC3A68002A01D141
:102C200000F05CFD00BD842C0000000006636A75A6
:102C30006D702C00320040CF310040CF8B1B043B25
:102C40006FF0FE01194000290ED06FF0FF008142A5
:102C50000AD0FEF7C2FF0D4A756D7020746F6F20A9
:102C60006661720A00F069BE5B10FF210B401343DE
:102C700030001E0000B5964A13681060FFF7C7FCCD
:102C8000136000BDBE2C00000000056A756D702C3D
:102C9000310040CF300040CF0B1A043B8F49194020
:102CA000002902D08E4A9142D3D15B1040F2FF72CC
:102CB000134053F4604347F8046D1E00DAE7D42C48
:102CC0000000000004686572650047F8046D804EDE
:102CD00036687047D02D000000000D666C61736887
:102CE0007661722D6865726547F8046D7D4E3668B1
:102CF000704700B547F8046D42F60066FFF787FCA1
:102D000047F8046D4CF64076FFF781FC00BDDCE728
:102D100000B500F03AF839683E600E4647F8046D99
:102D20004DF20016FFF786FF00BD00B500F02DF84C
:102D300039683E600E4647F8046D4DF20076FFF7A5
:102D400079FF00BD00B5FFF7D4FF00F01EF8396829
:102D50003E600E4647F8046D4DF20006FFF76AFF2D
:102D600000BD00B500F011F839683E600E46FFF76F
:102D70008FFF00BD00B5FFF7BCFFFFF7A6FF47F8C8
:102D8000046D0226FFF7AEFC00BD00B5FFF79DFF06
:102D900047F8046D0226FFF7A5FC00BD00B5FFF75C
:102DA00094FFFFF775FF00BD00B5FFF78EFF47F8F2
:102DB000046D4DF20006FFF73DFF00BD00B5FFF7C3
:102DC00084FF47F8046D4DF20016FFF733FF00BD96
:102DD0000C2E00003000047468656E00052E01D1D1
:102DE00040CFDBE7022E01D140CFDDE7FEF7F5FE55
:102DF000175374727563747572657320646F6E27F0
:102E000074206D617463680A00F097BD282E00007D
:102E1000300004656C73650000B500F017F8FDF72D
:102E200025FBFFF7DBFF00BD402E000030000269EC
:102E3000660000B5FFF79EFF47F8046D022600BD4F
:102E40005A2E0000300005616865616400B5FFF727
:102E50009CFF47F8046D052600BD742E000030006D
:102E6000067265706561740000B500F01FF8FFF729
:102E7000B5FF00BD8C2E00003000057768696C65D9
:102E800000B5FFF7D6FFFDF7F1FA00BDA02E000058
:102E9000300005756E74696C012EA7D140CF51E7E3
:102EA000B42E0000300005616761696E012E9DD16E
:102EB00040CF56E7E82E0000300005626567696E76
:102EC00000B5FFF724FF47F8046D012600BD0000A0
:102ED0000080FF1F100400000480FF1F01F8FFFFA7
:102EE00000F8FFFF2480FF1FF82E00002000016B78
:102EF00047F8046D029E7047082F00002000016A09
:102F000047F8046D009E7047182F000020000169EB
:102F100047F8046D26007047562F00003000056CFE
:102F20006561766500B5D94801683B00043F1A68C1
:102F3000043B1A6008338B42F9D103B4FFF725FF35
:102F400003BC330040CF04390B60016004390A68C8
:102F500001320A6000BD682F0000200006756E6C0B
:102F60006F6F700030BC7047A02F00003000052B41
:102F70006C6F6F70032E00D038E740CF00B547F874
:102F8000046DC34EFFF756F9FFF7CFFE1AE014F1B8
:102F90000044641BA41940CF2C44A4F100447047A2
:102FA000E22F00003000046C6F6F7000032E00D021
:102FB0001CE740CF00B547F8046DB64EFFF73AF96D
:102FC000FFF7A6FE00F019F9B048310040CF0160CC
:102FD00047F8046DB04EFFF72DF900BD0134AC4247
:102FE00070472A300000780002646F0000B547F88F
:102FF000046DAA4EFFF71EF9A448016847F8046D56
:103000000E0047F8046D00260760FFF780FE47F8C2
:10301000046D032600BD00B500F02FF8ECE730B4D6
:10302000340040CF350040CF7047C43000007800F6
:10303000033F646F00B547F8046D984EFFF7FAF848
:1030400047F8046D44F2AC26FFF7E1FA8F480168B7
:1030500047F8046D0E00FFF798FE013647F8046D3F
:1030600001268A480760FFF752FE47F8046D0326E1
:1030700000BD00B500F001F8E2E700B547F8046DC7
:103080004BF23046FFF7C3FA47F8046D0426FEF70B
:103090009DFF013B08D047F8046D0526FEF796FF1B
:1030A000013B00F023FC00BD47F8046D3526FFF717
:1030B000AEFA47F8046D4CF64076FFF7A8FA00F038
:1030C00015FC00BDDE300000300004636173650054
:1030D00047F8046D002647F8046D08267047F43061
:1030E00000003000033F6F666D4809E0013EB641C5
:1030F00040CF70479A3100007800026F660069483F
:10310000082E00D072E640CF00B547F8046D0600E7
:10311000FFF790F8FFF739FE39683E600E4601363A
:1031200047F8046D092647F8046D4CF64076FFF722
:103130006EFA00BD00B5300040CF013B01B400F095
:10314000D5FB01BC082E00D050E640CF47F8046DF7
:103150000600FF213140B14205D14FF438510E43F2
:10316000FFF755FAD6E7FEF77DFE002E40CF04D0DC
:103170004D480643FFF773FACCE747F8046D002685
:10318000FEF724FF47F8046D44F2B026FFF73FFA3C
:10319000C0E7300040CFB0427047D031000030006F
:1031A00005656E646F66092E00D01FE640CF00B53E
:1031B00040B440CFFFF7E9FD39683E600E46FFF7A7
:1031C000FDFD47F8046D40BC47F8046D082600BDBE
:1031D00022320000300007656E6463617365082E5B
:1031E00000D003E640CF00B547F8046D4CF64076BA
:1031F000FFF70DFA00F001F800BD00B5300040CF38
:1032000000280DD003B401213140002903D0013E34
:10321000FFF7CAFD01E0FFF7C1FD03BC0138EFE78E
:1032200000BD36320000000005746F6B656E47F814
:10323000046D202605E0B0320000000005706172C8
:10324000736510B5FEF713FC310040CF300040CF5E
:10325000164A12688418202E07D191420FD0835C41
:10326000B34202D101328418F7E7914207D0835C60
:103270000132B342F9D18618361B013E01E08618AF
:10328000361B043F3C600948026010BD0C80FF1FE4
:103290008E2F0000DC2F0000642F00001E30000085
:1032A000EC30000092310000000FB6F1E47F002006
:1032B000EE3200000000056469676974CF4B1B683B
:1032C000303E0BD30A2E0BD3073E0A2E06D3242EF4
:1032D00006D3203E0A2E01D3242E01D300267047A8
:1032E0009E42FBD247F8046D0026F6437047F83340
:1032F00000000000066E756D626572003FB531001A
:1033000040CF701E0126012204B4BC4B1B68002470
:10331000002500293CD00130013902782D2A04D142
:1033200001B00022D24304B4F3E7232A01D10A23D7
:10333000EFE7242A01D11023EBE7252A01D102234C
:10334000E7E72E2A01D10226E3E72C2A36D047F8F8
:10335000046D1600FFF7B4FF002E40CF2BD047F8C6
:10336000046D260047F8046D2E0047F8046D1E001A
:1033700047F8046D00260FB4FDF776F90FBC350051
:1033800040CF340040CF0022A419554140CFC0E7C0
:1033900004BC002A04D50022E443ED430134554126
:1033A00033002600012B02D047F8046D2E0047F8A9
:1033B000046D1E003FBD01B000263FBD2500002466
:1033C00002260029E4D0425C01392E2AF9D047F8C0
:1033D000046D1600FFF774FF002E40CFEBD0043FC2
:1033E0003C6047F8046D1E000FB4FDF7ECF90FBC0C
:1033F000340040CF40CFE4E71A3400000000062E2E
:103400006469676974000A2E01D230367047242E31
:1034100001D2373670472326704750340000000031
:1034200004686F6C6400330040CF754801783F2911
:103430000DD2013101704018012907D001380278FE
:1034400001300270013801390129F7D1037070474A
:1034500070340000000005686F6C643C330040CF9E
:10346000674801783F2902D2013101704354704707
:10347000883400000000047369676E00002E01D4D8
:1034800040CF70472D26CEE79C3400000000022379
:103490003E005B480678013038607047B434000065
:1034A00000000366235310B5202400F008F8013C07
:1034B000FBD110BDD634000000000266230000B529
:1034C00047F8046D4D4E3668FDF7BAF8FFF79BFFDD
:1034D000FFF7C4FF00BDF2340000000002235300D8
:1034E00000B500F00AF8002EFBD138680028F8D1AA
:1034F00000BD1E3500000000012300B547F8046D33
:103500003E4E366847F8046D0026FDF77BF9FCF760
:10351000ADFF40CFFFF777FFFFF785FF00BD3035E8
:1035200000000000023C2300354800210170704774
:1035300042350000000002662E0047F8046D202688
:1035400004E090350000000003662E6E00B510B454
:10355000340040CFFDF7E5FAFDF73BF847F8046D7E
:103560000026FFF7E1FFFFF7BBFF40CF2C26FFF758
:1035700075FF002C03D0FFF7A2FF013CFBD110BC6C
:1035800040CFFFF77BFF47F8046D47F8046D1CE060
:10359000A635000000000375642E00B5FFF7C4FFD8
:1035A000FFF79EFF11E0D8350000000002642E00F6
:1035B00000B5FDF7B6FAFDF70CF8FFF7B5FFFFF71A
:1035C0008FFFFDF7B8FAFFF759FFFFF762FFFEF72D
:1035D00060FBFEF7B1FA00BDEA350000000002759D
:1035E0002E0047F8046D0026D7E7043600000000DF
:1035F000012E47F8046DF617DAE70000FC7F002083
:103600002880FF1F4C3600000000086576616C754D
:103610006174650000B5FEF72AFA01CF01B440B429
:1036200040CFD648016802B400210160FEF712FACB
:1036300000F014F8D14802BC016047F8046D40BCAA
:1036400001BC043F3860FEF705FA00BD12390000E6
:10365000000009696E7465727072657430B5C8488F
:1036600087420BD9FEF7B9FA10537461636B20756A
:103670006E646572666C6F770A005EE1C1488742CE
:103680000AD2FEF7AAFA0F537461636B206F766556
:1036900072666C6F770A50E1BB4C2568002D01D132
:1036A0003D002560FFF7C3FD002E02D1043740CF57
:1036B00030BD386847F8046D043F3860FFF776FA8C
:1036C000310040CF320040CF002A13D1386831009A
:1036D000FFF714FE320040CF002AC0D1FEF7DDFA1A
:1036E000FEF77BFA0C206E6F7420666F756E642E89
:1036F0000A0022E1A54B1B68002B1DD10025256087
:1037000030230B40302B0ED1FEF7C3FAFEF765FADB
:103710001220697320636F6D70696C652D6F6E6C1C
:10372000792E0A0009E1043740CF47F8046D1600EE
:10373000FEF71EFEFFF793FF043740CF80200840BE
:103740000ED1EB1B9B08402008400FD008200840FA
:1037500002D0002B00D01DE00F200840834205D38B
:1037600047F8046D1600FEF703FE78E700F0BEF898
:1037700047F8046D160010220A4002D0FEF7F8FD4B
:103780006DE720220A4002D0FEF754FD67E7FEF7FE
:103790007AFC64E7072001401000FEF762FD012972
:1037A0001FD1012BDCD1FF213140B14204D140882F
:1037B0000643FEF72CFF52E7FEF754FB002E40CFE6
:1037C00004D040680643FEF74AFF48E747F8046D17
:1037D0000026FEF7FBFB47F8046D0688FEF717FF8F
:1037E0003DE7022902D1012BBAD1EFE7032927D106
:1037F000012BB5D1FF213140B1420BD14FF47851AB
:103800000E43FEF704FF043247F8046D1600FEF77E
:1038100011FD24E7FEF726FB002E40CF04D05C49C3
:103820000E43FEF71CFFEEE747F8046D0026FEF797
:10383000CDFB023247F8046D1600FEF7FBFC0EE7E5
:10384000042918D1012B8BD1330040CF002B00D19C
:1038500005E71F221A409A4205D047F8046D4688B2
:10386000FEF7D5FEFBE647F8046D06889B011E4374
:10387000FEF7CDFEF3E6052924D1012B10D147F840
:10388000046D0026FEF7A2FB47F8046D0600FEF764
:10389000D1FC47F8046D4CF64076FEF7B8FEDEE644
:1038A00047F8046D0026FEF791FB47F8046D0126EA
:1038B000FEF78CFBFEF7D5FC47F8046D0600FEF71B
:1038C000B9FCCCE606290ED1012B7FF449AFFEF7F7
:1038D000C9FA002E40CF3FF479AFD0F8020006437A
:1038E000FEF7BDFEBBE601308047B8E600B5002B11
:1038F0000CD0013B47F8046D1E0057F82660FEF718
:10390000F7FB002BF5D1043D2F0040CF00252560AB
:1039100000BD2E390000810009686F6F6B2D717535
:10392000697447F8046D1B4E704766390000A8396A
:1039300000000000047175697400DFF85CD0104F5E
:10394000FDF784FD15480A2101601048002101603F
:103950000D4801600948016011480160114941604A
:103960000C4800688746FEF790F8FFF777FEFEF7F1
:1039700034F905206F6B2E0AF5E70000E47F002084
:103980003082FF1F3081FF1F0880FF1FD87F00207B
:103990000006B6F1D47F00203083FF1FFC7F00209B
:1039A000DC7F00206880FF1FC23900000000056531
:1039B000696E743F47F8046DEFF31086013EB6411F
:1039C0007047D239000020000465696E740062B649
:1039D0007047E239000020000464696E740072B61A
:1039E0007047F8390000200004697073720047F8CE
:1039F000046DEFF305867047043A00000000036E83
:103A00006F707047463A0000000009756E68616E7D
:103A1000646C656400B5FEF7E0F814556E68616E7D
:103A2000646C656420496E746572727570742000F0
:103A300047F8046DEFF30586FEF742F9FEF7CDF87F
:103A400002210A0000BD5C3A0000000005726573A7
:103A50006574DFF80C04DFF80C140160863A00008E
:103A600081000B6972712D7379737469636B47F808
:103A7000046DFD4E7047143A000047F6D070C2F254
:103A8000000000688746AE3A000081000969727143
:103A90002D6661756C7447F8046DF44E7047143AE6
:103AA000000047F6CC70C2F2000000688746DC3A9E
:103AB000000081000E6972712D636F6C6C65637418
:103AC000696F6E0047F8046DE94E7047143A0000C4
:103AD00047F6C870C2F2000000688746043B000049
:103AE0008100086972712D616463300047F8046DCC
:103AF000E04E7047143A000047F6C470C2F200006E
:103B0000006887462C3B00008100086972712D61B6
:103B10006463310047F8046DD74E7047143A0000D3
:103B200047F6C070C2F2000000688746543B0000B0
:103B30008100086972712D636D70300047F8046D63
:103B4000CE4E7047143A000047F6BC70C2F2000037
:103B5000006887467C3B00008100086972712D6314
:103B60006D70310047F8046DC54E7047143A00007F
:103B700047F6B870C2F2000000688746A43B000018
:103B80008100086972712D636D70320047F8046D11
:103B9000BC4E7047143A000047F6B470C2F2000001
:103BA00000688746CA3B00008100076972712D6476
:103BB000616347F8046DB44E7047143A000047F64D
:103BC000B070C2F2000000688746F23B000081003E
:103BD000096972712D706F72746147F8046DAB4E94
:103BE0007047143A000047F6AC70C2F2000000685B
:103BF00087461A3C00008100096972712D706F724E
:103C0000746247F8046DA24E7047143A000047F6FC
:103C1000A870C2F2000000688746423C00008100A4
:103C2000096972712D706F72746347F8046D994E53
:103C30007047143A000047F6A470C2F20000006812
:103C400087466A3C00008100096972712D706F72AD
:103C5000746447F8046D904E7047143A000047F6BC
:103C6000A070C2F2000000688746923C000081000C
:103C7000096972712D706F72746547F8046D874E13
:103C80007047143A000047F69C70C2F200000068CA
:103C90008746BC3C000081000A6972712D55415273
:103CA0005430530047F8046D7D4E7047143A0000BD
:103CB00047F69870C2F2000000688746E63C0000B4
:103CC00081000A6972712D5541525430450047F800
:103CD000046D744E7047143A000047F69470C2F2B7
:103CE00000000068874600400000FFFF182D2D2DC2
:103CF00020466C6173682044696374696F6E6172F9
:103D000079202D2D2D00002167484CF22052C281D0
:103D10004DF62812C281028822F001020280FDF7CE
:103D2000E4FC62488546624F2A2662486249016087
:103D300062486349016047F8046D614E614DB18886
:103D40004FF6FF73994225D04FF480730B400AD091
:103D5000B01DFEF71CFFFEF784FA038840880004BC
:103D60000343ED1A16E080230B4013D00F231940B4
:103D700089006D1AB01DFEF70AFFFEF772FA47F8C8
:103D8000046D060047F8046D2E0047F8046D0E0020
:103D9000FDF776F8FEF7D8FE300040CFCFD04A4886
:103DA000066040CF494805604FF480204FF48041C1
:103DB0004FF6FF72884204D0023803889342F9D04C
:103DC000023043490860FDF741FBFDF706FF294D2E
:103DD0006563726973702D5374656C6C617269737D
:103DE00020322E332E38206279204D617474686938
:103DF0006173204B6F63680AFDF7EFFE38436F6E07
:103E000066696775726174696F6E20666F7220549F
:103E100065656E737920332E3120706C6174666F26
:103E2000726D206279204D61726B205363687765F3
:103E3000697A65720A0027480021016047F8046D1D
:103E4000254E47F8046D0426FEF7B0FE40CF002E45
:103E500002D0FEF78DFA83E540CF6EE5696E697496
:103E60000CED00E00400FA05D07F0020CC7F00209C
:103E7000C87F0020C47F0020C07F0020BC7F0020BE
:103E8000B87F0020B47F0020B07F0020AC7F0020EE
:103E9000A87F0020A47F0020A07F00209C7F00201E
:103EA000987F0020947F0020002005403083FF1F72
:103EB0003082FF1F0080FF1FF083FF1F0480FF1F61
:103EC00010040000008000201C80FF1F2480FF1FC2
:0C3ED0001880FF1F0880FF1F5C3E0000F0
:00000001FF
