:020000040800F2
:1000000030030020413B00008537000085370000A9
:1000100000000000000000000000000000000000E0
:10002000000000000000000000000000AF370000EA
:100030000000000000000000AF3700006337000040
:10004000AF370000AF370000CF370000AF370000F8
:10005000AF370000F3370000173800003D380000CC
:100060006138000085380000AB380000CF38000050
:10007000EF38000013390000AF37000035390000B9
:10008000AF37000057390000AF370000AF3700002E
:10009000BD390000AF370000E1390000053A00002B
:1000A000293A00004D3A0000713A0000973A0000EA
:1000B000BB3A0000DB3A0000FB3A00001B3B0000AB
:1000C000E800000000001F2D2D2D204D6563726992
:1000D00073702D5374656C6C6172697320322E35A8
:1000E0002E38202D2D2DC046000100004280043204
:1000F000647570003868043F3E60043F38607047A4
:10010000140100006280053264726F70043740CFC2
:100110007047C04634010000448005327377617037
:1001200007CF043F3860043F3E60043F3A600E0052
:100130007047C04648010000628004326E6970005A
:1001400007CF043F386070476401000044800532E7
:100150006F766572B868043F3E60043F3860FE68A1
:100160007047C04688010000448005327475636B97
:1001700007CF043F3860043F3E60043F3A60043FCD
:100180003960043F38607047AC010000468004329B
:10019000726F74003868B9683A69B86039613A605A
:1001A00079687E60FE68F9607047C046D001000043
:1001B000468005322D726F743868B9683A693861C3
:1001C0003960BA60F968FE607E6879607047C04641
:1001D000E4010000208003323E7201CF01B440B43C
:1001E00040CF7047FC01000020800332723E043F84
:1001F0003E6040BC01BC043F386070471402000000
:10020000208003327240043F3E60019E043F3E6006
:10021000009E704728020000208006327264726FD0
:10022000700002B07047C046400200004280036484
:10023000322F3868F107761040080843386070475D
:100240005402000062800364322A38680018764144
:100250003860704770020000428004647368720066
:100260003868F10776084008084338607047C04690
:10027000880200006280046473686C0038680018AB
:10028000764138607047C0469C020000428004649A
:1002900061627300002E08D47047C046BC020000A3
:1002A000428007646E656761746538680021C043E9
:1002B000F64301304E4138607047C046D40200001A
:1002C000648002642D0007CF121AB1410E00043F72
:1002D0003A607047EC020000648002642B0007CF94
:1002E00012184E41043F3A607047C04600030000B8
:1002F000618003733E64043F3E60F6177047C0465A
:1003000014030000428003756D2A01CF32000026DD
:1003100013E0C046280300004280026D2A0030002E
:10032000F61704CFD11705E0680300004480037579
:10033000642A07CF564341437618010C130C5943E6
:100340007618010C80B292B25143434350430022CD
:10035000C91852411204B6180A04090C80184E41FB
:10036000043F38607047C046FC03000044800475B9
:10037000646D2A0010B50024043F3E607E68043F8F
:100380003E603E69FFF7C1FF310040CF300040CFF3
:10039000043F3E603E68043F3E60FE6803B4FFF7E2
:1003A000B4FF03BC330040CF320040CF043F3E6077
:1003B0003E68043F3E603E690FB4FFF7A6FF0FBCE6
:1003C0009219634140CF89196241634140CF043F94
:1003D0003E607E68043F3E60FE680FB4FFF795FF05
:1003E0000FBC9219634140CF89196241634140CFEC
:1003F0001E003A607960B86010BDC046200400005D
:100400004380022A2F0000B540B440CFFFF787FF9A
:10041000043F3E6040BC00F04FF8043700BDC046CA
:10042000440400004380052A2F6D6F6400B540B47A
:1004300040CFFFF774FF043F3E6040BC00F03CF843
:1004400000BDC04668040000438003752A2F00B534
:1004500040B440CFFFF759FF043F3E6040BC00F07E
:100460001CF8043700BDC0468C04000043800675AC
:100470002A2F6D6F640000B540B440CFFFF745FFF1
:10048000043F3E6040BC00F008F800BDAC04000032
:10049000438006756D2F6D6F640000B5043F3E60AC
:1004A000002600F01AF840CF043700BDCC0400004D
:1004B0004380056D2F6D6F6400B5043F3E60F617F5
:1004C00000F034F840CF043700BDC04620050000DE
:1004D00044800675642F6D6F640030B400230022E1
:1004E0007968B86835003C6840264000494152416F
:1004F0005B41AB4202D804D3A24202D3121BAB41F0
:100500000130013EF1D10E0038607B60BA6030BC32
:10051000704730B400237A68B9680020E2E7C0462B
:1005200098050000448005642F6D6F6400B5F017D6
:1005300019D0FFF7BAFEFFF7F3FDF0170CD0FFF765
:10054000B4FEFFF7EDFDFFF7C8FFFFF7E9FDFFF78A
:10055000ACFEFFF7E5FD00BDFFF7E2FDFFF7BDFFD5
:10056000FFF7A3FE00BDFFF7DBFDF0170ED0FFF78E
:100570009CFEFFF7D5FDFFF7B0FFFFF796FEFFF7F4
:10058000CFFDFFF792FEFFF7CBFD00BDFFF7C8FDE3
:10059000FFF7A3FF00BDC046B00500004480026421
:1005A0002F0000B5FFF7C2FFFFF7CAFD00BDC04630
:1005B000F8050000448002662A0000B5F0170DD04F
:1005C000FFF773FEFFF7ACFDF0170DD0FFF76DFEE0
:1005D000FFF7D0FE40CF01CF386000BDFFF7A0FD90
:1005E000F017F5D0FFF761FEFFF7C4FE40CF01CF53
:1005F0003860FFF75AFE00BD4406000044800266E2
:100600002F0000B5F0170ED0FFF74FFEFFF788FD63
:10061000F0170ED0FFF749FEFFF782FDFFF779FFD5
:10062000FFF78EFD00BDFFF77BFDF017F4D0FFF75D
:100630003CFEFFF775FDFFF76CFFFFF736FEFFF797
:100640007FFD00BD5806000020800232210006CF49
:100650003160726040CF70476C060000208002322B
:100660004000043F706838603668704780060000BC
:1006700044800364753C07CF121AB141B6417047FC
:100680009406000044800364753E07CF801A8E41B3
:10069000B6417047AC060000448002643C0007CFBE
:1006A000121AB1410DDB00267047C046C806000093
:1006B000448002643E0007CF801A8E4101DB002691
:1006C00070470026F6437047D80600006280036436
:1006D000303C0437F6177047EC0600006280036474
:1006E000303D01CF0643013EB64170470807000088
:1006F000448003643C3E07CF50404E400643013ED9
:10070000B641F6437047C0462007000044800264AB
:100710003D0007CF50404E400643013EB641704772
:1007200034070000208003737040043F3E603E00A9
:100730007047C046440700002080037370213700D3
:1007400040CF704758070000208003727040043F7C
:100750003E606E467047C046680700002080037206
:100760007021B54640CF7047780700006180036470
:100770007570043F3E607047880700006180046424
:10078000726F700040CF7047A00700006180043F87
:1007900064757000002E01D0043F3E607047C04673
:1007A000B4070000628004737761700039683E60AE
:1007B0000E007047C40700006280036E6970043742
:1007C0007047C046D80700006280046F76657200EB
:1007D000043F3E607E687047F0070000628004744A
:1007E00075636B0001CF083F7E6038607047C0467C
:1007F00008080000638003726F7403CF083F7860BD
:100800003E600E007047C046200800006380042D43
:10081000726F740003CF083F7E6039600600704736
:10082000340800002080047069636B00B0003E58FB
:100830007047C0464C08000000800564657074680D
:10084000C749C91B043F3E608E107047680800000E
:1008500000800672646570746800043F3E606E46F6
:10086000C049891B8E107047780800002080023E26
:10087000720040B440CF70478C08000020800272A4
:100880003E00043F3E6040BC7047C046A0080000E8
:10089000208002724000043F3E60009E7047C046C8
:1008A000B00800002080057264726F7001B070475C
:1008B000C4080000208005727069636BB6006E4446
:1008C00036687047D80800006A8003616E6401CF03
:1008D000064070470640C046EC0800006A8003628C
:1008E000696301CFB04306007047864300090000EA
:1008F0006A80026F720001CF064370470643C0460C
:10090000140900006A8003786F7201CF4640704777
:100910004640C046240900006180036E6F74F643B0
:100920007047C04644090000418003636C7A300080
:1009300006D00026400002D001D20136FAE7704707
:10094000202670475409000061800373687276089E
:100950007047C0466409000061800373686C7600CC
:100960007047C04674090000618003726F720120F5
:10097000C641704788090000618003726F6C0020D7
:10098000B61946417047C046A40900006C80067243
:1009900073686966740001CFF0400600704736083E
:1009A0000026C046C00900006C8007617273686948
:1009B000667401CF3041060070473610F617C04606
:1009C000DC0900006C80066C73686966740001CFF6
:1009D000B0400600704736000026C046EC09000013
:1009E000618002303D00013EB6417047000A0000C0
:1009F000618003303C3E013EB641F6437047C0463D
:100A0000100A0000618002303C00F6177047C046B3
:100A1000280A00006080047472756500043F3E601F
:100A20000026F6437047C0463C0A00006080056619
:100A3000616C7365043F3E6000267047500A0000F9
:100A40004280023E3D0001CFB042E9DA0026704705
:100A5000640A00004280023C3D0001CFB042DFDD6D
:100A600000267047780A00004280013C01CFB04266
:100A7000D6DB00267047C0468C0A00004280013E4B
:100A800001CFB042CCDC00267047C046A00A00006F
:100A9000628003753E3D01CF861BB641F643704729
:100AA000B40A0000628003753C3D01CF361AB6419E
:100AB000F6437047C80A0000628002753C0001CF0F
:100AC000861BB6417047C046DC0A00006280027592
:100AD0003E0001CF361AB6417047C046F40A000006
:100AE0006B80023C3E0001CF361A013EB641F64310
:100AF0007047C046080B00006B80013D01CF361ADD
:100B0000013EB6417047C0461C0B00006280036D79
:100B1000696E01CFB04200DC06007047300B000068
:100B20006280036D617801CFB04200DB0600704740
:100B3000480B0000628004756D61780001CFB042FF
:100B400000D306007047C046680B00006280047541
:100B50006D696E0001CFB04200D8060070470000FA
:100B60003002002030030020A80B00000080046D3C
:100B70006F76650007B5310040CF320040CF0029C5
:100B80000FD0B2420DD006D3013E013A705C5054F2
:100B90000139FBD105E0307810700136013201399E
:100BA000F9D140CF07BDC046CC0B000000800466E1
:100BB000696C6C00300040CF310040CF002902D07A
:100BC00001397054FCD140CF7047C046D80B0000AB
:100BD0002080014036687047F00B00006D800121D5
:100BE00003CF30600E0070470660704701607047A9
:100BF000180C00006D80022B210003CF3268121800
:100C000032600E00704702689219026070470268F5
:100C1000521802607047C046280C0000208002680D
:100C2000400036887047C046440C00006D80026862
:100C3000210003CF30800E0070470680704701808E
:100C40007047C0466C0C00006D8003682B2103CFF9
:100C50003288121832800E00704702889219028082
:100C600070470288521802807047C0467C0C000012
:100C700020800263400036787047C046980C000020
:100C80006D800263210003CF30700E007047067044
:100C9000704701707047C046C00C00006D80036350
:100CA0002B2103CF3278121832700E007047027871
:100CB0009219027070470278521802707047C0464D
:100CC000E80C00006D8004626973210003CF326874
:100CD000024332600E007047026832430260704780
:100CE00002680A4302607047100D00006D800462C4
:100CF0006963210003CF3268824332600E0070477F
:100D00000268B2430260704702688A43026070471B
:100D1000380D00006D8004786F72210003CF3268B7
:100D2000424032600E0070470268724002607047B5
:100D300002684A4002607047A00D000068800462AB
:100D40006974400001CF36680640013EB641F64363
:100D50007047E54A00B5012B0AD1043F3E600026EA
:100D600000F04CFF043F3E60160001F0EAFA11E08B
:100D700002CF013B02F02BFC043F3E6036261643B7
:100D800001F0DFFA043F3E600E00043F3E600026A3
:100D900000F034FF043F3E60D44E01F0D8F800BDAF
:100DA000C80D00006D8005686269732103CF328829
:100DB000024332800E00704702883243028070473F
:100DC00002880A4302807047F00D00006D800568BC
:100DD0006269632103CF3288824332800E007047FC
:100DE0000288B2430280704702888A4302807047BB
:100DF000180E00006D800568786F722103CF32886D
:100E0000424032800E007047028872400280704774
:100E100002884A4002807047380E000068800568EA
:100E20006269744001CF36880640013EB641F64300
:100E30007047AF4A8EE7C046600E00006D800563C4
:100E40006269732103CF3278024332700E0070471B
:100E5000027832430270704702780A43027070478A
:100E6000880E00006D8005636269632103CF3278CC
:100E7000824332700E0070470278B24302707047AE
:100E800002788A4302707047B00E00006D800563DF
:100E9000786F722103CF3278424032700E00704773
:100EA000027872400270704702784A4002707047C0
:100EB000D00E0000688005636269744001CF367807
:100EC0000640013EB641F64370478A4A42E7C046B3
:100ED000E00E000061800563656C6C2B0436704782
:100EE000F00E000061800563656C6C73B60070479E
:100EF000D80F0000008006666C6173682100300026
:100F000040CF310040CF7C4B984253D30322024064
:100F10001AD1002917D00268002A32D1774A8018E6
:100F2000774A784B1360784B1360784A784B13609C
:100F3000784B13600160784A136801210B40FBD1A4
:100F4000764A07231360704700F0EEFC304164647A
:100F5000726573732068617320746F20626520343A
:100F60002D616C69676E656420666F7220777269A7
:100F700074696E6720666C61736820210A0002F054
:100F80004DFB00F0D1FC29466C617368206C6F63E7
:100F90006174696F6E2063616E6E6F74206265208C
:100FA0007772697474656E20747769636520210AAD
:100FB00002F034FB00F0B8FC1943616E6E6F7420D0
:100FC000777269746520696E746F20636F72652033
:100FD000210A02F023FBC0465010000000800E667C
:100FE0006C617368706167656572617365000FB5E8
:100FF000300040CF404B98421BD3404A8018404AB3
:10100000404B1360404B1360404A414B1360414BCF
:101010001360424A424B13607F21884300220260E2
:101020003D4A136801210B40FBD13C4A0723136062
:101030000FBD00F079FC1443616E6E6F7420657211
:1010400061736520636F726520210A0002F0E6FA81
:10105000CC10000000800A6572617365666C617374
:101060006800254872B62F490388002B1CD0043F26
:101070003E600600043F3E6000F056FC1045726181
:10108000736520626C6F636B20617420200000F038
:10109000B7FC00F049FC0C2066726F6D20466C6155
:1010A00073680A00FFF7A3FF02308842DCD100F02A
:1010B0003BFC1246696E69736865642E2052657345
:1010C000657420210A0002F039FBC0463811000087
:1010D00000800E6572617365666C61736866726F1D
:1010E0006D00300040CFBDE700680000480D0000F3
:1010F00000880000007800000040000000000008A8
:101100000C200240EFCDAB89050403021020024001
:10111000BFAE9D8C16151413182002400420024007
:101120000802000000000100464860210022028001
:1011300002300139FBD17047481200000080076877
:10114000666C6173682130B5320040CF500813D30C
:1011500000F0EAFB1E68666C61736821206E6565AD
:101160006473206576656E2061646472657373656F
:10117000732E0A0002F052FA022353403148202114
:10118000048845882D042C439C422AD0063001391E
:10119000F6D12C482021048845882D042C431AD0F0
:1011A00006300139F7D100F0BFFB27546F6F206D77
:1011B000616E7920756E7061697265642031362DBB
:1011C00062697420466C6173682077726974657314
:1011D0002E0A02F023FA0280120C4280868040CF51
:1011E00030BD0221114003D0023A8188360401E06B
:1011F000818809040E43043F3E60160000210180EF
:1012000041808180FFF77BFE30BD0E48602102885F
:10121000002A12D000F088FB1D556E70616972655E
:10122000642031362D62697420466C6173682077C2
:10123000726974652E0A02F0F1F902300139E6D1C3
:1012400070470000300300205C1200006980012B11
:1012500001CF3618704736180036C04670120000AD
:101260006980012D01CF861B7047361A003EC046AB
:1012700080120000618002312D00013E7047C0469F
:1012800090120000618002312B0001367047C04689
:10129000A0120000618002322D00023E7047C0465D
:1012A000B0120000618002322B0002367047C04647
:1012B000C41200006180066E656761746500764245
:1012C0007047C046D8120000618003616273F01756
:1012D000361846407047C04620130000428005750E
:1012E0002F6D6F64310040CF002903D1043F3E6071
:1012F00000267047012200238E4206D9003104D413
:101300005200490001D48E42FAD88E4201D3761A97
:10131000134349085208F8D1043F3E601E0070474D
:10132000901300004280042F6D6F640000B5300000
:1013300040CF002E1CDA764200280CDA4042043FEF
:101340003E600600FFF7CEFF300040CF7642043FFC
:101350003E60060000BD043F3E600600FFF7C2FF8E
:10136000300040CF40427642043F3E60060000BD60
:10137000002807DA4042043F3E600600FFF7B2FF54
:10138000764200BD043F3E600600FFF7ABFF00BDA4
:10139000A41300004280036D6F6400B5FFF7C6FF21
:1013A00040CF00BDB81300004280012F00B5FFF709
:1013B000BDFF043700BDC046C81300006A80012A83
:1013C00001CF464370474643D81300006180023284
:1013D0002A0076007047C046E813000061800232A0
:1013E0002F0076107047C046FC1300006180046532
:1013F00076656E00012030403618704714140000E6
:101400008180046261736500043F3E608D4E7047C9
:101410000A0000002C14000000800662696E6172F0
:1014200079008848022101607047C04644140000DA
:10143000008007646563696D616C82480A21016000
:101440007047C046981400000080036865787D48A6
:101450001021016070477C497C4808607C4901206C
:101460000860086804221040FBD07A490120086017
:1014700079497A4808607A497A4808607A497B480D
:1014800008607B497B4808607B498B2008607B496A
:101490007B4808607047C046B4140000818009682A
:1014A0006F6F6B2D656D6974043F3E60754E7047BC
:1014B000AA150000D0140000818008686F6F6B2DA2
:1014C0006B657900043F3E606F4E7047D215000097
:1014D000F014000081800A686F6F6B2D656D697470
:1014E0003F00043F3E60694E7047FC150000C04657
:1014F0000C150000818009686F6F6B2D6B65793F5B
:10150000043F3E60624E70472A1600002C15000012
:1015100081800A686F6F6B2D706175736500043F81
:101520003E605C4E7047EA360000C046441500003D
:10153000008004656D6974000FB5524800F029F809
:101540000FBDC046581500000080036B65790FB5CC
:101550004D4800F01EF80FBD6C15000000800565B9
:101560006D69743F494800688746C0468015000091
:101570000080046B65793F00454800688746C04697
:10158000981500000080057061757365414800681A
:10159000874600688746C046C015000000800B7370
:1015A000657269616C2D656D697400B500F026F88F
:1015B000002E40CFFAD0384A167040CF00BDC0464A
:1015C000E815000000800A73657269616C2D6B6517
:1015D000790000B500F029F8002E40CFFAD0043F82
:1015E0003E602E4A167800BD1816000000800C736D
:1015F000657269616C2D656D69743F0000B5FFF718
:10160000C5FF043F3E600026254801688020014058
:1016100000D0F64300BDC046A416000000800B7346
:10162000657269616C2D6B65793F00B5FFF7AEFFA0
:10163000043F3E6000261A4801682020014000D087
:10164000F64300BDFC1F00200070004000080000B1
:10165000001002400C1002402C1002408F000000CD
:10166000341002400040000000000050FFFCEBEB93
:1016700024000050400400000C38014000380140B4
:101680000D000000F81F0020F41F0020F01F0020B4
:10169000EC1F0020E81F00202838014024380140BA
:1016A0001C380140C816000000800763657870652B
:1016B000637400B5386801B40130386000F00BF88D
:1016C00001BC067040CF00BD4017000000800661DD
:1016D00063636570740000B502CF01390022FFF723
:1016E00036FF300040CF7F2809D0202819D20928A2
:1016F00016D00A281FD00D281DD00828EFD1002AA7
:10170000EDD000F011F903082008002AE7D0885C2A
:10171000013A80230340E2D040230340F5D0DEE7C6
:101720002020B242DBD2043F3E600600FFF704FFF8
:1017300001328854D3E7160000F0A4F800BDC0467B
:1017400054170000408003746962043F3E602B4ED2
:101750007047C0466C1700008180033E696E043FED
:101760003E60274E704700000000C04694170000FE
:1017700082800E63757272656E742D736F757263FD
:101780006500043F3E601F4E704700000000680087
:101790000020C046B0170000008009736574736FA5
:1017A00075726365174802CF0660416040CF70478D
:1017B000D0170000008006736F7572636500043FE8
:1017C0003E60104E043F7068386036687047C0460F
:1017D0000818000000800571756572790FB508481A
:1017E00000210160FFF7B1FF043F3E60043F3E600F
:1017F000C826FFF770FFFFF7D5FF0FBD6800002078
:10180000E41F0020DC1F0020501800000080076348
:101810006F6D706172650FB5310040CF01CF8842A6
:1018200002CF10D1002810D001380A5C335C412A65
:1018300002D35B2A00D22032412B02D35B2B00D291
:1018400020339A42EED000260FBD0026F6430FBD8E
:101850006418000000800263720000B500F064F8B4
:10186000010A00BD78180000008002626C00043F8D
:101870003E6020267047C0468C180000008005732B
:1018800070616365043F3E60202655E6AC18000099
:101890000080067370616365730000B5002E03DD80
:1018A000FFF7F0FF013EFBD140CF00BDBC180000A8
:1018B0005080065B636861725D0005E0D41800002B
:1018C000008004636861720000B501F031FB40CF15
:1018D000367800BDE418000050800128043F3E60C7
:1018E000292606E0001900005080015C043F3E609C
:1018F000002600B501F026FB043740CF00BDC046EE
:10190000481900003080022E2200AB4800B5043F89
:101910003E60060000F014FA043F3E60222601F00B
:1019200011FB00F048FD00BD0AB4043F3E6076465E
:10193000013E33780121013319405B187146C91803
:101940008E460ABC3CE0C04670190000308002633D
:1019500022009A48DAE7043F3E607646013E33783B
:101960000121013319405B187146C9188E46704732
:101970009C1900003080027322009148C6E7043FA2
:101980003E607646043F3E60013E36780121731C7E
:1019900019405B187146C9188E467047B41900008B
:1019A000008005636F756E740136043F3E60013E32
:1019B00036787047CC190000008005637479706533
:1019C00000B5FFF7F1FF00F007F800BDF4190000C3
:1019D000008004747970650001B501CF002E07D036
:1019E000043F3E600678FFF7A7FD0130013EF7D1C6
:1019F00040CF01BD301A00000080046865782E00D9
:101A000007B5310040CF20200F220438043F3E604C
:101A10000E00C6401640092E01D9373600E0303698
:101A2000FFF78AFD0028F0D1FFF72CFF07BDC04665
:101A3000401A0000008003682E731FB5614C0EE051
:101A4000501A0000008003752E731FB55E4C06E02F
:101A5000F41A00000080022E73001FB55B4C5C4935
:101A6000C91B8908220A2020292F200A2028273E66
:101A7000200A202F43432020203335204343430AAC
:101A8000385C29295F200A0A524A106803B40A20E8
:101A90001060FFF749FF08537461636B3A205B00E5
:101AA000043F3E600E0001F037FCFFF73DFF025D92
:101AB000200003BC2736474A106000290AD0464A56
:101AC000106806B4043F3E600600A04706BC043A16
:101AD0000139F5D1FFF728FF0620544F533A200073
:101AE000043F3E603600A047FFF71EFF04202A3E59
:101AF0000A001FBD941B0000008005776F7264739D
:101B000000B5FFF711FF010A00F079FEFFF70CFFA7
:101B100009416464726573733A20043F3E60FFF7C5
:101B20006FFFFFF701FF064C696E6B3A2000043F20
:101B30003E603668FFF764FFFFF7F6FE07466C610C
:101B400067733A20043F3E60B688FFF759FFFFF7FE
:101B5000EBFE06436F64653A2000B01D00F08AFE7C
:101B6000043F3E600600FFF74BFFFFF7DDFE064E29
:101B7000616D653A2000043F3E600636FFF720FFA6
:101B8000FFF7D2FE010A00F052FE300040CFBDD078
:101B900040CF00BDE41B0000008006756E757365C4
:101BA000640000B500F01CFF0C4801680B4A91422C
:101BB00000D20B4E761A00BD2819000056190000FD
:101BC0007E190000011A00000733000019330000DD
:101BD00030020020FC1F00202C020020000000200A
:101BE00000000100341D00000080107265676973F9
:101BF0007465726C69746572616C2C003FB5A64B9C
:101C00003868184098420FD13868C043386040B4F3
:101C100000F00DF8043F3E60A04E01BC0643C0003A
:101C2000064300F08EFB3FBD00F001F83FBD00B55C
:101C3000350040CF2900C90029432D0298480543AB
:101C4000FF2300223000D040984301D00132F9E751
:101C50003000D04018402843043F3E60060000F0AA
:101C600070FB9048054318009040864310D0002434
:101C70003000E040984301D00134F9E7101B043FE5
:101C80003E600E008001064300F05BFB2200DFE7B0
:101C9000002A06D0043F3E600E009201164300F079
:101CA00050FB40CF00BD1FB5310040CF7E4C0C43F0
:101CB000C9000C434901300040CF020EFF231A40F7
:101CC000774B0B431343043F3E601E0000F039FB8B
:101CD000043F3E60260000F034FB020CFF231A4054
:101CE000724B0B431343043F3E601E0000F029FB80
:101CF000043F3E60260000F024FB020AFF231A4046
:101D00006A4B0B431343043F3E601E0000F019FB77
:101D1000043F3E60260000F014FB0200FF231A403F
:101D2000624B0B431343043F3E601E0000F009FB6F
:101D30001FBDC046A41D000000800563616C6C2CB3
:101D40000FB5330000F03CFE300040CF1B1A043BBF
:101D50005749194000290ED0564A91420BD00136FE
:101D6000043F3E600026FFF749FF043F3E60524EAD
:101D700000F0E7FA0FBD40CF5B08504850491940CA
:101D80000843DB0A4F491940090408439B0A012113
:101D9000194089060843043F3E60060000F0FBFA44
:101DA0000FBDC046D81D00000080086C69746572C4
:101DB000616C2C0000B5043F3E60434E00F0C1FA58
:101DC000043F3E60414E00F0BCFA043F3E600626F0
:101DD000FFF714FF00BDC046001E00000080066330
:101DE00072656174650000B500F03DF81E200002C8
:101DF0001F308047043F3E607646013E00BDC0462E
:101E0000581E0000208005646F65733E1E2000028E
:101E10001F308047043F3E607646013E7047043FD6
:101E20003E607646013E2A4A13682A490968022024
:101E3000084000D10231023111600136043F3E609A
:101E40000026FFF730FF043F3E601B4E00F079FA9A
:101E5000136000F0E6F900BDDC1E00000080073CC6
:101E60006275696C647300B500F088FB00F0A8FD32
:101E70000220064040CF04D1043F3E60362600F0E9
:101E800060FA043F3E60144E00F05BFA043F3E608F
:101E9000102600F0C3FA00BD0000FFFFC0430000A1
:101EA00000200000001000000002000000300000D0
:101EB0000100C0FF0000C0FF8047000000F800F0F4
:101EC000FF070000FF030000043F00003E60000029
:101ED000000000201400002000B50000E81E0000F3
:101EE0005080035B275D03E0001F00000080012796
:101EF00000B501F01DF800F006FD300040CF00BD38
:101F0000401F0000308008706F7374706F6E650042
:101F100000B5FFF7EDFF102101400DD12021014058
:101F200005D0FFF747FF043F3E60E34E04E0FFF7B4
:101F300041FF043F3E60E14EFFF702FF00BDC04697
:101F40008C1F0000008007696E6C696E652C00B5FF
:101F5000DB49DC4ADC4B3088884208D0904208D00C
:101F6000984206D0043F3E60060000F0EAF90236CF
:101F7000F1E740CF00BD0EB4D24AD34B0188023006
:101F8000914201D09942F9D10EBC7047A01F0000C8
:101F90000080047265742C00043F3E60C94ED0E19D
:101FA000B01F00003080046578697400F4E7C04613
:101FB000C81F000030800772656375727365043F47
:101FC0003E60C24E3668BBE6E01F000081800573AC
:101FD00074617465043F3E60BD4E704700000000B0
:101FE000F41F00000080015DB9480021C943016071
:101FF0007047C046042000001080015BB4480021F7
:10200000016070472C2000000080013A00B5B14803
:10201000076000F0B3FA043F3E60A94E00F091F96A
:10202000AB480021C943016000BDC04680200000CC
:102030003080013B00B5A7480168B94214D0A649D9
:102040008E4202D1A54EFFF7BBFCFFF76DFC1520B9
:10205000537461636B206E6F742062616C616E6398
:1020600065642E0A01F0DAFA043F3E60954E00F0F6
:1020700068F900F0D6F896480021016000BDC0461E
:1020800094200000008007657865637574653000F2
:1020900040CF8746AC200000108009696D6D6564F3
:1020A00069617465043F3E601026EBE0C4200000C7
:1020B000508006696E6C696E6500043F3E602026A4
:1020C000E0E0C046E020000010800B636F6D706997
:1020D0006C656F6E6C79043F3E603026D2E0C0467E
:1020E000FC20000050800A302D666F6C6461626CC9
:1020F0006500043F3E604026C4E0C0461821000051
:1021000050800A312D666F6C6461626C6500043F1B
:102110003E604126B6E0C0463421000050800A32BD
:102120002D666F6C6461626C6500043F3E60422600
:10213000A8E0C0465021000050800A332D666F6C25
:102140006461626C6500043F3E6043269AE0C046CD
:102150006C21000050800A342D666F6C6461626CE3
:102160006500043F3E6044268CE0C04688210000A4
:1021700050800A352D666F6C6461626C6500043FA7
:102180003E6045267EE0C046A421000050800A360D
:102190002D666F6C6461626C6500043F3E6046268C
:1021A00070E0C046C021000050800A372D666F6C79
:1021B0006461626C6500043F3E60472662E0C04691
:1021C000F0210000008008636F6E7374616E74000C
:1021D00000B500F0D3F9FFF7EDFD043F3E603A4E45
:1021E00000F0AFF8FFF785FF00F01BF800BDC04618
:1021F0001422000000800932636F6E7374616E7484
:1022000000B500F0BBF939683E600E46FFF7D2FD1D
:10221000E1E7C04674220000008006736D756467B4
:10222000650000B52E4801682D4A91421CD2023942
:102230000A882C4B9A4204D1043F3E602A4E00F09B
:1022400080F800F06DF829480068043F3E60060001
:10225000274909680431224A1368116000F071F8B7
:102260001360FEF7D2FF00BD00F05AF8043F3E6055
:10227000204E08E0F8220000008008736574666C48
:102280006167730000B516480168154A914205D28E
:10229000164801683143016040CF00BD320040CF95
:1022A00013480068043001880F4B994201D1110096
:1022B00000E01143018000BD4E1F0000401D0000E2
:1022C00000B5000000BD00007047000014000020B1
:1022D000D81F00201000002085191204641A000085
:1022E0000000002000000000FFFF00002000002090
:1022F00004000020008000001423000041800761DA
:102300006C69676E656401203040361802203040E9
:102310003618704738230000008005616C69676ECD
:1023200000B5894801680220014004D0043F3E60A6
:10233000864E00F006F800BD7023000000800268A1
:102340002C000FB5B6B2804801687F4A914205D291
:10235000043F3E600E00FEF7F6FE02E0320040CF82
:102360000A80043F3E60022600F058F80FBDC046C8
:102370008C2300000080012C00B5043F3E60FFF775
:10238000E0FF360CFFF7DDFF00BDC046A8230000CC
:102390000080033E3C2C00B5043F3E60360CFFF746
:1023A000D0FFFFF7CEFF00BD1024000000800773B0
:1023B0007472696E672C07B5FF21314040CF300041
:1023C00040CF002905D1043F3E600026FFF7B9FF4A
:1023D00007BD043F3E60067836020E43FFF7B1FFAB
:1023E0000130013902290AD3043F3E6046783602A3
:1023F00002781643FFF7A5FF02300239F2E7002901
:1024000000D107BD043F3E600678FFF79AFF07BD85
:102410006C240000008005616C6C6F744A48016890
:10242000494A91420FD2320040CF8918484A91421E
:1024300019D3FFF779FA0B466C6173682066756CE7
:102440006C0A01F0EBF8320040CF8918414A12685B
:10245000914208D3FFF768FA0952616D2066756CE6
:102460006C0A01F0DBF801607047C0469024000060
:10247000008009666F7267657472616D00B500F067
:1024800025F831483449016034483549016000BDC0
:10249000B824000000800D636F6D70696C65746F07
:1024A00072616D3F043F3E60002627480068264960
:1024B000884248D3F6437047D824000000800C635C
:1024C0006F6D70696C65746F72616D001E48006895
:1024D0001D49884211D370476C25000000800E63AF
:1024E0006F6D70696C65746F666C61736800164817
:1024F00000681549884200D2704718481949026897
:102500000B680A6003601048174902680B680A608C
:10251000036010480068834215D300B5FFF704FA42
:1025200023205661726961626C657320636F6C6C05
:1025300069646520776974682064696374696F6E83
:102540006172790A00BD704700000020FFFF0000A3
:102550000000010024000020F003002004000020FF
:10256000C00000001C000020180000205C260000B5
:1025700000800828637265617465290000B500F069
:10258000D7FC002E0ED1FFF7CFF9152043726561FD
:102590007465206E65656473206E616D6520210A27
:1025A00001F03CF83868043F3E60043F386000F0BA
:1025B00071F940CF002E40CF11D03868043F3E6003
:1025C000043F3860FFF7B0F9095265646566696ECB
:1025D0006520FFF701FAFFF7A7F9022E2000FFF7A9
:1025E0009FFE75480068744988421ED2734874493A
:1025F000016000F0E5F9043F3E600626FFF70EFF9C
:10260000FEF708F9FFF7D7FE6E4801680A686E4BBF
:102610009A4207D1684A13681160043F3E60FFF791
:10262000ABFE1360066040CF12E000F0C9F96548C8
:10263000043F3E600668FFF79FFE043F3E60624E27
:10264000FFF77FFE5F48310040CF0160FFF7B3FE28
:10265000594801685D48016000BDC046742600000D
:102660000080087661726961626C6500043F3E60BB
:10267000012613E08C260000008009327661726921
:1026800061626C65043F3E60022607E0FC260000A4
:102690000080096E7661726961626C6500B5FFF752
:1026A0006DFF45480168444A914218D20F20064008
:1026B000B20000F04AF8300040CF0200002805D0F8
:1026C0000E600431FFF758FE0138F9D1043F3E6037
:1026D00080261643FFF7D6FDFFF7A3FD00BD00F0EF
:1026E0004EF8300040CF002803D0FFF745FE0138F8
:1026F000FBD1FFF7FEFCFFF794FD00BDE8270000CB
:102700000080076275666665723A00B5FFF736FFAE
:102710000120304036180220304036182648016823
:10272000254A91420CD2320000F00FF8FFF724FE48
:10273000043F3E60264EFFF7A5FDFFF772FD00BD8A
:1027400000F01DF8FFF76AFED3E700B521480168E5
:10275000891A214A91420BD2FFF7E6F80F4E6F74A7
:1027600020656E6F7567682052414D0A00F056FF74
:102770000160043F3E600E00FFF71CFB15E000B552
:1027800000F01EF90220064040CF04D1043F3E6015
:102790003626FFF7D6FD043F3E60104EFFF7FBFDE7
:1027A000043F3E600E4EFFF7F6FD043F3E600D4EC7
:1027B000FFF7C7FD00BD0000000000202000002042
:1027C0000080000004000020000000001400002031
:1027D0004081000024000020F00300203E60043F00
:1027E00002367E46704700001828000000800F6403
:1027F000696374696F6E6172797374617274F048A1
:102800000068EF49043F3E60884201D2ED4E7047B8
:10281000ED4E36687047C0465428000000800E64B4
:10282000696374696F6E6172796E6578740003B55F
:102830003168E648814207D08879002804D00E002C
:10284000043F3E60002603BD043F3E600026F64381
:1028500003BDC0468828000000800A736B6970734E
:102860007472696E67003178013101220A4089185B
:102870007618704706B40178013101220A408918A0
:10288000401806BC7047C04620290000008004663E
:10289000696E640030B50020002103B4350040CFDC
:1028A000340040CFFFF7ABFFC848B18888421DD045
:1028B000B179A9421AD1F01D0139425C635C412A09
:1028C00002D35B2A00D22032412B02D35B2B00D2F1
:1028D00020339A420AD10029EED102B0B01DFFF791
:1028E000C9FFB18803B4B648864206D23668B748F5
:1028F000864202D0B0790028D6D103BC0600043F3E
:102900003E600E0030BD00B53100386803B4FFF7FB
:10291000C1FF03BC3A68002A01D100F071FD00BD7F
:102920007C290000008006636A756D702C003200FF
:1029300040CF310040CF8B1B043BA54919400029F3
:102940000DD0A44881420AD0FEF7EEFF0D4A756D06
:102950007020746F6F206661720A00F05FFE5B107A
:10296000FF210B40134330001E0000B5944A13684A
:102970001060FFF7E6FC136000BDC046B4290000FC
:102980000080056A756D702C310040CF300040CF5B
:102990000B1A043B90491940002902D08F4A9142FA
:1029A000D2D15B108E4A13408E4A1343043F3E60DF
:1029B0001E00DAE7CC29000000800468657265001B
:1029C000043F3E607E4E36687047C046BC2A000019
:1029D00000800D666C6173687661722D6865726542
:1029E000043F3E60804E3668704700B5043F3E604D
:1029F0007E4EFFF7A6FC043F3E607D4EFFF7A1FC34
:102A000000BDDDE700B500F037F839683E600E46DE
:102A1000043F3E60774EFFF78AFF00BD00B500F02F
:102A20002BF839683E600E46043F3E60724EFFF759
:102A30007EFF00BD00B5FFF7D8FF00F01DF8396834
:102A40003E600E46043F3E606C4EFFF770FF00BDD7
:102A500000B500F011F839683E600E46FFF794FFAC
:102A600000BD00B5FFF7C1FFFFF7AAFF043F3E60BE
:102A70000226FFF7D3FC00BD00B5FFF7A1FF043F1E
:102A80003E600226FFF7CAFC00BD00B5FFF798FFC5
:102A9000FFF77AFF00BD00B5FFF792FF043F3E60ED
:102AA000564EFFF744FF00BD00B5FFF789FF043F16
:102AB0003E60504EFFF73BFF00BDC046F82A0000C5
:102AC0003080047468656E00052E01D140CFDCE7CC
:102AD000022E01D140CFDEE7FEF726FF17537472B6
:102AE0007563747572657320646F6E2774206D61F1
:102AF0007463680A00F092FD142B000030800465B6
:102B00006C73650000B500F017F8FDF709FBFFF7DF
:102B1000DBFF00BD2C2B000030800269660000B591
:102B2000FFF79FFF043F3E60022600BD482B0000D8
:102B3000308005616865616400B5FFF79DFF043F63
:102B40003E60052600BDC046642B00003080067242
:102B500065706561740000B500F020F8FFF7B4FF00
:102B600000BDC0467C2B00003080057768696C652D
:102B700000B5FFF7D4FFFDF7D3FA00BD902B00009E
:102B8000308005756E74696C012EA5D140CF51E778
:102B9000A42B0000308005616761696E012E9BD116
:102BA00040CF55E7002C0000308005626567696EF4
:102BB00000B5FFF726FF043F3E60012600BD000080
:102BC00000000020C0000000040000200000000001
:102BD00001FFFFFF00FFFFFF01F8FFFF00F8FFFF0D
:102BE000FF07000000E0000024000020002E00008D
:102BF00040CF000000D1000000D7000000D000004E
:102C0000102C00002080016B043F3E60029E704744
:102C1000202C00002080016A043F3E60009E704727
:102C2000302C000020800169043F3E602600704780
:102C3000702C00003080056C6561766500B5D24867
:102C400001683B00043F1A68043B1A6008338B425A
:102C5000F9D103B4FFF710FF03BC330040CF0439B0
:102C60000B60016004390A6801320A6000BDC04689
:102C7000842C0000208006756E6C6F6F700030BC75
:102C80007047C046BC2C00003080052B6C6F6F7005
:102C9000032E00D020E740CF00B5043F3E60BB4E7E
:102CA000FFF755F9FFF7BAFE1AE080200006001979
:102CB000A419401B801940CF7047C046002D00006A
:102CC0003080046C6F6F7000032E00D004E740CF9B
:102CD00000B5043F3E60AE4EFFF739F9FFF792FEB4
:102CE00000F00CF9A848310040CF0160043F3E607D
:102CF000A84EFFF72CF900BD0134AC427047C04626
:102D0000482D0000788002646F0000B5043F3E60EB
:102D1000A14EFFF71CF99C480168043F3E600E007D
:102D2000043F3E6000260760FFF76BFE043F3E60F5
:102D3000032600BD00B500F02EF8ECE730B43400F7
:102D400040CF350040CF7047DC2D00007880033F36
:102D5000646F00B5043F3E608F4EFFF7F8F8043F04
:102D60003E608E4EFFF7EDFA87480168043F3E60F3
:102D70000E00FFF781FE0136043F3E6001268248C7
:102D80000760FFF73EFE043F3E60032600BD00B52E
:102D900000F001F8E3E700B5043F3E60804EFFF726
:102DA000D0FA043F3E600426FEF728FF013B08D01E
:102DB000043F3E600526FEF721FF013B00F007FCC3
:102DC00000BD043F3E603526FFF7BBFA043F3E607E
:102DD000744EFFF7B6FA00F0FAFB00BDF82D0000C4
:102DE0003080046361736500043F3E600026043F49
:102DF0003E6008267047C046102E00003080033F1A
:102E00006F6669480AE0013EB64140CF7047C04650
:102E10009C2E00007880026F66006448082E00D067
:102E20005AE640CF00B5043F3E600600FFF78FF83A
:102E3000FFF722FE39683E600E460136043F3E60D1
:102E40000926043F3E60574EFFF77BFA00BD00B5F0
:102E5000300040CF013B01B400F0B9FB01BC082EAB
:102E600000D039E640CF043F3E600600FF213140EC
:102E7000B14204D14E490E43FFF763FAD8E7043F4D
:102E80003E600026FEF7BAFE043F3E60494EFFF763
:102E900058FACDE7300040CFB0427047D42E000042
:102EA000308005656E646F66092E00D014E640CF51
:102EB00000B540B440CFFFF7DFFD39683E600E46F5
:102EC000FFF7F2FD043F3E6040BC043F3E60082631
:102ED00000BDC046242F0000308007656E6463612A
:102EE0007365082E00D0F7E540CF00B5043F3E6083
:102EF0002C4EFFF726FA00F001F800BD00B53000B7
:102F000040CF00280DD003B401213140002903D067
:102F1000013EFFF7C0FD01E0FFF7B7FD03BC01383C
:102F2000EFE700BD382F0000008005746F6B656E01
:102F3000043F3E60202605E0C02F000000800570A1
:102F40006172736510B51C48016840681B4A1268BD
:102F50008418202E07D191420FD0835CB34202D156
:102F600001328418F7E7914207D0835C0132B34203
:102F7000F9D18618361B013E01E08618361B043F46
:102F80003C600E48026010BD0C000020AA2C00001E
:102F9000F82C00007E2C00003C2D0000AC4200000C
:102FA00030B4000040CF0000062E0000942E000038
:102FB000002E0000B0420000DC1F0020E41F0020B3
:102FC000003000000080056469676974D44B1B6899
:102FD000303E0BD30A2E0BD3073E0A2E06D3242EE7
:102FE00006D3203E0A2E01D3242E01D3002670479B
:102FF0009E42FBD2043F3E600026F6437047C04627
:103000000C3100000080066E756D626572003FB580
:10301000310040CF701E0126012204B4C04B1B6852
:103020000024002500293CD00130013902782D2AE6
:1030300004D101B00022D24304B4F3E7232A01D122
:103040000A23EFE7242A01D11023EBE7252A01D137
:103050000223E7E72E2A01D10226E3E72C2A36D005
:10306000043F3E601600FFF7B3FF002E40CF2BD089
:10307000043F3E602600043F3E602E00043F3E6059
:103080001E00043F3E6000260FB4FDF752F90FBC4E
:10309000350040CF340040CF0022A419554140CF25
:1030A000C0E704BC002A04D50022E443ED43013408
:1030B000554133002600012B02D0043F3E602E0014
:1030C000043F3E601E003FBD01B000263FBD25000D
:1030D000002402260029E4D0425C01392E2AF9D0CE
:1030E000043F3E601600FFF773FF002E40CFEBD089
:1030F000043F3C60043F3E601E000FB4FDF7CDF975
:103100000FBC340040CF40CFE4E7C0463031000070
:103110000080062E6469676974000A2E01D2303679
:103120007047242E01D23736704723267047C04699
:1031300068310000008004686F6C6400330040CF89
:10314000784801783F290DD20131017040180129DA
:1031500007D00138027801300270013801390129A5
:10316000F7D103707047C0468831000000800568C1
:103170006F6C643C330040CF6A4801783F2902D22B
:103180000131017043547047A03100000080047386
:1031900069676E00002E01D440CF70472D26CDE721
:1031A000B4310000008002233E005E480678013002
:1031B00038607047CC31000000800366235310B59F
:1031C000202400F008F8013CFBD110BDF0310000D4
:1031D00000800266230000B5043F3E60504E366812
:1031E000FDF793F8FFF799FFFFF7C4FF00BDC04656
:1031F0000C32000000800223530000B500F00AF8F2
:10320000002EFBD138680028F8D100BD383200000C
:103210000080012300B5043F3E60414E3668043F04
:103220003E600026FDF759F9FCF77AFF40CFFFF723
:1032300074FFFFF783FF00BD4C3200000080023CAA
:1032400023003848002101707047C04660320000FA
:10325000008002662E00043F3E60202605E0C04646
:10326000B0320000008003662E6E00B510B434004A
:1032700040CFFDF7B7FAFDF70DF8043F3E6000269A
:10328000FFF7DFFFFFF7B9FF40CF2C26FFF772FFF4
:10329000002C03D0FFF79FFF013CFBD110BC40CFB7
:1032A000FFF778FF043F3E60043F3E601EE0C046EB
:1032B000C832000000800375642E00B5FFF7C1FF1F
:1032C000FFF79BFF12E0C046FC3200000080026462
:1032D0002E0000B5FDF786FAFCF7DCFFFFF7B1FF23
:1032E000FFF78BFFFDF789FAFFF754FFFFF75DFF4C
:1032F000FEF772FBFEF7C6FA00BDC04610330000B1
:10330000008002752E00043F3E600026D5E7C046CF
:10331000283300000080012E043F3E60F617D8E7F6
:10332000FC1F00202800002070330000008008658A
:1033300076616C756174650000B5FEF740FA01CFE7
:1033400001B440B440CFC548016802B40021016017
:10335000FEF728FA00F014F8C04802BC0160043FF0
:103360003E6040BC01BC043F3860FEF71BFA00BD64
:10337000F4350000008009696E74657270726574BE
:1033800030B5B74887420BD9FEF7CEFA10537461B7
:10339000636B20756E646572666C6F770A003DE141
:1033A000B04887420AD2FEF7BFFA0F537461636BCD
:1033B000206F766572666C6F770A2FE1AA4C2568DC
:1033C000002D01D13D002560FFF7B2FD002E02D196
:1033D000043740CF30BD3868043F3E60043F38605A
:1033E000FFF758FA310040CF320040CF002A19D100
:1033F00038683100FFF70BFE320040CF002AC0D101
:10340000043F3E600600043F3E600E00FEF7E4FA13
:10341000FEF78AFA0C206E6F7420666F756E642E4C
:103420000A00FBE0914B1B68002B1DD10025256095
:1034300030230B40302B0ED1FEF7CEFAFEF774FA94
:103440001220697320636F6D70696C652D6F6E6CEF
:10345000792E0A00E2E0043740CF043F3E601600B8
:10346000FEF715FEFFF78DFF043740CF80200840A0
:103470000ED1EB1B9B08402008400FD008200840CD
:1034800002D0002B00D01DE00F200840834205D35E
:10349000043F3E601600FEF7FAFD72E700F097F871
:1034A000043F3E60160010220A4002D0FEF7EFFDF6
:1034B00067E720220A4002D0FEF749FD61E7FEF7E8
:1034C0003FFC5EE7072001401000FEF754FD012994
:1034D00015D1012BDCD1FF213140B14204D140880C
:1034E0000643FEF72EFF4CE7043F3E600026FEF742
:1034F00085FB043F3E600688FEF723FF41E7022973
:1035000002D1012BC4D1EFE703291CD1012BBFD17C
:10351000FF213140B1420AD155490E43FEF711FF58
:103520000432043F3E601600FEF711FD29E7043F18
:103530003E600026FEF762FB0232043F3E6016004A
:10354000FEF705FD1DE7042918D1012BA0D133009A
:1035500040CF002B00D114E71F221A409A4205D019
:10356000043F3E604688FEF7ECFE0AE7043F3E60FB
:1035700006889B011E43FEF7E4FE02E7052923D1DE
:10358000012B0FD1043F3E600026FEF737FB043FBE
:103590003E600600FEF7DBFC043F3E60354EFEF762
:1035A000D0FEEEE6043F3E600026FEF727FB043F18
:1035B0003E600126FEF722FBFEF7DDFC043F3E6085
:1035C0000600FEF7C4FCDCE601308047D9E600B512
:1035D000002B0BD0013B043F3E609E00BE59FEF71E
:1035E000E9FB002BF6D1043D2F0040CF00252560DC
:1035F00000BDC04610360000818009686F6F6B2DDA
:1036000071756974043F3E601B4E70474836000078
:103610008C36000000800471756974001748854677
:103620000F4FFDF781FD16480A2101600F48002168
:1036300001600D48016009480160124801601249AB
:1036400041600D4800688746FEF7C8F8FFF798FE0E
:10365000FEF76AF905206F6B2E0AF5E7E41F0020DC
:10366000300200203001002008000020D81F002078
:10367000003E000040CF0000D41F00203003002097
:10368000FC1F0020DC1F002068000020A83600007E
:1036900000800565696E743F043F3E60EFF310865D
:1036A000013EB6417047C046B83600002080046530
:1036B000696E740062B67047C836000020800464EA
:1036C000696E740072B67047E036000020800469AD
:1036D00070737200043F3E60EFF305867047C0468A
:1036E000EC3600000080036E6F70704730370000CA
:1036F000008009756E68616E646C656400B5FEF7E4
:1037000013F914556E68616E646C656420496E74BB
:103710006572727570742000043F3E60EFF3058699
:10372000FEF76EF9FEF700F902210A0000BDC0465F
:1037300044370000008005726573657487488849C6
:103740000160C0466837000081800B6972712D737B
:1037500079737469636B043F3E60824E7047FC3638
:1037600000008048006887468C3700008180096926
:1037700072712D6661756C74043F3E607A4E7047BD
:10378000FC360000784800688746C046B437000021
:1037900081800E6972712D636F6C6C656374696FE3
:1037A0006E00043F3E60714E7047FC3600006F486B
:1037B00000688746D43700008180076972712D72D6
:1037C0007463043F3E606A4E7047FC3600006848F0
:1037D00000688746F837000081800B6972712D659B
:1037E000787469305F31043F3E60624E7047FC364A
:1037F00000006048006887461C38000081800B6923
:1038000072712D65787469325F33043F3E605A4EA1
:103810007047FC360000584800688746443800006E
:1038200081800C6972712D65787469345F3135005F
:10383000043F3E60514E7047FC3600004F48006820
:103840008746C046683800008180096972712D740E
:103850006F756368043F3E60494E7047FC36000058
:10386000474800688746C0468C3800008180086958
:1038700072712D646D613100043F3E60414E7047AE
:10388000FC3600003F4800688746C046B03800005C
:1038900081800A6972712D646D61325F3300043F6B
:1038A0003E60394E7047FC36000037480068874656
:1038B000D438000081800A6972712D646D61345FB3
:1038C0003700043F3E60314E7047FC3600002F4801
:1038D00000688746F43800008180076972712D61A5
:1038E0006463043F3E602A4E7047FC36000028485F
:1038F000006887461839000081800A6972712D6C52
:103900007074696D3100043F3E60224E7047FC3692
:1039100000002048006887463C3900008180086923
:1039200072712D74696D3200043F3E601A4E70470B
:10393000FC360000184800688746C046A0390000E1
:103940008180076972712D646163043F3E60134E8C
:103950007047FC3600001148006887460CED00E017
:103960000400FA05D01F0020CC1F0020C81F002033
:10397000C41F0020C01F0020BC1F0020B81F002053
:10398000B41F0020B01F0020AC1F0020A81F002083
:10399000A41F0020A01F00209C1F0020981F0020B3
:1039A000C43900008180096972712D74696D3231EA
:1039B000043F3E60A84E7047FC360000A6480068F1
:1039C0008746C046E83900008180096972712D740C
:1039D000696D3232043F3E60A04E7047FC360000F5
:1039E0009E4800688746C0460C3A000081800869FE
:1039F00072712D6932633100043F3E60984E70470A
:103A0000FC360000964800688746C046303A000001
:103A10008180086972712D6932633200043F3E6013
:103A2000904E7047FC3600008E4800688746C046BE
:103A3000543A00008180086972712D7370693100F9
:103A4000043F3E60884E7047FC36000086480068A0
:103A50008746C046783A00008180086972712D73EC
:103A600070693200043F3E60804E7047FC360000B3
:103A70007E4800688746C0469C3A000081800A69FB
:103A800072712D75736172743100043F3E60784E1F
:103A90007047FC360000764800688746C03A000050
:103AA00081800A6972712D75736172743200043FEE
:103AB0003E60704E7047FC3600006E4800688746D6
:103AC000E03A00008180076972712D726E67043FD1
:103AD0003E60694E7047FC360000674800688746C4
:103AE000003B00008180076972712D6C6364043FA4
:103AF0003E60624E7047FC360000604800688746B2
:103B0000203B00008180076972712D757362043F4C
:103B10003E605B4E7047FC3600005948006887469F
:103B2000004000000000182D2D2D20466C617368A8
:103B30002044696374696F6E617279202D2D2D00A8
:103B4000FDF789FC4F4885464F4F2A264F4850497C
:103B50000160504850490160043F3E604E4E4F4D59
:103B6000B1884F4B994224D04E4B0B400AD0B01D28
:103B7000FEF780FEFEF7FFF9038840880004034348
:103B8000ED1A16E080230B4013D00F231940890053
:103B90006D1AB01DFEF76EFEFEF7EDF9043F3E60B4
:103BA0000600043F3E602E00043F3E600E00FCF71E
:103BB000E1FFFEF73CFE300040CFD1D03A4806602E
:103BC00040CF3A4805603A483A49354A884204D0DD
:103BD000023803889342F9D0023037490860FDF774
:103BE000A3FAFDF7A1FE464D6563726973702D530C
:103BF00074656C6C6172697320322E352E382077B3
:103C0000697468204D3020636F726520666F722082
:103C100053544D33324C3035334338206279204D84
:103C200061747468696173204B6F63680A0023488C
:103C300000210160043F3E60214E043F3E600426A7
:103C4000FEF728FE40CF002E02D0FEF720FAF8E45F
:103C500040CFE3E4696E6974941F0020901F002038
:103C60008C1F0020881F0020841F0020801F002040
:103C70007C1F0020781F0020741F0020701F002070
:103C80006C1F0020300300203002002000000020C4
:103C9000F003002004000020C000000000200020ED
:103CA00000000000000100001C0000202400002093
:103CB0000000010000400000180000200800002063
:103CC000543C000000000000000000000000000064
:103CD00000000000000000000000000000000000E4
:103CE00000000000000000000000000000000000D4
:103CF00000000000000000000000000000000000C4
:103D000000000000000000000000000000000000B3
:10400000344000000080046C6973740000B5FDF753
:1040100024FCFEF7F4FB043F3E600636FDF7D0FCBF
:10402000FDF730FCFEF703FC002E40CFF3D040CF6D
:1040300000BDFFFF5C40000081800864697361730C
:104040006D2D2400043F3E6080267604FB36760109
:104050000836704700000000FFFFFFFF9840000097
:1040600000800C64697361736D2D6665746368000C
:1040700000B5043F3E6080267604FB3676010836A4
:104080003668368880204004FB3040010830022129
:1040900002685218026000BDDC40000000800D6420
:1040A000697361736D2D737472696E6700B5043F37
:1040B0003E6080267604FB36760108363668043F7B
:1040C0003E60FDF77DFCFEF7CEFB80204004FB3018
:1040D00040010830066040CF00BDFFFFBC4100003A
:1040E0000080056E616D652E00B50120864340B4E9
:1040F00040CFFEF784FB043F3E600636043F3E603F
:10410000FEF7B1FB043F3E60009E01CF361A013E30
:10411000B641002E40CF08D0FDF706FC0620202D2A
:104120002D3E2000FDF74CFC00E040CFFEF77FFB6A
:10413000002E40CFDFD040CF043F3E6040BCC920BE
:1041400040010830B0420ED140CFFDF7EDFB0A2010
:10415000202D2D3E20202E272000FFF7A7FFFDF762
:10416000E3FB012728E0CB2040011E30B0420ED1F6
:1041700040CFFDF7D9FB0A20202D2D3E20207327AC
:104180002000FFF793FFFDF7CFFB012714E0CA20C3
:1041900040011630B0420ED140CFFDF7C5FB0A20DA
:1041A000202D2D3E202063272000FFF77FFFFDF705
:1041B000BBFB012700E040CF00BDFFFFEC4100004A
:1041C000008003752E3400B5043F3E600026FFF7E3
:1041D00038F8FFF71FF8FFF71DF8FFF71BF8FFF798
:1041E00019F8FEF7E2FFFDF7F7FB00BD2C420000D7
:1041F000008003752E3800B5043F3E600026FFF7AF
:1042000020F8FFF707F8FFF705F8FFF703F8FFF7C7
:1042100001F8FEF7FFFFFEF7FDFFFEF7FBFFFEF7DD
:10422000F9FFFEF7C2FFFDF7D7FB00BD54420000C7
:10423000008004752E6E730000B5043F3E600026BA
:10424000FEF7FFFFFEF7D9FFFEF7AFFFFDF7C4FB58
:1042500000BDFFFF74420000008006636F6E737440
:104260002E0000B5FDF760FB02202300FFF7E4FFFE
:1042700000BDFFFF88420000008005616464722E6B
:1042800000B5FFF7B8FF00BDE842000000800972EA
:10429000656769737465722E00B50D2E05D140CF28
:1042A000FDF742FB032073701CE00E2E05D140CFBA
:1042B000FDF73AFB03206C7214E00F2E05D140CFBE
:1042C000FDF732FB032070630CE0043F3E60FDF716
:1042D0002BFB02207200FDF7B0F8FFF7ADFFFDF7F2
:1042E000B6F840CF00BDFFFF244300000080076FF9
:1042F00070636F64653F00B503CF083F78603E6030
:104300000E0001CF083F7E60386001CF064003CF2A
:10431000083F78603E600E0001CF361A013EB6417C
:1043200000BDFFFF504300000080047265672E004F
:1043300000B5043F3E607E6839683E600E0001CFE4
:10434000F040060007200640FFF7A6FF00BDFFFF74
:104350007C43000000800672656731362E0000B590
:10436000043F3E607E6839683E600E0001CFF04039
:1043700006000F200640FFF78FFF00BDB04300008E
:1043800000800B726567313673706C69742E00B5EE
:10439000043F3E6007200640043F3E607E683609C9
:1043A0000820064001CF0643FFF776FF00BDFFFF60
:1043B0000444000000800D72656769737465726C57
:1043C0006973742E00B530B400240825043F3E60A4
:1043D000043F3E600126043F3E60260001CFB0400E
:1043E000060001CF0640002E40CF06D0043F3E60BD
:1043F0002600FFF751FFFDF745FA0134AC42E5D145
:1044000030BC00BD30440000008005696D6D332E66
:1044100000B5043F3E607E6839683E600E0001CF03
:10442000F040060007200640FFF71BFF00BDFFFF1E
:104430005C440000008005696D6D352E00B5043FB9
:104440003E607E6839683E600E0001CFF040060095
:104450001F200640FFF705FF00BDFFFF8844000056
:10446000008005696D6D382E00B5043F3E607E68A2
:1044700039683E600E0001CFF0400600FF20064084
:10448000FFF7EFFE00BDFFFFB844000000800869A1
:104490006D6D333C3C312E0000B5043F3E607E68BC
:1044A00039683E600E0001CFF0400600072006404C
:1044B0007600FFF7D6FE00BDE844000000800869E2
:1044C0006D6D353C3C312E0000B5043F3E607E688A
:1044D00039683E600E0001CFF04006001F20064004
:1044E0007600FFF7BEFE00BD184500000080086999
:1044F0006D6D383C3C312E0000B5043F3E607E6857
:1045000039683E600E0001CFF0400600FF200640F3
:104510007600FFF7A6FE00BD4C450000008008694C
:104520006D6D333C3C322E0000B5043F3E607E682A
:1045300039683E600E0001CFF040060007200640BB
:1045400076007600FFF78DFE00BDFFFF804500007E
:10455000008008696D6D353C3C322E0000B5043F8B
:104560003E607E6839683E600E0001CFF040060074
:104570001F20064076007600FFF773FE00BDFFFFA8
:10458000B4450000008008696D6D373C3C322E0058
:1045900000B5043F3E607E6839683E600E0001CF82
:1045A000F04006007F20064076007600FFF759FEB7
:1045B00000BDFFFFE8450000008008696D6D383CD4
:1045C0003C322E0000B5043F3E607E6839683E6094
:1045D0000E0001CFF0400600FF2006407600760076
:1045E000FFF73FFE00BDFFFF1446000081800E6410
:1045F000657374696E6174696F6E2D723000043F6B
:104600003E6080267604FB36760104367047000053
:104610000000FFFF585A0000008006646973617350
:104620006D0000B5FFF724FD043F3E608226F601D1
:104630004036043F3E60FF263602C036FFF75BFE81
:10464000002E40CF0ED0FDF76FF904616463730054
:10465000043F3E600026FFF76BFE043F3E600326EA
:10466000FFF766FE043F3E60E0267601043F3E60B1
:10467000FE263602FFF73FFE002E40CF13D0FDF797
:1046800053F9046164647300043F3E600026FFF741
:104690004FFE043F3E600326FFF74AFE043F3E60A4
:1046A0000626FFF7B5FE043F3E60C026B601043F74
:1046B0003E60F8263602FFF71EFE002E40CF0ED0D9
:1046C000FDF732F9046164647300043F3E6008261C
:1046D000FFF72EFE043F3E600026FFF7C5FE043FB5
:1046E0003E60C0267601043F3E60FE263602FFF79C
:1046F00002FE002E40CF13D0FDF716F9046164646A
:104700007300043F3E600026FFF712FE043F3E6048
:104710000326FFF70DFE043F3E600626FFF708FE66
:10472000043F3E608826F601043F3E60FF263602C5
:10473000FFF7E1FD002E40CF0AD0FDF7F5F8036149
:104740006464FFF724FE043F3E600326FFF707FE84
:10475000043F3E60A0263602043F3E60F826360243
:10476000FFF7C9FD002E40CF12D0FDF7DDF8036141
:104770006464043F3E600826FFF7DAFDFDF7D4F8D5
:10478000042070632000043F3E600026FFF71AFFFC
:10479000043F3E60A8263602043F3E60F8263602FB
:1047A000FFF7A9FD002E40CF12D0FDF7BDF8036141
:1047B0006464043F3E600826FFF7BAFDFDF7B4F8D5
:1047C000042073702000043F3E600026FFF7FAFECD
:1047D000043F3E60B0263602043F3E60FF263602AC
:1047E0008036FFF788FD002E40CF0AD0FDF79CF8F9
:1047F0000661646420737000043F3E600026FFF78A
:10480000C7FE043F3E608026F601043F3E60FF265F
:104810003602C036FFF76FFD002E40CF0ED0FDF7F9
:1048200083F804616E647300043F3E600026FFF766
:104830007FFD043F3E600326FFF77AFD043F3E60A4
:1048400080267601043F3E60F8263602FFF753FDCE
:10485000002E40CF13D0FDF767F804617372730028
:10486000043F3E600026FFF763FD043F3E600326E1
:10487000FFF75EFD043F3E600626FFF7DFFD043FC5
:104880003E608226F601043F3E60FF263602C036B7
:10489000FFF731FD002E40CF0ED0FDF745F8046143
:1048A00073727300043F3E600026FFF741FD043F32
:1048B0003E600326FFF73CFD043F3E60D0263602F3
:1048C000043F3E60F0263602FFF715FDF643002E4A
:1048D00040CF00D096E0043F3E60F020000106404B
:1048E000360A002E05D140CFFDF71EF80362657130
:1048F00068E0012E05D140CFFDF716F803626E6522
:1049000060E0022E05D140CFFDF70EF8036263731D
:1049100058E0032E05D140CFFDF706F8036263632C
:1049200050E0042E05D140CFFCF7FEFF03626D6915
:1049300048E0052E05D140CFFCF7F6FF0362706C0E
:1049400040E0062E05D140CFFCF7EEFF0362767300
:1049500038E0072E05D140CFFCF7E6FF036276630F
:1049600030E0082E05D140CFFCF7DEFF0362686916
:1049700028E0092E05D140CFFCF7D6FF03626C7307
:1049800020E00A2E05D140CFFCF7CEFF0362676519
:1049900018E00B2E05D140CFFCF7C6FF03626C7404
:1049A00010E00C2E05D140CFFCF7BEFF0362677408
:1049B00008E00D2E05D140CFFCF7B6FF03626C6511
:1049C00000E040CFFCF75EFF043F3E60FF20064062
:1049D000043F3E6080200640002E40CF02D0FF20E2
:1049E000C04306437600043F3E6080267604FB36D3
:1049F0007601083636680120864301CF3618023624
:104A0000FFF73EFC043F3E60E0263602043F3E6076
:104A1000F8263602FFF76FFC002E40CF25D0FCF7BA
:104A200083FF0162043F3E60FF20C0000730064064
:104A30007600043F3E60802000010640002E40CFFB
:104A400004D0FF2000010F30C0430643043F3E6006
:104A500080267604FB3676010836366801CF361894
:104A60000236FCF70FFFFFF70BFC043F3E60872682
:104A7000F601043F3E60FF263602C036FFF73BFCDE
:104A8000002E40CF0ED0FCF74FFF04626963730025
:104A9000043F3E600026FFF74BFC043F3E600326C8
:104AA000FFF746FC043F3E60BE263602043F3E60F0
:104AB000FF263602FFF71FFC002E40CF09D0FCF77F
:104AC00033FF04626B707400043F3E600026FFF702
:104AD000CBFC043F3E60F0263602043F3E60F826E1
:104AE0003602FFF708FC002E40CF32D0FFF7C0FAA5
:104AF000FCF71AFF04626C202000FF20C000073082
:104B00000640043F3E607E68FF20C000073006403C
:104B1000043F3E608020C0000640002E40CF04D0FD
:104B2000FF20C0000730C0430643F60201CF064312
:104B30007600043F3E6080267604FB367601083618
:104B4000366801CF3618043F3E60FFF799FBFFF748
:104B5000CBFA043F3E608F26F601043F3E60FF26FD
:104B600036028736FFF7C7FB002E40CF08D0FCF790
:104B7000DBFE03626C78043F3E600326FFF7EFFB29
:104B8000043F3E608E26F601043F3E60FF2636025B
:104B90008736FFF7B0FB002E40CF08D0FCF7C4FEED
:104BA00002627800043F3E600326FFF7D8FB043F13
:104BB0003E608526F6014036043F3E60FF26360201
:104BC000C036FFF798FB002E40CF0ED0FCF7ACFEAE
:104BD00004636D6E7300043F3E600026FFF7A8FB80
:104BE000043F3E600326FFF7A3FB043F3E60A02680
:104BF000B601043F3E60F8263602FFF77CFB002E2C
:104C000040CF0DD0FCF790FE03636D70043F3E6013
:104C10000826FFF78DFB043F3E600026FFF724FCCB
:104C2000043F3E608526F601043F3E60FF263602C3
:104C3000C036FFF760FB002E40CF0DD0FCF774FEAE
:104C400003636D70043F3E600026FFF771FB043F75
:104C50003E600326FFF76CFB043F3E608A26F601A8
:104C6000043F3E60FF263602FFF745FB002E40CF93
:104C70000AD0FCF759FE03636D70FFF788FB043F11
:104C80003E600326FFF76BFB043F3E60B62636020C
:104C90006036043F3E60FF263602E836FFF72BFB06
:104CA000002E40CF08D0FCF73FFE03637073043F33
:104CB0003E600026FFF7C2FB043F3E608026F601FF
:104CC0004036043F3E60FF263602C036FFF713FB36
:104CD000002E40CF0ED0FCF727FE04656F727300E4
:104CE000043F3E600026FFF723FB043F3E6003269F
:104CF000FFF71EFB043F3E60C8263602043F3E60BD
:104D0000F8263602FFF7F7FA002E40CF12D0FCF754
:104D10000BFE056C646D6961043F3E600826FFF779
:104D200007FBFCF701FE02207B00FFF74BFBFCF7C3
:104D3000FBFD017D043F3E60D026F601043F3E604E
:104D4000F8263602FFF7D7FA002E40CF1AD0FCF72C
:104D5000EBFD036C6472043F3E600026FFF7E8FA47
:104D6000FCF7E2FD02205B00043F3E600326FFF7F4
:104D7000DFFA043F3E600626FFF7F0FBFCF7D4FDA8
:104D800002205D00043F3E60B026F601043F3E6015
:104D9000FE263602FFF7AFFA002E40CF1AD0FCF7FE
:104DA000C3FD036C6472043F3E600026FFF7C0FA47
:104DB000FCF7BAFD02205B00043F3E600326FFF7CC
:104DC000B7FA043F3E600626FFF7B2FAFCF7ACFDE7
:104DD00002205D00043F3E609026F601043F3E60E5
:104DE000F8263602FFF787FA002E40CF39D0FCF7BD
:104DF0009BFD036C6472043F3E600826FFF798FA3F
:104E0000FCF792FD05205B207063043F3E600026A6
:104E1000FFF7D8FBFCF788FD0C205D20204C69745F
:104E20006572616C2000043F3E60FF200640760002
:104E30007600043F3E6080267604FB367601083615
:104E4000366802360320864301CF3618043F3E60A1
:104E5000FFF716FAFCF768FD023A20003668FFF704
:104E60000FFA043F3E6098263602043F3E60F82663
:104E70003602FFF740FA002E40CF16D0FCF754FD63
:104E8000036C6472043F3E600826FFF751FAFCF79A
:104E90004BFD05205B207370043F3E600026FFF74A
:104EA00091FBFCF741FD02205D00043F3E60F026CF
:104EB000F601043F3E60F8263602FFF71CFA002E8A
:104EC00040CF1BD0FCF730FD046C64726200043FDD
:104ED0003E600026FFF72CFAFCF726FD02205B005F
:104EE000043F3E600326FFF723FA043F3E60062698
:104EF000FFF7A4FAFCF718FD02205D00043F3E60B6
:104F0000B826F601043F3E60FE263602FFF7F3F9AD
:104F1000002E40CF1BD0FCF707FD046C64726200CA
:104F2000043F3E600026FFF703FAFCF7FDFC022079
:104F30005B00043F3E600326FFF7FAF9043F3E6042
:104F40000626FFF7F5F9FCF7EFFC02205D00043FB1
:104F50003E6088263602043F3E60F8263602FFF7A0
:104F6000CAF9002E40CF1BD0FCF7DEFC046C647243
:104F70006800043F3E600026FFF7DAF9FCF7D4FC36
:104F800002205B00043F3E600326FFF7D1F9043F97
:104F90003E600626FFF798FAFCF7C6FC02205D008B
:104FA000043F3E60B426F601043F3E60FE26360212
:104FB000FFF7A1F9002E40CF1BD0FCF7B5FC046C25
:104FC00064726800043F3E600026FFF7B1F9FCF709
:104FD000ABFC02205B00043F3E600326FFF7A8F90C
:104FE000043F3E600626FFF7A3F9FCF79DFC022074
:104FF0005D00043F3E60AC26F601043F3E60FE26A5
:105000003602FFF778F9002E40CF1BD0FCF78CFC5E
:10501000056C64727362043F3E600026FFF788F9F6
:10502000FCF782FC02205B00043F3E600326FFF792
:105030007FF9043F3E600626FFF77AF9FCF774FC1F
:1050400002205D00043F3E60BC26F601043F3E6046
:10505000FE263602FFF74FF9002E40CF1BD0FCF79B
:1050600063FC056C64727368043F3E600026FFF7C2
:105070005FF9FCF759FC02205B00043F3E60032609
:10508000FFF756F9043F3E600626FFF751F9FCF79B
:105090004BFC02205D00043F3E600026043F3E6062
:1050A000F8263602FFF727F9002E40CF13D0FCF781
:1050B0003BFC046C736C7300043F3E600026FFF7FA
:1050C00037F9043F3E600326FFF732F9043F3E60A4
:1050D0000626FFF7B3F9043F3E608126F601043F40
:1050E0003E60FF263602C036FFF705F9002E40CF9E
:1050F0000ED0FCF719FC046C736C7300043F3E6027
:105100000026FFF715F9043F3E600326FFF710F96C
:10511000043F3E6080263601043F3E60F82636029A
:10512000FFF7E9F8002E40CF13D0FCF7FDFB046C2D
:1051300073727300043F3E600026FFF7F9F8043FE6
:105140003E600326FFF7F4F8043F3E600626FFF7B3
:1051500075F9043F3E608126F6014036043F3E600B
:10516000FF263602C036FFF7C6F8002E40CF0ED01D
:10517000FCF7DAFB046C73727300043F3E60002698
:10518000FFF7D6F8043F3E600326FFF7D1F8043F4F
:105190003E608026B601043F3E60F8263602FFF7E7
:1051A000AAF8002E40CF0ED0FCF7BEFB046D6F7640
:1051B0007300043F3E600826FFF7BAF8043F3E60E4
:1051C0000026FFF751F9043F3E608C26F601043FAC
:1051D0003E60FF263602FFF78EF8002E40CF0AD041
:1051E000FCF7A2FB036D6F76FFF7D1F8043F3E603A
:1051F0000326FFF7B4F8043F3E608626F6014036EA
:10520000043F3E60FF263602C036FFF774F8002EDA
:1052100040CF0ED0FCF788FB046D756C7300043F23
:105220003E600026FFF784F8043F3E600326FFF748
:105230007FF8043F3E608726F6014036043F3E601B
:10524000FF263602C036FFF756F8002E40CF0ED0AC
:10525000FCF76AFB046D766E7300043F3E60002627
:10526000FFF766F8043F3E600326FFF761F8043F4E
:105270003E608426F6014036043F3E60FF2636023B
:10528000C036FFF738F8002E40CF0ED0FCF74CFBAD
:10529000046E65677300043F3E600026FFF748F820
:1052A000043F3E600326FFF743F8043F3E60862636
:1052B000F601043F3E60FF263602C036FFF71BF8BA
:1052C000002E40CF0ED0FCF72FFB046F72727300DC
:1052D000043F3E600026FFF72BF8043F3E600326A4
:1052E000FFF726F8043F3E60BC263602043F3E60CE
:1052F000FE263602FEF7FFFF002E40CF16D0FCF749
:1053000013FB05706F70207BFFF75CF8043F3E6075
:10531000802040000640002E40CF04D0FCF704FB64
:10532000042070632000FCF7FFFA017D043F3E601B
:10533000B4263602043F3E60FE263602FEF7DBFF4F
:10534000002E40CF17D0FCF7EFFA06707573682077
:105350007B00FFF737F8043F3E60802040000640A6
:10536000002E40CF04D0FCF7DFFA04206C7220003E
:10537000FCF7DAFA017D043F3E60BA263602043FAC
:105380003E60FF263602C036FEF7B5FF002E40CF46
:105390000DD0FCF7C9FA03726576043F3E60002623
:1053A000FEF7C6FF043F3E600326FEF7C1FF043F41
:1053B0003E60BA2636024036043F3E60FF26360283
:1053C000C036FEF798FF002E40CF0ED0FCF7ACFAA7
:1053D000057265763136043F3E600026FEF7A8FF71
:1053E000043F3E600326FEF7A3FF043F3E60BA265B
:1053F0003602C036043F3E60FF263602C036FEF756
:105400007AFF002E40CF0ED0FCF78EFA057265763B
:105410007368043F3E600026FEF78AFF043F3E604B
:105420000326FEF785FF043F3E608326F6014036E3
:10543000043F3E60FF263602C036FEF75CFF002EBA
:1054400040CF0ED0FCF770FA04726F727300043F05
:105450003E600026FEF76CFF043F3E600326FEF729
:1054600067FF043F3E608326F601043F3E60FF264F
:105470003602C036FEF73FFF002E40CF0ED0FCF7BD
:1054800053FA047362637300043F3E600026FEF724
:105490004FFF043F3E600326FEF74AFF043F3E6095
:1054A000B62636025036043F3E60FF263602F736F7
:1054B000FEF721FF002E40CF05D0FCF735FA06732A
:1054C0006574656E6400043F3E60C0263602043F8A
:1054D0003E60F8263602FEF70EFF002E40CF12D0B7
:1054E000FCF722FA0573746D6961043F3E6008267B
:1054F000FEF71EFFFCF718FA02207B00FEF762FFA2
:10550000FCF712FA017D043F3E60C026F601043F1D
:105510003E60F8263602FEF7EEFE002E40CF1AD08F
:10552000FCF702FA03737472043F3E600026FEF734
:10553000FFFEFCF7F9F902205B00043F3E60032602
:10554000FEF7F6FE043F3E600626FFF707F8FCF77D
:10555000EBF902205D00043F3E60A026F601043F07
:105560003E60FE263602FEF7C6FE002E40CF1AD061
:10557000FCF7DAF903737472043F3E600026FEF70D
:10558000D7FEFCF7D1F902205B00043F3E60032602
:10559000FEF7CEFE043F3E600626FEF7C9FEFCF78E
:1055A000C3F902205D00043F3E6090263602043FAE
:1055B0003E60F8263602FEF79EFE002E40CF18D041
:1055C000FCF7B2F903737472043F3E600826FEF7DD
:1055D000AFFEFCF7A9F908205B207370202B200098
:1055E000043F3E600026FEF7EDFFFCF79DF9022028
:1055F0005D00043F3E60E026F601043F3E60F82671
:105600003602FEF778FE002E40CF1BD0FCF78CF957
:10561000047374726200043F3E600026FEF788FE49
:10562000FCF782F902205B00043F3E600326FEF790
:105630007FFE043F3E600626FEF700FFFCF774F98C
:1056400002205D00043F3E60A826F601043F3E6054
:10565000FE263602FEF74FFE002E40CF1BD0FCF791
:1056600063F9047374726200043F3E600026FEF723
:105670005FFEFCF759F902205B00043F3E60032601
:10568000FEF756FE043F3E600626FEF751FEFCF78D
:105690004BF902205D00043F3E6080263602043F45
:1056A0003E60F8263602FEF726FE002E40CF1BD0C5
:1056B000FCF73AF9047374726800043F3E600026F8
:1056C000FEF736FEFCF730F902205B00043F3E6037
:1056D0000326FEF72DFE043F3E600626FEF7F4FE8D
:1056E000FCF722F902205D00043F3E60A426F6018B
:1056F000043F3E60FE263602FEF7FDFD002E40CF41
:105700001BD0FCF711F9047374726800043F3E600B
:105710000026FEF70DFEFCF707F902205B00043FB0
:105720003E600326FEF704FE043F3E600626FEF7B9
:10573000FFFDFCF7F9F802205D00043F3E60F02613
:105740007601043F3E60FE263602FEF7D4FD002EB1
:1057500040CF13D0FCF7E8F8047375627300043F80
:105760003E600026FEF7E4FD043F3E600326FEF7A0
:10577000DFFD043F3E600626FEF74AFE043F3E6022
:10578000E026B601043F3E60F8263602FEF7B3FD80
:10579000002E40CF0ED0FCF7C7F80473756273007B
:1057A000043F3E600826FEF7C3FD043F3E6000262E
:1057B000FEF75AFE043F3E60D0267601043F3E606D
:1057C000FE263602FEF797FD002E40CF13D0FCF7E1
:1057D000ABF8047375627300043F3E600026FEF769
:1057E000A7FD043F3E600326FEF7A2FD043F3E6096
:1057F0000626FEF79DFD043F3E60B0263602803649
:10580000043F3E60FF2636028036FEF774FD002E10
:1058100040CF0AD0FCF788F80673756220737000D9
:10582000043F3E600026FEF7B3FE043F3E60DF26E5
:105830003602043F3E60FF263602FEF75CFD002E76
:1058400040CF08D0FCF770F803737769043F3E60DF
:105850000026FEF709FE043F3E60B22636024036BF
:10586000043F3E60FF263602C036FEF744FD002EA0
:1058700040CF0ED0FCF758F8047378746200043FF0
:105880003E600026FEF754FD043F3E600326FEF70F
:105890004FFD043F3E60B2263602043F3E60FF26C5
:1058A0003602C036FEF727FD002E40CF0ED0FCF7A3
:1058B0003BF8047378746800043F3E600026FEF7EE
:1058C00037FD043F3E600326FEF732FD043F3E6095
:1058D0008426F601043F3E60FF263602C036FEF7FE
:1058E0000AFD002E40CF0DD0FCF71EF80374737430
:1058F000043F3E600026FEF71BFD043F3E6003268A
:10590000FEF716FD043F3E60B2263602C036043F65
:105910003E60FF263602C036FEF7EDFC002E40CF7B
:105920000ED0FCF701F8047578746200043F3E6005
:105930000026FEF7FDFC043F3E600326FEF7F8FC60
:10594000043F3E60B22636028036043F3E60FF26AA
:105950003602C036FEF7CFFC002E40CF0ED0FBF74C
:10596000E3FF047578746800043F3E600026FEF78C
:10597000DFFC043F3E600326FEF7DAFC043F3E6096
:105980008026B601043F3E60FF263602FEF7B3FCD8
:10599000002E40CF0AD0043F3E60FF20064080200A
:1059A0004004FB3040010430066040CF043F3E60BD
:1059B000C026B601043F3E60FF263602FEF79BFC80
:1059C000002E40CF0CD0043F3E60FF2006408020D8
:1059D0004004FB304001043002689219026040CF5D
:1059E000043F3E600026043F3E60F82636023F3604
:1059F000FEF781FC002E40CF18D0043F3E60802689
:105A00007604FB36760104363668043F3E607E68D5
:105A1000F820C0000640B60901CFB0400600802043
:105A20004004FB3040010430066040CF043F3E603C
:105A30008F20C001361A013EB641002E40CF09D05A
:105A4000043F3E6080267604FB36760104363668D5
:105A5000FEF74AFB40CF00BD8C5A00000080086D65
:105A6000656D7374616D700000B5043F3E60FEF7B4
:105A7000C2FBFBF759FF023A20003688FEF7A3FB72
:105A8000FBF752FF0220200000BDFFFFF85A000084
:105A900000800B64697361736D2D7374657000B55C
:105AA000043F3E6080267604FB3676010836366871
:105AB000043F3E60FFF7D8FFFEF7B3FDFBF7CDFED6
:105AC0000236043F3E60043F3E6080267604FB368B
:105AD00076010836366801CF361A013EB641F643E4
:105AE000002E40CF06D0043F3E60FFF7BDFFFBF71E
:105AF000B4FEE5E740CF00BD7C5B0000008004738E
:105B00006565630000B5043F3E6080267604FF367D
:105B100076011C363668FBF79AFCFBF79EFE043FC5
:105B20003E6080267604FB36760108363668368875
:105B30008E20C0017030361A013EB641043F3E60EF
:105B400080267604FB367601083636683688FF20D4
:105B500000020640BD200002361A013EB64101CFC8
:105B60000643FFF79CFF002E40CFD8D08020400492
:105B7000FF3040011C30066040CF00BD0000000037
:105B800000800373656500B5FCF7B2F9802040041E
:105B9000FB3040010830066040CFFFF7B3FF00BD87
:0400000508000000EF
:00000001FF
